{
  "contractName": "CartesiCompute",
  "sourceName": "cache/solpp-generated-contracts/CartesiCompute.sol",
  "abi": [
    {
      "inputs": [
        {
          "internalType": "address",
          "name": "_liAddress",
          "type": "address"
        },
        {
          "internalType": "address",
          "name": "_vgAddress",
          "type": "address"
        },
        {
          "internalType": "address",
          "name": "_machineAddress",
          "type": "address"
        }
      ],
      "stateMutability": "nonpayable",
      "type": "constructor"
    },
    {
      "anonymous": false,
      "inputs": [
        {
          "indexed": false,
          "internalType": "uint256",
          "name": "_index",
          "type": "uint256"
        }
      ],
      "name": "CartesiComputeCreated",
      "type": "event"
    },
    {
      "anonymous": false,
      "inputs": [
        {
          "indexed": false,
          "internalType": "uint256",
          "name": "_index",
          "type": "uint256"
        },
        {
          "indexed": false,
          "internalType": "bytes32",
          "name": "_state",
          "type": "bytes32"
        }
      ],
      "name": "CartesiComputeFinished",
      "type": "event"
    },
    {
      "anonymous": false,
      "inputs": [
        {
          "indexed": false,
          "internalType": "uint256",
          "name": "_index",
          "type": "uint256"
        }
      ],
      "name": "ChallengeStarted",
      "type": "event"
    },
    {
      "anonymous": false,
      "inputs": [
        {
          "indexed": false,
          "internalType": "uint256",
          "name": "_index",
          "type": "uint256"
        },
        {
          "indexed": false,
          "internalType": "bytes32",
          "name": "_claimedFinalHash",
          "type": "bytes32"
        }
      ],
      "name": "ClaimSubmitted",
      "type": "event"
    },
    {
      "anonymous": false,
      "inputs": [
        {
          "indexed": false,
          "internalType": "uint256",
          "name": "_index",
          "type": "uint256"
        },
        {
          "indexed": false,
          "internalType": "address",
          "name": "_confirmParty",
          "type": "address"
        }
      ],
      "name": "Confirmed",
      "type": "event"
    },
    {
      "anonymous": false,
      "inputs": [
        {
          "indexed": false,
          "internalType": "uint256",
          "name": "_index",
          "type": "uint256"
        },
        {
          "components": [
            {
              "internalType": "uint64",
              "name": "position",
              "type": "uint64"
            },
            {
              "internalType": "uint8",
              "name": "driveLog2Size",
              "type": "uint8"
            },
            {
              "internalType": "bytes",
              "name": "directValue",
              "type": "bytes"
            },
            {
              "internalType": "bytes",
              "name": "loggerIpfsPath",
              "type": "bytes"
            },
            {
              "internalType": "bytes32",
              "name": "loggerRootHash",
              "type": "bytes32"
            },
            {
              "internalType": "address",
              "name": "provider",
              "type": "address"
            },
            {
              "internalType": "bool",
              "name": "waitsProvider",
              "type": "bool"
            },
            {
              "internalType": "bool",
              "name": "needsLogger",
              "type": "bool"
            },
            {
              "internalType": "bool",
              "name": "downloadAsCAR",
              "type": "bool"
            }
          ],
          "indexed": false,
          "internalType": "struct CartesiComputeInterface.Drive",
          "name": "_drive",
          "type": "tuple"
        }
      ],
      "name": "DriveInserted",
      "type": "event"
    },
    {
      "inputs": [
        {
          "internalType": "uint256",
          "name": "_index",
          "type": "uint256"
        }
      ],
      "name": "abortByDeadline",
      "outputs": [],
      "stateMutability": "nonpayable",
      "type": "function"
    },
    {
      "inputs": [
        {
          "internalType": "uint256",
          "name": "_index",
          "type": "uint256"
        }
      ],
      "name": "challenge",
      "outputs": [],
      "stateMutability": "nonpayable",
      "type": "function"
    },
    {
      "inputs": [
        {
          "internalType": "uint256",
          "name": "_index",
          "type": "uint256"
        }
      ],
      "name": "challengeDrives",
      "outputs": [],
      "stateMutability": "nonpayable",
      "type": "function"
    },
    {
      "inputs": [
        {
          "internalType": "uint256",
          "name": "_index",
          "type": "uint256"
        }
      ],
      "name": "confirm",
      "outputs": [],
      "stateMutability": "nonpayable",
      "type": "function"
    },
    {
      "inputs": [],
      "name": "currentIndex",
      "outputs": [
        {
          "internalType": "uint256",
          "name": "",
          "type": "uint256"
        }
      ],
      "stateMutability": "view",
      "type": "function"
    },
    {
      "inputs": [
        {
          "internalType": "uint256",
          "name": "_index",
          "type": "uint256"
        }
      ],
      "name": "destruct",
      "outputs": [],
      "stateMutability": "nonpayable",
      "type": "function"
    },
    {
      "inputs": [
        {
          "internalType": "uint256",
          "name": "_index",
          "type": "uint256"
        }
      ],
      "name": "getCurrentState",
      "outputs": [
        {
          "internalType": "bytes32",
          "name": "",
          "type": "bytes32"
        }
      ],
      "stateMutability": "view",
      "type": "function"
    },
    {
      "inputs": [
        {
          "internalType": "uint256",
          "name": "_index",
          "type": "uint256"
        }
      ],
      "name": "getNonce",
      "outputs": [
        {
          "internalType": "uint256",
          "name": "currentNonce",
          "type": "uint256"
        }
      ],
      "stateMutability": "view",
      "type": "function"
    },
    {
      "inputs": [
        {
          "internalType": "uint256",
          "name": "_index",
          "type": "uint256"
        },
        {
          "internalType": "address",
          "name": "_p",
          "type": "address"
        }
      ],
      "name": "getPartyState",
      "outputs": [
        {
          "internalType": "bool",
          "name": "isParty",
          "type": "bool"
        },
        {
          "internalType": "bool",
          "name": "hasVoted",
          "type": "bool"
        },
        {
          "internalType": "bool",
          "name": "hasCheated",
          "type": "bool"
        }
      ],
      "stateMutability": "view",
      "type": "function"
    },
    {
      "inputs": [
        {
          "internalType": "uint256",
          "name": "_index",
          "type": "uint256"
        }
      ],
      "name": "getResult",
      "outputs": [
        {
          "internalType": "bool",
          "name": "",
          "type": "bool"
        },
        {
          "internalType": "bool",
          "name": "",
          "type": "bool"
        },
        {
          "internalType": "address",
          "name": "",
          "type": "address"
        },
        {
          "internalType": "bytes",
          "name": "",
          "type": "bytes"
        }
      ],
      "stateMutability": "view",
      "type": "function"
    },
    {
      "inputs": [
        {
          "internalType": "uint256",
          "name": "_index",
          "type": "uint256"
        },
        {
          "internalType": "address",
          "name": "_user",
          "type": "address"
        }
      ],
      "name": "getState",
      "outputs": [
        {
          "internalType": "uint256[]",
          "name": "",
          "type": "uint256[]"
        },
        {
          "internalType": "address[]",
          "name": "",
          "type": "address[]"
        },
        {
          "internalType": "bytes32[]",
          "name": "",
          "type": "bytes32[]"
        },
        {
          "internalType": "bytes",
          "name": "",
          "type": "bytes"
        },
        {
          "components": [
            {
              "internalType": "uint64",
              "name": "position",
              "type": "uint64"
            },
            {
              "internalType": "uint8",
              "name": "driveLog2Size",
              "type": "uint8"
            },
            {
              "internalType": "bytes",
              "name": "directValue",
              "type": "bytes"
            },
            {
              "internalType": "bytes",
              "name": "loggerIpfsPath",
              "type": "bytes"
            },
            {
              "internalType": "bytes32",
              "name": "loggerRootHash",
              "type": "bytes32"
            },
            {
              "internalType": "address",
              "name": "provider",
              "type": "address"
            },
            {
              "internalType": "bool",
              "name": "waitsProvider",
              "type": "bool"
            },
            {
              "internalType": "bool",
              "name": "needsLogger",
              "type": "bool"
            },
            {
              "internalType": "bool",
              "name": "downloadAsCAR",
              "type": "bool"
            }
          ],
          "internalType": "struct CartesiComputeInterface.Drive[]",
          "name": "",
          "type": "tuple[]"
        },
        {
          "components": [
            {
              "internalType": "bool",
              "name": "isParty",
              "type": "bool"
            },
            {
              "internalType": "bool",
              "name": "hasVoted",
              "type": "bool"
            },
            {
              "internalType": "bool",
              "name": "hasCheated",
              "type": "bool"
            },
            {
              "internalType": "uint64",
              "name": "arrayIdx",
              "type": "uint64"
            }
          ],
          "internalType": "struct CartesiComputeInterface.Party",
          "name": "user",
          "type": "tuple"
        },
        {
          "internalType": "bool",
          "name": "noChallengeDrive",
          "type": "bool"
        }
      ],
      "stateMutability": "view",
      "type": "function"
    },
    {
      "inputs": [
        {
          "internalType": "uint256",
          "name": "_index",
          "type": "uint256"
        },
        {
          "internalType": "address",
          "name": "",
          "type": "address"
        }
      ],
      "name": "getSubInstances",
      "outputs": [
        {
          "internalType": "address[]",
          "name": "_addresses",
          "type": "address[]"
        },
        {
          "internalType": "uint256[]",
          "name": "_indices",
          "type": "uint256[]"
        }
      ],
      "stateMutability": "view",
      "type": "function"
    },
    {
      "inputs": [
        {
          "internalType": "uint256",
          "name": "_finalTime",
          "type": "uint256"
        },
        {
          "internalType": "bytes32",
          "name": "_templateHash",
          "type": "bytes32"
        },
        {
          "internalType": "uint64",
          "name": "_outputPosition",
          "type": "uint64"
        },
        {
          "internalType": "uint8",
          "name": "_outputLog2Size",
          "type": "uint8"
        },
        {
          "internalType": "uint256",
          "name": "_roundDuration",
          "type": "uint256"
        },
        {
          "internalType": "address[]",
          "name": "parties",
          "type": "address[]"
        },
        {
          "components": [
            {
              "internalType": "uint64",
              "name": "position",
              "type": "uint64"
            },
            {
              "internalType": "uint8",
              "name": "driveLog2Size",
              "type": "uint8"
            },
            {
              "internalType": "bytes",
              "name": "directValue",
              "type": "bytes"
            },
            {
              "internalType": "bytes",
              "name": "loggerIpfsPath",
              "type": "bytes"
            },
            {
              "internalType": "bytes32",
              "name": "loggerRootHash",
              "type": "bytes32"
            },
            {
              "internalType": "address",
              "name": "provider",
              "type": "address"
            },
            {
              "internalType": "bool",
              "name": "waitsProvider",
              "type": "bool"
            },
            {
              "internalType": "bool",
              "name": "needsLogger",
              "type": "bool"
            },
            {
              "internalType": "bool",
              "name": "downloadAsCAR",
              "type": "bool"
            }
          ],
          "internalType": "struct CartesiComputeInterface.Drive[]",
          "name": "_inputDrives",
          "type": "tuple[]"
        },
        {
          "internalType": "bool",
          "name": "_noChallengeDrive",
          "type": "bool"
        }
      ],
      "name": "instantiate",
      "outputs": [
        {
          "internalType": "uint256",
          "name": "",
          "type": "uint256"
        }
      ],
      "stateMutability": "nonpayable",
      "type": "function"
    },
    {
      "inputs": [
        {
          "internalType": "uint256",
          "name": "_index",
          "type": "uint256"
        }
      ],
      "name": "isActive",
      "outputs": [
        {
          "internalType": "bool",
          "name": "",
          "type": "bool"
        }
      ],
      "stateMutability": "view",
      "type": "function"
    },
    {
      "inputs": [
        {
          "internalType": "uint256",
          "name": "_index",
          "type": "uint256"
        },
        {
          "internalType": "address",
          "name": "_user",
          "type": "address"
        }
      ],
      "name": "isConcerned",
      "outputs": [
        {
          "internalType": "bool",
          "name": "",
          "type": "bool"
        }
      ],
      "stateMutability": "view",
      "type": "function"
    },
    {
      "inputs": [
        {
          "internalType": "uint256",
          "name": "_index",
          "type": "uint256"
        },
        {
          "internalType": "bytes",
          "name": "_value",
          "type": "bytes"
        }
      ],
      "name": "provideDirectDrive",
      "outputs": [],
      "stateMutability": "nonpayable",
      "type": "function"
    },
    {
      "inputs": [
        {
          "internalType": "uint256",
          "name": "_index",
          "type": "uint256"
        },
        {
          "internalType": "bytes32",
          "name": "_root",
          "type": "bytes32"
        }
      ],
      "name": "provideLoggerDrive",
      "outputs": [],
      "stateMutability": "nonpayable",
      "type": "function"
    },
    {
      "inputs": [
        {
          "internalType": "uint256",
          "name": "_index",
          "type": "uint256"
        }
      ],
      "name": "revealLoggerDrive",
      "outputs": [],
      "stateMutability": "nonpayable",
      "type": "function"
    },
    {
      "inputs": [
        {
          "internalType": "uint256",
          "name": "_index",
          "type": "uint256"
        },
        {
          "internalType": "bytes32",
          "name": "_claimedFinalHash",
          "type": "bytes32"
        },
        {
          "internalType": "bytes32[][]",
          "name": "_drivesSiblings",
          "type": "bytes32[][]"
        },
        {
          "internalType": "bytes",
          "name": "_output",
          "type": "bytes"
        },
        {
          "internalType": "bytes32[]",
          "name": "_outputSiblings",
          "type": "bytes32[]"
        }
      ],
      "name": "submitClaim",
      "outputs": [],
      "stateMutability": "nonpayable",
      "type": "function"
    },
    {
      "inputs": [
        {
          "internalType": "uint256",
          "name": "_index",
          "type": "uint256"
        }
      ],
      "name": "winByVG",
      "outputs": [],
      "stateMutability": "nonpayable",
      "type": "function"
    }
  ],
  "bytecode": "0x6080604052600080553480156200001557600080fd5b506040516200608338038062006083833981016040819052620000389162000099565b600380546001600160a01b03199081166001600160a01b039384161790915560058054821693831693909317909255600480549092169216919091179055620000e2565b80516001600160a01b03811681146200009457600080fd5b919050565b600080600060608486031215620000ae578283fd5b620000b9846200007c565b9250620000c9602085016200007c565b9150620000d9604085016200007c565b90509250925092565b615f9180620000f26000396000f3fe608060405234801561001057600080fd5b506004361061012c5760003560e01c8063ab82d9a0116100ad578063c70683ca11610071578063c70683ca146102a8578063c87e3ae9146102bb578063ded4df63146102ce578063f9bc3b21146102e1578063fa0ecc5b146102f45761012c565b8063ab82d9a01461023b578063b72971ee1461024e578063ba0179b514610261578063bfda2e7214610274578063c526656c146102875761012c565b80635748c130116100f45780635748c130146101aa57806373df1612146101bd57806382afd23b146101e3578063995e4339146101f6578063ab5da187146102195761012c565b806301ff62ab1461013157806326987b601461015a578063351e66571461016f5780633d46b819146101845780634c6fe7bf14610197575b600080fd5b61014461013f366004614dc7565b610307565b6040516101519190615438565b60405180910390f35b61016261037f565b604051610151919061549b565b61018261017d366004614e13565b610385565b005b610162610192366004614daf565b610a7e565b6101826101a5366004614daf565b610b28565b6101626101b8366004614daf565b610d0c565b6101d06101cb366004614dc7565b610fa3565b6040516101519796959493929190615393565b6101446101f1366004614daf565b6119e8565b610209610204366004614daf565b611a00565b6040516101519493929190615443565b61022c610227366004614dc7565b611df6565b60405161015193929190615481565b610182610249366004614daf565b611e86565b61016261025c366004614efb565b6121ac565b61018261026f366004614daf565b6129ee565b610182610282366004614daf565b612c70565b61029a610295366004614dc7565b612dc5565b604051610151929190615352565b6101826102b6366004614df2565b612efe565b6101826102c9366004614daf565b6133ed565b6101826102dc366004614daf565b6135df565b6101826102ef366004614daf565b613a9c565b61018261030236600461500d565b613e7f565b600082806000541161034e576040805162461bcd60e51b81526020600482015260166024820152600080516020615f3c833981519152604482015290519081900360640190fd5b505060009182526006602090815260408084206001600160a01b03939093168452600f909201905290205460ff1690565b60005481565b8480600054116103ca576040805162461bcd60e51b81526020600482015260166024820152600080516020615f3c833981519152604482015290519081900360640190fd5b6103d3816119e8565b610415576040805162461bcd60e51b815260206004820152600e60248201526d496e64657820696e61637469766560901b604482015290519081900360640190fd5b6000868152600660205260409020600e810154600c820180548993923392916001600160401b0390911690811061044857fe5b6000918252602090912001546001600160a01b0316146104835760405162461bcd60e51b815260040161047a90615c84565b60405180910390fd5b6000888152600260209081526040808320805460010190556006909152812089916104ad836144c2565b600683015401421190506004601083015460ff16600a8111156104cc57fe5b14806104f257506002601083015460ff16600a8111156104e857fe5b1480156104f25750805b61050e5760405162461bcd60e51b815260040161047a90615632565b88516014830154146105325760405162461bcd60e51b815260040161047a906156a0565b60048201548851600160401b90910460ff1660020a146105645760405162461bcd60e51b815260040161047a90615b31565b606061056f896147dc565b6004848101546040516310561d5760e31b81529293508d9273__$c7dbd794b8c7b5c2028db781007df1176e$__9263d7304dd9926001600160401b03811692600160401b90910460ff169185916382b0eab8916105ce918a9101615380565b60206040518083038186803b1580156105e657600080fd5b505af41580156105fa573d6000803e3d6000fd5b505050506040513d601f19601f8201168201806040525081019061061e9190614d97565b8d6040518563ffffffff1660e01b815260040161063e9493929190615e56565b60206040518083038186803b15801561065657600080fd5b505af415801561066a573d6000803e3d6000fd5b505050506040513d601f19601f8201168201806040525081019061068e9190614d97565b146106ab5760405162461bcd60e51b815260040161047a906159f4565b601483015460005b8181101561099c5760608c82815181106106c957fe5b60200260200101519050856009015473__$c7dbd794b8c7b5c2028db781007df1176e$__63d7304dd988601401858154811061070157fe5b600091825260209091206005909102015460148a0180546001600160401b03909216918790811061072e57fe5b906000526020600020906005020160000160089054906101000a900460ff1673__$c7dbd794b8c7b5c2028db781007df1176e$__63a73426888c601401898154811061077657fe5b600091825260209091206005909102015460405160e083901b6001600160e01b03191681526107b291600160401b900460ff1690600401615e87565b60206040518083038186803b1580156107ca57600080fd5b505af41580156107de573d6000803e3d6000fd5b505050506040513d601f19601f820116820180604052508101906108029190614d97565b866040518563ffffffff1660e01b81526004016108229493929190615e56565b60206040518083038186803b15801561083a57600080fd5b505af415801561084e573d6000803e3d6000fd5b505050506040513d601f19601f820116820180604052508101906108729190614d97565b1461088f5760405162461bcd60e51b815260040161047a9061557e565b73__$c7dbd794b8c7b5c2028db781007df1176e$__63d7304dd98760140184815481106108b857fe5b60009182526020909120600590910201546014890180546001600160401b0390921691869081106108e557fe5b906000526020600020906005020160000160089054906101000a900460ff1689601301868154811061091357fe5b9060005260206000200154856040518563ffffffff1660e01b815260040161093e9493929190615e56565b60206040518083038186803b15801561095657600080fd5b505af415801561096a573d6000803e3d6000fd5b505050506040513d601f19601f8201168201806040525081019061098e9190614d97565b6009870155506001016106b3565b50600a84018c905560108401805460ff1916600617905589516109c890600b86019060208d01906148f3565b50600e840154600c85018054600192600f88019260009290916001600160401b03169081106109f357fe5b60009182526020808320909101546001600160a01b03168352820192909252604090810190912080549215156101000261ff001990931692909217909155426006860155517f1e9358f673ff367487ce56f136412ae5b69bf2c06e223aad2756d748c2a9b52a90610a67908f908f90615d4e565b60405180910390a150505050505050505050505050565b6000818060005411610ac5576040805162461bcd60e51b81526020600482015260166024820152600080516020615f3c833981519152604482015290519081900360640190fd5b610ace816119e8565b610b10576040805162461bcd60e51b815260206004820152600e60248201526d496e64657820696e61637469766560901b604482015290519081900360640190fd5b60008381526002602052604090205491505b50919050565b808060005411610b6d576040805162461bcd60e51b81526020600482015260166024820152600080516020615f3c833981519152604482015290519081900360640190fd5b610b76816119e8565b610bb8576040805162461bcd60e51b815260206004820152600e60248201526d496e64657820696e61637469766560901b604482015290519081900360640190fd5b600082815260066020526040812090610bd0846144c2565b8260060154014211905080610bf75760405162461bcd60e51b815260040161047a90615a26565b6000601083015460ff16600a811115610c0c57fe5b1415610c5e576010820180546001919060ff191682805b0217905550600080516020615f1c83398151915284610c4186610d0c565b604051610c4f929190615d4e565b60405180910390a15050610d08565b6003601083015460ff16600a811115610c7357fe5b1415610c8e576010820180546001919060ff19168280610c23565b6004601083015460ff16600a811115610ca357fe5b1415610cbf576010820180546005919060ff1916600183610c23565b6006601083015460ff16600a811115610cd457fe5b1415610cf057601082018054600a919060ff1916600183610c23565b60405162461bcd60e51b815260040161047a90615927565b5050565b6000818060005411610d53576040805162461bcd60e51b81526020600482015260166024820152600080516020615f3c833981519152604482015290519081900360640190fd5b60008381526006602052604081206010015460ff169081600a811115610d7557fe5b1415610d97576f57616974696e6750726f76696465727360801b925050610b22565b600381600a811115610da557fe5b1415610dc5576d57616974696e6752657665616c7360901b925050610b22565b600281600a811115610dd357fe5b1415610dfb577557616974696e674368616c6c656e676544726976657360501b925050610b22565b600581600a811115610e0957fe5b1415610e305774436c61696d65724d6973736564446561646c696e6560581b925050610b22565b600181600a811115610e3e57fe5b1415610e66577550726f76696465724d6973736564446561646c696e6560501b925050610b22565b600481600a811115610e7457fe5b1415610e92576b57616974696e67436c61696d60a01b925050610b22565b600681600a811115610ea057fe5b1415610ecf577f57616974696e67436f6e6669726d6174696f6e446561646c696e650000000000925050610b22565b600781600a811115610edd57fe5b1415610f05577515d85a5d1a5b99d0da185b1b195b99d954995cdd5b1d60521b925050610b22565b600a81600a811115610f1357fe5b1415610f34576e10dbdb9cd95b9cdd5cd4995cdd5b1d608a1b925050610b22565b600881600a811115610f4257fe5b1415610f61576c21b430b63632b733b2b92bb7b760991b925050610b22565b600981600a811115610f6f57fe5b1415610f8b576921b630b4b6b2b92bb7b760b11b925050610b22565b60405162461bcd60e51b815260040161047a9061595e565b6060806060806060610fb361497f565b6000888060005411610ffa576040805162461bcd60e51b81526020600482015260166024820152600080516020615f3c833981519152604482015290519081900360640190fd5b60008a81526006602090815260408083206001600160a01b038d168452600f8101835292819020815160808082018452915460ff808216151583526101008204811615158387015262010000820416151582850152630100000090046001600160401b03166060808301919091528351600480825260a0820190955291985093909291908301908036833701905050905081600301548160008151811061109d57fe5b6020026020010181815250506110b28c6144c2565b826006015401816001815181106110c557fe5b6020908102919091010152600482015481516001600160401b0390911690829060029081106110f057fe5b6020026020010181815250508160040160089054906101000a900460ff1660ff168160038151811061111e57fe5b6020908102919091010152604080516002808252606082810190935281602001602082028036833701905050600e840154909150600160401b90046001600160401b0316156111cf57600e830154600c840180549091600160401b90046001600160401b031690811061118d57fe5b600091825260208220015482516001600160a01b039091169183916111ae57fe5b60200260200101906001600160a01b031690816001600160a01b0316815250505b600e830154600c8401805490916001600160401b03169081106111ee57fe5b9060005260206000200160009054906101000a90046001600160a01b03168160018151811061121957fe5b6001600160a01b039290921660209283029190910182015260408051600480825260a08201909252606092909190820160808036833701905050905083600801548160008151811061126757fe5b60200260200101818152505083600901548160018151811061128557fe5b60200260200101818152505083600a0154816002815181106112a357fe5b6020026020010181815250506112b88e610d0c565b816003815181106112c557fe5b60209081029190910101526000601085015460ff16600a8111156112e557fe5b14156115ea57604080516001808252818301909252606091816020015b61130a6149a6565b815260200190600190039081611302579050509050846014018560120186600201548154811061133657fe5b90600052602060002001548154811061134b57fe5b6000918252602091829020604080516101208101825260059390930290910180546001600160401b0381168452600160401b900460ff1683850152600180820180548451600261010094831615949094026000190190911692909204601f81018790048702830187018552808352949592949386019391929091908301828280156114175780601f106113ec57610100808354040283529160200191611417565b820191906000526020600020905b8154815290600101906020018083116113fa57829003601f168201915b5050509183525050600282810180546040805160206001841615610100026000190190931694909404601f810183900483028501830190915280845293810193908301828280156114a95780601f1061147e576101008083540402835291602001916114a9565b820191906000526020600020905b81548152906001019060200180831161148c57829003601f168201915b5050509183525050600382015460208201526004909101546001600160a01b038116604083015260ff600160a01b8204811615156060840152600160a81b8204811615156080840152600160b01b90910416151560a0909101528151829060009061151057fe5b602002602001018190525083838387600b01848c8a60150160009054906101000a900460ff16838054600181600116156101000203166002900480601f0160208091040260200160405190810160405280929190818152602001828054600181600116156101000203166002900480156115cb5780601f106115a0576101008083540402835291602001916115cb565b820191906000526020600020905b8154815290600101906020018083116115ae57829003601f168201915b505050505093509c509c509c509c509c509c509c5050505050506119db565b6003601085015460ff16600a8111156115ff57fe5b141561165057604080516001808252818301909252606091816020015b6116246149a6565b81526020019060019003908161161c579050509050846014018560110186600101548154811061133657fe5b6001601085015460ff16600a81111561166557fe5b1415611726576040805160008082526020820190925260609161169e565b61168b6149a6565b8152602001906001900390816116835790505b50905083838387600b01848c8a60150160009054906101000a900460ff16838054600181600116156101000203166002900480601f0160208091040260200160405190810160405280929190818152602001828054600181600116156101000203166002900480156115cb5780601f106115a0576101008083540402835291602001916115cb565b6015840154600b8501805460408051602060026101006001861615026000190190941693909304601f8101849004840282018401909252818152879487948794909360148c01938f9360ff1692909186918301828280156117c85780601f1061179d576101008083540402835291602001916117c8565b820191906000526020600020905b8154815290600101906020018083116117ab57829003601f168201915b5050505050935082805480602002602001604051908101604052809291908181526020016000905b828210156119c257600084815260209081902060408051610120810182526005860290920180546001600160401b0381168452600160401b900460ff1683850152600180820180548451600261010094831615949094026000190190911692909204601f81018790048702830187018552808352949592949386019391929091908301828280156118c25780601f10611897576101008083540402835291602001916118c2565b820191906000526020600020905b8154815290600101906020018083116118a557829003601f168201915b5050509183525050600282810180546040805160206001841615610100026000190190931694909404601f810183900483028501830190915280845293810193908301828280156119545780601f1061192957610100808354040283529160200191611954565b820191906000526020600020905b81548152906001019060200180831161193757829003601f168201915b505050918352505060038201546020808301919091526004909201546001600160a01b038116604083015260ff600160a01b8204811615156060840152600160a81b8204811615156080840152600160b01b90910416151560a09091015290825260019290920191016117f0565b5050505092509b509b509b509b509b509b509b50505050505b5092959891949750929550565b60008181526001602052604090205460ff165b919050565b60008060006060848060005411611a4c576040805162461bcd60e51b81526020600482015260166024820152600080516020615f3c833981519152604482015290519081900360640190fd5b6000868152600660205260409020600a601082015460ff16600a811115611a6f57fe5b1415611b2857600160008083600b01808054600181600116156101000203166002900480601f016020809104026020016040519081016040528092919081815260200182805460018160011615610100020316600290048015611b135780601f10611ae857610100808354040283529160200191611b13565b820191906000526020600020905b815481529060010190602001808311611af657829003601f168201915b50505050509050955095509550955050611dee565b6000601082015460ff16600a811115611b3d57fe5b1480611b5b57506002601082015460ff16600a811115611b5957fe5b145b80611b7857506004601082015460ff16600a811115611b7657fe5b145b80611b9557506006601082015460ff16600a811115611b9357fe5b145b80611bb257506007601082015460ff16600a811115611bb057fe5b145b80611bcf57506003601082015460ff16600a811115611bcd57fe5b145b15611bf85760006001600060405180602001604052806000815250955095509550955050611dee565b6001601082015460ff16600a811115611c0d57fe5b1415611d1057600087815260066020526040812060128101546002909101541015611c82578160140182601201836002015481548110611c4957fe5b906000526020600020015481548110611c5e57fe5b60009182526020909120600460059092020101546001600160a01b03169050611ced565b600088815260066020526040902060118101546001909101541015611ced578160140182601101836001015481548110611cb857fe5b906000526020600020015481548110611ccd57fe5b60009182526020909120600460059092020101546001600160a01b031690505b600080826040518060200160405280600081525096509650965096505050611dee565b6005601082015460ff16600a811115611d2557fe5b1480611d4357506008601082015460ff16600a811115611d4157fe5b145b15611da157600e810154600c820180546000928392916001600160401b03909116908110611d6d57fe5b60009182526020808320909101546040805192830190529181529298509096506001600160a01b031694509250611dee9050565b6009601082015460ff16600a811115611db657fe5b1415610f8b5760008082600c0183600e0160089054906101000a90046001600160401b03166001600160401b031681548110611d6d57fe5b509193509193565b6000806000848060005411611e40576040805162461bcd60e51b81526020600482015260166024820152600080516020615f3c833981519152604482015290519081900360640190fd5b5050506000928352506006602090815260408084206001600160a01b039093168452600f909201905290205460ff80821692610100830482169262010000900490911690565b808060005411611ecb576040805162461bcd60e51b81526020600482015260166024820152600080516020615f3c833981519152604482015290519081900360640190fd5b611ed4816119e8565b611f16576040805162461bcd60e51b815260206004820152600e60248201526d496e64657820696e61637469766560901b604482015290519081900360640190fd5b6000828152600660209081526040808320338452600f81019092529091205483919060ff16611f575760405162461bcd60e51b815260040161047a90615aba565b6000848152600660209081526040808320338452600f810190925290912054859190610100900460ff1615611f9e5760405162461bcd60e51b815260040161047a90615a51565b6000868152600260209081526040808320805460010190556006918290529091208791601082015460ff16600a811115611fd457fe5b14611ff15760405162461bcd60e51b815260040161047a906154b5565b600554600e820154600c830180546001600160a01b03909316926320b73870923392916001600160401b0390911690811061202857fe5b6000918252602090912001546005850154600380546009880154600a890154928901546040516001600160e01b031960e08a901b16815261207e97966001600160a01b039081169695941693919060040161530e565b602060405180830381600087803b15801561209857600080fd5b505af11580156120ac573d6000803e3d6000fd5b505050506040513d601f19601f820116820180604052508101906120d09190614d97565b60078083019190915560108201805460ff19166001830217905550336000908152600f8201602052604090819020805461ff0019166101001790819055600e83018054600160801b600160401b6001600160401b03630100000090950485160267ffffffffffffffff60401b199092169190911781810484166001019093160267ffffffffffffffff60801b19909216919091179055426006830155517fa895da4b794aeba8d8082db237265459db7b7ffdb5aa7c2332a7c5eafbfae7359061219a908a9061549b565b60405180910390a15050505050505050565b600060328510156121cf5760405162461bcd60e51b815260040161047a906155f0565b600080548152600660205260408120905b8551816001600160401b031610156123795781600f01600087836001600160401b03168151811061220d57fe5b6020908102919091018101516001600160a01b031682528101919091526040016000205460ff16156122515760405162461bcd60e51b815260040161047a90615547565b600182600f01600088846001600160401b03168151811061226e57fe5b60200260200101516001600160a01b03166001600160a01b0316815260200190815260200160002060000160006101000a81548160ff0219169083151502179055508082600f01600088846001600160401b0316815181106122cc57fe5b60200260200101516001600160a01b03166001600160a01b0316815260200190815260200160002060000160036101000a8154816001600160401b0302191690836001600160401b0316021790555081600c0186826001600160401b03168151811061233457fe5b60209081029190910181015182546001808201855560009485529290932090920180546001600160a01b0319166001600160a01b0390931692909217909155016121e0565b508351600090806001600160401b038111801561239557600080fd5b506040519080825280602002602001820160405280156123bf578160200160208202803683370190505b5080516123d69160138601916020909101906149f4565b5060158301805460ff191686151517905560005b81811015612887576123fa6149a6565b87828151811061240657fe5b602002602001015190508060e001516125e6576003816020015160ff1610156124415760405162461bcd60e51b815260040161047a90615aea565b8060c001516125c357806020015160ff1660020a81604001515111156124795760405162461bcd60e51b815260040161047a90615ceb565b60408101516020820151815160ff90911660020a111561250a5760408201518051602084015160ff1660020a036001600160401b03811180156124bb57600080fd5b506040519080825280601f01601f1916602001820160405280156124e6576020820181803683370190505b506040516020016124f89291906152df565b60405160208183030381529060405290505b6060612515826147dc565b6040516310561d5760e31b815290915073__$c7dbd794b8c7b5c2028db781007df1176e$__906382b0eab89061254f908490600401615380565b60206040518083038186803b15801561256757600080fd5b505af415801561257b573d6000803e3d6000fd5b505050506040513d601f19601f8201168201806040525081019061259f9190614d97565b8760130185815481106125ae57fe5b906000526020600020018190555050506125e1565b60128501805460018181018355600092835260209092200183905593505b6126f7565b8060c001516126d957806080015185601301838154811061260357fe5b6000918252602091829020019190915560048054608084015192840151604051632b6baa3760e21b81526001600160a01b039092169363adaea8dc9361264c93919291016154a4565b60206040518083038186803b15801561266457600080fd5b505afa158015612678573d6000803e3d6000fd5b505050506040513d601f19601f8201168201806040525081019061269c9190614d74565b1580156126b5575060a08101516001600160a01b031615155b156125e15760118501805460018101825560009182526020909120018290556126f7565b60128501805460018181018355600092835260209092200183905593505b604080516101208101825282516001600160401b03908116825260208085015160ff90811682850190815286860151958501958652606080880151908601526080808801519086015260a0808801516001600160a01b03169086015260c08088015115159086015260e0808801511515908601526101008088015115159086015260148b0180546001808201835560009283529185902087516005909202018054935167ffffffffffffffff19909416919096161760ff60401b1916600160401b929093169190910291909117835593518051939492936127df9385019291909101906148f3565b50606082015180516127fb9160028401916020909101906148f3565b506080820151600382015560a08201516004909101805460c084015160e0850151610100909501511515600160b01b0260ff60b01b19951515600160a81b0260ff60a81b19921515600160a01b0260ff60a01b196001600160a01b039097166001600160a01b0319909516949094179590951692909217169290921792909216179055506001016123ea565b5060038960ff1610156128ac5760405162461bcd60e51b815260040161047a90615774565b8254336001600160a01b0319909116178355600e83018054600160801b67ffffffffffffffff60801b19909116179055600383018c9055600883018b9055600983018b905560048301805467ffffffffffffffff19166001600160401b038c161760ff60401b1916600160401b60ff8c1602179055600583018890554260068401558115612950576010830180546000919060ff19166001835b0217905550612980565b601183015415612970576010830180546002919060ff1916600183612946565b60108301805460ff191660041790555b7f74f4614e097fc158c85ea12787f9e678e96166b4f523416bdb792747c47f1bac6000546040516129b1919061549b565b60405180910390a150506000805481526001602081905260408220805460ff19168217905581549081019091559150505b98975050505050505050565b808060005411612a33576040805162461bcd60e51b81526020600482015260166024820152600080516020615f3c833981519152604482015290519081900360640190fd5b612a3c816119e8565b612a7e576040805162461bcd60e51b815260206004820152600e60248201526d496e64657820696e61637469766560901b604482015290519081900360640190fd5b6000828152600660209081526040808320338452600f81019092529091205483919060ff16612abf5760405162461bcd60e51b815260040161047a90615aba565b6000848152600660209081526040808320338452600f810190925290912054859190610100900460ff1615612b065760405162461bcd60e51b815260040161047a90615a51565b6000868152600260209081526040808320805460010190556006918290529091208791601082015460ff16600a811115612b3c57fe5b14612b595760405162461bcd60e51b815260040161047a906154b5565b600d81018054600181810183556000928352602080842090920180546001600160a01b03191633908117909155808452600f8501909252604092839020805461ff001916610100179055600e840180546001600160401b03600160801b80830482169094011690920267ffffffffffffffff60801b1990921691909117905590517f6f220d98c15dbd07fdc24781b682ea34f92411fc61b83c761dd927afbe02d3fd91612c08918b9190615d37565b60405180910390a1600c810154600e820154600160801b90046001600160401b03161415612c665760108101805460ff1916600a179055600080516020615f1c83398151915288612c5881610d0c565b60405161219a929190615d4e565b5050505050505050565b808060005411612cb5576040805162461bcd60e51b81526020600482015260166024820152600080516020615f3c833981519152604482015290519081900360640190fd5b612cbe816119e8565b612d00576040805162461bcd60e51b815260206004820152600e60248201526d496e64657820696e61637469766560901b604482015290519081900360640190fd5b60008281526002602090815260408083208054600101905560069091529020601581015483919060ff1615612d475760405162461bcd60e51b815260040161047a90615cb6565b6002601082015460ff16600a811115612d5c57fe5b14612d795760405162461bcd60e51b815260040161047a90615834565b336000908152600f8201602052604090205460ff16612daa5760405162461bcd60e51b815260040161047a90615ba9565b60108101805460ff1916600317905542600690910155505050565b606080838060005411612e0d576040805162461bcd60e51b81526020600482015260166024820152600080516020615f3c833981519152604482015290519081900360640190fd5b606080600760008881526006602052604090206010015460ff16600a811115612e3257fe5b1415612ed85760408051600180825281830190925290602080830190803683375050604080516001808252818301909252929450905060208083019080368337505060055484519293506001600160a01b031691849150600090612e9257fe5b6001600160a01b03909216602092830291909101820152600088815260069091526040812060070154825190918391612ec757fe5b602002602001018181525050612ef2565b505060408051600080825260208201908152818301909252905b90969095509350505050565b818060005411612f43576040805162461bcd60e51b81526020600482015260166024820152600080516020615f3c833981519152604482015290519081900360640190fd5b612f4c816119e8565b612f8e576040805162461bcd60e51b815260206004820152600e60248201526d496e64657820696e61637469766560901b604482015290519081900360640190fd5b60008381526006602052604081208491601082015460ff16600a811115612fb157fe5b14612fce5760405162461bcd60e51b815260040161047a9061598a565b6012810154600282015410612ff55760405162461bcd60e51b815260040161047a906159bd565b60008160120182600201548154811061300a57fe5b906000526020600020015490508160140180549050811061303d5760405162461bcd60e51b815260040161047a9061587a565b6130456149a6565b82601401828154811061305457fe5b6000918252602091829020604080516101208101825260059390930290910180546001600160401b0381168452600160401b900460ff1683850152600180820180548451600261010094831615949094026000190190911692909204601f81018790048702830187018552808352949592949386019391929091908301828280156131205780601f106130f557610100808354040283529160200191613120565b820191906000526020600020905b81548152906001019060200180831161310357829003601f168201915b5050509183525050600282810180546040805160206001841615610100026000190190931694909404601f810183900483028501830190915280845293810193908301828280156131b25780601f10613187576101008083540402835291602001916131b2565b820191906000526020600020905b81548152906001019060200180831161319557829003601f168201915b5050509183525050600382015460208201526004909101546001600160a01b038116604083015260ff600160a01b8204811615156060840152600160a81b8204811615156080840152600160b01b90910416151560a0909101526013840180549192506000918490811061322257fe5b90600052602060002001541461324a5760405162461bcd60e51b815260040161047a906157bc565b8060c0015161326b5760405162461bcd60e51b815260040161047a90615c1c565b60a08101516001600160a01b031633146132975760405162461bcd60e51b815260040161047a90615b7d565b6000878152600660205260408120600281015460128201805492939290919081106132be57fe5b9060005260206000200154905060008260140182815481106132dc57fe5b906000526020600020906005020190508060040160159054906101000a900460ff1661331a5760405162461bcd60e51b815260040161047a906157f3565b600381018990556013830180548a91908490811061333457fe5b600091825260209091200155600283018054600101908190554260068501556012840154141561338c5760118301541561337c5760108301805460ff1916600217905561338c565b60108301805460ff191660041790555b7fcf09a543fdbd213491ac20efabb93fbbc4be4dabb386c479dc6356050ed37c3e8a8460140184815481106133bd57fe5b90600052602060002090600502016040516133d9929190615d5c565b60405180910390a150505050505050505050565b808060005411613432576040805162461bcd60e51b81526020600482015260166024820152600080516020615f3c833981519152604482015290519081900360640190fd5b61343b816119e8565b61347d576040805162461bcd60e51b815260206004820152600e60248201526d496e64657820696e61637469766560901b604482015290519081900360640190fd5b6000828152600660205260409020546001600160a01b03163381146134e4576040805162461bcd60e51b815260206004820152601860248201527721b0b73737ba1031329031b0b63632b210313c903ab9b2b960411b604482015290519081900360640190fd5b60008381526006602052604090206001601082015460ff16600a81111561350757fe5b148061352557506005601082015460ff16600a81111561352357fe5b145b806135425750600a601082015460ff16600a81111561354057fe5b145b8061355f57506008601082015460ff16600a81111561355d57fe5b145b8061357c57506009601082015460ff16600a81111561357a57fe5b145b6135985760405162461bcd60e51b815260040161047a906158de565b6135a6601182016000614a2e565b6135b4601282016000614a2e565b6135c2601382016000614a2e565b6135d0601482016000614a4f565b6135d9846148d0565b50505050565b808060005411613624576040805162461bcd60e51b81526020600482015260166024820152600080516020615f3c833981519152604482015290519081900360640190fd5b61362d816119e8565b61366f576040805162461bcd60e51b815260206004820152600e60248201526d496e64657820696e61637469766560901b604482015290519081900360640190fd5b6000828152600260209081526040808320805460010190556006909152902082906007601082015460ff16600a8111156136a557fe5b146136c25760405162461bcd60e51b815260040161047a90615725565b426006820155600781015460055460405163b6b5c31960e01b81526001600160a01b039091169063b6b5c319906136fd90849060040161549b565b60206040518083038186803b15801561371557600080fd5b505afa158015613729573d6000803e3d6000fd5b505050506040513d601f19601f8201168201806040525081019061374d9190614d74565b1561392357600e820154600c83018054600192600f86019260009290916001600160401b031690811061377c57fe5b60009182526020808320909101546001600160a01b0316835282019290925260400181208054921515620100000262ff000019909316929092179091555b600d83015481101561381f57600083600f01600085600d0184815481106137dd57fe5b60009182526020808320909101546001600160a01b03168352820192909252604001902080549115156101000261ff00199092169190911790556001016137ba565b50600d82018054600e840180546001600160401b03600160801b8083048216949094031690920267ffffffffffffffff60801b19909216919091179055613867906000614a2e565b600c820154600e830154600160801b90046001600160401b031614156138d4576010820180546008919060ff19166001835b0217905550600080516020615f1c833981519152856138b787610d0c565b6040516138c5929190615d4e565b60405180910390a15050613a97565b6010820180546004919060ff1916600183021790555050600e018054600160401b81046001600160401b031667ffffffffffffffff199091161767ffffffffffffffff60401b19169055613a97565b600554604051633664f8bf60e11b81526001600160a01b0390911690636cc9f17e9061395390849060040161549b565b60206040518083038186803b15801561396b57600080fd5b505afa15801561397f573d6000803e3d6000fd5b505050506040513d601f19601f820116820180604052508101906139a39190614d74565b15613a7c57600182600f01600084600c0185600e0160089054906101000a90046001600160401b03166001600160401b0316815481106139df57fe5b60009182526020808320909101546001600160a01b0316835282019290925260400190208054911515620100000262ff000019909216919091179055600c820154600e8301546001600160401b03600160801b909104161415613a52576010820180546009919060ff1916600183613899565b5060108101805460ff19166006179055600e01805467ffffffffffffffff60401b19169055613a97565b60405162461bcd60e51b815260040161047a90615bf0565b50505b505050565b808060005411613ae1576040805162461bcd60e51b81526020600482015260166024820152600080516020615f3c833981519152604482015290519081900360640190fd5b613aea816119e8565b613b2c576040805162461bcd60e51b815260206004820152600e60248201526d496e64657820696e61637469766560901b604482015290519081900360640190fd5b60008281526006602052604090206003601082015460ff16600a811115613b4f57fe5b14613b6c5760405162461bcd60e51b815260040161047a90615c53565b600081601101826001015481548110613b8157fe5b9060005260206000200154905081601401805490508110613bb45760405162461bcd60e51b815260040161047a906156f9565b613bbc6149a6565b826014018281548110613bcb57fe5b6000918252602091829020604080516101208101825260059390930290910180546001600160401b0381168452600160401b900460ff1683850152600180820180548451600261010094831615949094026000190190911692909204601f8101879004870283018701855280835294959294938601939192909190830182828015613c975780601f10613c6c57610100808354040283529160200191613c97565b820191906000526020600020905b815481529060010190602001808311613c7a57829003601f168201915b5050509183525050600282810180546040805160206001841615610100026000190190931694909404601f81018390048302850183019091528084529381019390830182828015613d295780601f10613cfe57610100808354040283529160200191613d29565b820191906000526020600020905b815481529060010190602001808311613d0c57829003601f168201915b5050509183525050600382015460208201526004909101546001600160a01b038116604083015260ff600160a01b8204811615156060840152600160a81b8204811615156080840152600160b01b90910416151560a09091015260e0810151909150613da75760405162461bcd60e51b815260040161047a90615a83565b6004805460808301516020840151604051632b6baa3760e21b81526001600160a01b039093169363adaea8dc93613de0939291016154a4565b60206040518083038186803b158015613df857600080fd5b505afa158015613e0c573d6000803e3d6000fd5b505050506040513d601f19601f82011682018060405250810190613e309190614d74565b613e4c5760405162461bcd60e51b815260040161047a906158a7565b600180840180549091019081905542600685015560118401541415613a94575050601001805460ff191660041790555050565b818060005411613ec4576040805162461bcd60e51b81526020600482015260166024820152600080516020615f3c833981519152604482015290519081900360640190fd5b613ecd816119e8565b613f0f576040805162461bcd60e51b815260206004820152600e60248201526d496e64657820696e61637469766560901b604482015290519081900360640190fd5b60008381526006602052604081208491601082015460ff16600a811115613f3257fe5b14613f4f5760405162461bcd60e51b815260040161047a9061598a565b6012810154600282015410613f765760405162461bcd60e51b815260040161047a906159bd565b600081601201826002015481548110613f8b57fe5b9060005260206000200154905081601401805490508110613fbe5760405162461bcd60e51b815260040161047a9061587a565b613fc66149a6565b826014018281548110613fd557fe5b6000918252602091829020604080516101208101825260059390930290910180546001600160401b0381168452600160401b900460ff1683850152600180820180548451600261010094831615949094026000190190911692909204601f81018790048702830187018552808352949592949386019391929091908301828280156140a15780601f10614076576101008083540402835291602001916140a1565b820191906000526020600020905b81548152906001019060200180831161408457829003601f168201915b5050509183525050600282810180546040805160206001841615610100026000190190931694909404601f810183900483028501830190915280845293810193908301828280156141335780601f1061410857610100808354040283529160200191614133565b820191906000526020600020905b81548152906001019060200180831161411657829003601f168201915b5050509183525050600382015460208201526004909101546001600160a01b038116604083015260ff600160a01b8204811615156060840152600160a81b8204811615156080840152600160b01b90910416151560a090910152601384018054919250600091849081106141a357fe5b9060005260206000200154146141cb5760405162461bcd60e51b815260040161047a906157bc565b8060c001516141ec5760405162461bcd60e51b815260040161047a90615c1c565b60a08101516001600160a01b031633146142185760405162461bcd60e51b815260040161047a90615b7d565b60008781526006602052604081206002810154601282018054929392909190811061423f57fe5b90600052602060002001549050600082601401828154811061425d57fe5b906000526020600020906005020190508060040160159054906101000a900460ff161561429c5760405162461bcd60e51b815260040161047a90615500565b80548951600160401b90910460ff1660020a10156142cc5760405162461bcd60e51b815260040161047a90615ceb565b805489518a91600160401b900460ff1660020a111561435e57895182548b91600160401b90910460ff1660020a036001600160401b038111801561430f57600080fd5b506040519080825280601f01601f19166020018201604052801561433a576020820181803683370190505b5060405160200161434c9291906152df565b60405160208183030381529060405290505b6060614369826147dc565b9050600073__$c7dbd794b8c7b5c2028db781007df1176e$__6382b0eab8836040518263ffffffff1660e01b81526004016143a49190615380565b60206040518083038186803b1580156143bc57600080fd5b505af41580156143d0573d6000803e3d6000fd5b505050506040513d601f19601f820116820180604052508101906143f49190614d97565b8c5190915061440c90600186019060208f01906148f3565b508086601301868154811061441d57fe5b6000918252602090912001556002860180546001019081905542600688015560128701541415614475576011860154156144655760108601805460ff19166002179055614475565b60108601805460ff191660041790555b7fcf09a543fdbd213491ac20efabb93fbbc4be4dabb386c479dc6356050ed37c3e8d8760140187815481106144a657fe5b9060005260206000209060050201604051610a67929190615d5c565b600060016101f460288360008681526006602052604090206010015460ff16600a8111156144ec57fe5b141561450e5750505060008281526006602052604090206005015490506119fb565b600360008681526006602052604090206010015460ff16600a81111561453057fe5b1415614556575050506000828152600660205260409020600501546109600190506119fb565b600260008681526006602052604090206010015460ff16600a81111561457857fe5b14156145a557505050600082815260066020526040902060058101546011909101540260020290506119fb565b600460008681526006602052604090206010015460ff16600a8111156145c757fe5b14156145fe576000858152600660205260409020600581015460039091015464e8d4a510009084025b0482010193505050506119fb565b600660008681526006602052604090206010015460ff16600a81111561462057fe5b141561464d576000858152600660205260409020600581015460039091015464e8d4a510009084026145f0565b600760008681526006602052604090206010015460ff16600a81111561466f57fe5b1415614722576000858152600660205260409081902060058082015490546003909201549251631b8798d560e11b815290926001600160a01b039092169163370f31aa916146c791859187918a918a90600401615e33565b60206040518083038186803b1580156146df57600080fd5b505afa1580156146f3573d6000803e3d6000fd5b505050506040513d601f19601f820116820180604052508101906147179190614d97565b0193505050506119fb565b600960008681526006602052604090206010015460ff16600a81111561474457fe5b148061476f5750600860008681526006602052604090206010015460ff16600a81111561476d57fe5b145b806147995750600560008681526006602052604090206010015460ff16600a81111561479757fe5b145b806147c35750600a60008681526006602052604090206010015460ff16600a8111156147c157fe5b145b156147d457600093505050506119fb565b505050919050565b6060600060088351816147eb57fe5b0490506060816001600160401b038111801561480657600080fd5b50604051908082528060200260200182016040528015614830578160200160208202803683370190505b50905060005b828110156148c8576000805b6008811015614880576000878285600802018151811061485e57fe5b01602001516001600160f81b031916600883021c929092179150600101614842565b508060405160200161489291906152ca565b604051602081830303815290604052805190602001208383815181106148b457fe5b602090810291909101015250600101614836565b509392505050565b6000908152600160209081526040808320805460ff191690556002909152812055565b828054600181600116156101000203166002900490600052602060002090601f016020900481019282614929576000855561496f565b82601f1061494257805160ff191683800117855561496f565b8280016001018555821561496f579182015b8281111561496f578251825591602001919060010190614954565b5061497b929150614a70565b5090565b60408051608081018252600080825260208201819052918101829052606081019190915290565b60408051610120810182526000808252602082018190526060928201839052828201929092526080810182905260a0810182905260c0810182905260e0810182905261010081019190915290565b82805482825590600052602060002090810192821561496f579160200282018281111561496f578251825591602001919060010190614954565b5080546000825590600052602060002090810190614a4c9190614a70565b50565b5080546000825560050290600052602060002090810190614a4c9190614a85565b5b8082111561497b5760008155600101614a71565b8082111561497b57805468ffffffffffffffffff191681556000614aac6001830182614adc565b614aba600283016000614adc565b50600060038201556004810180546001600160b81b0319169055600501614a85565b50805460018160011615610100020316600290046000825580601f10614b025750614a4c565b601f016020900490600052602060002090810190614a4c9190614a70565b80356001600160a01b03811681146119fb57600080fd5b600082601f830112614b47578081fd5b8135614b5a614b5582615eb8565b615e95565b818152915060208083019084810181840286018201871015614b7b57600080fd5b60005b84811015614b9a57813584529282019290820190600101614b7e565b505050505092915050565b600082601f830112614bb5578081fd5b8135614bc3614b5582615eb8565b818152915060208083019084810160005b84811015614b9a578135870161012080601f19838c03011215614bf657600080fd5b614bff81615e95565b614c0a868401614d4c565b81526040614c19818501614d63565b878301526060808501356001600160401b0380821115614c3857600080fd5b614c468f8b848a0101614ce6565b848601526080935083870135915080821115614c6157600080fd5b50614c708e8a83890101614ce6565b82850152505060a0808501358284015260c09150614c8f828601614b20565b9083015260e0614ca0858201614cdb565b828401526101009150614cb4828601614cdb565b90830152614cc3848401614cdb565b90820152865250509282019290820190600101614bd4565b80356119fb81615f0d565b600082601f830112614cf6578081fd5b81356001600160401b03811115614d0957fe5b614d1c601f8201601f1916602001615e95565b9150808252836020828501011115614d3357600080fd5b8060208401602084013760009082016020015292915050565b80356001600160401b03811681146119fb57600080fd5b803560ff811681146119fb57600080fd5b600060208284031215614d85578081fd5b8151614d9081615f0d565b9392505050565b600060208284031215614da8578081fd5b5051919050565b600060208284031215614dc0578081fd5b5035919050565b60008060408385031215614dd9578081fd5b82359150614de960208401614b20565b90509250929050565b60008060408385031215614e04578182fd5b50508035926020909101359150565b600080600080600060a08688031215614e2a578081fd5b85359450602080870135945060408701356001600160401b0380821115614e4f578384fd5b818901915089601f830112614e62578384fd5b8135614e70614b5582615eb8565b81815284810190848601875b84811015614ea557614e938f8984358a0101614b37565b84529287019290870190600101614e7c565b509098505050506060890135925080831115614ebf578384fd5b614ecb8a848b01614ce6565b94506080890135925080831115614ee0578384fd5b5050614eee88828901614b37565b9150509295509295909350565b600080600080600080600080610100898b031215614f17578586fd5b8835975060208901359650614f2e60408a01614d4c565b9550614f3c60608a01614d63565b94506080890135935060a08901356001600160401b0380821115614f5e578485fd5b818b0191508b601f830112614f71578485fd5b8135614f7f614b5582615eb8565b80828252602082019150602085018f60208086028801011115614fa0578889fd5b8895505b83861015614fca57614fb581614b20565b83526001959095019460209283019201614fa4565b509650505060c08b0135915080821115614fe2578384fd5b50614fef8b828c01614ba5565b925050614ffe60e08a01614cdb565b90509295985092959890939650565b6000806040838503121561501f578182fd5b8235915060208301356001600160401b0381111561503b578182fd5b61504785828601614ce6565b9150509250929050565b6001600160a01b03169052565b6000815180845260208085019450808401835b838110156150965781516001600160a01b031687529582019590820190600101615071565b509495945050505050565b6000815180845260208085019450808401835b83811015615096578151875295820195908201906001016150b4565b6000815180845260208085018081965082840281019150828601855b858110156151bf57828403895281516101206151098683516152b6565b86820151615119888801826152c3565b506040808301518282890152615131838901826151d2565b925050506060808301518783038289015261514c83826151d2565b92505050608080830151818801525060a08083015161516d82890182615051565b505060c080830151615181828901826151cc565b505060e080830151615195828901826151cc565b505061010091820151916151ab878201846151cc565b5099860199945050908401906001016150ec565b5091979650505050505050565b15159052565b600081518084526151ea816020860160208601615ee1565b601f01601f19169290920160200192915050565b6000815460018082166000811461521c576001811461523a57615278565b60028304607f16865260ff1983166020870152604086019350615278565b6002830480875261524a86615ed5565b60005b8281101561526e5781546020828b010152848201915060208101905061524d565b8801602001955050505b50505092915050565b8051151582526020810151151560208301526040810151151560408301526001600160401b0360608201511660608301525050565b6001600160401b03169052565b60ff169052565b6001600160c01b031991909116815260080190565b600083516152f1818460208801615ee1565b835190830190615305818360208801615ee1565b01949350505050565b6001600160a01b03978816815295871660208701526040860194909452919094166060840152608083019390935260a082019290925260c081019190915260e00190565b600060408252615365604083018561505e565b828103602084015261537781856150a1565b95945050505050565b600060208252614d9060208301846150a1565b60006101408083526153a78184018b6150a1565b90506020838203818501526153bc828b61505e565b84810360408601528951808252828b01935090820190845b818110156153f0578451835293830193918301916001016153d4565b50508481036060860152615404818a6151d2565b92505050828103608084015261541a81876150d0565b91505061542a60a0830185615281565b6129e26101208301846151cc565b901515815260200190565b841515815283151560208201526001600160a01b0383166040820152608060608201819052600090615477908301846151d2565b9695505050505050565b921515835290151560208301521515604082015260600190565b90815260200190565b91825260ff16602082015260400190565b6020808252602b908201527f53746174652073686f756c642062652057616974696e67436f6e6669726d617460408201526a696f6e446561646c696e6560a81b606082015260800190565b60208082526027908201527f496e76616c696420647269766520746f20636c61696d20666f72206469726563604082015266742076616c756560c81b606082015260800190565b6020808252601e908201527f506172747920616464726573736573206d75737420626520756e697175650000604082015260600190565b6020808252604c908201527f4472697665207369626c696e6773206d75737420626520636f6d70617469626c60408201527f6520776974682070726576696f757320696e697469616c206861736820666f7260608201526b20656d70747920647269766560a01b608082015260a00190565b60208082526022908201527f726f756e64206475726174696f6e206d7573742062652035302b207365636f6e604082015261647360f01b606082015260800190565b60208082526048908201527f5374617465206d7573742062652057616974696e67436c61696d206f7220576160408201527f6974696e674368616c6c656e67654472697665732c20772f20646561646c696e60608201526719481c185cdcd95960c21b608082015260a00190565b60208082526039908201527f436c61696d6564206472697665206e756d6265722073686f756c64206d617463604082015278341031b630b4b6b2b21039b4b13634b733b990373ab6b132b960391b606082015260800190565b602080825260129082015271092dcecc2d8d2c840c8e4d2ecca92dcc8caf60731b604082015260600190565b6020808252602f908201527f537461746520213d2057616974696e674368616c6c656e6765526573756c742c60408201526e2063616e6e6f742077696e4279564760881b606082015260800190565b60208082526028908201527f6f75747075742064726976652068617320746f206265206174206c65617374206040820152671bdb99481ddbdc9960c21b606082015260800190565b6020808252601e908201527f447269766520686173682073686f756c646e27742062652066696c6c65640000604082015260600190565b60208082526021908201527f496e76616c696420647269766520746f20636c61696d20666f72206c6f6767656040820152603960f91b606082015260800190565b60208082526026908201527f53746174652073686f756c642062652057616974696e674368616c6c656e676560408201526544726976657360d01b606082015260800190565b602080825260139082015272092dcecc2d8d2c840c8e4d2ecca40d2dcc8caf606b1b604082015260600190565b6020808252601a908201527f4c6f67676572206472697665206e6f7420617661696c61626c65000000000000604082015260600190565b60208082526029908201527f43616e6e6f7420646573747275637420696e7374616e63652061742063757272604082015268656e7420737461746560b81b606082015260800190565b6020808252601a908201527f43616e6e6f742061626f72742063757272656e74207374617465000000000000604082015260600190565b602080825260129082015271556e7265636f676e697a656420737461746560701b604082015260600190565b602080825260199082015278537461746520213d2057616974696e6750726f76696465727360381b604082015260600190565b6020808252601b908201527f4e6f20617661696c61626c652070656e64696e67206472697665730000000000604082015260600190565b60208082526018908201527709eeae8e0eae840dcdee840d2dc40ccd2dcc2d840d0c2e6d60431b604082015260600190565b6020808252601190820152702232b0b23634b732903737ba1037bb32b960791b604082015260600190565b60208082526018908201527714d95b99195c881a185cc8185b1c9958591e481d9bdd195960421b604082015260600190565b6020808252601a908201527f6e656564734c6f676765722073686f756c642062652074727565000000000000604082015260600190565b60208082526016908201527553656e646572206d757374206265206120706172747960501b604082015260600190565b60208082526027908201527f64697265637456616c75652068617320746f206265206174206c65617374206f6040820152661b99481ddbdc9960ca1b606082015260800190565b6020808252602c908201527f4f7574707574206c656e67746820646f65736e2774206d61746368206f75747060408201526b7574206c6f67322073697a6560a01b606082015260800190565b60208082526012908201527129b2b73232b910109e90383937bb34b232b960711b604082015260600190565b60208082526027908201527f4f6e6c7920636f6e6365726e65642075736572732063616e206368616c6c656e6040820152666744726976657360c81b606082015260800190565b6020808252601290820152711591c81cdd185d19481b9bdd08199a5b985b60721b604082015260600190565b6020808252601b908201527f7761697450726f76696465722073686f756c6420626520747275650000000000604082015260600190565b602080825260179082015276537461746520213d2057616974696e6752657665616c7360481b604082015260600190565b60208082526018908201527729b2b73232b91036bab9ba10313290309031b630b4b6b2b960411b604082015260600190565b6020808252818101527f437478206d61726b6564206173206e6f206368616c6c656e6765206472697665604082015260600190565b6020808252602c908201527f496e707574206279746573206c656e677468206578636565647320636c61696d60408201526b6564206c6f67322073697a6560a01b606082015260800190565b9182526001600160a01b0316602082015260400190565b918252602082015260400190565b6000838252604060208301528254615d80604084016001600160401b0383166152b6565b615d936060840160ff8360401c166152c3565b50610120806080840152615dae6101608401600186016151fe565b838103603f190160a0850152615dc781600287016151fe565b600386015460c08601526004860154909150615def60e086016001600160a01b038316615051565b615e03610100860160ff8360a01c166151cc565b615e1583860160ff8360a81c166151cc565b615e29610140860160ff8360b01c166151cc565b5095945050505050565b948552602085019390935260408401919091526060830152608082015260a00190565b60006001600160401b038616825260ff851660208301528360408301526080606083015261547760808301846150a1565b60ff91909116815260200190565b6040518181016001600160401b0381118282101715615eb057fe5b604052919050565b60006001600160401b03821115615ecb57fe5b5060209081020190565b60009081526020902090565b60005b83811015615efc578181015183820152602001615ee4565b838111156135d95750506000910152565b8015158114614a4c57600080fdfe395534a9488250c4ea32136ac7cd156150898b4530ec3a5985e3ce6a50d2b36f496e646578206e6f7420696e7374616e74696174656400000000000000000000a264697066735822122081c872c24890ed2e34417baa41d230baade7ce34adc56afaf3b58d8e6a76acff64736f6c63430007040033",
  "linkReferences": {
    "@cartesi/util/contracts/Merkle.sol": {
      "Merkle": [
        {
          "length": 20,
          "start": 1659
        },
        {
          "length": 20,
          "start": 1996
        },
        {
          "length": 20,
          "start": 2113
        },
        {
          "length": 20,
          "start": 2435
        },
        {
          "length": 20,
          "start": 9753
        },
        {
          "length": 20,
          "start": 17505
        }
      ]
    }
  },
  "deployedLinkReferences": {
    "@cartesi/util/contracts/Merkle.sol": {
      "Merkle": [
        {
          "length": 20,
          "start": 1417
        },
        {
          "length": 20,
          "start": 1754
        },
        {
          "length": 20,
          "start": 1871
        },
        {
          "length": 20,
          "start": 2193
        },
        {
          "length": 20,
          "start": 9511
        },
        {
          "length": 20,
          "start": 17263
        }
      ]
    }
  },
  "devdoc": {
    "kind": "dev",
    "methods": {
      "abortByDeadline(uint256)": {
        "params": {
          "_index": "index of Cartesi Compute instance to abort"
        }
      },
      "challenge(uint256)": {
        "params": {
          "_index": "index of Cartesi Compute instance which challenger is starting the VG."
        }
      },
      "challengeDrives(uint256)": {
        "params": {
          "_index": "index of Cartesi Compute instance which is requested for the drives"
        }
      },
      "confirm(uint256)": {
        "params": {
          "_index": "index of Cartesi Compute instance which claimer being confirmed"
        }
      },
      "destruct(uint256)": {
        "params": {
          "_index": "index of Cartesi Compute instance to deactivate"
        }
      },
      "getResult(uint256)": {
        "params": {
          "_index": "index of Cartesi Compute instance to get result"
        },
        "returns": {
          "_0": "bool, indicates the result is ready",
          "_1": "bool, indicates the sdk is still running",
          "_2": "address, the user to blame for the abnormal stop of the sdk",
          "_3": "bytes, the result of the sdk if available"
        }
      },
      "instantiate(uint256,bytes32,uint64,uint8,uint256,address[],(uint64,uint8,bytes,bytes,bytes32,address,bool,bool,bool)[],bool)": {
        "params": {
          "_finalTime": "max cycle of the machine for that computation",
          "_inputDrives": "an array of drive which assemble the machine",
          "_noChallengeDrive": "bool indicating if content is challengeable",
          "_outputPosition": "position of the output drive",
          "_roundDuration": "duration of the round (security param)",
          "_templateHash": "hash of the machine with all drives empty"
        },
        "returns": {
          "_0": "uint256, Cartesi Compute index"
        }
      },
      "provideDirectDrive(uint256,bytes)": {
        "params": {
          "_index": "index of Cartesi Compute instance the drive belongs to.",
          "_value": "bytes value of the direct drive"
        }
      },
      "provideLoggerDrive(uint256,bytes32)": {
        "params": {
          "_index": "index of CartesiCompute instance the drive belongs to",
          "_root": "root hash of the logger drive"
        }
      },
      "revealLoggerDrive(uint256)": {
        "params": {
          "_index": "index of Cartesi Compute instance the drive belongs to"
        }
      },
      "submitClaim(uint256,bytes32,bytes32[][],bytes,bytes32[])": {
        "details": "Example: consider 3 drives, the first drive's siblings should be a pristine machine.      The second drive's siblings should be the machine with drive 1 mounted.      The third drive's siblings should be the machine with drive 2 mounted.",
        "params": {
          "_claimedFinalHash": "is the final hash of the machine",
          "_drivesSiblings": "is an array of siblings of each drive (see below example)",
          "_output": "is the bytes32 value of the output position",
          "_outputSiblings": "is the siblings of the output drive"
        }
      },
      "winByVG(uint256)": {
        "params": {
          "_index": "index of Cartesi Compute instance to win"
        }
      }
    },
    "version": 1
  },
  "evm": {
    "bytecode": {
      "linkReferences": {
        "@cartesi/util/contracts/Merkle.sol": {
          "Merkle": [
            {
              "length": 20,
              "start": 1659
            },
            {
              "length": 20,
              "start": 1996
            },
            {
              "length": 20,
              "start": 2113
            },
            {
              "length": 20,
              "start": 2435
            },
            {
              "length": 20,
              "start": 9753
            },
            {
              "length": 20,
              "start": 17505
            }
          ]
        }
      },
      "opcodes": "PUSH1 0x80 PUSH1 0x40 MSTORE PUSH1 0x0 DUP1 SSTORE CALLVALUE DUP1 ISZERO PUSH3 0x15 JUMPI PUSH1 0x0 DUP1 REVERT JUMPDEST POP PUSH1 0x40 MLOAD PUSH3 0x6083 CODESIZE SUB DUP1 PUSH3 0x6083 DUP4 CODECOPY DUP2 ADD PUSH1 0x40 DUP2 SWAP1 MSTORE PUSH3 0x38 SWAP2 PUSH3 0x99 JUMP JUMPDEST PUSH1 0x3 DUP1 SLOAD PUSH1 0x1 PUSH1 0x1 PUSH1 0xA0 SHL SUB NOT SWAP1 DUP2 AND PUSH1 0x1 PUSH1 0x1 PUSH1 0xA0 SHL SUB SWAP4 DUP5 AND OR SWAP1 SWAP2 SSTORE PUSH1 0x5 DUP1 SLOAD DUP3 AND SWAP4 DUP4 AND SWAP4 SWAP1 SWAP4 OR SWAP1 SWAP3 SSTORE PUSH1 0x4 DUP1 SLOAD SWAP1 SWAP3 AND SWAP3 AND SWAP2 SWAP1 SWAP2 OR SWAP1 SSTORE PUSH3 0xE2 JUMP JUMPDEST DUP1 MLOAD PUSH1 0x1 PUSH1 0x1 PUSH1 0xA0 SHL SUB DUP2 AND DUP2 EQ PUSH3 0x94 JUMPI PUSH1 0x0 DUP1 REVERT JUMPDEST SWAP2 SWAP1 POP JUMP JUMPDEST PUSH1 0x0 DUP1 PUSH1 0x0 PUSH1 0x60 DUP5 DUP7 SUB SLT ISZERO PUSH3 0xAE JUMPI DUP3 DUP4 REVERT JUMPDEST PUSH3 0xB9 DUP5 PUSH3 0x7C JUMP JUMPDEST SWAP3 POP PUSH3 0xC9 PUSH1 0x20 DUP6 ADD PUSH3 0x7C JUMP JUMPDEST SWAP2 POP PUSH3 0xD9 PUSH1 0x40 DUP6 ADD PUSH3 0x7C JUMP JUMPDEST SWAP1 POP SWAP3 POP SWAP3 POP SWAP3 JUMP JUMPDEST PUSH2 0x5F91 DUP1 PUSH3 0xF2 PUSH1 0x0 CODECOPY PUSH1 0x0 RETURN INVALID PUSH1 0x80 PUSH1 0x40 MSTORE CALLVALUE DUP1 ISZERO PUSH2 0x10 JUMPI PUSH1 0x0 DUP1 REVERT JUMPDEST POP PUSH1 0x4 CALLDATASIZE LT PUSH2 0x12C JUMPI PUSH1 0x0 CALLDATALOAD PUSH1 0xE0 SHR DUP1 PUSH4 0xAB82D9A0 GT PUSH2 0xAD JUMPI DUP1 PUSH4 0xC70683CA GT PUSH2 0x71 JUMPI DUP1 PUSH4 0xC70683CA EQ PUSH2 0x2A8 JUMPI DUP1 PUSH4 0xC87E3AE9 EQ PUSH2 0x2BB JUMPI DUP1 PUSH4 0xDED4DF63 EQ PUSH2 0x2CE JUMPI DUP1 PUSH4 0xF9BC3B21 EQ PUSH2 0x2E1 JUMPI DUP1 PUSH4 0xFA0ECC5B EQ PUSH2 0x2F4 JUMPI PUSH2 0x12C JUMP JUMPDEST DUP1 PUSH4 0xAB82D9A0 EQ PUSH2 0x23B JUMPI DUP1 PUSH4 0xB72971EE EQ PUSH2 0x24E JUMPI DUP1 PUSH4 0xBA0179B5 EQ PUSH2 0x261 JUMPI DUP1 PUSH4 0xBFDA2E72 EQ PUSH2 0x274 JUMPI DUP1 PUSH4 0xC526656C EQ PUSH2 0x287 JUMPI PUSH2 0x12C JUMP JUMPDEST DUP1 PUSH4 0x5748C130 GT PUSH2 0xF4 JUMPI DUP1 PUSH4 0x5748C130 EQ PUSH2 0x1AA JUMPI DUP1 PUSH4 0x73DF1612 EQ PUSH2 0x1BD JUMPI DUP1 PUSH4 0x82AFD23B EQ PUSH2 0x1E3 JUMPI DUP1 PUSH4 0x995E4339 EQ PUSH2 0x1F6 JUMPI DUP1 PUSH4 0xAB5DA187 EQ PUSH2 0x219 JUMPI PUSH2 0x12C JUMP JUMPDEST DUP1 PUSH4 0x1FF62AB EQ PUSH2 0x131 JUMPI DUP1 PUSH4 0x26987B60 EQ PUSH2 0x15A JUMPI DUP1 PUSH4 0x351E6657 EQ PUSH2 0x16F JUMPI DUP1 PUSH4 0x3D46B819 EQ PUSH2 0x184 JUMPI DUP1 PUSH4 0x4C6FE7BF EQ PUSH2 0x197 JUMPI JUMPDEST PUSH1 0x0 DUP1 REVERT JUMPDEST PUSH2 0x144 PUSH2 0x13F CALLDATASIZE PUSH1 0x4 PUSH2 0x4DC7 JUMP JUMPDEST PUSH2 0x307 JUMP JUMPDEST PUSH1 0x40 MLOAD PUSH2 0x151 SWAP2 SWAP1 PUSH2 0x5438 JUMP JUMPDEST PUSH1 0x40 MLOAD DUP1 SWAP2 SUB SWAP1 RETURN JUMPDEST PUSH2 0x162 PUSH2 0x37F JUMP JUMPDEST PUSH1 0x40 MLOAD PUSH2 0x151 SWAP2 SWAP1 PUSH2 0x549B JUMP JUMPDEST PUSH2 0x182 PUSH2 0x17D CALLDATASIZE PUSH1 0x4 PUSH2 0x4E13 JUMP JUMPDEST PUSH2 0x385 JUMP JUMPDEST STOP JUMPDEST PUSH2 0x162 PUSH2 0x192 CALLDATASIZE PUSH1 0x4 PUSH2 0x4DAF JUMP JUMPDEST PUSH2 0xA7E JUMP JUMPDEST PUSH2 0x182 PUSH2 0x1A5 CALLDATASIZE PUSH1 0x4 PUSH2 0x4DAF JUMP JUMPDEST PUSH2 0xB28 JUMP JUMPDEST PUSH2 0x162 PUSH2 0x1B8 CALLDATASIZE PUSH1 0x4 PUSH2 0x4DAF JUMP JUMPDEST PUSH2 0xD0C JUMP JUMPDEST PUSH2 0x1D0 PUSH2 0x1CB CALLDATASIZE PUSH1 0x4 PUSH2 0x4DC7 JUMP JUMPDEST PUSH2 0xFA3 JUMP JUMPDEST PUSH1 0x40 MLOAD PUSH2 0x151 SWAP8 SWAP7 SWAP6 SWAP5 SWAP4 SWAP3 SWAP2 SWAP1 PUSH2 0x5393 JUMP JUMPDEST PUSH2 0x144 PUSH2 0x1F1 CALLDATASIZE PUSH1 0x4 PUSH2 0x4DAF JUMP JUMPDEST PUSH2 0x19E8 JUMP JUMPDEST PUSH2 0x209 PUSH2 0x204 CALLDATASIZE PUSH1 0x4 PUSH2 0x4DAF JUMP JUMPDEST PUSH2 0x1A00 JUMP JUMPDEST PUSH1 0x40 MLOAD PUSH2 0x151 SWAP5 SWAP4 SWAP3 SWAP2 SWAP1 PUSH2 0x5443 JUMP JUMPDEST PUSH2 0x22C PUSH2 0x227 CALLDATASIZE PUSH1 0x4 PUSH2 0x4DC7 JUMP JUMPDEST PUSH2 0x1DF6 JUMP JUMPDEST PUSH1 0x40 MLOAD PUSH2 0x151 SWAP4 SWAP3 SWAP2 SWAP1 PUSH2 0x5481 JUMP JUMPDEST PUSH2 0x182 PUSH2 0x249 CALLDATASIZE PUSH1 0x4 PUSH2 0x4DAF JUMP JUMPDEST PUSH2 0x1E86 JUMP JUMPDEST PUSH2 0x162 PUSH2 0x25C CALLDATASIZE PUSH1 0x4 PUSH2 0x4EFB JUMP JUMPDEST PUSH2 0x21AC JUMP JUMPDEST PUSH2 0x182 PUSH2 0x26F CALLDATASIZE PUSH1 0x4 PUSH2 0x4DAF JUMP JUMPDEST PUSH2 0x29EE JUMP JUMPDEST PUSH2 0x182 PUSH2 0x282 CALLDATASIZE PUSH1 0x4 PUSH2 0x4DAF JUMP JUMPDEST PUSH2 0x2C70 JUMP JUMPDEST PUSH2 0x29A PUSH2 0x295 CALLDATASIZE PUSH1 0x4 PUSH2 0x4DC7 JUMP JUMPDEST PUSH2 0x2DC5 JUMP JUMPDEST PUSH1 0x40 MLOAD PUSH2 0x151 SWAP3 SWAP2 SWAP1 PUSH2 0x5352 JUMP JUMPDEST PUSH2 0x182 PUSH2 0x2B6 CALLDATASIZE PUSH1 0x4 PUSH2 0x4DF2 JUMP JUMPDEST PUSH2 0x2EFE JUMP JUMPDEST PUSH2 0x182 PUSH2 0x2C9 CALLDATASIZE PUSH1 0x4 PUSH2 0x4DAF JUMP JUMPDEST PUSH2 0x33ED JUMP JUMPDEST PUSH2 0x182 PUSH2 0x2DC CALLDATASIZE PUSH1 0x4 PUSH2 0x4DAF JUMP JUMPDEST PUSH2 0x35DF JUMP JUMPDEST PUSH2 0x182 PUSH2 0x2EF CALLDATASIZE PUSH1 0x4 PUSH2 0x4DAF JUMP JUMPDEST PUSH2 0x3A9C JUMP JUMPDEST PUSH2 0x182 PUSH2 0x302 CALLDATASIZE PUSH1 0x4 PUSH2 0x500D JUMP JUMPDEST PUSH2 0x3E7F JUMP JUMPDEST PUSH1 0x0 DUP3 DUP1 PUSH1 0x0 SLOAD GT PUSH2 0x34E JUMPI PUSH1 0x40 DUP1 MLOAD PUSH3 0x461BCD PUSH1 0xE5 SHL DUP2 MSTORE PUSH1 0x20 PUSH1 0x4 DUP3 ADD MSTORE PUSH1 0x16 PUSH1 0x24 DUP3 ADD MSTORE PUSH1 0x0 DUP1 MLOAD PUSH1 0x20 PUSH2 0x5F3C DUP4 CODECOPY DUP2 MLOAD SWAP2 MSTORE PUSH1 0x44 DUP3 ADD MSTORE SWAP1 MLOAD SWAP1 DUP2 SWAP1 SUB PUSH1 0x64 ADD SWAP1 REVERT JUMPDEST POP POP PUSH1 0x0 SWAP2 DUP3 MSTORE PUSH1 0x6 PUSH1 0x20 SWAP1 DUP2 MSTORE PUSH1 0x40 DUP1 DUP5 KECCAK256 PUSH1 0x1 PUSH1 0x1 PUSH1 0xA0 SHL SUB SWAP4 SWAP1 SWAP4 AND DUP5 MSTORE PUSH1 0xF SWAP1 SWAP3 ADD SWAP1 MSTORE SWAP1 KECCAK256 SLOAD PUSH1 0xFF AND SWAP1 JUMP JUMPDEST PUSH1 0x0 SLOAD DUP2 JUMP JUMPDEST DUP5 DUP1 PUSH1 0x0 SLOAD GT PUSH2 0x3CA JUMPI PUSH1 0x40 DUP1 MLOAD PUSH3 0x461BCD PUSH1 0xE5 SHL DUP2 MSTORE PUSH1 0x20 PUSH1 0x4 DUP3 ADD MSTORE PUSH1 0x16 PUSH1 0x24 DUP3 ADD MSTORE PUSH1 0x0 DUP1 MLOAD PUSH1 0x20 PUSH2 0x5F3C DUP4 CODECOPY DUP2 MLOAD SWAP2 MSTORE PUSH1 0x44 DUP3 ADD MSTORE SWAP1 MLOAD SWAP1 DUP2 SWAP1 SUB PUSH1 0x64 ADD SWAP1 REVERT JUMPDEST PUSH2 0x3D3 DUP2 PUSH2 0x19E8 JUMP JUMPDEST PUSH2 0x415 JUMPI PUSH1 0x40 DUP1 MLOAD PUSH3 0x461BCD PUSH1 0xE5 SHL DUP2 MSTORE PUSH1 0x20 PUSH1 0x4 DUP3 ADD MSTORE PUSH1 0xE PUSH1 0x24 DUP3 ADD MSTORE PUSH14 0x496E64657820696E616374697665 PUSH1 0x90 SHL PUSH1 0x44 DUP3 ADD MSTORE SWAP1 MLOAD SWAP1 DUP2 SWAP1 SUB PUSH1 0x64 ADD SWAP1 REVERT JUMPDEST PUSH1 0x0 DUP7 DUP2 MSTORE PUSH1 0x6 PUSH1 0x20 MSTORE PUSH1 0x40 SWAP1 KECCAK256 PUSH1 0xE DUP2 ADD SLOAD PUSH1 0xC DUP3 ADD DUP1 SLOAD DUP10 SWAP4 SWAP3 CALLER SWAP3 SWAP2 PUSH1 0x1 PUSH1 0x1 PUSH1 0x40 SHL SUB SWAP1 SWAP2 AND SWAP1 DUP2 LT PUSH2 0x448 JUMPI INVALID JUMPDEST PUSH1 0x0 SWAP2 DUP3 MSTORE PUSH1 0x20 SWAP1 SWAP2 KECCAK256 ADD SLOAD PUSH1 0x1 PUSH1 0x1 PUSH1 0xA0 SHL SUB AND EQ PUSH2 0x483 JUMPI PUSH1 0x40 MLOAD PUSH3 0x461BCD PUSH1 0xE5 SHL DUP2 MSTORE PUSH1 0x4 ADD PUSH2 0x47A SWAP1 PUSH2 0x5C84 JUMP JUMPDEST PUSH1 0x40 MLOAD DUP1 SWAP2 SUB SWAP1 REVERT JUMPDEST PUSH1 0x0 DUP9 DUP2 MSTORE PUSH1 0x2 PUSH1 0x20 SWAP1 DUP2 MSTORE PUSH1 0x40 DUP1 DUP4 KECCAK256 DUP1 SLOAD PUSH1 0x1 ADD SWAP1 SSTORE PUSH1 0x6 SWAP1 SWAP2 MSTORE DUP2 KECCAK256 DUP10 SWAP2 PUSH2 0x4AD DUP4 PUSH2 0x44C2 JUMP JUMPDEST PUSH1 0x6 DUP4 ADD SLOAD ADD TIMESTAMP GT SWAP1 POP PUSH1 0x4 PUSH1 0x10 DUP4 ADD SLOAD PUSH1 0xFF AND PUSH1 0xA DUP2 GT ISZERO PUSH2 0x4CC JUMPI INVALID JUMPDEST EQ DUP1 PUSH2 0x4F2 JUMPI POP PUSH1 0x2 PUSH1 0x10 DUP4 ADD SLOAD PUSH1 0xFF AND PUSH1 0xA DUP2 GT ISZERO PUSH2 0x4E8 JUMPI INVALID JUMPDEST EQ DUP1 ISZERO PUSH2 0x4F2 JUMPI POP DUP1 JUMPDEST PUSH2 0x50E JUMPI PUSH1 0x40 MLOAD PUSH3 0x461BCD PUSH1 0xE5 SHL DUP2 MSTORE PUSH1 0x4 ADD PUSH2 0x47A SWAP1 PUSH2 0x5632 JUMP JUMPDEST DUP9 MLOAD PUSH1 0x14 DUP4 ADD SLOAD EQ PUSH2 0x532 JUMPI PUSH1 0x40 MLOAD PUSH3 0x461BCD PUSH1 0xE5 SHL DUP2 MSTORE PUSH1 0x4 ADD PUSH2 0x47A SWAP1 PUSH2 0x56A0 JUMP JUMPDEST PUSH1 0x4 DUP3 ADD SLOAD DUP9 MLOAD PUSH1 0x1 PUSH1 0x40 SHL SWAP1 SWAP2 DIV PUSH1 0xFF AND PUSH1 0x2 EXP EQ PUSH2 0x564 JUMPI PUSH1 0x40 MLOAD PUSH3 0x461BCD PUSH1 0xE5 SHL DUP2 MSTORE PUSH1 0x4 ADD PUSH2 0x47A SWAP1 PUSH2 0x5B31 JUMP JUMPDEST PUSH1 0x60 PUSH2 0x56F DUP10 PUSH2 0x47DC JUMP JUMPDEST PUSH1 0x4 DUP5 DUP2 ADD SLOAD PUSH1 0x40 MLOAD PUSH4 0x10561D57 PUSH1 0xE3 SHL DUP2 MSTORE SWAP3 SWAP4 POP DUP14 SWAP3 PUSH20 0x0 SWAP3 PUSH4 0xD7304DD9 SWAP3 PUSH1 0x1 PUSH1 0x1 PUSH1 0x40 SHL SUB DUP2 AND SWAP3 PUSH1 0x1 PUSH1 0x40 SHL SWAP1 SWAP2 DIV PUSH1 0xFF AND SWAP2 DUP6 SWAP2 PUSH4 0x82B0EAB8 SWAP2 PUSH2 0x5CE SWAP2 DUP11 SWAP2 ADD PUSH2 0x5380 JUMP JUMPDEST PUSH1 0x20 PUSH1 0x40 MLOAD DUP1 DUP4 SUB DUP2 DUP7 DUP1 EXTCODESIZE ISZERO DUP1 ISZERO PUSH2 0x5E6 JUMPI PUSH1 0x0 DUP1 REVERT JUMPDEST POP GAS DELEGATECALL ISZERO DUP1 ISZERO PUSH2 0x5FA JUMPI RETURNDATASIZE PUSH1 0x0 DUP1 RETURNDATACOPY RETURNDATASIZE PUSH1 0x0 REVERT JUMPDEST POP POP POP POP PUSH1 0x40 MLOAD RETURNDATASIZE PUSH1 0x1F NOT PUSH1 0x1F DUP3 ADD AND DUP3 ADD DUP1 PUSH1 0x40 MSTORE POP DUP2 ADD SWAP1 PUSH2 0x61E SWAP2 SWAP1 PUSH2 0x4D97 JUMP JUMPDEST DUP14 PUSH1 0x40 MLOAD DUP6 PUSH4 0xFFFFFFFF AND PUSH1 0xE0 SHL DUP2 MSTORE PUSH1 0x4 ADD PUSH2 0x63E SWAP5 SWAP4 SWAP3 SWAP2 SWAP1 PUSH2 0x5E56 JUMP JUMPDEST PUSH1 0x20 PUSH1 0x40 MLOAD DUP1 DUP4 SUB DUP2 DUP7 DUP1 EXTCODESIZE ISZERO DUP1 ISZERO PUSH2 0x656 JUMPI PUSH1 0x0 DUP1 REVERT JUMPDEST POP GAS DELEGATECALL ISZERO DUP1 ISZERO PUSH2 0x66A JUMPI RETURNDATASIZE PUSH1 0x0 DUP1 RETURNDATACOPY RETURNDATASIZE PUSH1 0x0 REVERT JUMPDEST POP POP POP POP PUSH1 0x40 MLOAD RETURNDATASIZE PUSH1 0x1F NOT PUSH1 0x1F DUP3 ADD AND DUP3 ADD DUP1 PUSH1 0x40 MSTORE POP DUP2 ADD SWAP1 PUSH2 0x68E SWAP2 SWAP1 PUSH2 0x4D97 JUMP JUMPDEST EQ PUSH2 0x6AB JUMPI PUSH1 0x40 MLOAD PUSH3 0x461BCD PUSH1 0xE5 SHL DUP2 MSTORE PUSH1 0x4 ADD PUSH2 0x47A SWAP1 PUSH2 0x59F4 JUMP JUMPDEST PUSH1 0x14 DUP4 ADD SLOAD PUSH1 0x0 JUMPDEST DUP2 DUP2 LT ISZERO PUSH2 0x99C JUMPI PUSH1 0x60 DUP13 DUP3 DUP2 MLOAD DUP2 LT PUSH2 0x6C9 JUMPI INVALID JUMPDEST PUSH1 0x20 MUL PUSH1 0x20 ADD ADD MLOAD SWAP1 POP DUP6 PUSH1 0x9 ADD SLOAD PUSH20 0x0 PUSH4 0xD7304DD9 DUP9 PUSH1 0x14 ADD DUP6 DUP2 SLOAD DUP2 LT PUSH2 0x701 JUMPI INVALID JUMPDEST PUSH1 0x0 SWAP2 DUP3 MSTORE PUSH1 0x20 SWAP1 SWAP2 KECCAK256 PUSH1 0x5 SWAP1 SWAP2 MUL ADD SLOAD PUSH1 0x14 DUP11 ADD DUP1 SLOAD PUSH1 0x1 PUSH1 0x1 PUSH1 0x40 SHL SUB SWAP1 SWAP3 AND SWAP2 DUP8 SWAP1 DUP2 LT PUSH2 0x72E JUMPI INVALID JUMPDEST SWAP1 PUSH1 0x0 MSTORE PUSH1 0x20 PUSH1 0x0 KECCAK256 SWAP1 PUSH1 0x5 MUL ADD PUSH1 0x0 ADD PUSH1 0x8 SWAP1 SLOAD SWAP1 PUSH2 0x100 EXP SWAP1 DIV PUSH1 0xFF AND PUSH20 0x0 PUSH4 0xA7342688 DUP13 PUSH1 0x14 ADD DUP10 DUP2 SLOAD DUP2 LT PUSH2 0x776 JUMPI INVALID JUMPDEST PUSH1 0x0 SWAP2 DUP3 MSTORE PUSH1 0x20 SWAP1 SWAP2 KECCAK256 PUSH1 0x5 SWAP1 SWAP2 MUL ADD SLOAD PUSH1 0x40 MLOAD PUSH1 0xE0 DUP4 SWAP1 SHL PUSH1 0x1 PUSH1 0x1 PUSH1 0xE0 SHL SUB NOT AND DUP2 MSTORE PUSH2 0x7B2 SWAP2 PUSH1 0x1 PUSH1 0x40 SHL SWAP1 DIV PUSH1 0xFF AND SWAP1 PUSH1 0x4 ADD PUSH2 0x5E87 JUMP JUMPDEST PUSH1 0x20 PUSH1 0x40 MLOAD DUP1 DUP4 SUB DUP2 DUP7 DUP1 EXTCODESIZE ISZERO DUP1 ISZERO PUSH2 0x7CA JUMPI PUSH1 0x0 DUP1 REVERT JUMPDEST POP GAS DELEGATECALL ISZERO DUP1 ISZERO PUSH2 0x7DE JUMPI RETURNDATASIZE PUSH1 0x0 DUP1 RETURNDATACOPY RETURNDATASIZE PUSH1 0x0 REVERT JUMPDEST POP POP POP POP PUSH1 0x40 MLOAD RETURNDATASIZE PUSH1 0x1F NOT PUSH1 0x1F DUP3 ADD AND DUP3 ADD DUP1 PUSH1 0x40 MSTORE POP DUP2 ADD SWAP1 PUSH2 0x802 SWAP2 SWAP1 PUSH2 0x4D97 JUMP JUMPDEST DUP7 PUSH1 0x40 MLOAD DUP6 PUSH4 0xFFFFFFFF AND PUSH1 0xE0 SHL DUP2 MSTORE PUSH1 0x4 ADD PUSH2 0x822 SWAP5 SWAP4 SWAP3 SWAP2 SWAP1 PUSH2 0x5E56 JUMP JUMPDEST PUSH1 0x20 PUSH1 0x40 MLOAD DUP1 DUP4 SUB DUP2 DUP7 DUP1 EXTCODESIZE ISZERO DUP1 ISZERO PUSH2 0x83A JUMPI PUSH1 0x0 DUP1 REVERT JUMPDEST POP GAS DELEGATECALL ISZERO DUP1 ISZERO PUSH2 0x84E JUMPI RETURNDATASIZE PUSH1 0x0 DUP1 RETURNDATACOPY RETURNDATASIZE PUSH1 0x0 REVERT JUMPDEST POP POP POP POP PUSH1 0x40 MLOAD RETURNDATASIZE PUSH1 0x1F NOT PUSH1 0x1F DUP3 ADD AND DUP3 ADD DUP1 PUSH1 0x40 MSTORE POP DUP2 ADD SWAP1 PUSH2 0x872 SWAP2 SWAP1 PUSH2 0x4D97 JUMP JUMPDEST EQ PUSH2 0x88F JUMPI PUSH1 0x40 MLOAD PUSH3 0x461BCD PUSH1 0xE5 SHL DUP2 MSTORE PUSH1 0x4 ADD PUSH2 0x47A SWAP1 PUSH2 0x557E JUMP JUMPDEST PUSH20 0x0 PUSH4 0xD7304DD9 DUP8 PUSH1 0x14 ADD DUP5 DUP2 SLOAD DUP2 LT PUSH2 0x8B8 JUMPI INVALID JUMPDEST PUSH1 0x0 SWAP2 DUP3 MSTORE PUSH1 0x20 SWAP1 SWAP2 KECCAK256 PUSH1 0x5 SWAP1 SWAP2 MUL ADD SLOAD PUSH1 0x14 DUP10 ADD DUP1 SLOAD PUSH1 0x1 PUSH1 0x1 PUSH1 0x40 SHL SUB SWAP1 SWAP3 AND SWAP2 DUP7 SWAP1 DUP2 LT PUSH2 0x8E5 JUMPI INVALID JUMPDEST SWAP1 PUSH1 0x0 MSTORE PUSH1 0x20 PUSH1 0x0 KECCAK256 SWAP1 PUSH1 0x5 MUL ADD PUSH1 0x0 ADD PUSH1 0x8 SWAP1 SLOAD SWAP1 PUSH2 0x100 EXP SWAP1 DIV PUSH1 0xFF AND DUP10 PUSH1 0x13 ADD DUP7 DUP2 SLOAD DUP2 LT PUSH2 0x913 JUMPI INVALID JUMPDEST SWAP1 PUSH1 0x0 MSTORE PUSH1 0x20 PUSH1 0x0 KECCAK256 ADD SLOAD DUP6 PUSH1 0x40 MLOAD DUP6 PUSH4 0xFFFFFFFF AND PUSH1 0xE0 SHL DUP2 MSTORE PUSH1 0x4 ADD PUSH2 0x93E SWAP5 SWAP4 SWAP3 SWAP2 SWAP1 PUSH2 0x5E56 JUMP JUMPDEST PUSH1 0x20 PUSH1 0x40 MLOAD DUP1 DUP4 SUB DUP2 DUP7 DUP1 EXTCODESIZE ISZERO DUP1 ISZERO PUSH2 0x956 JUMPI PUSH1 0x0 DUP1 REVERT JUMPDEST POP GAS DELEGATECALL ISZERO DUP1 ISZERO PUSH2 0x96A JUMPI RETURNDATASIZE PUSH1 0x0 DUP1 RETURNDATACOPY RETURNDATASIZE PUSH1 0x0 REVERT JUMPDEST POP POP POP POP PUSH1 0x40 MLOAD RETURNDATASIZE PUSH1 0x1F NOT PUSH1 0x1F DUP3 ADD AND DUP3 ADD DUP1 PUSH1 0x40 MSTORE POP DUP2 ADD SWAP1 PUSH2 0x98E SWAP2 SWAP1 PUSH2 0x4D97 JUMP JUMPDEST PUSH1 0x9 DUP8 ADD SSTORE POP PUSH1 0x1 ADD PUSH2 0x6B3 JUMP JUMPDEST POP PUSH1 0xA DUP5 ADD DUP13 SWAP1 SSTORE PUSH1 0x10 DUP5 ADD DUP1 SLOAD PUSH1 0xFF NOT AND PUSH1 0x6 OR SWAP1 SSTORE DUP10 MLOAD PUSH2 0x9C8 SWAP1 PUSH1 0xB DUP7 ADD SWAP1 PUSH1 0x20 DUP14 ADD SWAP1 PUSH2 0x48F3 JUMP JUMPDEST POP PUSH1 0xE DUP5 ADD SLOAD PUSH1 0xC DUP6 ADD DUP1 SLOAD PUSH1 0x1 SWAP3 PUSH1 0xF DUP9 ADD SWAP3 PUSH1 0x0 SWAP3 SWAP1 SWAP2 PUSH1 0x1 PUSH1 0x1 PUSH1 0x40 SHL SUB AND SWAP1 DUP2 LT PUSH2 0x9F3 JUMPI INVALID JUMPDEST PUSH1 0x0 SWAP2 DUP3 MSTORE PUSH1 0x20 DUP1 DUP4 KECCAK256 SWAP1 SWAP2 ADD SLOAD PUSH1 0x1 PUSH1 0x1 PUSH1 0xA0 SHL SUB AND DUP4 MSTORE DUP3 ADD SWAP3 SWAP1 SWAP3 MSTORE PUSH1 0x40 SWAP1 DUP2 ADD SWAP1 SWAP2 KECCAK256 DUP1 SLOAD SWAP3 ISZERO ISZERO PUSH2 0x100 MUL PUSH2 0xFF00 NOT SWAP1 SWAP4 AND SWAP3 SWAP1 SWAP3 OR SWAP1 SWAP2 SSTORE TIMESTAMP PUSH1 0x6 DUP7 ADD SSTORE MLOAD PUSH32 0x1E9358F673FF367487CE56F136412AE5B69BF2C06E223AAD2756D748C2A9B52A SWAP1 PUSH2 0xA67 SWAP1 DUP16 SWAP1 DUP16 SWAP1 PUSH2 0x5D4E JUMP JUMPDEST PUSH1 0x40 MLOAD DUP1 SWAP2 SUB SWAP1 LOG1 POP POP POP POP POP POP POP POP POP POP POP POP POP JUMP JUMPDEST PUSH1 0x0 DUP2 DUP1 PUSH1 0x0 SLOAD GT PUSH2 0xAC5 JUMPI PUSH1 0x40 DUP1 MLOAD PUSH3 0x461BCD PUSH1 0xE5 SHL DUP2 MSTORE PUSH1 0x20 PUSH1 0x4 DUP3 ADD MSTORE PUSH1 0x16 PUSH1 0x24 DUP3 ADD MSTORE PUSH1 0x0 DUP1 MLOAD PUSH1 0x20 PUSH2 0x5F3C DUP4 CODECOPY DUP2 MLOAD SWAP2 MSTORE PUSH1 0x44 DUP3 ADD MSTORE SWAP1 MLOAD SWAP1 DUP2 SWAP1 SUB PUSH1 0x64 ADD SWAP1 REVERT JUMPDEST PUSH2 0xACE DUP2 PUSH2 0x19E8 JUMP JUMPDEST PUSH2 0xB10 JUMPI PUSH1 0x40 DUP1 MLOAD PUSH3 0x461BCD PUSH1 0xE5 SHL DUP2 MSTORE PUSH1 0x20 PUSH1 0x4 DUP3 ADD MSTORE PUSH1 0xE PUSH1 0x24 DUP3 ADD MSTORE PUSH14 0x496E64657820696E616374697665 PUSH1 0x90 SHL PUSH1 0x44 DUP3 ADD MSTORE SWAP1 MLOAD SWAP1 DUP2 SWAP1 SUB PUSH1 0x64 ADD SWAP1 REVERT JUMPDEST PUSH1 0x0 DUP4 DUP2 MSTORE PUSH1 0x2 PUSH1 0x20 MSTORE PUSH1 0x40 SWAP1 KECCAK256 SLOAD SWAP2 POP JUMPDEST POP SWAP2 SWAP1 POP JUMP JUMPDEST DUP1 DUP1 PUSH1 0x0 SLOAD GT PUSH2 0xB6D JUMPI PUSH1 0x40 DUP1 MLOAD PUSH3 0x461BCD PUSH1 0xE5 SHL DUP2 MSTORE PUSH1 0x20 PUSH1 0x4 DUP3 ADD MSTORE PUSH1 0x16 PUSH1 0x24 DUP3 ADD MSTORE PUSH1 0x0 DUP1 MLOAD PUSH1 0x20 PUSH2 0x5F3C DUP4 CODECOPY DUP2 MLOAD SWAP2 MSTORE PUSH1 0x44 DUP3 ADD MSTORE SWAP1 MLOAD SWAP1 DUP2 SWAP1 SUB PUSH1 0x64 ADD SWAP1 REVERT JUMPDEST PUSH2 0xB76 DUP2 PUSH2 0x19E8 JUMP JUMPDEST PUSH2 0xBB8 JUMPI PUSH1 0x40 DUP1 MLOAD PUSH3 0x461BCD PUSH1 0xE5 SHL DUP2 MSTORE PUSH1 0x20 PUSH1 0x4 DUP3 ADD MSTORE PUSH1 0xE PUSH1 0x24 DUP3 ADD MSTORE PUSH14 0x496E64657820696E616374697665 PUSH1 0x90 SHL PUSH1 0x44 DUP3 ADD MSTORE SWAP1 MLOAD SWAP1 DUP2 SWAP1 SUB PUSH1 0x64 ADD SWAP1 REVERT JUMPDEST PUSH1 0x0 DUP3 DUP2 MSTORE PUSH1 0x6 PUSH1 0x20 MSTORE PUSH1 0x40 DUP2 KECCAK256 SWAP1 PUSH2 0xBD0 DUP5 PUSH2 0x44C2 JUMP JUMPDEST DUP3 PUSH1 0x6 ADD SLOAD ADD TIMESTAMP GT SWAP1 POP DUP1 PUSH2 0xBF7 JUMPI PUSH1 0x40 MLOAD PUSH3 0x461BCD PUSH1 0xE5 SHL DUP2 MSTORE PUSH1 0x4 ADD PUSH2 0x47A SWAP1 PUSH2 0x5A26 JUMP JUMPDEST PUSH1 0x0 PUSH1 0x10 DUP4 ADD SLOAD PUSH1 0xFF AND PUSH1 0xA DUP2 GT ISZERO PUSH2 0xC0C JUMPI INVALID JUMPDEST EQ ISZERO PUSH2 0xC5E JUMPI PUSH1 0x10 DUP3 ADD DUP1 SLOAD PUSH1 0x1 SWAP2 SWAP1 PUSH1 0xFF NOT AND DUP3 DUP1 JUMPDEST MUL OR SWAP1 SSTORE POP PUSH1 0x0 DUP1 MLOAD PUSH1 0x20 PUSH2 0x5F1C DUP4 CODECOPY DUP2 MLOAD SWAP2 MSTORE DUP5 PUSH2 0xC41 DUP7 PUSH2 0xD0C JUMP JUMPDEST PUSH1 0x40 MLOAD PUSH2 0xC4F SWAP3 SWAP2 SWAP1 PUSH2 0x5D4E JUMP JUMPDEST PUSH1 0x40 MLOAD DUP1 SWAP2 SUB SWAP1 LOG1 POP POP PUSH2 0xD08 JUMP JUMPDEST PUSH1 0x3 PUSH1 0x10 DUP4 ADD SLOAD PUSH1 0xFF AND PUSH1 0xA DUP2 GT ISZERO PUSH2 0xC73 JUMPI INVALID JUMPDEST EQ ISZERO PUSH2 0xC8E JUMPI PUSH1 0x10 DUP3 ADD DUP1 SLOAD PUSH1 0x1 SWAP2 SWAP1 PUSH1 0xFF NOT AND DUP3 DUP1 PUSH2 0xC23 JUMP JUMPDEST PUSH1 0x4 PUSH1 0x10 DUP4 ADD SLOAD PUSH1 0xFF AND PUSH1 0xA DUP2 GT ISZERO PUSH2 0xCA3 JUMPI INVALID JUMPDEST EQ ISZERO PUSH2 0xCBF JUMPI PUSH1 0x10 DUP3 ADD DUP1 SLOAD PUSH1 0x5 SWAP2 SWAP1 PUSH1 0xFF NOT AND PUSH1 0x1 DUP4 PUSH2 0xC23 JUMP JUMPDEST PUSH1 0x6 PUSH1 0x10 DUP4 ADD SLOAD PUSH1 0xFF AND PUSH1 0xA DUP2 GT ISZERO PUSH2 0xCD4 JUMPI INVALID JUMPDEST EQ ISZERO PUSH2 0xCF0 JUMPI PUSH1 0x10 DUP3 ADD DUP1 SLOAD PUSH1 0xA SWAP2 SWAP1 PUSH1 0xFF NOT AND PUSH1 0x1 DUP4 PUSH2 0xC23 JUMP JUMPDEST PUSH1 0x40 MLOAD PUSH3 0x461BCD PUSH1 0xE5 SHL DUP2 MSTORE PUSH1 0x4 ADD PUSH2 0x47A SWAP1 PUSH2 0x5927 JUMP JUMPDEST POP POP JUMP JUMPDEST PUSH1 0x0 DUP2 DUP1 PUSH1 0x0 SLOAD GT PUSH2 0xD53 JUMPI PUSH1 0x40 DUP1 MLOAD PUSH3 0x461BCD PUSH1 0xE5 SHL DUP2 MSTORE PUSH1 0x20 PUSH1 0x4 DUP3 ADD MSTORE PUSH1 0x16 PUSH1 0x24 DUP3 ADD MSTORE PUSH1 0x0 DUP1 MLOAD PUSH1 0x20 PUSH2 0x5F3C DUP4 CODECOPY DUP2 MLOAD SWAP2 MSTORE PUSH1 0x44 DUP3 ADD MSTORE SWAP1 MLOAD SWAP1 DUP2 SWAP1 SUB PUSH1 0x64 ADD SWAP1 REVERT JUMPDEST PUSH1 0x0 DUP4 DUP2 MSTORE PUSH1 0x6 PUSH1 0x20 MSTORE PUSH1 0x40 DUP2 KECCAK256 PUSH1 0x10 ADD SLOAD PUSH1 0xFF AND SWAP1 DUP2 PUSH1 0xA DUP2 GT ISZERO PUSH2 0xD75 JUMPI INVALID JUMPDEST EQ ISZERO PUSH2 0xD97 JUMPI PUSH16 0x57616974696E6750726F766964657273 PUSH1 0x80 SHL SWAP3 POP POP PUSH2 0xB22 JUMP JUMPDEST PUSH1 0x3 DUP2 PUSH1 0xA DUP2 GT ISZERO PUSH2 0xDA5 JUMPI INVALID JUMPDEST EQ ISZERO PUSH2 0xDC5 JUMPI PUSH14 0x57616974696E6752657665616C73 PUSH1 0x90 SHL SWAP3 POP POP PUSH2 0xB22 JUMP JUMPDEST PUSH1 0x2 DUP2 PUSH1 0xA DUP2 GT ISZERO PUSH2 0xDD3 JUMPI INVALID JUMPDEST EQ ISZERO PUSH2 0xDFB JUMPI PUSH22 0x57616974696E674368616C6C656E6765447269766573 PUSH1 0x50 SHL SWAP3 POP POP PUSH2 0xB22 JUMP JUMPDEST PUSH1 0x5 DUP2 PUSH1 0xA DUP2 GT ISZERO PUSH2 0xE09 JUMPI INVALID JUMPDEST EQ ISZERO PUSH2 0xE30 JUMPI PUSH21 0x436C61696D65724D6973736564446561646C696E65 PUSH1 0x58 SHL SWAP3 POP POP PUSH2 0xB22 JUMP JUMPDEST PUSH1 0x1 DUP2 PUSH1 0xA DUP2 GT ISZERO PUSH2 0xE3E JUMPI INVALID JUMPDEST EQ ISZERO PUSH2 0xE66 JUMPI PUSH22 0x50726F76696465724D6973736564446561646C696E65 PUSH1 0x50 SHL SWAP3 POP POP PUSH2 0xB22 JUMP JUMPDEST PUSH1 0x4 DUP2 PUSH1 0xA DUP2 GT ISZERO PUSH2 0xE74 JUMPI INVALID JUMPDEST EQ ISZERO PUSH2 0xE92 JUMPI PUSH12 0x57616974696E67436C61696D PUSH1 0xA0 SHL SWAP3 POP POP PUSH2 0xB22 JUMP JUMPDEST PUSH1 0x6 DUP2 PUSH1 0xA DUP2 GT ISZERO PUSH2 0xEA0 JUMPI INVALID JUMPDEST EQ ISZERO PUSH2 0xECF JUMPI PUSH32 0x57616974696E67436F6E6669726D6174696F6E446561646C696E650000000000 SWAP3 POP POP PUSH2 0xB22 JUMP JUMPDEST PUSH1 0x7 DUP2 PUSH1 0xA DUP2 GT ISZERO PUSH2 0xEDD JUMPI INVALID JUMPDEST EQ ISZERO PUSH2 0xF05 JUMPI PUSH22 0x15D85A5D1A5B99D0DA185B1B195B99D954995CDD5B1D PUSH1 0x52 SHL SWAP3 POP POP PUSH2 0xB22 JUMP JUMPDEST PUSH1 0xA DUP2 PUSH1 0xA DUP2 GT ISZERO PUSH2 0xF13 JUMPI INVALID JUMPDEST EQ ISZERO PUSH2 0xF34 JUMPI PUSH15 0x10DBDB9CD95B9CDD5CD4995CDD5B1D PUSH1 0x8A SHL SWAP3 POP POP PUSH2 0xB22 JUMP JUMPDEST PUSH1 0x8 DUP2 PUSH1 0xA DUP2 GT ISZERO PUSH2 0xF42 JUMPI INVALID JUMPDEST EQ ISZERO PUSH2 0xF61 JUMPI PUSH13 0x21B430B63632B733B2B92BB7B7 PUSH1 0x99 SHL SWAP3 POP POP PUSH2 0xB22 JUMP JUMPDEST PUSH1 0x9 DUP2 PUSH1 0xA DUP2 GT ISZERO PUSH2 0xF6F JUMPI INVALID JUMPDEST EQ ISZERO PUSH2 0xF8B JUMPI PUSH10 0x21B630B4B6B2B92BB7B7 PUSH1 0xB1 SHL SWAP3 POP POP PUSH2 0xB22 JUMP JUMPDEST PUSH1 0x40 MLOAD PUSH3 0x461BCD PUSH1 0xE5 SHL DUP2 MSTORE PUSH1 0x4 ADD PUSH2 0x47A SWAP1 PUSH2 0x595E JUMP JUMPDEST PUSH1 0x60 DUP1 PUSH1 0x60 DUP1 PUSH1 0x60 PUSH2 0xFB3 PUSH2 0x497F JUMP JUMPDEST PUSH1 0x0 DUP9 DUP1 PUSH1 0x0 SLOAD GT PUSH2 0xFFA JUMPI PUSH1 0x40 DUP1 MLOAD PUSH3 0x461BCD PUSH1 0xE5 SHL DUP2 MSTORE PUSH1 0x20 PUSH1 0x4 DUP3 ADD MSTORE PUSH1 0x16 PUSH1 0x24 DUP3 ADD MSTORE PUSH1 0x0 DUP1 MLOAD PUSH1 0x20 PUSH2 0x5F3C DUP4 CODECOPY DUP2 MLOAD SWAP2 MSTORE PUSH1 0x44 DUP3 ADD MSTORE SWAP1 MLOAD SWAP1 DUP2 SWAP1 SUB PUSH1 0x64 ADD SWAP1 REVERT JUMPDEST PUSH1 0x0 DUP11 DUP2 MSTORE PUSH1 0x6 PUSH1 0x20 SWAP1 DUP2 MSTORE PUSH1 0x40 DUP1 DUP4 KECCAK256 PUSH1 0x1 PUSH1 0x1 PUSH1 0xA0 SHL SUB DUP14 AND DUP5 MSTORE PUSH1 0xF DUP2 ADD DUP4 MSTORE SWAP3 DUP2 SWAP1 KECCAK256 DUP2 MLOAD PUSH1 0x80 DUP1 DUP3 ADD DUP5 MSTORE SWAP2 SLOAD PUSH1 0xFF DUP1 DUP3 AND ISZERO ISZERO DUP4 MSTORE PUSH2 0x100 DUP3 DIV DUP2 AND ISZERO ISZERO DUP4 DUP8 ADD MSTORE PUSH3 0x10000 DUP3 DIV AND ISZERO ISZERO DUP3 DUP6 ADD MSTORE PUSH4 0x1000000 SWAP1 DIV PUSH1 0x1 PUSH1 0x1 PUSH1 0x40 SHL SUB AND PUSH1 0x60 DUP1 DUP4 ADD SWAP2 SWAP1 SWAP2 MSTORE DUP4 MLOAD PUSH1 0x4 DUP1 DUP3 MSTORE PUSH1 0xA0 DUP3 ADD SWAP1 SWAP6 MSTORE SWAP2 SWAP9 POP SWAP4 SWAP1 SWAP3 SWAP2 SWAP1 DUP4 ADD SWAP1 DUP1 CALLDATASIZE DUP4 CALLDATACOPY ADD SWAP1 POP POP SWAP1 POP DUP2 PUSH1 0x3 ADD SLOAD DUP2 PUSH1 0x0 DUP2 MLOAD DUP2 LT PUSH2 0x109D JUMPI INVALID JUMPDEST PUSH1 0x20 MUL PUSH1 0x20 ADD ADD DUP2 DUP2 MSTORE POP POP PUSH2 0x10B2 DUP13 PUSH2 0x44C2 JUMP JUMPDEST DUP3 PUSH1 0x6 ADD SLOAD ADD DUP2 PUSH1 0x1 DUP2 MLOAD DUP2 LT PUSH2 0x10C5 JUMPI INVALID JUMPDEST PUSH1 0x20 SWAP1 DUP2 MUL SWAP2 SWAP1 SWAP2 ADD ADD MSTORE PUSH1 0x4 DUP3 ADD SLOAD DUP2 MLOAD PUSH1 0x1 PUSH1 0x1 PUSH1 0x40 SHL SUB SWAP1 SWAP2 AND SWAP1 DUP3 SWAP1 PUSH1 0x2 SWAP1 DUP2 LT PUSH2 0x10F0 JUMPI INVALID JUMPDEST PUSH1 0x20 MUL PUSH1 0x20 ADD ADD DUP2 DUP2 MSTORE POP POP DUP2 PUSH1 0x4 ADD PUSH1 0x8 SWAP1 SLOAD SWAP1 PUSH2 0x100 EXP SWAP1 DIV PUSH1 0xFF AND PUSH1 0xFF AND DUP2 PUSH1 0x3 DUP2 MLOAD DUP2 LT PUSH2 0x111E JUMPI INVALID JUMPDEST PUSH1 0x20 SWAP1 DUP2 MUL SWAP2 SWAP1 SWAP2 ADD ADD MSTORE PUSH1 0x40 DUP1 MLOAD PUSH1 0x2 DUP1 DUP3 MSTORE PUSH1 0x60 DUP3 DUP2 ADD SWAP1 SWAP4 MSTORE DUP2 PUSH1 0x20 ADD PUSH1 0x20 DUP3 MUL DUP1 CALLDATASIZE DUP4 CALLDATACOPY ADD SWAP1 POP POP PUSH1 0xE DUP5 ADD SLOAD SWAP1 SWAP2 POP PUSH1 0x1 PUSH1 0x40 SHL SWAP1 DIV PUSH1 0x1 PUSH1 0x1 PUSH1 0x40 SHL SUB AND ISZERO PUSH2 0x11CF JUMPI PUSH1 0xE DUP4 ADD SLOAD PUSH1 0xC DUP5 ADD DUP1 SLOAD SWAP1 SWAP2 PUSH1 0x1 PUSH1 0x40 SHL SWAP1 DIV PUSH1 0x1 PUSH1 0x1 PUSH1 0x40 SHL SUB AND SWAP1 DUP2 LT PUSH2 0x118D JUMPI INVALID JUMPDEST PUSH1 0x0 SWAP2 DUP3 MSTORE PUSH1 0x20 DUP3 KECCAK256 ADD SLOAD DUP3 MLOAD PUSH1 0x1 PUSH1 0x1 PUSH1 0xA0 SHL SUB SWAP1 SWAP2 AND SWAP2 DUP4 SWAP2 PUSH2 0x11AE JUMPI INVALID JUMPDEST PUSH1 0x20 MUL PUSH1 0x20 ADD ADD SWAP1 PUSH1 0x1 PUSH1 0x1 PUSH1 0xA0 SHL SUB AND SWAP1 DUP2 PUSH1 0x1 PUSH1 0x1 PUSH1 0xA0 SHL SUB AND DUP2 MSTORE POP POP JUMPDEST PUSH1 0xE DUP4 ADD SLOAD PUSH1 0xC DUP5 ADD DUP1 SLOAD SWAP1 SWAP2 PUSH1 0x1 PUSH1 0x1 PUSH1 0x40 SHL SUB AND SWAP1 DUP2 LT PUSH2 0x11EE JUMPI INVALID JUMPDEST SWAP1 PUSH1 0x0 MSTORE PUSH1 0x20 PUSH1 0x0 KECCAK256 ADD PUSH1 0x0 SWAP1 SLOAD SWAP1 PUSH2 0x100 EXP SWAP1 DIV PUSH1 0x1 PUSH1 0x1 PUSH1 0xA0 SHL SUB AND DUP2 PUSH1 0x1 DUP2 MLOAD DUP2 LT PUSH2 0x1219 JUMPI INVALID JUMPDEST PUSH1 0x1 PUSH1 0x1 PUSH1 0xA0 SHL SUB SWAP3 SWAP1 SWAP3 AND PUSH1 0x20 SWAP3 DUP4 MUL SWAP2 SWAP1 SWAP2 ADD DUP3 ADD MSTORE PUSH1 0x40 DUP1 MLOAD PUSH1 0x4 DUP1 DUP3 MSTORE PUSH1 0xA0 DUP3 ADD SWAP1 SWAP3 MSTORE PUSH1 0x60 SWAP3 SWAP1 SWAP2 SWAP1 DUP3 ADD PUSH1 0x80 DUP1 CALLDATASIZE DUP4 CALLDATACOPY ADD SWAP1 POP POP SWAP1 POP DUP4 PUSH1 0x8 ADD SLOAD DUP2 PUSH1 0x0 DUP2 MLOAD DUP2 LT PUSH2 0x1267 JUMPI INVALID JUMPDEST PUSH1 0x20 MUL PUSH1 0x20 ADD ADD DUP2 DUP2 MSTORE POP POP DUP4 PUSH1 0x9 ADD SLOAD DUP2 PUSH1 0x1 DUP2 MLOAD DUP2 LT PUSH2 0x1285 JUMPI INVALID JUMPDEST PUSH1 0x20 MUL PUSH1 0x20 ADD ADD DUP2 DUP2 MSTORE POP POP DUP4 PUSH1 0xA ADD SLOAD DUP2 PUSH1 0x2 DUP2 MLOAD DUP2 LT PUSH2 0x12A3 JUMPI INVALID JUMPDEST PUSH1 0x20 MUL PUSH1 0x20 ADD ADD DUP2 DUP2 MSTORE POP POP PUSH2 0x12B8 DUP15 PUSH2 0xD0C JUMP JUMPDEST DUP2 PUSH1 0x3 DUP2 MLOAD DUP2 LT PUSH2 0x12C5 JUMPI INVALID JUMPDEST PUSH1 0x20 SWAP1 DUP2 MUL SWAP2 SWAP1 SWAP2 ADD ADD MSTORE PUSH1 0x0 PUSH1 0x10 DUP6 ADD SLOAD PUSH1 0xFF AND PUSH1 0xA DUP2 GT ISZERO PUSH2 0x12E5 JUMPI INVALID JUMPDEST EQ ISZERO PUSH2 0x15EA JUMPI PUSH1 0x40 DUP1 MLOAD PUSH1 0x1 DUP1 DUP3 MSTORE DUP2 DUP4 ADD SWAP1 SWAP3 MSTORE PUSH1 0x60 SWAP2 DUP2 PUSH1 0x20 ADD JUMPDEST PUSH2 0x130A PUSH2 0x49A6 JUMP JUMPDEST DUP2 MSTORE PUSH1 0x20 ADD SWAP1 PUSH1 0x1 SWAP1 SUB SWAP1 DUP2 PUSH2 0x1302 JUMPI SWAP1 POP POP SWAP1 POP DUP5 PUSH1 0x14 ADD DUP6 PUSH1 0x12 ADD DUP7 PUSH1 0x2 ADD SLOAD DUP2 SLOAD DUP2 LT PUSH2 0x1336 JUMPI INVALID JUMPDEST SWAP1 PUSH1 0x0 MSTORE PUSH1 0x20 PUSH1 0x0 KECCAK256 ADD SLOAD DUP2 SLOAD DUP2 LT PUSH2 0x134B JUMPI INVALID JUMPDEST PUSH1 0x0 SWAP2 DUP3 MSTORE PUSH1 0x20 SWAP2 DUP3 SWAP1 KECCAK256 PUSH1 0x40 DUP1 MLOAD PUSH2 0x120 DUP2 ADD DUP3 MSTORE PUSH1 0x5 SWAP4 SWAP1 SWAP4 MUL SWAP1 SWAP2 ADD DUP1 SLOAD PUSH1 0x1 PUSH1 0x1 PUSH1 0x40 SHL SUB DUP2 AND DUP5 MSTORE PUSH1 0x1 PUSH1 0x40 SHL SWAP1 DIV PUSH1 0xFF AND DUP4 DUP6 ADD MSTORE PUSH1 0x1 DUP1 DUP3 ADD DUP1 SLOAD DUP5 MLOAD PUSH1 0x2 PUSH2 0x100 SWAP5 DUP4 AND ISZERO SWAP5 SWAP1 SWAP5 MUL PUSH1 0x0 NOT ADD SWAP1 SWAP2 AND SWAP3 SWAP1 SWAP3 DIV PUSH1 0x1F DUP2 ADD DUP8 SWAP1 DIV DUP8 MUL DUP4 ADD DUP8 ADD DUP6 MSTORE DUP1 DUP4 MSTORE SWAP5 SWAP6 SWAP3 SWAP5 SWAP4 DUP7 ADD SWAP4 SWAP2 SWAP3 SWAP1 SWAP2 SWAP1 DUP4 ADD DUP3 DUP3 DUP1 ISZERO PUSH2 0x1417 JUMPI DUP1 PUSH1 0x1F LT PUSH2 0x13EC JUMPI PUSH2 0x100 DUP1 DUP4 SLOAD DIV MUL DUP4 MSTORE SWAP2 PUSH1 0x20 ADD SWAP2 PUSH2 0x1417 JUMP JUMPDEST DUP3 ADD SWAP2 SWAP1 PUSH1 0x0 MSTORE PUSH1 0x20 PUSH1 0x0 KECCAK256 SWAP1 JUMPDEST DUP2 SLOAD DUP2 MSTORE SWAP1 PUSH1 0x1 ADD SWAP1 PUSH1 0x20 ADD DUP1 DUP4 GT PUSH2 0x13FA JUMPI DUP3 SWAP1 SUB PUSH1 0x1F AND DUP3 ADD SWAP2 JUMPDEST POP POP POP SWAP2 DUP4 MSTORE POP POP PUSH1 0x2 DUP3 DUP2 ADD DUP1 SLOAD PUSH1 0x40 DUP1 MLOAD PUSH1 0x20 PUSH1 0x1 DUP5 AND ISZERO PUSH2 0x100 MUL PUSH1 0x0 NOT ADD SWAP1 SWAP4 AND SWAP5 SWAP1 SWAP5 DIV PUSH1 0x1F DUP2 ADD DUP4 SWAP1 DIV DUP4 MUL DUP6 ADD DUP4 ADD SWAP1 SWAP2 MSTORE DUP1 DUP5 MSTORE SWAP4 DUP2 ADD SWAP4 SWAP1 DUP4 ADD DUP3 DUP3 DUP1 ISZERO PUSH2 0x14A9 JUMPI DUP1 PUSH1 0x1F LT PUSH2 0x147E JUMPI PUSH2 0x100 DUP1 DUP4 SLOAD DIV MUL DUP4 MSTORE SWAP2 PUSH1 0x20 ADD SWAP2 PUSH2 0x14A9 JUMP JUMPDEST DUP3 ADD SWAP2 SWAP1 PUSH1 0x0 MSTORE PUSH1 0x20 PUSH1 0x0 KECCAK256 SWAP1 JUMPDEST DUP2 SLOAD DUP2 MSTORE SWAP1 PUSH1 0x1 ADD SWAP1 PUSH1 0x20 ADD DUP1 DUP4 GT PUSH2 0x148C JUMPI DUP3 SWAP1 SUB PUSH1 0x1F AND DUP3 ADD SWAP2 JUMPDEST POP POP POP SWAP2 DUP4 MSTORE POP POP PUSH1 0x3 DUP3 ADD SLOAD PUSH1 0x20 DUP3 ADD MSTORE PUSH1 0x4 SWAP1 SWAP2 ADD SLOAD PUSH1 0x1 PUSH1 0x1 PUSH1 0xA0 SHL SUB DUP2 AND PUSH1 0x40 DUP4 ADD MSTORE PUSH1 0xFF PUSH1 0x1 PUSH1 0xA0 SHL DUP3 DIV DUP2 AND ISZERO ISZERO PUSH1 0x60 DUP5 ADD MSTORE PUSH1 0x1 PUSH1 0xA8 SHL DUP3 DIV DUP2 AND ISZERO ISZERO PUSH1 0x80 DUP5 ADD MSTORE PUSH1 0x1 PUSH1 0xB0 SHL SWAP1 SWAP2 DIV AND ISZERO ISZERO PUSH1 0xA0 SWAP1 SWAP2 ADD MSTORE DUP2 MLOAD DUP3 SWAP1 PUSH1 0x0 SWAP1 PUSH2 0x1510 JUMPI INVALID JUMPDEST PUSH1 0x20 MUL PUSH1 0x20 ADD ADD DUP2 SWAP1 MSTORE POP DUP4 DUP4 DUP4 DUP8 PUSH1 0xB ADD DUP5 DUP13 DUP11 PUSH1 0x15 ADD PUSH1 0x0 SWAP1 SLOAD SWAP1 PUSH2 0x100 EXP SWAP1 DIV PUSH1 0xFF AND DUP4 DUP1 SLOAD PUSH1 0x1 DUP2 PUSH1 0x1 AND ISZERO PUSH2 0x100 MUL SUB AND PUSH1 0x2 SWAP1 DIV DUP1 PUSH1 0x1F ADD PUSH1 0x20 DUP1 SWAP2 DIV MUL PUSH1 0x20 ADD PUSH1 0x40 MLOAD SWAP1 DUP2 ADD PUSH1 0x40 MSTORE DUP1 SWAP3 SWAP2 SWAP1 DUP2 DUP2 MSTORE PUSH1 0x20 ADD DUP3 DUP1 SLOAD PUSH1 0x1 DUP2 PUSH1 0x1 AND ISZERO PUSH2 0x100 MUL SUB AND PUSH1 0x2 SWAP1 DIV DUP1 ISZERO PUSH2 0x15CB JUMPI DUP1 PUSH1 0x1F LT PUSH2 0x15A0 JUMPI PUSH2 0x100 DUP1 DUP4 SLOAD DIV MUL DUP4 MSTORE SWAP2 PUSH1 0x20 ADD SWAP2 PUSH2 0x15CB JUMP JUMPDEST DUP3 ADD SWAP2 SWAP1 PUSH1 0x0 MSTORE PUSH1 0x20 PUSH1 0x0 KECCAK256 SWAP1 JUMPDEST DUP2 SLOAD DUP2 MSTORE SWAP1 PUSH1 0x1 ADD SWAP1 PUSH1 0x20 ADD DUP1 DUP4 GT PUSH2 0x15AE JUMPI DUP3 SWAP1 SUB PUSH1 0x1F AND DUP3 ADD SWAP2 JUMPDEST POP POP POP POP POP SWAP4 POP SWAP13 POP SWAP13 POP SWAP13 POP SWAP13 POP SWAP13 POP SWAP13 POP SWAP13 POP POP POP POP POP POP PUSH2 0x19DB JUMP JUMPDEST PUSH1 0x3 PUSH1 0x10 DUP6 ADD SLOAD PUSH1 0xFF AND PUSH1 0xA DUP2 GT ISZERO PUSH2 0x15FF JUMPI INVALID JUMPDEST EQ ISZERO PUSH2 0x1650 JUMPI PUSH1 0x40 DUP1 MLOAD PUSH1 0x1 DUP1 DUP3 MSTORE DUP2 DUP4 ADD SWAP1 SWAP3 MSTORE PUSH1 0x60 SWAP2 DUP2 PUSH1 0x20 ADD JUMPDEST PUSH2 0x1624 PUSH2 0x49A6 JUMP JUMPDEST DUP2 MSTORE PUSH1 0x20 ADD SWAP1 PUSH1 0x1 SWAP1 SUB SWAP1 DUP2 PUSH2 0x161C JUMPI SWAP1 POP POP SWAP1 POP DUP5 PUSH1 0x14 ADD DUP6 PUSH1 0x11 ADD DUP7 PUSH1 0x1 ADD SLOAD DUP2 SLOAD DUP2 LT PUSH2 0x1336 JUMPI INVALID JUMPDEST PUSH1 0x1 PUSH1 0x10 DUP6 ADD SLOAD PUSH1 0xFF AND PUSH1 0xA DUP2 GT ISZERO PUSH2 0x1665 JUMPI INVALID JUMPDEST EQ ISZERO PUSH2 0x1726 JUMPI PUSH1 0x40 DUP1 MLOAD PUSH1 0x0 DUP1 DUP3 MSTORE PUSH1 0x20 DUP3 ADD SWAP1 SWAP3 MSTORE PUSH1 0x60 SWAP2 PUSH2 0x169E JUMP JUMPDEST PUSH2 0x168B PUSH2 0x49A6 JUMP JUMPDEST DUP2 MSTORE PUSH1 0x20 ADD SWAP1 PUSH1 0x1 SWAP1 SUB SWAP1 DUP2 PUSH2 0x1683 JUMPI SWAP1 POP JUMPDEST POP SWAP1 POP DUP4 DUP4 DUP4 DUP8 PUSH1 0xB ADD DUP5 DUP13 DUP11 PUSH1 0x15 ADD PUSH1 0x0 SWAP1 SLOAD SWAP1 PUSH2 0x100 EXP SWAP1 DIV PUSH1 0xFF AND DUP4 DUP1 SLOAD PUSH1 0x1 DUP2 PUSH1 0x1 AND ISZERO PUSH2 0x100 MUL SUB AND PUSH1 0x2 SWAP1 DIV DUP1 PUSH1 0x1F ADD PUSH1 0x20 DUP1 SWAP2 DIV MUL PUSH1 0x20 ADD PUSH1 0x40 MLOAD SWAP1 DUP2 ADD PUSH1 0x40 MSTORE DUP1 SWAP3 SWAP2 SWAP1 DUP2 DUP2 MSTORE PUSH1 0x20 ADD DUP3 DUP1 SLOAD PUSH1 0x1 DUP2 PUSH1 0x1 AND ISZERO PUSH2 0x100 MUL SUB AND PUSH1 0x2 SWAP1 DIV DUP1 ISZERO PUSH2 0x15CB JUMPI DUP1 PUSH1 0x1F LT PUSH2 0x15A0 JUMPI PUSH2 0x100 DUP1 DUP4 SLOAD DIV MUL DUP4 MSTORE SWAP2 PUSH1 0x20 ADD SWAP2 PUSH2 0x15CB JUMP JUMPDEST PUSH1 0x15 DUP5 ADD SLOAD PUSH1 0xB DUP6 ADD DUP1 SLOAD PUSH1 0x40 DUP1 MLOAD PUSH1 0x20 PUSH1 0x2 PUSH2 0x100 PUSH1 0x1 DUP7 AND ISZERO MUL PUSH1 0x0 NOT ADD SWAP1 SWAP5 AND SWAP4 SWAP1 SWAP4 DIV PUSH1 0x1F DUP2 ADD DUP5 SWAP1 DIV DUP5 MUL DUP3 ADD DUP5 ADD SWAP1 SWAP3 MSTORE DUP2 DUP2 MSTORE DUP8 SWAP5 DUP8 SWAP5 DUP8 SWAP5 SWAP1 SWAP4 PUSH1 0x14 DUP13 ADD SWAP4 DUP16 SWAP4 PUSH1 0xFF AND SWAP3 SWAP1 SWAP2 DUP7 SWAP2 DUP4 ADD DUP3 DUP3 DUP1 ISZERO PUSH2 0x17C8 JUMPI DUP1 PUSH1 0x1F LT PUSH2 0x179D JUMPI PUSH2 0x100 DUP1 DUP4 SLOAD DIV MUL DUP4 MSTORE SWAP2 PUSH1 0x20 ADD SWAP2 PUSH2 0x17C8 JUMP JUMPDEST DUP3 ADD SWAP2 SWAP1 PUSH1 0x0 MSTORE PUSH1 0x20 PUSH1 0x0 KECCAK256 SWAP1 JUMPDEST DUP2 SLOAD DUP2 MSTORE SWAP1 PUSH1 0x1 ADD SWAP1 PUSH1 0x20 ADD DUP1 DUP4 GT PUSH2 0x17AB JUMPI DUP3 SWAP1 SUB PUSH1 0x1F AND DUP3 ADD SWAP2 JUMPDEST POP POP POP POP POP SWAP4 POP DUP3 DUP1 SLOAD DUP1 PUSH1 0x20 MUL PUSH1 0x20 ADD PUSH1 0x40 MLOAD SWAP1 DUP2 ADD PUSH1 0x40 MSTORE DUP1 SWAP3 SWAP2 SWAP1 DUP2 DUP2 MSTORE PUSH1 0x20 ADD PUSH1 0x0 SWAP1 JUMPDEST DUP3 DUP3 LT ISZERO PUSH2 0x19C2 JUMPI PUSH1 0x0 DUP5 DUP2 MSTORE PUSH1 0x20 SWAP1 DUP2 SWAP1 KECCAK256 PUSH1 0x40 DUP1 MLOAD PUSH2 0x120 DUP2 ADD DUP3 MSTORE PUSH1 0x5 DUP7 MUL SWAP1 SWAP3 ADD DUP1 SLOAD PUSH1 0x1 PUSH1 0x1 PUSH1 0x40 SHL SUB DUP2 AND DUP5 MSTORE PUSH1 0x1 PUSH1 0x40 SHL SWAP1 DIV PUSH1 0xFF AND DUP4 DUP6 ADD MSTORE PUSH1 0x1 DUP1 DUP3 ADD DUP1 SLOAD DUP5 MLOAD PUSH1 0x2 PUSH2 0x100 SWAP5 DUP4 AND ISZERO SWAP5 SWAP1 SWAP5 MUL PUSH1 0x0 NOT ADD SWAP1 SWAP2 AND SWAP3 SWAP1 SWAP3 DIV PUSH1 0x1F DUP2 ADD DUP8 SWAP1 DIV DUP8 MUL DUP4 ADD DUP8 ADD DUP6 MSTORE DUP1 DUP4 MSTORE SWAP5 SWAP6 SWAP3 SWAP5 SWAP4 DUP7 ADD SWAP4 SWAP2 SWAP3 SWAP1 SWAP2 SWAP1 DUP4 ADD DUP3 DUP3 DUP1 ISZERO PUSH2 0x18C2 JUMPI DUP1 PUSH1 0x1F LT PUSH2 0x1897 JUMPI PUSH2 0x100 DUP1 DUP4 SLOAD DIV MUL DUP4 MSTORE SWAP2 PUSH1 0x20 ADD SWAP2 PUSH2 0x18C2 JUMP JUMPDEST DUP3 ADD SWAP2 SWAP1 PUSH1 0x0 MSTORE PUSH1 0x20 PUSH1 0x0 KECCAK256 SWAP1 JUMPDEST DUP2 SLOAD DUP2 MSTORE SWAP1 PUSH1 0x1 ADD SWAP1 PUSH1 0x20 ADD DUP1 DUP4 GT PUSH2 0x18A5 JUMPI DUP3 SWAP1 SUB PUSH1 0x1F AND DUP3 ADD SWAP2 JUMPDEST POP POP POP SWAP2 DUP4 MSTORE POP POP PUSH1 0x2 DUP3 DUP2 ADD DUP1 SLOAD PUSH1 0x40 DUP1 MLOAD PUSH1 0x20 PUSH1 0x1 DUP5 AND ISZERO PUSH2 0x100 MUL PUSH1 0x0 NOT ADD SWAP1 SWAP4 AND SWAP5 SWAP1 SWAP5 DIV PUSH1 0x1F DUP2 ADD DUP4 SWAP1 DIV DUP4 MUL DUP6 ADD DUP4 ADD SWAP1 SWAP2 MSTORE DUP1 DUP5 MSTORE SWAP4 DUP2 ADD SWAP4 SWAP1 DUP4 ADD DUP3 DUP3 DUP1 ISZERO PUSH2 0x1954 JUMPI DUP1 PUSH1 0x1F LT PUSH2 0x1929 JUMPI PUSH2 0x100 DUP1 DUP4 SLOAD DIV MUL DUP4 MSTORE SWAP2 PUSH1 0x20 ADD SWAP2 PUSH2 0x1954 JUMP JUMPDEST DUP3 ADD SWAP2 SWAP1 PUSH1 0x0 MSTORE PUSH1 0x20 PUSH1 0x0 KECCAK256 SWAP1 JUMPDEST DUP2 SLOAD DUP2 MSTORE SWAP1 PUSH1 0x1 ADD SWAP1 PUSH1 0x20 ADD DUP1 DUP4 GT PUSH2 0x1937 JUMPI DUP3 SWAP1 SUB PUSH1 0x1F AND DUP3 ADD SWAP2 JUMPDEST POP POP POP SWAP2 DUP4 MSTORE POP POP PUSH1 0x3 DUP3 ADD SLOAD PUSH1 0x20 DUP1 DUP4 ADD SWAP2 SWAP1 SWAP2 MSTORE PUSH1 0x4 SWAP1 SWAP3 ADD SLOAD PUSH1 0x1 PUSH1 0x1 PUSH1 0xA0 SHL SUB DUP2 AND PUSH1 0x40 DUP4 ADD MSTORE PUSH1 0xFF PUSH1 0x1 PUSH1 0xA0 SHL DUP3 DIV DUP2 AND ISZERO ISZERO PUSH1 0x60 DUP5 ADD MSTORE PUSH1 0x1 PUSH1 0xA8 SHL DUP3 DIV DUP2 AND ISZERO ISZERO PUSH1 0x80 DUP5 ADD MSTORE PUSH1 0x1 PUSH1 0xB0 SHL SWAP1 SWAP2 DIV AND ISZERO ISZERO PUSH1 0xA0 SWAP1 SWAP2 ADD MSTORE SWAP1 DUP3 MSTORE PUSH1 0x1 SWAP3 SWAP1 SWAP3 ADD SWAP2 ADD PUSH2 0x17F0 JUMP JUMPDEST POP POP POP POP SWAP3 POP SWAP12 POP SWAP12 POP SWAP12 POP SWAP12 POP SWAP12 POP SWAP12 POP SWAP12 POP POP POP POP POP JUMPDEST POP SWAP3 SWAP6 SWAP9 SWAP2 SWAP5 SWAP8 POP SWAP3 SWAP6 POP JUMP JUMPDEST PUSH1 0x0 DUP2 DUP2 MSTORE PUSH1 0x1 PUSH1 0x20 MSTORE PUSH1 0x40 SWAP1 KECCAK256 SLOAD PUSH1 0xFF AND JUMPDEST SWAP2 SWAP1 POP JUMP JUMPDEST PUSH1 0x0 DUP1 PUSH1 0x0 PUSH1 0x60 DUP5 DUP1 PUSH1 0x0 SLOAD GT PUSH2 0x1A4C JUMPI PUSH1 0x40 DUP1 MLOAD PUSH3 0x461BCD PUSH1 0xE5 SHL DUP2 MSTORE PUSH1 0x20 PUSH1 0x4 DUP3 ADD MSTORE PUSH1 0x16 PUSH1 0x24 DUP3 ADD MSTORE PUSH1 0x0 DUP1 MLOAD PUSH1 0x20 PUSH2 0x5F3C DUP4 CODECOPY DUP2 MLOAD SWAP2 MSTORE PUSH1 0x44 DUP3 ADD MSTORE SWAP1 MLOAD SWAP1 DUP2 SWAP1 SUB PUSH1 0x64 ADD SWAP1 REVERT JUMPDEST PUSH1 0x0 DUP7 DUP2 MSTORE PUSH1 0x6 PUSH1 0x20 MSTORE PUSH1 0x40 SWAP1 KECCAK256 PUSH1 0xA PUSH1 0x10 DUP3 ADD SLOAD PUSH1 0xFF AND PUSH1 0xA DUP2 GT ISZERO PUSH2 0x1A6F JUMPI INVALID JUMPDEST EQ ISZERO PUSH2 0x1B28 JUMPI PUSH1 0x1 PUSH1 0x0 DUP1 DUP4 PUSH1 0xB ADD DUP1 DUP1 SLOAD PUSH1 0x1 DUP2 PUSH1 0x1 AND ISZERO PUSH2 0x100 MUL SUB AND PUSH1 0x2 SWAP1 DIV DUP1 PUSH1 0x1F ADD PUSH1 0x20 DUP1 SWAP2 DIV MUL PUSH1 0x20 ADD PUSH1 0x40 MLOAD SWAP1 DUP2 ADD PUSH1 0x40 MSTORE DUP1 SWAP3 SWAP2 SWAP1 DUP2 DUP2 MSTORE PUSH1 0x20 ADD DUP3 DUP1 SLOAD PUSH1 0x1 DUP2 PUSH1 0x1 AND ISZERO PUSH2 0x100 MUL SUB AND PUSH1 0x2 SWAP1 DIV DUP1 ISZERO PUSH2 0x1B13 JUMPI DUP1 PUSH1 0x1F LT PUSH2 0x1AE8 JUMPI PUSH2 0x100 DUP1 DUP4 SLOAD DIV MUL DUP4 MSTORE SWAP2 PUSH1 0x20 ADD SWAP2 PUSH2 0x1B13 JUMP JUMPDEST DUP3 ADD SWAP2 SWAP1 PUSH1 0x0 MSTORE PUSH1 0x20 PUSH1 0x0 KECCAK256 SWAP1 JUMPDEST DUP2 SLOAD DUP2 MSTORE SWAP1 PUSH1 0x1 ADD SWAP1 PUSH1 0x20 ADD DUP1 DUP4 GT PUSH2 0x1AF6 JUMPI DUP3 SWAP1 SUB PUSH1 0x1F AND DUP3 ADD SWAP2 JUMPDEST POP POP POP POP POP SWAP1 POP SWAP6 POP SWAP6 POP SWAP6 POP SWAP6 POP POP PUSH2 0x1DEE JUMP JUMPDEST PUSH1 0x0 PUSH1 0x10 DUP3 ADD SLOAD PUSH1 0xFF AND PUSH1 0xA DUP2 GT ISZERO PUSH2 0x1B3D JUMPI INVALID JUMPDEST EQ DUP1 PUSH2 0x1B5B JUMPI POP PUSH1 0x2 PUSH1 0x10 DUP3 ADD SLOAD PUSH1 0xFF AND PUSH1 0xA DUP2 GT ISZERO PUSH2 0x1B59 JUMPI INVALID JUMPDEST EQ JUMPDEST DUP1 PUSH2 0x1B78 JUMPI POP PUSH1 0x4 PUSH1 0x10 DUP3 ADD SLOAD PUSH1 0xFF AND PUSH1 0xA DUP2 GT ISZERO PUSH2 0x1B76 JUMPI INVALID JUMPDEST EQ JUMPDEST DUP1 PUSH2 0x1B95 JUMPI POP PUSH1 0x6 PUSH1 0x10 DUP3 ADD SLOAD PUSH1 0xFF AND PUSH1 0xA DUP2 GT ISZERO PUSH2 0x1B93 JUMPI INVALID JUMPDEST EQ JUMPDEST DUP1 PUSH2 0x1BB2 JUMPI POP PUSH1 0x7 PUSH1 0x10 DUP3 ADD SLOAD PUSH1 0xFF AND PUSH1 0xA DUP2 GT ISZERO PUSH2 0x1BB0 JUMPI INVALID JUMPDEST EQ JUMPDEST DUP1 PUSH2 0x1BCF JUMPI POP PUSH1 0x3 PUSH1 0x10 DUP3 ADD SLOAD PUSH1 0xFF AND PUSH1 0xA DUP2 GT ISZERO PUSH2 0x1BCD JUMPI INVALID JUMPDEST EQ JUMPDEST ISZERO PUSH2 0x1BF8 JUMPI PUSH1 0x0 PUSH1 0x1 PUSH1 0x0 PUSH1 0x40 MLOAD DUP1 PUSH1 0x20 ADD PUSH1 0x40 MSTORE DUP1 PUSH1 0x0 DUP2 MSTORE POP SWAP6 POP SWAP6 POP SWAP6 POP SWAP6 POP POP PUSH2 0x1DEE JUMP JUMPDEST PUSH1 0x1 PUSH1 0x10 DUP3 ADD SLOAD PUSH1 0xFF AND PUSH1 0xA DUP2 GT ISZERO PUSH2 0x1C0D JUMPI INVALID JUMPDEST EQ ISZERO PUSH2 0x1D10 JUMPI PUSH1 0x0 DUP8 DUP2 MSTORE PUSH1 0x6 PUSH1 0x20 MSTORE PUSH1 0x40 DUP2 KECCAK256 PUSH1 0x12 DUP2 ADD SLOAD PUSH1 0x2 SWAP1 SWAP2 ADD SLOAD LT ISZERO PUSH2 0x1C82 JUMPI DUP2 PUSH1 0x14 ADD DUP3 PUSH1 0x12 ADD DUP4 PUSH1 0x2 ADD SLOAD DUP2 SLOAD DUP2 LT PUSH2 0x1C49 JUMPI INVALID JUMPDEST SWAP1 PUSH1 0x0 MSTORE PUSH1 0x20 PUSH1 0x0 KECCAK256 ADD SLOAD DUP2 SLOAD DUP2 LT PUSH2 0x1C5E JUMPI INVALID JUMPDEST PUSH1 0x0 SWAP2 DUP3 MSTORE PUSH1 0x20 SWAP1 SWAP2 KECCAK256 PUSH1 0x4 PUSH1 0x5 SWAP1 SWAP3 MUL ADD ADD SLOAD PUSH1 0x1 PUSH1 0x1 PUSH1 0xA0 SHL SUB AND SWAP1 POP PUSH2 0x1CED JUMP JUMPDEST PUSH1 0x0 DUP9 DUP2 MSTORE PUSH1 0x6 PUSH1 0x20 MSTORE PUSH1 0x40 SWAP1 KECCAK256 PUSH1 0x11 DUP2 ADD SLOAD PUSH1 0x1 SWAP1 SWAP2 ADD SLOAD LT ISZERO PUSH2 0x1CED JUMPI DUP2 PUSH1 0x14 ADD DUP3 PUSH1 0x11 ADD DUP4 PUSH1 0x1 ADD SLOAD DUP2 SLOAD DUP2 LT PUSH2 0x1CB8 JUMPI INVALID JUMPDEST SWAP1 PUSH1 0x0 MSTORE PUSH1 0x20 PUSH1 0x0 KECCAK256 ADD SLOAD DUP2 SLOAD DUP2 LT PUSH2 0x1CCD JUMPI INVALID JUMPDEST PUSH1 0x0 SWAP2 DUP3 MSTORE PUSH1 0x20 SWAP1 SWAP2 KECCAK256 PUSH1 0x4 PUSH1 0x5 SWAP1 SWAP3 MUL ADD ADD SLOAD PUSH1 0x1 PUSH1 0x1 PUSH1 0xA0 SHL SUB AND SWAP1 POP JUMPDEST PUSH1 0x0 DUP1 DUP3 PUSH1 0x40 MLOAD DUP1 PUSH1 0x20 ADD PUSH1 0x40 MSTORE DUP1 PUSH1 0x0 DUP2 MSTORE POP SWAP7 POP SWAP7 POP SWAP7 POP SWAP7 POP POP POP PUSH2 0x1DEE JUMP JUMPDEST PUSH1 0x5 PUSH1 0x10 DUP3 ADD SLOAD PUSH1 0xFF AND PUSH1 0xA DUP2 GT ISZERO PUSH2 0x1D25 JUMPI INVALID JUMPDEST EQ DUP1 PUSH2 0x1D43 JUMPI POP PUSH1 0x8 PUSH1 0x10 DUP3 ADD SLOAD PUSH1 0xFF AND PUSH1 0xA DUP2 GT ISZERO PUSH2 0x1D41 JUMPI INVALID JUMPDEST EQ JUMPDEST ISZERO PUSH2 0x1DA1 JUMPI PUSH1 0xE DUP2 ADD SLOAD PUSH1 0xC DUP3 ADD DUP1 SLOAD PUSH1 0x0 SWAP3 DUP4 SWAP3 SWAP2 PUSH1 0x1 PUSH1 0x1 PUSH1 0x40 SHL SUB SWAP1 SWAP2 AND SWAP1 DUP2 LT PUSH2 0x1D6D JUMPI INVALID JUMPDEST PUSH1 0x0 SWAP2 DUP3 MSTORE PUSH1 0x20 DUP1 DUP4 KECCAK256 SWAP1 SWAP2 ADD SLOAD PUSH1 0x40 DUP1 MLOAD SWAP3 DUP4 ADD SWAP1 MSTORE SWAP2 DUP2 MSTORE SWAP3 SWAP9 POP SWAP1 SWAP7 POP PUSH1 0x1 PUSH1 0x1 PUSH1 0xA0 SHL SUB AND SWAP5 POP SWAP3 POP PUSH2 0x1DEE SWAP1 POP JUMP JUMPDEST PUSH1 0x9 PUSH1 0x10 DUP3 ADD SLOAD PUSH1 0xFF AND PUSH1 0xA DUP2 GT ISZERO PUSH2 0x1DB6 JUMPI INVALID JUMPDEST EQ ISZERO PUSH2 0xF8B JUMPI PUSH1 0x0 DUP1 DUP3 PUSH1 0xC ADD DUP4 PUSH1 0xE ADD PUSH1 0x8 SWAP1 SLOAD SWAP1 PUSH2 0x100 EXP SWAP1 DIV PUSH1 0x1 PUSH1 0x1 PUSH1 0x40 SHL SUB AND PUSH1 0x1 PUSH1 0x1 PUSH1 0x40 SHL SUB AND DUP2 SLOAD DUP2 LT PUSH2 0x1D6D JUMPI INVALID JUMPDEST POP SWAP2 SWAP4 POP SWAP2 SWAP4 JUMP JUMPDEST PUSH1 0x0 DUP1 PUSH1 0x0 DUP5 DUP1 PUSH1 0x0 SLOAD GT PUSH2 0x1E40 JUMPI PUSH1 0x40 DUP1 MLOAD PUSH3 0x461BCD PUSH1 0xE5 SHL DUP2 MSTORE PUSH1 0x20 PUSH1 0x4 DUP3 ADD MSTORE PUSH1 0x16 PUSH1 0x24 DUP3 ADD MSTORE PUSH1 0x0 DUP1 MLOAD PUSH1 0x20 PUSH2 0x5F3C DUP4 CODECOPY DUP2 MLOAD SWAP2 MSTORE PUSH1 0x44 DUP3 ADD MSTORE SWAP1 MLOAD SWAP1 DUP2 SWAP1 SUB PUSH1 0x64 ADD SWAP1 REVERT JUMPDEST POP POP POP PUSH1 0x0 SWAP3 DUP4 MSTORE POP PUSH1 0x6 PUSH1 0x20 SWAP1 DUP2 MSTORE PUSH1 0x40 DUP1 DUP5 KECCAK256 PUSH1 0x1 PUSH1 0x1 PUSH1 0xA0 SHL SUB SWAP1 SWAP4 AND DUP5 MSTORE PUSH1 0xF SWAP1 SWAP3 ADD SWAP1 MSTORE SWAP1 KECCAK256 SLOAD PUSH1 0xFF DUP1 DUP3 AND SWAP3 PUSH2 0x100 DUP4 DIV DUP3 AND SWAP3 PUSH3 0x10000 SWAP1 DIV SWAP1 SWAP2 AND SWAP1 JUMP JUMPDEST DUP1 DUP1 PUSH1 0x0 SLOAD GT PUSH2 0x1ECB JUMPI PUSH1 0x40 DUP1 MLOAD PUSH3 0x461BCD PUSH1 0xE5 SHL DUP2 MSTORE PUSH1 0x20 PUSH1 0x4 DUP3 ADD MSTORE PUSH1 0x16 PUSH1 0x24 DUP3 ADD MSTORE PUSH1 0x0 DUP1 MLOAD PUSH1 0x20 PUSH2 0x5F3C DUP4 CODECOPY DUP2 MLOAD SWAP2 MSTORE PUSH1 0x44 DUP3 ADD MSTORE SWAP1 MLOAD SWAP1 DUP2 SWAP1 SUB PUSH1 0x64 ADD SWAP1 REVERT JUMPDEST PUSH2 0x1ED4 DUP2 PUSH2 0x19E8 JUMP JUMPDEST PUSH2 0x1F16 JUMPI PUSH1 0x40 DUP1 MLOAD PUSH3 0x461BCD PUSH1 0xE5 SHL DUP2 MSTORE PUSH1 0x20 PUSH1 0x4 DUP3 ADD MSTORE PUSH1 0xE PUSH1 0x24 DUP3 ADD MSTORE PUSH14 0x496E64657820696E616374697665 PUSH1 0x90 SHL PUSH1 0x44 DUP3 ADD MSTORE SWAP1 MLOAD SWAP1 DUP2 SWAP1 SUB PUSH1 0x64 ADD SWAP1 REVERT JUMPDEST PUSH1 0x0 DUP3 DUP2 MSTORE PUSH1 0x6 PUSH1 0x20 SWAP1 DUP2 MSTORE PUSH1 0x40 DUP1 DUP4 KECCAK256 CALLER DUP5 MSTORE PUSH1 0xF DUP2 ADD SWAP1 SWAP3 MSTORE SWAP1 SWAP2 KECCAK256 SLOAD DUP4 SWAP2 SWAP1 PUSH1 0xFF AND PUSH2 0x1F57 JUMPI PUSH1 0x40 MLOAD PUSH3 0x461BCD PUSH1 0xE5 SHL DUP2 MSTORE PUSH1 0x4 ADD PUSH2 0x47A SWAP1 PUSH2 0x5ABA JUMP JUMPDEST PUSH1 0x0 DUP5 DUP2 MSTORE PUSH1 0x6 PUSH1 0x20 SWAP1 DUP2 MSTORE PUSH1 0x40 DUP1 DUP4 KECCAK256 CALLER DUP5 MSTORE PUSH1 0xF DUP2 ADD SWAP1 SWAP3 MSTORE SWAP1 SWAP2 KECCAK256 SLOAD DUP6 SWAP2 SWAP1 PUSH2 0x100 SWAP1 DIV PUSH1 0xFF AND ISZERO PUSH2 0x1F9E JUMPI PUSH1 0x40 MLOAD PUSH3 0x461BCD PUSH1 0xE5 SHL DUP2 MSTORE PUSH1 0x4 ADD PUSH2 0x47A SWAP1 PUSH2 0x5A51 JUMP JUMPDEST PUSH1 0x0 DUP7 DUP2 MSTORE PUSH1 0x2 PUSH1 0x20 SWAP1 DUP2 MSTORE PUSH1 0x40 DUP1 DUP4 KECCAK256 DUP1 SLOAD PUSH1 0x1 ADD SWAP1 SSTORE PUSH1 0x6 SWAP2 DUP3 SWAP1 MSTORE SWAP1 SWAP2 KECCAK256 DUP8 SWAP2 PUSH1 0x10 DUP3 ADD SLOAD PUSH1 0xFF AND PUSH1 0xA DUP2 GT ISZERO PUSH2 0x1FD4 JUMPI INVALID JUMPDEST EQ PUSH2 0x1FF1 JUMPI PUSH1 0x40 MLOAD PUSH3 0x461BCD PUSH1 0xE5 SHL DUP2 MSTORE PUSH1 0x4 ADD PUSH2 0x47A SWAP1 PUSH2 0x54B5 JUMP JUMPDEST PUSH1 0x5 SLOAD PUSH1 0xE DUP3 ADD SLOAD PUSH1 0xC DUP4 ADD DUP1 SLOAD PUSH1 0x1 PUSH1 0x1 PUSH1 0xA0 SHL SUB SWAP1 SWAP4 AND SWAP3 PUSH4 0x20B73870 SWAP3 CALLER SWAP3 SWAP2 PUSH1 0x1 PUSH1 0x1 PUSH1 0x40 SHL SUB SWAP1 SWAP2 AND SWAP1 DUP2 LT PUSH2 0x2028 JUMPI INVALID JUMPDEST PUSH1 0x0 SWAP2 DUP3 MSTORE PUSH1 0x20 SWAP1 SWAP2 KECCAK256 ADD SLOAD PUSH1 0x5 DUP6 ADD SLOAD PUSH1 0x3 DUP1 SLOAD PUSH1 0x9 DUP9 ADD SLOAD PUSH1 0xA DUP10 ADD SLOAD SWAP3 DUP10 ADD SLOAD PUSH1 0x40 MLOAD PUSH1 0x1 PUSH1 0x1 PUSH1 0xE0 SHL SUB NOT PUSH1 0xE0 DUP11 SWAP1 SHL AND DUP2 MSTORE PUSH2 0x207E SWAP8 SWAP7 PUSH1 0x1 PUSH1 0x1 PUSH1 0xA0 SHL SUB SWAP1 DUP2 AND SWAP7 SWAP6 SWAP5 AND SWAP4 SWAP2 SWAP1 PUSH1 0x4 ADD PUSH2 0x530E JUMP JUMPDEST PUSH1 0x20 PUSH1 0x40 MLOAD DUP1 DUP4 SUB DUP2 PUSH1 0x0 DUP8 DUP1 EXTCODESIZE ISZERO DUP1 ISZERO PUSH2 0x2098 JUMPI PUSH1 0x0 DUP1 REVERT JUMPDEST POP GAS CALL ISZERO DUP1 ISZERO PUSH2 0x20AC JUMPI RETURNDATASIZE PUSH1 0x0 DUP1 RETURNDATACOPY RETURNDATASIZE PUSH1 0x0 REVERT JUMPDEST POP POP POP POP PUSH1 0x40 MLOAD RETURNDATASIZE PUSH1 0x1F NOT PUSH1 0x1F DUP3 ADD AND DUP3 ADD DUP1 PUSH1 0x40 MSTORE POP DUP2 ADD SWAP1 PUSH2 0x20D0 SWAP2 SWAP1 PUSH2 0x4D97 JUMP JUMPDEST PUSH1 0x7 DUP1 DUP4 ADD SWAP2 SWAP1 SWAP2 SSTORE PUSH1 0x10 DUP3 ADD DUP1 SLOAD PUSH1 0xFF NOT AND PUSH1 0x1 DUP4 MUL OR SWAP1 SSTORE POP CALLER PUSH1 0x0 SWAP1 DUP2 MSTORE PUSH1 0xF DUP3 ADD PUSH1 0x20 MSTORE PUSH1 0x40 SWAP1 DUP2 SWAP1 KECCAK256 DUP1 SLOAD PUSH2 0xFF00 NOT AND PUSH2 0x100 OR SWAP1 DUP2 SWAP1 SSTORE PUSH1 0xE DUP4 ADD DUP1 SLOAD PUSH1 0x1 PUSH1 0x80 SHL PUSH1 0x1 PUSH1 0x40 SHL PUSH1 0x1 PUSH1 0x1 PUSH1 0x40 SHL SUB PUSH4 0x1000000 SWAP1 SWAP6 DIV DUP6 AND MUL PUSH8 0xFFFFFFFFFFFFFFFF PUSH1 0x40 SHL NOT SWAP1 SWAP3 AND SWAP2 SWAP1 SWAP2 OR DUP2 DUP2 DIV DUP5 AND PUSH1 0x1 ADD SWAP1 SWAP4 AND MUL PUSH8 0xFFFFFFFFFFFFFFFF PUSH1 0x80 SHL NOT SWAP1 SWAP3 AND SWAP2 SWAP1 SWAP2 OR SWAP1 SSTORE TIMESTAMP PUSH1 0x6 DUP4 ADD SSTORE MLOAD PUSH32 0xA895DA4B794AEBA8D8082DB237265459DB7B7FFDB5AA7C2332A7C5EAFBFAE735 SWAP1 PUSH2 0x219A SWAP1 DUP11 SWAP1 PUSH2 0x549B JUMP JUMPDEST PUSH1 0x40 MLOAD DUP1 SWAP2 SUB SWAP1 LOG1 POP POP POP POP POP POP POP POP JUMP JUMPDEST PUSH1 0x0 PUSH1 0x32 DUP6 LT ISZERO PUSH2 0x21CF JUMPI PUSH1 0x40 MLOAD PUSH3 0x461BCD PUSH1 0xE5 SHL DUP2 MSTORE PUSH1 0x4 ADD PUSH2 0x47A SWAP1 PUSH2 0x55F0 JUMP JUMPDEST PUSH1 0x0 DUP1 SLOAD DUP2 MSTORE PUSH1 0x6 PUSH1 0x20 MSTORE PUSH1 0x40 DUP2 KECCAK256 SWAP1 JUMPDEST DUP6 MLOAD DUP2 PUSH1 0x1 PUSH1 0x1 PUSH1 0x40 SHL SUB AND LT ISZERO PUSH2 0x2379 JUMPI DUP2 PUSH1 0xF ADD PUSH1 0x0 DUP8 DUP4 PUSH1 0x1 PUSH1 0x1 PUSH1 0x40 SHL SUB AND DUP2 MLOAD DUP2 LT PUSH2 0x220D JUMPI INVALID JUMPDEST PUSH1 0x20 SWAP1 DUP2 MUL SWAP2 SWAP1 SWAP2 ADD DUP2 ADD MLOAD PUSH1 0x1 PUSH1 0x1 PUSH1 0xA0 SHL SUB AND DUP3 MSTORE DUP2 ADD SWAP2 SWAP1 SWAP2 MSTORE PUSH1 0x40 ADD PUSH1 0x0 KECCAK256 SLOAD PUSH1 0xFF AND ISZERO PUSH2 0x2251 JUMPI PUSH1 0x40 MLOAD PUSH3 0x461BCD PUSH1 0xE5 SHL DUP2 MSTORE PUSH1 0x4 ADD PUSH2 0x47A SWAP1 PUSH2 0x5547 JUMP JUMPDEST PUSH1 0x1 DUP3 PUSH1 0xF ADD PUSH1 0x0 DUP9 DUP5 PUSH1 0x1 PUSH1 0x1 PUSH1 0x40 SHL SUB AND DUP2 MLOAD DUP2 LT PUSH2 0x226E JUMPI INVALID JUMPDEST PUSH1 0x20 MUL PUSH1 0x20 ADD ADD MLOAD PUSH1 0x1 PUSH1 0x1 PUSH1 0xA0 SHL SUB AND PUSH1 0x1 PUSH1 0x1 PUSH1 0xA0 SHL SUB AND DUP2 MSTORE PUSH1 0x20 ADD SWAP1 DUP2 MSTORE PUSH1 0x20 ADD PUSH1 0x0 KECCAK256 PUSH1 0x0 ADD PUSH1 0x0 PUSH2 0x100 EXP DUP2 SLOAD DUP2 PUSH1 0xFF MUL NOT AND SWAP1 DUP4 ISZERO ISZERO MUL OR SWAP1 SSTORE POP DUP1 DUP3 PUSH1 0xF ADD PUSH1 0x0 DUP9 DUP5 PUSH1 0x1 PUSH1 0x1 PUSH1 0x40 SHL SUB AND DUP2 MLOAD DUP2 LT PUSH2 0x22CC JUMPI INVALID JUMPDEST PUSH1 0x20 MUL PUSH1 0x20 ADD ADD MLOAD PUSH1 0x1 PUSH1 0x1 PUSH1 0xA0 SHL SUB AND PUSH1 0x1 PUSH1 0x1 PUSH1 0xA0 SHL SUB AND DUP2 MSTORE PUSH1 0x20 ADD SWAP1 DUP2 MSTORE PUSH1 0x20 ADD PUSH1 0x0 KECCAK256 PUSH1 0x0 ADD PUSH1 0x3 PUSH2 0x100 EXP DUP2 SLOAD DUP2 PUSH1 0x1 PUSH1 0x1 PUSH1 0x40 SHL SUB MUL NOT AND SWAP1 DUP4 PUSH1 0x1 PUSH1 0x1 PUSH1 0x40 SHL SUB AND MUL OR SWAP1 SSTORE POP DUP2 PUSH1 0xC ADD DUP7 DUP3 PUSH1 0x1 PUSH1 0x1 PUSH1 0x40 SHL SUB AND DUP2 MLOAD DUP2 LT PUSH2 0x2334 JUMPI INVALID JUMPDEST PUSH1 0x20 SWAP1 DUP2 MUL SWAP2 SWAP1 SWAP2 ADD DUP2 ADD MLOAD DUP3 SLOAD PUSH1 0x1 DUP1 DUP3 ADD DUP6 SSTORE PUSH1 0x0 SWAP5 DUP6 MSTORE SWAP3 SWAP1 SWAP4 KECCAK256 SWAP1 SWAP3 ADD DUP1 SLOAD PUSH1 0x1 PUSH1 0x1 PUSH1 0xA0 SHL SUB NOT AND PUSH1 0x1 PUSH1 0x1 PUSH1 0xA0 SHL SUB SWAP1 SWAP4 AND SWAP3 SWAP1 SWAP3 OR SWAP1 SWAP2 SSTORE ADD PUSH2 0x21E0 JUMP JUMPDEST POP DUP4 MLOAD PUSH1 0x0 SWAP1 DUP1 PUSH1 0x1 PUSH1 0x1 PUSH1 0x40 SHL SUB DUP2 GT DUP1 ISZERO PUSH2 0x2395 JUMPI PUSH1 0x0 DUP1 REVERT JUMPDEST POP PUSH1 0x40 MLOAD SWAP1 DUP1 DUP3 MSTORE DUP1 PUSH1 0x20 MUL PUSH1 0x20 ADD DUP3 ADD PUSH1 0x40 MSTORE DUP1 ISZERO PUSH2 0x23BF JUMPI DUP2 PUSH1 0x20 ADD PUSH1 0x20 DUP3 MUL DUP1 CALLDATASIZE DUP4 CALLDATACOPY ADD SWAP1 POP JUMPDEST POP DUP1 MLOAD PUSH2 0x23D6 SWAP2 PUSH1 0x13 DUP7 ADD SWAP2 PUSH1 0x20 SWAP1 SWAP2 ADD SWAP1 PUSH2 0x49F4 JUMP JUMPDEST POP PUSH1 0x15 DUP4 ADD DUP1 SLOAD PUSH1 0xFF NOT AND DUP7 ISZERO ISZERO OR SWAP1 SSTORE PUSH1 0x0 JUMPDEST DUP2 DUP2 LT ISZERO PUSH2 0x2887 JUMPI PUSH2 0x23FA PUSH2 0x49A6 JUMP JUMPDEST DUP8 DUP3 DUP2 MLOAD DUP2 LT PUSH2 0x2406 JUMPI INVALID JUMPDEST PUSH1 0x20 MUL PUSH1 0x20 ADD ADD MLOAD SWAP1 POP DUP1 PUSH1 0xE0 ADD MLOAD PUSH2 0x25E6 JUMPI PUSH1 0x3 DUP2 PUSH1 0x20 ADD MLOAD PUSH1 0xFF AND LT ISZERO PUSH2 0x2441 JUMPI PUSH1 0x40 MLOAD PUSH3 0x461BCD PUSH1 0xE5 SHL DUP2 MSTORE PUSH1 0x4 ADD PUSH2 0x47A SWAP1 PUSH2 0x5AEA JUMP JUMPDEST DUP1 PUSH1 0xC0 ADD MLOAD PUSH2 0x25C3 JUMPI DUP1 PUSH1 0x20 ADD MLOAD PUSH1 0xFF AND PUSH1 0x2 EXP DUP2 PUSH1 0x40 ADD MLOAD MLOAD GT ISZERO PUSH2 0x2479 JUMPI PUSH1 0x40 MLOAD PUSH3 0x461BCD PUSH1 0xE5 SHL DUP2 MSTORE PUSH1 0x4 ADD PUSH2 0x47A SWAP1 PUSH2 0x5CEB JUMP JUMPDEST PUSH1 0x40 DUP2 ADD MLOAD PUSH1 0x20 DUP3 ADD MLOAD DUP2 MLOAD PUSH1 0xFF SWAP1 SWAP2 AND PUSH1 0x2 EXP GT ISZERO PUSH2 0x250A JUMPI PUSH1 0x40 DUP3 ADD MLOAD DUP1 MLOAD PUSH1 0x20 DUP5 ADD MLOAD PUSH1 0xFF AND PUSH1 0x2 EXP SUB PUSH1 0x1 PUSH1 0x1 PUSH1 0x40 SHL SUB DUP2 GT DUP1 ISZERO PUSH2 0x24BB JUMPI PUSH1 0x0 DUP1 REVERT JUMPDEST POP PUSH1 0x40 MLOAD SWAP1 DUP1 DUP3 MSTORE DUP1 PUSH1 0x1F ADD PUSH1 0x1F NOT AND PUSH1 0x20 ADD DUP3 ADD PUSH1 0x40 MSTORE DUP1 ISZERO PUSH2 0x24E6 JUMPI PUSH1 0x20 DUP3 ADD DUP2 DUP1 CALLDATASIZE DUP4 CALLDATACOPY ADD SWAP1 POP JUMPDEST POP PUSH1 0x40 MLOAD PUSH1 0x20 ADD PUSH2 0x24F8 SWAP3 SWAP2 SWAP1 PUSH2 0x52DF JUMP JUMPDEST PUSH1 0x40 MLOAD PUSH1 0x20 DUP2 DUP4 SUB SUB DUP2 MSTORE SWAP1 PUSH1 0x40 MSTORE SWAP1 POP JUMPDEST PUSH1 0x60 PUSH2 0x2515 DUP3 PUSH2 0x47DC JUMP JUMPDEST PUSH1 0x40 MLOAD PUSH4 0x10561D57 PUSH1 0xE3 SHL DUP2 MSTORE SWAP1 SWAP2 POP PUSH20 0x0 SWAP1 PUSH4 0x82B0EAB8 SWAP1 PUSH2 0x254F SWAP1 DUP5 SWAP1 PUSH1 0x4 ADD PUSH2 0x5380 JUMP JUMPDEST PUSH1 0x20 PUSH1 0x40 MLOAD DUP1 DUP4 SUB DUP2 DUP7 DUP1 EXTCODESIZE ISZERO DUP1 ISZERO PUSH2 0x2567 JUMPI PUSH1 0x0 DUP1 REVERT JUMPDEST POP GAS DELEGATECALL ISZERO DUP1 ISZERO PUSH2 0x257B JUMPI RETURNDATASIZE PUSH1 0x0 DUP1 RETURNDATACOPY RETURNDATASIZE PUSH1 0x0 REVERT JUMPDEST POP POP POP POP PUSH1 0x40 MLOAD RETURNDATASIZE PUSH1 0x1F NOT PUSH1 0x1F DUP3 ADD AND DUP3 ADD DUP1 PUSH1 0x40 MSTORE POP DUP2 ADD SWAP1 PUSH2 0x259F SWAP2 SWAP1 PUSH2 0x4D97 JUMP JUMPDEST DUP8 PUSH1 0x13 ADD DUP6 DUP2 SLOAD DUP2 LT PUSH2 0x25AE JUMPI INVALID JUMPDEST SWAP1 PUSH1 0x0 MSTORE PUSH1 0x20 PUSH1 0x0 KECCAK256 ADD DUP2 SWAP1 SSTORE POP POP POP PUSH2 0x25E1 JUMP JUMPDEST PUSH1 0x12 DUP6 ADD DUP1 SLOAD PUSH1 0x1 DUP2 DUP2 ADD DUP4 SSTORE PUSH1 0x0 SWAP3 DUP4 MSTORE PUSH1 0x20 SWAP1 SWAP3 KECCAK256 ADD DUP4 SWAP1 SSTORE SWAP4 POP JUMPDEST PUSH2 0x26F7 JUMP JUMPDEST DUP1 PUSH1 0xC0 ADD MLOAD PUSH2 0x26D9 JUMPI DUP1 PUSH1 0x80 ADD MLOAD DUP6 PUSH1 0x13 ADD DUP4 DUP2 SLOAD DUP2 LT PUSH2 0x2603 JUMPI INVALID JUMPDEST PUSH1 0x0 SWAP2 DUP3 MSTORE PUSH1 0x20 SWAP2 DUP3 SWAP1 KECCAK256 ADD SWAP2 SWAP1 SWAP2 SSTORE PUSH1 0x4 DUP1 SLOAD PUSH1 0x80 DUP5 ADD MLOAD SWAP3 DUP5 ADD MLOAD PUSH1 0x40 MLOAD PUSH4 0x2B6BAA37 PUSH1 0xE2 SHL DUP2 MSTORE PUSH1 0x1 PUSH1 0x1 PUSH1 0xA0 SHL SUB SWAP1 SWAP3 AND SWAP4 PUSH4 0xADAEA8DC SWAP4 PUSH2 0x264C SWAP4 SWAP2 SWAP3 SWAP2 ADD PUSH2 0x54A4 JUMP JUMPDEST PUSH1 0x20 PUSH1 0x40 MLOAD DUP1 DUP4 SUB DUP2 DUP7 DUP1 EXTCODESIZE ISZERO DUP1 ISZERO PUSH2 0x2664 JUMPI PUSH1 0x0 DUP1 REVERT JUMPDEST POP GAS STATICCALL ISZERO DUP1 ISZERO PUSH2 0x2678 JUMPI RETURNDATASIZE PUSH1 0x0 DUP1 RETURNDATACOPY RETURNDATASIZE PUSH1 0x0 REVERT JUMPDEST POP POP POP POP PUSH1 0x40 MLOAD RETURNDATASIZE PUSH1 0x1F NOT PUSH1 0x1F DUP3 ADD AND DUP3 ADD DUP1 PUSH1 0x40 MSTORE POP DUP2 ADD SWAP1 PUSH2 0x269C SWAP2 SWAP1 PUSH2 0x4D74 JUMP JUMPDEST ISZERO DUP1 ISZERO PUSH2 0x26B5 JUMPI POP PUSH1 0xA0 DUP2 ADD MLOAD PUSH1 0x1 PUSH1 0x1 PUSH1 0xA0 SHL SUB AND ISZERO ISZERO JUMPDEST ISZERO PUSH2 0x25E1 JUMPI PUSH1 0x11 DUP6 ADD DUP1 SLOAD PUSH1 0x1 DUP2 ADD DUP3 SSTORE PUSH1 0x0 SWAP2 DUP3 MSTORE PUSH1 0x20 SWAP1 SWAP2 KECCAK256 ADD DUP3 SWAP1 SSTORE PUSH2 0x26F7 JUMP JUMPDEST PUSH1 0x12 DUP6 ADD DUP1 SLOAD PUSH1 0x1 DUP2 DUP2 ADD DUP4 SSTORE PUSH1 0x0 SWAP3 DUP4 MSTORE PUSH1 0x20 SWAP1 SWAP3 KECCAK256 ADD DUP4 SWAP1 SSTORE SWAP4 POP JUMPDEST PUSH1 0x40 DUP1 MLOAD PUSH2 0x120 DUP2 ADD DUP3 MSTORE DUP3 MLOAD PUSH1 0x1 PUSH1 0x1 PUSH1 0x40 SHL SUB SWAP1 DUP2 AND DUP3 MSTORE PUSH1 0x20 DUP1 DUP6 ADD MLOAD PUSH1 0xFF SWAP1 DUP2 AND DUP3 DUP6 ADD SWAP1 DUP2 MSTORE DUP7 DUP7 ADD MLOAD SWAP6 DUP6 ADD SWAP6 DUP7 MSTORE PUSH1 0x60 DUP1 DUP9 ADD MLOAD SWAP1 DUP7 ADD MSTORE PUSH1 0x80 DUP1 DUP9 ADD MLOAD SWAP1 DUP7 ADD MSTORE PUSH1 0xA0 DUP1 DUP9 ADD MLOAD PUSH1 0x1 PUSH1 0x1 PUSH1 0xA0 SHL SUB AND SWAP1 DUP7 ADD MSTORE PUSH1 0xC0 DUP1 DUP9 ADD MLOAD ISZERO ISZERO SWAP1 DUP7 ADD MSTORE PUSH1 0xE0 DUP1 DUP9 ADD MLOAD ISZERO ISZERO SWAP1 DUP7 ADD MSTORE PUSH2 0x100 DUP1 DUP9 ADD MLOAD ISZERO ISZERO SWAP1 DUP7 ADD MSTORE PUSH1 0x14 DUP12 ADD DUP1 SLOAD PUSH1 0x1 DUP1 DUP3 ADD DUP4 SSTORE PUSH1 0x0 SWAP3 DUP4 MSTORE SWAP2 DUP6 SWAP1 KECCAK256 DUP8 MLOAD PUSH1 0x5 SWAP1 SWAP3 MUL ADD DUP1 SLOAD SWAP4 MLOAD PUSH8 0xFFFFFFFFFFFFFFFF NOT SWAP1 SWAP5 AND SWAP2 SWAP1 SWAP7 AND OR PUSH1 0xFF PUSH1 0x40 SHL NOT AND PUSH1 0x1 PUSH1 0x40 SHL SWAP3 SWAP1 SWAP4 AND SWAP2 SWAP1 SWAP2 MUL SWAP2 SWAP1 SWAP2 OR DUP4 SSTORE SWAP4 MLOAD DUP1 MLOAD SWAP4 SWAP5 SWAP3 SWAP4 PUSH2 0x27DF SWAP4 DUP6 ADD SWAP3 SWAP2 SWAP1 SWAP2 ADD SWAP1 PUSH2 0x48F3 JUMP JUMPDEST POP PUSH1 0x60 DUP3 ADD MLOAD DUP1 MLOAD PUSH2 0x27FB SWAP2 PUSH1 0x2 DUP5 ADD SWAP2 PUSH1 0x20 SWAP1 SWAP2 ADD SWAP1 PUSH2 0x48F3 JUMP JUMPDEST POP PUSH1 0x80 DUP3 ADD MLOAD PUSH1 0x3 DUP3 ADD SSTORE PUSH1 0xA0 DUP3 ADD MLOAD PUSH1 0x4 SWAP1 SWAP2 ADD DUP1 SLOAD PUSH1 0xC0 DUP5 ADD MLOAD PUSH1 0xE0 DUP6 ADD MLOAD PUSH2 0x100 SWAP1 SWAP6 ADD MLOAD ISZERO ISZERO PUSH1 0x1 PUSH1 0xB0 SHL MUL PUSH1 0xFF PUSH1 0xB0 SHL NOT SWAP6 ISZERO ISZERO PUSH1 0x1 PUSH1 0xA8 SHL MUL PUSH1 0xFF PUSH1 0xA8 SHL NOT SWAP3 ISZERO ISZERO PUSH1 0x1 PUSH1 0xA0 SHL MUL PUSH1 0xFF PUSH1 0xA0 SHL NOT PUSH1 0x1 PUSH1 0x1 PUSH1 0xA0 SHL SUB SWAP1 SWAP8 AND PUSH1 0x1 PUSH1 0x1 PUSH1 0xA0 SHL SUB NOT SWAP1 SWAP6 AND SWAP5 SWAP1 SWAP5 OR SWAP6 SWAP1 SWAP6 AND SWAP3 SWAP1 SWAP3 OR AND SWAP3 SWAP1 SWAP3 OR SWAP3 SWAP1 SWAP3 AND OR SWAP1 SSTORE POP PUSH1 0x1 ADD PUSH2 0x23EA JUMP JUMPDEST POP PUSH1 0x3 DUP10 PUSH1 0xFF AND LT ISZERO PUSH2 0x28AC JUMPI PUSH1 0x40 MLOAD PUSH3 0x461BCD PUSH1 0xE5 SHL DUP2 MSTORE PUSH1 0x4 ADD PUSH2 0x47A SWAP1 PUSH2 0x5774 JUMP JUMPDEST DUP3 SLOAD CALLER PUSH1 0x1 PUSH1 0x1 PUSH1 0xA0 SHL SUB NOT SWAP1 SWAP2 AND OR DUP4 SSTORE PUSH1 0xE DUP4 ADD DUP1 SLOAD PUSH1 0x1 PUSH1 0x80 SHL PUSH8 0xFFFFFFFFFFFFFFFF PUSH1 0x80 SHL NOT SWAP1 SWAP2 AND OR SWAP1 SSTORE PUSH1 0x3 DUP4 ADD DUP13 SWAP1 SSTORE PUSH1 0x8 DUP4 ADD DUP12 SWAP1 SSTORE PUSH1 0x9 DUP4 ADD DUP12 SWAP1 SSTORE PUSH1 0x4 DUP4 ADD DUP1 SLOAD PUSH8 0xFFFFFFFFFFFFFFFF NOT AND PUSH1 0x1 PUSH1 0x1 PUSH1 0x40 SHL SUB DUP13 AND OR PUSH1 0xFF PUSH1 0x40 SHL NOT AND PUSH1 0x1 PUSH1 0x40 SHL PUSH1 0xFF DUP13 AND MUL OR SWAP1 SSTORE PUSH1 0x5 DUP4 ADD DUP9 SWAP1 SSTORE TIMESTAMP PUSH1 0x6 DUP5 ADD SSTORE DUP2 ISZERO PUSH2 0x2950 JUMPI PUSH1 0x10 DUP4 ADD DUP1 SLOAD PUSH1 0x0 SWAP2 SWAP1 PUSH1 0xFF NOT AND PUSH1 0x1 DUP4 JUMPDEST MUL OR SWAP1 SSTORE POP PUSH2 0x2980 JUMP JUMPDEST PUSH1 0x11 DUP4 ADD SLOAD ISZERO PUSH2 0x2970 JUMPI PUSH1 0x10 DUP4 ADD DUP1 SLOAD PUSH1 0x2 SWAP2 SWAP1 PUSH1 0xFF NOT AND PUSH1 0x1 DUP4 PUSH2 0x2946 JUMP JUMPDEST PUSH1 0x10 DUP4 ADD DUP1 SLOAD PUSH1 0xFF NOT AND PUSH1 0x4 OR SWAP1 SSTORE JUMPDEST PUSH32 0x74F4614E097FC158C85EA12787F9E678E96166B4F523416BDB792747C47F1BAC PUSH1 0x0 SLOAD PUSH1 0x40 MLOAD PUSH2 0x29B1 SWAP2 SWAP1 PUSH2 0x549B JUMP JUMPDEST PUSH1 0x40 MLOAD DUP1 SWAP2 SUB SWAP1 LOG1 POP POP PUSH1 0x0 DUP1 SLOAD DUP2 MSTORE PUSH1 0x1 PUSH1 0x20 DUP2 SWAP1 MSTORE PUSH1 0x40 DUP3 KECCAK256 DUP1 SLOAD PUSH1 0xFF NOT AND DUP3 OR SWAP1 SSTORE DUP2 SLOAD SWAP1 DUP2 ADD SWAP1 SWAP2 SSTORE SWAP2 POP POP JUMPDEST SWAP9 SWAP8 POP POP POP POP POP POP POP POP JUMP JUMPDEST DUP1 DUP1 PUSH1 0x0 SLOAD GT PUSH2 0x2A33 JUMPI PUSH1 0x40 DUP1 MLOAD PUSH3 0x461BCD PUSH1 0xE5 SHL DUP2 MSTORE PUSH1 0x20 PUSH1 0x4 DUP3 ADD MSTORE PUSH1 0x16 PUSH1 0x24 DUP3 ADD MSTORE PUSH1 0x0 DUP1 MLOAD PUSH1 0x20 PUSH2 0x5F3C DUP4 CODECOPY DUP2 MLOAD SWAP2 MSTORE PUSH1 0x44 DUP3 ADD MSTORE SWAP1 MLOAD SWAP1 DUP2 SWAP1 SUB PUSH1 0x64 ADD SWAP1 REVERT JUMPDEST PUSH2 0x2A3C DUP2 PUSH2 0x19E8 JUMP JUMPDEST PUSH2 0x2A7E JUMPI PUSH1 0x40 DUP1 MLOAD PUSH3 0x461BCD PUSH1 0xE5 SHL DUP2 MSTORE PUSH1 0x20 PUSH1 0x4 DUP3 ADD MSTORE PUSH1 0xE PUSH1 0x24 DUP3 ADD MSTORE PUSH14 0x496E64657820696E616374697665 PUSH1 0x90 SHL PUSH1 0x44 DUP3 ADD MSTORE SWAP1 MLOAD SWAP1 DUP2 SWAP1 SUB PUSH1 0x64 ADD SWAP1 REVERT JUMPDEST PUSH1 0x0 DUP3 DUP2 MSTORE PUSH1 0x6 PUSH1 0x20 SWAP1 DUP2 MSTORE PUSH1 0x40 DUP1 DUP4 KECCAK256 CALLER DUP5 MSTORE PUSH1 0xF DUP2 ADD SWAP1 SWAP3 MSTORE SWAP1 SWAP2 KECCAK256 SLOAD DUP4 SWAP2 SWAP1 PUSH1 0xFF AND PUSH2 0x2ABF JUMPI PUSH1 0x40 MLOAD PUSH3 0x461BCD PUSH1 0xE5 SHL DUP2 MSTORE PUSH1 0x4 ADD PUSH2 0x47A SWAP1 PUSH2 0x5ABA JUMP JUMPDEST PUSH1 0x0 DUP5 DUP2 MSTORE PUSH1 0x6 PUSH1 0x20 SWAP1 DUP2 MSTORE PUSH1 0x40 DUP1 DUP4 KECCAK256 CALLER DUP5 MSTORE PUSH1 0xF DUP2 ADD SWAP1 SWAP3 MSTORE SWAP1 SWAP2 KECCAK256 SLOAD DUP6 SWAP2 SWAP1 PUSH2 0x100 SWAP1 DIV PUSH1 0xFF AND ISZERO PUSH2 0x2B06 JUMPI PUSH1 0x40 MLOAD PUSH3 0x461BCD PUSH1 0xE5 SHL DUP2 MSTORE PUSH1 0x4 ADD PUSH2 0x47A SWAP1 PUSH2 0x5A51 JUMP JUMPDEST PUSH1 0x0 DUP7 DUP2 MSTORE PUSH1 0x2 PUSH1 0x20 SWAP1 DUP2 MSTORE PUSH1 0x40 DUP1 DUP4 KECCAK256 DUP1 SLOAD PUSH1 0x1 ADD SWAP1 SSTORE PUSH1 0x6 SWAP2 DUP3 SWAP1 MSTORE SWAP1 SWAP2 KECCAK256 DUP8 SWAP2 PUSH1 0x10 DUP3 ADD SLOAD PUSH1 0xFF AND PUSH1 0xA DUP2 GT ISZERO PUSH2 0x2B3C JUMPI INVALID JUMPDEST EQ PUSH2 0x2B59 JUMPI PUSH1 0x40 MLOAD PUSH3 0x461BCD PUSH1 0xE5 SHL DUP2 MSTORE PUSH1 0x4 ADD PUSH2 0x47A SWAP1 PUSH2 0x54B5 JUMP JUMPDEST PUSH1 0xD DUP2 ADD DUP1 SLOAD PUSH1 0x1 DUP2 DUP2 ADD DUP4 SSTORE PUSH1 0x0 SWAP3 DUP4 MSTORE PUSH1 0x20 DUP1 DUP5 KECCAK256 SWAP1 SWAP3 ADD DUP1 SLOAD PUSH1 0x1 PUSH1 0x1 PUSH1 0xA0 SHL SUB NOT AND CALLER SWAP1 DUP2 OR SWAP1 SWAP2 SSTORE DUP1 DUP5 MSTORE PUSH1 0xF DUP6 ADD SWAP1 SWAP3 MSTORE PUSH1 0x40 SWAP3 DUP4 SWAP1 KECCAK256 DUP1 SLOAD PUSH2 0xFF00 NOT AND PUSH2 0x100 OR SWAP1 SSTORE PUSH1 0xE DUP5 ADD DUP1 SLOAD PUSH1 0x1 PUSH1 0x1 PUSH1 0x40 SHL SUB PUSH1 0x1 PUSH1 0x80 SHL DUP1 DUP4 DIV DUP3 AND SWAP1 SWAP5 ADD AND SWAP1 SWAP3 MUL PUSH8 0xFFFFFFFFFFFFFFFF PUSH1 0x80 SHL NOT SWAP1 SWAP3 AND SWAP2 SWAP1 SWAP2 OR SWAP1 SSTORE SWAP1 MLOAD PUSH32 0x6F220D98C15DBD07FDC24781B682EA34F92411FC61B83C761DD927AFBE02D3FD SWAP2 PUSH2 0x2C08 SWAP2 DUP12 SWAP2 SWAP1 PUSH2 0x5D37 JUMP JUMPDEST PUSH1 0x40 MLOAD DUP1 SWAP2 SUB SWAP1 LOG1 PUSH1 0xC DUP2 ADD SLOAD PUSH1 0xE DUP3 ADD SLOAD PUSH1 0x1 PUSH1 0x80 SHL SWAP1 DIV PUSH1 0x1 PUSH1 0x1 PUSH1 0x40 SHL SUB AND EQ ISZERO PUSH2 0x2C66 JUMPI PUSH1 0x10 DUP2 ADD DUP1 SLOAD PUSH1 0xFF NOT AND PUSH1 0xA OR SWAP1 SSTORE PUSH1 0x0 DUP1 MLOAD PUSH1 0x20 PUSH2 0x5F1C DUP4 CODECOPY DUP2 MLOAD SWAP2 MSTORE DUP9 PUSH2 0x2C58 DUP2 PUSH2 0xD0C JUMP JUMPDEST PUSH1 0x40 MLOAD PUSH2 0x219A SWAP3 SWAP2 SWAP1 PUSH2 0x5D4E JUMP JUMPDEST POP POP POP POP POP POP POP POP JUMP JUMPDEST DUP1 DUP1 PUSH1 0x0 SLOAD GT PUSH2 0x2CB5 JUMPI PUSH1 0x40 DUP1 MLOAD PUSH3 0x461BCD PUSH1 0xE5 SHL DUP2 MSTORE PUSH1 0x20 PUSH1 0x4 DUP3 ADD MSTORE PUSH1 0x16 PUSH1 0x24 DUP3 ADD MSTORE PUSH1 0x0 DUP1 MLOAD PUSH1 0x20 PUSH2 0x5F3C DUP4 CODECOPY DUP2 MLOAD SWAP2 MSTORE PUSH1 0x44 DUP3 ADD MSTORE SWAP1 MLOAD SWAP1 DUP2 SWAP1 SUB PUSH1 0x64 ADD SWAP1 REVERT JUMPDEST PUSH2 0x2CBE DUP2 PUSH2 0x19E8 JUMP JUMPDEST PUSH2 0x2D00 JUMPI PUSH1 0x40 DUP1 MLOAD PUSH3 0x461BCD PUSH1 0xE5 SHL DUP2 MSTORE PUSH1 0x20 PUSH1 0x4 DUP3 ADD MSTORE PUSH1 0xE PUSH1 0x24 DUP3 ADD MSTORE PUSH14 0x496E64657820696E616374697665 PUSH1 0x90 SHL PUSH1 0x44 DUP3 ADD MSTORE SWAP1 MLOAD SWAP1 DUP2 SWAP1 SUB PUSH1 0x64 ADD SWAP1 REVERT JUMPDEST PUSH1 0x0 DUP3 DUP2 MSTORE PUSH1 0x2 PUSH1 0x20 SWAP1 DUP2 MSTORE PUSH1 0x40 DUP1 DUP4 KECCAK256 DUP1 SLOAD PUSH1 0x1 ADD SWAP1 SSTORE PUSH1 0x6 SWAP1 SWAP2 MSTORE SWAP1 KECCAK256 PUSH1 0x15 DUP2 ADD SLOAD DUP4 SWAP2 SWAP1 PUSH1 0xFF AND ISZERO PUSH2 0x2D47 JUMPI PUSH1 0x40 MLOAD PUSH3 0x461BCD PUSH1 0xE5 SHL DUP2 MSTORE PUSH1 0x4 ADD PUSH2 0x47A SWAP1 PUSH2 0x5CB6 JUMP JUMPDEST PUSH1 0x2 PUSH1 0x10 DUP3 ADD SLOAD PUSH1 0xFF AND PUSH1 0xA DUP2 GT ISZERO PUSH2 0x2D5C JUMPI INVALID JUMPDEST EQ PUSH2 0x2D79 JUMPI PUSH1 0x40 MLOAD PUSH3 0x461BCD PUSH1 0xE5 SHL DUP2 MSTORE PUSH1 0x4 ADD PUSH2 0x47A SWAP1 PUSH2 0x5834 JUMP JUMPDEST CALLER PUSH1 0x0 SWAP1 DUP2 MSTORE PUSH1 0xF DUP3 ADD PUSH1 0x20 MSTORE PUSH1 0x40 SWAP1 KECCAK256 SLOAD PUSH1 0xFF AND PUSH2 0x2DAA JUMPI PUSH1 0x40 MLOAD PUSH3 0x461BCD PUSH1 0xE5 SHL DUP2 MSTORE PUSH1 0x4 ADD PUSH2 0x47A SWAP1 PUSH2 0x5BA9 JUMP JUMPDEST PUSH1 0x10 DUP2 ADD DUP1 SLOAD PUSH1 0xFF NOT AND PUSH1 0x3 OR SWAP1 SSTORE TIMESTAMP PUSH1 0x6 SWAP1 SWAP2 ADD SSTORE POP POP POP JUMP JUMPDEST PUSH1 0x60 DUP1 DUP4 DUP1 PUSH1 0x0 SLOAD GT PUSH2 0x2E0D JUMPI PUSH1 0x40 DUP1 MLOAD PUSH3 0x461BCD PUSH1 0xE5 SHL DUP2 MSTORE PUSH1 0x20 PUSH1 0x4 DUP3 ADD MSTORE PUSH1 0x16 PUSH1 0x24 DUP3 ADD MSTORE PUSH1 0x0 DUP1 MLOAD PUSH1 0x20 PUSH2 0x5F3C DUP4 CODECOPY DUP2 MLOAD SWAP2 MSTORE PUSH1 0x44 DUP3 ADD MSTORE SWAP1 MLOAD SWAP1 DUP2 SWAP1 SUB PUSH1 0x64 ADD SWAP1 REVERT JUMPDEST PUSH1 0x60 DUP1 PUSH1 0x7 PUSH1 0x0 DUP9 DUP2 MSTORE PUSH1 0x6 PUSH1 0x20 MSTORE PUSH1 0x40 SWAP1 KECCAK256 PUSH1 0x10 ADD SLOAD PUSH1 0xFF AND PUSH1 0xA DUP2 GT ISZERO PUSH2 0x2E32 JUMPI INVALID JUMPDEST EQ ISZERO PUSH2 0x2ED8 JUMPI PUSH1 0x40 DUP1 MLOAD PUSH1 0x1 DUP1 DUP3 MSTORE DUP2 DUP4 ADD SWAP1 SWAP3 MSTORE SWAP1 PUSH1 0x20 DUP1 DUP4 ADD SWAP1 DUP1 CALLDATASIZE DUP4 CALLDATACOPY POP POP PUSH1 0x40 DUP1 MLOAD PUSH1 0x1 DUP1 DUP3 MSTORE DUP2 DUP4 ADD SWAP1 SWAP3 MSTORE SWAP3 SWAP5 POP SWAP1 POP PUSH1 0x20 DUP1 DUP4 ADD SWAP1 DUP1 CALLDATASIZE DUP4 CALLDATACOPY POP POP PUSH1 0x5 SLOAD DUP5 MLOAD SWAP3 SWAP4 POP PUSH1 0x1 PUSH1 0x1 PUSH1 0xA0 SHL SUB AND SWAP2 DUP5 SWAP2 POP PUSH1 0x0 SWAP1 PUSH2 0x2E92 JUMPI INVALID JUMPDEST PUSH1 0x1 PUSH1 0x1 PUSH1 0xA0 SHL SUB SWAP1 SWAP3 AND PUSH1 0x20 SWAP3 DUP4 MUL SWAP2 SWAP1 SWAP2 ADD DUP3 ADD MSTORE PUSH1 0x0 DUP9 DUP2 MSTORE PUSH1 0x6 SWAP1 SWAP2 MSTORE PUSH1 0x40 DUP2 KECCAK256 PUSH1 0x7 ADD SLOAD DUP3 MLOAD SWAP1 SWAP2 DUP4 SWAP2 PUSH2 0x2EC7 JUMPI INVALID JUMPDEST PUSH1 0x20 MUL PUSH1 0x20 ADD ADD DUP2 DUP2 MSTORE POP POP PUSH2 0x2EF2 JUMP JUMPDEST POP POP PUSH1 0x40 DUP1 MLOAD PUSH1 0x0 DUP1 DUP3 MSTORE PUSH1 0x20 DUP3 ADD SWAP1 DUP2 MSTORE DUP2 DUP4 ADD SWAP1 SWAP3 MSTORE SWAP1 JUMPDEST SWAP1 SWAP7 SWAP1 SWAP6 POP SWAP4 POP POP POP POP JUMP JUMPDEST DUP2 DUP1 PUSH1 0x0 SLOAD GT PUSH2 0x2F43 JUMPI PUSH1 0x40 DUP1 MLOAD PUSH3 0x461BCD PUSH1 0xE5 SHL DUP2 MSTORE PUSH1 0x20 PUSH1 0x4 DUP3 ADD MSTORE PUSH1 0x16 PUSH1 0x24 DUP3 ADD MSTORE PUSH1 0x0 DUP1 MLOAD PUSH1 0x20 PUSH2 0x5F3C DUP4 CODECOPY DUP2 MLOAD SWAP2 MSTORE PUSH1 0x44 DUP3 ADD MSTORE SWAP1 MLOAD SWAP1 DUP2 SWAP1 SUB PUSH1 0x64 ADD SWAP1 REVERT JUMPDEST PUSH2 0x2F4C DUP2 PUSH2 0x19E8 JUMP JUMPDEST PUSH2 0x2F8E JUMPI PUSH1 0x40 DUP1 MLOAD PUSH3 0x461BCD PUSH1 0xE5 SHL DUP2 MSTORE PUSH1 0x20 PUSH1 0x4 DUP3 ADD MSTORE PUSH1 0xE PUSH1 0x24 DUP3 ADD MSTORE PUSH14 0x496E64657820696E616374697665 PUSH1 0x90 SHL PUSH1 0x44 DUP3 ADD MSTORE SWAP1 MLOAD SWAP1 DUP2 SWAP1 SUB PUSH1 0x64 ADD SWAP1 REVERT JUMPDEST PUSH1 0x0 DUP4 DUP2 MSTORE PUSH1 0x6 PUSH1 0x20 MSTORE PUSH1 0x40 DUP2 KECCAK256 DUP5 SWAP2 PUSH1 0x10 DUP3 ADD SLOAD PUSH1 0xFF AND PUSH1 0xA DUP2 GT ISZERO PUSH2 0x2FB1 JUMPI INVALID JUMPDEST EQ PUSH2 0x2FCE JUMPI PUSH1 0x40 MLOAD PUSH3 0x461BCD PUSH1 0xE5 SHL DUP2 MSTORE PUSH1 0x4 ADD PUSH2 0x47A SWAP1 PUSH2 0x598A JUMP JUMPDEST PUSH1 0x12 DUP2 ADD SLOAD PUSH1 0x2 DUP3 ADD SLOAD LT PUSH2 0x2FF5 JUMPI PUSH1 0x40 MLOAD PUSH3 0x461BCD PUSH1 0xE5 SHL DUP2 MSTORE PUSH1 0x4 ADD PUSH2 0x47A SWAP1 PUSH2 0x59BD JUMP JUMPDEST PUSH1 0x0 DUP2 PUSH1 0x12 ADD DUP3 PUSH1 0x2 ADD SLOAD DUP2 SLOAD DUP2 LT PUSH2 0x300A JUMPI INVALID JUMPDEST SWAP1 PUSH1 0x0 MSTORE PUSH1 0x20 PUSH1 0x0 KECCAK256 ADD SLOAD SWAP1 POP DUP2 PUSH1 0x14 ADD DUP1 SLOAD SWAP1 POP DUP2 LT PUSH2 0x303D JUMPI PUSH1 0x40 MLOAD PUSH3 0x461BCD PUSH1 0xE5 SHL DUP2 MSTORE PUSH1 0x4 ADD PUSH2 0x47A SWAP1 PUSH2 0x587A JUMP JUMPDEST PUSH2 0x3045 PUSH2 0x49A6 JUMP JUMPDEST DUP3 PUSH1 0x14 ADD DUP3 DUP2 SLOAD DUP2 LT PUSH2 0x3054 JUMPI INVALID JUMPDEST PUSH1 0x0 SWAP2 DUP3 MSTORE PUSH1 0x20 SWAP2 DUP3 SWAP1 KECCAK256 PUSH1 0x40 DUP1 MLOAD PUSH2 0x120 DUP2 ADD DUP3 MSTORE PUSH1 0x5 SWAP4 SWAP1 SWAP4 MUL SWAP1 SWAP2 ADD DUP1 SLOAD PUSH1 0x1 PUSH1 0x1 PUSH1 0x40 SHL SUB DUP2 AND DUP5 MSTORE PUSH1 0x1 PUSH1 0x40 SHL SWAP1 DIV PUSH1 0xFF AND DUP4 DUP6 ADD MSTORE PUSH1 0x1 DUP1 DUP3 ADD DUP1 SLOAD DUP5 MLOAD PUSH1 0x2 PUSH2 0x100 SWAP5 DUP4 AND ISZERO SWAP5 SWAP1 SWAP5 MUL PUSH1 0x0 NOT ADD SWAP1 SWAP2 AND SWAP3 SWAP1 SWAP3 DIV PUSH1 0x1F DUP2 ADD DUP8 SWAP1 DIV DUP8 MUL DUP4 ADD DUP8 ADD DUP6 MSTORE DUP1 DUP4 MSTORE SWAP5 SWAP6 SWAP3 SWAP5 SWAP4 DUP7 ADD SWAP4 SWAP2 SWAP3 SWAP1 SWAP2 SWAP1 DUP4 ADD DUP3 DUP3 DUP1 ISZERO PUSH2 0x3120 JUMPI DUP1 PUSH1 0x1F LT PUSH2 0x30F5 JUMPI PUSH2 0x100 DUP1 DUP4 SLOAD DIV MUL DUP4 MSTORE SWAP2 PUSH1 0x20 ADD SWAP2 PUSH2 0x3120 JUMP JUMPDEST DUP3 ADD SWAP2 SWAP1 PUSH1 0x0 MSTORE PUSH1 0x20 PUSH1 0x0 KECCAK256 SWAP1 JUMPDEST DUP2 SLOAD DUP2 MSTORE SWAP1 PUSH1 0x1 ADD SWAP1 PUSH1 0x20 ADD DUP1 DUP4 GT PUSH2 0x3103 JUMPI DUP3 SWAP1 SUB PUSH1 0x1F AND DUP3 ADD SWAP2 JUMPDEST POP POP POP SWAP2 DUP4 MSTORE POP POP PUSH1 0x2 DUP3 DUP2 ADD DUP1 SLOAD PUSH1 0x40 DUP1 MLOAD PUSH1 0x20 PUSH1 0x1 DUP5 AND ISZERO PUSH2 0x100 MUL PUSH1 0x0 NOT ADD SWAP1 SWAP4 AND SWAP5 SWAP1 SWAP5 DIV PUSH1 0x1F DUP2 ADD DUP4 SWAP1 DIV DUP4 MUL DUP6 ADD DUP4 ADD SWAP1 SWAP2 MSTORE DUP1 DUP5 MSTORE SWAP4 DUP2 ADD SWAP4 SWAP1 DUP4 ADD DUP3 DUP3 DUP1 ISZERO PUSH2 0x31B2 JUMPI DUP1 PUSH1 0x1F LT PUSH2 0x3187 JUMPI PUSH2 0x100 DUP1 DUP4 SLOAD DIV MUL DUP4 MSTORE SWAP2 PUSH1 0x20 ADD SWAP2 PUSH2 0x31B2 JUMP JUMPDEST DUP3 ADD SWAP2 SWAP1 PUSH1 0x0 MSTORE PUSH1 0x20 PUSH1 0x0 KECCAK256 SWAP1 JUMPDEST DUP2 SLOAD DUP2 MSTORE SWAP1 PUSH1 0x1 ADD SWAP1 PUSH1 0x20 ADD DUP1 DUP4 GT PUSH2 0x3195 JUMPI DUP3 SWAP1 SUB PUSH1 0x1F AND DUP3 ADD SWAP2 JUMPDEST POP POP POP SWAP2 DUP4 MSTORE POP POP PUSH1 0x3 DUP3 ADD SLOAD PUSH1 0x20 DUP3 ADD MSTORE PUSH1 0x4 SWAP1 SWAP2 ADD SLOAD PUSH1 0x1 PUSH1 0x1 PUSH1 0xA0 SHL SUB DUP2 AND PUSH1 0x40 DUP4 ADD MSTORE PUSH1 0xFF PUSH1 0x1 PUSH1 0xA0 SHL DUP3 DIV DUP2 AND ISZERO ISZERO PUSH1 0x60 DUP5 ADD MSTORE PUSH1 0x1 PUSH1 0xA8 SHL DUP3 DIV DUP2 AND ISZERO ISZERO PUSH1 0x80 DUP5 ADD MSTORE PUSH1 0x1 PUSH1 0xB0 SHL SWAP1 SWAP2 DIV AND ISZERO ISZERO PUSH1 0xA0 SWAP1 SWAP2 ADD MSTORE PUSH1 0x13 DUP5 ADD DUP1 SLOAD SWAP2 SWAP3 POP PUSH1 0x0 SWAP2 DUP5 SWAP1 DUP2 LT PUSH2 0x3222 JUMPI INVALID JUMPDEST SWAP1 PUSH1 0x0 MSTORE PUSH1 0x20 PUSH1 0x0 KECCAK256 ADD SLOAD EQ PUSH2 0x324A JUMPI PUSH1 0x40 MLOAD PUSH3 0x461BCD PUSH1 0xE5 SHL DUP2 MSTORE PUSH1 0x4 ADD PUSH2 0x47A SWAP1 PUSH2 0x57BC JUMP JUMPDEST DUP1 PUSH1 0xC0 ADD MLOAD PUSH2 0x326B JUMPI PUSH1 0x40 MLOAD PUSH3 0x461BCD PUSH1 0xE5 SHL DUP2 MSTORE PUSH1 0x4 ADD PUSH2 0x47A SWAP1 PUSH2 0x5C1C JUMP JUMPDEST PUSH1 0xA0 DUP2 ADD MLOAD PUSH1 0x1 PUSH1 0x1 PUSH1 0xA0 SHL SUB AND CALLER EQ PUSH2 0x3297 JUMPI PUSH1 0x40 MLOAD PUSH3 0x461BCD PUSH1 0xE5 SHL DUP2 MSTORE PUSH1 0x4 ADD PUSH2 0x47A SWAP1 PUSH2 0x5B7D JUMP JUMPDEST PUSH1 0x0 DUP8 DUP2 MSTORE PUSH1 0x6 PUSH1 0x20 MSTORE PUSH1 0x40 DUP2 KECCAK256 PUSH1 0x2 DUP2 ADD SLOAD PUSH1 0x12 DUP3 ADD DUP1 SLOAD SWAP3 SWAP4 SWAP3 SWAP1 SWAP2 SWAP1 DUP2 LT PUSH2 0x32BE JUMPI INVALID JUMPDEST SWAP1 PUSH1 0x0 MSTORE PUSH1 0x20 PUSH1 0x0 KECCAK256 ADD SLOAD SWAP1 POP PUSH1 0x0 DUP3 PUSH1 0x14 ADD DUP3 DUP2 SLOAD DUP2 LT PUSH2 0x32DC JUMPI INVALID JUMPDEST SWAP1 PUSH1 0x0 MSTORE PUSH1 0x20 PUSH1 0x0 KECCAK256 SWAP1 PUSH1 0x5 MUL ADD SWAP1 POP DUP1 PUSH1 0x4 ADD PUSH1 0x15 SWAP1 SLOAD SWAP1 PUSH2 0x100 EXP SWAP1 DIV PUSH1 0xFF AND PUSH2 0x331A JUMPI PUSH1 0x40 MLOAD PUSH3 0x461BCD PUSH1 0xE5 SHL DUP2 MSTORE PUSH1 0x4 ADD PUSH2 0x47A SWAP1 PUSH2 0x57F3 JUMP JUMPDEST PUSH1 0x3 DUP2 ADD DUP10 SWAP1 SSTORE PUSH1 0x13 DUP4 ADD DUP1 SLOAD DUP11 SWAP2 SWAP1 DUP5 SWAP1 DUP2 LT PUSH2 0x3334 JUMPI INVALID JUMPDEST PUSH1 0x0 SWAP2 DUP3 MSTORE PUSH1 0x20 SWAP1 SWAP2 KECCAK256 ADD SSTORE PUSH1 0x2 DUP4 ADD DUP1 SLOAD PUSH1 0x1 ADD SWAP1 DUP2 SWAP1 SSTORE TIMESTAMP PUSH1 0x6 DUP6 ADD SSTORE PUSH1 0x12 DUP5 ADD SLOAD EQ ISZERO PUSH2 0x338C JUMPI PUSH1 0x11 DUP4 ADD SLOAD ISZERO PUSH2 0x337C JUMPI PUSH1 0x10 DUP4 ADD DUP1 SLOAD PUSH1 0xFF NOT AND PUSH1 0x2 OR SWAP1 SSTORE PUSH2 0x338C JUMP JUMPDEST PUSH1 0x10 DUP4 ADD DUP1 SLOAD PUSH1 0xFF NOT AND PUSH1 0x4 OR SWAP1 SSTORE JUMPDEST PUSH32 0xCF09A543FDBD213491AC20EFABB93FBBC4BE4DABB386C479DC6356050ED37C3E DUP11 DUP5 PUSH1 0x14 ADD DUP5 DUP2 SLOAD DUP2 LT PUSH2 0x33BD JUMPI INVALID JUMPDEST SWAP1 PUSH1 0x0 MSTORE PUSH1 0x20 PUSH1 0x0 KECCAK256 SWAP1 PUSH1 0x5 MUL ADD PUSH1 0x40 MLOAD PUSH2 0x33D9 SWAP3 SWAP2 SWAP1 PUSH2 0x5D5C JUMP JUMPDEST PUSH1 0x40 MLOAD DUP1 SWAP2 SUB SWAP1 LOG1 POP POP POP POP POP POP POP POP POP POP JUMP JUMPDEST DUP1 DUP1 PUSH1 0x0 SLOAD GT PUSH2 0x3432 JUMPI PUSH1 0x40 DUP1 MLOAD PUSH3 0x461BCD PUSH1 0xE5 SHL DUP2 MSTORE PUSH1 0x20 PUSH1 0x4 DUP3 ADD MSTORE PUSH1 0x16 PUSH1 0x24 DUP3 ADD MSTORE PUSH1 0x0 DUP1 MLOAD PUSH1 0x20 PUSH2 0x5F3C DUP4 CODECOPY DUP2 MLOAD SWAP2 MSTORE PUSH1 0x44 DUP3 ADD MSTORE SWAP1 MLOAD SWAP1 DUP2 SWAP1 SUB PUSH1 0x64 ADD SWAP1 REVERT JUMPDEST PUSH2 0x343B DUP2 PUSH2 0x19E8 JUMP JUMPDEST PUSH2 0x347D JUMPI PUSH1 0x40 DUP1 MLOAD PUSH3 0x461BCD PUSH1 0xE5 SHL DUP2 MSTORE PUSH1 0x20 PUSH1 0x4 DUP3 ADD MSTORE PUSH1 0xE PUSH1 0x24 DUP3 ADD MSTORE PUSH14 0x496E64657820696E616374697665 PUSH1 0x90 SHL PUSH1 0x44 DUP3 ADD MSTORE SWAP1 MLOAD SWAP1 DUP2 SWAP1 SUB PUSH1 0x64 ADD SWAP1 REVERT JUMPDEST PUSH1 0x0 DUP3 DUP2 MSTORE PUSH1 0x6 PUSH1 0x20 MSTORE PUSH1 0x40 SWAP1 KECCAK256 SLOAD PUSH1 0x1 PUSH1 0x1 PUSH1 0xA0 SHL SUB AND CALLER DUP2 EQ PUSH2 0x34E4 JUMPI PUSH1 0x40 DUP1 MLOAD PUSH3 0x461BCD PUSH1 0xE5 SHL DUP2 MSTORE PUSH1 0x20 PUSH1 0x4 DUP3 ADD MSTORE PUSH1 0x18 PUSH1 0x24 DUP3 ADD MSTORE PUSH24 0x21B0B73737BA1031329031B0B63632B210313C903AB9B2B9 PUSH1 0x41 SHL PUSH1 0x44 DUP3 ADD MSTORE SWAP1 MLOAD SWAP1 DUP2 SWAP1 SUB PUSH1 0x64 ADD SWAP1 REVERT JUMPDEST PUSH1 0x0 DUP4 DUP2 MSTORE PUSH1 0x6 PUSH1 0x20 MSTORE PUSH1 0x40 SWAP1 KECCAK256 PUSH1 0x1 PUSH1 0x10 DUP3 ADD SLOAD PUSH1 0xFF AND PUSH1 0xA DUP2 GT ISZERO PUSH2 0x3507 JUMPI INVALID JUMPDEST EQ DUP1 PUSH2 0x3525 JUMPI POP PUSH1 0x5 PUSH1 0x10 DUP3 ADD SLOAD PUSH1 0xFF AND PUSH1 0xA DUP2 GT ISZERO PUSH2 0x3523 JUMPI INVALID JUMPDEST EQ JUMPDEST DUP1 PUSH2 0x3542 JUMPI POP PUSH1 0xA PUSH1 0x10 DUP3 ADD SLOAD PUSH1 0xFF AND PUSH1 0xA DUP2 GT ISZERO PUSH2 0x3540 JUMPI INVALID JUMPDEST EQ JUMPDEST DUP1 PUSH2 0x355F JUMPI POP PUSH1 0x8 PUSH1 0x10 DUP3 ADD SLOAD PUSH1 0xFF AND PUSH1 0xA DUP2 GT ISZERO PUSH2 0x355D JUMPI INVALID JUMPDEST EQ JUMPDEST DUP1 PUSH2 0x357C JUMPI POP PUSH1 0x9 PUSH1 0x10 DUP3 ADD SLOAD PUSH1 0xFF AND PUSH1 0xA DUP2 GT ISZERO PUSH2 0x357A JUMPI INVALID JUMPDEST EQ JUMPDEST PUSH2 0x3598 JUMPI PUSH1 0x40 MLOAD PUSH3 0x461BCD PUSH1 0xE5 SHL DUP2 MSTORE PUSH1 0x4 ADD PUSH2 0x47A SWAP1 PUSH2 0x58DE JUMP JUMPDEST PUSH2 0x35A6 PUSH1 0x11 DUP3 ADD PUSH1 0x0 PUSH2 0x4A2E JUMP JUMPDEST PUSH2 0x35B4 PUSH1 0x12 DUP3 ADD PUSH1 0x0 PUSH2 0x4A2E JUMP JUMPDEST PUSH2 0x35C2 PUSH1 0x13 DUP3 ADD PUSH1 0x0 PUSH2 0x4A2E JUMP JUMPDEST PUSH2 0x35D0 PUSH1 0x14 DUP3 ADD PUSH1 0x0 PUSH2 0x4A4F JUMP JUMPDEST PUSH2 0x35D9 DUP5 PUSH2 0x48D0 JUMP JUMPDEST POP POP POP POP JUMP JUMPDEST DUP1 DUP1 PUSH1 0x0 SLOAD GT PUSH2 0x3624 JUMPI PUSH1 0x40 DUP1 MLOAD PUSH3 0x461BCD PUSH1 0xE5 SHL DUP2 MSTORE PUSH1 0x20 PUSH1 0x4 DUP3 ADD MSTORE PUSH1 0x16 PUSH1 0x24 DUP3 ADD MSTORE PUSH1 0x0 DUP1 MLOAD PUSH1 0x20 PUSH2 0x5F3C DUP4 CODECOPY DUP2 MLOAD SWAP2 MSTORE PUSH1 0x44 DUP3 ADD MSTORE SWAP1 MLOAD SWAP1 DUP2 SWAP1 SUB PUSH1 0x64 ADD SWAP1 REVERT JUMPDEST PUSH2 0x362D DUP2 PUSH2 0x19E8 JUMP JUMPDEST PUSH2 0x366F JUMPI PUSH1 0x40 DUP1 MLOAD PUSH3 0x461BCD PUSH1 0xE5 SHL DUP2 MSTORE PUSH1 0x20 PUSH1 0x4 DUP3 ADD MSTORE PUSH1 0xE PUSH1 0x24 DUP3 ADD MSTORE PUSH14 0x496E64657820696E616374697665 PUSH1 0x90 SHL PUSH1 0x44 DUP3 ADD MSTORE SWAP1 MLOAD SWAP1 DUP2 SWAP1 SUB PUSH1 0x64 ADD SWAP1 REVERT JUMPDEST PUSH1 0x0 DUP3 DUP2 MSTORE PUSH1 0x2 PUSH1 0x20 SWAP1 DUP2 MSTORE PUSH1 0x40 DUP1 DUP4 KECCAK256 DUP1 SLOAD PUSH1 0x1 ADD SWAP1 SSTORE PUSH1 0x6 SWAP1 SWAP2 MSTORE SWAP1 KECCAK256 DUP3 SWAP1 PUSH1 0x7 PUSH1 0x10 DUP3 ADD SLOAD PUSH1 0xFF AND PUSH1 0xA DUP2 GT ISZERO PUSH2 0x36A5 JUMPI INVALID JUMPDEST EQ PUSH2 0x36C2 JUMPI PUSH1 0x40 MLOAD PUSH3 0x461BCD PUSH1 0xE5 SHL DUP2 MSTORE PUSH1 0x4 ADD PUSH2 0x47A SWAP1 PUSH2 0x5725 JUMP JUMPDEST TIMESTAMP PUSH1 0x6 DUP3 ADD SSTORE PUSH1 0x7 DUP2 ADD SLOAD PUSH1 0x5 SLOAD PUSH1 0x40 MLOAD PUSH4 0xB6B5C319 PUSH1 0xE0 SHL DUP2 MSTORE PUSH1 0x1 PUSH1 0x1 PUSH1 0xA0 SHL SUB SWAP1 SWAP2 AND SWAP1 PUSH4 0xB6B5C319 SWAP1 PUSH2 0x36FD SWAP1 DUP5 SWAP1 PUSH1 0x4 ADD PUSH2 0x549B JUMP JUMPDEST PUSH1 0x20 PUSH1 0x40 MLOAD DUP1 DUP4 SUB DUP2 DUP7 DUP1 EXTCODESIZE ISZERO DUP1 ISZERO PUSH2 0x3715 JUMPI PUSH1 0x0 DUP1 REVERT JUMPDEST POP GAS STATICCALL ISZERO DUP1 ISZERO PUSH2 0x3729 JUMPI RETURNDATASIZE PUSH1 0x0 DUP1 RETURNDATACOPY RETURNDATASIZE PUSH1 0x0 REVERT JUMPDEST POP POP POP POP PUSH1 0x40 MLOAD RETURNDATASIZE PUSH1 0x1F NOT PUSH1 0x1F DUP3 ADD AND DUP3 ADD DUP1 PUSH1 0x40 MSTORE POP DUP2 ADD SWAP1 PUSH2 0x374D SWAP2 SWAP1 PUSH2 0x4D74 JUMP JUMPDEST ISZERO PUSH2 0x3923 JUMPI PUSH1 0xE DUP3 ADD SLOAD PUSH1 0xC DUP4 ADD DUP1 SLOAD PUSH1 0x1 SWAP3 PUSH1 0xF DUP7 ADD SWAP3 PUSH1 0x0 SWAP3 SWAP1 SWAP2 PUSH1 0x1 PUSH1 0x1 PUSH1 0x40 SHL SUB AND SWAP1 DUP2 LT PUSH2 0x377C JUMPI INVALID JUMPDEST PUSH1 0x0 SWAP2 DUP3 MSTORE PUSH1 0x20 DUP1 DUP4 KECCAK256 SWAP1 SWAP2 ADD SLOAD PUSH1 0x1 PUSH1 0x1 PUSH1 0xA0 SHL SUB AND DUP4 MSTORE DUP3 ADD SWAP3 SWAP1 SWAP3 MSTORE PUSH1 0x40 ADD DUP2 KECCAK256 DUP1 SLOAD SWAP3 ISZERO ISZERO PUSH3 0x10000 MUL PUSH3 0xFF0000 NOT SWAP1 SWAP4 AND SWAP3 SWAP1 SWAP3 OR SWAP1 SWAP2 SSTORE JUMPDEST PUSH1 0xD DUP4 ADD SLOAD DUP2 LT ISZERO PUSH2 0x381F JUMPI PUSH1 0x0 DUP4 PUSH1 0xF ADD PUSH1 0x0 DUP6 PUSH1 0xD ADD DUP5 DUP2 SLOAD DUP2 LT PUSH2 0x37DD JUMPI INVALID JUMPDEST PUSH1 0x0 SWAP2 DUP3 MSTORE PUSH1 0x20 DUP1 DUP4 KECCAK256 SWAP1 SWAP2 ADD SLOAD PUSH1 0x1 PUSH1 0x1 PUSH1 0xA0 SHL SUB AND DUP4 MSTORE DUP3 ADD SWAP3 SWAP1 SWAP3 MSTORE PUSH1 0x40 ADD SWAP1 KECCAK256 DUP1 SLOAD SWAP2 ISZERO ISZERO PUSH2 0x100 MUL PUSH2 0xFF00 NOT SWAP1 SWAP3 AND SWAP2 SWAP1 SWAP2 OR SWAP1 SSTORE PUSH1 0x1 ADD PUSH2 0x37BA JUMP JUMPDEST POP PUSH1 0xD DUP3 ADD DUP1 SLOAD PUSH1 0xE DUP5 ADD DUP1 SLOAD PUSH1 0x1 PUSH1 0x1 PUSH1 0x40 SHL SUB PUSH1 0x1 PUSH1 0x80 SHL DUP1 DUP4 DIV DUP3 AND SWAP5 SWAP1 SWAP5 SUB AND SWAP1 SWAP3 MUL PUSH8 0xFFFFFFFFFFFFFFFF PUSH1 0x80 SHL NOT SWAP1 SWAP3 AND SWAP2 SWAP1 SWAP2 OR SWAP1 SSTORE PUSH2 0x3867 SWAP1 PUSH1 0x0 PUSH2 0x4A2E JUMP JUMPDEST PUSH1 0xC DUP3 ADD SLOAD PUSH1 0xE DUP4 ADD SLOAD PUSH1 0x1 PUSH1 0x80 SHL SWAP1 DIV PUSH1 0x1 PUSH1 0x1 PUSH1 0x40 SHL SUB AND EQ ISZERO PUSH2 0x38D4 JUMPI PUSH1 0x10 DUP3 ADD DUP1 SLOAD PUSH1 0x8 SWAP2 SWAP1 PUSH1 0xFF NOT AND PUSH1 0x1 DUP4 JUMPDEST MUL OR SWAP1 SSTORE POP PUSH1 0x0 DUP1 MLOAD PUSH1 0x20 PUSH2 0x5F1C DUP4 CODECOPY DUP2 MLOAD SWAP2 MSTORE DUP6 PUSH2 0x38B7 DUP8 PUSH2 0xD0C JUMP JUMPDEST PUSH1 0x40 MLOAD PUSH2 0x38C5 SWAP3 SWAP2 SWAP1 PUSH2 0x5D4E JUMP JUMPDEST PUSH1 0x40 MLOAD DUP1 SWAP2 SUB SWAP1 LOG1 POP POP PUSH2 0x3A97 JUMP JUMPDEST PUSH1 0x10 DUP3 ADD DUP1 SLOAD PUSH1 0x4 SWAP2 SWAP1 PUSH1 0xFF NOT AND PUSH1 0x1 DUP4 MUL OR SWAP1 SSTORE POP POP PUSH1 0xE ADD DUP1 SLOAD PUSH1 0x1 PUSH1 0x40 SHL DUP2 DIV PUSH1 0x1 PUSH1 0x1 PUSH1 0x40 SHL SUB AND PUSH8 0xFFFFFFFFFFFFFFFF NOT SWAP1 SWAP2 AND OR PUSH8 0xFFFFFFFFFFFFFFFF PUSH1 0x40 SHL NOT AND SWAP1 SSTORE PUSH2 0x3A97 JUMP JUMPDEST PUSH1 0x5 SLOAD PUSH1 0x40 MLOAD PUSH4 0x3664F8BF PUSH1 0xE1 SHL DUP2 MSTORE PUSH1 0x1 PUSH1 0x1 PUSH1 0xA0 SHL SUB SWAP1 SWAP2 AND SWAP1 PUSH4 0x6CC9F17E SWAP1 PUSH2 0x3953 SWAP1 DUP5 SWAP1 PUSH1 0x4 ADD PUSH2 0x549B JUMP JUMPDEST PUSH1 0x20 PUSH1 0x40 MLOAD DUP1 DUP4 SUB DUP2 DUP7 DUP1 EXTCODESIZE ISZERO DUP1 ISZERO PUSH2 0x396B JUMPI PUSH1 0x0 DUP1 REVERT JUMPDEST POP GAS STATICCALL ISZERO DUP1 ISZERO PUSH2 0x397F JUMPI RETURNDATASIZE PUSH1 0x0 DUP1 RETURNDATACOPY RETURNDATASIZE PUSH1 0x0 REVERT JUMPDEST POP POP POP POP PUSH1 0x40 MLOAD RETURNDATASIZE PUSH1 0x1F NOT PUSH1 0x1F DUP3 ADD AND DUP3 ADD DUP1 PUSH1 0x40 MSTORE POP DUP2 ADD SWAP1 PUSH2 0x39A3 SWAP2 SWAP1 PUSH2 0x4D74 JUMP JUMPDEST ISZERO PUSH2 0x3A7C JUMPI PUSH1 0x1 DUP3 PUSH1 0xF ADD PUSH1 0x0 DUP5 PUSH1 0xC ADD DUP6 PUSH1 0xE ADD PUSH1 0x8 SWAP1 SLOAD SWAP1 PUSH2 0x100 EXP SWAP1 DIV PUSH1 0x1 PUSH1 0x1 PUSH1 0x40 SHL SUB AND PUSH1 0x1 PUSH1 0x1 PUSH1 0x40 SHL SUB AND DUP2 SLOAD DUP2 LT PUSH2 0x39DF JUMPI INVALID JUMPDEST PUSH1 0x0 SWAP2 DUP3 MSTORE PUSH1 0x20 DUP1 DUP4 KECCAK256 SWAP1 SWAP2 ADD SLOAD PUSH1 0x1 PUSH1 0x1 PUSH1 0xA0 SHL SUB AND DUP4 MSTORE DUP3 ADD SWAP3 SWAP1 SWAP3 MSTORE PUSH1 0x40 ADD SWAP1 KECCAK256 DUP1 SLOAD SWAP2 ISZERO ISZERO PUSH3 0x10000 MUL PUSH3 0xFF0000 NOT SWAP1 SWAP3 AND SWAP2 SWAP1 SWAP2 OR SWAP1 SSTORE PUSH1 0xC DUP3 ADD SLOAD PUSH1 0xE DUP4 ADD SLOAD PUSH1 0x1 PUSH1 0x1 PUSH1 0x40 SHL SUB PUSH1 0x1 PUSH1 0x80 SHL SWAP1 SWAP2 DIV AND EQ ISZERO PUSH2 0x3A52 JUMPI PUSH1 0x10 DUP3 ADD DUP1 SLOAD PUSH1 0x9 SWAP2 SWAP1 PUSH1 0xFF NOT AND PUSH1 0x1 DUP4 PUSH2 0x3899 JUMP JUMPDEST POP PUSH1 0x10 DUP2 ADD DUP1 SLOAD PUSH1 0xFF NOT AND PUSH1 0x6 OR SWAP1 SSTORE PUSH1 0xE ADD DUP1 SLOAD PUSH8 0xFFFFFFFFFFFFFFFF PUSH1 0x40 SHL NOT AND SWAP1 SSTORE PUSH2 0x3A97 JUMP JUMPDEST PUSH1 0x40 MLOAD PUSH3 0x461BCD PUSH1 0xE5 SHL DUP2 MSTORE PUSH1 0x4 ADD PUSH2 0x47A SWAP1 PUSH2 0x5BF0 JUMP JUMPDEST POP POP JUMPDEST POP POP POP JUMP JUMPDEST DUP1 DUP1 PUSH1 0x0 SLOAD GT PUSH2 0x3AE1 JUMPI PUSH1 0x40 DUP1 MLOAD PUSH3 0x461BCD PUSH1 0xE5 SHL DUP2 MSTORE PUSH1 0x20 PUSH1 0x4 DUP3 ADD MSTORE PUSH1 0x16 PUSH1 0x24 DUP3 ADD MSTORE PUSH1 0x0 DUP1 MLOAD PUSH1 0x20 PUSH2 0x5F3C DUP4 CODECOPY DUP2 MLOAD SWAP2 MSTORE PUSH1 0x44 DUP3 ADD MSTORE SWAP1 MLOAD SWAP1 DUP2 SWAP1 SUB PUSH1 0x64 ADD SWAP1 REVERT JUMPDEST PUSH2 0x3AEA DUP2 PUSH2 0x19E8 JUMP JUMPDEST PUSH2 0x3B2C JUMPI PUSH1 0x40 DUP1 MLOAD PUSH3 0x461BCD PUSH1 0xE5 SHL DUP2 MSTORE PUSH1 0x20 PUSH1 0x4 DUP3 ADD MSTORE PUSH1 0xE PUSH1 0x24 DUP3 ADD MSTORE PUSH14 0x496E64657820696E616374697665 PUSH1 0x90 SHL PUSH1 0x44 DUP3 ADD MSTORE SWAP1 MLOAD SWAP1 DUP2 SWAP1 SUB PUSH1 0x64 ADD SWAP1 REVERT JUMPDEST PUSH1 0x0 DUP3 DUP2 MSTORE PUSH1 0x6 PUSH1 0x20 MSTORE PUSH1 0x40 SWAP1 KECCAK256 PUSH1 0x3 PUSH1 0x10 DUP3 ADD SLOAD PUSH1 0xFF AND PUSH1 0xA DUP2 GT ISZERO PUSH2 0x3B4F JUMPI INVALID JUMPDEST EQ PUSH2 0x3B6C JUMPI PUSH1 0x40 MLOAD PUSH3 0x461BCD PUSH1 0xE5 SHL DUP2 MSTORE PUSH1 0x4 ADD PUSH2 0x47A SWAP1 PUSH2 0x5C53 JUMP JUMPDEST PUSH1 0x0 DUP2 PUSH1 0x11 ADD DUP3 PUSH1 0x1 ADD SLOAD DUP2 SLOAD DUP2 LT PUSH2 0x3B81 JUMPI INVALID JUMPDEST SWAP1 PUSH1 0x0 MSTORE PUSH1 0x20 PUSH1 0x0 KECCAK256 ADD SLOAD SWAP1 POP DUP2 PUSH1 0x14 ADD DUP1 SLOAD SWAP1 POP DUP2 LT PUSH2 0x3BB4 JUMPI PUSH1 0x40 MLOAD PUSH3 0x461BCD PUSH1 0xE5 SHL DUP2 MSTORE PUSH1 0x4 ADD PUSH2 0x47A SWAP1 PUSH2 0x56F9 JUMP JUMPDEST PUSH2 0x3BBC PUSH2 0x49A6 JUMP JUMPDEST DUP3 PUSH1 0x14 ADD DUP3 DUP2 SLOAD DUP2 LT PUSH2 0x3BCB JUMPI INVALID JUMPDEST PUSH1 0x0 SWAP2 DUP3 MSTORE PUSH1 0x20 SWAP2 DUP3 SWAP1 KECCAK256 PUSH1 0x40 DUP1 MLOAD PUSH2 0x120 DUP2 ADD DUP3 MSTORE PUSH1 0x5 SWAP4 SWAP1 SWAP4 MUL SWAP1 SWAP2 ADD DUP1 SLOAD PUSH1 0x1 PUSH1 0x1 PUSH1 0x40 SHL SUB DUP2 AND DUP5 MSTORE PUSH1 0x1 PUSH1 0x40 SHL SWAP1 DIV PUSH1 0xFF AND DUP4 DUP6 ADD MSTORE PUSH1 0x1 DUP1 DUP3 ADD DUP1 SLOAD DUP5 MLOAD PUSH1 0x2 PUSH2 0x100 SWAP5 DUP4 AND ISZERO SWAP5 SWAP1 SWAP5 MUL PUSH1 0x0 NOT ADD SWAP1 SWAP2 AND SWAP3 SWAP1 SWAP3 DIV PUSH1 0x1F DUP2 ADD DUP8 SWAP1 DIV DUP8 MUL DUP4 ADD DUP8 ADD DUP6 MSTORE DUP1 DUP4 MSTORE SWAP5 SWAP6 SWAP3 SWAP5 SWAP4 DUP7 ADD SWAP4 SWAP2 SWAP3 SWAP1 SWAP2 SWAP1 DUP4 ADD DUP3 DUP3 DUP1 ISZERO PUSH2 0x3C97 JUMPI DUP1 PUSH1 0x1F LT PUSH2 0x3C6C JUMPI PUSH2 0x100 DUP1 DUP4 SLOAD DIV MUL DUP4 MSTORE SWAP2 PUSH1 0x20 ADD SWAP2 PUSH2 0x3C97 JUMP JUMPDEST DUP3 ADD SWAP2 SWAP1 PUSH1 0x0 MSTORE PUSH1 0x20 PUSH1 0x0 KECCAK256 SWAP1 JUMPDEST DUP2 SLOAD DUP2 MSTORE SWAP1 PUSH1 0x1 ADD SWAP1 PUSH1 0x20 ADD DUP1 DUP4 GT PUSH2 0x3C7A JUMPI DUP3 SWAP1 SUB PUSH1 0x1F AND DUP3 ADD SWAP2 JUMPDEST POP POP POP SWAP2 DUP4 MSTORE POP POP PUSH1 0x2 DUP3 DUP2 ADD DUP1 SLOAD PUSH1 0x40 DUP1 MLOAD PUSH1 0x20 PUSH1 0x1 DUP5 AND ISZERO PUSH2 0x100 MUL PUSH1 0x0 NOT ADD SWAP1 SWAP4 AND SWAP5 SWAP1 SWAP5 DIV PUSH1 0x1F DUP2 ADD DUP4 SWAP1 DIV DUP4 MUL DUP6 ADD DUP4 ADD SWAP1 SWAP2 MSTORE DUP1 DUP5 MSTORE SWAP4 DUP2 ADD SWAP4 SWAP1 DUP4 ADD DUP3 DUP3 DUP1 ISZERO PUSH2 0x3D29 JUMPI DUP1 PUSH1 0x1F LT PUSH2 0x3CFE JUMPI PUSH2 0x100 DUP1 DUP4 SLOAD DIV MUL DUP4 MSTORE SWAP2 PUSH1 0x20 ADD SWAP2 PUSH2 0x3D29 JUMP JUMPDEST DUP3 ADD SWAP2 SWAP1 PUSH1 0x0 MSTORE PUSH1 0x20 PUSH1 0x0 KECCAK256 SWAP1 JUMPDEST DUP2 SLOAD DUP2 MSTORE SWAP1 PUSH1 0x1 ADD SWAP1 PUSH1 0x20 ADD DUP1 DUP4 GT PUSH2 0x3D0C JUMPI DUP3 SWAP1 SUB PUSH1 0x1F AND DUP3 ADD SWAP2 JUMPDEST POP POP POP SWAP2 DUP4 MSTORE POP POP PUSH1 0x3 DUP3 ADD SLOAD PUSH1 0x20 DUP3 ADD MSTORE PUSH1 0x4 SWAP1 SWAP2 ADD SLOAD PUSH1 0x1 PUSH1 0x1 PUSH1 0xA0 SHL SUB DUP2 AND PUSH1 0x40 DUP4 ADD MSTORE PUSH1 0xFF PUSH1 0x1 PUSH1 0xA0 SHL DUP3 DIV DUP2 AND ISZERO ISZERO PUSH1 0x60 DUP5 ADD MSTORE PUSH1 0x1 PUSH1 0xA8 SHL DUP3 DIV DUP2 AND ISZERO ISZERO PUSH1 0x80 DUP5 ADD MSTORE PUSH1 0x1 PUSH1 0xB0 SHL SWAP1 SWAP2 DIV AND ISZERO ISZERO PUSH1 0xA0 SWAP1 SWAP2 ADD MSTORE PUSH1 0xE0 DUP2 ADD MLOAD SWAP1 SWAP2 POP PUSH2 0x3DA7 JUMPI PUSH1 0x40 MLOAD PUSH3 0x461BCD PUSH1 0xE5 SHL DUP2 MSTORE PUSH1 0x4 ADD PUSH2 0x47A SWAP1 PUSH2 0x5A83 JUMP JUMPDEST PUSH1 0x4 DUP1 SLOAD PUSH1 0x80 DUP4 ADD MLOAD PUSH1 0x20 DUP5 ADD MLOAD PUSH1 0x40 MLOAD PUSH4 0x2B6BAA37 PUSH1 0xE2 SHL DUP2 MSTORE PUSH1 0x1 PUSH1 0x1 PUSH1 0xA0 SHL SUB SWAP1 SWAP4 AND SWAP4 PUSH4 0xADAEA8DC SWAP4 PUSH2 0x3DE0 SWAP4 SWAP3 SWAP2 ADD PUSH2 0x54A4 JUMP JUMPDEST PUSH1 0x20 PUSH1 0x40 MLOAD DUP1 DUP4 SUB DUP2 DUP7 DUP1 EXTCODESIZE ISZERO DUP1 ISZERO PUSH2 0x3DF8 JUMPI PUSH1 0x0 DUP1 REVERT JUMPDEST POP GAS STATICCALL ISZERO DUP1 ISZERO PUSH2 0x3E0C JUMPI RETURNDATASIZE PUSH1 0x0 DUP1 RETURNDATACOPY RETURNDATASIZE PUSH1 0x0 REVERT JUMPDEST POP POP POP POP PUSH1 0x40 MLOAD RETURNDATASIZE PUSH1 0x1F NOT PUSH1 0x1F DUP3 ADD AND DUP3 ADD DUP1 PUSH1 0x40 MSTORE POP DUP2 ADD SWAP1 PUSH2 0x3E30 SWAP2 SWAP1 PUSH2 0x4D74 JUMP JUMPDEST PUSH2 0x3E4C JUMPI PUSH1 0x40 MLOAD PUSH3 0x461BCD PUSH1 0xE5 SHL DUP2 MSTORE PUSH1 0x4 ADD PUSH2 0x47A SWAP1 PUSH2 0x58A7 JUMP JUMPDEST PUSH1 0x1 DUP1 DUP5 ADD DUP1 SLOAD SWAP1 SWAP2 ADD SWAP1 DUP2 SWAP1 SSTORE TIMESTAMP PUSH1 0x6 DUP6 ADD SSTORE PUSH1 0x11 DUP5 ADD SLOAD EQ ISZERO PUSH2 0x3A94 JUMPI POP POP PUSH1 0x10 ADD DUP1 SLOAD PUSH1 0xFF NOT AND PUSH1 0x4 OR SWAP1 SSTORE POP POP JUMP JUMPDEST DUP2 DUP1 PUSH1 0x0 SLOAD GT PUSH2 0x3EC4 JUMPI PUSH1 0x40 DUP1 MLOAD PUSH3 0x461BCD PUSH1 0xE5 SHL DUP2 MSTORE PUSH1 0x20 PUSH1 0x4 DUP3 ADD MSTORE PUSH1 0x16 PUSH1 0x24 DUP3 ADD MSTORE PUSH1 0x0 DUP1 MLOAD PUSH1 0x20 PUSH2 0x5F3C DUP4 CODECOPY DUP2 MLOAD SWAP2 MSTORE PUSH1 0x44 DUP3 ADD MSTORE SWAP1 MLOAD SWAP1 DUP2 SWAP1 SUB PUSH1 0x64 ADD SWAP1 REVERT JUMPDEST PUSH2 0x3ECD DUP2 PUSH2 0x19E8 JUMP JUMPDEST PUSH2 0x3F0F JUMPI PUSH1 0x40 DUP1 MLOAD PUSH3 0x461BCD PUSH1 0xE5 SHL DUP2 MSTORE PUSH1 0x20 PUSH1 0x4 DUP3 ADD MSTORE PUSH1 0xE PUSH1 0x24 DUP3 ADD MSTORE PUSH14 0x496E64657820696E616374697665 PUSH1 0x90 SHL PUSH1 0x44 DUP3 ADD MSTORE SWAP1 MLOAD SWAP1 DUP2 SWAP1 SUB PUSH1 0x64 ADD SWAP1 REVERT JUMPDEST PUSH1 0x0 DUP4 DUP2 MSTORE PUSH1 0x6 PUSH1 0x20 MSTORE PUSH1 0x40 DUP2 KECCAK256 DUP5 SWAP2 PUSH1 0x10 DUP3 ADD SLOAD PUSH1 0xFF AND PUSH1 0xA DUP2 GT ISZERO PUSH2 0x3F32 JUMPI INVALID JUMPDEST EQ PUSH2 0x3F4F JUMPI PUSH1 0x40 MLOAD PUSH3 0x461BCD PUSH1 0xE5 SHL DUP2 MSTORE PUSH1 0x4 ADD PUSH2 0x47A SWAP1 PUSH2 0x598A JUMP JUMPDEST PUSH1 0x12 DUP2 ADD SLOAD PUSH1 0x2 DUP3 ADD SLOAD LT PUSH2 0x3F76 JUMPI PUSH1 0x40 MLOAD PUSH3 0x461BCD PUSH1 0xE5 SHL DUP2 MSTORE PUSH1 0x4 ADD PUSH2 0x47A SWAP1 PUSH2 0x59BD JUMP JUMPDEST PUSH1 0x0 DUP2 PUSH1 0x12 ADD DUP3 PUSH1 0x2 ADD SLOAD DUP2 SLOAD DUP2 LT PUSH2 0x3F8B JUMPI INVALID JUMPDEST SWAP1 PUSH1 0x0 MSTORE PUSH1 0x20 PUSH1 0x0 KECCAK256 ADD SLOAD SWAP1 POP DUP2 PUSH1 0x14 ADD DUP1 SLOAD SWAP1 POP DUP2 LT PUSH2 0x3FBE JUMPI PUSH1 0x40 MLOAD PUSH3 0x461BCD PUSH1 0xE5 SHL DUP2 MSTORE PUSH1 0x4 ADD PUSH2 0x47A SWAP1 PUSH2 0x587A JUMP JUMPDEST PUSH2 0x3FC6 PUSH2 0x49A6 JUMP JUMPDEST DUP3 PUSH1 0x14 ADD DUP3 DUP2 SLOAD DUP2 LT PUSH2 0x3FD5 JUMPI INVALID JUMPDEST PUSH1 0x0 SWAP2 DUP3 MSTORE PUSH1 0x20 SWAP2 DUP3 SWAP1 KECCAK256 PUSH1 0x40 DUP1 MLOAD PUSH2 0x120 DUP2 ADD DUP3 MSTORE PUSH1 0x5 SWAP4 SWAP1 SWAP4 MUL SWAP1 SWAP2 ADD DUP1 SLOAD PUSH1 0x1 PUSH1 0x1 PUSH1 0x40 SHL SUB DUP2 AND DUP5 MSTORE PUSH1 0x1 PUSH1 0x40 SHL SWAP1 DIV PUSH1 0xFF AND DUP4 DUP6 ADD MSTORE PUSH1 0x1 DUP1 DUP3 ADD DUP1 SLOAD DUP5 MLOAD PUSH1 0x2 PUSH2 0x100 SWAP5 DUP4 AND ISZERO SWAP5 SWAP1 SWAP5 MUL PUSH1 0x0 NOT ADD SWAP1 SWAP2 AND SWAP3 SWAP1 SWAP3 DIV PUSH1 0x1F DUP2 ADD DUP8 SWAP1 DIV DUP8 MUL DUP4 ADD DUP8 ADD DUP6 MSTORE DUP1 DUP4 MSTORE SWAP5 SWAP6 SWAP3 SWAP5 SWAP4 DUP7 ADD SWAP4 SWAP2 SWAP3 SWAP1 SWAP2 SWAP1 DUP4 ADD DUP3 DUP3 DUP1 ISZERO PUSH2 0x40A1 JUMPI DUP1 PUSH1 0x1F LT PUSH2 0x4076 JUMPI PUSH2 0x100 DUP1 DUP4 SLOAD DIV MUL DUP4 MSTORE SWAP2 PUSH1 0x20 ADD SWAP2 PUSH2 0x40A1 JUMP JUMPDEST DUP3 ADD SWAP2 SWAP1 PUSH1 0x0 MSTORE PUSH1 0x20 PUSH1 0x0 KECCAK256 SWAP1 JUMPDEST DUP2 SLOAD DUP2 MSTORE SWAP1 PUSH1 0x1 ADD SWAP1 PUSH1 0x20 ADD DUP1 DUP4 GT PUSH2 0x4084 JUMPI DUP3 SWAP1 SUB PUSH1 0x1F AND DUP3 ADD SWAP2 JUMPDEST POP POP POP SWAP2 DUP4 MSTORE POP POP PUSH1 0x2 DUP3 DUP2 ADD DUP1 SLOAD PUSH1 0x40 DUP1 MLOAD PUSH1 0x20 PUSH1 0x1 DUP5 AND ISZERO PUSH2 0x100 MUL PUSH1 0x0 NOT ADD SWAP1 SWAP4 AND SWAP5 SWAP1 SWAP5 DIV PUSH1 0x1F DUP2 ADD DUP4 SWAP1 DIV DUP4 MUL DUP6 ADD DUP4 ADD SWAP1 SWAP2 MSTORE DUP1 DUP5 MSTORE SWAP4 DUP2 ADD SWAP4 SWAP1 DUP4 ADD DUP3 DUP3 DUP1 ISZERO PUSH2 0x4133 JUMPI DUP1 PUSH1 0x1F LT PUSH2 0x4108 JUMPI PUSH2 0x100 DUP1 DUP4 SLOAD DIV MUL DUP4 MSTORE SWAP2 PUSH1 0x20 ADD SWAP2 PUSH2 0x4133 JUMP JUMPDEST DUP3 ADD SWAP2 SWAP1 PUSH1 0x0 MSTORE PUSH1 0x20 PUSH1 0x0 KECCAK256 SWAP1 JUMPDEST DUP2 SLOAD DUP2 MSTORE SWAP1 PUSH1 0x1 ADD SWAP1 PUSH1 0x20 ADD DUP1 DUP4 GT PUSH2 0x4116 JUMPI DUP3 SWAP1 SUB PUSH1 0x1F AND DUP3 ADD SWAP2 JUMPDEST POP POP POP SWAP2 DUP4 MSTORE POP POP PUSH1 0x3 DUP3 ADD SLOAD PUSH1 0x20 DUP3 ADD MSTORE PUSH1 0x4 SWAP1 SWAP2 ADD SLOAD PUSH1 0x1 PUSH1 0x1 PUSH1 0xA0 SHL SUB DUP2 AND PUSH1 0x40 DUP4 ADD MSTORE PUSH1 0xFF PUSH1 0x1 PUSH1 0xA0 SHL DUP3 DIV DUP2 AND ISZERO ISZERO PUSH1 0x60 DUP5 ADD MSTORE PUSH1 0x1 PUSH1 0xA8 SHL DUP3 DIV DUP2 AND ISZERO ISZERO PUSH1 0x80 DUP5 ADD MSTORE PUSH1 0x1 PUSH1 0xB0 SHL SWAP1 SWAP2 DIV AND ISZERO ISZERO PUSH1 0xA0 SWAP1 SWAP2 ADD MSTORE PUSH1 0x13 DUP5 ADD DUP1 SLOAD SWAP2 SWAP3 POP PUSH1 0x0 SWAP2 DUP5 SWAP1 DUP2 LT PUSH2 0x41A3 JUMPI INVALID JUMPDEST SWAP1 PUSH1 0x0 MSTORE PUSH1 0x20 PUSH1 0x0 KECCAK256 ADD SLOAD EQ PUSH2 0x41CB JUMPI PUSH1 0x40 MLOAD PUSH3 0x461BCD PUSH1 0xE5 SHL DUP2 MSTORE PUSH1 0x4 ADD PUSH2 0x47A SWAP1 PUSH2 0x57BC JUMP JUMPDEST DUP1 PUSH1 0xC0 ADD MLOAD PUSH2 0x41EC JUMPI PUSH1 0x40 MLOAD PUSH3 0x461BCD PUSH1 0xE5 SHL DUP2 MSTORE PUSH1 0x4 ADD PUSH2 0x47A SWAP1 PUSH2 0x5C1C JUMP JUMPDEST PUSH1 0xA0 DUP2 ADD MLOAD PUSH1 0x1 PUSH1 0x1 PUSH1 0xA0 SHL SUB AND CALLER EQ PUSH2 0x4218 JUMPI PUSH1 0x40 MLOAD PUSH3 0x461BCD PUSH1 0xE5 SHL DUP2 MSTORE PUSH1 0x4 ADD PUSH2 0x47A SWAP1 PUSH2 0x5B7D JUMP JUMPDEST PUSH1 0x0 DUP8 DUP2 MSTORE PUSH1 0x6 PUSH1 0x20 MSTORE PUSH1 0x40 DUP2 KECCAK256 PUSH1 0x2 DUP2 ADD SLOAD PUSH1 0x12 DUP3 ADD DUP1 SLOAD SWAP3 SWAP4 SWAP3 SWAP1 SWAP2 SWAP1 DUP2 LT PUSH2 0x423F JUMPI INVALID JUMPDEST SWAP1 PUSH1 0x0 MSTORE PUSH1 0x20 PUSH1 0x0 KECCAK256 ADD SLOAD SWAP1 POP PUSH1 0x0 DUP3 PUSH1 0x14 ADD DUP3 DUP2 SLOAD DUP2 LT PUSH2 0x425D JUMPI INVALID JUMPDEST SWAP1 PUSH1 0x0 MSTORE PUSH1 0x20 PUSH1 0x0 KECCAK256 SWAP1 PUSH1 0x5 MUL ADD SWAP1 POP DUP1 PUSH1 0x4 ADD PUSH1 0x15 SWAP1 SLOAD SWAP1 PUSH2 0x100 EXP SWAP1 DIV PUSH1 0xFF AND ISZERO PUSH2 0x429C JUMPI PUSH1 0x40 MLOAD PUSH3 0x461BCD PUSH1 0xE5 SHL DUP2 MSTORE PUSH1 0x4 ADD PUSH2 0x47A SWAP1 PUSH2 0x5500 JUMP JUMPDEST DUP1 SLOAD DUP10 MLOAD PUSH1 0x1 PUSH1 0x40 SHL SWAP1 SWAP2 DIV PUSH1 0xFF AND PUSH1 0x2 EXP LT ISZERO PUSH2 0x42CC JUMPI PUSH1 0x40 MLOAD PUSH3 0x461BCD PUSH1 0xE5 SHL DUP2 MSTORE PUSH1 0x4 ADD PUSH2 0x47A SWAP1 PUSH2 0x5CEB JUMP JUMPDEST DUP1 SLOAD DUP10 MLOAD DUP11 SWAP2 PUSH1 0x1 PUSH1 0x40 SHL SWAP1 DIV PUSH1 0xFF AND PUSH1 0x2 EXP GT ISZERO PUSH2 0x435E JUMPI DUP10 MLOAD DUP3 SLOAD DUP12 SWAP2 PUSH1 0x1 PUSH1 0x40 SHL SWAP1 SWAP2 DIV PUSH1 0xFF AND PUSH1 0x2 EXP SUB PUSH1 0x1 PUSH1 0x1 PUSH1 0x40 SHL SUB DUP2 GT DUP1 ISZERO PUSH2 0x430F JUMPI PUSH1 0x0 DUP1 REVERT JUMPDEST POP PUSH1 0x40 MLOAD SWAP1 DUP1 DUP3 MSTORE DUP1 PUSH1 0x1F ADD PUSH1 0x1F NOT AND PUSH1 0x20 ADD DUP3 ADD PUSH1 0x40 MSTORE DUP1 ISZERO PUSH2 0x433A JUMPI PUSH1 0x20 DUP3 ADD DUP2 DUP1 CALLDATASIZE DUP4 CALLDATACOPY ADD SWAP1 POP JUMPDEST POP PUSH1 0x40 MLOAD PUSH1 0x20 ADD PUSH2 0x434C SWAP3 SWAP2 SWAP1 PUSH2 0x52DF JUMP JUMPDEST PUSH1 0x40 MLOAD PUSH1 0x20 DUP2 DUP4 SUB SUB DUP2 MSTORE SWAP1 PUSH1 0x40 MSTORE SWAP1 POP JUMPDEST PUSH1 0x60 PUSH2 0x4369 DUP3 PUSH2 0x47DC JUMP JUMPDEST SWAP1 POP PUSH1 0x0 PUSH20 0x0 PUSH4 0x82B0EAB8 DUP4 PUSH1 0x40 MLOAD DUP3 PUSH4 0xFFFFFFFF AND PUSH1 0xE0 SHL DUP2 MSTORE PUSH1 0x4 ADD PUSH2 0x43A4 SWAP2 SWAP1 PUSH2 0x5380 JUMP JUMPDEST PUSH1 0x20 PUSH1 0x40 MLOAD DUP1 DUP4 SUB DUP2 DUP7 DUP1 EXTCODESIZE ISZERO DUP1 ISZERO PUSH2 0x43BC JUMPI PUSH1 0x0 DUP1 REVERT JUMPDEST POP GAS DELEGATECALL ISZERO DUP1 ISZERO PUSH2 0x43D0 JUMPI RETURNDATASIZE PUSH1 0x0 DUP1 RETURNDATACOPY RETURNDATASIZE PUSH1 0x0 REVERT JUMPDEST POP POP POP POP PUSH1 0x40 MLOAD RETURNDATASIZE PUSH1 0x1F NOT PUSH1 0x1F DUP3 ADD AND DUP3 ADD DUP1 PUSH1 0x40 MSTORE POP DUP2 ADD SWAP1 PUSH2 0x43F4 SWAP2 SWAP1 PUSH2 0x4D97 JUMP JUMPDEST DUP13 MLOAD SWAP1 SWAP2 POP PUSH2 0x440C SWAP1 PUSH1 0x1 DUP7 ADD SWAP1 PUSH1 0x20 DUP16 ADD SWAP1 PUSH2 0x48F3 JUMP JUMPDEST POP DUP1 DUP7 PUSH1 0x13 ADD DUP7 DUP2 SLOAD DUP2 LT PUSH2 0x441D JUMPI INVALID JUMPDEST PUSH1 0x0 SWAP2 DUP3 MSTORE PUSH1 0x20 SWAP1 SWAP2 KECCAK256 ADD SSTORE PUSH1 0x2 DUP7 ADD DUP1 SLOAD PUSH1 0x1 ADD SWAP1 DUP2 SWAP1 SSTORE TIMESTAMP PUSH1 0x6 DUP9 ADD SSTORE PUSH1 0x12 DUP8 ADD SLOAD EQ ISZERO PUSH2 0x4475 JUMPI PUSH1 0x11 DUP7 ADD SLOAD ISZERO PUSH2 0x4465 JUMPI PUSH1 0x10 DUP7 ADD DUP1 SLOAD PUSH1 0xFF NOT AND PUSH1 0x2 OR SWAP1 SSTORE PUSH2 0x4475 JUMP JUMPDEST PUSH1 0x10 DUP7 ADD DUP1 SLOAD PUSH1 0xFF NOT AND PUSH1 0x4 OR SWAP1 SSTORE JUMPDEST PUSH32 0xCF09A543FDBD213491AC20EFABB93FBBC4BE4DABB386C479DC6356050ED37C3E DUP14 DUP8 PUSH1 0x14 ADD DUP8 DUP2 SLOAD DUP2 LT PUSH2 0x44A6 JUMPI INVALID JUMPDEST SWAP1 PUSH1 0x0 MSTORE PUSH1 0x20 PUSH1 0x0 KECCAK256 SWAP1 PUSH1 0x5 MUL ADD PUSH1 0x40 MLOAD PUSH2 0xA67 SWAP3 SWAP2 SWAP1 PUSH2 0x5D5C JUMP JUMPDEST PUSH1 0x0 PUSH1 0x1 PUSH2 0x1F4 PUSH1 0x28 DUP4 PUSH1 0x0 DUP7 DUP2 MSTORE PUSH1 0x6 PUSH1 0x20 MSTORE PUSH1 0x40 SWAP1 KECCAK256 PUSH1 0x10 ADD SLOAD PUSH1 0xFF AND PUSH1 0xA DUP2 GT ISZERO PUSH2 0x44EC JUMPI INVALID JUMPDEST EQ ISZERO PUSH2 0x450E JUMPI POP POP POP PUSH1 0x0 DUP3 DUP2 MSTORE PUSH1 0x6 PUSH1 0x20 MSTORE PUSH1 0x40 SWAP1 KECCAK256 PUSH1 0x5 ADD SLOAD SWAP1 POP PUSH2 0x19FB JUMP JUMPDEST PUSH1 0x3 PUSH1 0x0 DUP7 DUP2 MSTORE PUSH1 0x6 PUSH1 0x20 MSTORE PUSH1 0x40 SWAP1 KECCAK256 PUSH1 0x10 ADD SLOAD PUSH1 0xFF AND PUSH1 0xA DUP2 GT ISZERO PUSH2 0x4530 JUMPI INVALID JUMPDEST EQ ISZERO PUSH2 0x4556 JUMPI POP POP POP PUSH1 0x0 DUP3 DUP2 MSTORE PUSH1 0x6 PUSH1 0x20 MSTORE PUSH1 0x40 SWAP1 KECCAK256 PUSH1 0x5 ADD SLOAD PUSH2 0x960 ADD SWAP1 POP PUSH2 0x19FB JUMP JUMPDEST PUSH1 0x2 PUSH1 0x0 DUP7 DUP2 MSTORE PUSH1 0x6 PUSH1 0x20 MSTORE PUSH1 0x40 SWAP1 KECCAK256 PUSH1 0x10 ADD SLOAD PUSH1 0xFF AND PUSH1 0xA DUP2 GT ISZERO PUSH2 0x4578 JUMPI INVALID JUMPDEST EQ ISZERO PUSH2 0x45A5 JUMPI POP POP POP PUSH1 0x0 DUP3 DUP2 MSTORE PUSH1 0x6 PUSH1 0x20 MSTORE PUSH1 0x40 SWAP1 KECCAK256 PUSH1 0x5 DUP2 ADD SLOAD PUSH1 0x11 SWAP1 SWAP2 ADD SLOAD MUL PUSH1 0x2 MUL SWAP1 POP PUSH2 0x19FB JUMP JUMPDEST PUSH1 0x4 PUSH1 0x0 DUP7 DUP2 MSTORE PUSH1 0x6 PUSH1 0x20 MSTORE PUSH1 0x40 SWAP1 KECCAK256 PUSH1 0x10 ADD SLOAD PUSH1 0xFF AND PUSH1 0xA DUP2 GT ISZERO PUSH2 0x45C7 JUMPI INVALID JUMPDEST EQ ISZERO PUSH2 0x45FE JUMPI PUSH1 0x0 DUP6 DUP2 MSTORE PUSH1 0x6 PUSH1 0x20 MSTORE PUSH1 0x40 SWAP1 KECCAK256 PUSH1 0x5 DUP2 ADD SLOAD PUSH1 0x3 SWAP1 SWAP2 ADD SLOAD PUSH5 0xE8D4A51000 SWAP1 DUP5 MUL JUMPDEST DIV DUP3 ADD ADD SWAP4 POP POP POP POP PUSH2 0x19FB JUMP JUMPDEST PUSH1 0x6 PUSH1 0x0 DUP7 DUP2 MSTORE PUSH1 0x6 PUSH1 0x20 MSTORE PUSH1 0x40 SWAP1 KECCAK256 PUSH1 0x10 ADD SLOAD PUSH1 0xFF AND PUSH1 0xA DUP2 GT ISZERO PUSH2 0x4620 JUMPI INVALID JUMPDEST EQ ISZERO PUSH2 0x464D JUMPI PUSH1 0x0 DUP6 DUP2 MSTORE PUSH1 0x6 PUSH1 0x20 MSTORE PUSH1 0x40 SWAP1 KECCAK256 PUSH1 0x5 DUP2 ADD SLOAD PUSH1 0x3 SWAP1 SWAP2 ADD SLOAD PUSH5 0xE8D4A51000 SWAP1 DUP5 MUL PUSH2 0x45F0 JUMP JUMPDEST PUSH1 0x7 PUSH1 0x0 DUP7 DUP2 MSTORE PUSH1 0x6 PUSH1 0x20 MSTORE PUSH1 0x40 SWAP1 KECCAK256 PUSH1 0x10 ADD SLOAD PUSH1 0xFF AND PUSH1 0xA DUP2 GT ISZERO PUSH2 0x466F JUMPI INVALID JUMPDEST EQ ISZERO PUSH2 0x4722 JUMPI PUSH1 0x0 DUP6 DUP2 MSTORE PUSH1 0x6 PUSH1 0x20 MSTORE PUSH1 0x40 SWAP1 DUP2 SWAP1 KECCAK256 PUSH1 0x5 DUP1 DUP3 ADD SLOAD SWAP1 SLOAD PUSH1 0x3 SWAP1 SWAP3 ADD SLOAD SWAP3 MLOAD PUSH4 0x1B8798D5 PUSH1 0xE1 SHL DUP2 MSTORE SWAP1 SWAP3 PUSH1 0x1 PUSH1 0x1 PUSH1 0xA0 SHL SUB SWAP1 SWAP3 AND SWAP2 PUSH4 0x370F31AA SWAP2 PUSH2 0x46C7 SWAP2 DUP6 SWAP2 DUP8 SWAP2 DUP11 SWAP2 DUP11 SWAP1 PUSH1 0x4 ADD PUSH2 0x5E33 JUMP JUMPDEST PUSH1 0x20 PUSH1 0x40 MLOAD DUP1 DUP4 SUB DUP2 DUP7 DUP1 EXTCODESIZE ISZERO DUP1 ISZERO PUSH2 0x46DF JUMPI PUSH1 0x0 DUP1 REVERT JUMPDEST POP GAS STATICCALL ISZERO DUP1 ISZERO PUSH2 0x46F3 JUMPI RETURNDATASIZE PUSH1 0x0 DUP1 RETURNDATACOPY RETURNDATASIZE PUSH1 0x0 REVERT JUMPDEST POP POP POP POP PUSH1 0x40 MLOAD RETURNDATASIZE PUSH1 0x1F NOT PUSH1 0x1F DUP3 ADD AND DUP3 ADD DUP1 PUSH1 0x40 MSTORE POP DUP2 ADD SWAP1 PUSH2 0x4717 SWAP2 SWAP1 PUSH2 0x4D97 JUMP JUMPDEST ADD SWAP4 POP POP POP POP PUSH2 0x19FB JUMP JUMPDEST PUSH1 0x9 PUSH1 0x0 DUP7 DUP2 MSTORE PUSH1 0x6 PUSH1 0x20 MSTORE PUSH1 0x40 SWAP1 KECCAK256 PUSH1 0x10 ADD SLOAD PUSH1 0xFF AND PUSH1 0xA DUP2 GT ISZERO PUSH2 0x4744 JUMPI INVALID JUMPDEST EQ DUP1 PUSH2 0x476F JUMPI POP PUSH1 0x8 PUSH1 0x0 DUP7 DUP2 MSTORE PUSH1 0x6 PUSH1 0x20 MSTORE PUSH1 0x40 SWAP1 KECCAK256 PUSH1 0x10 ADD SLOAD PUSH1 0xFF AND PUSH1 0xA DUP2 GT ISZERO PUSH2 0x476D JUMPI INVALID JUMPDEST EQ JUMPDEST DUP1 PUSH2 0x4799 JUMPI POP PUSH1 0x5 PUSH1 0x0 DUP7 DUP2 MSTORE PUSH1 0x6 PUSH1 0x20 MSTORE PUSH1 0x40 SWAP1 KECCAK256 PUSH1 0x10 ADD SLOAD PUSH1 0xFF AND PUSH1 0xA DUP2 GT ISZERO PUSH2 0x4797 JUMPI INVALID JUMPDEST EQ JUMPDEST DUP1 PUSH2 0x47C3 JUMPI POP PUSH1 0xA PUSH1 0x0 DUP7 DUP2 MSTORE PUSH1 0x6 PUSH1 0x20 MSTORE PUSH1 0x40 SWAP1 KECCAK256 PUSH1 0x10 ADD SLOAD PUSH1 0xFF AND PUSH1 0xA DUP2 GT ISZERO PUSH2 0x47C1 JUMPI INVALID JUMPDEST EQ JUMPDEST ISZERO PUSH2 0x47D4 JUMPI PUSH1 0x0 SWAP4 POP POP POP POP PUSH2 0x19FB JUMP JUMPDEST POP POP POP SWAP2 SWAP1 POP JUMP JUMPDEST PUSH1 0x60 PUSH1 0x0 PUSH1 0x8 DUP4 MLOAD DUP2 PUSH2 0x47EB JUMPI INVALID JUMPDEST DIV SWAP1 POP PUSH1 0x60 DUP2 PUSH1 0x1 PUSH1 0x1 PUSH1 0x40 SHL SUB DUP2 GT DUP1 ISZERO PUSH2 0x4806 JUMPI PUSH1 0x0 DUP1 REVERT JUMPDEST POP PUSH1 0x40 MLOAD SWAP1 DUP1 DUP3 MSTORE DUP1 PUSH1 0x20 MUL PUSH1 0x20 ADD DUP3 ADD PUSH1 0x40 MSTORE DUP1 ISZERO PUSH2 0x4830 JUMPI DUP2 PUSH1 0x20 ADD PUSH1 0x20 DUP3 MUL DUP1 CALLDATASIZE DUP4 CALLDATACOPY ADD SWAP1 POP JUMPDEST POP SWAP1 POP PUSH1 0x0 JUMPDEST DUP3 DUP2 LT ISZERO PUSH2 0x48C8 JUMPI PUSH1 0x0 DUP1 JUMPDEST PUSH1 0x8 DUP2 LT ISZERO PUSH2 0x4880 JUMPI PUSH1 0x0 DUP8 DUP3 DUP6 PUSH1 0x8 MUL ADD DUP2 MLOAD DUP2 LT PUSH2 0x485E JUMPI INVALID JUMPDEST ADD PUSH1 0x20 ADD MLOAD PUSH1 0x1 PUSH1 0x1 PUSH1 0xF8 SHL SUB NOT AND PUSH1 0x8 DUP4 MUL SHR SWAP3 SWAP1 SWAP3 OR SWAP2 POP PUSH1 0x1 ADD PUSH2 0x4842 JUMP JUMPDEST POP DUP1 PUSH1 0x40 MLOAD PUSH1 0x20 ADD PUSH2 0x4892 SWAP2 SWAP1 PUSH2 0x52CA JUMP JUMPDEST PUSH1 0x40 MLOAD PUSH1 0x20 DUP2 DUP4 SUB SUB DUP2 MSTORE SWAP1 PUSH1 0x40 MSTORE DUP1 MLOAD SWAP1 PUSH1 0x20 ADD KECCAK256 DUP4 DUP4 DUP2 MLOAD DUP2 LT PUSH2 0x48B4 JUMPI INVALID JUMPDEST PUSH1 0x20 SWAP1 DUP2 MUL SWAP2 SWAP1 SWAP2 ADD ADD MSTORE POP PUSH1 0x1 ADD PUSH2 0x4836 JUMP JUMPDEST POP SWAP4 SWAP3 POP POP POP JUMP JUMPDEST PUSH1 0x0 SWAP1 DUP2 MSTORE PUSH1 0x1 PUSH1 0x20 SWAP1 DUP2 MSTORE PUSH1 0x40 DUP1 DUP4 KECCAK256 DUP1 SLOAD PUSH1 0xFF NOT AND SWAP1 SSTORE PUSH1 0x2 SWAP1 SWAP2 MSTORE DUP2 KECCAK256 SSTORE JUMP JUMPDEST DUP3 DUP1 SLOAD PUSH1 0x1 DUP2 PUSH1 0x1 AND ISZERO PUSH2 0x100 MUL SUB AND PUSH1 0x2 SWAP1 DIV SWAP1 PUSH1 0x0 MSTORE PUSH1 0x20 PUSH1 0x0 KECCAK256 SWAP1 PUSH1 0x1F ADD PUSH1 0x20 SWAP1 DIV DUP2 ADD SWAP3 DUP3 PUSH2 0x4929 JUMPI PUSH1 0x0 DUP6 SSTORE PUSH2 0x496F JUMP JUMPDEST DUP3 PUSH1 0x1F LT PUSH2 0x4942 JUMPI DUP1 MLOAD PUSH1 0xFF NOT AND DUP4 DUP1 ADD OR DUP6 SSTORE PUSH2 0x496F JUMP JUMPDEST DUP3 DUP1 ADD PUSH1 0x1 ADD DUP6 SSTORE DUP3 ISZERO PUSH2 0x496F JUMPI SWAP2 DUP3 ADD JUMPDEST DUP3 DUP2 GT ISZERO PUSH2 0x496F JUMPI DUP3 MLOAD DUP3 SSTORE SWAP2 PUSH1 0x20 ADD SWAP2 SWAP1 PUSH1 0x1 ADD SWAP1 PUSH2 0x4954 JUMP JUMPDEST POP PUSH2 0x497B SWAP3 SWAP2 POP PUSH2 0x4A70 JUMP JUMPDEST POP SWAP1 JUMP JUMPDEST PUSH1 0x40 DUP1 MLOAD PUSH1 0x80 DUP2 ADD DUP3 MSTORE PUSH1 0x0 DUP1 DUP3 MSTORE PUSH1 0x20 DUP3 ADD DUP2 SWAP1 MSTORE SWAP2 DUP2 ADD DUP3 SWAP1 MSTORE PUSH1 0x60 DUP2 ADD SWAP2 SWAP1 SWAP2 MSTORE SWAP1 JUMP JUMPDEST PUSH1 0x40 DUP1 MLOAD PUSH2 0x120 DUP2 ADD DUP3 MSTORE PUSH1 0x0 DUP1 DUP3 MSTORE PUSH1 0x20 DUP3 ADD DUP2 SWAP1 MSTORE PUSH1 0x60 SWAP3 DUP3 ADD DUP4 SWAP1 MSTORE DUP3 DUP3 ADD SWAP3 SWAP1 SWAP3 MSTORE PUSH1 0x80 DUP2 ADD DUP3 SWAP1 MSTORE PUSH1 0xA0 DUP2 ADD DUP3 SWAP1 MSTORE PUSH1 0xC0 DUP2 ADD DUP3 SWAP1 MSTORE PUSH1 0xE0 DUP2 ADD DUP3 SWAP1 MSTORE PUSH2 0x100 DUP2 ADD SWAP2 SWAP1 SWAP2 MSTORE SWAP1 JUMP JUMPDEST DUP3 DUP1 SLOAD DUP3 DUP3 SSTORE SWAP1 PUSH1 0x0 MSTORE PUSH1 0x20 PUSH1 0x0 KECCAK256 SWAP1 DUP2 ADD SWAP3 DUP3 ISZERO PUSH2 0x496F JUMPI SWAP2 PUSH1 0x20 MUL DUP3 ADD DUP3 DUP2 GT ISZERO PUSH2 0x496F JUMPI DUP3 MLOAD DUP3 SSTORE SWAP2 PUSH1 0x20 ADD SWAP2 SWAP1 PUSH1 0x1 ADD SWAP1 PUSH2 0x4954 JUMP JUMPDEST POP DUP1 SLOAD PUSH1 0x0 DUP3 SSTORE SWAP1 PUSH1 0x0 MSTORE PUSH1 0x20 PUSH1 0x0 KECCAK256 SWAP1 DUP2 ADD SWAP1 PUSH2 0x4A4C SWAP2 SWAP1 PUSH2 0x4A70 JUMP JUMPDEST POP JUMP JUMPDEST POP DUP1 SLOAD PUSH1 0x0 DUP3 SSTORE PUSH1 0x5 MUL SWAP1 PUSH1 0x0 MSTORE PUSH1 0x20 PUSH1 0x0 KECCAK256 SWAP1 DUP2 ADD SWAP1 PUSH2 0x4A4C SWAP2 SWAP1 PUSH2 0x4A85 JUMP JUMPDEST JUMPDEST DUP1 DUP3 GT ISZERO PUSH2 0x497B JUMPI PUSH1 0x0 DUP2 SSTORE PUSH1 0x1 ADD PUSH2 0x4A71 JUMP JUMPDEST DUP1 DUP3 GT ISZERO PUSH2 0x497B JUMPI DUP1 SLOAD PUSH9 0xFFFFFFFFFFFFFFFFFF NOT AND DUP2 SSTORE PUSH1 0x0 PUSH2 0x4AAC PUSH1 0x1 DUP4 ADD DUP3 PUSH2 0x4ADC JUMP JUMPDEST PUSH2 0x4ABA PUSH1 0x2 DUP4 ADD PUSH1 0x0 PUSH2 0x4ADC JUMP JUMPDEST POP PUSH1 0x0 PUSH1 0x3 DUP3 ADD SSTORE PUSH1 0x4 DUP2 ADD DUP1 SLOAD PUSH1 0x1 PUSH1 0x1 PUSH1 0xB8 SHL SUB NOT AND SWAP1 SSTORE PUSH1 0x5 ADD PUSH2 0x4A85 JUMP JUMPDEST POP DUP1 SLOAD PUSH1 0x1 DUP2 PUSH1 0x1 AND ISZERO PUSH2 0x100 MUL SUB AND PUSH1 0x2 SWAP1 DIV PUSH1 0x0 DUP3 SSTORE DUP1 PUSH1 0x1F LT PUSH2 0x4B02 JUMPI POP PUSH2 0x4A4C JUMP JUMPDEST PUSH1 0x1F ADD PUSH1 0x20 SWAP1 DIV SWAP1 PUSH1 0x0 MSTORE PUSH1 0x20 PUSH1 0x0 KECCAK256 SWAP1 DUP2 ADD SWAP1 PUSH2 0x4A4C SWAP2 SWAP1 PUSH2 0x4A70 JUMP JUMPDEST DUP1 CALLDATALOAD PUSH1 0x1 PUSH1 0x1 PUSH1 0xA0 SHL SUB DUP2 AND DUP2 EQ PUSH2 0x19FB JUMPI PUSH1 0x0 DUP1 REVERT JUMPDEST PUSH1 0x0 DUP3 PUSH1 0x1F DUP4 ADD SLT PUSH2 0x4B47 JUMPI DUP1 DUP2 REVERT JUMPDEST DUP2 CALLDATALOAD PUSH2 0x4B5A PUSH2 0x4B55 DUP3 PUSH2 0x5EB8 JUMP JUMPDEST PUSH2 0x5E95 JUMP JUMPDEST DUP2 DUP2 MSTORE SWAP2 POP PUSH1 0x20 DUP1 DUP4 ADD SWAP1 DUP5 DUP2 ADD DUP2 DUP5 MUL DUP7 ADD DUP3 ADD DUP8 LT ISZERO PUSH2 0x4B7B JUMPI PUSH1 0x0 DUP1 REVERT JUMPDEST PUSH1 0x0 JUMPDEST DUP5 DUP2 LT ISZERO PUSH2 0x4B9A JUMPI DUP2 CALLDATALOAD DUP5 MSTORE SWAP3 DUP3 ADD SWAP3 SWAP1 DUP3 ADD SWAP1 PUSH1 0x1 ADD PUSH2 0x4B7E JUMP JUMPDEST POP POP POP POP POP SWAP3 SWAP2 POP POP JUMP JUMPDEST PUSH1 0x0 DUP3 PUSH1 0x1F DUP4 ADD SLT PUSH2 0x4BB5 JUMPI DUP1 DUP2 REVERT JUMPDEST DUP2 CALLDATALOAD PUSH2 0x4BC3 PUSH2 0x4B55 DUP3 PUSH2 0x5EB8 JUMP JUMPDEST DUP2 DUP2 MSTORE SWAP2 POP PUSH1 0x20 DUP1 DUP4 ADD SWAP1 DUP5 DUP2 ADD PUSH1 0x0 JUMPDEST DUP5 DUP2 LT ISZERO PUSH2 0x4B9A JUMPI DUP2 CALLDATALOAD DUP8 ADD PUSH2 0x120 DUP1 PUSH1 0x1F NOT DUP4 DUP13 SUB ADD SLT ISZERO PUSH2 0x4BF6 JUMPI PUSH1 0x0 DUP1 REVERT JUMPDEST PUSH2 0x4BFF DUP2 PUSH2 0x5E95 JUMP JUMPDEST PUSH2 0x4C0A DUP7 DUP5 ADD PUSH2 0x4D4C JUMP JUMPDEST DUP2 MSTORE PUSH1 0x40 PUSH2 0x4C19 DUP2 DUP6 ADD PUSH2 0x4D63 JUMP JUMPDEST DUP8 DUP4 ADD MSTORE PUSH1 0x60 DUP1 DUP6 ADD CALLDATALOAD PUSH1 0x1 PUSH1 0x1 PUSH1 0x40 SHL SUB DUP1 DUP3 GT ISZERO PUSH2 0x4C38 JUMPI PUSH1 0x0 DUP1 REVERT JUMPDEST PUSH2 0x4C46 DUP16 DUP12 DUP5 DUP11 ADD ADD PUSH2 0x4CE6 JUMP JUMPDEST DUP5 DUP7 ADD MSTORE PUSH1 0x80 SWAP4 POP DUP4 DUP8 ADD CALLDATALOAD SWAP2 POP DUP1 DUP3 GT ISZERO PUSH2 0x4C61 JUMPI PUSH1 0x0 DUP1 REVERT JUMPDEST POP PUSH2 0x4C70 DUP15 DUP11 DUP4 DUP10 ADD ADD PUSH2 0x4CE6 JUMP JUMPDEST DUP3 DUP6 ADD MSTORE POP POP PUSH1 0xA0 DUP1 DUP6 ADD CALLDATALOAD DUP3 DUP5 ADD MSTORE PUSH1 0xC0 SWAP2 POP PUSH2 0x4C8F DUP3 DUP7 ADD PUSH2 0x4B20 JUMP JUMPDEST SWAP1 DUP4 ADD MSTORE PUSH1 0xE0 PUSH2 0x4CA0 DUP6 DUP3 ADD PUSH2 0x4CDB JUMP JUMPDEST DUP3 DUP5 ADD MSTORE PUSH2 0x100 SWAP2 POP PUSH2 0x4CB4 DUP3 DUP7 ADD PUSH2 0x4CDB JUMP JUMPDEST SWAP1 DUP4 ADD MSTORE PUSH2 0x4CC3 DUP5 DUP5 ADD PUSH2 0x4CDB JUMP JUMPDEST SWAP1 DUP3 ADD MSTORE DUP7 MSTORE POP POP SWAP3 DUP3 ADD SWAP3 SWAP1 DUP3 ADD SWAP1 PUSH1 0x1 ADD PUSH2 0x4BD4 JUMP JUMPDEST DUP1 CALLDATALOAD PUSH2 0x19FB DUP2 PUSH2 0x5F0D JUMP JUMPDEST PUSH1 0x0 DUP3 PUSH1 0x1F DUP4 ADD SLT PUSH2 0x4CF6 JUMPI DUP1 DUP2 REVERT JUMPDEST DUP2 CALLDATALOAD PUSH1 0x1 PUSH1 0x1 PUSH1 0x40 SHL SUB DUP2 GT ISZERO PUSH2 0x4D09 JUMPI INVALID JUMPDEST PUSH2 0x4D1C PUSH1 0x1F DUP3 ADD PUSH1 0x1F NOT AND PUSH1 0x20 ADD PUSH2 0x5E95 JUMP JUMPDEST SWAP2 POP DUP1 DUP3 MSTORE DUP4 PUSH1 0x20 DUP3 DUP6 ADD ADD GT ISZERO PUSH2 0x4D33 JUMPI PUSH1 0x0 DUP1 REVERT JUMPDEST DUP1 PUSH1 0x20 DUP5 ADD PUSH1 0x20 DUP5 ADD CALLDATACOPY PUSH1 0x0 SWAP1 DUP3 ADD PUSH1 0x20 ADD MSTORE SWAP3 SWAP2 POP POP JUMP JUMPDEST DUP1 CALLDATALOAD PUSH1 0x1 PUSH1 0x1 PUSH1 0x40 SHL SUB DUP2 AND DUP2 EQ PUSH2 0x19FB JUMPI PUSH1 0x0 DUP1 REVERT JUMPDEST DUP1 CALLDATALOAD PUSH1 0xFF DUP2 AND DUP2 EQ PUSH2 0x19FB JUMPI PUSH1 0x0 DUP1 REVERT JUMPDEST PUSH1 0x0 PUSH1 0x20 DUP3 DUP5 SUB SLT ISZERO PUSH2 0x4D85 JUMPI DUP1 DUP2 REVERT JUMPDEST DUP2 MLOAD PUSH2 0x4D90 DUP2 PUSH2 0x5F0D JUMP JUMPDEST SWAP4 SWAP3 POP POP POP JUMP JUMPDEST PUSH1 0x0 PUSH1 0x20 DUP3 DUP5 SUB SLT ISZERO PUSH2 0x4DA8 JUMPI DUP1 DUP2 REVERT JUMPDEST POP MLOAD SWAP2 SWAP1 POP JUMP JUMPDEST PUSH1 0x0 PUSH1 0x20 DUP3 DUP5 SUB SLT ISZERO PUSH2 0x4DC0 JUMPI DUP1 DUP2 REVERT JUMPDEST POP CALLDATALOAD SWAP2 SWAP1 POP JUMP JUMPDEST PUSH1 0x0 DUP1 PUSH1 0x40 DUP4 DUP6 SUB SLT ISZERO PUSH2 0x4DD9 JUMPI DUP1 DUP2 REVERT JUMPDEST DUP3 CALLDATALOAD SWAP2 POP PUSH2 0x4DE9 PUSH1 0x20 DUP5 ADD PUSH2 0x4B20 JUMP JUMPDEST SWAP1 POP SWAP3 POP SWAP3 SWAP1 POP JUMP JUMPDEST PUSH1 0x0 DUP1 PUSH1 0x40 DUP4 DUP6 SUB SLT ISZERO PUSH2 0x4E04 JUMPI DUP2 DUP3 REVERT JUMPDEST POP POP DUP1 CALLDATALOAD SWAP3 PUSH1 0x20 SWAP1 SWAP2 ADD CALLDATALOAD SWAP2 POP JUMP JUMPDEST PUSH1 0x0 DUP1 PUSH1 0x0 DUP1 PUSH1 0x0 PUSH1 0xA0 DUP7 DUP9 SUB SLT ISZERO PUSH2 0x4E2A JUMPI DUP1 DUP2 REVERT JUMPDEST DUP6 CALLDATALOAD SWAP5 POP PUSH1 0x20 DUP1 DUP8 ADD CALLDATALOAD SWAP5 POP PUSH1 0x40 DUP8 ADD CALLDATALOAD PUSH1 0x1 PUSH1 0x1 PUSH1 0x40 SHL SUB DUP1 DUP3 GT ISZERO PUSH2 0x4E4F JUMPI DUP4 DUP5 REVERT JUMPDEST DUP2 DUP10 ADD SWAP2 POP DUP10 PUSH1 0x1F DUP4 ADD SLT PUSH2 0x4E62 JUMPI DUP4 DUP5 REVERT JUMPDEST DUP2 CALLDATALOAD PUSH2 0x4E70 PUSH2 0x4B55 DUP3 PUSH2 0x5EB8 JUMP JUMPDEST DUP2 DUP2 MSTORE DUP5 DUP2 ADD SWAP1 DUP5 DUP7 ADD DUP8 JUMPDEST DUP5 DUP2 LT ISZERO PUSH2 0x4EA5 JUMPI PUSH2 0x4E93 DUP16 DUP10 DUP5 CALLDATALOAD DUP11 ADD ADD PUSH2 0x4B37 JUMP JUMPDEST DUP5 MSTORE SWAP3 DUP8 ADD SWAP3 SWAP1 DUP8 ADD SWAP1 PUSH1 0x1 ADD PUSH2 0x4E7C JUMP JUMPDEST POP SWAP1 SWAP9 POP POP POP POP PUSH1 0x60 DUP10 ADD CALLDATALOAD SWAP3 POP DUP1 DUP4 GT ISZERO PUSH2 0x4EBF JUMPI DUP4 DUP5 REVERT JUMPDEST PUSH2 0x4ECB DUP11 DUP5 DUP12 ADD PUSH2 0x4CE6 JUMP JUMPDEST SWAP5 POP PUSH1 0x80 DUP10 ADD CALLDATALOAD SWAP3 POP DUP1 DUP4 GT ISZERO PUSH2 0x4EE0 JUMPI DUP4 DUP5 REVERT JUMPDEST POP POP PUSH2 0x4EEE DUP9 DUP3 DUP10 ADD PUSH2 0x4B37 JUMP JUMPDEST SWAP2 POP POP SWAP3 SWAP6 POP SWAP3 SWAP6 SWAP1 SWAP4 POP JUMP JUMPDEST PUSH1 0x0 DUP1 PUSH1 0x0 DUP1 PUSH1 0x0 DUP1 PUSH1 0x0 DUP1 PUSH2 0x100 DUP10 DUP12 SUB SLT ISZERO PUSH2 0x4F17 JUMPI DUP6 DUP7 REVERT JUMPDEST DUP9 CALLDATALOAD SWAP8 POP PUSH1 0x20 DUP10 ADD CALLDATALOAD SWAP7 POP PUSH2 0x4F2E PUSH1 0x40 DUP11 ADD PUSH2 0x4D4C JUMP JUMPDEST SWAP6 POP PUSH2 0x4F3C PUSH1 0x60 DUP11 ADD PUSH2 0x4D63 JUMP JUMPDEST SWAP5 POP PUSH1 0x80 DUP10 ADD CALLDATALOAD SWAP4 POP PUSH1 0xA0 DUP10 ADD CALLDATALOAD PUSH1 0x1 PUSH1 0x1 PUSH1 0x40 SHL SUB DUP1 DUP3 GT ISZERO PUSH2 0x4F5E JUMPI DUP5 DUP6 REVERT JUMPDEST DUP2 DUP12 ADD SWAP2 POP DUP12 PUSH1 0x1F DUP4 ADD SLT PUSH2 0x4F71 JUMPI DUP5 DUP6 REVERT JUMPDEST DUP2 CALLDATALOAD PUSH2 0x4F7F PUSH2 0x4B55 DUP3 PUSH2 0x5EB8 JUMP JUMPDEST DUP1 DUP3 DUP3 MSTORE PUSH1 0x20 DUP3 ADD SWAP2 POP PUSH1 0x20 DUP6 ADD DUP16 PUSH1 0x20 DUP1 DUP7 MUL DUP9 ADD ADD GT ISZERO PUSH2 0x4FA0 JUMPI DUP9 DUP10 REVERT JUMPDEST DUP9 SWAP6 POP JUMPDEST DUP4 DUP7 LT ISZERO PUSH2 0x4FCA JUMPI PUSH2 0x4FB5 DUP2 PUSH2 0x4B20 JUMP JUMPDEST DUP4 MSTORE PUSH1 0x1 SWAP6 SWAP1 SWAP6 ADD SWAP5 PUSH1 0x20 SWAP3 DUP4 ADD SWAP3 ADD PUSH2 0x4FA4 JUMP JUMPDEST POP SWAP7 POP POP POP PUSH1 0xC0 DUP12 ADD CALLDATALOAD SWAP2 POP DUP1 DUP3 GT ISZERO PUSH2 0x4FE2 JUMPI DUP4 DUP5 REVERT JUMPDEST POP PUSH2 0x4FEF DUP12 DUP3 DUP13 ADD PUSH2 0x4BA5 JUMP JUMPDEST SWAP3 POP POP PUSH2 0x4FFE PUSH1 0xE0 DUP11 ADD PUSH2 0x4CDB JUMP JUMPDEST SWAP1 POP SWAP3 SWAP6 SWAP9 POP SWAP3 SWAP6 SWAP9 SWAP1 SWAP4 SWAP7 POP JUMP JUMPDEST PUSH1 0x0 DUP1 PUSH1 0x40 DUP4 DUP6 SUB SLT ISZERO PUSH2 0x501F JUMPI DUP2 DUP3 REVERT JUMPDEST DUP3 CALLDATALOAD SWAP2 POP PUSH1 0x20 DUP4 ADD CALLDATALOAD PUSH1 0x1 PUSH1 0x1 PUSH1 0x40 SHL SUB DUP2 GT ISZERO PUSH2 0x503B JUMPI DUP2 DUP3 REVERT JUMPDEST PUSH2 0x5047 DUP6 DUP3 DUP7 ADD PUSH2 0x4CE6 JUMP JUMPDEST SWAP2 POP POP SWAP3 POP SWAP3 SWAP1 POP JUMP JUMPDEST PUSH1 0x1 PUSH1 0x1 PUSH1 0xA0 SHL SUB AND SWAP1 MSTORE JUMP JUMPDEST PUSH1 0x0 DUP2 MLOAD DUP1 DUP5 MSTORE PUSH1 0x20 DUP1 DUP6 ADD SWAP5 POP DUP1 DUP5 ADD DUP4 JUMPDEST DUP4 DUP2 LT ISZERO PUSH2 0x5096 JUMPI DUP2 MLOAD PUSH1 0x1 PUSH1 0x1 PUSH1 0xA0 SHL SUB AND DUP8 MSTORE SWAP6 DUP3 ADD SWAP6 SWAP1 DUP3 ADD SWAP1 PUSH1 0x1 ADD PUSH2 0x5071 JUMP JUMPDEST POP SWAP5 SWAP6 SWAP5 POP POP POP POP POP JUMP JUMPDEST PUSH1 0x0 DUP2 MLOAD DUP1 DUP5 MSTORE PUSH1 0x20 DUP1 DUP6 ADD SWAP5 POP DUP1 DUP5 ADD DUP4 JUMPDEST DUP4 DUP2 LT ISZERO PUSH2 0x5096 JUMPI DUP2 MLOAD DUP8 MSTORE SWAP6 DUP3 ADD SWAP6 SWAP1 DUP3 ADD SWAP1 PUSH1 0x1 ADD PUSH2 0x50B4 JUMP JUMPDEST PUSH1 0x0 DUP2 MLOAD DUP1 DUP5 MSTORE PUSH1 0x20 DUP1 DUP6 ADD DUP1 DUP2 SWAP7 POP DUP3 DUP5 MUL DUP2 ADD SWAP2 POP DUP3 DUP7 ADD DUP6 JUMPDEST DUP6 DUP2 LT ISZERO PUSH2 0x51BF JUMPI DUP3 DUP5 SUB DUP10 MSTORE DUP2 MLOAD PUSH2 0x120 PUSH2 0x5109 DUP7 DUP4 MLOAD PUSH2 0x52B6 JUMP JUMPDEST DUP7 DUP3 ADD MLOAD PUSH2 0x5119 DUP9 DUP9 ADD DUP3 PUSH2 0x52C3 JUMP JUMPDEST POP PUSH1 0x40 DUP1 DUP4 ADD MLOAD DUP3 DUP3 DUP10 ADD MSTORE PUSH2 0x5131 DUP4 DUP10 ADD DUP3 PUSH2 0x51D2 JUMP JUMPDEST SWAP3 POP POP POP PUSH1 0x60 DUP1 DUP4 ADD MLOAD DUP8 DUP4 SUB DUP3 DUP10 ADD MSTORE PUSH2 0x514C DUP4 DUP3 PUSH2 0x51D2 JUMP JUMPDEST SWAP3 POP POP POP PUSH1 0x80 DUP1 DUP4 ADD MLOAD DUP2 DUP9 ADD MSTORE POP PUSH1 0xA0 DUP1 DUP4 ADD MLOAD PUSH2 0x516D DUP3 DUP10 ADD DUP3 PUSH2 0x5051 JUMP JUMPDEST POP POP PUSH1 0xC0 DUP1 DUP4 ADD MLOAD PUSH2 0x5181 DUP3 DUP10 ADD DUP3 PUSH2 0x51CC JUMP JUMPDEST POP POP PUSH1 0xE0 DUP1 DUP4 ADD MLOAD PUSH2 0x5195 DUP3 DUP10 ADD DUP3 PUSH2 0x51CC JUMP JUMPDEST POP POP PUSH2 0x100 SWAP2 DUP3 ADD MLOAD SWAP2 PUSH2 0x51AB DUP8 DUP3 ADD DUP5 PUSH2 0x51CC JUMP JUMPDEST POP SWAP10 DUP7 ADD SWAP10 SWAP5 POP POP SWAP1 DUP5 ADD SWAP1 PUSH1 0x1 ADD PUSH2 0x50EC JUMP JUMPDEST POP SWAP2 SWAP8 SWAP7 POP POP POP POP POP POP POP JUMP JUMPDEST ISZERO ISZERO SWAP1 MSTORE JUMP JUMPDEST PUSH1 0x0 DUP2 MLOAD DUP1 DUP5 MSTORE PUSH2 0x51EA DUP2 PUSH1 0x20 DUP7 ADD PUSH1 0x20 DUP7 ADD PUSH2 0x5EE1 JUMP JUMPDEST PUSH1 0x1F ADD PUSH1 0x1F NOT AND SWAP3 SWAP1 SWAP3 ADD PUSH1 0x20 ADD SWAP3 SWAP2 POP POP JUMP JUMPDEST PUSH1 0x0 DUP2 SLOAD PUSH1 0x1 DUP1 DUP3 AND PUSH1 0x0 DUP2 EQ PUSH2 0x521C JUMPI PUSH1 0x1 DUP2 EQ PUSH2 0x523A JUMPI PUSH2 0x5278 JUMP JUMPDEST PUSH1 0x2 DUP4 DIV PUSH1 0x7F AND DUP7 MSTORE PUSH1 0xFF NOT DUP4 AND PUSH1 0x20 DUP8 ADD MSTORE PUSH1 0x40 DUP7 ADD SWAP4 POP PUSH2 0x5278 JUMP JUMPDEST PUSH1 0x2 DUP4 DIV DUP1 DUP8 MSTORE PUSH2 0x524A DUP7 PUSH2 0x5ED5 JUMP JUMPDEST PUSH1 0x0 JUMPDEST DUP3 DUP2 LT ISZERO PUSH2 0x526E JUMPI DUP2 SLOAD PUSH1 0x20 DUP3 DUP12 ADD ADD MSTORE DUP5 DUP3 ADD SWAP2 POP PUSH1 0x20 DUP2 ADD SWAP1 POP PUSH2 0x524D JUMP JUMPDEST DUP9 ADD PUSH1 0x20 ADD SWAP6 POP POP POP JUMPDEST POP POP POP SWAP3 SWAP2 POP POP JUMP JUMPDEST DUP1 MLOAD ISZERO ISZERO DUP3 MSTORE PUSH1 0x20 DUP2 ADD MLOAD ISZERO ISZERO PUSH1 0x20 DUP4 ADD MSTORE PUSH1 0x40 DUP2 ADD MLOAD ISZERO ISZERO PUSH1 0x40 DUP4 ADD MSTORE PUSH1 0x1 PUSH1 0x1 PUSH1 0x40 SHL SUB PUSH1 0x60 DUP3 ADD MLOAD AND PUSH1 0x60 DUP4 ADD MSTORE POP POP JUMP JUMPDEST PUSH1 0x1 PUSH1 0x1 PUSH1 0x40 SHL SUB AND SWAP1 MSTORE JUMP JUMPDEST PUSH1 0xFF AND SWAP1 MSTORE JUMP JUMPDEST PUSH1 0x1 PUSH1 0x1 PUSH1 0xC0 SHL SUB NOT SWAP2 SWAP1 SWAP2 AND DUP2 MSTORE PUSH1 0x8 ADD SWAP1 JUMP JUMPDEST PUSH1 0x0 DUP4 MLOAD PUSH2 0x52F1 DUP2 DUP5 PUSH1 0x20 DUP9 ADD PUSH2 0x5EE1 JUMP JUMPDEST DUP4 MLOAD SWAP1 DUP4 ADD SWAP1 PUSH2 0x5305 DUP2 DUP4 PUSH1 0x20 DUP9 ADD PUSH2 0x5EE1 JUMP JUMPDEST ADD SWAP5 SWAP4 POP POP POP POP JUMP JUMPDEST PUSH1 0x1 PUSH1 0x1 PUSH1 0xA0 SHL SUB SWAP8 DUP9 AND DUP2 MSTORE SWAP6 DUP8 AND PUSH1 0x20 DUP8 ADD MSTORE PUSH1 0x40 DUP7 ADD SWAP5 SWAP1 SWAP5 MSTORE SWAP2 SWAP1 SWAP5 AND PUSH1 0x60 DUP5 ADD MSTORE PUSH1 0x80 DUP4 ADD SWAP4 SWAP1 SWAP4 MSTORE PUSH1 0xA0 DUP3 ADD SWAP3 SWAP1 SWAP3 MSTORE PUSH1 0xC0 DUP2 ADD SWAP2 SWAP1 SWAP2 MSTORE PUSH1 0xE0 ADD SWAP1 JUMP JUMPDEST PUSH1 0x0 PUSH1 0x40 DUP3 MSTORE PUSH2 0x5365 PUSH1 0x40 DUP4 ADD DUP6 PUSH2 0x505E JUMP JUMPDEST DUP3 DUP2 SUB PUSH1 0x20 DUP5 ADD MSTORE PUSH2 0x5377 DUP2 DUP6 PUSH2 0x50A1 JUMP JUMPDEST SWAP6 SWAP5 POP POP POP POP POP JUMP JUMPDEST PUSH1 0x0 PUSH1 0x20 DUP3 MSTORE PUSH2 0x4D90 PUSH1 0x20 DUP4 ADD DUP5 PUSH2 0x50A1 JUMP JUMPDEST PUSH1 0x0 PUSH2 0x140 DUP1 DUP4 MSTORE PUSH2 0x53A7 DUP2 DUP5 ADD DUP12 PUSH2 0x50A1 JUMP JUMPDEST SWAP1 POP PUSH1 0x20 DUP4 DUP3 SUB DUP2 DUP6 ADD MSTORE PUSH2 0x53BC DUP3 DUP12 PUSH2 0x505E JUMP JUMPDEST DUP5 DUP2 SUB PUSH1 0x40 DUP7 ADD MSTORE DUP10 MLOAD DUP1 DUP3 MSTORE DUP3 DUP12 ADD SWAP4 POP SWAP1 DUP3 ADD SWAP1 DUP5 JUMPDEST DUP2 DUP2 LT ISZERO PUSH2 0x53F0 JUMPI DUP5 MLOAD DUP4 MSTORE SWAP4 DUP4 ADD SWAP4 SWAP2 DUP4 ADD SWAP2 PUSH1 0x1 ADD PUSH2 0x53D4 JUMP JUMPDEST POP POP DUP5 DUP2 SUB PUSH1 0x60 DUP7 ADD MSTORE PUSH2 0x5404 DUP2 DUP11 PUSH2 0x51D2 JUMP JUMPDEST SWAP3 POP POP POP DUP3 DUP2 SUB PUSH1 0x80 DUP5 ADD MSTORE PUSH2 0x541A DUP2 DUP8 PUSH2 0x50D0 JUMP JUMPDEST SWAP2 POP POP PUSH2 0x542A PUSH1 0xA0 DUP4 ADD DUP6 PUSH2 0x5281 JUMP JUMPDEST PUSH2 0x29E2 PUSH2 0x120 DUP4 ADD DUP5 PUSH2 0x51CC JUMP JUMPDEST SWAP1 ISZERO ISZERO DUP2 MSTORE PUSH1 0x20 ADD SWAP1 JUMP JUMPDEST DUP5 ISZERO ISZERO DUP2 MSTORE DUP4 ISZERO ISZERO PUSH1 0x20 DUP3 ADD MSTORE PUSH1 0x1 PUSH1 0x1 PUSH1 0xA0 SHL SUB DUP4 AND PUSH1 0x40 DUP3 ADD MSTORE PUSH1 0x80 PUSH1 0x60 DUP3 ADD DUP2 SWAP1 MSTORE PUSH1 0x0 SWAP1 PUSH2 0x5477 SWAP1 DUP4 ADD DUP5 PUSH2 0x51D2 JUMP JUMPDEST SWAP7 SWAP6 POP POP POP POP POP POP JUMP JUMPDEST SWAP3 ISZERO ISZERO DUP4 MSTORE SWAP1 ISZERO ISZERO PUSH1 0x20 DUP4 ADD MSTORE ISZERO ISZERO PUSH1 0x40 DUP3 ADD MSTORE PUSH1 0x60 ADD SWAP1 JUMP JUMPDEST SWAP1 DUP2 MSTORE PUSH1 0x20 ADD SWAP1 JUMP JUMPDEST SWAP2 DUP3 MSTORE PUSH1 0xFF AND PUSH1 0x20 DUP3 ADD MSTORE PUSH1 0x40 ADD SWAP1 JUMP JUMPDEST PUSH1 0x20 DUP1 DUP3 MSTORE PUSH1 0x2B SWAP1 DUP3 ADD MSTORE PUSH32 0x53746174652073686F756C642062652057616974696E67436F6E6669726D6174 PUSH1 0x40 DUP3 ADD MSTORE PUSH11 0x696F6E446561646C696E65 PUSH1 0xA8 SHL PUSH1 0x60 DUP3 ADD MSTORE PUSH1 0x80 ADD SWAP1 JUMP JUMPDEST PUSH1 0x20 DUP1 DUP3 MSTORE PUSH1 0x27 SWAP1 DUP3 ADD MSTORE PUSH32 0x496E76616C696420647269766520746F20636C61696D20666F72206469726563 PUSH1 0x40 DUP3 ADD MSTORE PUSH7 0x742076616C7565 PUSH1 0xC8 SHL PUSH1 0x60 DUP3 ADD MSTORE PUSH1 0x80 ADD SWAP1 JUMP JUMPDEST PUSH1 0x20 DUP1 DUP3 MSTORE PUSH1 0x1E SWAP1 DUP3 ADD MSTORE PUSH32 0x506172747920616464726573736573206D75737420626520756E697175650000 PUSH1 0x40 DUP3 ADD MSTORE PUSH1 0x60 ADD SWAP1 JUMP JUMPDEST PUSH1 0x20 DUP1 DUP3 MSTORE PUSH1 0x4C SWAP1 DUP3 ADD MSTORE PUSH32 0x4472697665207369626C696E6773206D75737420626520636F6D70617469626C PUSH1 0x40 DUP3 ADD MSTORE PUSH32 0x6520776974682070726576696F757320696E697469616C206861736820666F72 PUSH1 0x60 DUP3 ADD MSTORE PUSH12 0x20656D707479206472697665 PUSH1 0xA0 SHL PUSH1 0x80 DUP3 ADD MSTORE PUSH1 0xA0 ADD SWAP1 JUMP JUMPDEST PUSH1 0x20 DUP1 DUP3 MSTORE PUSH1 0x22 SWAP1 DUP3 ADD MSTORE PUSH32 0x726F756E64206475726174696F6E206D7573742062652035302B207365636F6E PUSH1 0x40 DUP3 ADD MSTORE PUSH2 0x6473 PUSH1 0xF0 SHL PUSH1 0x60 DUP3 ADD MSTORE PUSH1 0x80 ADD SWAP1 JUMP JUMPDEST PUSH1 0x20 DUP1 DUP3 MSTORE PUSH1 0x48 SWAP1 DUP3 ADD MSTORE PUSH32 0x5374617465206D7573742062652057616974696E67436C61696D206F72205761 PUSH1 0x40 DUP3 ADD MSTORE PUSH32 0x6974696E674368616C6C656E67654472697665732C20772F20646561646C696E PUSH1 0x60 DUP3 ADD MSTORE PUSH8 0x19481C185CDCD959 PUSH1 0xC2 SHL PUSH1 0x80 DUP3 ADD MSTORE PUSH1 0xA0 ADD SWAP1 JUMP JUMPDEST PUSH1 0x20 DUP1 DUP3 MSTORE PUSH1 0x39 SWAP1 DUP3 ADD MSTORE PUSH32 0x436C61696D6564206472697665206E756D6265722073686F756C64206D617463 PUSH1 0x40 DUP3 ADD MSTORE PUSH25 0x341031B630B4B6B2B21039B4B13634B733B990373AB6B132B9 PUSH1 0x39 SHL PUSH1 0x60 DUP3 ADD MSTORE PUSH1 0x80 ADD SWAP1 JUMP JUMPDEST PUSH1 0x20 DUP1 DUP3 MSTORE PUSH1 0x12 SWAP1 DUP3 ADD MSTORE PUSH18 0x92DCECC2D8D2C840C8E4D2ECCA92DCC8CAF PUSH1 0x73 SHL PUSH1 0x40 DUP3 ADD MSTORE PUSH1 0x60 ADD SWAP1 JUMP JUMPDEST PUSH1 0x20 DUP1 DUP3 MSTORE PUSH1 0x2F SWAP1 DUP3 ADD MSTORE PUSH32 0x537461746520213D2057616974696E674368616C6C656E6765526573756C742C PUSH1 0x40 DUP3 ADD MSTORE PUSH15 0x2063616E6E6F742077696E42795647 PUSH1 0x88 SHL PUSH1 0x60 DUP3 ADD MSTORE PUSH1 0x80 ADD SWAP1 JUMP JUMPDEST PUSH1 0x20 DUP1 DUP3 MSTORE PUSH1 0x28 SWAP1 DUP3 ADD MSTORE PUSH32 0x6F75747075742064726976652068617320746F206265206174206C6561737420 PUSH1 0x40 DUP3 ADD MSTORE PUSH8 0x1BDB99481DDBDC99 PUSH1 0xC2 SHL PUSH1 0x60 DUP3 ADD MSTORE PUSH1 0x80 ADD SWAP1 JUMP JUMPDEST PUSH1 0x20 DUP1 DUP3 MSTORE PUSH1 0x1E SWAP1 DUP3 ADD MSTORE PUSH32 0x447269766520686173682073686F756C646E27742062652066696C6C65640000 PUSH1 0x40 DUP3 ADD MSTORE PUSH1 0x60 ADD SWAP1 JUMP JUMPDEST PUSH1 0x20 DUP1 DUP3 MSTORE PUSH1 0x21 SWAP1 DUP3 ADD MSTORE PUSH32 0x496E76616C696420647269766520746F20636C61696D20666F72206C6F676765 PUSH1 0x40 DUP3 ADD MSTORE PUSH1 0x39 PUSH1 0xF9 SHL PUSH1 0x60 DUP3 ADD MSTORE PUSH1 0x80 ADD SWAP1 JUMP JUMPDEST PUSH1 0x20 DUP1 DUP3 MSTORE PUSH1 0x26 SWAP1 DUP3 ADD MSTORE PUSH32 0x53746174652073686F756C642062652057616974696E674368616C6C656E6765 PUSH1 0x40 DUP3 ADD MSTORE PUSH6 0x447269766573 PUSH1 0xD0 SHL PUSH1 0x60 DUP3 ADD MSTORE PUSH1 0x80 ADD SWAP1 JUMP JUMPDEST PUSH1 0x20 DUP1 DUP3 MSTORE PUSH1 0x13 SWAP1 DUP3 ADD MSTORE PUSH19 0x92DCECC2D8D2C840C8E4D2ECCA40D2DCC8CAF PUSH1 0x6B SHL PUSH1 0x40 DUP3 ADD MSTORE PUSH1 0x60 ADD SWAP1 JUMP JUMPDEST PUSH1 0x20 DUP1 DUP3 MSTORE PUSH1 0x1A SWAP1 DUP3 ADD MSTORE PUSH32 0x4C6F67676572206472697665206E6F7420617661696C61626C65000000000000 PUSH1 0x40 DUP3 ADD MSTORE PUSH1 0x60 ADD SWAP1 JUMP JUMPDEST PUSH1 0x20 DUP1 DUP3 MSTORE PUSH1 0x29 SWAP1 DUP3 ADD MSTORE PUSH32 0x43616E6E6F7420646573747275637420696E7374616E63652061742063757272 PUSH1 0x40 DUP3 ADD MSTORE PUSH9 0x656E74207374617465 PUSH1 0xB8 SHL PUSH1 0x60 DUP3 ADD MSTORE PUSH1 0x80 ADD SWAP1 JUMP JUMPDEST PUSH1 0x20 DUP1 DUP3 MSTORE PUSH1 0x1A SWAP1 DUP3 ADD MSTORE PUSH32 0x43616E6E6F742061626F72742063757272656E74207374617465000000000000 PUSH1 0x40 DUP3 ADD MSTORE PUSH1 0x60 ADD SWAP1 JUMP JUMPDEST PUSH1 0x20 DUP1 DUP3 MSTORE PUSH1 0x12 SWAP1 DUP3 ADD MSTORE PUSH18 0x556E7265636F676E697A6564207374617465 PUSH1 0x70 SHL PUSH1 0x40 DUP3 ADD MSTORE PUSH1 0x60 ADD SWAP1 JUMP JUMPDEST PUSH1 0x20 DUP1 DUP3 MSTORE PUSH1 0x19 SWAP1 DUP3 ADD MSTORE PUSH25 0x537461746520213D2057616974696E6750726F766964657273 PUSH1 0x38 SHL PUSH1 0x40 DUP3 ADD MSTORE PUSH1 0x60 ADD SWAP1 JUMP JUMPDEST PUSH1 0x20 DUP1 DUP3 MSTORE PUSH1 0x1B SWAP1 DUP3 ADD MSTORE PUSH32 0x4E6F20617661696C61626C652070656E64696E67206472697665730000000000 PUSH1 0x40 DUP3 ADD MSTORE PUSH1 0x60 ADD SWAP1 JUMP JUMPDEST PUSH1 0x20 DUP1 DUP3 MSTORE PUSH1 0x18 SWAP1 DUP3 ADD MSTORE PUSH24 0x9EEAE8E0EAE840DCDEE840D2DC40CCD2DCC2D840D0C2E6D PUSH1 0x43 SHL PUSH1 0x40 DUP3 ADD MSTORE PUSH1 0x60 ADD SWAP1 JUMP JUMPDEST PUSH1 0x20 DUP1 DUP3 MSTORE PUSH1 0x11 SWAP1 DUP3 ADD MSTORE PUSH17 0x2232B0B23634B732903737BA1037BB32B9 PUSH1 0x79 SHL PUSH1 0x40 DUP3 ADD MSTORE PUSH1 0x60 ADD SWAP1 JUMP JUMPDEST PUSH1 0x20 DUP1 DUP3 MSTORE PUSH1 0x18 SWAP1 DUP3 ADD MSTORE PUSH24 0x14D95B99195C881A185CC8185B1C9958591E481D9BDD1959 PUSH1 0x42 SHL PUSH1 0x40 DUP3 ADD MSTORE PUSH1 0x60 ADD SWAP1 JUMP JUMPDEST PUSH1 0x20 DUP1 DUP3 MSTORE PUSH1 0x1A SWAP1 DUP3 ADD MSTORE PUSH32 0x6E656564734C6F676765722073686F756C642062652074727565000000000000 PUSH1 0x40 DUP3 ADD MSTORE PUSH1 0x60 ADD SWAP1 JUMP JUMPDEST PUSH1 0x20 DUP1 DUP3 MSTORE PUSH1 0x16 SWAP1 DUP3 ADD MSTORE PUSH22 0x53656E646572206D7573742062652061207061727479 PUSH1 0x50 SHL PUSH1 0x40 DUP3 ADD MSTORE PUSH1 0x60 ADD SWAP1 JUMP JUMPDEST PUSH1 0x20 DUP1 DUP3 MSTORE PUSH1 0x27 SWAP1 DUP3 ADD MSTORE PUSH32 0x64697265637456616C75652068617320746F206265206174206C65617374206F PUSH1 0x40 DUP3 ADD MSTORE PUSH7 0x1B99481DDBDC99 PUSH1 0xCA SHL PUSH1 0x60 DUP3 ADD MSTORE PUSH1 0x80 ADD SWAP1 JUMP JUMPDEST PUSH1 0x20 DUP1 DUP3 MSTORE PUSH1 0x2C SWAP1 DUP3 ADD MSTORE PUSH32 0x4F7574707574206C656E67746820646F65736E2774206D61746368206F757470 PUSH1 0x40 DUP3 ADD MSTORE PUSH12 0x7574206C6F67322073697A65 PUSH1 0xA0 SHL PUSH1 0x60 DUP3 ADD MSTORE PUSH1 0x80 ADD SWAP1 JUMP JUMPDEST PUSH1 0x20 DUP1 DUP3 MSTORE PUSH1 0x12 SWAP1 DUP3 ADD MSTORE PUSH18 0x29B2B73232B910109E90383937BB34B232B9 PUSH1 0x71 SHL PUSH1 0x40 DUP3 ADD MSTORE PUSH1 0x60 ADD SWAP1 JUMP JUMPDEST PUSH1 0x20 DUP1 DUP3 MSTORE PUSH1 0x27 SWAP1 DUP3 ADD MSTORE PUSH32 0x4F6E6C7920636F6E6365726E65642075736572732063616E206368616C6C656E PUSH1 0x40 DUP3 ADD MSTORE PUSH7 0x67447269766573 PUSH1 0xC8 SHL PUSH1 0x60 DUP3 ADD MSTORE PUSH1 0x80 ADD SWAP1 JUMP JUMPDEST PUSH1 0x20 DUP1 DUP3 MSTORE PUSH1 0x12 SWAP1 DUP3 ADD MSTORE PUSH18 0x1591C81CDD185D19481B9BDD08199A5B985B PUSH1 0x72 SHL PUSH1 0x40 DUP3 ADD MSTORE PUSH1 0x60 ADD SWAP1 JUMP JUMPDEST PUSH1 0x20 DUP1 DUP3 MSTORE PUSH1 0x1B SWAP1 DUP3 ADD MSTORE PUSH32 0x7761697450726F76696465722073686F756C6420626520747275650000000000 PUSH1 0x40 DUP3 ADD MSTORE PUSH1 0x60 ADD SWAP1 JUMP JUMPDEST PUSH1 0x20 DUP1 DUP3 MSTORE PUSH1 0x17 SWAP1 DUP3 ADD MSTORE PUSH23 0x537461746520213D2057616974696E6752657665616C73 PUSH1 0x48 SHL PUSH1 0x40 DUP3 ADD MSTORE PUSH1 0x60 ADD SWAP1 JUMP JUMPDEST PUSH1 0x20 DUP1 DUP3 MSTORE PUSH1 0x18 SWAP1 DUP3 ADD MSTORE PUSH24 0x29B2B73232B91036BAB9BA10313290309031B630B4B6B2B9 PUSH1 0x41 SHL PUSH1 0x40 DUP3 ADD MSTORE PUSH1 0x60 ADD SWAP1 JUMP JUMPDEST PUSH1 0x20 DUP1 DUP3 MSTORE DUP2 DUP2 ADD MSTORE PUSH32 0x437478206D61726B6564206173206E6F206368616C6C656E6765206472697665 PUSH1 0x40 DUP3 ADD MSTORE PUSH1 0x60 ADD SWAP1 JUMP JUMPDEST PUSH1 0x20 DUP1 DUP3 MSTORE PUSH1 0x2C SWAP1 DUP3 ADD MSTORE PUSH32 0x496E707574206279746573206C656E677468206578636565647320636C61696D PUSH1 0x40 DUP3 ADD MSTORE PUSH12 0x6564206C6F67322073697A65 PUSH1 0xA0 SHL PUSH1 0x60 DUP3 ADD MSTORE PUSH1 0x80 ADD SWAP1 JUMP JUMPDEST SWAP2 DUP3 MSTORE PUSH1 0x1 PUSH1 0x1 PUSH1 0xA0 SHL SUB AND PUSH1 0x20 DUP3 ADD MSTORE PUSH1 0x40 ADD SWAP1 JUMP JUMPDEST SWAP2 DUP3 MSTORE PUSH1 0x20 DUP3 ADD MSTORE PUSH1 0x40 ADD SWAP1 JUMP JUMPDEST PUSH1 0x0 DUP4 DUP3 MSTORE PUSH1 0x40 PUSH1 0x20 DUP4 ADD MSTORE DUP3 SLOAD PUSH2 0x5D80 PUSH1 0x40 DUP5 ADD PUSH1 0x1 PUSH1 0x1 PUSH1 0x40 SHL SUB DUP4 AND PUSH2 0x52B6 JUMP JUMPDEST PUSH2 0x5D93 PUSH1 0x60 DUP5 ADD PUSH1 0xFF DUP4 PUSH1 0x40 SHR AND PUSH2 0x52C3 JUMP JUMPDEST POP PUSH2 0x120 DUP1 PUSH1 0x80 DUP5 ADD MSTORE PUSH2 0x5DAE PUSH2 0x160 DUP5 ADD PUSH1 0x1 DUP7 ADD PUSH2 0x51FE JUMP JUMPDEST DUP4 DUP2 SUB PUSH1 0x3F NOT ADD PUSH1 0xA0 DUP6 ADD MSTORE PUSH2 0x5DC7 DUP2 PUSH1 0x2 DUP8 ADD PUSH2 0x51FE JUMP JUMPDEST PUSH1 0x3 DUP7 ADD SLOAD PUSH1 0xC0 DUP7 ADD MSTORE PUSH1 0x4 DUP7 ADD SLOAD SWAP1 SWAP2 POP PUSH2 0x5DEF PUSH1 0xE0 DUP7 ADD PUSH1 0x1 PUSH1 0x1 PUSH1 0xA0 SHL SUB DUP4 AND PUSH2 0x5051 JUMP JUMPDEST PUSH2 0x5E03 PUSH2 0x100 DUP7 ADD PUSH1 0xFF DUP4 PUSH1 0xA0 SHR AND PUSH2 0x51CC JUMP JUMPDEST PUSH2 0x5E15 DUP4 DUP7 ADD PUSH1 0xFF DUP4 PUSH1 0xA8 SHR AND PUSH2 0x51CC JUMP JUMPDEST PUSH2 0x5E29 PUSH2 0x140 DUP7 ADD PUSH1 0xFF DUP4 PUSH1 0xB0 SHR AND PUSH2 0x51CC JUMP JUMPDEST POP SWAP6 SWAP5 POP POP POP POP POP JUMP JUMPDEST SWAP5 DUP6 MSTORE PUSH1 0x20 DUP6 ADD SWAP4 SWAP1 SWAP4 MSTORE PUSH1 0x40 DUP5 ADD SWAP2 SWAP1 SWAP2 MSTORE PUSH1 0x60 DUP4 ADD MSTORE PUSH1 0x80 DUP3 ADD MSTORE PUSH1 0xA0 ADD SWAP1 JUMP JUMPDEST PUSH1 0x0 PUSH1 0x1 PUSH1 0x1 PUSH1 0x40 SHL SUB DUP7 AND DUP3 MSTORE PUSH1 0xFF DUP6 AND PUSH1 0x20 DUP4 ADD MSTORE DUP4 PUSH1 0x40 DUP4 ADD MSTORE PUSH1 0x80 PUSH1 0x60 DUP4 ADD MSTORE PUSH2 0x5477 PUSH1 0x80 DUP4 ADD DUP5 PUSH2 0x50A1 JUMP JUMPDEST PUSH1 0xFF SWAP2 SWAP1 SWAP2 AND DUP2 MSTORE PUSH1 0x20 ADD SWAP1 JUMP JUMPDEST PUSH1 0x40 MLOAD DUP2 DUP2 ADD PUSH1 0x1 PUSH1 0x1 PUSH1 0x40 SHL SUB DUP2 GT DUP3 DUP3 LT OR ISZERO PUSH2 0x5EB0 JUMPI INVALID JUMPDEST PUSH1 0x40 MSTORE SWAP2 SWAP1 POP JUMP JUMPDEST PUSH1 0x0 PUSH1 0x1 PUSH1 0x1 PUSH1 0x40 SHL SUB DUP3 GT ISZERO PUSH2 0x5ECB JUMPI INVALID JUMPDEST POP PUSH1 0x20 SWAP1 DUP2 MUL ADD SWAP1 JUMP JUMPDEST PUSH1 0x0 SWAP1 DUP2 MSTORE PUSH1 0x20 SWAP1 KECCAK256 SWAP1 JUMP JUMPDEST PUSH1 0x0 JUMPDEST DUP4 DUP2 LT ISZERO PUSH2 0x5EFC JUMPI DUP2 DUP2 ADD MLOAD DUP4 DUP3 ADD MSTORE PUSH1 0x20 ADD PUSH2 0x5EE4 JUMP JUMPDEST DUP4 DUP2 GT ISZERO PUSH2 0x35D9 JUMPI POP POP PUSH1 0x0 SWAP2 ADD MSTORE JUMP JUMPDEST DUP1 ISZERO ISZERO DUP2 EQ PUSH2 0x4A4C JUMPI PUSH1 0x0 DUP1 REVERT INVALID CODECOPY SSTORE CALLVALUE 0xA9 0x48 DUP3 POP 0xC4 0xEA ORIGIN SGT PUSH11 0xC7CD156150898B4530EC3A MSIZE DUP6 0xE3 0xCE PUSH11 0x50D2B36F496E646578206E PUSH16 0x7420696E7374616E7469617465640000 STOP STOP STOP STOP STOP STOP STOP STOP LOG2 PUSH5 0x6970667358 0x22 SLT KECCAK256 DUP2 0xC8 PUSH19 0xC24890ED2E34417BAA41D230BAADE7CE34ADC5 PUSH11 0xFAF3B58D8E6A76ACFF6473 PUSH16 0x6C634300070400330000000000000000 "
    },
    "gasEstimates": {
      "creation": {
        "codeDepositCost": "4893000",
        "executionCost": "infinite",
        "totalCost": "infinite"
      },
      "external": {
        "abortByDeadline(uint256)": "infinite",
        "challenge(uint256)": "infinite",
        "challengeDrives(uint256)": "infinite",
        "confirm(uint256)": "infinite",
        "currentIndex()": "1074",
        "destruct(uint256)": "infinite",
        "getCurrentState(uint256)": "infinite",
        "getNonce(uint256)": "infinite",
        "getPartyState(uint256,address)": "infinite",
        "getResult(uint256)": "infinite",
        "getState(uint256,address)": "infinite",
        "getSubInstances(uint256,address)": "infinite",
        "instantiate(uint256,bytes32,uint64,uint8,uint256,address[],(uint64,uint8,bytes,bytes,bytes32,address,bool,bool,bool)[],bool)": "infinite",
        "isActive(uint256)": "1256",
        "isConcerned(uint256,address)": "infinite",
        "provideDirectDrive(uint256,bytes)": "infinite",
        "provideLoggerDrive(uint256,bytes32)": "infinite",
        "revealLoggerDrive(uint256)": "infinite",
        "submitClaim(uint256,bytes32,bytes32[][],bytes,bytes32[])": "infinite",
        "winByVG(uint256)": "infinite"
      },
      "internal": {
        "getMaxStateDuration(uint256)": "infinite",
        "getWordHashesFromBytes(bytes memory)": "infinite",
        "getWordHashesFromBytes32(bytes32)": "infinite"
      }
    },
    "methodIdentifiers": {
      "abortByDeadline(uint256)": "4c6fe7bf",
      "challenge(uint256)": "ab82d9a0",
      "challengeDrives(uint256)": "bfda2e72",
      "confirm(uint256)": "ba0179b5",
      "currentIndex()": "26987b60",
      "destruct(uint256)": "c87e3ae9",
      "getCurrentState(uint256)": "5748c130",
      "getNonce(uint256)": "3d46b819",
      "getPartyState(uint256,address)": "ab5da187",
      "getResult(uint256)": "995e4339",
      "getState(uint256,address)": "73df1612",
      "getSubInstances(uint256,address)": "c526656c",
      "instantiate(uint256,bytes32,uint64,uint8,uint256,address[],(uint64,uint8,bytes,bytes,bytes32,address,bool,bool,bool)[],bool)": "b72971ee",
      "isActive(uint256)": "82afd23b",
      "isConcerned(uint256,address)": "01ff62ab",
      "provideDirectDrive(uint256,bytes)": "fa0ecc5b",
      "provideLoggerDrive(uint256,bytes32)": "c70683ca",
      "revealLoggerDrive(uint256)": "f9bc3b21",
      "submitClaim(uint256,bytes32,bytes32[][],bytes,bytes32[])": "351e6657",
      "winByVG(uint256)": "ded4df63"
    }
  },
  "storageLayout": {
    "storage": [
      {
        "astId": 468,
        "contract": "cache/solpp-generated-contracts/CartesiCompute.sol:CartesiCompute",
        "label": "currentIndex",
        "offset": 0,
        "slot": "0",
        "type": "t_uint256"
      },
      {
        "astId": 472,
        "contract": "cache/solpp-generated-contracts/CartesiCompute.sol:CartesiCompute",
        "label": "active",
        "offset": 0,
        "slot": "1",
        "type": "t_mapping(t_uint256,t_bool)"
      },
      {
        "astId": 476,
        "contract": "cache/solpp-generated-contracts/CartesiCompute.sol:CartesiCompute",
        "label": "nonce",
        "offset": 0,
        "slot": "2",
        "type": "t_mapping(t_uint256,t_uint256)"
      },
      {
        "astId": 1188,
        "contract": "cache/solpp-generated-contracts/CartesiCompute.sol:CartesiCompute",
        "label": "machine",
        "offset": 0,
        "slot": "3",
        "type": "t_address"
      },
      {
        "astId": 1190,
        "contract": "cache/solpp-generated-contracts/CartesiCompute.sol:CartesiCompute",
        "label": "li",
        "offset": 0,
        "slot": "4",
        "type": "t_contract(LoggerInterface)378"
      },
      {
        "astId": 1192,
        "contract": "cache/solpp-generated-contracts/CartesiCompute.sol:CartesiCompute",
        "label": "vg",
        "offset": 0,
        "slot": "5",
        "type": "t_contract(VGInterface)356"
      },
      {
        "astId": 1255,
        "contract": "cache/solpp-generated-contracts/CartesiCompute.sol:CartesiCompute",
        "label": "instance",
        "offset": 0,
        "slot": "6",
        "type": "t_mapping(t_uint256,t_struct(CartesiComputeCtx)1251_storage)"
      }
    ],
    "types": {
      "t_address": {
        "encoding": "inplace",
        "label": "address",
        "numberOfBytes": "20"
      },
      "t_array(t_address)dyn_storage": {
        "base": "t_address",
        "encoding": "dynamic_array",
        "label": "address[]",
        "numberOfBytes": "32"
      },
      "t_array(t_bytes32)dyn_storage": {
        "base": "t_bytes32",
        "encoding": "dynamic_array",
        "label": "bytes32[]",
        "numberOfBytes": "32"
      },
      "t_array(t_struct(Drive)4379_storage)dyn_storage": {
        "base": "t_struct(Drive)4379_storage",
        "encoding": "dynamic_array",
        "label": "struct CartesiComputeInterface.Drive[]",
        "numberOfBytes": "32"
      },
      "t_array(t_uint256)dyn_storage": {
        "base": "t_uint256",
        "encoding": "dynamic_array",
        "label": "uint256[]",
        "numberOfBytes": "32"
      },
      "t_bool": {
        "encoding": "inplace",
        "label": "bool",
        "numberOfBytes": "1"
      },
      "t_bytes32": {
        "encoding": "inplace",
        "label": "bytes32",
        "numberOfBytes": "32"
      },
      "t_bytes_storage": {
        "encoding": "bytes",
        "label": "bytes",
        "numberOfBytes": "32"
      },
      "t_contract(LoggerInterface)378": {
        "encoding": "inplace",
        "label": "contract LoggerInterface",
        "numberOfBytes": "20"
      },
      "t_contract(VGInterface)356": {
        "encoding": "inplace",
        "label": "contract VGInterface",
        "numberOfBytes": "20"
      },
      "t_enum(State)4360": {
        "encoding": "inplace",
        "label": "enum CartesiComputeInterface.State",
        "numberOfBytes": "1"
      },
      "t_mapping(t_address,t_struct(Party)4388_storage)": {
        "encoding": "mapping",
        "key": "t_address",
        "label": "mapping(address => struct CartesiComputeInterface.Party)",
        "numberOfBytes": "32",
        "value": "t_struct(Party)4388_storage"
      },
      "t_mapping(t_uint256,t_bool)": {
        "encoding": "mapping",
        "key": "t_uint256",
        "label": "mapping(uint256 => bool)",
        "numberOfBytes": "32",
        "value": "t_bool"
      },
      "t_mapping(t_uint256,t_struct(CartesiComputeCtx)1251_storage)": {
        "encoding": "mapping",
        "key": "t_uint256",
        "label": "mapping(uint256 => struct CartesiCompute.CartesiComputeCtx)",
        "numberOfBytes": "32",
        "value": "t_struct(CartesiComputeCtx)1251_storage"
      },
      "t_mapping(t_uint256,t_uint256)": {
        "encoding": "mapping",
        "key": "t_uint256",
        "label": "mapping(uint256 => uint256)",
        "numberOfBytes": "32",
        "value": "t_uint256"
      },
      "t_struct(CartesiComputeCtx)1251_storage": {
        "encoding": "inplace",
        "label": "struct CartesiCompute.CartesiComputeCtx",
        "members": [
          {
            "astId": 1194,
            "contract": "cache/solpp-generated-contracts/CartesiCompute.sol:CartesiCompute",
            "label": "owner",
            "offset": 0,
            "slot": "0",
            "type": "t_address"
          },
          {
            "astId": 1196,
            "contract": "cache/solpp-generated-contracts/CartesiCompute.sol:CartesiCompute",
            "label": "revealDrivesPointer",
            "offset": 0,
            "slot": "1",
            "type": "t_uint256"
          },
          {
            "astId": 1198,
            "contract": "cache/solpp-generated-contracts/CartesiCompute.sol:CartesiCompute",
            "label": "providerDrivesPointer",
            "offset": 0,
            "slot": "2",
            "type": "t_uint256"
          },
          {
            "astId": 1200,
            "contract": "cache/solpp-generated-contracts/CartesiCompute.sol:CartesiCompute",
            "label": "finalTime",
            "offset": 0,
            "slot": "3",
            "type": "t_uint256"
          },
          {
            "astId": 1202,
            "contract": "cache/solpp-generated-contracts/CartesiCompute.sol:CartesiCompute",
            "label": "outputPosition",
            "offset": 0,
            "slot": "4",
            "type": "t_uint64"
          },
          {
            "astId": 1204,
            "contract": "cache/solpp-generated-contracts/CartesiCompute.sol:CartesiCompute",
            "label": "outputLog2Size",
            "offset": 8,
            "slot": "4",
            "type": "t_uint8"
          },
          {
            "astId": 1206,
            "contract": "cache/solpp-generated-contracts/CartesiCompute.sol:CartesiCompute",
            "label": "roundDuration",
            "offset": 0,
            "slot": "5",
            "type": "t_uint256"
          },
          {
            "astId": 1208,
            "contract": "cache/solpp-generated-contracts/CartesiCompute.sol:CartesiCompute",
            "label": "timeOfLastMove",
            "offset": 0,
            "slot": "6",
            "type": "t_uint256"
          },
          {
            "astId": 1210,
            "contract": "cache/solpp-generated-contracts/CartesiCompute.sol:CartesiCompute",
            "label": "vgInstance",
            "offset": 0,
            "slot": "7",
            "type": "t_uint256"
          },
          {
            "astId": 1212,
            "contract": "cache/solpp-generated-contracts/CartesiCompute.sol:CartesiCompute",
            "label": "templateHash",
            "offset": 0,
            "slot": "8",
            "type": "t_bytes32"
          },
          {
            "astId": 1214,
            "contract": "cache/solpp-generated-contracts/CartesiCompute.sol:CartesiCompute",
            "label": "initialHash",
            "offset": 0,
            "slot": "9",
            "type": "t_bytes32"
          },
          {
            "astId": 1216,
            "contract": "cache/solpp-generated-contracts/CartesiCompute.sol:CartesiCompute",
            "label": "claimedFinalHash",
            "offset": 0,
            "slot": "10",
            "type": "t_bytes32"
          },
          {
            "astId": 1218,
            "contract": "cache/solpp-generated-contracts/CartesiCompute.sol:CartesiCompute",
            "label": "claimedOutput",
            "offset": 0,
            "slot": "11",
            "type": "t_bytes_storage"
          },
          {
            "astId": 1221,
            "contract": "cache/solpp-generated-contracts/CartesiCompute.sol:CartesiCompute",
            "label": "partiesArray",
            "offset": 0,
            "slot": "12",
            "type": "t_array(t_address)dyn_storage"
          },
          {
            "astId": 1224,
            "contract": "cache/solpp-generated-contracts/CartesiCompute.sol:CartesiCompute",
            "label": "confirmedParties",
            "offset": 0,
            "slot": "13",
            "type": "t_array(t_address)dyn_storage"
          },
          {
            "astId": 1226,
            "contract": "cache/solpp-generated-contracts/CartesiCompute.sol:CartesiCompute",
            "label": "claimer",
            "offset": 0,
            "slot": "14",
            "type": "t_uint64"
          },
          {
            "astId": 1228,
            "contract": "cache/solpp-generated-contracts/CartesiCompute.sol:CartesiCompute",
            "label": "currentChallenger",
            "offset": 8,
            "slot": "14",
            "type": "t_uint64"
          },
          {
            "astId": 1230,
            "contract": "cache/solpp-generated-contracts/CartesiCompute.sol:CartesiCompute",
            "label": "votesCounter",
            "offset": 16,
            "slot": "14",
            "type": "t_uint64"
          },
          {
            "astId": 1234,
            "contract": "cache/solpp-generated-contracts/CartesiCompute.sol:CartesiCompute",
            "label": "parties",
            "offset": 0,
            "slot": "15",
            "type": "t_mapping(t_address,t_struct(Party)4388_storage)"
          },
          {
            "astId": 1236,
            "contract": "cache/solpp-generated-contracts/CartesiCompute.sol:CartesiCompute",
            "label": "currentState",
            "offset": 0,
            "slot": "16",
            "type": "t_enum(State)4360"
          },
          {
            "astId": 1239,
            "contract": "cache/solpp-generated-contracts/CartesiCompute.sol:CartesiCompute",
            "label": "revealDrives",
            "offset": 0,
            "slot": "17",
            "type": "t_array(t_uint256)dyn_storage"
          },
          {
            "astId": 1242,
            "contract": "cache/solpp-generated-contracts/CartesiCompute.sol:CartesiCompute",
            "label": "providerDrives",
            "offset": 0,
            "slot": "18",
            "type": "t_array(t_uint256)dyn_storage"
          },
          {
            "astId": 1245,
            "contract": "cache/solpp-generated-contracts/CartesiCompute.sol:CartesiCompute",
            "label": "driveHash",
            "offset": 0,
            "slot": "19",
            "type": "t_array(t_bytes32)dyn_storage"
          },
          {
            "astId": 1248,
            "contract": "cache/solpp-generated-contracts/CartesiCompute.sol:CartesiCompute",
            "label": "inputDrives",
            "offset": 0,
            "slot": "20",
            "type": "t_array(t_struct(Drive)4379_storage)dyn_storage"
          },
          {
            "astId": 1250,
            "contract": "cache/solpp-generated-contracts/CartesiCompute.sol:CartesiCompute",
            "label": "noChallengeDrive",
            "offset": 0,
            "slot": "21",
            "type": "t_bool"
          }
        ],
        "numberOfBytes": "704"
      },
      "t_struct(Drive)4379_storage": {
        "encoding": "inplace",
        "label": "struct CartesiComputeInterface.Drive",
        "members": [
          {
            "astId": 4362,
            "contract": "cache/solpp-generated-contracts/CartesiCompute.sol:CartesiCompute",
            "label": "position",
            "offset": 0,
            "slot": "0",
            "type": "t_uint64"
          },
          {
            "astId": 4364,
            "contract": "cache/solpp-generated-contracts/CartesiCompute.sol:CartesiCompute",
            "label": "driveLog2Size",
            "offset": 8,
            "slot": "0",
            "type": "t_uint8"
          },
          {
            "astId": 4366,
            "contract": "cache/solpp-generated-contracts/CartesiCompute.sol:CartesiCompute",
            "label": "directValue",
            "offset": 0,
            "slot": "1",
            "type": "t_bytes_storage"
          },
          {
            "astId": 4368,
            "contract": "cache/solpp-generated-contracts/CartesiCompute.sol:CartesiCompute",
            "label": "loggerIpfsPath",
            "offset": 0,
            "slot": "2",
            "type": "t_bytes_storage"
          },
          {
            "astId": 4370,
            "contract": "cache/solpp-generated-contracts/CartesiCompute.sol:CartesiCompute",
            "label": "loggerRootHash",
            "offset": 0,
            "slot": "3",
            "type": "t_bytes32"
          },
          {
            "astId": 4372,
            "contract": "cache/solpp-generated-contracts/CartesiCompute.sol:CartesiCompute",
            "label": "provider",
            "offset": 0,
            "slot": "4",
            "type": "t_address"
          },
          {
            "astId": 4374,
            "contract": "cache/solpp-generated-contracts/CartesiCompute.sol:CartesiCompute",
            "label": "waitsProvider",
            "offset": 20,
            "slot": "4",
            "type": "t_bool"
          },
          {
            "astId": 4376,
            "contract": "cache/solpp-generated-contracts/CartesiCompute.sol:CartesiCompute",
            "label": "needsLogger",
            "offset": 21,
            "slot": "4",
            "type": "t_bool"
          },
          {
            "astId": 4378,
            "contract": "cache/solpp-generated-contracts/CartesiCompute.sol:CartesiCompute",
            "label": "downloadAsCAR",
            "offset": 22,
            "slot": "4",
            "type": "t_bool"
          }
        ],
        "numberOfBytes": "160"
      },
      "t_struct(Party)4388_storage": {
        "encoding": "inplace",
        "label": "struct CartesiComputeInterface.Party",
        "members": [
          {
            "astId": 4381,
            "contract": "cache/solpp-generated-contracts/CartesiCompute.sol:CartesiCompute",
            "label": "isParty",
            "offset": 0,
            "slot": "0",
            "type": "t_bool"
          },
          {
            "astId": 4383,
            "contract": "cache/solpp-generated-contracts/CartesiCompute.sol:CartesiCompute",
            "label": "hasVoted",
            "offset": 1,
            "slot": "0",
            "type": "t_bool"
          },
          {
            "astId": 4385,
            "contract": "cache/solpp-generated-contracts/CartesiCompute.sol:CartesiCompute",
            "label": "hasCheated",
            "offset": 2,
            "slot": "0",
            "type": "t_bool"
          },
          {
            "astId": 4387,
            "contract": "cache/solpp-generated-contracts/CartesiCompute.sol:CartesiCompute",
            "label": "arrayIdx",
            "offset": 3,
            "slot": "0",
            "type": "t_uint64"
          }
        ],
        "numberOfBytes": "32"
      },
      "t_uint256": {
        "encoding": "inplace",
        "label": "uint256",
        "numberOfBytes": "32"
      },
      "t_uint64": {
        "encoding": "inplace",
        "label": "uint64",
        "numberOfBytes": "8"
      },
      "t_uint8": {
        "encoding": "inplace",
        "label": "uint8",
        "numberOfBytes": "1"
      }
    }
  },
  "userdoc": {
    "kind": "user",
    "methods": {
      "abortByDeadline(uint256)": {
        "notice": "Abort the instance by missing deadline."
      },
      "challenge(uint256)": {
        "notice": "Challenger disputes the claim, starting a verification game."
      },
      "challengeDrives(uint256)": {
        "notice": "User requesting content of all drives to be revealed."
      },
      "confirm(uint256)": {
        "notice": "Party confirms the claim"
      },
      "destruct(uint256)": {
        "notice": "Deactivate a Cartesi Compute SDK instance."
      },
      "getResult(uint256)": {
        "notice": "Get result of a finished instance."
      },
      "getState(uint256,address)": {
        "notice": "Get state of the instance concerning given user."
      },
      "getSubInstances(uint256,address)": {
        "notice": "Get sub-instances of the instance."
      },
      "instantiate(uint256,bytes32,uint64,uint8,uint256,address[],(uint64,uint8,bytes,bytes,bytes32,address,bool,bool,bool)[],bool)": {
        "notice": "Instantiate a Cartesi Compute SDK instance."
      },
      "isConcerned(uint256,address)": {
        "notice": "Is the given user concern about this instance."
      },
      "provideDirectDrive(uint256,bytes)": {
        "notice": "Provide the content of a direct drive (only drive provider can call it)."
      },
      "provideLoggerDrive(uint256,bytes32)": {
        "notice": "Provide the root hash of a logger drive (only drive provider can call it)."
      },
      "revealLoggerDrive(uint256)": {
        "notice": "Reveal the content of a logger drive (only drive provider can call it)."
      },
      "submitClaim(uint256,bytes32,bytes32[][],bytes,bytes32[])": {
        "notice": "Claimer claims the machine final hash and also validate the drives and initial hash of the machine."
      },
      "winByVG(uint256)": {
        "notice": "In case one of the parties wins the verification game,         then he or she can call this function to claim victory in         this contract as well."
      }
    },
    "version": 1
  }
}