{
  "contractName": "CartesiCompute",
  "sourceName": "cache/solpp-generated-contracts/CartesiCompute.sol",
  "abi": [
    {
      "inputs": [
        {
          "internalType": "address",
          "name": "_liAddress",
          "type": "address"
        },
        {
          "internalType": "address",
          "name": "_vgAddress",
          "type": "address"
        },
        {
          "internalType": "address",
          "name": "_machineAddress",
          "type": "address"
        }
      ],
      "stateMutability": "nonpayable",
      "type": "constructor"
    },
    {
      "anonymous": false,
      "inputs": [
        {
          "indexed": false,
          "internalType": "uint256",
          "name": "_index",
          "type": "uint256"
        }
      ],
      "name": "CartesiComputeCreated",
      "type": "event"
    },
    {
      "anonymous": false,
      "inputs": [
        {
          "indexed": false,
          "internalType": "uint256",
          "name": "_index",
          "type": "uint256"
        },
        {
          "indexed": false,
          "internalType": "bytes32",
          "name": "_state",
          "type": "bytes32"
        }
      ],
      "name": "CartesiComputeFinished",
      "type": "event"
    },
    {
      "anonymous": false,
      "inputs": [
        {
          "indexed": false,
          "internalType": "uint256",
          "name": "_index",
          "type": "uint256"
        }
      ],
      "name": "ChallengeStarted",
      "type": "event"
    },
    {
      "anonymous": false,
      "inputs": [
        {
          "indexed": false,
          "internalType": "uint256",
          "name": "_index",
          "type": "uint256"
        },
        {
          "indexed": false,
          "internalType": "bytes32",
          "name": "_claimedFinalHash",
          "type": "bytes32"
        }
      ],
      "name": "ClaimSubmitted",
      "type": "event"
    },
    {
      "anonymous": false,
      "inputs": [
        {
          "indexed": false,
          "internalType": "uint256",
          "name": "_index",
          "type": "uint256"
        },
        {
          "indexed": false,
          "internalType": "address",
          "name": "_confirmParty",
          "type": "address"
        }
      ],
      "name": "Confirmed",
      "type": "event"
    },
    {
      "anonymous": false,
      "inputs": [
        {
          "indexed": false,
          "internalType": "uint256",
          "name": "_index",
          "type": "uint256"
        },
        {
          "components": [
            {
              "internalType": "uint64",
              "name": "position",
              "type": "uint64"
            },
            {
              "internalType": "uint8",
              "name": "driveLog2Size",
              "type": "uint8"
            },
            {
              "internalType": "bytes",
              "name": "directValue",
              "type": "bytes"
            },
            {
              "internalType": "bytes",
              "name": "loggerIpfsPath",
              "type": "bytes"
            },
            {
              "internalType": "bytes32",
              "name": "loggerRootHash",
              "type": "bytes32"
            },
            {
              "internalType": "address",
              "name": "provider",
              "type": "address"
            },
            {
              "internalType": "bool",
              "name": "waitsProvider",
              "type": "bool"
            },
            {
              "internalType": "bool",
              "name": "needsLogger",
              "type": "bool"
            }
          ],
          "indexed": false,
          "internalType": "struct CartesiComputeInterface.Drive",
          "name": "_drive",
          "type": "tuple"
        }
      ],
      "name": "DriveInserted",
      "type": "event"
    },
    {
      "inputs": [
        {
          "internalType": "uint256",
          "name": "_index",
          "type": "uint256"
        }
      ],
      "name": "abortByDeadline",
      "outputs": [],
      "stateMutability": "nonpayable",
      "type": "function"
    },
    {
      "inputs": [
        {
          "internalType": "uint256",
          "name": "_index",
          "type": "uint256"
        }
      ],
      "name": "challenge",
      "outputs": [],
      "stateMutability": "nonpayable",
      "type": "function"
    },
    {
      "inputs": [
        {
          "internalType": "uint256",
          "name": "_index",
          "type": "uint256"
        }
      ],
      "name": "challengeDrives",
      "outputs": [],
      "stateMutability": "nonpayable",
      "type": "function"
    },
    {
      "inputs": [
        {
          "internalType": "uint256",
          "name": "_index",
          "type": "uint256"
        }
      ],
      "name": "confirm",
      "outputs": [],
      "stateMutability": "nonpayable",
      "type": "function"
    },
    {
      "inputs": [],
      "name": "currentIndex",
      "outputs": [
        {
          "internalType": "uint256",
          "name": "",
          "type": "uint256"
        }
      ],
      "stateMutability": "view",
      "type": "function"
    },
    {
      "inputs": [
        {
          "internalType": "uint256",
          "name": "_index",
          "type": "uint256"
        }
      ],
      "name": "destruct",
      "outputs": [],
      "stateMutability": "nonpayable",
      "type": "function"
    },
    {
      "inputs": [
        {
          "internalType": "uint256",
          "name": "_index",
          "type": "uint256"
        }
      ],
      "name": "getCurrentState",
      "outputs": [
        {
          "internalType": "bytes32",
          "name": "",
          "type": "bytes32"
        }
      ],
      "stateMutability": "view",
      "type": "function"
    },
    {
      "inputs": [
        {
          "internalType": "uint256",
          "name": "_index",
          "type": "uint256"
        }
      ],
      "name": "getNonce",
      "outputs": [
        {
          "internalType": "uint256",
          "name": "currentNonce",
          "type": "uint256"
        }
      ],
      "stateMutability": "view",
      "type": "function"
    },
    {
      "inputs": [
        {
          "internalType": "uint256",
          "name": "_index",
          "type": "uint256"
        },
        {
          "internalType": "address",
          "name": "_p",
          "type": "address"
        }
      ],
      "name": "getPartyState",
      "outputs": [
        {
          "internalType": "bool",
          "name": "isParty",
          "type": "bool"
        },
        {
          "internalType": "bool",
          "name": "hasVoted",
          "type": "bool"
        },
        {
          "internalType": "bool",
          "name": "hasCheated",
          "type": "bool"
        }
      ],
      "stateMutability": "view",
      "type": "function"
    },
    {
      "inputs": [
        {
          "internalType": "uint256",
          "name": "_index",
          "type": "uint256"
        }
      ],
      "name": "getResult",
      "outputs": [
        {
          "internalType": "bool",
          "name": "",
          "type": "bool"
        },
        {
          "internalType": "bool",
          "name": "",
          "type": "bool"
        },
        {
          "internalType": "address",
          "name": "",
          "type": "address"
        },
        {
          "internalType": "bytes",
          "name": "",
          "type": "bytes"
        }
      ],
      "stateMutability": "view",
      "type": "function"
    },
    {
      "inputs": [
        {
          "internalType": "uint256",
          "name": "_index",
          "type": "uint256"
        },
        {
          "internalType": "address",
          "name": "_user",
          "type": "address"
        }
      ],
      "name": "getState",
      "outputs": [
        {
          "internalType": "uint256[]",
          "name": "",
          "type": "uint256[]"
        },
        {
          "internalType": "address[]",
          "name": "",
          "type": "address[]"
        },
        {
          "internalType": "bytes32[]",
          "name": "",
          "type": "bytes32[]"
        },
        {
          "internalType": "bytes",
          "name": "",
          "type": "bytes"
        },
        {
          "components": [
            {
              "internalType": "uint64",
              "name": "position",
              "type": "uint64"
            },
            {
              "internalType": "uint8",
              "name": "driveLog2Size",
              "type": "uint8"
            },
            {
              "internalType": "bytes",
              "name": "directValue",
              "type": "bytes"
            },
            {
              "internalType": "bytes",
              "name": "loggerIpfsPath",
              "type": "bytes"
            },
            {
              "internalType": "bytes32",
              "name": "loggerRootHash",
              "type": "bytes32"
            },
            {
              "internalType": "address",
              "name": "provider",
              "type": "address"
            },
            {
              "internalType": "bool",
              "name": "waitsProvider",
              "type": "bool"
            },
            {
              "internalType": "bool",
              "name": "needsLogger",
              "type": "bool"
            }
          ],
          "internalType": "struct CartesiComputeInterface.Drive[]",
          "name": "",
          "type": "tuple[]"
        },
        {
          "components": [
            {
              "internalType": "bool",
              "name": "isParty",
              "type": "bool"
            },
            {
              "internalType": "bool",
              "name": "hasVoted",
              "type": "bool"
            },
            {
              "internalType": "bool",
              "name": "hasCheated",
              "type": "bool"
            },
            {
              "internalType": "uint64",
              "name": "arrayIdx",
              "type": "uint64"
            }
          ],
          "internalType": "struct CartesiComputeInterface.Party",
          "name": "user",
          "type": "tuple"
        }
      ],
      "stateMutability": "view",
      "type": "function"
    },
    {
      "inputs": [
        {
          "internalType": "uint256",
          "name": "_index",
          "type": "uint256"
        },
        {
          "internalType": "address",
          "name": "",
          "type": "address"
        }
      ],
      "name": "getSubInstances",
      "outputs": [
        {
          "internalType": "address[]",
          "name": "_addresses",
          "type": "address[]"
        },
        {
          "internalType": "uint256[]",
          "name": "_indices",
          "type": "uint256[]"
        }
      ],
      "stateMutability": "view",
      "type": "function"
    },
    {
      "inputs": [
        {
          "internalType": "uint256",
          "name": "_finalTime",
          "type": "uint256"
        },
        {
          "internalType": "bytes32",
          "name": "_templateHash",
          "type": "bytes32"
        },
        {
          "internalType": "uint64",
          "name": "_outputPosition",
          "type": "uint64"
        },
        {
          "internalType": "uint8",
          "name": "_outputLog2Size",
          "type": "uint8"
        },
        {
          "internalType": "uint256",
          "name": "_roundDuration",
          "type": "uint256"
        },
        {
          "internalType": "address[]",
          "name": "parties",
          "type": "address[]"
        },
        {
          "components": [
            {
              "internalType": "uint64",
              "name": "position",
              "type": "uint64"
            },
            {
              "internalType": "uint8",
              "name": "driveLog2Size",
              "type": "uint8"
            },
            {
              "internalType": "bytes",
              "name": "directValue",
              "type": "bytes"
            },
            {
              "internalType": "bytes",
              "name": "loggerIpfsPath",
              "type": "bytes"
            },
            {
              "internalType": "bytes32",
              "name": "loggerRootHash",
              "type": "bytes32"
            },
            {
              "internalType": "address",
              "name": "provider",
              "type": "address"
            },
            {
              "internalType": "bool",
              "name": "waitsProvider",
              "type": "bool"
            },
            {
              "internalType": "bool",
              "name": "needsLogger",
              "type": "bool"
            }
          ],
          "internalType": "struct CartesiComputeInterface.Drive[]",
          "name": "_inputDrives",
          "type": "tuple[]"
        }
      ],
      "name": "instantiate",
      "outputs": [
        {
          "internalType": "uint256",
          "name": "",
          "type": "uint256"
        }
      ],
      "stateMutability": "nonpayable",
      "type": "function"
    },
    {
      "inputs": [
        {
          "internalType": "uint256",
          "name": "_index",
          "type": "uint256"
        }
      ],
      "name": "isActive",
      "outputs": [
        {
          "internalType": "bool",
          "name": "",
          "type": "bool"
        }
      ],
      "stateMutability": "view",
      "type": "function"
    },
    {
      "inputs": [
        {
          "internalType": "uint256",
          "name": "_index",
          "type": "uint256"
        },
        {
          "internalType": "address",
          "name": "_user",
          "type": "address"
        }
      ],
      "name": "isConcerned",
      "outputs": [
        {
          "internalType": "bool",
          "name": "",
          "type": "bool"
        }
      ],
      "stateMutability": "view",
      "type": "function"
    },
    {
      "inputs": [
        {
          "internalType": "uint256",
          "name": "_index",
          "type": "uint256"
        },
        {
          "internalType": "bytes",
          "name": "_value",
          "type": "bytes"
        }
      ],
      "name": "provideDirectDrive",
      "outputs": [],
      "stateMutability": "nonpayable",
      "type": "function"
    },
    {
      "inputs": [
        {
          "internalType": "uint256",
          "name": "_index",
          "type": "uint256"
        },
        {
          "internalType": "bytes32",
          "name": "_root",
          "type": "bytes32"
        }
      ],
      "name": "provideLoggerDrive",
      "outputs": [],
      "stateMutability": "nonpayable",
      "type": "function"
    },
    {
      "inputs": [
        {
          "internalType": "uint256",
          "name": "_index",
          "type": "uint256"
        }
      ],
      "name": "revealLoggerDrive",
      "outputs": [],
      "stateMutability": "nonpayable",
      "type": "function"
    },
    {
      "inputs": [
        {
          "internalType": "uint256",
          "name": "_index",
          "type": "uint256"
        },
        {
          "internalType": "bytes32",
          "name": "_claimedFinalHash",
          "type": "bytes32"
        },
        {
          "internalType": "bytes32[][]",
          "name": "_drivesSiblings",
          "type": "bytes32[][]"
        },
        {
          "internalType": "bytes",
          "name": "_output",
          "type": "bytes"
        },
        {
          "internalType": "bytes32[]",
          "name": "_outputSiblings",
          "type": "bytes32[]"
        }
      ],
      "name": "submitClaim",
      "outputs": [],
      "stateMutability": "nonpayable",
      "type": "function"
    },
    {
      "inputs": [
        {
          "internalType": "uint256",
          "name": "_index",
          "type": "uint256"
        }
      ],
      "name": "winByVG",
      "outputs": [],
      "stateMutability": "nonpayable",
      "type": "function"
    }
  ],
  "bytecode": "0x6080604052600080553480156200001557600080fd5b5060405162005fc338038062005fc3833981016040819052620000389162000099565b600380546001600160a01b03199081166001600160a01b039384161790915560058054821693831693909317909255600480549092169216919091179055620000e2565b80516001600160a01b03811681146200009457600080fd5b919050565b600080600060608486031215620000ae578283fd5b620000b9846200007c565b9250620000c9602085016200007c565b9150620000d9604085016200007c565b90509250925092565b615ed180620000f26000396000f3fe608060405234801561001057600080fd5b506004361061012c5760003560e01c8063ab82d9a0116100ad578063c817592d11610071578063c817592d146102a7578063c87e3ae9146102ba578063ded4df63146102cd578063f9bc3b21146102e0578063fa0ecc5b146102f35761012c565b8063ab82d9a01461023a578063ba0179b51461024d578063bfda2e7214610260578063c526656c14610273578063c70683ca146102945761012c565b80635748c130116100f45780635748c130146101aa57806373df1612146101bd57806382afd23b146101e2578063995e4339146101f5578063ab5da187146102185761012c565b806301ff62ab1461013157806326987b601461015a578063351e66571461016f5780633d46b819146101845780634c6fe7bf14610197575b600080fd5b61014461013f366004614c9c565b610306565b60405161015191906152d9565b60405180910390f35b61016261037e565b604051610151919061533c565b61018261017d366004614ce8565b610384565b005b610162610192366004614c84565b610a7d565b6101826101a5366004614c84565b610b27565b6101626101b8366004614c84565b610d0b565b6101d06101cb366004614c9c565b610fa2565b60405161015196959493929190615242565b6101446101f0366004614c84565b611982565b610208610203366004614c84565b61199a565b60405161015194939291906152e4565b61022b610226366004614c9c565b611d90565b60405161015193929190615322565b610182610248366004614c84565b611e20565b61018261025b366004614c84565b612146565b61018261026e366004614c84565b6123c8565b610286610281366004614c9c565b6124f6565b604051610151929190615201565b6101826102a2366004614cc7565b61262f565b6101626102b5366004614dd0565b612b06565b6101826102c8366004614c84565b61330d565b6101826102db366004614c84565b6134ff565b6101826102ee366004614c84565b6139bc565b610182610301366004614ecf565b613d87565b600082806000541161034d576040805162461bcd60e51b81526020600482015260166024820152600080516020615e7c833981519152604482015290519081900360640190fd5b505060009182526006602090815260408084206001600160a01b03939093168452600f909201905290205460ff1690565b60005481565b8480600054116103c9576040805162461bcd60e51b81526020600482015260166024820152600080516020615e7c833981519152604482015290519081900360640190fd5b6103d281611982565b610414576040805162461bcd60e51b815260206004820152600e60248201526d496e64657820696e61637469766560901b604482015290519081900360640190fd5b6000868152600660205260409020600e810154600c820180548993923392916001600160401b0390911690811061044757fe5b6000918252602090912001546001600160a01b0316146104825760405162461bcd60e51b815260040161047990615672565b60405180910390fd5b6000888152600260209081526040808320805460010190556006909152812089916104ac836143b2565b600683015401421190506004601083015460ff16600a8111156104cb57fe5b14806104f157506002601083015460ff16600a8111156104e757fe5b1480156104f15750805b61050d5760405162461bcd60e51b815260040161047990615570565b88516014830154146105315760405162461bcd60e51b8152600401610479906154a3565b60048201548851600160401b90910460ff1660020a146105635760405162461bcd60e51b815260040161047990615b10565b606061056e896146cc565b6004848101546040516310561d5760e31b81529293508d9273__$c7dbd794b8c7b5c2028db781007df1176e$__9263d7304dd9926001600160401b03811692600160401b90910460ff169185916382b0eab8916105cd918a910161522f565b60206040518083038186803b1580156105e557600080fd5b505af41580156105f9573d6000803e3d6000fd5b505050506040513d601f19601f8201168201806040525081019061061d9190614c6c565b8d6040518563ffffffff1660e01b815260040161063d9493929190615d96565b60206040518083038186803b15801561065557600080fd5b505af4158015610669573d6000803e3d6000fd5b505050506040513d601f19601f8201168201806040525081019061068d9190614c6c565b146106aa5760405162461bcd60e51b8152600401610479906153a1565b601483015460005b8181101561099b5760608c82815181106106c857fe5b60200260200101519050856009015473__$c7dbd794b8c7b5c2028db781007df1176e$__63d7304dd988601401858154811061070057fe5b600091825260209091206005909102015460148a0180546001600160401b03909216918790811061072d57fe5b906000526020600020906005020160000160089054906101000a900460ff1673__$c7dbd794b8c7b5c2028db781007df1176e$__63a73426888c601401898154811061077557fe5b600091825260209091206005909102015460405160e083901b6001600160e01b03191681526107b191600160401b900460ff1690600401615dc7565b60206040518083038186803b1580156107c957600080fd5b505af41580156107dd573d6000803e3d6000fd5b505050506040513d601f19601f820116820180604052508101906108019190614c6c565b866040518563ffffffff1660e01b81526004016108219493929190615d96565b60206040518083038186803b15801561083957600080fd5b505af415801561084d573d6000803e3d6000fd5b505050506040513d601f19601f820116820180604052508101906108719190614c6c565b1461088e5760405162461bcd60e51b815260040161047990615431565b73__$c7dbd794b8c7b5c2028db781007df1176e$__63d7304dd98760140184815481106108b757fe5b60009182526020909120600590910201546014890180546001600160401b0390921691869081106108e457fe5b906000526020600020906005020160000160089054906101000a900460ff1689601301868154811061091257fe5b9060005260206000200154856040518563ffffffff1660e01b815260040161093d9493929190615d96565b60206040518083038186803b15801561095557600080fd5b505af4158015610969573d6000803e3d6000fd5b505050506040513d601f19601f8201168201806040525081019061098d9190614c6c565b6009870155506001016106b2565b50600a84018c905560108401805460ff1916600617905589516109c790600b86019060208d01906147e3565b50600e840154600c85018054600192600f88019260009290916001600160401b03169081106109f257fe5b60009182526020808320909101546001600160a01b03168352820192909252604090810190912080549215156101000261ff001990931692909217909155426006860155517f1e9358f673ff367487ce56f136412ae5b69bf2c06e223aad2756d748c2a9b52a90610a66908f908f90615ca2565b60405180910390a150505050505050505050505050565b6000818060005411610ac4576040805162461bcd60e51b81526020600482015260166024820152600080516020615e7c833981519152604482015290519081900360640190fd5b610acd81611982565b610b0f576040805162461bcd60e51b815260206004820152600e60248201526d496e64657820696e61637469766560901b604482015290519081900360640190fd5b60008381526002602052604090205491505b50919050565b808060005411610b6c576040805162461bcd60e51b81526020600482015260166024820152600080516020615e7c833981519152604482015290519081900360640190fd5b610b7581611982565b610bb7576040805162461bcd60e51b815260206004820152600e60248201526d496e64657820696e61637469766560901b604482015290519081900360640190fd5b600082815260066020526040812090610bcf846143b2565b8260060154014211905080610bf65760405162461bcd60e51b8152600401610479906156ff565b6000601083015460ff16600a811115610c0b57fe5b1415610c5d576010820180546001919060ff191682805b0217905550600080516020615e5c83398151915284610c4086610d0b565b604051610c4e929190615ca2565b60405180910390a15050610d07565b6003601083015460ff16600a811115610c7257fe5b1415610c8d576010820180546001919060ff19168280610c22565b6004601083015460ff16600a811115610ca257fe5b1415610cbe576010820180546005919060ff1916600183610c22565b6006601083015460ff16600a811115610cd357fe5b1415610cef57601082018054600a919060ff1916600183610c22565b60405162461bcd60e51b815260040161047990615857565b5050565b6000818060005411610d52576040805162461bcd60e51b81526020600482015260166024820152600080516020615e7c833981519152604482015290519081900360640190fd5b60008381526006602052604081206010015460ff169081600a811115610d7457fe5b1415610d96576f57616974696e6750726f76696465727360801b925050610b21565b600381600a811115610da457fe5b1415610dc4576d57616974696e6752657665616c7360901b925050610b21565b600281600a811115610dd257fe5b1415610dfa577557616974696e674368616c6c656e676544726976657360501b925050610b21565b600581600a811115610e0857fe5b1415610e2f5774436c61696d65724d6973736564446561646c696e6560581b925050610b21565b600181600a811115610e3d57fe5b1415610e65577550726f76696465724d6973736564446561646c696e6560501b925050610b21565b600481600a811115610e7357fe5b1415610e91576b57616974696e67436c61696d60a01b925050610b21565b600681600a811115610e9f57fe5b1415610ece577f57616974696e67436f6e6669726d6174696f6e446561646c696e650000000000925050610b21565b600781600a811115610edc57fe5b1415610f04577515d85a5d1a5b99d0da185b1b195b99d954995cdd5b1d60521b925050610b21565b600a81600a811115610f1257fe5b1415610f33576e10dbdb9cd95b9cdd5cd4995cdd5b1d608a1b925050610b21565b600881600a811115610f4157fe5b1415610f60576c21b430b63632b733b2b92bb7b760991b925050610b21565b600981600a811115610f6e57fe5b1415610f8a576921b630b4b6b2b92bb7b760b11b925050610b21565b60405162461bcd60e51b81526004016104799061588e565b6060806060806060610fb261486f565b878060005411610ff7576040805162461bcd60e51b81526020600482015260166024820152600080516020615e7c833981519152604482015290519081900360640190fd5b60008981526006602090815260408083206001600160a01b038c168452600f8101835292819020815160808082018452915460ff808216151583526101008204811615158387015262010000820416151582850152630100000090046001600160401b03166060808301919091528351600480825260a0820190955291975093909291908301908036833701905050905081600301548160008151811061109a57fe5b6020026020010181815250506110af8b6143b2565b826006015401816001815181106110c257fe5b6020908102919091010152600482015481516001600160401b0390911690829060029081106110ed57fe5b6020026020010181815250508160040160089054906101000a900460ff1660ff168160038151811061111b57fe5b6020908102919091010152604080516002808252606082810190935281602001602082028036833701905050600e840154909150600160401b90046001600160401b0316156111cc57600e830154600c840180549091600160401b90046001600160401b031690811061118a57fe5b600091825260208220015482516001600160a01b039091169183916111ab57fe5b60200260200101906001600160a01b031690816001600160a01b0316815250505b600e830154600c8401805490916001600160401b03169081106111eb57fe5b9060005260206000200160009054906101000a90046001600160a01b03168160018151811061121657fe5b6001600160a01b039290921660209283029190910182015260408051600480825260a08201909252606092909190820160808036833701905050905083600801548160008151811061126457fe5b60200260200101818152505083600901548160018151811061128257fe5b60200260200101818152505083600a0154816002815181106112a057fe5b6020026020010181815250506112b58d610d0b565b816003815181106112c257fe5b60209081029190910101526000601085015460ff16600a8111156112e257fe5b14156115bb57604080516001808252818301909252606091816020015b611307614896565b8152602001906001900390816112ff579050509050846014018560120186600201548154811061133357fe5b90600052602060002001548154811061134857fe5b600091825260209182902060408051610100808201835260059490940290920180546001600160401b0381168452600160401b900460ff1683860152600180820180548451600293821615909702600019011691909104601f810187900487028601870184528086529395919492860193909183018282801561140c5780601f106113e15761010080835404028352916020019161140c565b820191906000526020600020905b8154815290600101906020018083116113ef57829003601f168201915b5050509183525050600282810180546040805160206001841615610100026000190190931694909404601f8101839004830285018301909152808452938101939083018282801561149e5780601f106114735761010080835404028352916020019161149e565b820191906000526020600020905b81548152906001019060200180831161148157829003601f168201915b5050509183525050600382015460208201526004909101546001600160a01b038116604083015260ff600160a01b8204811615156060840152600160a81b909104161515608090910152815182906000906114f557fe5b602002602001018190525083838387600b01848b828054600181600116156101000203166002900480601f01602080910402602001604051908101604052809291908181526020018280546001816001161561010002031660029004801561159e5780601f106115735761010080835404028352916020019161159e565b820191906000526020600020905b81548152906001019060200180831161158157829003601f168201915b505050505092509b509b509b509b509b509b505050505050611977565b6003601085015460ff16600a8111156115d057fe5b141561162157604080516001808252818301909252606091816020015b6115f5614896565b8152602001906001900390816115ed579050509050846014018560110186600101548154811061133357fe5b6001601085015460ff16600a81111561163657fe5b14156116e5576040805160008082526020820190925260609161166f565b61165c614896565b8152602001906001900390816116545790505b50905083838387600b01848b828054600181600116156101000203166002900480601f01602080910402602001604051908101604052809291908181526020018280546001816001161561010002031660029004801561159e5780601f106115735761010080835404028352916020019161159e565b600b84018054604080516020601f60026000196101006001881615020190951694909404938401819004810282018101909252828152869386938693919260148b01928d92859183018282801561177d5780601f106117525761010080835404028352916020019161177d565b820191906000526020600020905b81548152906001019060200180831161176057829003601f168201915b5050505050925081805480602002602001604051908101604052809291908181526020016000905b828210156119605760008481526020908190206040805161010080820183526005870290930180546001600160401b0381168352600160401b900460ff1682860152600180820180548551600293821615909702600019011691909104601f8101879004870286018701855280865292959194938601939290918301828280156118705780601f1061184557610100808354040283529160200191611870565b820191906000526020600020905b81548152906001019060200180831161185357829003601f168201915b5050509183525050600282810180546040805160206001841615610100026000190190931694909404601f810183900483028501830190915280845293810193908301828280156119025780601f106118d757610100808354040283529160200191611902565b820191906000526020600020905b8154815290600101906020018083116118e557829003601f168201915b505050918352505060038201546020808301919091526004909201546001600160a01b038116604083015260ff600160a01b8204811615156060840152600160a81b90910416151560809091015290825260019290920191016117a5565b5050505091509a509a509a509a509a509a50505050505b509295509295509295565b60008181526001602052604090205460ff165b919050565b600080600060608480600054116119e6576040805162461bcd60e51b81526020600482015260166024820152600080516020615e7c833981519152604482015290519081900360640190fd5b6000868152600660205260409020600a601082015460ff16600a811115611a0957fe5b1415611ac257600160008083600b01808054600181600116156101000203166002900480601f016020809104026020016040519081016040528092919081815260200182805460018160011615610100020316600290048015611aad5780601f10611a8257610100808354040283529160200191611aad565b820191906000526020600020905b815481529060010190602001808311611a9057829003601f168201915b50505050509050955095509550955050611d88565b6000601082015460ff16600a811115611ad757fe5b1480611af557506002601082015460ff16600a811115611af357fe5b145b80611b1257506004601082015460ff16600a811115611b1057fe5b145b80611b2f57506006601082015460ff16600a811115611b2d57fe5b145b80611b4c57506007601082015460ff16600a811115611b4a57fe5b145b80611b6957506003601082015460ff16600a811115611b6757fe5b145b15611b925760006001600060405180602001604052806000815250955095509550955050611d88565b6001601082015460ff16600a811115611ba757fe5b1415611caa57600087815260066020526040812060128101546002909101541015611c1c578160140182601201836002015481548110611be357fe5b906000526020600020015481548110611bf857fe5b60009182526020909120600460059092020101546001600160a01b03169050611c87565b600088815260066020526040902060118101546001909101541015611c87578160140182601101836001015481548110611c5257fe5b906000526020600020015481548110611c6757fe5b60009182526020909120600460059092020101546001600160a01b031690505b600080826040518060200160405280600081525096509650965096505050611d88565b6005601082015460ff16600a811115611cbf57fe5b1480611cdd57506008601082015460ff16600a811115611cdb57fe5b145b15611d3b57600e810154600c820180546000928392916001600160401b03909116908110611d0757fe5b60009182526020808320909101546040805192830190529181529298509096506001600160a01b031694509250611d889050565b6009601082015460ff16600a811115611d5057fe5b1415610f8a5760008082600c0183600e0160089054906101000a90046001600160401b03166001600160401b031681548110611d0757fe5b509193509193565b6000806000848060005411611dda576040805162461bcd60e51b81526020600482015260166024820152600080516020615e7c833981519152604482015290519081900360640190fd5b5050506000928352506006602090815260408084206001600160a01b039093168452600f909201905290205460ff80821692610100830482169262010000900490911690565b808060005411611e65576040805162461bcd60e51b81526020600482015260166024820152600080516020615e7c833981519152604482015290519081900360640190fd5b611e6e81611982565b611eb0576040805162461bcd60e51b815260206004820152600e60248201526d496e64657820696e61637469766560901b604482015290519081900360640190fd5b6000828152600660209081526040808320338452600f81019092529091205483919060ff16611ef15760405162461bcd60e51b815260040161047990615c43565b6000848152600660209081526040808320338452600f810190925290912054859190610100900460ff1615611f385760405162461bcd60e51b815260040161047990615969565b6000868152600260209081526040808320805460010190556006918290529091208791601082015460ff16600a811115611f6e57fe5b14611f8b5760405162461bcd60e51b815260040161047990615356565b600554600e820154600c830180546001600160a01b03909316926320b73870923392916001600160401b03909116908110611fc257fe5b6000918252602090912001546005850154600380546009880154600a890154928901546040516001600160e01b031960e08a901b16815261201897966001600160a01b03908116969594169391906004016151bd565b602060405180830381600087803b15801561203257600080fd5b505af1158015612046573d6000803e3d6000fd5b505050506040513d601f19601f8201168201806040525081019061206a9190614c6c565b60078083019190915560108201805460ff19166001830217905550336000908152600f8201602052604090819020805461ff0019166101001790819055600e83018054600160801b600160401b6001600160401b03630100000090950485160267ffffffffffffffff60401b199092169190911781810484166001019093160267ffffffffffffffff60801b19909216919091179055426006830155517fa895da4b794aeba8d8082db237265459db7b7ffdb5aa7c2332a7c5eafbfae73590612134908a9061533c565b60405180910390a15050505050505050565b80806000541161218b576040805162461bcd60e51b81526020600482015260166024820152600080516020615e7c833981519152604482015290519081900360640190fd5b61219481611982565b6121d6576040805162461bcd60e51b815260206004820152600e60248201526d496e64657820696e61637469766560901b604482015290519081900360640190fd5b6000828152600660209081526040808320338452600f81019092529091205483919060ff166122175760405162461bcd60e51b815260040161047990615c43565b6000848152600660209081526040808320338452600f810190925290912054859190610100900460ff161561225e5760405162461bcd60e51b815260040161047990615969565b6000868152600260209081526040808320805460010190556006918290529091208791601082015460ff16600a81111561229457fe5b146122b15760405162461bcd60e51b815260040161047990615356565b600d81018054600181810183556000928352602080842090920180546001600160a01b03191633908117909155808452600f8501909252604092839020805461ff001916610100179055600e840180546001600160401b03600160801b80830482169094011690920267ffffffffffffffff60801b1990921691909117905590517f6f220d98c15dbd07fdc24781b682ea34f92411fc61b83c761dd927afbe02d3fd91612360918b9190615c8b565b60405180910390a1600c810154600e820154600160801b90046001600160401b031614156123be5760108101805460ff1916600a179055600080516020615e5c833981519152886123b081610d0b565b604051612134929190615ca2565b5050505050505050565b80806000541161240d576040805162461bcd60e51b81526020600482015260166024820152600080516020615e7c833981519152604482015290519081900360640190fd5b61241681611982565b612458576040805162461bcd60e51b815260206004820152600e60248201526d496e64657820696e61637469766560901b604482015290519081900360640190fd5b60008281526002602081815260408084208054600101905560069091529091208391601082015460ff16600a81111561248d57fe5b146124aa5760405162461bcd60e51b81526004016104799061579b565b336000908152600f8201602052604090205460ff166124db5760405162461bcd60e51b815260040161047990615b5c565b60108101805460ff1916600317905542600690910155505050565b60608083806000541161253e576040805162461bcd60e51b81526020600482015260166024820152600080516020615e7c833981519152604482015290519081900360640190fd5b606080600760008881526006602052604090206010015460ff16600a81111561256357fe5b14156126095760408051600180825281830190925290602080830190803683375050604080516001808252818301909252929450905060208083019080368337505060055484519293506001600160a01b0316918491506000906125c357fe5b6001600160a01b039092166020928302919091018201526000888152600690915260408120600701548251909183916125f857fe5b602002602001018181525050612623565b505060408051600080825260208201908152818301909252905b90969095509350505050565b818060005411612674576040805162461bcd60e51b81526020600482015260166024820152600080516020615e7c833981519152604482015290519081900360640190fd5b61267d81611982565b6126bf576040805162461bcd60e51b815260206004820152600e60248201526d496e64657820696e61637469766560901b604482015290519081900360640190fd5b60008381526006602052604081208491601082015460ff16600a8111156126e257fe5b146126ff5760405162461bcd60e51b8152600401610479906158ba565b60128101546002820154106127265760405162461bcd60e51b8152600401610479906158fb565b60008160120182600201548154811061273b57fe5b906000526020600020015490508160140180549050811061276e5760405162461bcd60e51b8152600401610479906157e1565b612776614896565b82601401828154811061278557fe5b600091825260209182902060408051610100808201835260059490940290920180546001600160401b0381168452600160401b900460ff1683860152600180820180548451600293821615909702600019011691909104601f81018790048702860187018452808652939591949286019390918301828280156128495780601f1061281e57610100808354040283529160200191612849565b820191906000526020600020905b81548152906001019060200180831161282c57829003601f168201915b5050509183525050600282810180546040805160206001841615610100026000190190931694909404601f810183900483028501830190915280845293810193908301828280156128db5780601f106128b0576101008083540402835291602001916128db565b820191906000526020600020905b8154815290600101906020018083116128be57829003601f168201915b5050509183525050600382015460208201526004909101546001600160a01b038116604083015260ff600160a01b8204811615156060840152600160a81b9091041615156080909101526013840180549192506000918490811061293b57fe5b9060005260206000200154146129635760405162461bcd60e51b815260040161047990615ace565b8060c001516129845760405162461bcd60e51b815260040161047990615ba3565b60a08101516001600160a01b031633146129b05760405162461bcd60e51b815260040161047990615932565b6000878152600660205260408120600281015460128201805492939290919081106129d757fe5b9060005260206000200154905060008260140182815481106129f557fe5b906000526020600020906005020190508060040160159054906101000a900460ff16612a335760405162461bcd60e51b815260040161047990615631565b600381018990556013830180548a919084908110612a4d57fe5b6000918252602090912001556002830180546001019081905542600685015560128401541415612aa557601183015415612a955760108301805460ff19166002179055612aa5565b60108301805460ff191660041790555b7fc33d5cc33df375fac3c4fb6395fac74e37c0183c522e645801a298a6ba8e04a38a846014018481548110612ad657fe5b9060005260206000209060050201604051612af2929190615cb0565b60405180910390a150505050505050505050565b60006032841015612b295760405162461bcd60e51b8152600401610479906159e8565b600080548152600660205260408120905b8451816001600160401b03161015612cd35781600f01600086836001600160401b031681518110612b6757fe5b6020908102919091018101516001600160a01b031682528101919091526040016000205460ff1615612bab5760405162461bcd60e51b8152600401610479906155e2565b600182600f01600087846001600160401b031681518110612bc857fe5b60200260200101516001600160a01b03166001600160a01b0316815260200190815260200160002060000160006101000a81548160ff0219169083151502179055508082600f01600087846001600160401b031681518110612c2657fe5b60200260200101516001600160a01b03166001600160a01b0316815260200190815260200160002060000160036101000a8154816001600160401b0302191690836001600160401b0316021790555081600c0185826001600160401b031681518110612c8e57fe5b60209081029190910181015182546001808201855560009485529290932090920180546001600160a01b0319166001600160a01b039093169290921790915501612b3a565b508251600090806001600160401b0381118015612cef57600080fd5b50604051908082528060200260200182016040528015612d19578160200160208202803683370190505b508051612d309160138601916020909101906148dc565b5060005b818110156131a757612d44614896565b868281518110612d5057fe5b602002602001015190508060e00151612f30576003816020015160ff161015612d8b5760405162461bcd60e51b815260040161047990615a87565b8060c00151612f0d57806020015160ff1660020a8160400151511115612dc35760405162461bcd60e51b81526004016104799061574b565b60408101516020820151815160ff90911660020a1115612e545760408201518051602084015160ff1660020a036001600160401b0381118015612e0557600080fd5b506040519080825280601f01601f191660200182016040528015612e30576020820181803683370190505b50604051602001612e4292919061518e565b60405160208183030381529060405290505b6060612e5f826146cc565b6040516310561d5760e31b815290915073__$c7dbd794b8c7b5c2028db781007df1176e$__906382b0eab890612e9990849060040161522f565b60206040518083038186803b158015612eb157600080fd5b505af4158015612ec5573d6000803e3d6000fd5b505050506040513d601f19601f82011682018060405250810190612ee99190614c6c565b876013018581548110612ef857fe5b90600052602060002001819055505050612f2b565b60128501805460018181018355600092835260209092200183905593505b613041565b8060c00151613023578060800151856013018381548110612f4d57fe5b6000918252602091829020019190915560048054608084015192840151604051632b6baa3760e21b81526001600160a01b039092169363adaea8dc93612f969391929101615345565b60206040518083038186803b158015612fae57600080fd5b505afa158015612fc2573d6000803e3d6000fd5b505050506040513d601f19601f82011682018060405250810190612fe69190614c49565b158015612fff575060a08101516001600160a01b031615155b15612f2b576011850180546001810182556000918252602090912001829055613041565b60128501805460018181018355600092835260209092200183905593505b604080516101008101825282516001600160401b03908116825260208085015160ff90811682850190815286860151958501958652606080880151908601526080808801519086015260a0808801516001600160a01b03169086015260c08088015115159086015260e08088015115159086015260148b0180546001808201835560009283529185902087516005909202018054935167ffffffffffffffff19909416919096161760ff60401b1916600160401b9290931691909102919091178355935180519394929361311c9385019291909101906147e3565b50606082015180516131389160028401916020909101906147e3565b506080820151600382015560a08201516004909101805460c084015160e0909401511515600160a81b0260ff60a81b19941515600160a01b0260ff60a01b196001600160a01b039095166001600160a01b03199093169290921793909316179290921617905550600101612d34565b5060038860ff1610156131cc5760405162461bcd60e51b815260040161047990615528565b8254336001600160a01b0319909116178355600e83018054600160801b67ffffffffffffffff60801b19909116179055600383018b9055600883018a9055600983018a905560048301805467ffffffffffffffff19166001600160401b038b161760ff60401b1916600160401b60ff8b1602179055600583018790554260068401558115613270576010830180546000919060ff19166001835b02179055506132a0565b601183015415613290576010830180546002919060ff1916600183613266565b60108301805460ff191660041790555b7f74f4614e097fc158c85ea12787f9e678e96166b4f523416bdb792747c47f1bac6000546040516132d1919061533c565b60405180910390a150506000805481526001602081905260408220805460ff19168217905581549081019091559150505b979650505050505050565b808060005411613352576040805162461bcd60e51b81526020600482015260166024820152600080516020615e7c833981519152604482015290519081900360640190fd5b61335b81611982565b61339d576040805162461bcd60e51b815260206004820152600e60248201526d496e64657820696e61637469766560901b604482015290519081900360640190fd5b6000828152600660205260409020546001600160a01b0316338114613404576040805162461bcd60e51b815260206004820152601860248201527721b0b73737ba1031329031b0b63632b210313c903ab9b2b960411b604482015290519081900360640190fd5b60008381526006602052604090206001601082015460ff16600a81111561342757fe5b148061344557506005601082015460ff16600a81111561344357fe5b145b806134625750600a601082015460ff16600a81111561346057fe5b145b8061347f57506008601082015460ff16600a81111561347d57fe5b145b8061349c57506009601082015460ff16600a81111561349a57fe5b145b6134b85760405162461bcd60e51b81526004016104799061580e565b6134c6601182016000614916565b6134d4601282016000614916565b6134e2601382016000614916565b6134f0601482016000614937565b6134f9846147c0565b50505050565b808060005411613544576040805162461bcd60e51b81526020600482015260166024820152600080516020615e7c833981519152604482015290519081900360640190fd5b61354d81611982565b61358f576040805162461bcd60e51b815260206004820152600e60248201526d496e64657820696e61637469766560901b604482015290519081900360640190fd5b6000828152600260209081526040808320805460010190556006909152902082906007601082015460ff16600a8111156135c557fe5b146135e25760405162461bcd60e51b815260040161047990615a34565b426006820155600781015460055460405163b6b5c31960e01b81526001600160a01b039091169063b6b5c3199061361d90849060040161533c565b60206040518083038186803b15801561363557600080fd5b505afa158015613649573d6000803e3d6000fd5b505050506040513d601f19601f8201168201806040525081019061366d9190614c49565b1561384357600e820154600c83018054600192600f86019260009290916001600160401b031690811061369c57fe5b60009182526020808320909101546001600160a01b0316835282019290925260400181208054921515620100000262ff000019909316929092179091555b600d83015481101561373f57600083600f01600085600d0184815481106136fd57fe5b60009182526020808320909101546001600160a01b03168352820192909252604001902080549115156101000261ff00199092169190911790556001016136da565b50600d82018054600e840180546001600160401b03600160801b8083048216949094031690920267ffffffffffffffff60801b19909216919091179055613787906000614916565b600c820154600e830154600160801b90046001600160401b031614156137f4576010820180546008919060ff19166001835b0217905550600080516020615e5c833981519152856137d787610d0b565b6040516137e5929190615ca2565b60405180910390a150506139b7565b6010820180546004919060ff1916600183021790555050600e018054600160401b81046001600160401b031667ffffffffffffffff199091161767ffffffffffffffff60401b191690556139b7565b600554604051633664f8bf60e11b81526001600160a01b0390911690636cc9f17e9061387390849060040161533c565b60206040518083038186803b15801561388b57600080fd5b505afa15801561389f573d6000803e3d6000fd5b505050506040513d601f19601f820116820180604052508101906138c39190614c49565b1561399c57600182600f01600084600c0185600e0160089054906101000a90046001600160401b03166001600160401b0316815481106138ff57fe5b60009182526020808320909101546001600160a01b0316835282019290925260400190208054911515620100000262ff000019909216919091179055600c820154600e8301546001600160401b03600160801b909104161415613972576010820180546009919060ff19166001836137b9565b5060108101805460ff19166006179055600e01805467ffffffffffffffff60401b191690556139b7565b60405162461bcd60e51b815260040161047990615bda565b50505b505050565b808060005411613a01576040805162461bcd60e51b81526020600482015260166024820152600080516020615e7c833981519152604482015290519081900360640190fd5b613a0a81611982565b613a4c576040805162461bcd60e51b815260206004820152600e60248201526d496e64657820696e61637469766560901b604482015290519081900360640190fd5b60008281526006602052604090206003601082015460ff16600a811115613a6f57fe5b14613a8c5760405162461bcd60e51b815260040161047990615c0c565b600081601101826001015481548110613aa157fe5b9060005260206000200154905081601401805490508110613ad45760405162461bcd60e51b8152600401610479906154fc565b613adc614896565b826014018281548110613aeb57fe5b600091825260209182902060408051610100808201835260059490940290920180546001600160401b0381168452600160401b900460ff1683860152600180820180548451600293821615909702600019011691909104601f8101879004870286018701845280865293959194928601939091830182828015613baf5780601f10613b8457610100808354040283529160200191613baf565b820191906000526020600020905b815481529060010190602001808311613b9257829003601f168201915b5050509183525050600282810180546040805160206001841615610100026000190190931694909404601f81018390048302850183019091528084529381019390830182828015613c415780601f10613c1657610100808354040283529160200191613c41565b820191906000526020600020905b815481529060010190602001808311613c2457829003601f168201915b5050509183525050600382015460208201526004909101546001600160a01b038116604083015260ff600160a01b8204811615156060840152600160a81b90910416151560809091015260e0810151909150613caf5760405162461bcd60e51b8152600401610479906159b1565b6004805460808301516020840151604051632b6baa3760e21b81526001600160a01b039093169363adaea8dc93613ce893929101615345565b60206040518083038186803b158015613d0057600080fd5b505afa158015613d14573d6000803e3d6000fd5b505050506040513d601f19601f82011682018060405250810190613d389190614c49565b613d545760405162461bcd60e51b8152600401610479906156bc565b6001808401805490910190819055426006850155601184015414156139b4575050601001805460ff191660041790555050565b818060005411613dcc576040805162461bcd60e51b81526020600482015260166024820152600080516020615e7c833981519152604482015290519081900360640190fd5b613dd581611982565b613e17576040805162461bcd60e51b815260206004820152600e60248201526d496e64657820696e61637469766560901b604482015290519081900360640190fd5b60008381526006602052604081208491601082015460ff16600a811115613e3a57fe5b14613e575760405162461bcd60e51b8152600401610479906158ba565b6012810154600282015410613e7e5760405162461bcd60e51b8152600401610479906158fb565b600081601201826002015481548110613e9357fe5b9060005260206000200154905081601401805490508110613ec65760405162461bcd60e51b8152600401610479906157e1565b613ece614896565b826014018281548110613edd57fe5b600091825260209182902060408051610100808201835260059490940290920180546001600160401b0381168452600160401b900460ff1683860152600180820180548451600293821615909702600019011691909104601f8101879004870286018701845280865293959194928601939091830182828015613fa15780601f10613f7657610100808354040283529160200191613fa1565b820191906000526020600020905b815481529060010190602001808311613f8457829003601f168201915b5050509183525050600282810180546040805160206001841615610100026000190190931694909404601f810183900483028501830190915280845293810193908301828280156140335780601f1061400857610100808354040283529160200191614033565b820191906000526020600020905b81548152906001019060200180831161401657829003601f168201915b5050509183525050600382015460208201526004909101546001600160a01b038116604083015260ff600160a01b8204811615156060840152600160a81b9091041615156080909101526013840180549192506000918490811061409357fe5b9060005260206000200154146140bb5760405162461bcd60e51b815260040161047990615ace565b8060c001516140dc5760405162461bcd60e51b815260040161047990615ba3565b60a08101516001600160a01b031633146141085760405162461bcd60e51b815260040161047990615932565b60008781526006602052604081206002810154601282018054929392909190811061412f57fe5b90600052602060002001549050600082601401828154811061414d57fe5b906000526020600020906005020190508060040160159054906101000a900460ff161561418c5760405162461bcd60e51b8152600401610479906153ea565b80548951600160401b90910460ff1660020a10156141bc5760405162461bcd60e51b81526004016104799061574b565b805489518a91600160401b900460ff1660020a111561424e57895182548b91600160401b90910460ff1660020a036001600160401b03811180156141ff57600080fd5b506040519080825280601f01601f19166020018201604052801561422a576020820181803683370190505b5060405160200161423c92919061518e565b60405160208183030381529060405290505b6060614259826146cc565b9050600073__$c7dbd794b8c7b5c2028db781007df1176e$__6382b0eab8836040518263ffffffff1660e01b8152600401614294919061522f565b60206040518083038186803b1580156142ac57600080fd5b505af41580156142c0573d6000803e3d6000fd5b505050506040513d601f19601f820116820180604052508101906142e49190614c6c565b8c519091506142fc90600186019060208f01906147e3565b508086601301868154811061430d57fe5b6000918252602090912001556002860180546001019081905542600688015560128701541415614365576011860154156143555760108601805460ff19166002179055614365565b60108601805460ff191660041790555b7fc33d5cc33df375fac3c4fb6395fac74e37c0183c522e645801a298a6ba8e04a38d87601401878154811061439657fe5b9060005260206000209060050201604051610a66929190615cb0565b600060016101f460288360008681526006602052604090206010015460ff16600a8111156143dc57fe5b14156143fe575050506000828152600660205260409020600501549050611995565b600360008681526006602052604090206010015460ff16600a81111561442057fe5b141561444657505050600082815260066020526040902060050154610960019050611995565b600260008681526006602052604090206010015460ff16600a81111561446857fe5b14156144955750505060008281526006602052604090206005810154601190910154026002029050611995565b600460008681526006602052604090206010015460ff16600a8111156144b757fe5b14156144ee576000858152600660205260409020600581015460039091015464e8d4a510009084025b048201019350505050611995565b600660008681526006602052604090206010015460ff16600a81111561451057fe5b141561453d576000858152600660205260409020600581015460039091015464e8d4a510009084026144e0565b600760008681526006602052604090206010015460ff16600a81111561455f57fe5b1415614612576000858152600660205260409081902060058082015490546003909201549251631b8798d560e11b815290926001600160a01b039092169163370f31aa916145b791859187918a918a90600401615d73565b60206040518083038186803b1580156145cf57600080fd5b505afa1580156145e3573d6000803e3d6000fd5b505050506040513d601f19601f820116820180604052508101906146079190614c6c565b019350505050611995565b600960008681526006602052604090206010015460ff16600a81111561463457fe5b148061465f5750600860008681526006602052604090206010015460ff16600a81111561465d57fe5b145b806146895750600560008681526006602052604090206010015460ff16600a81111561468757fe5b145b806146b35750600a60008681526006602052604090206010015460ff16600a8111156146b157fe5b145b156146c45760009350505050611995565b505050919050565b6060600060088351816146db57fe5b0490506060816001600160401b03811180156146f657600080fd5b50604051908082528060200260200182016040528015614720578160200160208202803683370190505b50905060005b828110156147b8576000805b6008811015614770576000878285600802018151811061474e57fe5b01602001516001600160f81b031916600883021c929092179150600101614732565b50806040516020016147829190615179565b604051602081830303815290604052805190602001208383815181106147a457fe5b602090810291909101015250600101614726565b509392505050565b6000908152600160209081526040808320805460ff191690556002909152812055565b828054600181600116156101000203166002900490600052602060002090601f016020900481019282614819576000855561485f565b82601f1061483257805160ff191683800117855561485f565b8280016001018555821561485f579182015b8281111561485f578251825591602001919060010190614844565b5061486b929150614958565b5090565b60408051608081018252600080825260208201819052918101829052606081019190915290565b60408051610100810182526000808252602082018190526060928201839052828201929092526080810182905260a0810182905260c0810182905260e081019190915290565b82805482825590600052602060002090810192821561485f579160200282018281111561485f578251825591602001919060010190614844565b50805460008255906000526020600020908101906149349190614958565b50565b5080546000825560050290600052602060002090810190614934919061496d565b5b8082111561486b5760008155600101614959565b8082111561486b57805468ffffffffffffffffff19168155600061499460018301826149c4565b6149a26002830160006149c4565b50600060038201556004810180546001600160b01b031916905560050161496d565b50805460018160011615610100020316600290046000825580601f106149ea5750614934565b601f0160209004906000526020600020908101906149349190614958565b80356001600160a01b038116811461199557600080fd5b600082601f830112614a2f578081fd5b8135614a42614a3d82615df8565b615dd5565b818152915060208083019084810181840286018201871015614a6357600080fd5b60005b84811015614a8257813584529282019290820190600101614a66565b505050505092915050565b600082601f830112614a9d578081fd5b8135614aab614a3d82615df8565b818152915060208083019084810160005b84811015614a82578135870161010080601f19838c03011215614ade57600080fd5b614ae781615dd5565b614af2868401614c21565b81526040614b01818501614c38565b878301526060808501356001600160401b0380821115614b2057600080fd5b614b2e8f8b848a0101614bbb565b848601526080935083870135915080821115614b4957600080fd5b50614b588e8a83890101614bbb565b82850152505060a0808501358284015260c09150614b77828601614a08565b9083015260e0614b88858201614bb0565b82840152614b97848601614bb0565b9083015250865250509282019290820190600101614abc565b803561199581615e4d565b600082601f830112614bcb578081fd5b81356001600160401b03811115614bde57fe5b614bf1601f8201601f1916602001615dd5565b9150808252836020828501011115614c0857600080fd5b8060208401602084013760009082016020015292915050565b80356001600160401b038116811461199557600080fd5b803560ff8116811461199557600080fd5b600060208284031215614c5a578081fd5b8151614c6581615e4d565b9392505050565b600060208284031215614c7d578081fd5b5051919050565b600060208284031215614c95578081fd5b5035919050565b60008060408385031215614cae578081fd5b82359150614cbe60208401614a08565b90509250929050565b60008060408385031215614cd9578182fd5b50508035926020909101359150565b600080600080600060a08688031215614cff578081fd5b85359450602080870135945060408701356001600160401b0380821115614d24578384fd5b818901915089601f830112614d37578384fd5b8135614d45614a3d82615df8565b81815284810190848601875b84811015614d7a57614d688f8984358a0101614a1f565b84529287019290870190600101614d51565b509098505050506060890135925080831115614d94578384fd5b614da08a848b01614bbb565b94506080890135925080831115614db5578384fd5b5050614dc388828901614a1f565b9150509295509295909350565b600080600080600080600060e0888a031215614dea578485fd5b873596506020808901359650614e0260408a01614c21565b9550614e1060608a01614c38565b94506080890135935060a08901356001600160401b0380821115614e32578485fd5b818b0191508b601f830112614e45578485fd5b8135614e53614a3d82615df8565b8082825285820191508585018f878886028801011115614e71578889fd5b8895505b83861015614e9a57614e8681614a08565b835260019590950194918601918601614e75565b509650505060c08b0135925080831115614eb2578384fd5b5050614ec08a828b01614a8d565b91505092959891949750929550565b60008060408385031215614ee1578182fd5b8235915060208301356001600160401b03811115614efd578182fd5b614f0985828601614bbb565b9150509250929050565b6001600160a01b03169052565b6000815180845260208085019450808401835b83811015614f585781516001600160a01b031687529582019590820190600101614f33565b509495945050505050565b6000815180845260208085019450808401835b83811015614f5857815187529582019590820190600101614f76565b6000815180845260208085018081965082840281019150828601855b8581101561506e57828403895281516101006001600160401b03825116865286820151614fdd88880182615172565b506040808301518282890152614ff583890182615081565b92505050606080830151878303828901526150108382615081565b92505050608080830151818801525060a08083015161503182890182614f13565b505060c0808301516150458289018261507b565b505060e0918201519161505a8782018461507b565b509986019994505090840190600101614fae565b5091979650505050505050565b15159052565b60008151808452615099816020860160208601615e21565b601f01601f19169290920160200192915050565b600081546001808216600081146150cb57600181146150e957615127565b60028304607f16865260ff1983166020870152604086019350615127565b600283048087526150f986615e15565b60005b8281101561511d5781546020828b01015284820191506020810190506150fc565b8801602001955050505b50505092915050565b8051151582526020810151151560208301526040810151151560408301526001600160401b0360608201511660608301525050565b6001600160401b03169052565b60ff169052565b6001600160c01b031991909116815260080190565b600083516151a0818460208801615e21565b8351908301906151b4818360208801615e21565b01949350505050565b6001600160a01b03978816815295871660208701526040860194909452919094166060840152608083019390935260a082019290925260c081019190915260e00190565b6000604082526152146040830185614f20565b82810360208401526152268185614f63565b95945050505050565b600060208252614c656020830184614f63565b60006101208083526152568184018a614f63565b905060208382038185015261526b828a614f20565b84810360408601528851808252828a01935090820190845b8181101561529f57845183529383019391830191600101615283565b505084810360608601526152b38189615081565b9250505082810360808401526152c98186614f92565b91505061330260a0830184615130565b901515815260200190565b841515815283151560208201526001600160a01b038316604082015260806060820181905260009061531890830184615081565b9695505050505050565b921515835290151560208301521515604082015260600190565b90815260200190565b91825260ff16602082015260400190565b6020808252602b908201527f53746174652073686f756c642062652057616974696e67436f6e6669726d617460408201526a696f6e446561646c696e6560a81b606082015260800190565b60208082526029908201527f4f7574707574206973206e6f7420636f6e7461696e656420696e2074686520666040820152680d2dcc2d840d0c2e6d60bb1b606082015260800190565b60208082526027908201527f496e76616c696420647269766520746f20636c61696d20666f72206469726563604082015266742076616c756560c81b606082015260800190565b6020808252604c908201527f4472697665207369626c696e6773206d75737420626520636f6d70617469626c60408201527f6520776974682070726576696f757320696e697469616c206861736820666f7260608201526b20656d70747920647269766560a01b608082015260a00190565b60208082526039908201527f436c61696d6564206472697665206e756d6265722073686f756c64206d617463604082015278341031b630b4b6b2b21039b4b13634b733b990373ab6b132b960391b606082015260800190565b602080825260129082015271092dcecc2d8d2c840c8e4d2ecca92dcc8caf60731b604082015260600190565b60208082526028908201527f6f75747075742064726976652068617320746f206265206174206c65617374206040820152671bdb99481ddbdc9960c21b606082015260800190565b6020808252604c908201527f53746174652073686f756c642062652057616974696e67436c61696d2c206f7260408201527f2057616974696e674368616c6c656e676544726976657320776974682064656160608201526b191b1a5b99481c185cdcd95960a21b608082015260a00190565b6020808252602f908201527f52657065746974696f6e206f662070617274696573272061646472657373657360408201526e081a5cc81b9bdd08185b1b1bddd959608a1b606082015260800190565b60208082526021908201527f496e76616c696420647269766520746f20636c61696d20666f72206c6f6767656040820152603960f91b606082015260800190565b6020808252602a908201527f5468652073656e646572206973206e6f7420436c61696d6572206174207468696040820152697320696e7374616e636560b01b606082015260800190565b60208082526023908201527f48617368206973206e6f7420617661696c61626c65206f6e206c6f67676572206040820152621e595d60ea1b606082015260800190565b6020808252602c908201527f446561646c696e65206973206e6f74206f76657220666f72207468697320737060408201526b65636966696320737461746560a01b606082015260800190565b60208082526030908201527f496e707574206279746573206c656e677468206578636565647320746865206360408201526f6c61696d6564206c6f67322073697a6560801b606082015260800190565b60208082526026908201527f53746174652073686f756c642062652057616974696e674368616c6c656e676560408201526544726976657360d01b606082015260800190565b602080825260139082015272092dcecc2d8d2c840c8e4d2ecca40d2dcc8caf606b1b604082015260600190565b60208082526029908201527f43616e6e6f7420646573747275637420696e7374616e63652061742063757272604082015268656e7420737461746560b81b606082015260800190565b6020808252601a908201527f43616e6e6f742061626f72742063757272656e74207374617465000000000000604082015260600190565b602080825260129082015271556e7265636f676e697a656420737461746560701b604082015260600190565b60208082526021908201527f546865207374617465206973206e6f742057616974696e6750726f76696465726040820152607360f81b606082015260800190565b6020808252601b908201527f4e6f20617661696c61626c652070656e64696e67206472697665730000000000604082015260600190565b6020808252601a908201527f5468652073656e646572206973206e6f742070726f7669646572000000000000604082015260600190565b60208082526028908201527f53656e6465722068617320616c7265616479206368616c6c656e676564206f726040820152670818db185a5b595960c21b606082015260800190565b6020808252601a908201527f6e656564734c6f676765722073686f756c642062652074727565000000000000604082015260600190565b6020808252602c908201527f726f756e64206475726174696f6e2068617320746f206265206174206c65617360408201526b74203530207365636f6e647360a01b606082015260800190565b60208082526033908201527f5374617465206973206e6f742057616974696e674368616c6c656e6765526573604082015272756c742c2063616e6e6f742077696e4279564760681b606082015260800190565b60208082526027908201527f64697265637456616c75652068617320746f206265206174206c65617374206f6040820152661b99481ddbdc9960ca1b606082015260800190565b60208082526022908201527f54686520647269766520686173682073686f756c646e27742062652066696c6c604082015261195960f21b606082015260800190565b6020808252602c908201527f4f7574707574206c656e67746820646f65736e2774206d61746368206f75747060408201526b7574206c6f67322073697a6560a01b606082015260800190565b60208082526027908201527f4f6e6c7920636f6e6365726e65642075736572732063616e206368616c6c656e6040820152666744726976657360c81b606082015260800190565b6020808252601b908201527f7761697450726f76696465722073686f756c6420626520747275650000000000604082015260600190565b60208082526018908201527714dd185d19481bd9881591c81a5cc81b9bdd08199a5b985b60421b604082015260600190565b6020808252601f908201527f546865207374617465206973206e6f742057616974696e6752657665616c7300604082015260600190565b60208082526028908201527f5468652073656e646572206973206e6f7420706172747920746f207468697320604082015267696e7374616e636560c01b606082015260800190565b9182526001600160a01b0316602082015260400190565b918252602082015260400190565b6000838252604060208301528254615cd4604084016001600160401b038316615165565b615ce76060840160ff8360401c16615172565b50610100806080840152615d026101408401600186016150ad565b838103603f190160a0850152615d1b81600287016150ad565b600386015460c08601526004860154909150615d4360e086016001600160a01b038316614f13565b615d5583860160ff8360a01c1661507b565b615d69610120860160ff8360a81c1661507b565b5095945050505050565b948552602085019390935260408401919091526060830152608082015260a00190565b60006001600160401b038616825260ff85166020830152836040830152608060608301526153186080830184614f63565b60ff91909116815260200190565b6040518181016001600160401b0381118282101715615df057fe5b604052919050565b60006001600160401b03821115615e0b57fe5b5060209081020190565b60009081526020902090565b60005b83811015615e3c578181015183820152602001615e24565b838111156134f95750506000910152565b801515811461493457600080fdfe395534a9488250c4ea32136ac7cd156150898b4530ec3a5985e3ce6a50d2b36f496e646578206e6f7420696e7374616e74696174656400000000000000000000a2646970667358221220a3fe1f5b62db23c64822a6bc41a15658ec08d14b005178db58c478380a04d32a64736f6c63430007040033",
  "linkReferences": {
    "@cartesi/util/contracts/Merkle.sol": {
      "Merkle": [
        {
          "length": 20,
          "start": 1658
        },
        {
          "length": 20,
          "start": 1995
        },
        {
          "length": 20,
          "start": 2112
        },
        {
          "length": 20,
          "start": 2434
        },
        {
          "length": 20,
          "start": 12131
        },
        {
          "length": 20,
          "start": 17233
        }
      ]
    }
  },
  "deployedLinkReferences": {
    "@cartesi/util/contracts/Merkle.sol": {
      "Merkle": [
        {
          "length": 20,
          "start": 1416
        },
        {
          "length": 20,
          "start": 1753
        },
        {
          "length": 20,
          "start": 1870
        },
        {
          "length": 20,
          "start": 2192
        },
        {
          "length": 20,
          "start": 11889
        },
        {
          "length": 20,
          "start": 16991
        }
      ]
    }
  },
  "devdoc": {
    "kind": "dev",
    "methods": {
      "abortByDeadline(uint256)": {
        "params": {
          "_index": "index of Cartesi Compute instance to abort"
        }
      },
      "challenge(uint256)": {
        "params": {
          "_index": "index of Cartesi Compute instance which challenger is starting the VG."
        }
      },
      "challengeDrives(uint256)": {
        "params": {
          "_index": "index of Cartesi Compute instance which is requested for the drives"
        }
      },
      "confirm(uint256)": {
        "params": {
          "_index": "index of Cartesi Compute instance which claimer being confirmed"
        }
      },
      "destruct(uint256)": {
        "params": {
          "_index": "index of Cartesi Compute instance to deactivate"
        }
      },
      "getResult(uint256)": {
        "params": {
          "_index": "index of Cartesi Compute instance to get result"
        },
        "returns": {
          "_0": "bool, indicates the result is ready",
          "_1": "bool, indicates the sdk is still running",
          "_2": "address, the user to blame for the abnormal stop of the sdk",
          "_3": "bytes, the result of the sdk if available"
        }
      },
      "instantiate(uint256,bytes32,uint64,uint8,uint256,address[],(uint64,uint8,bytes,bytes,bytes32,address,bool,bool)[])": {
        "params": {
          "_finalTime": "max cycle of the machine for that computation",
          "_inputDrives": "an array of drive which assemble the machine",
          "_outputPosition": "position of the output drive",
          "_roundDuration": "duration of the round (security param)",
          "_templateHash": "hash of the machine with all drives empty"
        },
        "returns": {
          "_0": "uint256, Cartesi Compute index"
        }
      },
      "provideDirectDrive(uint256,bytes)": {
        "params": {
          "_index": "index of Cartesi Compute instance the drive belongs to.",
          "_value": "bytes value of the direct drive"
        }
      },
      "provideLoggerDrive(uint256,bytes32)": {
        "params": {
          "_index": "index of CartesiCompute instance the drive belongs to",
          "_root": "root hash of the logger drive"
        }
      },
      "revealLoggerDrive(uint256)": {
        "params": {
          "_index": "index of Cartesi Compute instance the drive belongs to"
        }
      },
      "submitClaim(uint256,bytes32,bytes32[][],bytes,bytes32[])": {
        "details": "Example: consider 3 drives, the first drive's siblings should be a pristine machine.      The second drive's siblings should be the machine with drive 1 mounted.      The third drive's siblings should be the machine with drive 2 mounted.",
        "params": {
          "_claimedFinalHash": "is the final hash of the machine",
          "_drivesSiblings": "is an array of siblings of each drive (see below example)",
          "_output": "is the bytes32 value of the output position",
          "_outputSiblings": "is the siblings of the output drive"
        }
      },
      "winByVG(uint256)": {
        "params": {
          "_index": "index of Cartesi Compute instance to win"
        }
      }
    },
    "version": 1
  },
  "evm": {
    "bytecode": {
      "linkReferences": {
        "@cartesi/util/contracts/Merkle.sol": {
          "Merkle": [
            {
              "length": 20,
              "start": 1658
            },
            {
              "length": 20,
              "start": 1995
            },
            {
              "length": 20,
              "start": 2112
            },
            {
              "length": 20,
              "start": 2434
            },
            {
              "length": 20,
              "start": 12131
            },
            {
              "length": 20,
              "start": 17233
            }
          ]
        }
      },
      "opcodes": "PUSH1 0x80 PUSH1 0x40 MSTORE PUSH1 0x0 DUP1 SSTORE CALLVALUE DUP1 ISZERO PUSH3 0x15 JUMPI PUSH1 0x0 DUP1 REVERT JUMPDEST POP PUSH1 0x40 MLOAD PUSH3 0x5FC3 CODESIZE SUB DUP1 PUSH3 0x5FC3 DUP4 CODECOPY DUP2 ADD PUSH1 0x40 DUP2 SWAP1 MSTORE PUSH3 0x38 SWAP2 PUSH3 0x99 JUMP JUMPDEST PUSH1 0x3 DUP1 SLOAD PUSH1 0x1 PUSH1 0x1 PUSH1 0xA0 SHL SUB NOT SWAP1 DUP2 AND PUSH1 0x1 PUSH1 0x1 PUSH1 0xA0 SHL SUB SWAP4 DUP5 AND OR SWAP1 SWAP2 SSTORE PUSH1 0x5 DUP1 SLOAD DUP3 AND SWAP4 DUP4 AND SWAP4 SWAP1 SWAP4 OR SWAP1 SWAP3 SSTORE PUSH1 0x4 DUP1 SLOAD SWAP1 SWAP3 AND SWAP3 AND SWAP2 SWAP1 SWAP2 OR SWAP1 SSTORE PUSH3 0xE2 JUMP JUMPDEST DUP1 MLOAD PUSH1 0x1 PUSH1 0x1 PUSH1 0xA0 SHL SUB DUP2 AND DUP2 EQ PUSH3 0x94 JUMPI PUSH1 0x0 DUP1 REVERT JUMPDEST SWAP2 SWAP1 POP JUMP JUMPDEST PUSH1 0x0 DUP1 PUSH1 0x0 PUSH1 0x60 DUP5 DUP7 SUB SLT ISZERO PUSH3 0xAE JUMPI DUP3 DUP4 REVERT JUMPDEST PUSH3 0xB9 DUP5 PUSH3 0x7C JUMP JUMPDEST SWAP3 POP PUSH3 0xC9 PUSH1 0x20 DUP6 ADD PUSH3 0x7C JUMP JUMPDEST SWAP2 POP PUSH3 0xD9 PUSH1 0x40 DUP6 ADD PUSH3 0x7C JUMP JUMPDEST SWAP1 POP SWAP3 POP SWAP3 POP SWAP3 JUMP JUMPDEST PUSH2 0x5ED1 DUP1 PUSH3 0xF2 PUSH1 0x0 CODECOPY PUSH1 0x0 RETURN INVALID PUSH1 0x80 PUSH1 0x40 MSTORE CALLVALUE DUP1 ISZERO PUSH2 0x10 JUMPI PUSH1 0x0 DUP1 REVERT JUMPDEST POP PUSH1 0x4 CALLDATASIZE LT PUSH2 0x12C JUMPI PUSH1 0x0 CALLDATALOAD PUSH1 0xE0 SHR DUP1 PUSH4 0xAB82D9A0 GT PUSH2 0xAD JUMPI DUP1 PUSH4 0xC817592D GT PUSH2 0x71 JUMPI DUP1 PUSH4 0xC817592D EQ PUSH2 0x2A7 JUMPI DUP1 PUSH4 0xC87E3AE9 EQ PUSH2 0x2BA JUMPI DUP1 PUSH4 0xDED4DF63 EQ PUSH2 0x2CD JUMPI DUP1 PUSH4 0xF9BC3B21 EQ PUSH2 0x2E0 JUMPI DUP1 PUSH4 0xFA0ECC5B EQ PUSH2 0x2F3 JUMPI PUSH2 0x12C JUMP JUMPDEST DUP1 PUSH4 0xAB82D9A0 EQ PUSH2 0x23A JUMPI DUP1 PUSH4 0xBA0179B5 EQ PUSH2 0x24D JUMPI DUP1 PUSH4 0xBFDA2E72 EQ PUSH2 0x260 JUMPI DUP1 PUSH4 0xC526656C EQ PUSH2 0x273 JUMPI DUP1 PUSH4 0xC70683CA EQ PUSH2 0x294 JUMPI PUSH2 0x12C JUMP JUMPDEST DUP1 PUSH4 0x5748C130 GT PUSH2 0xF4 JUMPI DUP1 PUSH4 0x5748C130 EQ PUSH2 0x1AA JUMPI DUP1 PUSH4 0x73DF1612 EQ PUSH2 0x1BD JUMPI DUP1 PUSH4 0x82AFD23B EQ PUSH2 0x1E2 JUMPI DUP1 PUSH4 0x995E4339 EQ PUSH2 0x1F5 JUMPI DUP1 PUSH4 0xAB5DA187 EQ PUSH2 0x218 JUMPI PUSH2 0x12C JUMP JUMPDEST DUP1 PUSH4 0x1FF62AB EQ PUSH2 0x131 JUMPI DUP1 PUSH4 0x26987B60 EQ PUSH2 0x15A JUMPI DUP1 PUSH4 0x351E6657 EQ PUSH2 0x16F JUMPI DUP1 PUSH4 0x3D46B819 EQ PUSH2 0x184 JUMPI DUP1 PUSH4 0x4C6FE7BF EQ PUSH2 0x197 JUMPI JUMPDEST PUSH1 0x0 DUP1 REVERT JUMPDEST PUSH2 0x144 PUSH2 0x13F CALLDATASIZE PUSH1 0x4 PUSH2 0x4C9C JUMP JUMPDEST PUSH2 0x306 JUMP JUMPDEST PUSH1 0x40 MLOAD PUSH2 0x151 SWAP2 SWAP1 PUSH2 0x52D9 JUMP JUMPDEST PUSH1 0x40 MLOAD DUP1 SWAP2 SUB SWAP1 RETURN JUMPDEST PUSH2 0x162 PUSH2 0x37E JUMP JUMPDEST PUSH1 0x40 MLOAD PUSH2 0x151 SWAP2 SWAP1 PUSH2 0x533C JUMP JUMPDEST PUSH2 0x182 PUSH2 0x17D CALLDATASIZE PUSH1 0x4 PUSH2 0x4CE8 JUMP JUMPDEST PUSH2 0x384 JUMP JUMPDEST STOP JUMPDEST PUSH2 0x162 PUSH2 0x192 CALLDATASIZE PUSH1 0x4 PUSH2 0x4C84 JUMP JUMPDEST PUSH2 0xA7D JUMP JUMPDEST PUSH2 0x182 PUSH2 0x1A5 CALLDATASIZE PUSH1 0x4 PUSH2 0x4C84 JUMP JUMPDEST PUSH2 0xB27 JUMP JUMPDEST PUSH2 0x162 PUSH2 0x1B8 CALLDATASIZE PUSH1 0x4 PUSH2 0x4C84 JUMP JUMPDEST PUSH2 0xD0B JUMP JUMPDEST PUSH2 0x1D0 PUSH2 0x1CB CALLDATASIZE PUSH1 0x4 PUSH2 0x4C9C JUMP JUMPDEST PUSH2 0xFA2 JUMP JUMPDEST PUSH1 0x40 MLOAD PUSH2 0x151 SWAP7 SWAP6 SWAP5 SWAP4 SWAP3 SWAP2 SWAP1 PUSH2 0x5242 JUMP JUMPDEST PUSH2 0x144 PUSH2 0x1F0 CALLDATASIZE PUSH1 0x4 PUSH2 0x4C84 JUMP JUMPDEST PUSH2 0x1982 JUMP JUMPDEST PUSH2 0x208 PUSH2 0x203 CALLDATASIZE PUSH1 0x4 PUSH2 0x4C84 JUMP JUMPDEST PUSH2 0x199A JUMP JUMPDEST PUSH1 0x40 MLOAD PUSH2 0x151 SWAP5 SWAP4 SWAP3 SWAP2 SWAP1 PUSH2 0x52E4 JUMP JUMPDEST PUSH2 0x22B PUSH2 0x226 CALLDATASIZE PUSH1 0x4 PUSH2 0x4C9C JUMP JUMPDEST PUSH2 0x1D90 JUMP JUMPDEST PUSH1 0x40 MLOAD PUSH2 0x151 SWAP4 SWAP3 SWAP2 SWAP1 PUSH2 0x5322 JUMP JUMPDEST PUSH2 0x182 PUSH2 0x248 CALLDATASIZE PUSH1 0x4 PUSH2 0x4C84 JUMP JUMPDEST PUSH2 0x1E20 JUMP JUMPDEST PUSH2 0x182 PUSH2 0x25B CALLDATASIZE PUSH1 0x4 PUSH2 0x4C84 JUMP JUMPDEST PUSH2 0x2146 JUMP JUMPDEST PUSH2 0x182 PUSH2 0x26E CALLDATASIZE PUSH1 0x4 PUSH2 0x4C84 JUMP JUMPDEST PUSH2 0x23C8 JUMP JUMPDEST PUSH2 0x286 PUSH2 0x281 CALLDATASIZE PUSH1 0x4 PUSH2 0x4C9C JUMP JUMPDEST PUSH2 0x24F6 JUMP JUMPDEST PUSH1 0x40 MLOAD PUSH2 0x151 SWAP3 SWAP2 SWAP1 PUSH2 0x5201 JUMP JUMPDEST PUSH2 0x182 PUSH2 0x2A2 CALLDATASIZE PUSH1 0x4 PUSH2 0x4CC7 JUMP JUMPDEST PUSH2 0x262F JUMP JUMPDEST PUSH2 0x162 PUSH2 0x2B5 CALLDATASIZE PUSH1 0x4 PUSH2 0x4DD0 JUMP JUMPDEST PUSH2 0x2B06 JUMP JUMPDEST PUSH2 0x182 PUSH2 0x2C8 CALLDATASIZE PUSH1 0x4 PUSH2 0x4C84 JUMP JUMPDEST PUSH2 0x330D JUMP JUMPDEST PUSH2 0x182 PUSH2 0x2DB CALLDATASIZE PUSH1 0x4 PUSH2 0x4C84 JUMP JUMPDEST PUSH2 0x34FF JUMP JUMPDEST PUSH2 0x182 PUSH2 0x2EE CALLDATASIZE PUSH1 0x4 PUSH2 0x4C84 JUMP JUMPDEST PUSH2 0x39BC JUMP JUMPDEST PUSH2 0x182 PUSH2 0x301 CALLDATASIZE PUSH1 0x4 PUSH2 0x4ECF JUMP JUMPDEST PUSH2 0x3D87 JUMP JUMPDEST PUSH1 0x0 DUP3 DUP1 PUSH1 0x0 SLOAD GT PUSH2 0x34D JUMPI PUSH1 0x40 DUP1 MLOAD PUSH3 0x461BCD PUSH1 0xE5 SHL DUP2 MSTORE PUSH1 0x20 PUSH1 0x4 DUP3 ADD MSTORE PUSH1 0x16 PUSH1 0x24 DUP3 ADD MSTORE PUSH1 0x0 DUP1 MLOAD PUSH1 0x20 PUSH2 0x5E7C DUP4 CODECOPY DUP2 MLOAD SWAP2 MSTORE PUSH1 0x44 DUP3 ADD MSTORE SWAP1 MLOAD SWAP1 DUP2 SWAP1 SUB PUSH1 0x64 ADD SWAP1 REVERT JUMPDEST POP POP PUSH1 0x0 SWAP2 DUP3 MSTORE PUSH1 0x6 PUSH1 0x20 SWAP1 DUP2 MSTORE PUSH1 0x40 DUP1 DUP5 KECCAK256 PUSH1 0x1 PUSH1 0x1 PUSH1 0xA0 SHL SUB SWAP4 SWAP1 SWAP4 AND DUP5 MSTORE PUSH1 0xF SWAP1 SWAP3 ADD SWAP1 MSTORE SWAP1 KECCAK256 SLOAD PUSH1 0xFF AND SWAP1 JUMP JUMPDEST PUSH1 0x0 SLOAD DUP2 JUMP JUMPDEST DUP5 DUP1 PUSH1 0x0 SLOAD GT PUSH2 0x3C9 JUMPI PUSH1 0x40 DUP1 MLOAD PUSH3 0x461BCD PUSH1 0xE5 SHL DUP2 MSTORE PUSH1 0x20 PUSH1 0x4 DUP3 ADD MSTORE PUSH1 0x16 PUSH1 0x24 DUP3 ADD MSTORE PUSH1 0x0 DUP1 MLOAD PUSH1 0x20 PUSH2 0x5E7C DUP4 CODECOPY DUP2 MLOAD SWAP2 MSTORE PUSH1 0x44 DUP3 ADD MSTORE SWAP1 MLOAD SWAP1 DUP2 SWAP1 SUB PUSH1 0x64 ADD SWAP1 REVERT JUMPDEST PUSH2 0x3D2 DUP2 PUSH2 0x1982 JUMP JUMPDEST PUSH2 0x414 JUMPI PUSH1 0x40 DUP1 MLOAD PUSH3 0x461BCD PUSH1 0xE5 SHL DUP2 MSTORE PUSH1 0x20 PUSH1 0x4 DUP3 ADD MSTORE PUSH1 0xE PUSH1 0x24 DUP3 ADD MSTORE PUSH14 0x496E64657820696E616374697665 PUSH1 0x90 SHL PUSH1 0x44 DUP3 ADD MSTORE SWAP1 MLOAD SWAP1 DUP2 SWAP1 SUB PUSH1 0x64 ADD SWAP1 REVERT JUMPDEST PUSH1 0x0 DUP7 DUP2 MSTORE PUSH1 0x6 PUSH1 0x20 MSTORE PUSH1 0x40 SWAP1 KECCAK256 PUSH1 0xE DUP2 ADD SLOAD PUSH1 0xC DUP3 ADD DUP1 SLOAD DUP10 SWAP4 SWAP3 CALLER SWAP3 SWAP2 PUSH1 0x1 PUSH1 0x1 PUSH1 0x40 SHL SUB SWAP1 SWAP2 AND SWAP1 DUP2 LT PUSH2 0x447 JUMPI INVALID JUMPDEST PUSH1 0x0 SWAP2 DUP3 MSTORE PUSH1 0x20 SWAP1 SWAP2 KECCAK256 ADD SLOAD PUSH1 0x1 PUSH1 0x1 PUSH1 0xA0 SHL SUB AND EQ PUSH2 0x482 JUMPI PUSH1 0x40 MLOAD PUSH3 0x461BCD PUSH1 0xE5 SHL DUP2 MSTORE PUSH1 0x4 ADD PUSH2 0x479 SWAP1 PUSH2 0x5672 JUMP JUMPDEST PUSH1 0x40 MLOAD DUP1 SWAP2 SUB SWAP1 REVERT JUMPDEST PUSH1 0x0 DUP9 DUP2 MSTORE PUSH1 0x2 PUSH1 0x20 SWAP1 DUP2 MSTORE PUSH1 0x40 DUP1 DUP4 KECCAK256 DUP1 SLOAD PUSH1 0x1 ADD SWAP1 SSTORE PUSH1 0x6 SWAP1 SWAP2 MSTORE DUP2 KECCAK256 DUP10 SWAP2 PUSH2 0x4AC DUP4 PUSH2 0x43B2 JUMP JUMPDEST PUSH1 0x6 DUP4 ADD SLOAD ADD TIMESTAMP GT SWAP1 POP PUSH1 0x4 PUSH1 0x10 DUP4 ADD SLOAD PUSH1 0xFF AND PUSH1 0xA DUP2 GT ISZERO PUSH2 0x4CB JUMPI INVALID JUMPDEST EQ DUP1 PUSH2 0x4F1 JUMPI POP PUSH1 0x2 PUSH1 0x10 DUP4 ADD SLOAD PUSH1 0xFF AND PUSH1 0xA DUP2 GT ISZERO PUSH2 0x4E7 JUMPI INVALID JUMPDEST EQ DUP1 ISZERO PUSH2 0x4F1 JUMPI POP DUP1 JUMPDEST PUSH2 0x50D JUMPI PUSH1 0x40 MLOAD PUSH3 0x461BCD PUSH1 0xE5 SHL DUP2 MSTORE PUSH1 0x4 ADD PUSH2 0x479 SWAP1 PUSH2 0x5570 JUMP JUMPDEST DUP9 MLOAD PUSH1 0x14 DUP4 ADD SLOAD EQ PUSH2 0x531 JUMPI PUSH1 0x40 MLOAD PUSH3 0x461BCD PUSH1 0xE5 SHL DUP2 MSTORE PUSH1 0x4 ADD PUSH2 0x479 SWAP1 PUSH2 0x54A3 JUMP JUMPDEST PUSH1 0x4 DUP3 ADD SLOAD DUP9 MLOAD PUSH1 0x1 PUSH1 0x40 SHL SWAP1 SWAP2 DIV PUSH1 0xFF AND PUSH1 0x2 EXP EQ PUSH2 0x563 JUMPI PUSH1 0x40 MLOAD PUSH3 0x461BCD PUSH1 0xE5 SHL DUP2 MSTORE PUSH1 0x4 ADD PUSH2 0x479 SWAP1 PUSH2 0x5B10 JUMP JUMPDEST PUSH1 0x60 PUSH2 0x56E DUP10 PUSH2 0x46CC JUMP JUMPDEST PUSH1 0x4 DUP5 DUP2 ADD SLOAD PUSH1 0x40 MLOAD PUSH4 0x10561D57 PUSH1 0xE3 SHL DUP2 MSTORE SWAP3 SWAP4 POP DUP14 SWAP3 PUSH20 0x0 SWAP3 PUSH4 0xD7304DD9 SWAP3 PUSH1 0x1 PUSH1 0x1 PUSH1 0x40 SHL SUB DUP2 AND SWAP3 PUSH1 0x1 PUSH1 0x40 SHL SWAP1 SWAP2 DIV PUSH1 0xFF AND SWAP2 DUP6 SWAP2 PUSH4 0x82B0EAB8 SWAP2 PUSH2 0x5CD SWAP2 DUP11 SWAP2 ADD PUSH2 0x522F JUMP JUMPDEST PUSH1 0x20 PUSH1 0x40 MLOAD DUP1 DUP4 SUB DUP2 DUP7 DUP1 EXTCODESIZE ISZERO DUP1 ISZERO PUSH2 0x5E5 JUMPI PUSH1 0x0 DUP1 REVERT JUMPDEST POP GAS DELEGATECALL ISZERO DUP1 ISZERO PUSH2 0x5F9 JUMPI RETURNDATASIZE PUSH1 0x0 DUP1 RETURNDATACOPY RETURNDATASIZE PUSH1 0x0 REVERT JUMPDEST POP POP POP POP PUSH1 0x40 MLOAD RETURNDATASIZE PUSH1 0x1F NOT PUSH1 0x1F DUP3 ADD AND DUP3 ADD DUP1 PUSH1 0x40 MSTORE POP DUP2 ADD SWAP1 PUSH2 0x61D SWAP2 SWAP1 PUSH2 0x4C6C JUMP JUMPDEST DUP14 PUSH1 0x40 MLOAD DUP6 PUSH4 0xFFFFFFFF AND PUSH1 0xE0 SHL DUP2 MSTORE PUSH1 0x4 ADD PUSH2 0x63D SWAP5 SWAP4 SWAP3 SWAP2 SWAP1 PUSH2 0x5D96 JUMP JUMPDEST PUSH1 0x20 PUSH1 0x40 MLOAD DUP1 DUP4 SUB DUP2 DUP7 DUP1 EXTCODESIZE ISZERO DUP1 ISZERO PUSH2 0x655 JUMPI PUSH1 0x0 DUP1 REVERT JUMPDEST POP GAS DELEGATECALL ISZERO DUP1 ISZERO PUSH2 0x669 JUMPI RETURNDATASIZE PUSH1 0x0 DUP1 RETURNDATACOPY RETURNDATASIZE PUSH1 0x0 REVERT JUMPDEST POP POP POP POP PUSH1 0x40 MLOAD RETURNDATASIZE PUSH1 0x1F NOT PUSH1 0x1F DUP3 ADD AND DUP3 ADD DUP1 PUSH1 0x40 MSTORE POP DUP2 ADD SWAP1 PUSH2 0x68D SWAP2 SWAP1 PUSH2 0x4C6C JUMP JUMPDEST EQ PUSH2 0x6AA JUMPI PUSH1 0x40 MLOAD PUSH3 0x461BCD PUSH1 0xE5 SHL DUP2 MSTORE PUSH1 0x4 ADD PUSH2 0x479 SWAP1 PUSH2 0x53A1 JUMP JUMPDEST PUSH1 0x14 DUP4 ADD SLOAD PUSH1 0x0 JUMPDEST DUP2 DUP2 LT ISZERO PUSH2 0x99B JUMPI PUSH1 0x60 DUP13 DUP3 DUP2 MLOAD DUP2 LT PUSH2 0x6C8 JUMPI INVALID JUMPDEST PUSH1 0x20 MUL PUSH1 0x20 ADD ADD MLOAD SWAP1 POP DUP6 PUSH1 0x9 ADD SLOAD PUSH20 0x0 PUSH4 0xD7304DD9 DUP9 PUSH1 0x14 ADD DUP6 DUP2 SLOAD DUP2 LT PUSH2 0x700 JUMPI INVALID JUMPDEST PUSH1 0x0 SWAP2 DUP3 MSTORE PUSH1 0x20 SWAP1 SWAP2 KECCAK256 PUSH1 0x5 SWAP1 SWAP2 MUL ADD SLOAD PUSH1 0x14 DUP11 ADD DUP1 SLOAD PUSH1 0x1 PUSH1 0x1 PUSH1 0x40 SHL SUB SWAP1 SWAP3 AND SWAP2 DUP8 SWAP1 DUP2 LT PUSH2 0x72D JUMPI INVALID JUMPDEST SWAP1 PUSH1 0x0 MSTORE PUSH1 0x20 PUSH1 0x0 KECCAK256 SWAP1 PUSH1 0x5 MUL ADD PUSH1 0x0 ADD PUSH1 0x8 SWAP1 SLOAD SWAP1 PUSH2 0x100 EXP SWAP1 DIV PUSH1 0xFF AND PUSH20 0x0 PUSH4 0xA7342688 DUP13 PUSH1 0x14 ADD DUP10 DUP2 SLOAD DUP2 LT PUSH2 0x775 JUMPI INVALID JUMPDEST PUSH1 0x0 SWAP2 DUP3 MSTORE PUSH1 0x20 SWAP1 SWAP2 KECCAK256 PUSH1 0x5 SWAP1 SWAP2 MUL ADD SLOAD PUSH1 0x40 MLOAD PUSH1 0xE0 DUP4 SWAP1 SHL PUSH1 0x1 PUSH1 0x1 PUSH1 0xE0 SHL SUB NOT AND DUP2 MSTORE PUSH2 0x7B1 SWAP2 PUSH1 0x1 PUSH1 0x40 SHL SWAP1 DIV PUSH1 0xFF AND SWAP1 PUSH1 0x4 ADD PUSH2 0x5DC7 JUMP JUMPDEST PUSH1 0x20 PUSH1 0x40 MLOAD DUP1 DUP4 SUB DUP2 DUP7 DUP1 EXTCODESIZE ISZERO DUP1 ISZERO PUSH2 0x7C9 JUMPI PUSH1 0x0 DUP1 REVERT JUMPDEST POP GAS DELEGATECALL ISZERO DUP1 ISZERO PUSH2 0x7DD JUMPI RETURNDATASIZE PUSH1 0x0 DUP1 RETURNDATACOPY RETURNDATASIZE PUSH1 0x0 REVERT JUMPDEST POP POP POP POP PUSH1 0x40 MLOAD RETURNDATASIZE PUSH1 0x1F NOT PUSH1 0x1F DUP3 ADD AND DUP3 ADD DUP1 PUSH1 0x40 MSTORE POP DUP2 ADD SWAP1 PUSH2 0x801 SWAP2 SWAP1 PUSH2 0x4C6C JUMP JUMPDEST DUP7 PUSH1 0x40 MLOAD DUP6 PUSH4 0xFFFFFFFF AND PUSH1 0xE0 SHL DUP2 MSTORE PUSH1 0x4 ADD PUSH2 0x821 SWAP5 SWAP4 SWAP3 SWAP2 SWAP1 PUSH2 0x5D96 JUMP JUMPDEST PUSH1 0x20 PUSH1 0x40 MLOAD DUP1 DUP4 SUB DUP2 DUP7 DUP1 EXTCODESIZE ISZERO DUP1 ISZERO PUSH2 0x839 JUMPI PUSH1 0x0 DUP1 REVERT JUMPDEST POP GAS DELEGATECALL ISZERO DUP1 ISZERO PUSH2 0x84D JUMPI RETURNDATASIZE PUSH1 0x0 DUP1 RETURNDATACOPY RETURNDATASIZE PUSH1 0x0 REVERT JUMPDEST POP POP POP POP PUSH1 0x40 MLOAD RETURNDATASIZE PUSH1 0x1F NOT PUSH1 0x1F DUP3 ADD AND DUP3 ADD DUP1 PUSH1 0x40 MSTORE POP DUP2 ADD SWAP1 PUSH2 0x871 SWAP2 SWAP1 PUSH2 0x4C6C JUMP JUMPDEST EQ PUSH2 0x88E JUMPI PUSH1 0x40 MLOAD PUSH3 0x461BCD PUSH1 0xE5 SHL DUP2 MSTORE PUSH1 0x4 ADD PUSH2 0x479 SWAP1 PUSH2 0x5431 JUMP JUMPDEST PUSH20 0x0 PUSH4 0xD7304DD9 DUP8 PUSH1 0x14 ADD DUP5 DUP2 SLOAD DUP2 LT PUSH2 0x8B7 JUMPI INVALID JUMPDEST PUSH1 0x0 SWAP2 DUP3 MSTORE PUSH1 0x20 SWAP1 SWAP2 KECCAK256 PUSH1 0x5 SWAP1 SWAP2 MUL ADD SLOAD PUSH1 0x14 DUP10 ADD DUP1 SLOAD PUSH1 0x1 PUSH1 0x1 PUSH1 0x40 SHL SUB SWAP1 SWAP3 AND SWAP2 DUP7 SWAP1 DUP2 LT PUSH2 0x8E4 JUMPI INVALID JUMPDEST SWAP1 PUSH1 0x0 MSTORE PUSH1 0x20 PUSH1 0x0 KECCAK256 SWAP1 PUSH1 0x5 MUL ADD PUSH1 0x0 ADD PUSH1 0x8 SWAP1 SLOAD SWAP1 PUSH2 0x100 EXP SWAP1 DIV PUSH1 0xFF AND DUP10 PUSH1 0x13 ADD DUP7 DUP2 SLOAD DUP2 LT PUSH2 0x912 JUMPI INVALID JUMPDEST SWAP1 PUSH1 0x0 MSTORE PUSH1 0x20 PUSH1 0x0 KECCAK256 ADD SLOAD DUP6 PUSH1 0x40 MLOAD DUP6 PUSH4 0xFFFFFFFF AND PUSH1 0xE0 SHL DUP2 MSTORE PUSH1 0x4 ADD PUSH2 0x93D SWAP5 SWAP4 SWAP3 SWAP2 SWAP1 PUSH2 0x5D96 JUMP JUMPDEST PUSH1 0x20 PUSH1 0x40 MLOAD DUP1 DUP4 SUB DUP2 DUP7 DUP1 EXTCODESIZE ISZERO DUP1 ISZERO PUSH2 0x955 JUMPI PUSH1 0x0 DUP1 REVERT JUMPDEST POP GAS DELEGATECALL ISZERO DUP1 ISZERO PUSH2 0x969 JUMPI RETURNDATASIZE PUSH1 0x0 DUP1 RETURNDATACOPY RETURNDATASIZE PUSH1 0x0 REVERT JUMPDEST POP POP POP POP PUSH1 0x40 MLOAD RETURNDATASIZE PUSH1 0x1F NOT PUSH1 0x1F DUP3 ADD AND DUP3 ADD DUP1 PUSH1 0x40 MSTORE POP DUP2 ADD SWAP1 PUSH2 0x98D SWAP2 SWAP1 PUSH2 0x4C6C JUMP JUMPDEST PUSH1 0x9 DUP8 ADD SSTORE POP PUSH1 0x1 ADD PUSH2 0x6B2 JUMP JUMPDEST POP PUSH1 0xA DUP5 ADD DUP13 SWAP1 SSTORE PUSH1 0x10 DUP5 ADD DUP1 SLOAD PUSH1 0xFF NOT AND PUSH1 0x6 OR SWAP1 SSTORE DUP10 MLOAD PUSH2 0x9C7 SWAP1 PUSH1 0xB DUP7 ADD SWAP1 PUSH1 0x20 DUP14 ADD SWAP1 PUSH2 0x47E3 JUMP JUMPDEST POP PUSH1 0xE DUP5 ADD SLOAD PUSH1 0xC DUP6 ADD DUP1 SLOAD PUSH1 0x1 SWAP3 PUSH1 0xF DUP9 ADD SWAP3 PUSH1 0x0 SWAP3 SWAP1 SWAP2 PUSH1 0x1 PUSH1 0x1 PUSH1 0x40 SHL SUB AND SWAP1 DUP2 LT PUSH2 0x9F2 JUMPI INVALID JUMPDEST PUSH1 0x0 SWAP2 DUP3 MSTORE PUSH1 0x20 DUP1 DUP4 KECCAK256 SWAP1 SWAP2 ADD SLOAD PUSH1 0x1 PUSH1 0x1 PUSH1 0xA0 SHL SUB AND DUP4 MSTORE DUP3 ADD SWAP3 SWAP1 SWAP3 MSTORE PUSH1 0x40 SWAP1 DUP2 ADD SWAP1 SWAP2 KECCAK256 DUP1 SLOAD SWAP3 ISZERO ISZERO PUSH2 0x100 MUL PUSH2 0xFF00 NOT SWAP1 SWAP4 AND SWAP3 SWAP1 SWAP3 OR SWAP1 SWAP2 SSTORE TIMESTAMP PUSH1 0x6 DUP7 ADD SSTORE MLOAD PUSH32 0x1E9358F673FF367487CE56F136412AE5B69BF2C06E223AAD2756D748C2A9B52A SWAP1 PUSH2 0xA66 SWAP1 DUP16 SWAP1 DUP16 SWAP1 PUSH2 0x5CA2 JUMP JUMPDEST PUSH1 0x40 MLOAD DUP1 SWAP2 SUB SWAP1 LOG1 POP POP POP POP POP POP POP POP POP POP POP POP POP JUMP JUMPDEST PUSH1 0x0 DUP2 DUP1 PUSH1 0x0 SLOAD GT PUSH2 0xAC4 JUMPI PUSH1 0x40 DUP1 MLOAD PUSH3 0x461BCD PUSH1 0xE5 SHL DUP2 MSTORE PUSH1 0x20 PUSH1 0x4 DUP3 ADD MSTORE PUSH1 0x16 PUSH1 0x24 DUP3 ADD MSTORE PUSH1 0x0 DUP1 MLOAD PUSH1 0x20 PUSH2 0x5E7C DUP4 CODECOPY DUP2 MLOAD SWAP2 MSTORE PUSH1 0x44 DUP3 ADD MSTORE SWAP1 MLOAD SWAP1 DUP2 SWAP1 SUB PUSH1 0x64 ADD SWAP1 REVERT JUMPDEST PUSH2 0xACD DUP2 PUSH2 0x1982 JUMP JUMPDEST PUSH2 0xB0F JUMPI PUSH1 0x40 DUP1 MLOAD PUSH3 0x461BCD PUSH1 0xE5 SHL DUP2 MSTORE PUSH1 0x20 PUSH1 0x4 DUP3 ADD MSTORE PUSH1 0xE PUSH1 0x24 DUP3 ADD MSTORE PUSH14 0x496E64657820696E616374697665 PUSH1 0x90 SHL PUSH1 0x44 DUP3 ADD MSTORE SWAP1 MLOAD SWAP1 DUP2 SWAP1 SUB PUSH1 0x64 ADD SWAP1 REVERT JUMPDEST PUSH1 0x0 DUP4 DUP2 MSTORE PUSH1 0x2 PUSH1 0x20 MSTORE PUSH1 0x40 SWAP1 KECCAK256 SLOAD SWAP2 POP JUMPDEST POP SWAP2 SWAP1 POP JUMP JUMPDEST DUP1 DUP1 PUSH1 0x0 SLOAD GT PUSH2 0xB6C JUMPI PUSH1 0x40 DUP1 MLOAD PUSH3 0x461BCD PUSH1 0xE5 SHL DUP2 MSTORE PUSH1 0x20 PUSH1 0x4 DUP3 ADD MSTORE PUSH1 0x16 PUSH1 0x24 DUP3 ADD MSTORE PUSH1 0x0 DUP1 MLOAD PUSH1 0x20 PUSH2 0x5E7C DUP4 CODECOPY DUP2 MLOAD SWAP2 MSTORE PUSH1 0x44 DUP3 ADD MSTORE SWAP1 MLOAD SWAP1 DUP2 SWAP1 SUB PUSH1 0x64 ADD SWAP1 REVERT JUMPDEST PUSH2 0xB75 DUP2 PUSH2 0x1982 JUMP JUMPDEST PUSH2 0xBB7 JUMPI PUSH1 0x40 DUP1 MLOAD PUSH3 0x461BCD PUSH1 0xE5 SHL DUP2 MSTORE PUSH1 0x20 PUSH1 0x4 DUP3 ADD MSTORE PUSH1 0xE PUSH1 0x24 DUP3 ADD MSTORE PUSH14 0x496E64657820696E616374697665 PUSH1 0x90 SHL PUSH1 0x44 DUP3 ADD MSTORE SWAP1 MLOAD SWAP1 DUP2 SWAP1 SUB PUSH1 0x64 ADD SWAP1 REVERT JUMPDEST PUSH1 0x0 DUP3 DUP2 MSTORE PUSH1 0x6 PUSH1 0x20 MSTORE PUSH1 0x40 DUP2 KECCAK256 SWAP1 PUSH2 0xBCF DUP5 PUSH2 0x43B2 JUMP JUMPDEST DUP3 PUSH1 0x6 ADD SLOAD ADD TIMESTAMP GT SWAP1 POP DUP1 PUSH2 0xBF6 JUMPI PUSH1 0x40 MLOAD PUSH3 0x461BCD PUSH1 0xE5 SHL DUP2 MSTORE PUSH1 0x4 ADD PUSH2 0x479 SWAP1 PUSH2 0x56FF JUMP JUMPDEST PUSH1 0x0 PUSH1 0x10 DUP4 ADD SLOAD PUSH1 0xFF AND PUSH1 0xA DUP2 GT ISZERO PUSH2 0xC0B JUMPI INVALID JUMPDEST EQ ISZERO PUSH2 0xC5D JUMPI PUSH1 0x10 DUP3 ADD DUP1 SLOAD PUSH1 0x1 SWAP2 SWAP1 PUSH1 0xFF NOT AND DUP3 DUP1 JUMPDEST MUL OR SWAP1 SSTORE POP PUSH1 0x0 DUP1 MLOAD PUSH1 0x20 PUSH2 0x5E5C DUP4 CODECOPY DUP2 MLOAD SWAP2 MSTORE DUP5 PUSH2 0xC40 DUP7 PUSH2 0xD0B JUMP JUMPDEST PUSH1 0x40 MLOAD PUSH2 0xC4E SWAP3 SWAP2 SWAP1 PUSH2 0x5CA2 JUMP JUMPDEST PUSH1 0x40 MLOAD DUP1 SWAP2 SUB SWAP1 LOG1 POP POP PUSH2 0xD07 JUMP JUMPDEST PUSH1 0x3 PUSH1 0x10 DUP4 ADD SLOAD PUSH1 0xFF AND PUSH1 0xA DUP2 GT ISZERO PUSH2 0xC72 JUMPI INVALID JUMPDEST EQ ISZERO PUSH2 0xC8D JUMPI PUSH1 0x10 DUP3 ADD DUP1 SLOAD PUSH1 0x1 SWAP2 SWAP1 PUSH1 0xFF NOT AND DUP3 DUP1 PUSH2 0xC22 JUMP JUMPDEST PUSH1 0x4 PUSH1 0x10 DUP4 ADD SLOAD PUSH1 0xFF AND PUSH1 0xA DUP2 GT ISZERO PUSH2 0xCA2 JUMPI INVALID JUMPDEST EQ ISZERO PUSH2 0xCBE JUMPI PUSH1 0x10 DUP3 ADD DUP1 SLOAD PUSH1 0x5 SWAP2 SWAP1 PUSH1 0xFF NOT AND PUSH1 0x1 DUP4 PUSH2 0xC22 JUMP JUMPDEST PUSH1 0x6 PUSH1 0x10 DUP4 ADD SLOAD PUSH1 0xFF AND PUSH1 0xA DUP2 GT ISZERO PUSH2 0xCD3 JUMPI INVALID JUMPDEST EQ ISZERO PUSH2 0xCEF JUMPI PUSH1 0x10 DUP3 ADD DUP1 SLOAD PUSH1 0xA SWAP2 SWAP1 PUSH1 0xFF NOT AND PUSH1 0x1 DUP4 PUSH2 0xC22 JUMP JUMPDEST PUSH1 0x40 MLOAD PUSH3 0x461BCD PUSH1 0xE5 SHL DUP2 MSTORE PUSH1 0x4 ADD PUSH2 0x479 SWAP1 PUSH2 0x5857 JUMP JUMPDEST POP POP JUMP JUMPDEST PUSH1 0x0 DUP2 DUP1 PUSH1 0x0 SLOAD GT PUSH2 0xD52 JUMPI PUSH1 0x40 DUP1 MLOAD PUSH3 0x461BCD PUSH1 0xE5 SHL DUP2 MSTORE PUSH1 0x20 PUSH1 0x4 DUP3 ADD MSTORE PUSH1 0x16 PUSH1 0x24 DUP3 ADD MSTORE PUSH1 0x0 DUP1 MLOAD PUSH1 0x20 PUSH2 0x5E7C DUP4 CODECOPY DUP2 MLOAD SWAP2 MSTORE PUSH1 0x44 DUP3 ADD MSTORE SWAP1 MLOAD SWAP1 DUP2 SWAP1 SUB PUSH1 0x64 ADD SWAP1 REVERT JUMPDEST PUSH1 0x0 DUP4 DUP2 MSTORE PUSH1 0x6 PUSH1 0x20 MSTORE PUSH1 0x40 DUP2 KECCAK256 PUSH1 0x10 ADD SLOAD PUSH1 0xFF AND SWAP1 DUP2 PUSH1 0xA DUP2 GT ISZERO PUSH2 0xD74 JUMPI INVALID JUMPDEST EQ ISZERO PUSH2 0xD96 JUMPI PUSH16 0x57616974696E6750726F766964657273 PUSH1 0x80 SHL SWAP3 POP POP PUSH2 0xB21 JUMP JUMPDEST PUSH1 0x3 DUP2 PUSH1 0xA DUP2 GT ISZERO PUSH2 0xDA4 JUMPI INVALID JUMPDEST EQ ISZERO PUSH2 0xDC4 JUMPI PUSH14 0x57616974696E6752657665616C73 PUSH1 0x90 SHL SWAP3 POP POP PUSH2 0xB21 JUMP JUMPDEST PUSH1 0x2 DUP2 PUSH1 0xA DUP2 GT ISZERO PUSH2 0xDD2 JUMPI INVALID JUMPDEST EQ ISZERO PUSH2 0xDFA JUMPI PUSH22 0x57616974696E674368616C6C656E6765447269766573 PUSH1 0x50 SHL SWAP3 POP POP PUSH2 0xB21 JUMP JUMPDEST PUSH1 0x5 DUP2 PUSH1 0xA DUP2 GT ISZERO PUSH2 0xE08 JUMPI INVALID JUMPDEST EQ ISZERO PUSH2 0xE2F JUMPI PUSH21 0x436C61696D65724D6973736564446561646C696E65 PUSH1 0x58 SHL SWAP3 POP POP PUSH2 0xB21 JUMP JUMPDEST PUSH1 0x1 DUP2 PUSH1 0xA DUP2 GT ISZERO PUSH2 0xE3D JUMPI INVALID JUMPDEST EQ ISZERO PUSH2 0xE65 JUMPI PUSH22 0x50726F76696465724D6973736564446561646C696E65 PUSH1 0x50 SHL SWAP3 POP POP PUSH2 0xB21 JUMP JUMPDEST PUSH1 0x4 DUP2 PUSH1 0xA DUP2 GT ISZERO PUSH2 0xE73 JUMPI INVALID JUMPDEST EQ ISZERO PUSH2 0xE91 JUMPI PUSH12 0x57616974696E67436C61696D PUSH1 0xA0 SHL SWAP3 POP POP PUSH2 0xB21 JUMP JUMPDEST PUSH1 0x6 DUP2 PUSH1 0xA DUP2 GT ISZERO PUSH2 0xE9F JUMPI INVALID JUMPDEST EQ ISZERO PUSH2 0xECE JUMPI PUSH32 0x57616974696E67436F6E6669726D6174696F6E446561646C696E650000000000 SWAP3 POP POP PUSH2 0xB21 JUMP JUMPDEST PUSH1 0x7 DUP2 PUSH1 0xA DUP2 GT ISZERO PUSH2 0xEDC JUMPI INVALID JUMPDEST EQ ISZERO PUSH2 0xF04 JUMPI PUSH22 0x15D85A5D1A5B99D0DA185B1B195B99D954995CDD5B1D PUSH1 0x52 SHL SWAP3 POP POP PUSH2 0xB21 JUMP JUMPDEST PUSH1 0xA DUP2 PUSH1 0xA DUP2 GT ISZERO PUSH2 0xF12 JUMPI INVALID JUMPDEST EQ ISZERO PUSH2 0xF33 JUMPI PUSH15 0x10DBDB9CD95B9CDD5CD4995CDD5B1D PUSH1 0x8A SHL SWAP3 POP POP PUSH2 0xB21 JUMP JUMPDEST PUSH1 0x8 DUP2 PUSH1 0xA DUP2 GT ISZERO PUSH2 0xF41 JUMPI INVALID JUMPDEST EQ ISZERO PUSH2 0xF60 JUMPI PUSH13 0x21B430B63632B733B2B92BB7B7 PUSH1 0x99 SHL SWAP3 POP POP PUSH2 0xB21 JUMP JUMPDEST PUSH1 0x9 DUP2 PUSH1 0xA DUP2 GT ISZERO PUSH2 0xF6E JUMPI INVALID JUMPDEST EQ ISZERO PUSH2 0xF8A JUMPI PUSH10 0x21B630B4B6B2B92BB7B7 PUSH1 0xB1 SHL SWAP3 POP POP PUSH2 0xB21 JUMP JUMPDEST PUSH1 0x40 MLOAD PUSH3 0x461BCD PUSH1 0xE5 SHL DUP2 MSTORE PUSH1 0x4 ADD PUSH2 0x479 SWAP1 PUSH2 0x588E JUMP JUMPDEST PUSH1 0x60 DUP1 PUSH1 0x60 DUP1 PUSH1 0x60 PUSH2 0xFB2 PUSH2 0x486F JUMP JUMPDEST DUP8 DUP1 PUSH1 0x0 SLOAD GT PUSH2 0xFF7 JUMPI PUSH1 0x40 DUP1 MLOAD PUSH3 0x461BCD PUSH1 0xE5 SHL DUP2 MSTORE PUSH1 0x20 PUSH1 0x4 DUP3 ADD MSTORE PUSH1 0x16 PUSH1 0x24 DUP3 ADD MSTORE PUSH1 0x0 DUP1 MLOAD PUSH1 0x20 PUSH2 0x5E7C DUP4 CODECOPY DUP2 MLOAD SWAP2 MSTORE PUSH1 0x44 DUP3 ADD MSTORE SWAP1 MLOAD SWAP1 DUP2 SWAP1 SUB PUSH1 0x64 ADD SWAP1 REVERT JUMPDEST PUSH1 0x0 DUP10 DUP2 MSTORE PUSH1 0x6 PUSH1 0x20 SWAP1 DUP2 MSTORE PUSH1 0x40 DUP1 DUP4 KECCAK256 PUSH1 0x1 PUSH1 0x1 PUSH1 0xA0 SHL SUB DUP13 AND DUP5 MSTORE PUSH1 0xF DUP2 ADD DUP4 MSTORE SWAP3 DUP2 SWAP1 KECCAK256 DUP2 MLOAD PUSH1 0x80 DUP1 DUP3 ADD DUP5 MSTORE SWAP2 SLOAD PUSH1 0xFF DUP1 DUP3 AND ISZERO ISZERO DUP4 MSTORE PUSH2 0x100 DUP3 DIV DUP2 AND ISZERO ISZERO DUP4 DUP8 ADD MSTORE PUSH3 0x10000 DUP3 DIV AND ISZERO ISZERO DUP3 DUP6 ADD MSTORE PUSH4 0x1000000 SWAP1 DIV PUSH1 0x1 PUSH1 0x1 PUSH1 0x40 SHL SUB AND PUSH1 0x60 DUP1 DUP4 ADD SWAP2 SWAP1 SWAP2 MSTORE DUP4 MLOAD PUSH1 0x4 DUP1 DUP3 MSTORE PUSH1 0xA0 DUP3 ADD SWAP1 SWAP6 MSTORE SWAP2 SWAP8 POP SWAP4 SWAP1 SWAP3 SWAP2 SWAP1 DUP4 ADD SWAP1 DUP1 CALLDATASIZE DUP4 CALLDATACOPY ADD SWAP1 POP POP SWAP1 POP DUP2 PUSH1 0x3 ADD SLOAD DUP2 PUSH1 0x0 DUP2 MLOAD DUP2 LT PUSH2 0x109A JUMPI INVALID JUMPDEST PUSH1 0x20 MUL PUSH1 0x20 ADD ADD DUP2 DUP2 MSTORE POP POP PUSH2 0x10AF DUP12 PUSH2 0x43B2 JUMP JUMPDEST DUP3 PUSH1 0x6 ADD SLOAD ADD DUP2 PUSH1 0x1 DUP2 MLOAD DUP2 LT PUSH2 0x10C2 JUMPI INVALID JUMPDEST PUSH1 0x20 SWAP1 DUP2 MUL SWAP2 SWAP1 SWAP2 ADD ADD MSTORE PUSH1 0x4 DUP3 ADD SLOAD DUP2 MLOAD PUSH1 0x1 PUSH1 0x1 PUSH1 0x40 SHL SUB SWAP1 SWAP2 AND SWAP1 DUP3 SWAP1 PUSH1 0x2 SWAP1 DUP2 LT PUSH2 0x10ED JUMPI INVALID JUMPDEST PUSH1 0x20 MUL PUSH1 0x20 ADD ADD DUP2 DUP2 MSTORE POP POP DUP2 PUSH1 0x4 ADD PUSH1 0x8 SWAP1 SLOAD SWAP1 PUSH2 0x100 EXP SWAP1 DIV PUSH1 0xFF AND PUSH1 0xFF AND DUP2 PUSH1 0x3 DUP2 MLOAD DUP2 LT PUSH2 0x111B JUMPI INVALID JUMPDEST PUSH1 0x20 SWAP1 DUP2 MUL SWAP2 SWAP1 SWAP2 ADD ADD MSTORE PUSH1 0x40 DUP1 MLOAD PUSH1 0x2 DUP1 DUP3 MSTORE PUSH1 0x60 DUP3 DUP2 ADD SWAP1 SWAP4 MSTORE DUP2 PUSH1 0x20 ADD PUSH1 0x20 DUP3 MUL DUP1 CALLDATASIZE DUP4 CALLDATACOPY ADD SWAP1 POP POP PUSH1 0xE DUP5 ADD SLOAD SWAP1 SWAP2 POP PUSH1 0x1 PUSH1 0x40 SHL SWAP1 DIV PUSH1 0x1 PUSH1 0x1 PUSH1 0x40 SHL SUB AND ISZERO PUSH2 0x11CC JUMPI PUSH1 0xE DUP4 ADD SLOAD PUSH1 0xC DUP5 ADD DUP1 SLOAD SWAP1 SWAP2 PUSH1 0x1 PUSH1 0x40 SHL SWAP1 DIV PUSH1 0x1 PUSH1 0x1 PUSH1 0x40 SHL SUB AND SWAP1 DUP2 LT PUSH2 0x118A JUMPI INVALID JUMPDEST PUSH1 0x0 SWAP2 DUP3 MSTORE PUSH1 0x20 DUP3 KECCAK256 ADD SLOAD DUP3 MLOAD PUSH1 0x1 PUSH1 0x1 PUSH1 0xA0 SHL SUB SWAP1 SWAP2 AND SWAP2 DUP4 SWAP2 PUSH2 0x11AB JUMPI INVALID JUMPDEST PUSH1 0x20 MUL PUSH1 0x20 ADD ADD SWAP1 PUSH1 0x1 PUSH1 0x1 PUSH1 0xA0 SHL SUB AND SWAP1 DUP2 PUSH1 0x1 PUSH1 0x1 PUSH1 0xA0 SHL SUB AND DUP2 MSTORE POP POP JUMPDEST PUSH1 0xE DUP4 ADD SLOAD PUSH1 0xC DUP5 ADD DUP1 SLOAD SWAP1 SWAP2 PUSH1 0x1 PUSH1 0x1 PUSH1 0x40 SHL SUB AND SWAP1 DUP2 LT PUSH2 0x11EB JUMPI INVALID JUMPDEST SWAP1 PUSH1 0x0 MSTORE PUSH1 0x20 PUSH1 0x0 KECCAK256 ADD PUSH1 0x0 SWAP1 SLOAD SWAP1 PUSH2 0x100 EXP SWAP1 DIV PUSH1 0x1 PUSH1 0x1 PUSH1 0xA0 SHL SUB AND DUP2 PUSH1 0x1 DUP2 MLOAD DUP2 LT PUSH2 0x1216 JUMPI INVALID JUMPDEST PUSH1 0x1 PUSH1 0x1 PUSH1 0xA0 SHL SUB SWAP3 SWAP1 SWAP3 AND PUSH1 0x20 SWAP3 DUP4 MUL SWAP2 SWAP1 SWAP2 ADD DUP3 ADD MSTORE PUSH1 0x40 DUP1 MLOAD PUSH1 0x4 DUP1 DUP3 MSTORE PUSH1 0xA0 DUP3 ADD SWAP1 SWAP3 MSTORE PUSH1 0x60 SWAP3 SWAP1 SWAP2 SWAP1 DUP3 ADD PUSH1 0x80 DUP1 CALLDATASIZE DUP4 CALLDATACOPY ADD SWAP1 POP POP SWAP1 POP DUP4 PUSH1 0x8 ADD SLOAD DUP2 PUSH1 0x0 DUP2 MLOAD DUP2 LT PUSH2 0x1264 JUMPI INVALID JUMPDEST PUSH1 0x20 MUL PUSH1 0x20 ADD ADD DUP2 DUP2 MSTORE POP POP DUP4 PUSH1 0x9 ADD SLOAD DUP2 PUSH1 0x1 DUP2 MLOAD DUP2 LT PUSH2 0x1282 JUMPI INVALID JUMPDEST PUSH1 0x20 MUL PUSH1 0x20 ADD ADD DUP2 DUP2 MSTORE POP POP DUP4 PUSH1 0xA ADD SLOAD DUP2 PUSH1 0x2 DUP2 MLOAD DUP2 LT PUSH2 0x12A0 JUMPI INVALID JUMPDEST PUSH1 0x20 MUL PUSH1 0x20 ADD ADD DUP2 DUP2 MSTORE POP POP PUSH2 0x12B5 DUP14 PUSH2 0xD0B JUMP JUMPDEST DUP2 PUSH1 0x3 DUP2 MLOAD DUP2 LT PUSH2 0x12C2 JUMPI INVALID JUMPDEST PUSH1 0x20 SWAP1 DUP2 MUL SWAP2 SWAP1 SWAP2 ADD ADD MSTORE PUSH1 0x0 PUSH1 0x10 DUP6 ADD SLOAD PUSH1 0xFF AND PUSH1 0xA DUP2 GT ISZERO PUSH2 0x12E2 JUMPI INVALID JUMPDEST EQ ISZERO PUSH2 0x15BB JUMPI PUSH1 0x40 DUP1 MLOAD PUSH1 0x1 DUP1 DUP3 MSTORE DUP2 DUP4 ADD SWAP1 SWAP3 MSTORE PUSH1 0x60 SWAP2 DUP2 PUSH1 0x20 ADD JUMPDEST PUSH2 0x1307 PUSH2 0x4896 JUMP JUMPDEST DUP2 MSTORE PUSH1 0x20 ADD SWAP1 PUSH1 0x1 SWAP1 SUB SWAP1 DUP2 PUSH2 0x12FF JUMPI SWAP1 POP POP SWAP1 POP DUP5 PUSH1 0x14 ADD DUP6 PUSH1 0x12 ADD DUP7 PUSH1 0x2 ADD SLOAD DUP2 SLOAD DUP2 LT PUSH2 0x1333 JUMPI INVALID JUMPDEST SWAP1 PUSH1 0x0 MSTORE PUSH1 0x20 PUSH1 0x0 KECCAK256 ADD SLOAD DUP2 SLOAD DUP2 LT PUSH2 0x1348 JUMPI INVALID JUMPDEST PUSH1 0x0 SWAP2 DUP3 MSTORE PUSH1 0x20 SWAP2 DUP3 SWAP1 KECCAK256 PUSH1 0x40 DUP1 MLOAD PUSH2 0x100 DUP1 DUP3 ADD DUP4 MSTORE PUSH1 0x5 SWAP5 SWAP1 SWAP5 MUL SWAP1 SWAP3 ADD DUP1 SLOAD PUSH1 0x1 PUSH1 0x1 PUSH1 0x40 SHL SUB DUP2 AND DUP5 MSTORE PUSH1 0x1 PUSH1 0x40 SHL SWAP1 DIV PUSH1 0xFF AND DUP4 DUP7 ADD MSTORE PUSH1 0x1 DUP1 DUP3 ADD DUP1 SLOAD DUP5 MLOAD PUSH1 0x2 SWAP4 DUP3 AND ISZERO SWAP1 SWAP8 MUL PUSH1 0x0 NOT ADD AND SWAP2 SWAP1 SWAP2 DIV PUSH1 0x1F DUP2 ADD DUP8 SWAP1 DIV DUP8 MUL DUP7 ADD DUP8 ADD DUP5 MSTORE DUP1 DUP7 MSTORE SWAP4 SWAP6 SWAP2 SWAP5 SWAP3 DUP7 ADD SWAP4 SWAP1 SWAP2 DUP4 ADD DUP3 DUP3 DUP1 ISZERO PUSH2 0x140C JUMPI DUP1 PUSH1 0x1F LT PUSH2 0x13E1 JUMPI PUSH2 0x100 DUP1 DUP4 SLOAD DIV MUL DUP4 MSTORE SWAP2 PUSH1 0x20 ADD SWAP2 PUSH2 0x140C JUMP JUMPDEST DUP3 ADD SWAP2 SWAP1 PUSH1 0x0 MSTORE PUSH1 0x20 PUSH1 0x0 KECCAK256 SWAP1 JUMPDEST DUP2 SLOAD DUP2 MSTORE SWAP1 PUSH1 0x1 ADD SWAP1 PUSH1 0x20 ADD DUP1 DUP4 GT PUSH2 0x13EF JUMPI DUP3 SWAP1 SUB PUSH1 0x1F AND DUP3 ADD SWAP2 JUMPDEST POP POP POP SWAP2 DUP4 MSTORE POP POP PUSH1 0x2 DUP3 DUP2 ADD DUP1 SLOAD PUSH1 0x40 DUP1 MLOAD PUSH1 0x20 PUSH1 0x1 DUP5 AND ISZERO PUSH2 0x100 MUL PUSH1 0x0 NOT ADD SWAP1 SWAP4 AND SWAP5 SWAP1 SWAP5 DIV PUSH1 0x1F DUP2 ADD DUP4 SWAP1 DIV DUP4 MUL DUP6 ADD DUP4 ADD SWAP1 SWAP2 MSTORE DUP1 DUP5 MSTORE SWAP4 DUP2 ADD SWAP4 SWAP1 DUP4 ADD DUP3 DUP3 DUP1 ISZERO PUSH2 0x149E JUMPI DUP1 PUSH1 0x1F LT PUSH2 0x1473 JUMPI PUSH2 0x100 DUP1 DUP4 SLOAD DIV MUL DUP4 MSTORE SWAP2 PUSH1 0x20 ADD SWAP2 PUSH2 0x149E JUMP JUMPDEST DUP3 ADD SWAP2 SWAP1 PUSH1 0x0 MSTORE PUSH1 0x20 PUSH1 0x0 KECCAK256 SWAP1 JUMPDEST DUP2 SLOAD DUP2 MSTORE SWAP1 PUSH1 0x1 ADD SWAP1 PUSH1 0x20 ADD DUP1 DUP4 GT PUSH2 0x1481 JUMPI DUP3 SWAP1 SUB PUSH1 0x1F AND DUP3 ADD SWAP2 JUMPDEST POP POP POP SWAP2 DUP4 MSTORE POP POP PUSH1 0x3 DUP3 ADD SLOAD PUSH1 0x20 DUP3 ADD MSTORE PUSH1 0x4 SWAP1 SWAP2 ADD SLOAD PUSH1 0x1 PUSH1 0x1 PUSH1 0xA0 SHL SUB DUP2 AND PUSH1 0x40 DUP4 ADD MSTORE PUSH1 0xFF PUSH1 0x1 PUSH1 0xA0 SHL DUP3 DIV DUP2 AND ISZERO ISZERO PUSH1 0x60 DUP5 ADD MSTORE PUSH1 0x1 PUSH1 0xA8 SHL SWAP1 SWAP2 DIV AND ISZERO ISZERO PUSH1 0x80 SWAP1 SWAP2 ADD MSTORE DUP2 MLOAD DUP3 SWAP1 PUSH1 0x0 SWAP1 PUSH2 0x14F5 JUMPI INVALID JUMPDEST PUSH1 0x20 MUL PUSH1 0x20 ADD ADD DUP2 SWAP1 MSTORE POP DUP4 DUP4 DUP4 DUP8 PUSH1 0xB ADD DUP5 DUP12 DUP3 DUP1 SLOAD PUSH1 0x1 DUP2 PUSH1 0x1 AND ISZERO PUSH2 0x100 MUL SUB AND PUSH1 0x2 SWAP1 DIV DUP1 PUSH1 0x1F ADD PUSH1 0x20 DUP1 SWAP2 DIV MUL PUSH1 0x20 ADD PUSH1 0x40 MLOAD SWAP1 DUP2 ADD PUSH1 0x40 MSTORE DUP1 SWAP3 SWAP2 SWAP1 DUP2 DUP2 MSTORE PUSH1 0x20 ADD DUP3 DUP1 SLOAD PUSH1 0x1 DUP2 PUSH1 0x1 AND ISZERO PUSH2 0x100 MUL SUB AND PUSH1 0x2 SWAP1 DIV DUP1 ISZERO PUSH2 0x159E JUMPI DUP1 PUSH1 0x1F LT PUSH2 0x1573 JUMPI PUSH2 0x100 DUP1 DUP4 SLOAD DIV MUL DUP4 MSTORE SWAP2 PUSH1 0x20 ADD SWAP2 PUSH2 0x159E JUMP JUMPDEST DUP3 ADD SWAP2 SWAP1 PUSH1 0x0 MSTORE PUSH1 0x20 PUSH1 0x0 KECCAK256 SWAP1 JUMPDEST DUP2 SLOAD DUP2 MSTORE SWAP1 PUSH1 0x1 ADD SWAP1 PUSH1 0x20 ADD DUP1 DUP4 GT PUSH2 0x1581 JUMPI DUP3 SWAP1 SUB PUSH1 0x1F AND DUP3 ADD SWAP2 JUMPDEST POP POP POP POP POP SWAP3 POP SWAP12 POP SWAP12 POP SWAP12 POP SWAP12 POP SWAP12 POP SWAP12 POP POP POP POP POP POP PUSH2 0x1977 JUMP JUMPDEST PUSH1 0x3 PUSH1 0x10 DUP6 ADD SLOAD PUSH1 0xFF AND PUSH1 0xA DUP2 GT ISZERO PUSH2 0x15D0 JUMPI INVALID JUMPDEST EQ ISZERO PUSH2 0x1621 JUMPI PUSH1 0x40 DUP1 MLOAD PUSH1 0x1 DUP1 DUP3 MSTORE DUP2 DUP4 ADD SWAP1 SWAP3 MSTORE PUSH1 0x60 SWAP2 DUP2 PUSH1 0x20 ADD JUMPDEST PUSH2 0x15F5 PUSH2 0x4896 JUMP JUMPDEST DUP2 MSTORE PUSH1 0x20 ADD SWAP1 PUSH1 0x1 SWAP1 SUB SWAP1 DUP2 PUSH2 0x15ED JUMPI SWAP1 POP POP SWAP1 POP DUP5 PUSH1 0x14 ADD DUP6 PUSH1 0x11 ADD DUP7 PUSH1 0x1 ADD SLOAD DUP2 SLOAD DUP2 LT PUSH2 0x1333 JUMPI INVALID JUMPDEST PUSH1 0x1 PUSH1 0x10 DUP6 ADD SLOAD PUSH1 0xFF AND PUSH1 0xA DUP2 GT ISZERO PUSH2 0x1636 JUMPI INVALID JUMPDEST EQ ISZERO PUSH2 0x16E5 JUMPI PUSH1 0x40 DUP1 MLOAD PUSH1 0x0 DUP1 DUP3 MSTORE PUSH1 0x20 DUP3 ADD SWAP1 SWAP3 MSTORE PUSH1 0x60 SWAP2 PUSH2 0x166F JUMP JUMPDEST PUSH2 0x165C PUSH2 0x4896 JUMP JUMPDEST DUP2 MSTORE PUSH1 0x20 ADD SWAP1 PUSH1 0x1 SWAP1 SUB SWAP1 DUP2 PUSH2 0x1654 JUMPI SWAP1 POP JUMPDEST POP SWAP1 POP DUP4 DUP4 DUP4 DUP8 PUSH1 0xB ADD DUP5 DUP12 DUP3 DUP1 SLOAD PUSH1 0x1 DUP2 PUSH1 0x1 AND ISZERO PUSH2 0x100 MUL SUB AND PUSH1 0x2 SWAP1 DIV DUP1 PUSH1 0x1F ADD PUSH1 0x20 DUP1 SWAP2 DIV MUL PUSH1 0x20 ADD PUSH1 0x40 MLOAD SWAP1 DUP2 ADD PUSH1 0x40 MSTORE DUP1 SWAP3 SWAP2 SWAP1 DUP2 DUP2 MSTORE PUSH1 0x20 ADD DUP3 DUP1 SLOAD PUSH1 0x1 DUP2 PUSH1 0x1 AND ISZERO PUSH2 0x100 MUL SUB AND PUSH1 0x2 SWAP1 DIV DUP1 ISZERO PUSH2 0x159E JUMPI DUP1 PUSH1 0x1F LT PUSH2 0x1573 JUMPI PUSH2 0x100 DUP1 DUP4 SLOAD DIV MUL DUP4 MSTORE SWAP2 PUSH1 0x20 ADD SWAP2 PUSH2 0x159E JUMP JUMPDEST PUSH1 0xB DUP5 ADD DUP1 SLOAD PUSH1 0x40 DUP1 MLOAD PUSH1 0x20 PUSH1 0x1F PUSH1 0x2 PUSH1 0x0 NOT PUSH2 0x100 PUSH1 0x1 DUP9 AND ISZERO MUL ADD SWAP1 SWAP6 AND SWAP5 SWAP1 SWAP5 DIV SWAP4 DUP5 ADD DUP2 SWAP1 DIV DUP2 MUL DUP3 ADD DUP2 ADD SWAP1 SWAP3 MSTORE DUP3 DUP2 MSTORE DUP7 SWAP4 DUP7 SWAP4 DUP7 SWAP4 SWAP2 SWAP3 PUSH1 0x14 DUP12 ADD SWAP3 DUP14 SWAP3 DUP6 SWAP2 DUP4 ADD DUP3 DUP3 DUP1 ISZERO PUSH2 0x177D JUMPI DUP1 PUSH1 0x1F LT PUSH2 0x1752 JUMPI PUSH2 0x100 DUP1 DUP4 SLOAD DIV MUL DUP4 MSTORE SWAP2 PUSH1 0x20 ADD SWAP2 PUSH2 0x177D JUMP JUMPDEST DUP3 ADD SWAP2 SWAP1 PUSH1 0x0 MSTORE PUSH1 0x20 PUSH1 0x0 KECCAK256 SWAP1 JUMPDEST DUP2 SLOAD DUP2 MSTORE SWAP1 PUSH1 0x1 ADD SWAP1 PUSH1 0x20 ADD DUP1 DUP4 GT PUSH2 0x1760 JUMPI DUP3 SWAP1 SUB PUSH1 0x1F AND DUP3 ADD SWAP2 JUMPDEST POP POP POP POP POP SWAP3 POP DUP2 DUP1 SLOAD DUP1 PUSH1 0x20 MUL PUSH1 0x20 ADD PUSH1 0x40 MLOAD SWAP1 DUP2 ADD PUSH1 0x40 MSTORE DUP1 SWAP3 SWAP2 SWAP1 DUP2 DUP2 MSTORE PUSH1 0x20 ADD PUSH1 0x0 SWAP1 JUMPDEST DUP3 DUP3 LT ISZERO PUSH2 0x1960 JUMPI PUSH1 0x0 DUP5 DUP2 MSTORE PUSH1 0x20 SWAP1 DUP2 SWAP1 KECCAK256 PUSH1 0x40 DUP1 MLOAD PUSH2 0x100 DUP1 DUP3 ADD DUP4 MSTORE PUSH1 0x5 DUP8 MUL SWAP1 SWAP4 ADD DUP1 SLOAD PUSH1 0x1 PUSH1 0x1 PUSH1 0x40 SHL SUB DUP2 AND DUP4 MSTORE PUSH1 0x1 PUSH1 0x40 SHL SWAP1 DIV PUSH1 0xFF AND DUP3 DUP7 ADD MSTORE PUSH1 0x1 DUP1 DUP3 ADD DUP1 SLOAD DUP6 MLOAD PUSH1 0x2 SWAP4 DUP3 AND ISZERO SWAP1 SWAP8 MUL PUSH1 0x0 NOT ADD AND SWAP2 SWAP1 SWAP2 DIV PUSH1 0x1F DUP2 ADD DUP8 SWAP1 DIV DUP8 MUL DUP7 ADD DUP8 ADD DUP6 MSTORE DUP1 DUP7 MSTORE SWAP3 SWAP6 SWAP2 SWAP5 SWAP4 DUP7 ADD SWAP4 SWAP3 SWAP1 SWAP2 DUP4 ADD DUP3 DUP3 DUP1 ISZERO PUSH2 0x1870 JUMPI DUP1 PUSH1 0x1F LT PUSH2 0x1845 JUMPI PUSH2 0x100 DUP1 DUP4 SLOAD DIV MUL DUP4 MSTORE SWAP2 PUSH1 0x20 ADD SWAP2 PUSH2 0x1870 JUMP JUMPDEST DUP3 ADD SWAP2 SWAP1 PUSH1 0x0 MSTORE PUSH1 0x20 PUSH1 0x0 KECCAK256 SWAP1 JUMPDEST DUP2 SLOAD DUP2 MSTORE SWAP1 PUSH1 0x1 ADD SWAP1 PUSH1 0x20 ADD DUP1 DUP4 GT PUSH2 0x1853 JUMPI DUP3 SWAP1 SUB PUSH1 0x1F AND DUP3 ADD SWAP2 JUMPDEST POP POP POP SWAP2 DUP4 MSTORE POP POP PUSH1 0x2 DUP3 DUP2 ADD DUP1 SLOAD PUSH1 0x40 DUP1 MLOAD PUSH1 0x20 PUSH1 0x1 DUP5 AND ISZERO PUSH2 0x100 MUL PUSH1 0x0 NOT ADD SWAP1 SWAP4 AND SWAP5 SWAP1 SWAP5 DIV PUSH1 0x1F DUP2 ADD DUP4 SWAP1 DIV DUP4 MUL DUP6 ADD DUP4 ADD SWAP1 SWAP2 MSTORE DUP1 DUP5 MSTORE SWAP4 DUP2 ADD SWAP4 SWAP1 DUP4 ADD DUP3 DUP3 DUP1 ISZERO PUSH2 0x1902 JUMPI DUP1 PUSH1 0x1F LT PUSH2 0x18D7 JUMPI PUSH2 0x100 DUP1 DUP4 SLOAD DIV MUL DUP4 MSTORE SWAP2 PUSH1 0x20 ADD SWAP2 PUSH2 0x1902 JUMP JUMPDEST DUP3 ADD SWAP2 SWAP1 PUSH1 0x0 MSTORE PUSH1 0x20 PUSH1 0x0 KECCAK256 SWAP1 JUMPDEST DUP2 SLOAD DUP2 MSTORE SWAP1 PUSH1 0x1 ADD SWAP1 PUSH1 0x20 ADD DUP1 DUP4 GT PUSH2 0x18E5 JUMPI DUP3 SWAP1 SUB PUSH1 0x1F AND DUP3 ADD SWAP2 JUMPDEST POP POP POP SWAP2 DUP4 MSTORE POP POP PUSH1 0x3 DUP3 ADD SLOAD PUSH1 0x20 DUP1 DUP4 ADD SWAP2 SWAP1 SWAP2 MSTORE PUSH1 0x4 SWAP1 SWAP3 ADD SLOAD PUSH1 0x1 PUSH1 0x1 PUSH1 0xA0 SHL SUB DUP2 AND PUSH1 0x40 DUP4 ADD MSTORE PUSH1 0xFF PUSH1 0x1 PUSH1 0xA0 SHL DUP3 DIV DUP2 AND ISZERO ISZERO PUSH1 0x60 DUP5 ADD MSTORE PUSH1 0x1 PUSH1 0xA8 SHL SWAP1 SWAP2 DIV AND ISZERO ISZERO PUSH1 0x80 SWAP1 SWAP2 ADD MSTORE SWAP1 DUP3 MSTORE PUSH1 0x1 SWAP3 SWAP1 SWAP3 ADD SWAP2 ADD PUSH2 0x17A5 JUMP JUMPDEST POP POP POP POP SWAP2 POP SWAP11 POP SWAP11 POP SWAP11 POP SWAP11 POP SWAP11 POP SWAP11 POP POP POP POP POP JUMPDEST POP SWAP3 SWAP6 POP SWAP3 SWAP6 POP SWAP3 SWAP6 JUMP JUMPDEST PUSH1 0x0 DUP2 DUP2 MSTORE PUSH1 0x1 PUSH1 0x20 MSTORE PUSH1 0x40 SWAP1 KECCAK256 SLOAD PUSH1 0xFF AND JUMPDEST SWAP2 SWAP1 POP JUMP JUMPDEST PUSH1 0x0 DUP1 PUSH1 0x0 PUSH1 0x60 DUP5 DUP1 PUSH1 0x0 SLOAD GT PUSH2 0x19E6 JUMPI PUSH1 0x40 DUP1 MLOAD PUSH3 0x461BCD PUSH1 0xE5 SHL DUP2 MSTORE PUSH1 0x20 PUSH1 0x4 DUP3 ADD MSTORE PUSH1 0x16 PUSH1 0x24 DUP3 ADD MSTORE PUSH1 0x0 DUP1 MLOAD PUSH1 0x20 PUSH2 0x5E7C DUP4 CODECOPY DUP2 MLOAD SWAP2 MSTORE PUSH1 0x44 DUP3 ADD MSTORE SWAP1 MLOAD SWAP1 DUP2 SWAP1 SUB PUSH1 0x64 ADD SWAP1 REVERT JUMPDEST PUSH1 0x0 DUP7 DUP2 MSTORE PUSH1 0x6 PUSH1 0x20 MSTORE PUSH1 0x40 SWAP1 KECCAK256 PUSH1 0xA PUSH1 0x10 DUP3 ADD SLOAD PUSH1 0xFF AND PUSH1 0xA DUP2 GT ISZERO PUSH2 0x1A09 JUMPI INVALID JUMPDEST EQ ISZERO PUSH2 0x1AC2 JUMPI PUSH1 0x1 PUSH1 0x0 DUP1 DUP4 PUSH1 0xB ADD DUP1 DUP1 SLOAD PUSH1 0x1 DUP2 PUSH1 0x1 AND ISZERO PUSH2 0x100 MUL SUB AND PUSH1 0x2 SWAP1 DIV DUP1 PUSH1 0x1F ADD PUSH1 0x20 DUP1 SWAP2 DIV MUL PUSH1 0x20 ADD PUSH1 0x40 MLOAD SWAP1 DUP2 ADD PUSH1 0x40 MSTORE DUP1 SWAP3 SWAP2 SWAP1 DUP2 DUP2 MSTORE PUSH1 0x20 ADD DUP3 DUP1 SLOAD PUSH1 0x1 DUP2 PUSH1 0x1 AND ISZERO PUSH2 0x100 MUL SUB AND PUSH1 0x2 SWAP1 DIV DUP1 ISZERO PUSH2 0x1AAD JUMPI DUP1 PUSH1 0x1F LT PUSH2 0x1A82 JUMPI PUSH2 0x100 DUP1 DUP4 SLOAD DIV MUL DUP4 MSTORE SWAP2 PUSH1 0x20 ADD SWAP2 PUSH2 0x1AAD JUMP JUMPDEST DUP3 ADD SWAP2 SWAP1 PUSH1 0x0 MSTORE PUSH1 0x20 PUSH1 0x0 KECCAK256 SWAP1 JUMPDEST DUP2 SLOAD DUP2 MSTORE SWAP1 PUSH1 0x1 ADD SWAP1 PUSH1 0x20 ADD DUP1 DUP4 GT PUSH2 0x1A90 JUMPI DUP3 SWAP1 SUB PUSH1 0x1F AND DUP3 ADD SWAP2 JUMPDEST POP POP POP POP POP SWAP1 POP SWAP6 POP SWAP6 POP SWAP6 POP SWAP6 POP POP PUSH2 0x1D88 JUMP JUMPDEST PUSH1 0x0 PUSH1 0x10 DUP3 ADD SLOAD PUSH1 0xFF AND PUSH1 0xA DUP2 GT ISZERO PUSH2 0x1AD7 JUMPI INVALID JUMPDEST EQ DUP1 PUSH2 0x1AF5 JUMPI POP PUSH1 0x2 PUSH1 0x10 DUP3 ADD SLOAD PUSH1 0xFF AND PUSH1 0xA DUP2 GT ISZERO PUSH2 0x1AF3 JUMPI INVALID JUMPDEST EQ JUMPDEST DUP1 PUSH2 0x1B12 JUMPI POP PUSH1 0x4 PUSH1 0x10 DUP3 ADD SLOAD PUSH1 0xFF AND PUSH1 0xA DUP2 GT ISZERO PUSH2 0x1B10 JUMPI INVALID JUMPDEST EQ JUMPDEST DUP1 PUSH2 0x1B2F JUMPI POP PUSH1 0x6 PUSH1 0x10 DUP3 ADD SLOAD PUSH1 0xFF AND PUSH1 0xA DUP2 GT ISZERO PUSH2 0x1B2D JUMPI INVALID JUMPDEST EQ JUMPDEST DUP1 PUSH2 0x1B4C JUMPI POP PUSH1 0x7 PUSH1 0x10 DUP3 ADD SLOAD PUSH1 0xFF AND PUSH1 0xA DUP2 GT ISZERO PUSH2 0x1B4A JUMPI INVALID JUMPDEST EQ JUMPDEST DUP1 PUSH2 0x1B69 JUMPI POP PUSH1 0x3 PUSH1 0x10 DUP3 ADD SLOAD PUSH1 0xFF AND PUSH1 0xA DUP2 GT ISZERO PUSH2 0x1B67 JUMPI INVALID JUMPDEST EQ JUMPDEST ISZERO PUSH2 0x1B92 JUMPI PUSH1 0x0 PUSH1 0x1 PUSH1 0x0 PUSH1 0x40 MLOAD DUP1 PUSH1 0x20 ADD PUSH1 0x40 MSTORE DUP1 PUSH1 0x0 DUP2 MSTORE POP SWAP6 POP SWAP6 POP SWAP6 POP SWAP6 POP POP PUSH2 0x1D88 JUMP JUMPDEST PUSH1 0x1 PUSH1 0x10 DUP3 ADD SLOAD PUSH1 0xFF AND PUSH1 0xA DUP2 GT ISZERO PUSH2 0x1BA7 JUMPI INVALID JUMPDEST EQ ISZERO PUSH2 0x1CAA JUMPI PUSH1 0x0 DUP8 DUP2 MSTORE PUSH1 0x6 PUSH1 0x20 MSTORE PUSH1 0x40 DUP2 KECCAK256 PUSH1 0x12 DUP2 ADD SLOAD PUSH1 0x2 SWAP1 SWAP2 ADD SLOAD LT ISZERO PUSH2 0x1C1C JUMPI DUP2 PUSH1 0x14 ADD DUP3 PUSH1 0x12 ADD DUP4 PUSH1 0x2 ADD SLOAD DUP2 SLOAD DUP2 LT PUSH2 0x1BE3 JUMPI INVALID JUMPDEST SWAP1 PUSH1 0x0 MSTORE PUSH1 0x20 PUSH1 0x0 KECCAK256 ADD SLOAD DUP2 SLOAD DUP2 LT PUSH2 0x1BF8 JUMPI INVALID JUMPDEST PUSH1 0x0 SWAP2 DUP3 MSTORE PUSH1 0x20 SWAP1 SWAP2 KECCAK256 PUSH1 0x4 PUSH1 0x5 SWAP1 SWAP3 MUL ADD ADD SLOAD PUSH1 0x1 PUSH1 0x1 PUSH1 0xA0 SHL SUB AND SWAP1 POP PUSH2 0x1C87 JUMP JUMPDEST PUSH1 0x0 DUP9 DUP2 MSTORE PUSH1 0x6 PUSH1 0x20 MSTORE PUSH1 0x40 SWAP1 KECCAK256 PUSH1 0x11 DUP2 ADD SLOAD PUSH1 0x1 SWAP1 SWAP2 ADD SLOAD LT ISZERO PUSH2 0x1C87 JUMPI DUP2 PUSH1 0x14 ADD DUP3 PUSH1 0x11 ADD DUP4 PUSH1 0x1 ADD SLOAD DUP2 SLOAD DUP2 LT PUSH2 0x1C52 JUMPI INVALID JUMPDEST SWAP1 PUSH1 0x0 MSTORE PUSH1 0x20 PUSH1 0x0 KECCAK256 ADD SLOAD DUP2 SLOAD DUP2 LT PUSH2 0x1C67 JUMPI INVALID JUMPDEST PUSH1 0x0 SWAP2 DUP3 MSTORE PUSH1 0x20 SWAP1 SWAP2 KECCAK256 PUSH1 0x4 PUSH1 0x5 SWAP1 SWAP3 MUL ADD ADD SLOAD PUSH1 0x1 PUSH1 0x1 PUSH1 0xA0 SHL SUB AND SWAP1 POP JUMPDEST PUSH1 0x0 DUP1 DUP3 PUSH1 0x40 MLOAD DUP1 PUSH1 0x20 ADD PUSH1 0x40 MSTORE DUP1 PUSH1 0x0 DUP2 MSTORE POP SWAP7 POP SWAP7 POP SWAP7 POP SWAP7 POP POP POP PUSH2 0x1D88 JUMP JUMPDEST PUSH1 0x5 PUSH1 0x10 DUP3 ADD SLOAD PUSH1 0xFF AND PUSH1 0xA DUP2 GT ISZERO PUSH2 0x1CBF JUMPI INVALID JUMPDEST EQ DUP1 PUSH2 0x1CDD JUMPI POP PUSH1 0x8 PUSH1 0x10 DUP3 ADD SLOAD PUSH1 0xFF AND PUSH1 0xA DUP2 GT ISZERO PUSH2 0x1CDB JUMPI INVALID JUMPDEST EQ JUMPDEST ISZERO PUSH2 0x1D3B JUMPI PUSH1 0xE DUP2 ADD SLOAD PUSH1 0xC DUP3 ADD DUP1 SLOAD PUSH1 0x0 SWAP3 DUP4 SWAP3 SWAP2 PUSH1 0x1 PUSH1 0x1 PUSH1 0x40 SHL SUB SWAP1 SWAP2 AND SWAP1 DUP2 LT PUSH2 0x1D07 JUMPI INVALID JUMPDEST PUSH1 0x0 SWAP2 DUP3 MSTORE PUSH1 0x20 DUP1 DUP4 KECCAK256 SWAP1 SWAP2 ADD SLOAD PUSH1 0x40 DUP1 MLOAD SWAP3 DUP4 ADD SWAP1 MSTORE SWAP2 DUP2 MSTORE SWAP3 SWAP9 POP SWAP1 SWAP7 POP PUSH1 0x1 PUSH1 0x1 PUSH1 0xA0 SHL SUB AND SWAP5 POP SWAP3 POP PUSH2 0x1D88 SWAP1 POP JUMP JUMPDEST PUSH1 0x9 PUSH1 0x10 DUP3 ADD SLOAD PUSH1 0xFF AND PUSH1 0xA DUP2 GT ISZERO PUSH2 0x1D50 JUMPI INVALID JUMPDEST EQ ISZERO PUSH2 0xF8A JUMPI PUSH1 0x0 DUP1 DUP3 PUSH1 0xC ADD DUP4 PUSH1 0xE ADD PUSH1 0x8 SWAP1 SLOAD SWAP1 PUSH2 0x100 EXP SWAP1 DIV PUSH1 0x1 PUSH1 0x1 PUSH1 0x40 SHL SUB AND PUSH1 0x1 PUSH1 0x1 PUSH1 0x40 SHL SUB AND DUP2 SLOAD DUP2 LT PUSH2 0x1D07 JUMPI INVALID JUMPDEST POP SWAP2 SWAP4 POP SWAP2 SWAP4 JUMP JUMPDEST PUSH1 0x0 DUP1 PUSH1 0x0 DUP5 DUP1 PUSH1 0x0 SLOAD GT PUSH2 0x1DDA JUMPI PUSH1 0x40 DUP1 MLOAD PUSH3 0x461BCD PUSH1 0xE5 SHL DUP2 MSTORE PUSH1 0x20 PUSH1 0x4 DUP3 ADD MSTORE PUSH1 0x16 PUSH1 0x24 DUP3 ADD MSTORE PUSH1 0x0 DUP1 MLOAD PUSH1 0x20 PUSH2 0x5E7C DUP4 CODECOPY DUP2 MLOAD SWAP2 MSTORE PUSH1 0x44 DUP3 ADD MSTORE SWAP1 MLOAD SWAP1 DUP2 SWAP1 SUB PUSH1 0x64 ADD SWAP1 REVERT JUMPDEST POP POP POP PUSH1 0x0 SWAP3 DUP4 MSTORE POP PUSH1 0x6 PUSH1 0x20 SWAP1 DUP2 MSTORE PUSH1 0x40 DUP1 DUP5 KECCAK256 PUSH1 0x1 PUSH1 0x1 PUSH1 0xA0 SHL SUB SWAP1 SWAP4 AND DUP5 MSTORE PUSH1 0xF SWAP1 SWAP3 ADD SWAP1 MSTORE SWAP1 KECCAK256 SLOAD PUSH1 0xFF DUP1 DUP3 AND SWAP3 PUSH2 0x100 DUP4 DIV DUP3 AND SWAP3 PUSH3 0x10000 SWAP1 DIV SWAP1 SWAP2 AND SWAP1 JUMP JUMPDEST DUP1 DUP1 PUSH1 0x0 SLOAD GT PUSH2 0x1E65 JUMPI PUSH1 0x40 DUP1 MLOAD PUSH3 0x461BCD PUSH1 0xE5 SHL DUP2 MSTORE PUSH1 0x20 PUSH1 0x4 DUP3 ADD MSTORE PUSH1 0x16 PUSH1 0x24 DUP3 ADD MSTORE PUSH1 0x0 DUP1 MLOAD PUSH1 0x20 PUSH2 0x5E7C DUP4 CODECOPY DUP2 MLOAD SWAP2 MSTORE PUSH1 0x44 DUP3 ADD MSTORE SWAP1 MLOAD SWAP1 DUP2 SWAP1 SUB PUSH1 0x64 ADD SWAP1 REVERT JUMPDEST PUSH2 0x1E6E DUP2 PUSH2 0x1982 JUMP JUMPDEST PUSH2 0x1EB0 JUMPI PUSH1 0x40 DUP1 MLOAD PUSH3 0x461BCD PUSH1 0xE5 SHL DUP2 MSTORE PUSH1 0x20 PUSH1 0x4 DUP3 ADD MSTORE PUSH1 0xE PUSH1 0x24 DUP3 ADD MSTORE PUSH14 0x496E64657820696E616374697665 PUSH1 0x90 SHL PUSH1 0x44 DUP3 ADD MSTORE SWAP1 MLOAD SWAP1 DUP2 SWAP1 SUB PUSH1 0x64 ADD SWAP1 REVERT JUMPDEST PUSH1 0x0 DUP3 DUP2 MSTORE PUSH1 0x6 PUSH1 0x20 SWAP1 DUP2 MSTORE PUSH1 0x40 DUP1 DUP4 KECCAK256 CALLER DUP5 MSTORE PUSH1 0xF DUP2 ADD SWAP1 SWAP3 MSTORE SWAP1 SWAP2 KECCAK256 SLOAD DUP4 SWAP2 SWAP1 PUSH1 0xFF AND PUSH2 0x1EF1 JUMPI PUSH1 0x40 MLOAD PUSH3 0x461BCD PUSH1 0xE5 SHL DUP2 MSTORE PUSH1 0x4 ADD PUSH2 0x479 SWAP1 PUSH2 0x5C43 JUMP JUMPDEST PUSH1 0x0 DUP5 DUP2 MSTORE PUSH1 0x6 PUSH1 0x20 SWAP1 DUP2 MSTORE PUSH1 0x40 DUP1 DUP4 KECCAK256 CALLER DUP5 MSTORE PUSH1 0xF DUP2 ADD SWAP1 SWAP3 MSTORE SWAP1 SWAP2 KECCAK256 SLOAD DUP6 SWAP2 SWAP1 PUSH2 0x100 SWAP1 DIV PUSH1 0xFF AND ISZERO PUSH2 0x1F38 JUMPI PUSH1 0x40 MLOAD PUSH3 0x461BCD PUSH1 0xE5 SHL DUP2 MSTORE PUSH1 0x4 ADD PUSH2 0x479 SWAP1 PUSH2 0x5969 JUMP JUMPDEST PUSH1 0x0 DUP7 DUP2 MSTORE PUSH1 0x2 PUSH1 0x20 SWAP1 DUP2 MSTORE PUSH1 0x40 DUP1 DUP4 KECCAK256 DUP1 SLOAD PUSH1 0x1 ADD SWAP1 SSTORE PUSH1 0x6 SWAP2 DUP3 SWAP1 MSTORE SWAP1 SWAP2 KECCAK256 DUP8 SWAP2 PUSH1 0x10 DUP3 ADD SLOAD PUSH1 0xFF AND PUSH1 0xA DUP2 GT ISZERO PUSH2 0x1F6E JUMPI INVALID JUMPDEST EQ PUSH2 0x1F8B JUMPI PUSH1 0x40 MLOAD PUSH3 0x461BCD PUSH1 0xE5 SHL DUP2 MSTORE PUSH1 0x4 ADD PUSH2 0x479 SWAP1 PUSH2 0x5356 JUMP JUMPDEST PUSH1 0x5 SLOAD PUSH1 0xE DUP3 ADD SLOAD PUSH1 0xC DUP4 ADD DUP1 SLOAD PUSH1 0x1 PUSH1 0x1 PUSH1 0xA0 SHL SUB SWAP1 SWAP4 AND SWAP3 PUSH4 0x20B73870 SWAP3 CALLER SWAP3 SWAP2 PUSH1 0x1 PUSH1 0x1 PUSH1 0x40 SHL SUB SWAP1 SWAP2 AND SWAP1 DUP2 LT PUSH2 0x1FC2 JUMPI INVALID JUMPDEST PUSH1 0x0 SWAP2 DUP3 MSTORE PUSH1 0x20 SWAP1 SWAP2 KECCAK256 ADD SLOAD PUSH1 0x5 DUP6 ADD SLOAD PUSH1 0x3 DUP1 SLOAD PUSH1 0x9 DUP9 ADD SLOAD PUSH1 0xA DUP10 ADD SLOAD SWAP3 DUP10 ADD SLOAD PUSH1 0x40 MLOAD PUSH1 0x1 PUSH1 0x1 PUSH1 0xE0 SHL SUB NOT PUSH1 0xE0 DUP11 SWAP1 SHL AND DUP2 MSTORE PUSH2 0x2018 SWAP8 SWAP7 PUSH1 0x1 PUSH1 0x1 PUSH1 0xA0 SHL SUB SWAP1 DUP2 AND SWAP7 SWAP6 SWAP5 AND SWAP4 SWAP2 SWAP1 PUSH1 0x4 ADD PUSH2 0x51BD JUMP JUMPDEST PUSH1 0x20 PUSH1 0x40 MLOAD DUP1 DUP4 SUB DUP2 PUSH1 0x0 DUP8 DUP1 EXTCODESIZE ISZERO DUP1 ISZERO PUSH2 0x2032 JUMPI PUSH1 0x0 DUP1 REVERT JUMPDEST POP GAS CALL ISZERO DUP1 ISZERO PUSH2 0x2046 JUMPI RETURNDATASIZE PUSH1 0x0 DUP1 RETURNDATACOPY RETURNDATASIZE PUSH1 0x0 REVERT JUMPDEST POP POP POP POP PUSH1 0x40 MLOAD RETURNDATASIZE PUSH1 0x1F NOT PUSH1 0x1F DUP3 ADD AND DUP3 ADD DUP1 PUSH1 0x40 MSTORE POP DUP2 ADD SWAP1 PUSH2 0x206A SWAP2 SWAP1 PUSH2 0x4C6C JUMP JUMPDEST PUSH1 0x7 DUP1 DUP4 ADD SWAP2 SWAP1 SWAP2 SSTORE PUSH1 0x10 DUP3 ADD DUP1 SLOAD PUSH1 0xFF NOT AND PUSH1 0x1 DUP4 MUL OR SWAP1 SSTORE POP CALLER PUSH1 0x0 SWAP1 DUP2 MSTORE PUSH1 0xF DUP3 ADD PUSH1 0x20 MSTORE PUSH1 0x40 SWAP1 DUP2 SWAP1 KECCAK256 DUP1 SLOAD PUSH2 0xFF00 NOT AND PUSH2 0x100 OR SWAP1 DUP2 SWAP1 SSTORE PUSH1 0xE DUP4 ADD DUP1 SLOAD PUSH1 0x1 PUSH1 0x80 SHL PUSH1 0x1 PUSH1 0x40 SHL PUSH1 0x1 PUSH1 0x1 PUSH1 0x40 SHL SUB PUSH4 0x1000000 SWAP1 SWAP6 DIV DUP6 AND MUL PUSH8 0xFFFFFFFFFFFFFFFF PUSH1 0x40 SHL NOT SWAP1 SWAP3 AND SWAP2 SWAP1 SWAP2 OR DUP2 DUP2 DIV DUP5 AND PUSH1 0x1 ADD SWAP1 SWAP4 AND MUL PUSH8 0xFFFFFFFFFFFFFFFF PUSH1 0x80 SHL NOT SWAP1 SWAP3 AND SWAP2 SWAP1 SWAP2 OR SWAP1 SSTORE TIMESTAMP PUSH1 0x6 DUP4 ADD SSTORE MLOAD PUSH32 0xA895DA4B794AEBA8D8082DB237265459DB7B7FFDB5AA7C2332A7C5EAFBFAE735 SWAP1 PUSH2 0x2134 SWAP1 DUP11 SWAP1 PUSH2 0x533C JUMP JUMPDEST PUSH1 0x40 MLOAD DUP1 SWAP2 SUB SWAP1 LOG1 POP POP POP POP POP POP POP POP JUMP JUMPDEST DUP1 DUP1 PUSH1 0x0 SLOAD GT PUSH2 0x218B JUMPI PUSH1 0x40 DUP1 MLOAD PUSH3 0x461BCD PUSH1 0xE5 SHL DUP2 MSTORE PUSH1 0x20 PUSH1 0x4 DUP3 ADD MSTORE PUSH1 0x16 PUSH1 0x24 DUP3 ADD MSTORE PUSH1 0x0 DUP1 MLOAD PUSH1 0x20 PUSH2 0x5E7C DUP4 CODECOPY DUP2 MLOAD SWAP2 MSTORE PUSH1 0x44 DUP3 ADD MSTORE SWAP1 MLOAD SWAP1 DUP2 SWAP1 SUB PUSH1 0x64 ADD SWAP1 REVERT JUMPDEST PUSH2 0x2194 DUP2 PUSH2 0x1982 JUMP JUMPDEST PUSH2 0x21D6 JUMPI PUSH1 0x40 DUP1 MLOAD PUSH3 0x461BCD PUSH1 0xE5 SHL DUP2 MSTORE PUSH1 0x20 PUSH1 0x4 DUP3 ADD MSTORE PUSH1 0xE PUSH1 0x24 DUP3 ADD MSTORE PUSH14 0x496E64657820696E616374697665 PUSH1 0x90 SHL PUSH1 0x44 DUP3 ADD MSTORE SWAP1 MLOAD SWAP1 DUP2 SWAP1 SUB PUSH1 0x64 ADD SWAP1 REVERT JUMPDEST PUSH1 0x0 DUP3 DUP2 MSTORE PUSH1 0x6 PUSH1 0x20 SWAP1 DUP2 MSTORE PUSH1 0x40 DUP1 DUP4 KECCAK256 CALLER DUP5 MSTORE PUSH1 0xF DUP2 ADD SWAP1 SWAP3 MSTORE SWAP1 SWAP2 KECCAK256 SLOAD DUP4 SWAP2 SWAP1 PUSH1 0xFF AND PUSH2 0x2217 JUMPI PUSH1 0x40 MLOAD PUSH3 0x461BCD PUSH1 0xE5 SHL DUP2 MSTORE PUSH1 0x4 ADD PUSH2 0x479 SWAP1 PUSH2 0x5C43 JUMP JUMPDEST PUSH1 0x0 DUP5 DUP2 MSTORE PUSH1 0x6 PUSH1 0x20 SWAP1 DUP2 MSTORE PUSH1 0x40 DUP1 DUP4 KECCAK256 CALLER DUP5 MSTORE PUSH1 0xF DUP2 ADD SWAP1 SWAP3 MSTORE SWAP1 SWAP2 KECCAK256 SLOAD DUP6 SWAP2 SWAP1 PUSH2 0x100 SWAP1 DIV PUSH1 0xFF AND ISZERO PUSH2 0x225E JUMPI PUSH1 0x40 MLOAD PUSH3 0x461BCD PUSH1 0xE5 SHL DUP2 MSTORE PUSH1 0x4 ADD PUSH2 0x479 SWAP1 PUSH2 0x5969 JUMP JUMPDEST PUSH1 0x0 DUP7 DUP2 MSTORE PUSH1 0x2 PUSH1 0x20 SWAP1 DUP2 MSTORE PUSH1 0x40 DUP1 DUP4 KECCAK256 DUP1 SLOAD PUSH1 0x1 ADD SWAP1 SSTORE PUSH1 0x6 SWAP2 DUP3 SWAP1 MSTORE SWAP1 SWAP2 KECCAK256 DUP8 SWAP2 PUSH1 0x10 DUP3 ADD SLOAD PUSH1 0xFF AND PUSH1 0xA DUP2 GT ISZERO PUSH2 0x2294 JUMPI INVALID JUMPDEST EQ PUSH2 0x22B1 JUMPI PUSH1 0x40 MLOAD PUSH3 0x461BCD PUSH1 0xE5 SHL DUP2 MSTORE PUSH1 0x4 ADD PUSH2 0x479 SWAP1 PUSH2 0x5356 JUMP JUMPDEST PUSH1 0xD DUP2 ADD DUP1 SLOAD PUSH1 0x1 DUP2 DUP2 ADD DUP4 SSTORE PUSH1 0x0 SWAP3 DUP4 MSTORE PUSH1 0x20 DUP1 DUP5 KECCAK256 SWAP1 SWAP3 ADD DUP1 SLOAD PUSH1 0x1 PUSH1 0x1 PUSH1 0xA0 SHL SUB NOT AND CALLER SWAP1 DUP2 OR SWAP1 SWAP2 SSTORE DUP1 DUP5 MSTORE PUSH1 0xF DUP6 ADD SWAP1 SWAP3 MSTORE PUSH1 0x40 SWAP3 DUP4 SWAP1 KECCAK256 DUP1 SLOAD PUSH2 0xFF00 NOT AND PUSH2 0x100 OR SWAP1 SSTORE PUSH1 0xE DUP5 ADD DUP1 SLOAD PUSH1 0x1 PUSH1 0x1 PUSH1 0x40 SHL SUB PUSH1 0x1 PUSH1 0x80 SHL DUP1 DUP4 DIV DUP3 AND SWAP1 SWAP5 ADD AND SWAP1 SWAP3 MUL PUSH8 0xFFFFFFFFFFFFFFFF PUSH1 0x80 SHL NOT SWAP1 SWAP3 AND SWAP2 SWAP1 SWAP2 OR SWAP1 SSTORE SWAP1 MLOAD PUSH32 0x6F220D98C15DBD07FDC24781B682EA34F92411FC61B83C761DD927AFBE02D3FD SWAP2 PUSH2 0x2360 SWAP2 DUP12 SWAP2 SWAP1 PUSH2 0x5C8B JUMP JUMPDEST PUSH1 0x40 MLOAD DUP1 SWAP2 SUB SWAP1 LOG1 PUSH1 0xC DUP2 ADD SLOAD PUSH1 0xE DUP3 ADD SLOAD PUSH1 0x1 PUSH1 0x80 SHL SWAP1 DIV PUSH1 0x1 PUSH1 0x1 PUSH1 0x40 SHL SUB AND EQ ISZERO PUSH2 0x23BE JUMPI PUSH1 0x10 DUP2 ADD DUP1 SLOAD PUSH1 0xFF NOT AND PUSH1 0xA OR SWAP1 SSTORE PUSH1 0x0 DUP1 MLOAD PUSH1 0x20 PUSH2 0x5E5C DUP4 CODECOPY DUP2 MLOAD SWAP2 MSTORE DUP9 PUSH2 0x23B0 DUP2 PUSH2 0xD0B JUMP JUMPDEST PUSH1 0x40 MLOAD PUSH2 0x2134 SWAP3 SWAP2 SWAP1 PUSH2 0x5CA2 JUMP JUMPDEST POP POP POP POP POP POP POP POP JUMP JUMPDEST DUP1 DUP1 PUSH1 0x0 SLOAD GT PUSH2 0x240D JUMPI PUSH1 0x40 DUP1 MLOAD PUSH3 0x461BCD PUSH1 0xE5 SHL DUP2 MSTORE PUSH1 0x20 PUSH1 0x4 DUP3 ADD MSTORE PUSH1 0x16 PUSH1 0x24 DUP3 ADD MSTORE PUSH1 0x0 DUP1 MLOAD PUSH1 0x20 PUSH2 0x5E7C DUP4 CODECOPY DUP2 MLOAD SWAP2 MSTORE PUSH1 0x44 DUP3 ADD MSTORE SWAP1 MLOAD SWAP1 DUP2 SWAP1 SUB PUSH1 0x64 ADD SWAP1 REVERT JUMPDEST PUSH2 0x2416 DUP2 PUSH2 0x1982 JUMP JUMPDEST PUSH2 0x2458 JUMPI PUSH1 0x40 DUP1 MLOAD PUSH3 0x461BCD PUSH1 0xE5 SHL DUP2 MSTORE PUSH1 0x20 PUSH1 0x4 DUP3 ADD MSTORE PUSH1 0xE PUSH1 0x24 DUP3 ADD MSTORE PUSH14 0x496E64657820696E616374697665 PUSH1 0x90 SHL PUSH1 0x44 DUP3 ADD MSTORE SWAP1 MLOAD SWAP1 DUP2 SWAP1 SUB PUSH1 0x64 ADD SWAP1 REVERT JUMPDEST PUSH1 0x0 DUP3 DUP2 MSTORE PUSH1 0x2 PUSH1 0x20 DUP2 DUP2 MSTORE PUSH1 0x40 DUP1 DUP5 KECCAK256 DUP1 SLOAD PUSH1 0x1 ADD SWAP1 SSTORE PUSH1 0x6 SWAP1 SWAP2 MSTORE SWAP1 SWAP2 KECCAK256 DUP4 SWAP2 PUSH1 0x10 DUP3 ADD SLOAD PUSH1 0xFF AND PUSH1 0xA DUP2 GT ISZERO PUSH2 0x248D JUMPI INVALID JUMPDEST EQ PUSH2 0x24AA JUMPI PUSH1 0x40 MLOAD PUSH3 0x461BCD PUSH1 0xE5 SHL DUP2 MSTORE PUSH1 0x4 ADD PUSH2 0x479 SWAP1 PUSH2 0x579B JUMP JUMPDEST CALLER PUSH1 0x0 SWAP1 DUP2 MSTORE PUSH1 0xF DUP3 ADD PUSH1 0x20 MSTORE PUSH1 0x40 SWAP1 KECCAK256 SLOAD PUSH1 0xFF AND PUSH2 0x24DB JUMPI PUSH1 0x40 MLOAD PUSH3 0x461BCD PUSH1 0xE5 SHL DUP2 MSTORE PUSH1 0x4 ADD PUSH2 0x479 SWAP1 PUSH2 0x5B5C JUMP JUMPDEST PUSH1 0x10 DUP2 ADD DUP1 SLOAD PUSH1 0xFF NOT AND PUSH1 0x3 OR SWAP1 SSTORE TIMESTAMP PUSH1 0x6 SWAP1 SWAP2 ADD SSTORE POP POP POP JUMP JUMPDEST PUSH1 0x60 DUP1 DUP4 DUP1 PUSH1 0x0 SLOAD GT PUSH2 0x253E JUMPI PUSH1 0x40 DUP1 MLOAD PUSH3 0x461BCD PUSH1 0xE5 SHL DUP2 MSTORE PUSH1 0x20 PUSH1 0x4 DUP3 ADD MSTORE PUSH1 0x16 PUSH1 0x24 DUP3 ADD MSTORE PUSH1 0x0 DUP1 MLOAD PUSH1 0x20 PUSH2 0x5E7C DUP4 CODECOPY DUP2 MLOAD SWAP2 MSTORE PUSH1 0x44 DUP3 ADD MSTORE SWAP1 MLOAD SWAP1 DUP2 SWAP1 SUB PUSH1 0x64 ADD SWAP1 REVERT JUMPDEST PUSH1 0x60 DUP1 PUSH1 0x7 PUSH1 0x0 DUP9 DUP2 MSTORE PUSH1 0x6 PUSH1 0x20 MSTORE PUSH1 0x40 SWAP1 KECCAK256 PUSH1 0x10 ADD SLOAD PUSH1 0xFF AND PUSH1 0xA DUP2 GT ISZERO PUSH2 0x2563 JUMPI INVALID JUMPDEST EQ ISZERO PUSH2 0x2609 JUMPI PUSH1 0x40 DUP1 MLOAD PUSH1 0x1 DUP1 DUP3 MSTORE DUP2 DUP4 ADD SWAP1 SWAP3 MSTORE SWAP1 PUSH1 0x20 DUP1 DUP4 ADD SWAP1 DUP1 CALLDATASIZE DUP4 CALLDATACOPY POP POP PUSH1 0x40 DUP1 MLOAD PUSH1 0x1 DUP1 DUP3 MSTORE DUP2 DUP4 ADD SWAP1 SWAP3 MSTORE SWAP3 SWAP5 POP SWAP1 POP PUSH1 0x20 DUP1 DUP4 ADD SWAP1 DUP1 CALLDATASIZE DUP4 CALLDATACOPY POP POP PUSH1 0x5 SLOAD DUP5 MLOAD SWAP3 SWAP4 POP PUSH1 0x1 PUSH1 0x1 PUSH1 0xA0 SHL SUB AND SWAP2 DUP5 SWAP2 POP PUSH1 0x0 SWAP1 PUSH2 0x25C3 JUMPI INVALID JUMPDEST PUSH1 0x1 PUSH1 0x1 PUSH1 0xA0 SHL SUB SWAP1 SWAP3 AND PUSH1 0x20 SWAP3 DUP4 MUL SWAP2 SWAP1 SWAP2 ADD DUP3 ADD MSTORE PUSH1 0x0 DUP9 DUP2 MSTORE PUSH1 0x6 SWAP1 SWAP2 MSTORE PUSH1 0x40 DUP2 KECCAK256 PUSH1 0x7 ADD SLOAD DUP3 MLOAD SWAP1 SWAP2 DUP4 SWAP2 PUSH2 0x25F8 JUMPI INVALID JUMPDEST PUSH1 0x20 MUL PUSH1 0x20 ADD ADD DUP2 DUP2 MSTORE POP POP PUSH2 0x2623 JUMP JUMPDEST POP POP PUSH1 0x40 DUP1 MLOAD PUSH1 0x0 DUP1 DUP3 MSTORE PUSH1 0x20 DUP3 ADD SWAP1 DUP2 MSTORE DUP2 DUP4 ADD SWAP1 SWAP3 MSTORE SWAP1 JUMPDEST SWAP1 SWAP7 SWAP1 SWAP6 POP SWAP4 POP POP POP POP JUMP JUMPDEST DUP2 DUP1 PUSH1 0x0 SLOAD GT PUSH2 0x2674 JUMPI PUSH1 0x40 DUP1 MLOAD PUSH3 0x461BCD PUSH1 0xE5 SHL DUP2 MSTORE PUSH1 0x20 PUSH1 0x4 DUP3 ADD MSTORE PUSH1 0x16 PUSH1 0x24 DUP3 ADD MSTORE PUSH1 0x0 DUP1 MLOAD PUSH1 0x20 PUSH2 0x5E7C DUP4 CODECOPY DUP2 MLOAD SWAP2 MSTORE PUSH1 0x44 DUP3 ADD MSTORE SWAP1 MLOAD SWAP1 DUP2 SWAP1 SUB PUSH1 0x64 ADD SWAP1 REVERT JUMPDEST PUSH2 0x267D DUP2 PUSH2 0x1982 JUMP JUMPDEST PUSH2 0x26BF JUMPI PUSH1 0x40 DUP1 MLOAD PUSH3 0x461BCD PUSH1 0xE5 SHL DUP2 MSTORE PUSH1 0x20 PUSH1 0x4 DUP3 ADD MSTORE PUSH1 0xE PUSH1 0x24 DUP3 ADD MSTORE PUSH14 0x496E64657820696E616374697665 PUSH1 0x90 SHL PUSH1 0x44 DUP3 ADD MSTORE SWAP1 MLOAD SWAP1 DUP2 SWAP1 SUB PUSH1 0x64 ADD SWAP1 REVERT JUMPDEST PUSH1 0x0 DUP4 DUP2 MSTORE PUSH1 0x6 PUSH1 0x20 MSTORE PUSH1 0x40 DUP2 KECCAK256 DUP5 SWAP2 PUSH1 0x10 DUP3 ADD SLOAD PUSH1 0xFF AND PUSH1 0xA DUP2 GT ISZERO PUSH2 0x26E2 JUMPI INVALID JUMPDEST EQ PUSH2 0x26FF JUMPI PUSH1 0x40 MLOAD PUSH3 0x461BCD PUSH1 0xE5 SHL DUP2 MSTORE PUSH1 0x4 ADD PUSH2 0x479 SWAP1 PUSH2 0x58BA JUMP JUMPDEST PUSH1 0x12 DUP2 ADD SLOAD PUSH1 0x2 DUP3 ADD SLOAD LT PUSH2 0x2726 JUMPI PUSH1 0x40 MLOAD PUSH3 0x461BCD PUSH1 0xE5 SHL DUP2 MSTORE PUSH1 0x4 ADD PUSH2 0x479 SWAP1 PUSH2 0x58FB JUMP JUMPDEST PUSH1 0x0 DUP2 PUSH1 0x12 ADD DUP3 PUSH1 0x2 ADD SLOAD DUP2 SLOAD DUP2 LT PUSH2 0x273B JUMPI INVALID JUMPDEST SWAP1 PUSH1 0x0 MSTORE PUSH1 0x20 PUSH1 0x0 KECCAK256 ADD SLOAD SWAP1 POP DUP2 PUSH1 0x14 ADD DUP1 SLOAD SWAP1 POP DUP2 LT PUSH2 0x276E JUMPI PUSH1 0x40 MLOAD PUSH3 0x461BCD PUSH1 0xE5 SHL DUP2 MSTORE PUSH1 0x4 ADD PUSH2 0x479 SWAP1 PUSH2 0x57E1 JUMP JUMPDEST PUSH2 0x2776 PUSH2 0x4896 JUMP JUMPDEST DUP3 PUSH1 0x14 ADD DUP3 DUP2 SLOAD DUP2 LT PUSH2 0x2785 JUMPI INVALID JUMPDEST PUSH1 0x0 SWAP2 DUP3 MSTORE PUSH1 0x20 SWAP2 DUP3 SWAP1 KECCAK256 PUSH1 0x40 DUP1 MLOAD PUSH2 0x100 DUP1 DUP3 ADD DUP4 MSTORE PUSH1 0x5 SWAP5 SWAP1 SWAP5 MUL SWAP1 SWAP3 ADD DUP1 SLOAD PUSH1 0x1 PUSH1 0x1 PUSH1 0x40 SHL SUB DUP2 AND DUP5 MSTORE PUSH1 0x1 PUSH1 0x40 SHL SWAP1 DIV PUSH1 0xFF AND DUP4 DUP7 ADD MSTORE PUSH1 0x1 DUP1 DUP3 ADD DUP1 SLOAD DUP5 MLOAD PUSH1 0x2 SWAP4 DUP3 AND ISZERO SWAP1 SWAP8 MUL PUSH1 0x0 NOT ADD AND SWAP2 SWAP1 SWAP2 DIV PUSH1 0x1F DUP2 ADD DUP8 SWAP1 DIV DUP8 MUL DUP7 ADD DUP8 ADD DUP5 MSTORE DUP1 DUP7 MSTORE SWAP4 SWAP6 SWAP2 SWAP5 SWAP3 DUP7 ADD SWAP4 SWAP1 SWAP2 DUP4 ADD DUP3 DUP3 DUP1 ISZERO PUSH2 0x2849 JUMPI DUP1 PUSH1 0x1F LT PUSH2 0x281E JUMPI PUSH2 0x100 DUP1 DUP4 SLOAD DIV MUL DUP4 MSTORE SWAP2 PUSH1 0x20 ADD SWAP2 PUSH2 0x2849 JUMP JUMPDEST DUP3 ADD SWAP2 SWAP1 PUSH1 0x0 MSTORE PUSH1 0x20 PUSH1 0x0 KECCAK256 SWAP1 JUMPDEST DUP2 SLOAD DUP2 MSTORE SWAP1 PUSH1 0x1 ADD SWAP1 PUSH1 0x20 ADD DUP1 DUP4 GT PUSH2 0x282C JUMPI DUP3 SWAP1 SUB PUSH1 0x1F AND DUP3 ADD SWAP2 JUMPDEST POP POP POP SWAP2 DUP4 MSTORE POP POP PUSH1 0x2 DUP3 DUP2 ADD DUP1 SLOAD PUSH1 0x40 DUP1 MLOAD PUSH1 0x20 PUSH1 0x1 DUP5 AND ISZERO PUSH2 0x100 MUL PUSH1 0x0 NOT ADD SWAP1 SWAP4 AND SWAP5 SWAP1 SWAP5 DIV PUSH1 0x1F DUP2 ADD DUP4 SWAP1 DIV DUP4 MUL DUP6 ADD DUP4 ADD SWAP1 SWAP2 MSTORE DUP1 DUP5 MSTORE SWAP4 DUP2 ADD SWAP4 SWAP1 DUP4 ADD DUP3 DUP3 DUP1 ISZERO PUSH2 0x28DB JUMPI DUP1 PUSH1 0x1F LT PUSH2 0x28B0 JUMPI PUSH2 0x100 DUP1 DUP4 SLOAD DIV MUL DUP4 MSTORE SWAP2 PUSH1 0x20 ADD SWAP2 PUSH2 0x28DB JUMP JUMPDEST DUP3 ADD SWAP2 SWAP1 PUSH1 0x0 MSTORE PUSH1 0x20 PUSH1 0x0 KECCAK256 SWAP1 JUMPDEST DUP2 SLOAD DUP2 MSTORE SWAP1 PUSH1 0x1 ADD SWAP1 PUSH1 0x20 ADD DUP1 DUP4 GT PUSH2 0x28BE JUMPI DUP3 SWAP1 SUB PUSH1 0x1F AND DUP3 ADD SWAP2 JUMPDEST POP POP POP SWAP2 DUP4 MSTORE POP POP PUSH1 0x3 DUP3 ADD SLOAD PUSH1 0x20 DUP3 ADD MSTORE PUSH1 0x4 SWAP1 SWAP2 ADD SLOAD PUSH1 0x1 PUSH1 0x1 PUSH1 0xA0 SHL SUB DUP2 AND PUSH1 0x40 DUP4 ADD MSTORE PUSH1 0xFF PUSH1 0x1 PUSH1 0xA0 SHL DUP3 DIV DUP2 AND ISZERO ISZERO PUSH1 0x60 DUP5 ADD MSTORE PUSH1 0x1 PUSH1 0xA8 SHL SWAP1 SWAP2 DIV AND ISZERO ISZERO PUSH1 0x80 SWAP1 SWAP2 ADD MSTORE PUSH1 0x13 DUP5 ADD DUP1 SLOAD SWAP2 SWAP3 POP PUSH1 0x0 SWAP2 DUP5 SWAP1 DUP2 LT PUSH2 0x293B JUMPI INVALID JUMPDEST SWAP1 PUSH1 0x0 MSTORE PUSH1 0x20 PUSH1 0x0 KECCAK256 ADD SLOAD EQ PUSH2 0x2963 JUMPI PUSH1 0x40 MLOAD PUSH3 0x461BCD PUSH1 0xE5 SHL DUP2 MSTORE PUSH1 0x4 ADD PUSH2 0x479 SWAP1 PUSH2 0x5ACE JUMP JUMPDEST DUP1 PUSH1 0xC0 ADD MLOAD PUSH2 0x2984 JUMPI PUSH1 0x40 MLOAD PUSH3 0x461BCD PUSH1 0xE5 SHL DUP2 MSTORE PUSH1 0x4 ADD PUSH2 0x479 SWAP1 PUSH2 0x5BA3 JUMP JUMPDEST PUSH1 0xA0 DUP2 ADD MLOAD PUSH1 0x1 PUSH1 0x1 PUSH1 0xA0 SHL SUB AND CALLER EQ PUSH2 0x29B0 JUMPI PUSH1 0x40 MLOAD PUSH3 0x461BCD PUSH1 0xE5 SHL DUP2 MSTORE PUSH1 0x4 ADD PUSH2 0x479 SWAP1 PUSH2 0x5932 JUMP JUMPDEST PUSH1 0x0 DUP8 DUP2 MSTORE PUSH1 0x6 PUSH1 0x20 MSTORE PUSH1 0x40 DUP2 KECCAK256 PUSH1 0x2 DUP2 ADD SLOAD PUSH1 0x12 DUP3 ADD DUP1 SLOAD SWAP3 SWAP4 SWAP3 SWAP1 SWAP2 SWAP1 DUP2 LT PUSH2 0x29D7 JUMPI INVALID JUMPDEST SWAP1 PUSH1 0x0 MSTORE PUSH1 0x20 PUSH1 0x0 KECCAK256 ADD SLOAD SWAP1 POP PUSH1 0x0 DUP3 PUSH1 0x14 ADD DUP3 DUP2 SLOAD DUP2 LT PUSH2 0x29F5 JUMPI INVALID JUMPDEST SWAP1 PUSH1 0x0 MSTORE PUSH1 0x20 PUSH1 0x0 KECCAK256 SWAP1 PUSH1 0x5 MUL ADD SWAP1 POP DUP1 PUSH1 0x4 ADD PUSH1 0x15 SWAP1 SLOAD SWAP1 PUSH2 0x100 EXP SWAP1 DIV PUSH1 0xFF AND PUSH2 0x2A33 JUMPI PUSH1 0x40 MLOAD PUSH3 0x461BCD PUSH1 0xE5 SHL DUP2 MSTORE PUSH1 0x4 ADD PUSH2 0x479 SWAP1 PUSH2 0x5631 JUMP JUMPDEST PUSH1 0x3 DUP2 ADD DUP10 SWAP1 SSTORE PUSH1 0x13 DUP4 ADD DUP1 SLOAD DUP11 SWAP2 SWAP1 DUP5 SWAP1 DUP2 LT PUSH2 0x2A4D JUMPI INVALID JUMPDEST PUSH1 0x0 SWAP2 DUP3 MSTORE PUSH1 0x20 SWAP1 SWAP2 KECCAK256 ADD SSTORE PUSH1 0x2 DUP4 ADD DUP1 SLOAD PUSH1 0x1 ADD SWAP1 DUP2 SWAP1 SSTORE TIMESTAMP PUSH1 0x6 DUP6 ADD SSTORE PUSH1 0x12 DUP5 ADD SLOAD EQ ISZERO PUSH2 0x2AA5 JUMPI PUSH1 0x11 DUP4 ADD SLOAD ISZERO PUSH2 0x2A95 JUMPI PUSH1 0x10 DUP4 ADD DUP1 SLOAD PUSH1 0xFF NOT AND PUSH1 0x2 OR SWAP1 SSTORE PUSH2 0x2AA5 JUMP JUMPDEST PUSH1 0x10 DUP4 ADD DUP1 SLOAD PUSH1 0xFF NOT AND PUSH1 0x4 OR SWAP1 SSTORE JUMPDEST PUSH32 0xC33D5CC33DF375FAC3C4FB6395FAC74E37C0183C522E645801A298A6BA8E04A3 DUP11 DUP5 PUSH1 0x14 ADD DUP5 DUP2 SLOAD DUP2 LT PUSH2 0x2AD6 JUMPI INVALID JUMPDEST SWAP1 PUSH1 0x0 MSTORE PUSH1 0x20 PUSH1 0x0 KECCAK256 SWAP1 PUSH1 0x5 MUL ADD PUSH1 0x40 MLOAD PUSH2 0x2AF2 SWAP3 SWAP2 SWAP1 PUSH2 0x5CB0 JUMP JUMPDEST PUSH1 0x40 MLOAD DUP1 SWAP2 SUB SWAP1 LOG1 POP POP POP POP POP POP POP POP POP POP JUMP JUMPDEST PUSH1 0x0 PUSH1 0x32 DUP5 LT ISZERO PUSH2 0x2B29 JUMPI PUSH1 0x40 MLOAD PUSH3 0x461BCD PUSH1 0xE5 SHL DUP2 MSTORE PUSH1 0x4 ADD PUSH2 0x479 SWAP1 PUSH2 0x59E8 JUMP JUMPDEST PUSH1 0x0 DUP1 SLOAD DUP2 MSTORE PUSH1 0x6 PUSH1 0x20 MSTORE PUSH1 0x40 DUP2 KECCAK256 SWAP1 JUMPDEST DUP5 MLOAD DUP2 PUSH1 0x1 PUSH1 0x1 PUSH1 0x40 SHL SUB AND LT ISZERO PUSH2 0x2CD3 JUMPI DUP2 PUSH1 0xF ADD PUSH1 0x0 DUP7 DUP4 PUSH1 0x1 PUSH1 0x1 PUSH1 0x40 SHL SUB AND DUP2 MLOAD DUP2 LT PUSH2 0x2B67 JUMPI INVALID JUMPDEST PUSH1 0x20 SWAP1 DUP2 MUL SWAP2 SWAP1 SWAP2 ADD DUP2 ADD MLOAD PUSH1 0x1 PUSH1 0x1 PUSH1 0xA0 SHL SUB AND DUP3 MSTORE DUP2 ADD SWAP2 SWAP1 SWAP2 MSTORE PUSH1 0x40 ADD PUSH1 0x0 KECCAK256 SLOAD PUSH1 0xFF AND ISZERO PUSH2 0x2BAB JUMPI PUSH1 0x40 MLOAD PUSH3 0x461BCD PUSH1 0xE5 SHL DUP2 MSTORE PUSH1 0x4 ADD PUSH2 0x479 SWAP1 PUSH2 0x55E2 JUMP JUMPDEST PUSH1 0x1 DUP3 PUSH1 0xF ADD PUSH1 0x0 DUP8 DUP5 PUSH1 0x1 PUSH1 0x1 PUSH1 0x40 SHL SUB AND DUP2 MLOAD DUP2 LT PUSH2 0x2BC8 JUMPI INVALID JUMPDEST PUSH1 0x20 MUL PUSH1 0x20 ADD ADD MLOAD PUSH1 0x1 PUSH1 0x1 PUSH1 0xA0 SHL SUB AND PUSH1 0x1 PUSH1 0x1 PUSH1 0xA0 SHL SUB AND DUP2 MSTORE PUSH1 0x20 ADD SWAP1 DUP2 MSTORE PUSH1 0x20 ADD PUSH1 0x0 KECCAK256 PUSH1 0x0 ADD PUSH1 0x0 PUSH2 0x100 EXP DUP2 SLOAD DUP2 PUSH1 0xFF MUL NOT AND SWAP1 DUP4 ISZERO ISZERO MUL OR SWAP1 SSTORE POP DUP1 DUP3 PUSH1 0xF ADD PUSH1 0x0 DUP8 DUP5 PUSH1 0x1 PUSH1 0x1 PUSH1 0x40 SHL SUB AND DUP2 MLOAD DUP2 LT PUSH2 0x2C26 JUMPI INVALID JUMPDEST PUSH1 0x20 MUL PUSH1 0x20 ADD ADD MLOAD PUSH1 0x1 PUSH1 0x1 PUSH1 0xA0 SHL SUB AND PUSH1 0x1 PUSH1 0x1 PUSH1 0xA0 SHL SUB AND DUP2 MSTORE PUSH1 0x20 ADD SWAP1 DUP2 MSTORE PUSH1 0x20 ADD PUSH1 0x0 KECCAK256 PUSH1 0x0 ADD PUSH1 0x3 PUSH2 0x100 EXP DUP2 SLOAD DUP2 PUSH1 0x1 PUSH1 0x1 PUSH1 0x40 SHL SUB MUL NOT AND SWAP1 DUP4 PUSH1 0x1 PUSH1 0x1 PUSH1 0x40 SHL SUB AND MUL OR SWAP1 SSTORE POP DUP2 PUSH1 0xC ADD DUP6 DUP3 PUSH1 0x1 PUSH1 0x1 PUSH1 0x40 SHL SUB AND DUP2 MLOAD DUP2 LT PUSH2 0x2C8E JUMPI INVALID JUMPDEST PUSH1 0x20 SWAP1 DUP2 MUL SWAP2 SWAP1 SWAP2 ADD DUP2 ADD MLOAD DUP3 SLOAD PUSH1 0x1 DUP1 DUP3 ADD DUP6 SSTORE PUSH1 0x0 SWAP5 DUP6 MSTORE SWAP3 SWAP1 SWAP4 KECCAK256 SWAP1 SWAP3 ADD DUP1 SLOAD PUSH1 0x1 PUSH1 0x1 PUSH1 0xA0 SHL SUB NOT AND PUSH1 0x1 PUSH1 0x1 PUSH1 0xA0 SHL SUB SWAP1 SWAP4 AND SWAP3 SWAP1 SWAP3 OR SWAP1 SWAP2 SSTORE ADD PUSH2 0x2B3A JUMP JUMPDEST POP DUP3 MLOAD PUSH1 0x0 SWAP1 DUP1 PUSH1 0x1 PUSH1 0x1 PUSH1 0x40 SHL SUB DUP2 GT DUP1 ISZERO PUSH2 0x2CEF JUMPI PUSH1 0x0 DUP1 REVERT JUMPDEST POP PUSH1 0x40 MLOAD SWAP1 DUP1 DUP3 MSTORE DUP1 PUSH1 0x20 MUL PUSH1 0x20 ADD DUP3 ADD PUSH1 0x40 MSTORE DUP1 ISZERO PUSH2 0x2D19 JUMPI DUP2 PUSH1 0x20 ADD PUSH1 0x20 DUP3 MUL DUP1 CALLDATASIZE DUP4 CALLDATACOPY ADD SWAP1 POP JUMPDEST POP DUP1 MLOAD PUSH2 0x2D30 SWAP2 PUSH1 0x13 DUP7 ADD SWAP2 PUSH1 0x20 SWAP1 SWAP2 ADD SWAP1 PUSH2 0x48DC JUMP JUMPDEST POP PUSH1 0x0 JUMPDEST DUP2 DUP2 LT ISZERO PUSH2 0x31A7 JUMPI PUSH2 0x2D44 PUSH2 0x4896 JUMP JUMPDEST DUP7 DUP3 DUP2 MLOAD DUP2 LT PUSH2 0x2D50 JUMPI INVALID JUMPDEST PUSH1 0x20 MUL PUSH1 0x20 ADD ADD MLOAD SWAP1 POP DUP1 PUSH1 0xE0 ADD MLOAD PUSH2 0x2F30 JUMPI PUSH1 0x3 DUP2 PUSH1 0x20 ADD MLOAD PUSH1 0xFF AND LT ISZERO PUSH2 0x2D8B JUMPI PUSH1 0x40 MLOAD PUSH3 0x461BCD PUSH1 0xE5 SHL DUP2 MSTORE PUSH1 0x4 ADD PUSH2 0x479 SWAP1 PUSH2 0x5A87 JUMP JUMPDEST DUP1 PUSH1 0xC0 ADD MLOAD PUSH2 0x2F0D JUMPI DUP1 PUSH1 0x20 ADD MLOAD PUSH1 0xFF AND PUSH1 0x2 EXP DUP2 PUSH1 0x40 ADD MLOAD MLOAD GT ISZERO PUSH2 0x2DC3 JUMPI PUSH1 0x40 MLOAD PUSH3 0x461BCD PUSH1 0xE5 SHL DUP2 MSTORE PUSH1 0x4 ADD PUSH2 0x479 SWAP1 PUSH2 0x574B JUMP JUMPDEST PUSH1 0x40 DUP2 ADD MLOAD PUSH1 0x20 DUP3 ADD MLOAD DUP2 MLOAD PUSH1 0xFF SWAP1 SWAP2 AND PUSH1 0x2 EXP GT ISZERO PUSH2 0x2E54 JUMPI PUSH1 0x40 DUP3 ADD MLOAD DUP1 MLOAD PUSH1 0x20 DUP5 ADD MLOAD PUSH1 0xFF AND PUSH1 0x2 EXP SUB PUSH1 0x1 PUSH1 0x1 PUSH1 0x40 SHL SUB DUP2 GT DUP1 ISZERO PUSH2 0x2E05 JUMPI PUSH1 0x0 DUP1 REVERT JUMPDEST POP PUSH1 0x40 MLOAD SWAP1 DUP1 DUP3 MSTORE DUP1 PUSH1 0x1F ADD PUSH1 0x1F NOT AND PUSH1 0x20 ADD DUP3 ADD PUSH1 0x40 MSTORE DUP1 ISZERO PUSH2 0x2E30 JUMPI PUSH1 0x20 DUP3 ADD DUP2 DUP1 CALLDATASIZE DUP4 CALLDATACOPY ADD SWAP1 POP JUMPDEST POP PUSH1 0x40 MLOAD PUSH1 0x20 ADD PUSH2 0x2E42 SWAP3 SWAP2 SWAP1 PUSH2 0x518E JUMP JUMPDEST PUSH1 0x40 MLOAD PUSH1 0x20 DUP2 DUP4 SUB SUB DUP2 MSTORE SWAP1 PUSH1 0x40 MSTORE SWAP1 POP JUMPDEST PUSH1 0x60 PUSH2 0x2E5F DUP3 PUSH2 0x46CC JUMP JUMPDEST PUSH1 0x40 MLOAD PUSH4 0x10561D57 PUSH1 0xE3 SHL DUP2 MSTORE SWAP1 SWAP2 POP PUSH20 0x0 SWAP1 PUSH4 0x82B0EAB8 SWAP1 PUSH2 0x2E99 SWAP1 DUP5 SWAP1 PUSH1 0x4 ADD PUSH2 0x522F JUMP JUMPDEST PUSH1 0x20 PUSH1 0x40 MLOAD DUP1 DUP4 SUB DUP2 DUP7 DUP1 EXTCODESIZE ISZERO DUP1 ISZERO PUSH2 0x2EB1 JUMPI PUSH1 0x0 DUP1 REVERT JUMPDEST POP GAS DELEGATECALL ISZERO DUP1 ISZERO PUSH2 0x2EC5 JUMPI RETURNDATASIZE PUSH1 0x0 DUP1 RETURNDATACOPY RETURNDATASIZE PUSH1 0x0 REVERT JUMPDEST POP POP POP POP PUSH1 0x40 MLOAD RETURNDATASIZE PUSH1 0x1F NOT PUSH1 0x1F DUP3 ADD AND DUP3 ADD DUP1 PUSH1 0x40 MSTORE POP DUP2 ADD SWAP1 PUSH2 0x2EE9 SWAP2 SWAP1 PUSH2 0x4C6C JUMP JUMPDEST DUP8 PUSH1 0x13 ADD DUP6 DUP2 SLOAD DUP2 LT PUSH2 0x2EF8 JUMPI INVALID JUMPDEST SWAP1 PUSH1 0x0 MSTORE PUSH1 0x20 PUSH1 0x0 KECCAK256 ADD DUP2 SWAP1 SSTORE POP POP POP PUSH2 0x2F2B JUMP JUMPDEST PUSH1 0x12 DUP6 ADD DUP1 SLOAD PUSH1 0x1 DUP2 DUP2 ADD DUP4 SSTORE PUSH1 0x0 SWAP3 DUP4 MSTORE PUSH1 0x20 SWAP1 SWAP3 KECCAK256 ADD DUP4 SWAP1 SSTORE SWAP4 POP JUMPDEST PUSH2 0x3041 JUMP JUMPDEST DUP1 PUSH1 0xC0 ADD MLOAD PUSH2 0x3023 JUMPI DUP1 PUSH1 0x80 ADD MLOAD DUP6 PUSH1 0x13 ADD DUP4 DUP2 SLOAD DUP2 LT PUSH2 0x2F4D JUMPI INVALID JUMPDEST PUSH1 0x0 SWAP2 DUP3 MSTORE PUSH1 0x20 SWAP2 DUP3 SWAP1 KECCAK256 ADD SWAP2 SWAP1 SWAP2 SSTORE PUSH1 0x4 DUP1 SLOAD PUSH1 0x80 DUP5 ADD MLOAD SWAP3 DUP5 ADD MLOAD PUSH1 0x40 MLOAD PUSH4 0x2B6BAA37 PUSH1 0xE2 SHL DUP2 MSTORE PUSH1 0x1 PUSH1 0x1 PUSH1 0xA0 SHL SUB SWAP1 SWAP3 AND SWAP4 PUSH4 0xADAEA8DC SWAP4 PUSH2 0x2F96 SWAP4 SWAP2 SWAP3 SWAP2 ADD PUSH2 0x5345 JUMP JUMPDEST PUSH1 0x20 PUSH1 0x40 MLOAD DUP1 DUP4 SUB DUP2 DUP7 DUP1 EXTCODESIZE ISZERO DUP1 ISZERO PUSH2 0x2FAE JUMPI PUSH1 0x0 DUP1 REVERT JUMPDEST POP GAS STATICCALL ISZERO DUP1 ISZERO PUSH2 0x2FC2 JUMPI RETURNDATASIZE PUSH1 0x0 DUP1 RETURNDATACOPY RETURNDATASIZE PUSH1 0x0 REVERT JUMPDEST POP POP POP POP PUSH1 0x40 MLOAD RETURNDATASIZE PUSH1 0x1F NOT PUSH1 0x1F DUP3 ADD AND DUP3 ADD DUP1 PUSH1 0x40 MSTORE POP DUP2 ADD SWAP1 PUSH2 0x2FE6 SWAP2 SWAP1 PUSH2 0x4C49 JUMP JUMPDEST ISZERO DUP1 ISZERO PUSH2 0x2FFF JUMPI POP PUSH1 0xA0 DUP2 ADD MLOAD PUSH1 0x1 PUSH1 0x1 PUSH1 0xA0 SHL SUB AND ISZERO ISZERO JUMPDEST ISZERO PUSH2 0x2F2B JUMPI PUSH1 0x11 DUP6 ADD DUP1 SLOAD PUSH1 0x1 DUP2 ADD DUP3 SSTORE PUSH1 0x0 SWAP2 DUP3 MSTORE PUSH1 0x20 SWAP1 SWAP2 KECCAK256 ADD DUP3 SWAP1 SSTORE PUSH2 0x3041 JUMP JUMPDEST PUSH1 0x12 DUP6 ADD DUP1 SLOAD PUSH1 0x1 DUP2 DUP2 ADD DUP4 SSTORE PUSH1 0x0 SWAP3 DUP4 MSTORE PUSH1 0x20 SWAP1 SWAP3 KECCAK256 ADD DUP4 SWAP1 SSTORE SWAP4 POP JUMPDEST PUSH1 0x40 DUP1 MLOAD PUSH2 0x100 DUP2 ADD DUP3 MSTORE DUP3 MLOAD PUSH1 0x1 PUSH1 0x1 PUSH1 0x40 SHL SUB SWAP1 DUP2 AND DUP3 MSTORE PUSH1 0x20 DUP1 DUP6 ADD MLOAD PUSH1 0xFF SWAP1 DUP2 AND DUP3 DUP6 ADD SWAP1 DUP2 MSTORE DUP7 DUP7 ADD MLOAD SWAP6 DUP6 ADD SWAP6 DUP7 MSTORE PUSH1 0x60 DUP1 DUP9 ADD MLOAD SWAP1 DUP7 ADD MSTORE PUSH1 0x80 DUP1 DUP9 ADD MLOAD SWAP1 DUP7 ADD MSTORE PUSH1 0xA0 DUP1 DUP9 ADD MLOAD PUSH1 0x1 PUSH1 0x1 PUSH1 0xA0 SHL SUB AND SWAP1 DUP7 ADD MSTORE PUSH1 0xC0 DUP1 DUP9 ADD MLOAD ISZERO ISZERO SWAP1 DUP7 ADD MSTORE PUSH1 0xE0 DUP1 DUP9 ADD MLOAD ISZERO ISZERO SWAP1 DUP7 ADD MSTORE PUSH1 0x14 DUP12 ADD DUP1 SLOAD PUSH1 0x1 DUP1 DUP3 ADD DUP4 SSTORE PUSH1 0x0 SWAP3 DUP4 MSTORE SWAP2 DUP6 SWAP1 KECCAK256 DUP8 MLOAD PUSH1 0x5 SWAP1 SWAP3 MUL ADD DUP1 SLOAD SWAP4 MLOAD PUSH8 0xFFFFFFFFFFFFFFFF NOT SWAP1 SWAP5 AND SWAP2 SWAP1 SWAP7 AND OR PUSH1 0xFF PUSH1 0x40 SHL NOT AND PUSH1 0x1 PUSH1 0x40 SHL SWAP3 SWAP1 SWAP4 AND SWAP2 SWAP1 SWAP2 MUL SWAP2 SWAP1 SWAP2 OR DUP4 SSTORE SWAP4 MLOAD DUP1 MLOAD SWAP4 SWAP5 SWAP3 SWAP4 PUSH2 0x311C SWAP4 DUP6 ADD SWAP3 SWAP2 SWAP1 SWAP2 ADD SWAP1 PUSH2 0x47E3 JUMP JUMPDEST POP PUSH1 0x60 DUP3 ADD MLOAD DUP1 MLOAD PUSH2 0x3138 SWAP2 PUSH1 0x2 DUP5 ADD SWAP2 PUSH1 0x20 SWAP1 SWAP2 ADD SWAP1 PUSH2 0x47E3 JUMP JUMPDEST POP PUSH1 0x80 DUP3 ADD MLOAD PUSH1 0x3 DUP3 ADD SSTORE PUSH1 0xA0 DUP3 ADD MLOAD PUSH1 0x4 SWAP1 SWAP2 ADD DUP1 SLOAD PUSH1 0xC0 DUP5 ADD MLOAD PUSH1 0xE0 SWAP1 SWAP5 ADD MLOAD ISZERO ISZERO PUSH1 0x1 PUSH1 0xA8 SHL MUL PUSH1 0xFF PUSH1 0xA8 SHL NOT SWAP5 ISZERO ISZERO PUSH1 0x1 PUSH1 0xA0 SHL MUL PUSH1 0xFF PUSH1 0xA0 SHL NOT PUSH1 0x1 PUSH1 0x1 PUSH1 0xA0 SHL SUB SWAP1 SWAP6 AND PUSH1 0x1 PUSH1 0x1 PUSH1 0xA0 SHL SUB NOT SWAP1 SWAP4 AND SWAP3 SWAP1 SWAP3 OR SWAP4 SWAP1 SWAP4 AND OR SWAP3 SWAP1 SWAP3 AND OR SWAP1 SSTORE POP PUSH1 0x1 ADD PUSH2 0x2D34 JUMP JUMPDEST POP PUSH1 0x3 DUP9 PUSH1 0xFF AND LT ISZERO PUSH2 0x31CC JUMPI PUSH1 0x40 MLOAD PUSH3 0x461BCD PUSH1 0xE5 SHL DUP2 MSTORE PUSH1 0x4 ADD PUSH2 0x479 SWAP1 PUSH2 0x5528 JUMP JUMPDEST DUP3 SLOAD CALLER PUSH1 0x1 PUSH1 0x1 PUSH1 0xA0 SHL SUB NOT SWAP1 SWAP2 AND OR DUP4 SSTORE PUSH1 0xE DUP4 ADD DUP1 SLOAD PUSH1 0x1 PUSH1 0x80 SHL PUSH8 0xFFFFFFFFFFFFFFFF PUSH1 0x80 SHL NOT SWAP1 SWAP2 AND OR SWAP1 SSTORE PUSH1 0x3 DUP4 ADD DUP12 SWAP1 SSTORE PUSH1 0x8 DUP4 ADD DUP11 SWAP1 SSTORE PUSH1 0x9 DUP4 ADD DUP11 SWAP1 SSTORE PUSH1 0x4 DUP4 ADD DUP1 SLOAD PUSH8 0xFFFFFFFFFFFFFFFF NOT AND PUSH1 0x1 PUSH1 0x1 PUSH1 0x40 SHL SUB DUP12 AND OR PUSH1 0xFF PUSH1 0x40 SHL NOT AND PUSH1 0x1 PUSH1 0x40 SHL PUSH1 0xFF DUP12 AND MUL OR SWAP1 SSTORE PUSH1 0x5 DUP4 ADD DUP8 SWAP1 SSTORE TIMESTAMP PUSH1 0x6 DUP5 ADD SSTORE DUP2 ISZERO PUSH2 0x3270 JUMPI PUSH1 0x10 DUP4 ADD DUP1 SLOAD PUSH1 0x0 SWAP2 SWAP1 PUSH1 0xFF NOT AND PUSH1 0x1 DUP4 JUMPDEST MUL OR SWAP1 SSTORE POP PUSH2 0x32A0 JUMP JUMPDEST PUSH1 0x11 DUP4 ADD SLOAD ISZERO PUSH2 0x3290 JUMPI PUSH1 0x10 DUP4 ADD DUP1 SLOAD PUSH1 0x2 SWAP2 SWAP1 PUSH1 0xFF NOT AND PUSH1 0x1 DUP4 PUSH2 0x3266 JUMP JUMPDEST PUSH1 0x10 DUP4 ADD DUP1 SLOAD PUSH1 0xFF NOT AND PUSH1 0x4 OR SWAP1 SSTORE JUMPDEST PUSH32 0x74F4614E097FC158C85EA12787F9E678E96166B4F523416BDB792747C47F1BAC PUSH1 0x0 SLOAD PUSH1 0x40 MLOAD PUSH2 0x32D1 SWAP2 SWAP1 PUSH2 0x533C JUMP JUMPDEST PUSH1 0x40 MLOAD DUP1 SWAP2 SUB SWAP1 LOG1 POP POP PUSH1 0x0 DUP1 SLOAD DUP2 MSTORE PUSH1 0x1 PUSH1 0x20 DUP2 SWAP1 MSTORE PUSH1 0x40 DUP3 KECCAK256 DUP1 SLOAD PUSH1 0xFF NOT AND DUP3 OR SWAP1 SSTORE DUP2 SLOAD SWAP1 DUP2 ADD SWAP1 SWAP2 SSTORE SWAP2 POP POP JUMPDEST SWAP8 SWAP7 POP POP POP POP POP POP POP JUMP JUMPDEST DUP1 DUP1 PUSH1 0x0 SLOAD GT PUSH2 0x3352 JUMPI PUSH1 0x40 DUP1 MLOAD PUSH3 0x461BCD PUSH1 0xE5 SHL DUP2 MSTORE PUSH1 0x20 PUSH1 0x4 DUP3 ADD MSTORE PUSH1 0x16 PUSH1 0x24 DUP3 ADD MSTORE PUSH1 0x0 DUP1 MLOAD PUSH1 0x20 PUSH2 0x5E7C DUP4 CODECOPY DUP2 MLOAD SWAP2 MSTORE PUSH1 0x44 DUP3 ADD MSTORE SWAP1 MLOAD SWAP1 DUP2 SWAP1 SUB PUSH1 0x64 ADD SWAP1 REVERT JUMPDEST PUSH2 0x335B DUP2 PUSH2 0x1982 JUMP JUMPDEST PUSH2 0x339D JUMPI PUSH1 0x40 DUP1 MLOAD PUSH3 0x461BCD PUSH1 0xE5 SHL DUP2 MSTORE PUSH1 0x20 PUSH1 0x4 DUP3 ADD MSTORE PUSH1 0xE PUSH1 0x24 DUP3 ADD MSTORE PUSH14 0x496E64657820696E616374697665 PUSH1 0x90 SHL PUSH1 0x44 DUP3 ADD MSTORE SWAP1 MLOAD SWAP1 DUP2 SWAP1 SUB PUSH1 0x64 ADD SWAP1 REVERT JUMPDEST PUSH1 0x0 DUP3 DUP2 MSTORE PUSH1 0x6 PUSH1 0x20 MSTORE PUSH1 0x40 SWAP1 KECCAK256 SLOAD PUSH1 0x1 PUSH1 0x1 PUSH1 0xA0 SHL SUB AND CALLER DUP2 EQ PUSH2 0x3404 JUMPI PUSH1 0x40 DUP1 MLOAD PUSH3 0x461BCD PUSH1 0xE5 SHL DUP2 MSTORE PUSH1 0x20 PUSH1 0x4 DUP3 ADD MSTORE PUSH1 0x18 PUSH1 0x24 DUP3 ADD MSTORE PUSH24 0x21B0B73737BA1031329031B0B63632B210313C903AB9B2B9 PUSH1 0x41 SHL PUSH1 0x44 DUP3 ADD MSTORE SWAP1 MLOAD SWAP1 DUP2 SWAP1 SUB PUSH1 0x64 ADD SWAP1 REVERT JUMPDEST PUSH1 0x0 DUP4 DUP2 MSTORE PUSH1 0x6 PUSH1 0x20 MSTORE PUSH1 0x40 SWAP1 KECCAK256 PUSH1 0x1 PUSH1 0x10 DUP3 ADD SLOAD PUSH1 0xFF AND PUSH1 0xA DUP2 GT ISZERO PUSH2 0x3427 JUMPI INVALID JUMPDEST EQ DUP1 PUSH2 0x3445 JUMPI POP PUSH1 0x5 PUSH1 0x10 DUP3 ADD SLOAD PUSH1 0xFF AND PUSH1 0xA DUP2 GT ISZERO PUSH2 0x3443 JUMPI INVALID JUMPDEST EQ JUMPDEST DUP1 PUSH2 0x3462 JUMPI POP PUSH1 0xA PUSH1 0x10 DUP3 ADD SLOAD PUSH1 0xFF AND PUSH1 0xA DUP2 GT ISZERO PUSH2 0x3460 JUMPI INVALID JUMPDEST EQ JUMPDEST DUP1 PUSH2 0x347F JUMPI POP PUSH1 0x8 PUSH1 0x10 DUP3 ADD SLOAD PUSH1 0xFF AND PUSH1 0xA DUP2 GT ISZERO PUSH2 0x347D JUMPI INVALID JUMPDEST EQ JUMPDEST DUP1 PUSH2 0x349C JUMPI POP PUSH1 0x9 PUSH1 0x10 DUP3 ADD SLOAD PUSH1 0xFF AND PUSH1 0xA DUP2 GT ISZERO PUSH2 0x349A JUMPI INVALID JUMPDEST EQ JUMPDEST PUSH2 0x34B8 JUMPI PUSH1 0x40 MLOAD PUSH3 0x461BCD PUSH1 0xE5 SHL DUP2 MSTORE PUSH1 0x4 ADD PUSH2 0x479 SWAP1 PUSH2 0x580E JUMP JUMPDEST PUSH2 0x34C6 PUSH1 0x11 DUP3 ADD PUSH1 0x0 PUSH2 0x4916 JUMP JUMPDEST PUSH2 0x34D4 PUSH1 0x12 DUP3 ADD PUSH1 0x0 PUSH2 0x4916 JUMP JUMPDEST PUSH2 0x34E2 PUSH1 0x13 DUP3 ADD PUSH1 0x0 PUSH2 0x4916 JUMP JUMPDEST PUSH2 0x34F0 PUSH1 0x14 DUP3 ADD PUSH1 0x0 PUSH2 0x4937 JUMP JUMPDEST PUSH2 0x34F9 DUP5 PUSH2 0x47C0 JUMP JUMPDEST POP POP POP POP JUMP JUMPDEST DUP1 DUP1 PUSH1 0x0 SLOAD GT PUSH2 0x3544 JUMPI PUSH1 0x40 DUP1 MLOAD PUSH3 0x461BCD PUSH1 0xE5 SHL DUP2 MSTORE PUSH1 0x20 PUSH1 0x4 DUP3 ADD MSTORE PUSH1 0x16 PUSH1 0x24 DUP3 ADD MSTORE PUSH1 0x0 DUP1 MLOAD PUSH1 0x20 PUSH2 0x5E7C DUP4 CODECOPY DUP2 MLOAD SWAP2 MSTORE PUSH1 0x44 DUP3 ADD MSTORE SWAP1 MLOAD SWAP1 DUP2 SWAP1 SUB PUSH1 0x64 ADD SWAP1 REVERT JUMPDEST PUSH2 0x354D DUP2 PUSH2 0x1982 JUMP JUMPDEST PUSH2 0x358F JUMPI PUSH1 0x40 DUP1 MLOAD PUSH3 0x461BCD PUSH1 0xE5 SHL DUP2 MSTORE PUSH1 0x20 PUSH1 0x4 DUP3 ADD MSTORE PUSH1 0xE PUSH1 0x24 DUP3 ADD MSTORE PUSH14 0x496E64657820696E616374697665 PUSH1 0x90 SHL PUSH1 0x44 DUP3 ADD MSTORE SWAP1 MLOAD SWAP1 DUP2 SWAP1 SUB PUSH1 0x64 ADD SWAP1 REVERT JUMPDEST PUSH1 0x0 DUP3 DUP2 MSTORE PUSH1 0x2 PUSH1 0x20 SWAP1 DUP2 MSTORE PUSH1 0x40 DUP1 DUP4 KECCAK256 DUP1 SLOAD PUSH1 0x1 ADD SWAP1 SSTORE PUSH1 0x6 SWAP1 SWAP2 MSTORE SWAP1 KECCAK256 DUP3 SWAP1 PUSH1 0x7 PUSH1 0x10 DUP3 ADD SLOAD PUSH1 0xFF AND PUSH1 0xA DUP2 GT ISZERO PUSH2 0x35C5 JUMPI INVALID JUMPDEST EQ PUSH2 0x35E2 JUMPI PUSH1 0x40 MLOAD PUSH3 0x461BCD PUSH1 0xE5 SHL DUP2 MSTORE PUSH1 0x4 ADD PUSH2 0x479 SWAP1 PUSH2 0x5A34 JUMP JUMPDEST TIMESTAMP PUSH1 0x6 DUP3 ADD SSTORE PUSH1 0x7 DUP2 ADD SLOAD PUSH1 0x5 SLOAD PUSH1 0x40 MLOAD PUSH4 0xB6B5C319 PUSH1 0xE0 SHL DUP2 MSTORE PUSH1 0x1 PUSH1 0x1 PUSH1 0xA0 SHL SUB SWAP1 SWAP2 AND SWAP1 PUSH4 0xB6B5C319 SWAP1 PUSH2 0x361D SWAP1 DUP5 SWAP1 PUSH1 0x4 ADD PUSH2 0x533C JUMP JUMPDEST PUSH1 0x20 PUSH1 0x40 MLOAD DUP1 DUP4 SUB DUP2 DUP7 DUP1 EXTCODESIZE ISZERO DUP1 ISZERO PUSH2 0x3635 JUMPI PUSH1 0x0 DUP1 REVERT JUMPDEST POP GAS STATICCALL ISZERO DUP1 ISZERO PUSH2 0x3649 JUMPI RETURNDATASIZE PUSH1 0x0 DUP1 RETURNDATACOPY RETURNDATASIZE PUSH1 0x0 REVERT JUMPDEST POP POP POP POP PUSH1 0x40 MLOAD RETURNDATASIZE PUSH1 0x1F NOT PUSH1 0x1F DUP3 ADD AND DUP3 ADD DUP1 PUSH1 0x40 MSTORE POP DUP2 ADD SWAP1 PUSH2 0x366D SWAP2 SWAP1 PUSH2 0x4C49 JUMP JUMPDEST ISZERO PUSH2 0x3843 JUMPI PUSH1 0xE DUP3 ADD SLOAD PUSH1 0xC DUP4 ADD DUP1 SLOAD PUSH1 0x1 SWAP3 PUSH1 0xF DUP7 ADD SWAP3 PUSH1 0x0 SWAP3 SWAP1 SWAP2 PUSH1 0x1 PUSH1 0x1 PUSH1 0x40 SHL SUB AND SWAP1 DUP2 LT PUSH2 0x369C JUMPI INVALID JUMPDEST PUSH1 0x0 SWAP2 DUP3 MSTORE PUSH1 0x20 DUP1 DUP4 KECCAK256 SWAP1 SWAP2 ADD SLOAD PUSH1 0x1 PUSH1 0x1 PUSH1 0xA0 SHL SUB AND DUP4 MSTORE DUP3 ADD SWAP3 SWAP1 SWAP3 MSTORE PUSH1 0x40 ADD DUP2 KECCAK256 DUP1 SLOAD SWAP3 ISZERO ISZERO PUSH3 0x10000 MUL PUSH3 0xFF0000 NOT SWAP1 SWAP4 AND SWAP3 SWAP1 SWAP3 OR SWAP1 SWAP2 SSTORE JUMPDEST PUSH1 0xD DUP4 ADD SLOAD DUP2 LT ISZERO PUSH2 0x373F JUMPI PUSH1 0x0 DUP4 PUSH1 0xF ADD PUSH1 0x0 DUP6 PUSH1 0xD ADD DUP5 DUP2 SLOAD DUP2 LT PUSH2 0x36FD JUMPI INVALID JUMPDEST PUSH1 0x0 SWAP2 DUP3 MSTORE PUSH1 0x20 DUP1 DUP4 KECCAK256 SWAP1 SWAP2 ADD SLOAD PUSH1 0x1 PUSH1 0x1 PUSH1 0xA0 SHL SUB AND DUP4 MSTORE DUP3 ADD SWAP3 SWAP1 SWAP3 MSTORE PUSH1 0x40 ADD SWAP1 KECCAK256 DUP1 SLOAD SWAP2 ISZERO ISZERO PUSH2 0x100 MUL PUSH2 0xFF00 NOT SWAP1 SWAP3 AND SWAP2 SWAP1 SWAP2 OR SWAP1 SSTORE PUSH1 0x1 ADD PUSH2 0x36DA JUMP JUMPDEST POP PUSH1 0xD DUP3 ADD DUP1 SLOAD PUSH1 0xE DUP5 ADD DUP1 SLOAD PUSH1 0x1 PUSH1 0x1 PUSH1 0x40 SHL SUB PUSH1 0x1 PUSH1 0x80 SHL DUP1 DUP4 DIV DUP3 AND SWAP5 SWAP1 SWAP5 SUB AND SWAP1 SWAP3 MUL PUSH8 0xFFFFFFFFFFFFFFFF PUSH1 0x80 SHL NOT SWAP1 SWAP3 AND SWAP2 SWAP1 SWAP2 OR SWAP1 SSTORE PUSH2 0x3787 SWAP1 PUSH1 0x0 PUSH2 0x4916 JUMP JUMPDEST PUSH1 0xC DUP3 ADD SLOAD PUSH1 0xE DUP4 ADD SLOAD PUSH1 0x1 PUSH1 0x80 SHL SWAP1 DIV PUSH1 0x1 PUSH1 0x1 PUSH1 0x40 SHL SUB AND EQ ISZERO PUSH2 0x37F4 JUMPI PUSH1 0x10 DUP3 ADD DUP1 SLOAD PUSH1 0x8 SWAP2 SWAP1 PUSH1 0xFF NOT AND PUSH1 0x1 DUP4 JUMPDEST MUL OR SWAP1 SSTORE POP PUSH1 0x0 DUP1 MLOAD PUSH1 0x20 PUSH2 0x5E5C DUP4 CODECOPY DUP2 MLOAD SWAP2 MSTORE DUP6 PUSH2 0x37D7 DUP8 PUSH2 0xD0B JUMP JUMPDEST PUSH1 0x40 MLOAD PUSH2 0x37E5 SWAP3 SWAP2 SWAP1 PUSH2 0x5CA2 JUMP JUMPDEST PUSH1 0x40 MLOAD DUP1 SWAP2 SUB SWAP1 LOG1 POP POP PUSH2 0x39B7 JUMP JUMPDEST PUSH1 0x10 DUP3 ADD DUP1 SLOAD PUSH1 0x4 SWAP2 SWAP1 PUSH1 0xFF NOT AND PUSH1 0x1 DUP4 MUL OR SWAP1 SSTORE POP POP PUSH1 0xE ADD DUP1 SLOAD PUSH1 0x1 PUSH1 0x40 SHL DUP2 DIV PUSH1 0x1 PUSH1 0x1 PUSH1 0x40 SHL SUB AND PUSH8 0xFFFFFFFFFFFFFFFF NOT SWAP1 SWAP2 AND OR PUSH8 0xFFFFFFFFFFFFFFFF PUSH1 0x40 SHL NOT AND SWAP1 SSTORE PUSH2 0x39B7 JUMP JUMPDEST PUSH1 0x5 SLOAD PUSH1 0x40 MLOAD PUSH4 0x3664F8BF PUSH1 0xE1 SHL DUP2 MSTORE PUSH1 0x1 PUSH1 0x1 PUSH1 0xA0 SHL SUB SWAP1 SWAP2 AND SWAP1 PUSH4 0x6CC9F17E SWAP1 PUSH2 0x3873 SWAP1 DUP5 SWAP1 PUSH1 0x4 ADD PUSH2 0x533C JUMP JUMPDEST PUSH1 0x20 PUSH1 0x40 MLOAD DUP1 DUP4 SUB DUP2 DUP7 DUP1 EXTCODESIZE ISZERO DUP1 ISZERO PUSH2 0x388B JUMPI PUSH1 0x0 DUP1 REVERT JUMPDEST POP GAS STATICCALL ISZERO DUP1 ISZERO PUSH2 0x389F JUMPI RETURNDATASIZE PUSH1 0x0 DUP1 RETURNDATACOPY RETURNDATASIZE PUSH1 0x0 REVERT JUMPDEST POP POP POP POP PUSH1 0x40 MLOAD RETURNDATASIZE PUSH1 0x1F NOT PUSH1 0x1F DUP3 ADD AND DUP3 ADD DUP1 PUSH1 0x40 MSTORE POP DUP2 ADD SWAP1 PUSH2 0x38C3 SWAP2 SWAP1 PUSH2 0x4C49 JUMP JUMPDEST ISZERO PUSH2 0x399C JUMPI PUSH1 0x1 DUP3 PUSH1 0xF ADD PUSH1 0x0 DUP5 PUSH1 0xC ADD DUP6 PUSH1 0xE ADD PUSH1 0x8 SWAP1 SLOAD SWAP1 PUSH2 0x100 EXP SWAP1 DIV PUSH1 0x1 PUSH1 0x1 PUSH1 0x40 SHL SUB AND PUSH1 0x1 PUSH1 0x1 PUSH1 0x40 SHL SUB AND DUP2 SLOAD DUP2 LT PUSH2 0x38FF JUMPI INVALID JUMPDEST PUSH1 0x0 SWAP2 DUP3 MSTORE PUSH1 0x20 DUP1 DUP4 KECCAK256 SWAP1 SWAP2 ADD SLOAD PUSH1 0x1 PUSH1 0x1 PUSH1 0xA0 SHL SUB AND DUP4 MSTORE DUP3 ADD SWAP3 SWAP1 SWAP3 MSTORE PUSH1 0x40 ADD SWAP1 KECCAK256 DUP1 SLOAD SWAP2 ISZERO ISZERO PUSH3 0x10000 MUL PUSH3 0xFF0000 NOT SWAP1 SWAP3 AND SWAP2 SWAP1 SWAP2 OR SWAP1 SSTORE PUSH1 0xC DUP3 ADD SLOAD PUSH1 0xE DUP4 ADD SLOAD PUSH1 0x1 PUSH1 0x1 PUSH1 0x40 SHL SUB PUSH1 0x1 PUSH1 0x80 SHL SWAP1 SWAP2 DIV AND EQ ISZERO PUSH2 0x3972 JUMPI PUSH1 0x10 DUP3 ADD DUP1 SLOAD PUSH1 0x9 SWAP2 SWAP1 PUSH1 0xFF NOT AND PUSH1 0x1 DUP4 PUSH2 0x37B9 JUMP JUMPDEST POP PUSH1 0x10 DUP2 ADD DUP1 SLOAD PUSH1 0xFF NOT AND PUSH1 0x6 OR SWAP1 SSTORE PUSH1 0xE ADD DUP1 SLOAD PUSH8 0xFFFFFFFFFFFFFFFF PUSH1 0x40 SHL NOT AND SWAP1 SSTORE PUSH2 0x39B7 JUMP JUMPDEST PUSH1 0x40 MLOAD PUSH3 0x461BCD PUSH1 0xE5 SHL DUP2 MSTORE PUSH1 0x4 ADD PUSH2 0x479 SWAP1 PUSH2 0x5BDA JUMP JUMPDEST POP POP JUMPDEST POP POP POP JUMP JUMPDEST DUP1 DUP1 PUSH1 0x0 SLOAD GT PUSH2 0x3A01 JUMPI PUSH1 0x40 DUP1 MLOAD PUSH3 0x461BCD PUSH1 0xE5 SHL DUP2 MSTORE PUSH1 0x20 PUSH1 0x4 DUP3 ADD MSTORE PUSH1 0x16 PUSH1 0x24 DUP3 ADD MSTORE PUSH1 0x0 DUP1 MLOAD PUSH1 0x20 PUSH2 0x5E7C DUP4 CODECOPY DUP2 MLOAD SWAP2 MSTORE PUSH1 0x44 DUP3 ADD MSTORE SWAP1 MLOAD SWAP1 DUP2 SWAP1 SUB PUSH1 0x64 ADD SWAP1 REVERT JUMPDEST PUSH2 0x3A0A DUP2 PUSH2 0x1982 JUMP JUMPDEST PUSH2 0x3A4C JUMPI PUSH1 0x40 DUP1 MLOAD PUSH3 0x461BCD PUSH1 0xE5 SHL DUP2 MSTORE PUSH1 0x20 PUSH1 0x4 DUP3 ADD MSTORE PUSH1 0xE PUSH1 0x24 DUP3 ADD MSTORE PUSH14 0x496E64657820696E616374697665 PUSH1 0x90 SHL PUSH1 0x44 DUP3 ADD MSTORE SWAP1 MLOAD SWAP1 DUP2 SWAP1 SUB PUSH1 0x64 ADD SWAP1 REVERT JUMPDEST PUSH1 0x0 DUP3 DUP2 MSTORE PUSH1 0x6 PUSH1 0x20 MSTORE PUSH1 0x40 SWAP1 KECCAK256 PUSH1 0x3 PUSH1 0x10 DUP3 ADD SLOAD PUSH1 0xFF AND PUSH1 0xA DUP2 GT ISZERO PUSH2 0x3A6F JUMPI INVALID JUMPDEST EQ PUSH2 0x3A8C JUMPI PUSH1 0x40 MLOAD PUSH3 0x461BCD PUSH1 0xE5 SHL DUP2 MSTORE PUSH1 0x4 ADD PUSH2 0x479 SWAP1 PUSH2 0x5C0C JUMP JUMPDEST PUSH1 0x0 DUP2 PUSH1 0x11 ADD DUP3 PUSH1 0x1 ADD SLOAD DUP2 SLOAD DUP2 LT PUSH2 0x3AA1 JUMPI INVALID JUMPDEST SWAP1 PUSH1 0x0 MSTORE PUSH1 0x20 PUSH1 0x0 KECCAK256 ADD SLOAD SWAP1 POP DUP2 PUSH1 0x14 ADD DUP1 SLOAD SWAP1 POP DUP2 LT PUSH2 0x3AD4 JUMPI PUSH1 0x40 MLOAD PUSH3 0x461BCD PUSH1 0xE5 SHL DUP2 MSTORE PUSH1 0x4 ADD PUSH2 0x479 SWAP1 PUSH2 0x54FC JUMP JUMPDEST PUSH2 0x3ADC PUSH2 0x4896 JUMP JUMPDEST DUP3 PUSH1 0x14 ADD DUP3 DUP2 SLOAD DUP2 LT PUSH2 0x3AEB JUMPI INVALID JUMPDEST PUSH1 0x0 SWAP2 DUP3 MSTORE PUSH1 0x20 SWAP2 DUP3 SWAP1 KECCAK256 PUSH1 0x40 DUP1 MLOAD PUSH2 0x100 DUP1 DUP3 ADD DUP4 MSTORE PUSH1 0x5 SWAP5 SWAP1 SWAP5 MUL SWAP1 SWAP3 ADD DUP1 SLOAD PUSH1 0x1 PUSH1 0x1 PUSH1 0x40 SHL SUB DUP2 AND DUP5 MSTORE PUSH1 0x1 PUSH1 0x40 SHL SWAP1 DIV PUSH1 0xFF AND DUP4 DUP7 ADD MSTORE PUSH1 0x1 DUP1 DUP3 ADD DUP1 SLOAD DUP5 MLOAD PUSH1 0x2 SWAP4 DUP3 AND ISZERO SWAP1 SWAP8 MUL PUSH1 0x0 NOT ADD AND SWAP2 SWAP1 SWAP2 DIV PUSH1 0x1F DUP2 ADD DUP8 SWAP1 DIV DUP8 MUL DUP7 ADD DUP8 ADD DUP5 MSTORE DUP1 DUP7 MSTORE SWAP4 SWAP6 SWAP2 SWAP5 SWAP3 DUP7 ADD SWAP4 SWAP1 SWAP2 DUP4 ADD DUP3 DUP3 DUP1 ISZERO PUSH2 0x3BAF JUMPI DUP1 PUSH1 0x1F LT PUSH2 0x3B84 JUMPI PUSH2 0x100 DUP1 DUP4 SLOAD DIV MUL DUP4 MSTORE SWAP2 PUSH1 0x20 ADD SWAP2 PUSH2 0x3BAF JUMP JUMPDEST DUP3 ADD SWAP2 SWAP1 PUSH1 0x0 MSTORE PUSH1 0x20 PUSH1 0x0 KECCAK256 SWAP1 JUMPDEST DUP2 SLOAD DUP2 MSTORE SWAP1 PUSH1 0x1 ADD SWAP1 PUSH1 0x20 ADD DUP1 DUP4 GT PUSH2 0x3B92 JUMPI DUP3 SWAP1 SUB PUSH1 0x1F AND DUP3 ADD SWAP2 JUMPDEST POP POP POP SWAP2 DUP4 MSTORE POP POP PUSH1 0x2 DUP3 DUP2 ADD DUP1 SLOAD PUSH1 0x40 DUP1 MLOAD PUSH1 0x20 PUSH1 0x1 DUP5 AND ISZERO PUSH2 0x100 MUL PUSH1 0x0 NOT ADD SWAP1 SWAP4 AND SWAP5 SWAP1 SWAP5 DIV PUSH1 0x1F DUP2 ADD DUP4 SWAP1 DIV DUP4 MUL DUP6 ADD DUP4 ADD SWAP1 SWAP2 MSTORE DUP1 DUP5 MSTORE SWAP4 DUP2 ADD SWAP4 SWAP1 DUP4 ADD DUP3 DUP3 DUP1 ISZERO PUSH2 0x3C41 JUMPI DUP1 PUSH1 0x1F LT PUSH2 0x3C16 JUMPI PUSH2 0x100 DUP1 DUP4 SLOAD DIV MUL DUP4 MSTORE SWAP2 PUSH1 0x20 ADD SWAP2 PUSH2 0x3C41 JUMP JUMPDEST DUP3 ADD SWAP2 SWAP1 PUSH1 0x0 MSTORE PUSH1 0x20 PUSH1 0x0 KECCAK256 SWAP1 JUMPDEST DUP2 SLOAD DUP2 MSTORE SWAP1 PUSH1 0x1 ADD SWAP1 PUSH1 0x20 ADD DUP1 DUP4 GT PUSH2 0x3C24 JUMPI DUP3 SWAP1 SUB PUSH1 0x1F AND DUP3 ADD SWAP2 JUMPDEST POP POP POP SWAP2 DUP4 MSTORE POP POP PUSH1 0x3 DUP3 ADD SLOAD PUSH1 0x20 DUP3 ADD MSTORE PUSH1 0x4 SWAP1 SWAP2 ADD SLOAD PUSH1 0x1 PUSH1 0x1 PUSH1 0xA0 SHL SUB DUP2 AND PUSH1 0x40 DUP4 ADD MSTORE PUSH1 0xFF PUSH1 0x1 PUSH1 0xA0 SHL DUP3 DIV DUP2 AND ISZERO ISZERO PUSH1 0x60 DUP5 ADD MSTORE PUSH1 0x1 PUSH1 0xA8 SHL SWAP1 SWAP2 DIV AND ISZERO ISZERO PUSH1 0x80 SWAP1 SWAP2 ADD MSTORE PUSH1 0xE0 DUP2 ADD MLOAD SWAP1 SWAP2 POP PUSH2 0x3CAF JUMPI PUSH1 0x40 MLOAD PUSH3 0x461BCD PUSH1 0xE5 SHL DUP2 MSTORE PUSH1 0x4 ADD PUSH2 0x479 SWAP1 PUSH2 0x59B1 JUMP JUMPDEST PUSH1 0x4 DUP1 SLOAD PUSH1 0x80 DUP4 ADD MLOAD PUSH1 0x20 DUP5 ADD MLOAD PUSH1 0x40 MLOAD PUSH4 0x2B6BAA37 PUSH1 0xE2 SHL DUP2 MSTORE PUSH1 0x1 PUSH1 0x1 PUSH1 0xA0 SHL SUB SWAP1 SWAP4 AND SWAP4 PUSH4 0xADAEA8DC SWAP4 PUSH2 0x3CE8 SWAP4 SWAP3 SWAP2 ADD PUSH2 0x5345 JUMP JUMPDEST PUSH1 0x20 PUSH1 0x40 MLOAD DUP1 DUP4 SUB DUP2 DUP7 DUP1 EXTCODESIZE ISZERO DUP1 ISZERO PUSH2 0x3D00 JUMPI PUSH1 0x0 DUP1 REVERT JUMPDEST POP GAS STATICCALL ISZERO DUP1 ISZERO PUSH2 0x3D14 JUMPI RETURNDATASIZE PUSH1 0x0 DUP1 RETURNDATACOPY RETURNDATASIZE PUSH1 0x0 REVERT JUMPDEST POP POP POP POP PUSH1 0x40 MLOAD RETURNDATASIZE PUSH1 0x1F NOT PUSH1 0x1F DUP3 ADD AND DUP3 ADD DUP1 PUSH1 0x40 MSTORE POP DUP2 ADD SWAP1 PUSH2 0x3D38 SWAP2 SWAP1 PUSH2 0x4C49 JUMP JUMPDEST PUSH2 0x3D54 JUMPI PUSH1 0x40 MLOAD PUSH3 0x461BCD PUSH1 0xE5 SHL DUP2 MSTORE PUSH1 0x4 ADD PUSH2 0x479 SWAP1 PUSH2 0x56BC JUMP JUMPDEST PUSH1 0x1 DUP1 DUP5 ADD DUP1 SLOAD SWAP1 SWAP2 ADD SWAP1 DUP2 SWAP1 SSTORE TIMESTAMP PUSH1 0x6 DUP6 ADD SSTORE PUSH1 0x11 DUP5 ADD SLOAD EQ ISZERO PUSH2 0x39B4 JUMPI POP POP PUSH1 0x10 ADD DUP1 SLOAD PUSH1 0xFF NOT AND PUSH1 0x4 OR SWAP1 SSTORE POP POP JUMP JUMPDEST DUP2 DUP1 PUSH1 0x0 SLOAD GT PUSH2 0x3DCC JUMPI PUSH1 0x40 DUP1 MLOAD PUSH3 0x461BCD PUSH1 0xE5 SHL DUP2 MSTORE PUSH1 0x20 PUSH1 0x4 DUP3 ADD MSTORE PUSH1 0x16 PUSH1 0x24 DUP3 ADD MSTORE PUSH1 0x0 DUP1 MLOAD PUSH1 0x20 PUSH2 0x5E7C DUP4 CODECOPY DUP2 MLOAD SWAP2 MSTORE PUSH1 0x44 DUP3 ADD MSTORE SWAP1 MLOAD SWAP1 DUP2 SWAP1 SUB PUSH1 0x64 ADD SWAP1 REVERT JUMPDEST PUSH2 0x3DD5 DUP2 PUSH2 0x1982 JUMP JUMPDEST PUSH2 0x3E17 JUMPI PUSH1 0x40 DUP1 MLOAD PUSH3 0x461BCD PUSH1 0xE5 SHL DUP2 MSTORE PUSH1 0x20 PUSH1 0x4 DUP3 ADD MSTORE PUSH1 0xE PUSH1 0x24 DUP3 ADD MSTORE PUSH14 0x496E64657820696E616374697665 PUSH1 0x90 SHL PUSH1 0x44 DUP3 ADD MSTORE SWAP1 MLOAD SWAP1 DUP2 SWAP1 SUB PUSH1 0x64 ADD SWAP1 REVERT JUMPDEST PUSH1 0x0 DUP4 DUP2 MSTORE PUSH1 0x6 PUSH1 0x20 MSTORE PUSH1 0x40 DUP2 KECCAK256 DUP5 SWAP2 PUSH1 0x10 DUP3 ADD SLOAD PUSH1 0xFF AND PUSH1 0xA DUP2 GT ISZERO PUSH2 0x3E3A JUMPI INVALID JUMPDEST EQ PUSH2 0x3E57 JUMPI PUSH1 0x40 MLOAD PUSH3 0x461BCD PUSH1 0xE5 SHL DUP2 MSTORE PUSH1 0x4 ADD PUSH2 0x479 SWAP1 PUSH2 0x58BA JUMP JUMPDEST PUSH1 0x12 DUP2 ADD SLOAD PUSH1 0x2 DUP3 ADD SLOAD LT PUSH2 0x3E7E JUMPI PUSH1 0x40 MLOAD PUSH3 0x461BCD PUSH1 0xE5 SHL DUP2 MSTORE PUSH1 0x4 ADD PUSH2 0x479 SWAP1 PUSH2 0x58FB JUMP JUMPDEST PUSH1 0x0 DUP2 PUSH1 0x12 ADD DUP3 PUSH1 0x2 ADD SLOAD DUP2 SLOAD DUP2 LT PUSH2 0x3E93 JUMPI INVALID JUMPDEST SWAP1 PUSH1 0x0 MSTORE PUSH1 0x20 PUSH1 0x0 KECCAK256 ADD SLOAD SWAP1 POP DUP2 PUSH1 0x14 ADD DUP1 SLOAD SWAP1 POP DUP2 LT PUSH2 0x3EC6 JUMPI PUSH1 0x40 MLOAD PUSH3 0x461BCD PUSH1 0xE5 SHL DUP2 MSTORE PUSH1 0x4 ADD PUSH2 0x479 SWAP1 PUSH2 0x57E1 JUMP JUMPDEST PUSH2 0x3ECE PUSH2 0x4896 JUMP JUMPDEST DUP3 PUSH1 0x14 ADD DUP3 DUP2 SLOAD DUP2 LT PUSH2 0x3EDD JUMPI INVALID JUMPDEST PUSH1 0x0 SWAP2 DUP3 MSTORE PUSH1 0x20 SWAP2 DUP3 SWAP1 KECCAK256 PUSH1 0x40 DUP1 MLOAD PUSH2 0x100 DUP1 DUP3 ADD DUP4 MSTORE PUSH1 0x5 SWAP5 SWAP1 SWAP5 MUL SWAP1 SWAP3 ADD DUP1 SLOAD PUSH1 0x1 PUSH1 0x1 PUSH1 0x40 SHL SUB DUP2 AND DUP5 MSTORE PUSH1 0x1 PUSH1 0x40 SHL SWAP1 DIV PUSH1 0xFF AND DUP4 DUP7 ADD MSTORE PUSH1 0x1 DUP1 DUP3 ADD DUP1 SLOAD DUP5 MLOAD PUSH1 0x2 SWAP4 DUP3 AND ISZERO SWAP1 SWAP8 MUL PUSH1 0x0 NOT ADD AND SWAP2 SWAP1 SWAP2 DIV PUSH1 0x1F DUP2 ADD DUP8 SWAP1 DIV DUP8 MUL DUP7 ADD DUP8 ADD DUP5 MSTORE DUP1 DUP7 MSTORE SWAP4 SWAP6 SWAP2 SWAP5 SWAP3 DUP7 ADD SWAP4 SWAP1 SWAP2 DUP4 ADD DUP3 DUP3 DUP1 ISZERO PUSH2 0x3FA1 JUMPI DUP1 PUSH1 0x1F LT PUSH2 0x3F76 JUMPI PUSH2 0x100 DUP1 DUP4 SLOAD DIV MUL DUP4 MSTORE SWAP2 PUSH1 0x20 ADD SWAP2 PUSH2 0x3FA1 JUMP JUMPDEST DUP3 ADD SWAP2 SWAP1 PUSH1 0x0 MSTORE PUSH1 0x20 PUSH1 0x0 KECCAK256 SWAP1 JUMPDEST DUP2 SLOAD DUP2 MSTORE SWAP1 PUSH1 0x1 ADD SWAP1 PUSH1 0x20 ADD DUP1 DUP4 GT PUSH2 0x3F84 JUMPI DUP3 SWAP1 SUB PUSH1 0x1F AND DUP3 ADD SWAP2 JUMPDEST POP POP POP SWAP2 DUP4 MSTORE POP POP PUSH1 0x2 DUP3 DUP2 ADD DUP1 SLOAD PUSH1 0x40 DUP1 MLOAD PUSH1 0x20 PUSH1 0x1 DUP5 AND ISZERO PUSH2 0x100 MUL PUSH1 0x0 NOT ADD SWAP1 SWAP4 AND SWAP5 SWAP1 SWAP5 DIV PUSH1 0x1F DUP2 ADD DUP4 SWAP1 DIV DUP4 MUL DUP6 ADD DUP4 ADD SWAP1 SWAP2 MSTORE DUP1 DUP5 MSTORE SWAP4 DUP2 ADD SWAP4 SWAP1 DUP4 ADD DUP3 DUP3 DUP1 ISZERO PUSH2 0x4033 JUMPI DUP1 PUSH1 0x1F LT PUSH2 0x4008 JUMPI PUSH2 0x100 DUP1 DUP4 SLOAD DIV MUL DUP4 MSTORE SWAP2 PUSH1 0x20 ADD SWAP2 PUSH2 0x4033 JUMP JUMPDEST DUP3 ADD SWAP2 SWAP1 PUSH1 0x0 MSTORE PUSH1 0x20 PUSH1 0x0 KECCAK256 SWAP1 JUMPDEST DUP2 SLOAD DUP2 MSTORE SWAP1 PUSH1 0x1 ADD SWAP1 PUSH1 0x20 ADD DUP1 DUP4 GT PUSH2 0x4016 JUMPI DUP3 SWAP1 SUB PUSH1 0x1F AND DUP3 ADD SWAP2 JUMPDEST POP POP POP SWAP2 DUP4 MSTORE POP POP PUSH1 0x3 DUP3 ADD SLOAD PUSH1 0x20 DUP3 ADD MSTORE PUSH1 0x4 SWAP1 SWAP2 ADD SLOAD PUSH1 0x1 PUSH1 0x1 PUSH1 0xA0 SHL SUB DUP2 AND PUSH1 0x40 DUP4 ADD MSTORE PUSH1 0xFF PUSH1 0x1 PUSH1 0xA0 SHL DUP3 DIV DUP2 AND ISZERO ISZERO PUSH1 0x60 DUP5 ADD MSTORE PUSH1 0x1 PUSH1 0xA8 SHL SWAP1 SWAP2 DIV AND ISZERO ISZERO PUSH1 0x80 SWAP1 SWAP2 ADD MSTORE PUSH1 0x13 DUP5 ADD DUP1 SLOAD SWAP2 SWAP3 POP PUSH1 0x0 SWAP2 DUP5 SWAP1 DUP2 LT PUSH2 0x4093 JUMPI INVALID JUMPDEST SWAP1 PUSH1 0x0 MSTORE PUSH1 0x20 PUSH1 0x0 KECCAK256 ADD SLOAD EQ PUSH2 0x40BB JUMPI PUSH1 0x40 MLOAD PUSH3 0x461BCD PUSH1 0xE5 SHL DUP2 MSTORE PUSH1 0x4 ADD PUSH2 0x479 SWAP1 PUSH2 0x5ACE JUMP JUMPDEST DUP1 PUSH1 0xC0 ADD MLOAD PUSH2 0x40DC JUMPI PUSH1 0x40 MLOAD PUSH3 0x461BCD PUSH1 0xE5 SHL DUP2 MSTORE PUSH1 0x4 ADD PUSH2 0x479 SWAP1 PUSH2 0x5BA3 JUMP JUMPDEST PUSH1 0xA0 DUP2 ADD MLOAD PUSH1 0x1 PUSH1 0x1 PUSH1 0xA0 SHL SUB AND CALLER EQ PUSH2 0x4108 JUMPI PUSH1 0x40 MLOAD PUSH3 0x461BCD PUSH1 0xE5 SHL DUP2 MSTORE PUSH1 0x4 ADD PUSH2 0x479 SWAP1 PUSH2 0x5932 JUMP JUMPDEST PUSH1 0x0 DUP8 DUP2 MSTORE PUSH1 0x6 PUSH1 0x20 MSTORE PUSH1 0x40 DUP2 KECCAK256 PUSH1 0x2 DUP2 ADD SLOAD PUSH1 0x12 DUP3 ADD DUP1 SLOAD SWAP3 SWAP4 SWAP3 SWAP1 SWAP2 SWAP1 DUP2 LT PUSH2 0x412F JUMPI INVALID JUMPDEST SWAP1 PUSH1 0x0 MSTORE PUSH1 0x20 PUSH1 0x0 KECCAK256 ADD SLOAD SWAP1 POP PUSH1 0x0 DUP3 PUSH1 0x14 ADD DUP3 DUP2 SLOAD DUP2 LT PUSH2 0x414D JUMPI INVALID JUMPDEST SWAP1 PUSH1 0x0 MSTORE PUSH1 0x20 PUSH1 0x0 KECCAK256 SWAP1 PUSH1 0x5 MUL ADD SWAP1 POP DUP1 PUSH1 0x4 ADD PUSH1 0x15 SWAP1 SLOAD SWAP1 PUSH2 0x100 EXP SWAP1 DIV PUSH1 0xFF AND ISZERO PUSH2 0x418C JUMPI PUSH1 0x40 MLOAD PUSH3 0x461BCD PUSH1 0xE5 SHL DUP2 MSTORE PUSH1 0x4 ADD PUSH2 0x479 SWAP1 PUSH2 0x53EA JUMP JUMPDEST DUP1 SLOAD DUP10 MLOAD PUSH1 0x1 PUSH1 0x40 SHL SWAP1 SWAP2 DIV PUSH1 0xFF AND PUSH1 0x2 EXP LT ISZERO PUSH2 0x41BC JUMPI PUSH1 0x40 MLOAD PUSH3 0x461BCD PUSH1 0xE5 SHL DUP2 MSTORE PUSH1 0x4 ADD PUSH2 0x479 SWAP1 PUSH2 0x574B JUMP JUMPDEST DUP1 SLOAD DUP10 MLOAD DUP11 SWAP2 PUSH1 0x1 PUSH1 0x40 SHL SWAP1 DIV PUSH1 0xFF AND PUSH1 0x2 EXP GT ISZERO PUSH2 0x424E JUMPI DUP10 MLOAD DUP3 SLOAD DUP12 SWAP2 PUSH1 0x1 PUSH1 0x40 SHL SWAP1 SWAP2 DIV PUSH1 0xFF AND PUSH1 0x2 EXP SUB PUSH1 0x1 PUSH1 0x1 PUSH1 0x40 SHL SUB DUP2 GT DUP1 ISZERO PUSH2 0x41FF JUMPI PUSH1 0x0 DUP1 REVERT JUMPDEST POP PUSH1 0x40 MLOAD SWAP1 DUP1 DUP3 MSTORE DUP1 PUSH1 0x1F ADD PUSH1 0x1F NOT AND PUSH1 0x20 ADD DUP3 ADD PUSH1 0x40 MSTORE DUP1 ISZERO PUSH2 0x422A JUMPI PUSH1 0x20 DUP3 ADD DUP2 DUP1 CALLDATASIZE DUP4 CALLDATACOPY ADD SWAP1 POP JUMPDEST POP PUSH1 0x40 MLOAD PUSH1 0x20 ADD PUSH2 0x423C SWAP3 SWAP2 SWAP1 PUSH2 0x518E JUMP JUMPDEST PUSH1 0x40 MLOAD PUSH1 0x20 DUP2 DUP4 SUB SUB DUP2 MSTORE SWAP1 PUSH1 0x40 MSTORE SWAP1 POP JUMPDEST PUSH1 0x60 PUSH2 0x4259 DUP3 PUSH2 0x46CC JUMP JUMPDEST SWAP1 POP PUSH1 0x0 PUSH20 0x0 PUSH4 0x82B0EAB8 DUP4 PUSH1 0x40 MLOAD DUP3 PUSH4 0xFFFFFFFF AND PUSH1 0xE0 SHL DUP2 MSTORE PUSH1 0x4 ADD PUSH2 0x4294 SWAP2 SWAP1 PUSH2 0x522F JUMP JUMPDEST PUSH1 0x20 PUSH1 0x40 MLOAD DUP1 DUP4 SUB DUP2 DUP7 DUP1 EXTCODESIZE ISZERO DUP1 ISZERO PUSH2 0x42AC JUMPI PUSH1 0x0 DUP1 REVERT JUMPDEST POP GAS DELEGATECALL ISZERO DUP1 ISZERO PUSH2 0x42C0 JUMPI RETURNDATASIZE PUSH1 0x0 DUP1 RETURNDATACOPY RETURNDATASIZE PUSH1 0x0 REVERT JUMPDEST POP POP POP POP PUSH1 0x40 MLOAD RETURNDATASIZE PUSH1 0x1F NOT PUSH1 0x1F DUP3 ADD AND DUP3 ADD DUP1 PUSH1 0x40 MSTORE POP DUP2 ADD SWAP1 PUSH2 0x42E4 SWAP2 SWAP1 PUSH2 0x4C6C JUMP JUMPDEST DUP13 MLOAD SWAP1 SWAP2 POP PUSH2 0x42FC SWAP1 PUSH1 0x1 DUP7 ADD SWAP1 PUSH1 0x20 DUP16 ADD SWAP1 PUSH2 0x47E3 JUMP JUMPDEST POP DUP1 DUP7 PUSH1 0x13 ADD DUP7 DUP2 SLOAD DUP2 LT PUSH2 0x430D JUMPI INVALID JUMPDEST PUSH1 0x0 SWAP2 DUP3 MSTORE PUSH1 0x20 SWAP1 SWAP2 KECCAK256 ADD SSTORE PUSH1 0x2 DUP7 ADD DUP1 SLOAD PUSH1 0x1 ADD SWAP1 DUP2 SWAP1 SSTORE TIMESTAMP PUSH1 0x6 DUP9 ADD SSTORE PUSH1 0x12 DUP8 ADD SLOAD EQ ISZERO PUSH2 0x4365 JUMPI PUSH1 0x11 DUP7 ADD SLOAD ISZERO PUSH2 0x4355 JUMPI PUSH1 0x10 DUP7 ADD DUP1 SLOAD PUSH1 0xFF NOT AND PUSH1 0x2 OR SWAP1 SSTORE PUSH2 0x4365 JUMP JUMPDEST PUSH1 0x10 DUP7 ADD DUP1 SLOAD PUSH1 0xFF NOT AND PUSH1 0x4 OR SWAP1 SSTORE JUMPDEST PUSH32 0xC33D5CC33DF375FAC3C4FB6395FAC74E37C0183C522E645801A298A6BA8E04A3 DUP14 DUP8 PUSH1 0x14 ADD DUP8 DUP2 SLOAD DUP2 LT PUSH2 0x4396 JUMPI INVALID JUMPDEST SWAP1 PUSH1 0x0 MSTORE PUSH1 0x20 PUSH1 0x0 KECCAK256 SWAP1 PUSH1 0x5 MUL ADD PUSH1 0x40 MLOAD PUSH2 0xA66 SWAP3 SWAP2 SWAP1 PUSH2 0x5CB0 JUMP JUMPDEST PUSH1 0x0 PUSH1 0x1 PUSH2 0x1F4 PUSH1 0x28 DUP4 PUSH1 0x0 DUP7 DUP2 MSTORE PUSH1 0x6 PUSH1 0x20 MSTORE PUSH1 0x40 SWAP1 KECCAK256 PUSH1 0x10 ADD SLOAD PUSH1 0xFF AND PUSH1 0xA DUP2 GT ISZERO PUSH2 0x43DC JUMPI INVALID JUMPDEST EQ ISZERO PUSH2 0x43FE JUMPI POP POP POP PUSH1 0x0 DUP3 DUP2 MSTORE PUSH1 0x6 PUSH1 0x20 MSTORE PUSH1 0x40 SWAP1 KECCAK256 PUSH1 0x5 ADD SLOAD SWAP1 POP PUSH2 0x1995 JUMP JUMPDEST PUSH1 0x3 PUSH1 0x0 DUP7 DUP2 MSTORE PUSH1 0x6 PUSH1 0x20 MSTORE PUSH1 0x40 SWAP1 KECCAK256 PUSH1 0x10 ADD SLOAD PUSH1 0xFF AND PUSH1 0xA DUP2 GT ISZERO PUSH2 0x4420 JUMPI INVALID JUMPDEST EQ ISZERO PUSH2 0x4446 JUMPI POP POP POP PUSH1 0x0 DUP3 DUP2 MSTORE PUSH1 0x6 PUSH1 0x20 MSTORE PUSH1 0x40 SWAP1 KECCAK256 PUSH1 0x5 ADD SLOAD PUSH2 0x960 ADD SWAP1 POP PUSH2 0x1995 JUMP JUMPDEST PUSH1 0x2 PUSH1 0x0 DUP7 DUP2 MSTORE PUSH1 0x6 PUSH1 0x20 MSTORE PUSH1 0x40 SWAP1 KECCAK256 PUSH1 0x10 ADD SLOAD PUSH1 0xFF AND PUSH1 0xA DUP2 GT ISZERO PUSH2 0x4468 JUMPI INVALID JUMPDEST EQ ISZERO PUSH2 0x4495 JUMPI POP POP POP PUSH1 0x0 DUP3 DUP2 MSTORE PUSH1 0x6 PUSH1 0x20 MSTORE PUSH1 0x40 SWAP1 KECCAK256 PUSH1 0x5 DUP2 ADD SLOAD PUSH1 0x11 SWAP1 SWAP2 ADD SLOAD MUL PUSH1 0x2 MUL SWAP1 POP PUSH2 0x1995 JUMP JUMPDEST PUSH1 0x4 PUSH1 0x0 DUP7 DUP2 MSTORE PUSH1 0x6 PUSH1 0x20 MSTORE PUSH1 0x40 SWAP1 KECCAK256 PUSH1 0x10 ADD SLOAD PUSH1 0xFF AND PUSH1 0xA DUP2 GT ISZERO PUSH2 0x44B7 JUMPI INVALID JUMPDEST EQ ISZERO PUSH2 0x44EE JUMPI PUSH1 0x0 DUP6 DUP2 MSTORE PUSH1 0x6 PUSH1 0x20 MSTORE PUSH1 0x40 SWAP1 KECCAK256 PUSH1 0x5 DUP2 ADD SLOAD PUSH1 0x3 SWAP1 SWAP2 ADD SLOAD PUSH5 0xE8D4A51000 SWAP1 DUP5 MUL JUMPDEST DIV DUP3 ADD ADD SWAP4 POP POP POP POP PUSH2 0x1995 JUMP JUMPDEST PUSH1 0x6 PUSH1 0x0 DUP7 DUP2 MSTORE PUSH1 0x6 PUSH1 0x20 MSTORE PUSH1 0x40 SWAP1 KECCAK256 PUSH1 0x10 ADD SLOAD PUSH1 0xFF AND PUSH1 0xA DUP2 GT ISZERO PUSH2 0x4510 JUMPI INVALID JUMPDEST EQ ISZERO PUSH2 0x453D JUMPI PUSH1 0x0 DUP6 DUP2 MSTORE PUSH1 0x6 PUSH1 0x20 MSTORE PUSH1 0x40 SWAP1 KECCAK256 PUSH1 0x5 DUP2 ADD SLOAD PUSH1 0x3 SWAP1 SWAP2 ADD SLOAD PUSH5 0xE8D4A51000 SWAP1 DUP5 MUL PUSH2 0x44E0 JUMP JUMPDEST PUSH1 0x7 PUSH1 0x0 DUP7 DUP2 MSTORE PUSH1 0x6 PUSH1 0x20 MSTORE PUSH1 0x40 SWAP1 KECCAK256 PUSH1 0x10 ADD SLOAD PUSH1 0xFF AND PUSH1 0xA DUP2 GT ISZERO PUSH2 0x455F JUMPI INVALID JUMPDEST EQ ISZERO PUSH2 0x4612 JUMPI PUSH1 0x0 DUP6 DUP2 MSTORE PUSH1 0x6 PUSH1 0x20 MSTORE PUSH1 0x40 SWAP1 DUP2 SWAP1 KECCAK256 PUSH1 0x5 DUP1 DUP3 ADD SLOAD SWAP1 SLOAD PUSH1 0x3 SWAP1 SWAP3 ADD SLOAD SWAP3 MLOAD PUSH4 0x1B8798D5 PUSH1 0xE1 SHL DUP2 MSTORE SWAP1 SWAP3 PUSH1 0x1 PUSH1 0x1 PUSH1 0xA0 SHL SUB SWAP1 SWAP3 AND SWAP2 PUSH4 0x370F31AA SWAP2 PUSH2 0x45B7 SWAP2 DUP6 SWAP2 DUP8 SWAP2 DUP11 SWAP2 DUP11 SWAP1 PUSH1 0x4 ADD PUSH2 0x5D73 JUMP JUMPDEST PUSH1 0x20 PUSH1 0x40 MLOAD DUP1 DUP4 SUB DUP2 DUP7 DUP1 EXTCODESIZE ISZERO DUP1 ISZERO PUSH2 0x45CF JUMPI PUSH1 0x0 DUP1 REVERT JUMPDEST POP GAS STATICCALL ISZERO DUP1 ISZERO PUSH2 0x45E3 JUMPI RETURNDATASIZE PUSH1 0x0 DUP1 RETURNDATACOPY RETURNDATASIZE PUSH1 0x0 REVERT JUMPDEST POP POP POP POP PUSH1 0x40 MLOAD RETURNDATASIZE PUSH1 0x1F NOT PUSH1 0x1F DUP3 ADD AND DUP3 ADD DUP1 PUSH1 0x40 MSTORE POP DUP2 ADD SWAP1 PUSH2 0x4607 SWAP2 SWAP1 PUSH2 0x4C6C JUMP JUMPDEST ADD SWAP4 POP POP POP POP PUSH2 0x1995 JUMP JUMPDEST PUSH1 0x9 PUSH1 0x0 DUP7 DUP2 MSTORE PUSH1 0x6 PUSH1 0x20 MSTORE PUSH1 0x40 SWAP1 KECCAK256 PUSH1 0x10 ADD SLOAD PUSH1 0xFF AND PUSH1 0xA DUP2 GT ISZERO PUSH2 0x4634 JUMPI INVALID JUMPDEST EQ DUP1 PUSH2 0x465F JUMPI POP PUSH1 0x8 PUSH1 0x0 DUP7 DUP2 MSTORE PUSH1 0x6 PUSH1 0x20 MSTORE PUSH1 0x40 SWAP1 KECCAK256 PUSH1 0x10 ADD SLOAD PUSH1 0xFF AND PUSH1 0xA DUP2 GT ISZERO PUSH2 0x465D JUMPI INVALID JUMPDEST EQ JUMPDEST DUP1 PUSH2 0x4689 JUMPI POP PUSH1 0x5 PUSH1 0x0 DUP7 DUP2 MSTORE PUSH1 0x6 PUSH1 0x20 MSTORE PUSH1 0x40 SWAP1 KECCAK256 PUSH1 0x10 ADD SLOAD PUSH1 0xFF AND PUSH1 0xA DUP2 GT ISZERO PUSH2 0x4687 JUMPI INVALID JUMPDEST EQ JUMPDEST DUP1 PUSH2 0x46B3 JUMPI POP PUSH1 0xA PUSH1 0x0 DUP7 DUP2 MSTORE PUSH1 0x6 PUSH1 0x20 MSTORE PUSH1 0x40 SWAP1 KECCAK256 PUSH1 0x10 ADD SLOAD PUSH1 0xFF AND PUSH1 0xA DUP2 GT ISZERO PUSH2 0x46B1 JUMPI INVALID JUMPDEST EQ JUMPDEST ISZERO PUSH2 0x46C4 JUMPI PUSH1 0x0 SWAP4 POP POP POP POP PUSH2 0x1995 JUMP JUMPDEST POP POP POP SWAP2 SWAP1 POP JUMP JUMPDEST PUSH1 0x60 PUSH1 0x0 PUSH1 0x8 DUP4 MLOAD DUP2 PUSH2 0x46DB JUMPI INVALID JUMPDEST DIV SWAP1 POP PUSH1 0x60 DUP2 PUSH1 0x1 PUSH1 0x1 PUSH1 0x40 SHL SUB DUP2 GT DUP1 ISZERO PUSH2 0x46F6 JUMPI PUSH1 0x0 DUP1 REVERT JUMPDEST POP PUSH1 0x40 MLOAD SWAP1 DUP1 DUP3 MSTORE DUP1 PUSH1 0x20 MUL PUSH1 0x20 ADD DUP3 ADD PUSH1 0x40 MSTORE DUP1 ISZERO PUSH2 0x4720 JUMPI DUP2 PUSH1 0x20 ADD PUSH1 0x20 DUP3 MUL DUP1 CALLDATASIZE DUP4 CALLDATACOPY ADD SWAP1 POP JUMPDEST POP SWAP1 POP PUSH1 0x0 JUMPDEST DUP3 DUP2 LT ISZERO PUSH2 0x47B8 JUMPI PUSH1 0x0 DUP1 JUMPDEST PUSH1 0x8 DUP2 LT ISZERO PUSH2 0x4770 JUMPI PUSH1 0x0 DUP8 DUP3 DUP6 PUSH1 0x8 MUL ADD DUP2 MLOAD DUP2 LT PUSH2 0x474E JUMPI INVALID JUMPDEST ADD PUSH1 0x20 ADD MLOAD PUSH1 0x1 PUSH1 0x1 PUSH1 0xF8 SHL SUB NOT AND PUSH1 0x8 DUP4 MUL SHR SWAP3 SWAP1 SWAP3 OR SWAP2 POP PUSH1 0x1 ADD PUSH2 0x4732 JUMP JUMPDEST POP DUP1 PUSH1 0x40 MLOAD PUSH1 0x20 ADD PUSH2 0x4782 SWAP2 SWAP1 PUSH2 0x5179 JUMP JUMPDEST PUSH1 0x40 MLOAD PUSH1 0x20 DUP2 DUP4 SUB SUB DUP2 MSTORE SWAP1 PUSH1 0x40 MSTORE DUP1 MLOAD SWAP1 PUSH1 0x20 ADD KECCAK256 DUP4 DUP4 DUP2 MLOAD DUP2 LT PUSH2 0x47A4 JUMPI INVALID JUMPDEST PUSH1 0x20 SWAP1 DUP2 MUL SWAP2 SWAP1 SWAP2 ADD ADD MSTORE POP PUSH1 0x1 ADD PUSH2 0x4726 JUMP JUMPDEST POP SWAP4 SWAP3 POP POP POP JUMP JUMPDEST PUSH1 0x0 SWAP1 DUP2 MSTORE PUSH1 0x1 PUSH1 0x20 SWAP1 DUP2 MSTORE PUSH1 0x40 DUP1 DUP4 KECCAK256 DUP1 SLOAD PUSH1 0xFF NOT AND SWAP1 SSTORE PUSH1 0x2 SWAP1 SWAP2 MSTORE DUP2 KECCAK256 SSTORE JUMP JUMPDEST DUP3 DUP1 SLOAD PUSH1 0x1 DUP2 PUSH1 0x1 AND ISZERO PUSH2 0x100 MUL SUB AND PUSH1 0x2 SWAP1 DIV SWAP1 PUSH1 0x0 MSTORE PUSH1 0x20 PUSH1 0x0 KECCAK256 SWAP1 PUSH1 0x1F ADD PUSH1 0x20 SWAP1 DIV DUP2 ADD SWAP3 DUP3 PUSH2 0x4819 JUMPI PUSH1 0x0 DUP6 SSTORE PUSH2 0x485F JUMP JUMPDEST DUP3 PUSH1 0x1F LT PUSH2 0x4832 JUMPI DUP1 MLOAD PUSH1 0xFF NOT AND DUP4 DUP1 ADD OR DUP6 SSTORE PUSH2 0x485F JUMP JUMPDEST DUP3 DUP1 ADD PUSH1 0x1 ADD DUP6 SSTORE DUP3 ISZERO PUSH2 0x485F JUMPI SWAP2 DUP3 ADD JUMPDEST DUP3 DUP2 GT ISZERO PUSH2 0x485F JUMPI DUP3 MLOAD DUP3 SSTORE SWAP2 PUSH1 0x20 ADD SWAP2 SWAP1 PUSH1 0x1 ADD SWAP1 PUSH2 0x4844 JUMP JUMPDEST POP PUSH2 0x486B SWAP3 SWAP2 POP PUSH2 0x4958 JUMP JUMPDEST POP SWAP1 JUMP JUMPDEST PUSH1 0x40 DUP1 MLOAD PUSH1 0x80 DUP2 ADD DUP3 MSTORE PUSH1 0x0 DUP1 DUP3 MSTORE PUSH1 0x20 DUP3 ADD DUP2 SWAP1 MSTORE SWAP2 DUP2 ADD DUP3 SWAP1 MSTORE PUSH1 0x60 DUP2 ADD SWAP2 SWAP1 SWAP2 MSTORE SWAP1 JUMP JUMPDEST PUSH1 0x40 DUP1 MLOAD PUSH2 0x100 DUP2 ADD DUP3 MSTORE PUSH1 0x0 DUP1 DUP3 MSTORE PUSH1 0x20 DUP3 ADD DUP2 SWAP1 MSTORE PUSH1 0x60 SWAP3 DUP3 ADD DUP4 SWAP1 MSTORE DUP3 DUP3 ADD SWAP3 SWAP1 SWAP3 MSTORE PUSH1 0x80 DUP2 ADD DUP3 SWAP1 MSTORE PUSH1 0xA0 DUP2 ADD DUP3 SWAP1 MSTORE PUSH1 0xC0 DUP2 ADD DUP3 SWAP1 MSTORE PUSH1 0xE0 DUP2 ADD SWAP2 SWAP1 SWAP2 MSTORE SWAP1 JUMP JUMPDEST DUP3 DUP1 SLOAD DUP3 DUP3 SSTORE SWAP1 PUSH1 0x0 MSTORE PUSH1 0x20 PUSH1 0x0 KECCAK256 SWAP1 DUP2 ADD SWAP3 DUP3 ISZERO PUSH2 0x485F JUMPI SWAP2 PUSH1 0x20 MUL DUP3 ADD DUP3 DUP2 GT ISZERO PUSH2 0x485F JUMPI DUP3 MLOAD DUP3 SSTORE SWAP2 PUSH1 0x20 ADD SWAP2 SWAP1 PUSH1 0x1 ADD SWAP1 PUSH2 0x4844 JUMP JUMPDEST POP DUP1 SLOAD PUSH1 0x0 DUP3 SSTORE SWAP1 PUSH1 0x0 MSTORE PUSH1 0x20 PUSH1 0x0 KECCAK256 SWAP1 DUP2 ADD SWAP1 PUSH2 0x4934 SWAP2 SWAP1 PUSH2 0x4958 JUMP JUMPDEST POP JUMP JUMPDEST POP DUP1 SLOAD PUSH1 0x0 DUP3 SSTORE PUSH1 0x5 MUL SWAP1 PUSH1 0x0 MSTORE PUSH1 0x20 PUSH1 0x0 KECCAK256 SWAP1 DUP2 ADD SWAP1 PUSH2 0x4934 SWAP2 SWAP1 PUSH2 0x496D JUMP JUMPDEST JUMPDEST DUP1 DUP3 GT ISZERO PUSH2 0x486B JUMPI PUSH1 0x0 DUP2 SSTORE PUSH1 0x1 ADD PUSH2 0x4959 JUMP JUMPDEST DUP1 DUP3 GT ISZERO PUSH2 0x486B JUMPI DUP1 SLOAD PUSH9 0xFFFFFFFFFFFFFFFFFF NOT AND DUP2 SSTORE PUSH1 0x0 PUSH2 0x4994 PUSH1 0x1 DUP4 ADD DUP3 PUSH2 0x49C4 JUMP JUMPDEST PUSH2 0x49A2 PUSH1 0x2 DUP4 ADD PUSH1 0x0 PUSH2 0x49C4 JUMP JUMPDEST POP PUSH1 0x0 PUSH1 0x3 DUP3 ADD SSTORE PUSH1 0x4 DUP2 ADD DUP1 SLOAD PUSH1 0x1 PUSH1 0x1 PUSH1 0xB0 SHL SUB NOT AND SWAP1 SSTORE PUSH1 0x5 ADD PUSH2 0x496D JUMP JUMPDEST POP DUP1 SLOAD PUSH1 0x1 DUP2 PUSH1 0x1 AND ISZERO PUSH2 0x100 MUL SUB AND PUSH1 0x2 SWAP1 DIV PUSH1 0x0 DUP3 SSTORE DUP1 PUSH1 0x1F LT PUSH2 0x49EA JUMPI POP PUSH2 0x4934 JUMP JUMPDEST PUSH1 0x1F ADD PUSH1 0x20 SWAP1 DIV SWAP1 PUSH1 0x0 MSTORE PUSH1 0x20 PUSH1 0x0 KECCAK256 SWAP1 DUP2 ADD SWAP1 PUSH2 0x4934 SWAP2 SWAP1 PUSH2 0x4958 JUMP JUMPDEST DUP1 CALLDATALOAD PUSH1 0x1 PUSH1 0x1 PUSH1 0xA0 SHL SUB DUP2 AND DUP2 EQ PUSH2 0x1995 JUMPI PUSH1 0x0 DUP1 REVERT JUMPDEST PUSH1 0x0 DUP3 PUSH1 0x1F DUP4 ADD SLT PUSH2 0x4A2F JUMPI DUP1 DUP2 REVERT JUMPDEST DUP2 CALLDATALOAD PUSH2 0x4A42 PUSH2 0x4A3D DUP3 PUSH2 0x5DF8 JUMP JUMPDEST PUSH2 0x5DD5 JUMP JUMPDEST DUP2 DUP2 MSTORE SWAP2 POP PUSH1 0x20 DUP1 DUP4 ADD SWAP1 DUP5 DUP2 ADD DUP2 DUP5 MUL DUP7 ADD DUP3 ADD DUP8 LT ISZERO PUSH2 0x4A63 JUMPI PUSH1 0x0 DUP1 REVERT JUMPDEST PUSH1 0x0 JUMPDEST DUP5 DUP2 LT ISZERO PUSH2 0x4A82 JUMPI DUP2 CALLDATALOAD DUP5 MSTORE SWAP3 DUP3 ADD SWAP3 SWAP1 DUP3 ADD SWAP1 PUSH1 0x1 ADD PUSH2 0x4A66 JUMP JUMPDEST POP POP POP POP POP SWAP3 SWAP2 POP POP JUMP JUMPDEST PUSH1 0x0 DUP3 PUSH1 0x1F DUP4 ADD SLT PUSH2 0x4A9D JUMPI DUP1 DUP2 REVERT JUMPDEST DUP2 CALLDATALOAD PUSH2 0x4AAB PUSH2 0x4A3D DUP3 PUSH2 0x5DF8 JUMP JUMPDEST DUP2 DUP2 MSTORE SWAP2 POP PUSH1 0x20 DUP1 DUP4 ADD SWAP1 DUP5 DUP2 ADD PUSH1 0x0 JUMPDEST DUP5 DUP2 LT ISZERO PUSH2 0x4A82 JUMPI DUP2 CALLDATALOAD DUP8 ADD PUSH2 0x100 DUP1 PUSH1 0x1F NOT DUP4 DUP13 SUB ADD SLT ISZERO PUSH2 0x4ADE JUMPI PUSH1 0x0 DUP1 REVERT JUMPDEST PUSH2 0x4AE7 DUP2 PUSH2 0x5DD5 JUMP JUMPDEST PUSH2 0x4AF2 DUP7 DUP5 ADD PUSH2 0x4C21 JUMP JUMPDEST DUP2 MSTORE PUSH1 0x40 PUSH2 0x4B01 DUP2 DUP6 ADD PUSH2 0x4C38 JUMP JUMPDEST DUP8 DUP4 ADD MSTORE PUSH1 0x60 DUP1 DUP6 ADD CALLDATALOAD PUSH1 0x1 PUSH1 0x1 PUSH1 0x40 SHL SUB DUP1 DUP3 GT ISZERO PUSH2 0x4B20 JUMPI PUSH1 0x0 DUP1 REVERT JUMPDEST PUSH2 0x4B2E DUP16 DUP12 DUP5 DUP11 ADD ADD PUSH2 0x4BBB JUMP JUMPDEST DUP5 DUP7 ADD MSTORE PUSH1 0x80 SWAP4 POP DUP4 DUP8 ADD CALLDATALOAD SWAP2 POP DUP1 DUP3 GT ISZERO PUSH2 0x4B49 JUMPI PUSH1 0x0 DUP1 REVERT JUMPDEST POP PUSH2 0x4B58 DUP15 DUP11 DUP4 DUP10 ADD ADD PUSH2 0x4BBB JUMP JUMPDEST DUP3 DUP6 ADD MSTORE POP POP PUSH1 0xA0 DUP1 DUP6 ADD CALLDATALOAD DUP3 DUP5 ADD MSTORE PUSH1 0xC0 SWAP2 POP PUSH2 0x4B77 DUP3 DUP7 ADD PUSH2 0x4A08 JUMP JUMPDEST SWAP1 DUP4 ADD MSTORE PUSH1 0xE0 PUSH2 0x4B88 DUP6 DUP3 ADD PUSH2 0x4BB0 JUMP JUMPDEST DUP3 DUP5 ADD MSTORE PUSH2 0x4B97 DUP5 DUP7 ADD PUSH2 0x4BB0 JUMP JUMPDEST SWAP1 DUP4 ADD MSTORE POP DUP7 MSTORE POP POP SWAP3 DUP3 ADD SWAP3 SWAP1 DUP3 ADD SWAP1 PUSH1 0x1 ADD PUSH2 0x4ABC JUMP JUMPDEST DUP1 CALLDATALOAD PUSH2 0x1995 DUP2 PUSH2 0x5E4D JUMP JUMPDEST PUSH1 0x0 DUP3 PUSH1 0x1F DUP4 ADD SLT PUSH2 0x4BCB JUMPI DUP1 DUP2 REVERT JUMPDEST DUP2 CALLDATALOAD PUSH1 0x1 PUSH1 0x1 PUSH1 0x40 SHL SUB DUP2 GT ISZERO PUSH2 0x4BDE JUMPI INVALID JUMPDEST PUSH2 0x4BF1 PUSH1 0x1F DUP3 ADD PUSH1 0x1F NOT AND PUSH1 0x20 ADD PUSH2 0x5DD5 JUMP JUMPDEST SWAP2 POP DUP1 DUP3 MSTORE DUP4 PUSH1 0x20 DUP3 DUP6 ADD ADD GT ISZERO PUSH2 0x4C08 JUMPI PUSH1 0x0 DUP1 REVERT JUMPDEST DUP1 PUSH1 0x20 DUP5 ADD PUSH1 0x20 DUP5 ADD CALLDATACOPY PUSH1 0x0 SWAP1 DUP3 ADD PUSH1 0x20 ADD MSTORE SWAP3 SWAP2 POP POP JUMP JUMPDEST DUP1 CALLDATALOAD PUSH1 0x1 PUSH1 0x1 PUSH1 0x40 SHL SUB DUP2 AND DUP2 EQ PUSH2 0x1995 JUMPI PUSH1 0x0 DUP1 REVERT JUMPDEST DUP1 CALLDATALOAD PUSH1 0xFF DUP2 AND DUP2 EQ PUSH2 0x1995 JUMPI PUSH1 0x0 DUP1 REVERT JUMPDEST PUSH1 0x0 PUSH1 0x20 DUP3 DUP5 SUB SLT ISZERO PUSH2 0x4C5A JUMPI DUP1 DUP2 REVERT JUMPDEST DUP2 MLOAD PUSH2 0x4C65 DUP2 PUSH2 0x5E4D JUMP JUMPDEST SWAP4 SWAP3 POP POP POP JUMP JUMPDEST PUSH1 0x0 PUSH1 0x20 DUP3 DUP5 SUB SLT ISZERO PUSH2 0x4C7D JUMPI DUP1 DUP2 REVERT JUMPDEST POP MLOAD SWAP2 SWAP1 POP JUMP JUMPDEST PUSH1 0x0 PUSH1 0x20 DUP3 DUP5 SUB SLT ISZERO PUSH2 0x4C95 JUMPI DUP1 DUP2 REVERT JUMPDEST POP CALLDATALOAD SWAP2 SWAP1 POP JUMP JUMPDEST PUSH1 0x0 DUP1 PUSH1 0x40 DUP4 DUP6 SUB SLT ISZERO PUSH2 0x4CAE JUMPI DUP1 DUP2 REVERT JUMPDEST DUP3 CALLDATALOAD SWAP2 POP PUSH2 0x4CBE PUSH1 0x20 DUP5 ADD PUSH2 0x4A08 JUMP JUMPDEST SWAP1 POP SWAP3 POP SWAP3 SWAP1 POP JUMP JUMPDEST PUSH1 0x0 DUP1 PUSH1 0x40 DUP4 DUP6 SUB SLT ISZERO PUSH2 0x4CD9 JUMPI DUP2 DUP3 REVERT JUMPDEST POP POP DUP1 CALLDATALOAD SWAP3 PUSH1 0x20 SWAP1 SWAP2 ADD CALLDATALOAD SWAP2 POP JUMP JUMPDEST PUSH1 0x0 DUP1 PUSH1 0x0 DUP1 PUSH1 0x0 PUSH1 0xA0 DUP7 DUP9 SUB SLT ISZERO PUSH2 0x4CFF JUMPI DUP1 DUP2 REVERT JUMPDEST DUP6 CALLDATALOAD SWAP5 POP PUSH1 0x20 DUP1 DUP8 ADD CALLDATALOAD SWAP5 POP PUSH1 0x40 DUP8 ADD CALLDATALOAD PUSH1 0x1 PUSH1 0x1 PUSH1 0x40 SHL SUB DUP1 DUP3 GT ISZERO PUSH2 0x4D24 JUMPI DUP4 DUP5 REVERT JUMPDEST DUP2 DUP10 ADD SWAP2 POP DUP10 PUSH1 0x1F DUP4 ADD SLT PUSH2 0x4D37 JUMPI DUP4 DUP5 REVERT JUMPDEST DUP2 CALLDATALOAD PUSH2 0x4D45 PUSH2 0x4A3D DUP3 PUSH2 0x5DF8 JUMP JUMPDEST DUP2 DUP2 MSTORE DUP5 DUP2 ADD SWAP1 DUP5 DUP7 ADD DUP8 JUMPDEST DUP5 DUP2 LT ISZERO PUSH2 0x4D7A JUMPI PUSH2 0x4D68 DUP16 DUP10 DUP5 CALLDATALOAD DUP11 ADD ADD PUSH2 0x4A1F JUMP JUMPDEST DUP5 MSTORE SWAP3 DUP8 ADD SWAP3 SWAP1 DUP8 ADD SWAP1 PUSH1 0x1 ADD PUSH2 0x4D51 JUMP JUMPDEST POP SWAP1 SWAP9 POP POP POP POP PUSH1 0x60 DUP10 ADD CALLDATALOAD SWAP3 POP DUP1 DUP4 GT ISZERO PUSH2 0x4D94 JUMPI DUP4 DUP5 REVERT JUMPDEST PUSH2 0x4DA0 DUP11 DUP5 DUP12 ADD PUSH2 0x4BBB JUMP JUMPDEST SWAP5 POP PUSH1 0x80 DUP10 ADD CALLDATALOAD SWAP3 POP DUP1 DUP4 GT ISZERO PUSH2 0x4DB5 JUMPI DUP4 DUP5 REVERT JUMPDEST POP POP PUSH2 0x4DC3 DUP9 DUP3 DUP10 ADD PUSH2 0x4A1F JUMP JUMPDEST SWAP2 POP POP SWAP3 SWAP6 POP SWAP3 SWAP6 SWAP1 SWAP4 POP JUMP JUMPDEST PUSH1 0x0 DUP1 PUSH1 0x0 DUP1 PUSH1 0x0 DUP1 PUSH1 0x0 PUSH1 0xE0 DUP9 DUP11 SUB SLT ISZERO PUSH2 0x4DEA JUMPI DUP5 DUP6 REVERT JUMPDEST DUP8 CALLDATALOAD SWAP7 POP PUSH1 0x20 DUP1 DUP10 ADD CALLDATALOAD SWAP7 POP PUSH2 0x4E02 PUSH1 0x40 DUP11 ADD PUSH2 0x4C21 JUMP JUMPDEST SWAP6 POP PUSH2 0x4E10 PUSH1 0x60 DUP11 ADD PUSH2 0x4C38 JUMP JUMPDEST SWAP5 POP PUSH1 0x80 DUP10 ADD CALLDATALOAD SWAP4 POP PUSH1 0xA0 DUP10 ADD CALLDATALOAD PUSH1 0x1 PUSH1 0x1 PUSH1 0x40 SHL SUB DUP1 DUP3 GT ISZERO PUSH2 0x4E32 JUMPI DUP5 DUP6 REVERT JUMPDEST DUP2 DUP12 ADD SWAP2 POP DUP12 PUSH1 0x1F DUP4 ADD SLT PUSH2 0x4E45 JUMPI DUP5 DUP6 REVERT JUMPDEST DUP2 CALLDATALOAD PUSH2 0x4E53 PUSH2 0x4A3D DUP3 PUSH2 0x5DF8 JUMP JUMPDEST DUP1 DUP3 DUP3 MSTORE DUP6 DUP3 ADD SWAP2 POP DUP6 DUP6 ADD DUP16 DUP8 DUP9 DUP7 MUL DUP9 ADD ADD GT ISZERO PUSH2 0x4E71 JUMPI DUP9 DUP10 REVERT JUMPDEST DUP9 SWAP6 POP JUMPDEST DUP4 DUP7 LT ISZERO PUSH2 0x4E9A JUMPI PUSH2 0x4E86 DUP2 PUSH2 0x4A08 JUMP JUMPDEST DUP4 MSTORE PUSH1 0x1 SWAP6 SWAP1 SWAP6 ADD SWAP5 SWAP2 DUP7 ADD SWAP2 DUP7 ADD PUSH2 0x4E75 JUMP JUMPDEST POP SWAP7 POP POP POP PUSH1 0xC0 DUP12 ADD CALLDATALOAD SWAP3 POP DUP1 DUP4 GT ISZERO PUSH2 0x4EB2 JUMPI DUP4 DUP5 REVERT JUMPDEST POP POP PUSH2 0x4EC0 DUP11 DUP3 DUP12 ADD PUSH2 0x4A8D JUMP JUMPDEST SWAP2 POP POP SWAP3 SWAP6 SWAP9 SWAP2 SWAP5 SWAP8 POP SWAP3 SWAP6 POP JUMP JUMPDEST PUSH1 0x0 DUP1 PUSH1 0x40 DUP4 DUP6 SUB SLT ISZERO PUSH2 0x4EE1 JUMPI DUP2 DUP3 REVERT JUMPDEST DUP3 CALLDATALOAD SWAP2 POP PUSH1 0x20 DUP4 ADD CALLDATALOAD PUSH1 0x1 PUSH1 0x1 PUSH1 0x40 SHL SUB DUP2 GT ISZERO PUSH2 0x4EFD JUMPI DUP2 DUP3 REVERT JUMPDEST PUSH2 0x4F09 DUP6 DUP3 DUP7 ADD PUSH2 0x4BBB JUMP JUMPDEST SWAP2 POP POP SWAP3 POP SWAP3 SWAP1 POP JUMP JUMPDEST PUSH1 0x1 PUSH1 0x1 PUSH1 0xA0 SHL SUB AND SWAP1 MSTORE JUMP JUMPDEST PUSH1 0x0 DUP2 MLOAD DUP1 DUP5 MSTORE PUSH1 0x20 DUP1 DUP6 ADD SWAP5 POP DUP1 DUP5 ADD DUP4 JUMPDEST DUP4 DUP2 LT ISZERO PUSH2 0x4F58 JUMPI DUP2 MLOAD PUSH1 0x1 PUSH1 0x1 PUSH1 0xA0 SHL SUB AND DUP8 MSTORE SWAP6 DUP3 ADD SWAP6 SWAP1 DUP3 ADD SWAP1 PUSH1 0x1 ADD PUSH2 0x4F33 JUMP JUMPDEST POP SWAP5 SWAP6 SWAP5 POP POP POP POP POP JUMP JUMPDEST PUSH1 0x0 DUP2 MLOAD DUP1 DUP5 MSTORE PUSH1 0x20 DUP1 DUP6 ADD SWAP5 POP DUP1 DUP5 ADD DUP4 JUMPDEST DUP4 DUP2 LT ISZERO PUSH2 0x4F58 JUMPI DUP2 MLOAD DUP8 MSTORE SWAP6 DUP3 ADD SWAP6 SWAP1 DUP3 ADD SWAP1 PUSH1 0x1 ADD PUSH2 0x4F76 JUMP JUMPDEST PUSH1 0x0 DUP2 MLOAD DUP1 DUP5 MSTORE PUSH1 0x20 DUP1 DUP6 ADD DUP1 DUP2 SWAP7 POP DUP3 DUP5 MUL DUP2 ADD SWAP2 POP DUP3 DUP7 ADD DUP6 JUMPDEST DUP6 DUP2 LT ISZERO PUSH2 0x506E JUMPI DUP3 DUP5 SUB DUP10 MSTORE DUP2 MLOAD PUSH2 0x100 PUSH1 0x1 PUSH1 0x1 PUSH1 0x40 SHL SUB DUP3 MLOAD AND DUP7 MSTORE DUP7 DUP3 ADD MLOAD PUSH2 0x4FDD DUP9 DUP9 ADD DUP3 PUSH2 0x5172 JUMP JUMPDEST POP PUSH1 0x40 DUP1 DUP4 ADD MLOAD DUP3 DUP3 DUP10 ADD MSTORE PUSH2 0x4FF5 DUP4 DUP10 ADD DUP3 PUSH2 0x5081 JUMP JUMPDEST SWAP3 POP POP POP PUSH1 0x60 DUP1 DUP4 ADD MLOAD DUP8 DUP4 SUB DUP3 DUP10 ADD MSTORE PUSH2 0x5010 DUP4 DUP3 PUSH2 0x5081 JUMP JUMPDEST SWAP3 POP POP POP PUSH1 0x80 DUP1 DUP4 ADD MLOAD DUP2 DUP9 ADD MSTORE POP PUSH1 0xA0 DUP1 DUP4 ADD MLOAD PUSH2 0x5031 DUP3 DUP10 ADD DUP3 PUSH2 0x4F13 JUMP JUMPDEST POP POP PUSH1 0xC0 DUP1 DUP4 ADD MLOAD PUSH2 0x5045 DUP3 DUP10 ADD DUP3 PUSH2 0x507B JUMP JUMPDEST POP POP PUSH1 0xE0 SWAP2 DUP3 ADD MLOAD SWAP2 PUSH2 0x505A DUP8 DUP3 ADD DUP5 PUSH2 0x507B JUMP JUMPDEST POP SWAP10 DUP7 ADD SWAP10 SWAP5 POP POP SWAP1 DUP5 ADD SWAP1 PUSH1 0x1 ADD PUSH2 0x4FAE JUMP JUMPDEST POP SWAP2 SWAP8 SWAP7 POP POP POP POP POP POP POP JUMP JUMPDEST ISZERO ISZERO SWAP1 MSTORE JUMP JUMPDEST PUSH1 0x0 DUP2 MLOAD DUP1 DUP5 MSTORE PUSH2 0x5099 DUP2 PUSH1 0x20 DUP7 ADD PUSH1 0x20 DUP7 ADD PUSH2 0x5E21 JUMP JUMPDEST PUSH1 0x1F ADD PUSH1 0x1F NOT AND SWAP3 SWAP1 SWAP3 ADD PUSH1 0x20 ADD SWAP3 SWAP2 POP POP JUMP JUMPDEST PUSH1 0x0 DUP2 SLOAD PUSH1 0x1 DUP1 DUP3 AND PUSH1 0x0 DUP2 EQ PUSH2 0x50CB JUMPI PUSH1 0x1 DUP2 EQ PUSH2 0x50E9 JUMPI PUSH2 0x5127 JUMP JUMPDEST PUSH1 0x2 DUP4 DIV PUSH1 0x7F AND DUP7 MSTORE PUSH1 0xFF NOT DUP4 AND PUSH1 0x20 DUP8 ADD MSTORE PUSH1 0x40 DUP7 ADD SWAP4 POP PUSH2 0x5127 JUMP JUMPDEST PUSH1 0x2 DUP4 DIV DUP1 DUP8 MSTORE PUSH2 0x50F9 DUP7 PUSH2 0x5E15 JUMP JUMPDEST PUSH1 0x0 JUMPDEST DUP3 DUP2 LT ISZERO PUSH2 0x511D JUMPI DUP2 SLOAD PUSH1 0x20 DUP3 DUP12 ADD ADD MSTORE DUP5 DUP3 ADD SWAP2 POP PUSH1 0x20 DUP2 ADD SWAP1 POP PUSH2 0x50FC JUMP JUMPDEST DUP9 ADD PUSH1 0x20 ADD SWAP6 POP POP POP JUMPDEST POP POP POP SWAP3 SWAP2 POP POP JUMP JUMPDEST DUP1 MLOAD ISZERO ISZERO DUP3 MSTORE PUSH1 0x20 DUP2 ADD MLOAD ISZERO ISZERO PUSH1 0x20 DUP4 ADD MSTORE PUSH1 0x40 DUP2 ADD MLOAD ISZERO ISZERO PUSH1 0x40 DUP4 ADD MSTORE PUSH1 0x1 PUSH1 0x1 PUSH1 0x40 SHL SUB PUSH1 0x60 DUP3 ADD MLOAD AND PUSH1 0x60 DUP4 ADD MSTORE POP POP JUMP JUMPDEST PUSH1 0x1 PUSH1 0x1 PUSH1 0x40 SHL SUB AND SWAP1 MSTORE JUMP JUMPDEST PUSH1 0xFF AND SWAP1 MSTORE JUMP JUMPDEST PUSH1 0x1 PUSH1 0x1 PUSH1 0xC0 SHL SUB NOT SWAP2 SWAP1 SWAP2 AND DUP2 MSTORE PUSH1 0x8 ADD SWAP1 JUMP JUMPDEST PUSH1 0x0 DUP4 MLOAD PUSH2 0x51A0 DUP2 DUP5 PUSH1 0x20 DUP9 ADD PUSH2 0x5E21 JUMP JUMPDEST DUP4 MLOAD SWAP1 DUP4 ADD SWAP1 PUSH2 0x51B4 DUP2 DUP4 PUSH1 0x20 DUP9 ADD PUSH2 0x5E21 JUMP JUMPDEST ADD SWAP5 SWAP4 POP POP POP POP JUMP JUMPDEST PUSH1 0x1 PUSH1 0x1 PUSH1 0xA0 SHL SUB SWAP8 DUP9 AND DUP2 MSTORE SWAP6 DUP8 AND PUSH1 0x20 DUP8 ADD MSTORE PUSH1 0x40 DUP7 ADD SWAP5 SWAP1 SWAP5 MSTORE SWAP2 SWAP1 SWAP5 AND PUSH1 0x60 DUP5 ADD MSTORE PUSH1 0x80 DUP4 ADD SWAP4 SWAP1 SWAP4 MSTORE PUSH1 0xA0 DUP3 ADD SWAP3 SWAP1 SWAP3 MSTORE PUSH1 0xC0 DUP2 ADD SWAP2 SWAP1 SWAP2 MSTORE PUSH1 0xE0 ADD SWAP1 JUMP JUMPDEST PUSH1 0x0 PUSH1 0x40 DUP3 MSTORE PUSH2 0x5214 PUSH1 0x40 DUP4 ADD DUP6 PUSH2 0x4F20 JUMP JUMPDEST DUP3 DUP2 SUB PUSH1 0x20 DUP5 ADD MSTORE PUSH2 0x5226 DUP2 DUP6 PUSH2 0x4F63 JUMP JUMPDEST SWAP6 SWAP5 POP POP POP POP POP JUMP JUMPDEST PUSH1 0x0 PUSH1 0x20 DUP3 MSTORE PUSH2 0x4C65 PUSH1 0x20 DUP4 ADD DUP5 PUSH2 0x4F63 JUMP JUMPDEST PUSH1 0x0 PUSH2 0x120 DUP1 DUP4 MSTORE PUSH2 0x5256 DUP2 DUP5 ADD DUP11 PUSH2 0x4F63 JUMP JUMPDEST SWAP1 POP PUSH1 0x20 DUP4 DUP3 SUB DUP2 DUP6 ADD MSTORE PUSH2 0x526B DUP3 DUP11 PUSH2 0x4F20 JUMP JUMPDEST DUP5 DUP2 SUB PUSH1 0x40 DUP7 ADD MSTORE DUP9 MLOAD DUP1 DUP3 MSTORE DUP3 DUP11 ADD SWAP4 POP SWAP1 DUP3 ADD SWAP1 DUP5 JUMPDEST DUP2 DUP2 LT ISZERO PUSH2 0x529F JUMPI DUP5 MLOAD DUP4 MSTORE SWAP4 DUP4 ADD SWAP4 SWAP2 DUP4 ADD SWAP2 PUSH1 0x1 ADD PUSH2 0x5283 JUMP JUMPDEST POP POP DUP5 DUP2 SUB PUSH1 0x60 DUP7 ADD MSTORE PUSH2 0x52B3 DUP2 DUP10 PUSH2 0x5081 JUMP JUMPDEST SWAP3 POP POP POP DUP3 DUP2 SUB PUSH1 0x80 DUP5 ADD MSTORE PUSH2 0x52C9 DUP2 DUP7 PUSH2 0x4F92 JUMP JUMPDEST SWAP2 POP POP PUSH2 0x3302 PUSH1 0xA0 DUP4 ADD DUP5 PUSH2 0x5130 JUMP JUMPDEST SWAP1 ISZERO ISZERO DUP2 MSTORE PUSH1 0x20 ADD SWAP1 JUMP JUMPDEST DUP5 ISZERO ISZERO DUP2 MSTORE DUP4 ISZERO ISZERO PUSH1 0x20 DUP3 ADD MSTORE PUSH1 0x1 PUSH1 0x1 PUSH1 0xA0 SHL SUB DUP4 AND PUSH1 0x40 DUP3 ADD MSTORE PUSH1 0x80 PUSH1 0x60 DUP3 ADD DUP2 SWAP1 MSTORE PUSH1 0x0 SWAP1 PUSH2 0x5318 SWAP1 DUP4 ADD DUP5 PUSH2 0x5081 JUMP JUMPDEST SWAP7 SWAP6 POP POP POP POP POP POP JUMP JUMPDEST SWAP3 ISZERO ISZERO DUP4 MSTORE SWAP1 ISZERO ISZERO PUSH1 0x20 DUP4 ADD MSTORE ISZERO ISZERO PUSH1 0x40 DUP3 ADD MSTORE PUSH1 0x60 ADD SWAP1 JUMP JUMPDEST SWAP1 DUP2 MSTORE PUSH1 0x20 ADD SWAP1 JUMP JUMPDEST SWAP2 DUP3 MSTORE PUSH1 0xFF AND PUSH1 0x20 DUP3 ADD MSTORE PUSH1 0x40 ADD SWAP1 JUMP JUMPDEST PUSH1 0x20 DUP1 DUP3 MSTORE PUSH1 0x2B SWAP1 DUP3 ADD MSTORE PUSH32 0x53746174652073686F756C642062652057616974696E67436F6E6669726D6174 PUSH1 0x40 DUP3 ADD MSTORE PUSH11 0x696F6E446561646C696E65 PUSH1 0xA8 SHL PUSH1 0x60 DUP3 ADD MSTORE PUSH1 0x80 ADD SWAP1 JUMP JUMPDEST PUSH1 0x20 DUP1 DUP3 MSTORE PUSH1 0x29 SWAP1 DUP3 ADD MSTORE PUSH32 0x4F7574707574206973206E6F7420636F6E7461696E656420696E207468652066 PUSH1 0x40 DUP3 ADD MSTORE PUSH9 0xD2DCC2D840D0C2E6D PUSH1 0xBB SHL PUSH1 0x60 DUP3 ADD MSTORE PUSH1 0x80 ADD SWAP1 JUMP JUMPDEST PUSH1 0x20 DUP1 DUP3 MSTORE PUSH1 0x27 SWAP1 DUP3 ADD MSTORE PUSH32 0x496E76616C696420647269766520746F20636C61696D20666F72206469726563 PUSH1 0x40 DUP3 ADD MSTORE PUSH7 0x742076616C7565 PUSH1 0xC8 SHL PUSH1 0x60 DUP3 ADD MSTORE PUSH1 0x80 ADD SWAP1 JUMP JUMPDEST PUSH1 0x20 DUP1 DUP3 MSTORE PUSH1 0x4C SWAP1 DUP3 ADD MSTORE PUSH32 0x4472697665207369626C696E6773206D75737420626520636F6D70617469626C PUSH1 0x40 DUP3 ADD MSTORE PUSH32 0x6520776974682070726576696F757320696E697469616C206861736820666F72 PUSH1 0x60 DUP3 ADD MSTORE PUSH12 0x20656D707479206472697665 PUSH1 0xA0 SHL PUSH1 0x80 DUP3 ADD MSTORE PUSH1 0xA0 ADD SWAP1 JUMP JUMPDEST PUSH1 0x20 DUP1 DUP3 MSTORE PUSH1 0x39 SWAP1 DUP3 ADD MSTORE PUSH32 0x436C61696D6564206472697665206E756D6265722073686F756C64206D617463 PUSH1 0x40 DUP3 ADD MSTORE PUSH25 0x341031B630B4B6B2B21039B4B13634B733B990373AB6B132B9 PUSH1 0x39 SHL PUSH1 0x60 DUP3 ADD MSTORE PUSH1 0x80 ADD SWAP1 JUMP JUMPDEST PUSH1 0x20 DUP1 DUP3 MSTORE PUSH1 0x12 SWAP1 DUP3 ADD MSTORE PUSH18 0x92DCECC2D8D2C840C8E4D2ECCA92DCC8CAF PUSH1 0x73 SHL PUSH1 0x40 DUP3 ADD MSTORE PUSH1 0x60 ADD SWAP1 JUMP JUMPDEST PUSH1 0x20 DUP1 DUP3 MSTORE PUSH1 0x28 SWAP1 DUP3 ADD MSTORE PUSH32 0x6F75747075742064726976652068617320746F206265206174206C6561737420 PUSH1 0x40 DUP3 ADD MSTORE PUSH8 0x1BDB99481DDBDC99 PUSH1 0xC2 SHL PUSH1 0x60 DUP3 ADD MSTORE PUSH1 0x80 ADD SWAP1 JUMP JUMPDEST PUSH1 0x20 DUP1 DUP3 MSTORE PUSH1 0x4C SWAP1 DUP3 ADD MSTORE PUSH32 0x53746174652073686F756C642062652057616974696E67436C61696D2C206F72 PUSH1 0x40 DUP3 ADD MSTORE PUSH32 0x2057616974696E674368616C6C656E6765447269766573207769746820646561 PUSH1 0x60 DUP3 ADD MSTORE PUSH12 0x191B1A5B99481C185CDCD959 PUSH1 0xA2 SHL PUSH1 0x80 DUP3 ADD MSTORE PUSH1 0xA0 ADD SWAP1 JUMP JUMPDEST PUSH1 0x20 DUP1 DUP3 MSTORE PUSH1 0x2F SWAP1 DUP3 ADD MSTORE PUSH32 0x52657065746974696F6E206F6620706172746965732720616464726573736573 PUSH1 0x40 DUP3 ADD MSTORE PUSH15 0x81A5CC81B9BDD08185B1B1BDDD959 PUSH1 0x8A SHL PUSH1 0x60 DUP3 ADD MSTORE PUSH1 0x80 ADD SWAP1 JUMP JUMPDEST PUSH1 0x20 DUP1 DUP3 MSTORE PUSH1 0x21 SWAP1 DUP3 ADD MSTORE PUSH32 0x496E76616C696420647269766520746F20636C61696D20666F72206C6F676765 PUSH1 0x40 DUP3 ADD MSTORE PUSH1 0x39 PUSH1 0xF9 SHL PUSH1 0x60 DUP3 ADD MSTORE PUSH1 0x80 ADD SWAP1 JUMP JUMPDEST PUSH1 0x20 DUP1 DUP3 MSTORE PUSH1 0x2A SWAP1 DUP3 ADD MSTORE PUSH32 0x5468652073656E646572206973206E6F7420436C61696D657220617420746869 PUSH1 0x40 DUP3 ADD MSTORE PUSH10 0x7320696E7374616E6365 PUSH1 0xB0 SHL PUSH1 0x60 DUP3 ADD MSTORE PUSH1 0x80 ADD SWAP1 JUMP JUMPDEST PUSH1 0x20 DUP1 DUP3 MSTORE PUSH1 0x23 SWAP1 DUP3 ADD MSTORE PUSH32 0x48617368206973206E6F7420617661696C61626C65206F6E206C6F6767657220 PUSH1 0x40 DUP3 ADD MSTORE PUSH3 0x1E595D PUSH1 0xEA SHL PUSH1 0x60 DUP3 ADD MSTORE PUSH1 0x80 ADD SWAP1 JUMP JUMPDEST PUSH1 0x20 DUP1 DUP3 MSTORE PUSH1 0x2C SWAP1 DUP3 ADD MSTORE PUSH32 0x446561646C696E65206973206E6F74206F76657220666F722074686973207370 PUSH1 0x40 DUP3 ADD MSTORE PUSH12 0x656369666963207374617465 PUSH1 0xA0 SHL PUSH1 0x60 DUP3 ADD MSTORE PUSH1 0x80 ADD SWAP1 JUMP JUMPDEST PUSH1 0x20 DUP1 DUP3 MSTORE PUSH1 0x30 SWAP1 DUP3 ADD MSTORE PUSH32 0x496E707574206279746573206C656E6774682065786365656473207468652063 PUSH1 0x40 DUP3 ADD MSTORE PUSH16 0x6C61696D6564206C6F67322073697A65 PUSH1 0x80 SHL PUSH1 0x60 DUP3 ADD MSTORE PUSH1 0x80 ADD SWAP1 JUMP JUMPDEST PUSH1 0x20 DUP1 DUP3 MSTORE PUSH1 0x26 SWAP1 DUP3 ADD MSTORE PUSH32 0x53746174652073686F756C642062652057616974696E674368616C6C656E6765 PUSH1 0x40 DUP3 ADD MSTORE PUSH6 0x447269766573 PUSH1 0xD0 SHL PUSH1 0x60 DUP3 ADD MSTORE PUSH1 0x80 ADD SWAP1 JUMP JUMPDEST PUSH1 0x20 DUP1 DUP3 MSTORE PUSH1 0x13 SWAP1 DUP3 ADD MSTORE PUSH19 0x92DCECC2D8D2C840C8E4D2ECCA40D2DCC8CAF PUSH1 0x6B SHL PUSH1 0x40 DUP3 ADD MSTORE PUSH1 0x60 ADD SWAP1 JUMP JUMPDEST PUSH1 0x20 DUP1 DUP3 MSTORE PUSH1 0x29 SWAP1 DUP3 ADD MSTORE PUSH32 0x43616E6E6F7420646573747275637420696E7374616E63652061742063757272 PUSH1 0x40 DUP3 ADD MSTORE PUSH9 0x656E74207374617465 PUSH1 0xB8 SHL PUSH1 0x60 DUP3 ADD MSTORE PUSH1 0x80 ADD SWAP1 JUMP JUMPDEST PUSH1 0x20 DUP1 DUP3 MSTORE PUSH1 0x1A SWAP1 DUP3 ADD MSTORE PUSH32 0x43616E6E6F742061626F72742063757272656E74207374617465000000000000 PUSH1 0x40 DUP3 ADD MSTORE PUSH1 0x60 ADD SWAP1 JUMP JUMPDEST PUSH1 0x20 DUP1 DUP3 MSTORE PUSH1 0x12 SWAP1 DUP3 ADD MSTORE PUSH18 0x556E7265636F676E697A6564207374617465 PUSH1 0x70 SHL PUSH1 0x40 DUP3 ADD MSTORE PUSH1 0x60 ADD SWAP1 JUMP JUMPDEST PUSH1 0x20 DUP1 DUP3 MSTORE PUSH1 0x21 SWAP1 DUP3 ADD MSTORE PUSH32 0x546865207374617465206973206E6F742057616974696E6750726F7669646572 PUSH1 0x40 DUP3 ADD MSTORE PUSH1 0x73 PUSH1 0xF8 SHL PUSH1 0x60 DUP3 ADD MSTORE PUSH1 0x80 ADD SWAP1 JUMP JUMPDEST PUSH1 0x20 DUP1 DUP3 MSTORE PUSH1 0x1B SWAP1 DUP3 ADD MSTORE PUSH32 0x4E6F20617661696C61626C652070656E64696E67206472697665730000000000 PUSH1 0x40 DUP3 ADD MSTORE PUSH1 0x60 ADD SWAP1 JUMP JUMPDEST PUSH1 0x20 DUP1 DUP3 MSTORE PUSH1 0x1A SWAP1 DUP3 ADD MSTORE PUSH32 0x5468652073656E646572206973206E6F742070726F7669646572000000000000 PUSH1 0x40 DUP3 ADD MSTORE PUSH1 0x60 ADD SWAP1 JUMP JUMPDEST PUSH1 0x20 DUP1 DUP3 MSTORE PUSH1 0x28 SWAP1 DUP3 ADD MSTORE PUSH32 0x53656E6465722068617320616C7265616479206368616C6C656E676564206F72 PUSH1 0x40 DUP3 ADD MSTORE PUSH8 0x818DB185A5B5959 PUSH1 0xC2 SHL PUSH1 0x60 DUP3 ADD MSTORE PUSH1 0x80 ADD SWAP1 JUMP JUMPDEST PUSH1 0x20 DUP1 DUP3 MSTORE PUSH1 0x1A SWAP1 DUP3 ADD MSTORE PUSH32 0x6E656564734C6F676765722073686F756C642062652074727565000000000000 PUSH1 0x40 DUP3 ADD MSTORE PUSH1 0x60 ADD SWAP1 JUMP JUMPDEST PUSH1 0x20 DUP1 DUP3 MSTORE PUSH1 0x2C SWAP1 DUP3 ADD MSTORE PUSH32 0x726F756E64206475726174696F6E2068617320746F206265206174206C656173 PUSH1 0x40 DUP3 ADD MSTORE PUSH12 0x74203530207365636F6E6473 PUSH1 0xA0 SHL PUSH1 0x60 DUP3 ADD MSTORE PUSH1 0x80 ADD SWAP1 JUMP JUMPDEST PUSH1 0x20 DUP1 DUP3 MSTORE PUSH1 0x33 SWAP1 DUP3 ADD MSTORE PUSH32 0x5374617465206973206E6F742057616974696E674368616C6C656E6765526573 PUSH1 0x40 DUP3 ADD MSTORE PUSH19 0x756C742C2063616E6E6F742077696E42795647 PUSH1 0x68 SHL PUSH1 0x60 DUP3 ADD MSTORE PUSH1 0x80 ADD SWAP1 JUMP JUMPDEST PUSH1 0x20 DUP1 DUP3 MSTORE PUSH1 0x27 SWAP1 DUP3 ADD MSTORE PUSH32 0x64697265637456616C75652068617320746F206265206174206C65617374206F PUSH1 0x40 DUP3 ADD MSTORE PUSH7 0x1B99481DDBDC99 PUSH1 0xCA SHL PUSH1 0x60 DUP3 ADD MSTORE PUSH1 0x80 ADD SWAP1 JUMP JUMPDEST PUSH1 0x20 DUP1 DUP3 MSTORE PUSH1 0x22 SWAP1 DUP3 ADD MSTORE PUSH32 0x54686520647269766520686173682073686F756C646E27742062652066696C6C PUSH1 0x40 DUP3 ADD MSTORE PUSH2 0x1959 PUSH1 0xF2 SHL PUSH1 0x60 DUP3 ADD MSTORE PUSH1 0x80 ADD SWAP1 JUMP JUMPDEST PUSH1 0x20 DUP1 DUP3 MSTORE PUSH1 0x2C SWAP1 DUP3 ADD MSTORE PUSH32 0x4F7574707574206C656E67746820646F65736E2774206D61746368206F757470 PUSH1 0x40 DUP3 ADD MSTORE PUSH12 0x7574206C6F67322073697A65 PUSH1 0xA0 SHL PUSH1 0x60 DUP3 ADD MSTORE PUSH1 0x80 ADD SWAP1 JUMP JUMPDEST PUSH1 0x20 DUP1 DUP3 MSTORE PUSH1 0x27 SWAP1 DUP3 ADD MSTORE PUSH32 0x4F6E6C7920636F6E6365726E65642075736572732063616E206368616C6C656E PUSH1 0x40 DUP3 ADD MSTORE PUSH7 0x67447269766573 PUSH1 0xC8 SHL PUSH1 0x60 DUP3 ADD MSTORE PUSH1 0x80 ADD SWAP1 JUMP JUMPDEST PUSH1 0x20 DUP1 DUP3 MSTORE PUSH1 0x1B SWAP1 DUP3 ADD MSTORE PUSH32 0x7761697450726F76696465722073686F756C6420626520747275650000000000 PUSH1 0x40 DUP3 ADD MSTORE PUSH1 0x60 ADD SWAP1 JUMP JUMPDEST PUSH1 0x20 DUP1 DUP3 MSTORE PUSH1 0x18 SWAP1 DUP3 ADD MSTORE PUSH24 0x14DD185D19481BD9881591C81A5CC81B9BDD08199A5B985B PUSH1 0x42 SHL PUSH1 0x40 DUP3 ADD MSTORE PUSH1 0x60 ADD SWAP1 JUMP JUMPDEST PUSH1 0x20 DUP1 DUP3 MSTORE PUSH1 0x1F SWAP1 DUP3 ADD MSTORE PUSH32 0x546865207374617465206973206E6F742057616974696E6752657665616C7300 PUSH1 0x40 DUP3 ADD MSTORE PUSH1 0x60 ADD SWAP1 JUMP JUMPDEST PUSH1 0x20 DUP1 DUP3 MSTORE PUSH1 0x28 SWAP1 DUP3 ADD MSTORE PUSH32 0x5468652073656E646572206973206E6F7420706172747920746F207468697320 PUSH1 0x40 DUP3 ADD MSTORE PUSH8 0x696E7374616E6365 PUSH1 0xC0 SHL PUSH1 0x60 DUP3 ADD MSTORE PUSH1 0x80 ADD SWAP1 JUMP JUMPDEST SWAP2 DUP3 MSTORE PUSH1 0x1 PUSH1 0x1 PUSH1 0xA0 SHL SUB AND PUSH1 0x20 DUP3 ADD MSTORE PUSH1 0x40 ADD SWAP1 JUMP JUMPDEST SWAP2 DUP3 MSTORE PUSH1 0x20 DUP3 ADD MSTORE PUSH1 0x40 ADD SWAP1 JUMP JUMPDEST PUSH1 0x0 DUP4 DUP3 MSTORE PUSH1 0x40 PUSH1 0x20 DUP4 ADD MSTORE DUP3 SLOAD PUSH2 0x5CD4 PUSH1 0x40 DUP5 ADD PUSH1 0x1 PUSH1 0x1 PUSH1 0x40 SHL SUB DUP4 AND PUSH2 0x5165 JUMP JUMPDEST PUSH2 0x5CE7 PUSH1 0x60 DUP5 ADD PUSH1 0xFF DUP4 PUSH1 0x40 SHR AND PUSH2 0x5172 JUMP JUMPDEST POP PUSH2 0x100 DUP1 PUSH1 0x80 DUP5 ADD MSTORE PUSH2 0x5D02 PUSH2 0x140 DUP5 ADD PUSH1 0x1 DUP7 ADD PUSH2 0x50AD JUMP JUMPDEST DUP4 DUP2 SUB PUSH1 0x3F NOT ADD PUSH1 0xA0 DUP6 ADD MSTORE PUSH2 0x5D1B DUP2 PUSH1 0x2 DUP8 ADD PUSH2 0x50AD JUMP JUMPDEST PUSH1 0x3 DUP7 ADD SLOAD PUSH1 0xC0 DUP7 ADD MSTORE PUSH1 0x4 DUP7 ADD SLOAD SWAP1 SWAP2 POP PUSH2 0x5D43 PUSH1 0xE0 DUP7 ADD PUSH1 0x1 PUSH1 0x1 PUSH1 0xA0 SHL SUB DUP4 AND PUSH2 0x4F13 JUMP JUMPDEST PUSH2 0x5D55 DUP4 DUP7 ADD PUSH1 0xFF DUP4 PUSH1 0xA0 SHR AND PUSH2 0x507B JUMP JUMPDEST PUSH2 0x5D69 PUSH2 0x120 DUP7 ADD PUSH1 0xFF DUP4 PUSH1 0xA8 SHR AND PUSH2 0x507B JUMP JUMPDEST POP SWAP6 SWAP5 POP POP POP POP POP JUMP JUMPDEST SWAP5 DUP6 MSTORE PUSH1 0x20 DUP6 ADD SWAP4 SWAP1 SWAP4 MSTORE PUSH1 0x40 DUP5 ADD SWAP2 SWAP1 SWAP2 MSTORE PUSH1 0x60 DUP4 ADD MSTORE PUSH1 0x80 DUP3 ADD MSTORE PUSH1 0xA0 ADD SWAP1 JUMP JUMPDEST PUSH1 0x0 PUSH1 0x1 PUSH1 0x1 PUSH1 0x40 SHL SUB DUP7 AND DUP3 MSTORE PUSH1 0xFF DUP6 AND PUSH1 0x20 DUP4 ADD MSTORE DUP4 PUSH1 0x40 DUP4 ADD MSTORE PUSH1 0x80 PUSH1 0x60 DUP4 ADD MSTORE PUSH2 0x5318 PUSH1 0x80 DUP4 ADD DUP5 PUSH2 0x4F63 JUMP JUMPDEST PUSH1 0xFF SWAP2 SWAP1 SWAP2 AND DUP2 MSTORE PUSH1 0x20 ADD SWAP1 JUMP JUMPDEST PUSH1 0x40 MLOAD DUP2 DUP2 ADD PUSH1 0x1 PUSH1 0x1 PUSH1 0x40 SHL SUB DUP2 GT DUP3 DUP3 LT OR ISZERO PUSH2 0x5DF0 JUMPI INVALID JUMPDEST PUSH1 0x40 MSTORE SWAP2 SWAP1 POP JUMP JUMPDEST PUSH1 0x0 PUSH1 0x1 PUSH1 0x1 PUSH1 0x40 SHL SUB DUP3 GT ISZERO PUSH2 0x5E0B JUMPI INVALID JUMPDEST POP PUSH1 0x20 SWAP1 DUP2 MUL ADD SWAP1 JUMP JUMPDEST PUSH1 0x0 SWAP1 DUP2 MSTORE PUSH1 0x20 SWAP1 KECCAK256 SWAP1 JUMP JUMPDEST PUSH1 0x0 JUMPDEST DUP4 DUP2 LT ISZERO PUSH2 0x5E3C JUMPI DUP2 DUP2 ADD MLOAD DUP4 DUP3 ADD MSTORE PUSH1 0x20 ADD PUSH2 0x5E24 JUMP JUMPDEST DUP4 DUP2 GT ISZERO PUSH2 0x34F9 JUMPI POP POP PUSH1 0x0 SWAP2 ADD MSTORE JUMP JUMPDEST DUP1 ISZERO ISZERO DUP2 EQ PUSH2 0x4934 JUMPI PUSH1 0x0 DUP1 REVERT INVALID CODECOPY SSTORE CALLVALUE 0xA9 0x48 DUP3 POP 0xC4 0xEA ORIGIN SGT PUSH11 0xC7CD156150898B4530EC3A MSIZE DUP6 0xE3 0xCE PUSH11 0x50D2B36F496E646578206E PUSH16 0x7420696E7374616E7469617465640000 STOP STOP STOP STOP STOP STOP STOP STOP LOG2 PUSH5 0x6970667358 0x22 SLT KECCAK256 LOG3 INVALID 0x1F JUMPDEST PUSH3 0xDB23C6 0x48 0x22 0xA6 0xBC COINBASE LOG1 JUMP PC 0xEC ADDMOD 0xD1 0x4B STOP MLOAD PUSH25 0xDB58C478380A04D32A64736F6C634300070400330000000000 "
    },
    "gasEstimates": {
      "creation": {
        "codeDepositCost": "4854600",
        "executionCost": "infinite",
        "totalCost": "infinite"
      },
      "external": {
        "abortByDeadline(uint256)": "infinite",
        "challenge(uint256)": "infinite",
        "challengeDrives(uint256)": "infinite",
        "confirm(uint256)": "infinite",
        "currentIndex()": "1074",
        "destruct(uint256)": "infinite",
        "getCurrentState(uint256)": "infinite",
        "getNonce(uint256)": "infinite",
        "getPartyState(uint256,address)": "infinite",
        "getResult(uint256)": "infinite",
        "getState(uint256,address)": "infinite",
        "getSubInstances(uint256,address)": "infinite",
        "instantiate(uint256,bytes32,uint64,uint8,uint256,address[],(uint64,uint8,bytes,bytes,bytes32,address,bool,bool)[])": "infinite",
        "isActive(uint256)": "1256",
        "isConcerned(uint256,address)": "infinite",
        "provideDirectDrive(uint256,bytes)": "infinite",
        "provideLoggerDrive(uint256,bytes32)": "infinite",
        "revealLoggerDrive(uint256)": "infinite",
        "submitClaim(uint256,bytes32,bytes32[][],bytes,bytes32[])": "infinite",
        "winByVG(uint256)": "infinite"
      },
      "internal": {
        "getMaxStateDuration(uint256)": "infinite",
        "getWordHashesFromBytes(bytes memory)": "infinite",
        "getWordHashesFromBytes32(bytes32)": "infinite"
      }
    },
    "methodIdentifiers": {
      "abortByDeadline(uint256)": "4c6fe7bf",
      "challenge(uint256)": "ab82d9a0",
      "challengeDrives(uint256)": "bfda2e72",
      "confirm(uint256)": "ba0179b5",
      "currentIndex()": "26987b60",
      "destruct(uint256)": "c87e3ae9",
      "getCurrentState(uint256)": "5748c130",
      "getNonce(uint256)": "3d46b819",
      "getPartyState(uint256,address)": "ab5da187",
      "getResult(uint256)": "995e4339",
      "getState(uint256,address)": "73df1612",
      "getSubInstances(uint256,address)": "c526656c",
      "instantiate(uint256,bytes32,uint64,uint8,uint256,address[],(uint64,uint8,bytes,bytes,bytes32,address,bool,bool)[])": "c817592d",
      "isActive(uint256)": "82afd23b",
      "isConcerned(uint256,address)": "01ff62ab",
      "provideDirectDrive(uint256,bytes)": "fa0ecc5b",
      "provideLoggerDrive(uint256,bytes32)": "c70683ca",
      "revealLoggerDrive(uint256)": "f9bc3b21",
      "submitClaim(uint256,bytes32,bytes32[][],bytes,bytes32[])": "351e6657",
      "winByVG(uint256)": "ded4df63"
    }
  },
  "storageLayout": {
    "storage": [
      {
        "astId": 468,
        "contract": "cache/solpp-generated-contracts/CartesiCompute.sol:CartesiCompute",
        "label": "currentIndex",
        "offset": 0,
        "slot": "0",
        "type": "t_uint256"
      },
      {
        "astId": 472,
        "contract": "cache/solpp-generated-contracts/CartesiCompute.sol:CartesiCompute",
        "label": "active",
        "offset": 0,
        "slot": "1",
        "type": "t_mapping(t_uint256,t_bool)"
      },
      {
        "astId": 476,
        "contract": "cache/solpp-generated-contracts/CartesiCompute.sol:CartesiCompute",
        "label": "nonce",
        "offset": 0,
        "slot": "2",
        "type": "t_mapping(t_uint256,t_uint256)"
      },
      {
        "astId": 963,
        "contract": "cache/solpp-generated-contracts/CartesiCompute.sol:CartesiCompute",
        "label": "machine",
        "offset": 0,
        "slot": "3",
        "type": "t_address"
      },
      {
        "astId": 965,
        "contract": "cache/solpp-generated-contracts/CartesiCompute.sol:CartesiCompute",
        "label": "li",
        "offset": 0,
        "slot": "4",
        "type": "t_contract(LoggerInterface)378"
      },
      {
        "astId": 967,
        "contract": "cache/solpp-generated-contracts/CartesiCompute.sol:CartesiCompute",
        "label": "vg",
        "offset": 0,
        "slot": "5",
        "type": "t_contract(VGInterface)356"
      },
      {
        "astId": 1028,
        "contract": "cache/solpp-generated-contracts/CartesiCompute.sol:CartesiCompute",
        "label": "instance",
        "offset": 0,
        "slot": "6",
        "type": "t_mapping(t_uint256,t_struct(CartesiComputeCtx)1024_storage)"
      }
    ],
    "types": {
      "t_address": {
        "encoding": "inplace",
        "label": "address",
        "numberOfBytes": "20"
      },
      "t_array(t_address)dyn_storage": {
        "base": "t_address",
        "encoding": "dynamic_array",
        "label": "address[]",
        "numberOfBytes": "32"
      },
      "t_array(t_bytes32)dyn_storage": {
        "base": "t_bytes32",
        "encoding": "dynamic_array",
        "label": "bytes32[]",
        "numberOfBytes": "32"
      },
      "t_array(t_struct(Drive)4041_storage)dyn_storage": {
        "base": "t_struct(Drive)4041_storage",
        "encoding": "dynamic_array",
        "label": "struct CartesiComputeInterface.Drive[]",
        "numberOfBytes": "32"
      },
      "t_array(t_uint256)dyn_storage": {
        "base": "t_uint256",
        "encoding": "dynamic_array",
        "label": "uint256[]",
        "numberOfBytes": "32"
      },
      "t_bool": {
        "encoding": "inplace",
        "label": "bool",
        "numberOfBytes": "1"
      },
      "t_bytes32": {
        "encoding": "inplace",
        "label": "bytes32",
        "numberOfBytes": "32"
      },
      "t_bytes_storage": {
        "encoding": "bytes",
        "label": "bytes",
        "numberOfBytes": "32"
      },
      "t_contract(LoggerInterface)378": {
        "encoding": "inplace",
        "label": "contract LoggerInterface",
        "numberOfBytes": "20"
      },
      "t_contract(VGInterface)356": {
        "encoding": "inplace",
        "label": "contract VGInterface",
        "numberOfBytes": "20"
      },
      "t_enum(State)4024": {
        "encoding": "inplace",
        "label": "enum CartesiComputeInterface.State",
        "numberOfBytes": "1"
      },
      "t_mapping(t_address,t_struct(Party)4050_storage)": {
        "encoding": "mapping",
        "key": "t_address",
        "label": "mapping(address => struct CartesiComputeInterface.Party)",
        "numberOfBytes": "32",
        "value": "t_struct(Party)4050_storage"
      },
      "t_mapping(t_uint256,t_bool)": {
        "encoding": "mapping",
        "key": "t_uint256",
        "label": "mapping(uint256 => bool)",
        "numberOfBytes": "32",
        "value": "t_bool"
      },
      "t_mapping(t_uint256,t_struct(CartesiComputeCtx)1024_storage)": {
        "encoding": "mapping",
        "key": "t_uint256",
        "label": "mapping(uint256 => struct CartesiCompute.CartesiComputeCtx)",
        "numberOfBytes": "32",
        "value": "t_struct(CartesiComputeCtx)1024_storage"
      },
      "t_mapping(t_uint256,t_uint256)": {
        "encoding": "mapping",
        "key": "t_uint256",
        "label": "mapping(uint256 => uint256)",
        "numberOfBytes": "32",
        "value": "t_uint256"
      },
      "t_struct(CartesiComputeCtx)1024_storage": {
        "encoding": "inplace",
        "label": "struct CartesiCompute.CartesiComputeCtx",
        "members": [
          {
            "astId": 969,
            "contract": "cache/solpp-generated-contracts/CartesiCompute.sol:CartesiCompute",
            "label": "owner",
            "offset": 0,
            "slot": "0",
            "type": "t_address"
          },
          {
            "astId": 971,
            "contract": "cache/solpp-generated-contracts/CartesiCompute.sol:CartesiCompute",
            "label": "revealDrivesPointer",
            "offset": 0,
            "slot": "1",
            "type": "t_uint256"
          },
          {
            "astId": 973,
            "contract": "cache/solpp-generated-contracts/CartesiCompute.sol:CartesiCompute",
            "label": "providerDrivesPointer",
            "offset": 0,
            "slot": "2",
            "type": "t_uint256"
          },
          {
            "astId": 975,
            "contract": "cache/solpp-generated-contracts/CartesiCompute.sol:CartesiCompute",
            "label": "finalTime",
            "offset": 0,
            "slot": "3",
            "type": "t_uint256"
          },
          {
            "astId": 977,
            "contract": "cache/solpp-generated-contracts/CartesiCompute.sol:CartesiCompute",
            "label": "outputPosition",
            "offset": 0,
            "slot": "4",
            "type": "t_uint64"
          },
          {
            "astId": 979,
            "contract": "cache/solpp-generated-contracts/CartesiCompute.sol:CartesiCompute",
            "label": "outputLog2Size",
            "offset": 8,
            "slot": "4",
            "type": "t_uint8"
          },
          {
            "astId": 981,
            "contract": "cache/solpp-generated-contracts/CartesiCompute.sol:CartesiCompute",
            "label": "roundDuration",
            "offset": 0,
            "slot": "5",
            "type": "t_uint256"
          },
          {
            "astId": 983,
            "contract": "cache/solpp-generated-contracts/CartesiCompute.sol:CartesiCompute",
            "label": "timeOfLastMove",
            "offset": 0,
            "slot": "6",
            "type": "t_uint256"
          },
          {
            "astId": 985,
            "contract": "cache/solpp-generated-contracts/CartesiCompute.sol:CartesiCompute",
            "label": "vgInstance",
            "offset": 0,
            "slot": "7",
            "type": "t_uint256"
          },
          {
            "astId": 987,
            "contract": "cache/solpp-generated-contracts/CartesiCompute.sol:CartesiCompute",
            "label": "templateHash",
            "offset": 0,
            "slot": "8",
            "type": "t_bytes32"
          },
          {
            "astId": 989,
            "contract": "cache/solpp-generated-contracts/CartesiCompute.sol:CartesiCompute",
            "label": "initialHash",
            "offset": 0,
            "slot": "9",
            "type": "t_bytes32"
          },
          {
            "astId": 991,
            "contract": "cache/solpp-generated-contracts/CartesiCompute.sol:CartesiCompute",
            "label": "claimedFinalHash",
            "offset": 0,
            "slot": "10",
            "type": "t_bytes32"
          },
          {
            "astId": 993,
            "contract": "cache/solpp-generated-contracts/CartesiCompute.sol:CartesiCompute",
            "label": "claimedOutput",
            "offset": 0,
            "slot": "11",
            "type": "t_bytes_storage"
          },
          {
            "astId": 996,
            "contract": "cache/solpp-generated-contracts/CartesiCompute.sol:CartesiCompute",
            "label": "partiesArray",
            "offset": 0,
            "slot": "12",
            "type": "t_array(t_address)dyn_storage"
          },
          {
            "astId": 999,
            "contract": "cache/solpp-generated-contracts/CartesiCompute.sol:CartesiCompute",
            "label": "confirmedParties",
            "offset": 0,
            "slot": "13",
            "type": "t_array(t_address)dyn_storage"
          },
          {
            "astId": 1001,
            "contract": "cache/solpp-generated-contracts/CartesiCompute.sol:CartesiCompute",
            "label": "claimer",
            "offset": 0,
            "slot": "14",
            "type": "t_uint64"
          },
          {
            "astId": 1003,
            "contract": "cache/solpp-generated-contracts/CartesiCompute.sol:CartesiCompute",
            "label": "currentChallenger",
            "offset": 8,
            "slot": "14",
            "type": "t_uint64"
          },
          {
            "astId": 1005,
            "contract": "cache/solpp-generated-contracts/CartesiCompute.sol:CartesiCompute",
            "label": "votesCounter",
            "offset": 16,
            "slot": "14",
            "type": "t_uint64"
          },
          {
            "astId": 1009,
            "contract": "cache/solpp-generated-contracts/CartesiCompute.sol:CartesiCompute",
            "label": "parties",
            "offset": 0,
            "slot": "15",
            "type": "t_mapping(t_address,t_struct(Party)4050_storage)"
          },
          {
            "astId": 1011,
            "contract": "cache/solpp-generated-contracts/CartesiCompute.sol:CartesiCompute",
            "label": "currentState",
            "offset": 0,
            "slot": "16",
            "type": "t_enum(State)4024"
          },
          {
            "astId": 1014,
            "contract": "cache/solpp-generated-contracts/CartesiCompute.sol:CartesiCompute",
            "label": "revealDrives",
            "offset": 0,
            "slot": "17",
            "type": "t_array(t_uint256)dyn_storage"
          },
          {
            "astId": 1017,
            "contract": "cache/solpp-generated-contracts/CartesiCompute.sol:CartesiCompute",
            "label": "providerDrives",
            "offset": 0,
            "slot": "18",
            "type": "t_array(t_uint256)dyn_storage"
          },
          {
            "astId": 1020,
            "contract": "cache/solpp-generated-contracts/CartesiCompute.sol:CartesiCompute",
            "label": "driveHash",
            "offset": 0,
            "slot": "19",
            "type": "t_array(t_bytes32)dyn_storage"
          },
          {
            "astId": 1023,
            "contract": "cache/solpp-generated-contracts/CartesiCompute.sol:CartesiCompute",
            "label": "inputDrives",
            "offset": 0,
            "slot": "20",
            "type": "t_array(t_struct(Drive)4041_storage)dyn_storage"
          }
        ],
        "numberOfBytes": "672"
      },
      "t_struct(Drive)4041_storage": {
        "encoding": "inplace",
        "label": "struct CartesiComputeInterface.Drive",
        "members": [
          {
            "astId": 4026,
            "contract": "cache/solpp-generated-contracts/CartesiCompute.sol:CartesiCompute",
            "label": "position",
            "offset": 0,
            "slot": "0",
            "type": "t_uint64"
          },
          {
            "astId": 4028,
            "contract": "cache/solpp-generated-contracts/CartesiCompute.sol:CartesiCompute",
            "label": "driveLog2Size",
            "offset": 8,
            "slot": "0",
            "type": "t_uint8"
          },
          {
            "astId": 4030,
            "contract": "cache/solpp-generated-contracts/CartesiCompute.sol:CartesiCompute",
            "label": "directValue",
            "offset": 0,
            "slot": "1",
            "type": "t_bytes_storage"
          },
          {
            "astId": 4032,
            "contract": "cache/solpp-generated-contracts/CartesiCompute.sol:CartesiCompute",
            "label": "loggerIpfsPath",
            "offset": 0,
            "slot": "2",
            "type": "t_bytes_storage"
          },
          {
            "astId": 4034,
            "contract": "cache/solpp-generated-contracts/CartesiCompute.sol:CartesiCompute",
            "label": "loggerRootHash",
            "offset": 0,
            "slot": "3",
            "type": "t_bytes32"
          },
          {
            "astId": 4036,
            "contract": "cache/solpp-generated-contracts/CartesiCompute.sol:CartesiCompute",
            "label": "provider",
            "offset": 0,
            "slot": "4",
            "type": "t_address"
          },
          {
            "astId": 4038,
            "contract": "cache/solpp-generated-contracts/CartesiCompute.sol:CartesiCompute",
            "label": "waitsProvider",
            "offset": 20,
            "slot": "4",
            "type": "t_bool"
          },
          {
            "astId": 4040,
            "contract": "cache/solpp-generated-contracts/CartesiCompute.sol:CartesiCompute",
            "label": "needsLogger",
            "offset": 21,
            "slot": "4",
            "type": "t_bool"
          }
        ],
        "numberOfBytes": "160"
      },
      "t_struct(Party)4050_storage": {
        "encoding": "inplace",
        "label": "struct CartesiComputeInterface.Party",
        "members": [
          {
            "astId": 4043,
            "contract": "cache/solpp-generated-contracts/CartesiCompute.sol:CartesiCompute",
            "label": "isParty",
            "offset": 0,
            "slot": "0",
            "type": "t_bool"
          },
          {
            "astId": 4045,
            "contract": "cache/solpp-generated-contracts/CartesiCompute.sol:CartesiCompute",
            "label": "hasVoted",
            "offset": 1,
            "slot": "0",
            "type": "t_bool"
          },
          {
            "astId": 4047,
            "contract": "cache/solpp-generated-contracts/CartesiCompute.sol:CartesiCompute",
            "label": "hasCheated",
            "offset": 2,
            "slot": "0",
            "type": "t_bool"
          },
          {
            "astId": 4049,
            "contract": "cache/solpp-generated-contracts/CartesiCompute.sol:CartesiCompute",
            "label": "arrayIdx",
            "offset": 3,
            "slot": "0",
            "type": "t_uint64"
          }
        ],
        "numberOfBytes": "32"
      },
      "t_uint256": {
        "encoding": "inplace",
        "label": "uint256",
        "numberOfBytes": "32"
      },
      "t_uint64": {
        "encoding": "inplace",
        "label": "uint64",
        "numberOfBytes": "8"
      },
      "t_uint8": {
        "encoding": "inplace",
        "label": "uint8",
        "numberOfBytes": "1"
      }
    }
  },
  "userdoc": {
    "kind": "user",
    "methods": {
      "abortByDeadline(uint256)": {
        "notice": "Abort the instance by missing deadline."
      },
      "challenge(uint256)": {
        "notice": "Challenger disputes the claim, starting a verification game."
      },
      "challengeDrives(uint256)": {
        "notice": "User requesting content of all drives to be revealed."
      },
      "confirm(uint256)": {
        "notice": "Party confirms the claim"
      },
      "destruct(uint256)": {
        "notice": "Deactivate a Cartesi Compute SDK instance."
      },
      "getResult(uint256)": {
        "notice": "Get result of a finished instance."
      },
      "getState(uint256,address)": {
        "notice": "Get state of the instance concerning given user."
      },
      "getSubInstances(uint256,address)": {
        "notice": "Get sub-instances of the instance."
      },
      "instantiate(uint256,bytes32,uint64,uint8,uint256,address[],(uint64,uint8,bytes,bytes,bytes32,address,bool,bool)[])": {
        "notice": "Instantiate a Cartesi Compute SDK instance."
      },
      "isConcerned(uint256,address)": {
        "notice": "Is the given user concern about this instance."
      },
      "provideDirectDrive(uint256,bytes)": {
        "notice": "Provide the content of a direct drive (only drive provider can call it)."
      },
      "provideLoggerDrive(uint256,bytes32)": {
        "notice": "Provide the root hash of a logger drive (only drive provider can call it)."
      },
      "revealLoggerDrive(uint256)": {
        "notice": "Reveal the content of a logger drive (only drive provider can call it)."
      },
      "submitClaim(uint256,bytes32,bytes32[][],bytes,bytes32[])": {
        "notice": "Claimer claims the machine final hash and also validate the drives and initial hash of the machine."
      },
      "winByVG(uint256)": {
        "notice": "In case one of the parties wins the verification game,         then he or she can call this function to claim victory in         this contract as well."
      }
    },
    "version": 1
  }
}