{
  "contractName": "Descartes",
  "sourceName": "cache/solpp-generated-contracts/Descartes.sol",
  "abi": [
    {
      "inputs": [
        {
          "internalType": "address",
          "name": "_liAddress",
          "type": "address"
        },
        {
          "internalType": "address",
          "name": "_vgAddress",
          "type": "address"
        },
        {
          "internalType": "address",
          "name": "_machineAddress",
          "type": "address"
        }
      ],
      "stateMutability": "nonpayable",
      "type": "constructor"
    },
    {
      "anonymous": false,
      "inputs": [
        {
          "indexed": false,
          "internalType": "uint256",
          "name": "_index",
          "type": "uint256"
        }
      ],
      "name": "ChallengeStarted",
      "type": "event"
    },
    {
      "anonymous": false,
      "inputs": [
        {
          "indexed": false,
          "internalType": "uint256",
          "name": "_index",
          "type": "uint256"
        },
        {
          "indexed": false,
          "internalType": "bytes32",
          "name": "_claimedFinalHash",
          "type": "bytes32"
        }
      ],
      "name": "ClaimSubmitted",
      "type": "event"
    },
    {
      "anonymous": false,
      "inputs": [
        {
          "indexed": false,
          "internalType": "uint256",
          "name": "_index",
          "type": "uint256"
        }
      ],
      "name": "DescartesCreated",
      "type": "event"
    },
    {
      "anonymous": false,
      "inputs": [
        {
          "indexed": false,
          "internalType": "uint256",
          "name": "_index",
          "type": "uint256"
        },
        {
          "indexed": false,
          "internalType": "uint8",
          "name": "_state",
          "type": "uint8"
        }
      ],
      "name": "DescartesFinished",
      "type": "event"
    },
    {
      "anonymous": false,
      "inputs": [
        {
          "indexed": false,
          "internalType": "uint256",
          "name": "_index",
          "type": "uint256"
        },
        {
          "components": [
            {
              "internalType": "uint64",
              "name": "position",
              "type": "uint64"
            },
            {
              "internalType": "uint8",
              "name": "driveLog2Size",
              "type": "uint8"
            },
            {
              "internalType": "bytes",
              "name": "directValue",
              "type": "bytes"
            },
            {
              "internalType": "bytes",
              "name": "loggerIpfsPath",
              "type": "bytes"
            },
            {
              "internalType": "bytes32",
              "name": "loggerRootHash",
              "type": "bytes32"
            },
            {
              "internalType": "address",
              "name": "provider",
              "type": "address"
            },
            {
              "internalType": "bool",
              "name": "waitsProvider",
              "type": "bool"
            },
            {
              "internalType": "bool",
              "name": "needsLogger",
              "type": "bool"
            }
          ],
          "indexed": false,
          "internalType": "struct DescartesInterface.Drive",
          "name": "_drive",
          "type": "tuple"
        }
      ],
      "name": "DriveInserted",
      "type": "event"
    },
    {
      "anonymous": false,
      "inputs": [
        {
          "indexed": false,
          "internalType": "uint256",
          "name": "_index",
          "type": "uint256"
        }
      ],
      "name": "ResultConfirmed",
      "type": "event"
    },
    {
      "inputs": [
        {
          "internalType": "uint256",
          "name": "_index",
          "type": "uint256"
        }
      ],
      "name": "abortByDeadline",
      "outputs": [],
      "stateMutability": "nonpayable",
      "type": "function"
    },
    {
      "inputs": [
        {
          "internalType": "uint256",
          "name": "_index",
          "type": "uint256"
        }
      ],
      "name": "challenge",
      "outputs": [],
      "stateMutability": "nonpayable",
      "type": "function"
    },
    {
      "inputs": [
        {
          "internalType": "uint256",
          "name": "_index",
          "type": "uint256"
        }
      ],
      "name": "challengeDrives",
      "outputs": [],
      "stateMutability": "nonpayable",
      "type": "function"
    },
    {
      "inputs": [],
      "name": "currentIndex",
      "outputs": [
        {
          "internalType": "uint256",
          "name": "",
          "type": "uint256"
        }
      ],
      "stateMutability": "view",
      "type": "function"
    },
    {
      "inputs": [
        {
          "internalType": "uint256",
          "name": "_index",
          "type": "uint256"
        }
      ],
      "name": "deactivate",
      "outputs": [],
      "stateMutability": "nonpayable",
      "type": "function"
    },
    {
      "inputs": [
        {
          "internalType": "uint256",
          "name": "_index",
          "type": "uint256"
        }
      ],
      "name": "destruct",
      "outputs": [],
      "stateMutability": "nonpayable",
      "type": "function"
    },
    {
      "inputs": [
        {
          "internalType": "uint256",
          "name": "_index",
          "type": "uint256"
        }
      ],
      "name": "getCurrentState",
      "outputs": [
        {
          "internalType": "bytes32",
          "name": "",
          "type": "bytes32"
        }
      ],
      "stateMutability": "view",
      "type": "function"
    },
    {
      "inputs": [
        {
          "internalType": "uint256",
          "name": "_index",
          "type": "uint256"
        }
      ],
      "name": "getNonce",
      "outputs": [
        {
          "internalType": "uint256",
          "name": "currentNonce",
          "type": "uint256"
        }
      ],
      "stateMutability": "view",
      "type": "function"
    },
    {
      "inputs": [
        {
          "internalType": "uint256",
          "name": "_index",
          "type": "uint256"
        },
        {
          "internalType": "address",
          "name": "_p",
          "type": "address"
        }
      ],
      "name": "getPartyState",
      "outputs": [
        {
          "internalType": "bool",
          "name": "isParty",
          "type": "bool"
        },
        {
          "internalType": "bool",
          "name": "hasVoted",
          "type": "bool"
        },
        {
          "internalType": "bool",
          "name": "hasCheated",
          "type": "bool"
        }
      ],
      "stateMutability": "view",
      "type": "function"
    },
    {
      "inputs": [
        {
          "internalType": "uint256",
          "name": "_index",
          "type": "uint256"
        }
      ],
      "name": "getResult",
      "outputs": [
        {
          "internalType": "bool",
          "name": "",
          "type": "bool"
        },
        {
          "internalType": "bool",
          "name": "",
          "type": "bool"
        },
        {
          "internalType": "address",
          "name": "",
          "type": "address"
        },
        {
          "internalType": "bytes",
          "name": "",
          "type": "bytes"
        }
      ],
      "stateMutability": "view",
      "type": "function"
    },
    {
      "inputs": [
        {
          "internalType": "uint256",
          "name": "_index",
          "type": "uint256"
        },
        {
          "internalType": "address",
          "name": "_user",
          "type": "address"
        }
      ],
      "name": "getState",
      "outputs": [
        {
          "internalType": "uint256[]",
          "name": "",
          "type": "uint256[]"
        },
        {
          "internalType": "address[]",
          "name": "",
          "type": "address[]"
        },
        {
          "internalType": "bytes32[]",
          "name": "",
          "type": "bytes32[]"
        },
        {
          "internalType": "bytes",
          "name": "",
          "type": "bytes"
        },
        {
          "components": [
            {
              "internalType": "uint64",
              "name": "position",
              "type": "uint64"
            },
            {
              "internalType": "uint8",
              "name": "driveLog2Size",
              "type": "uint8"
            },
            {
              "internalType": "bytes",
              "name": "directValue",
              "type": "bytes"
            },
            {
              "internalType": "bytes",
              "name": "loggerIpfsPath",
              "type": "bytes"
            },
            {
              "internalType": "bytes32",
              "name": "loggerRootHash",
              "type": "bytes32"
            },
            {
              "internalType": "address",
              "name": "provider",
              "type": "address"
            },
            {
              "internalType": "bool",
              "name": "waitsProvider",
              "type": "bool"
            },
            {
              "internalType": "bool",
              "name": "needsLogger",
              "type": "bool"
            }
          ],
          "internalType": "struct DescartesInterface.Drive[]",
          "name": "",
          "type": "tuple[]"
        },
        {
          "components": [
            {
              "internalType": "bool",
              "name": "isParty",
              "type": "bool"
            },
            {
              "internalType": "bool",
              "name": "hasVoted",
              "type": "bool"
            },
            {
              "internalType": "bool",
              "name": "hasCheated",
              "type": "bool"
            }
          ],
          "internalType": "struct DescartesInterface.Party",
          "name": "user",
          "type": "tuple"
        }
      ],
      "stateMutability": "view",
      "type": "function"
    },
    {
      "inputs": [
        {
          "internalType": "uint256",
          "name": "_index",
          "type": "uint256"
        },
        {
          "internalType": "address",
          "name": "",
          "type": "address"
        }
      ],
      "name": "getSubInstances",
      "outputs": [
        {
          "internalType": "address[]",
          "name": "_addresses",
          "type": "address[]"
        },
        {
          "internalType": "uint256[]",
          "name": "_indices",
          "type": "uint256[]"
        }
      ],
      "stateMutability": "view",
      "type": "function"
    },
    {
      "inputs": [
        {
          "internalType": "uint256",
          "name": "_finalTime",
          "type": "uint256"
        },
        {
          "internalType": "bytes32",
          "name": "_templateHash",
          "type": "bytes32"
        },
        {
          "internalType": "uint64",
          "name": "_outputPosition",
          "type": "uint64"
        },
        {
          "internalType": "uint8",
          "name": "_outputLog2Size",
          "type": "uint8"
        },
        {
          "internalType": "uint256",
          "name": "_roundDuration",
          "type": "uint256"
        },
        {
          "internalType": "address[]",
          "name": "parties",
          "type": "address[]"
        },
        {
          "components": [
            {
              "internalType": "uint64",
              "name": "position",
              "type": "uint64"
            },
            {
              "internalType": "uint8",
              "name": "driveLog2Size",
              "type": "uint8"
            },
            {
              "internalType": "bytes",
              "name": "directValue",
              "type": "bytes"
            },
            {
              "internalType": "bytes",
              "name": "loggerIpfsPath",
              "type": "bytes"
            },
            {
              "internalType": "bytes32",
              "name": "loggerRootHash",
              "type": "bytes32"
            },
            {
              "internalType": "address",
              "name": "provider",
              "type": "address"
            },
            {
              "internalType": "bool",
              "name": "waitsProvider",
              "type": "bool"
            },
            {
              "internalType": "bool",
              "name": "needsLogger",
              "type": "bool"
            }
          ],
          "internalType": "struct DescartesInterface.Drive[]",
          "name": "_inputDrives",
          "type": "tuple[]"
        }
      ],
      "name": "instantiate",
      "outputs": [
        {
          "internalType": "uint256",
          "name": "",
          "type": "uint256"
        }
      ],
      "stateMutability": "nonpayable",
      "type": "function"
    },
    {
      "inputs": [
        {
          "internalType": "uint256",
          "name": "_index",
          "type": "uint256"
        }
      ],
      "name": "isActive",
      "outputs": [
        {
          "internalType": "bool",
          "name": "",
          "type": "bool"
        }
      ],
      "stateMutability": "view",
      "type": "function"
    },
    {
      "inputs": [
        {
          "internalType": "uint256",
          "name": "_index",
          "type": "uint256"
        },
        {
          "internalType": "address",
          "name": "_user",
          "type": "address"
        }
      ],
      "name": "isConcerned",
      "outputs": [
        {
          "internalType": "bool",
          "name": "",
          "type": "bool"
        }
      ],
      "stateMutability": "view",
      "type": "function"
    },
    {
      "inputs": [
        {
          "internalType": "uint256",
          "name": "_index",
          "type": "uint256"
        },
        {
          "internalType": "bytes",
          "name": "_value",
          "type": "bytes"
        }
      ],
      "name": "provideDirectDrive",
      "outputs": [],
      "stateMutability": "nonpayable",
      "type": "function"
    },
    {
      "inputs": [
        {
          "internalType": "uint256",
          "name": "_index",
          "type": "uint256"
        },
        {
          "internalType": "bytes32",
          "name": "_root",
          "type": "bytes32"
        }
      ],
      "name": "provideLoggerDrive",
      "outputs": [],
      "stateMutability": "nonpayable",
      "type": "function"
    },
    {
      "inputs": [
        {
          "internalType": "uint256",
          "name": "_index",
          "type": "uint256"
        }
      ],
      "name": "revealLoggerDrive",
      "outputs": [],
      "stateMutability": "nonpayable",
      "type": "function"
    },
    {
      "inputs": [
        {
          "internalType": "uint256",
          "name": "_index",
          "type": "uint256"
        },
        {
          "internalType": "bytes32",
          "name": "_claimedFinalHash",
          "type": "bytes32"
        },
        {
          "internalType": "bytes32[][]",
          "name": "_drivesSiblings",
          "type": "bytes32[][]"
        },
        {
          "internalType": "bytes",
          "name": "_output",
          "type": "bytes"
        },
        {
          "internalType": "bytes32[]",
          "name": "_outputSiblings",
          "type": "bytes32[]"
        }
      ],
      "name": "submitClaim",
      "outputs": [],
      "stateMutability": "nonpayable",
      "type": "function"
    },
    {
      "inputs": [
        {
          "internalType": "uint256",
          "name": "_index",
          "type": "uint256"
        }
      ],
      "name": "winByVG",
      "outputs": [],
      "stateMutability": "nonpayable",
      "type": "function"
    }
  ],
  "bytecode": "0x6080604052600080553480156200001557600080fd5b50604051620056bf380380620056bf833981016040819052620000389162000099565b600380546001600160a01b03199081166001600160a01b039384161790915560058054821693831693909317909255600480549092169216919091179055620000e2565b80516001600160a01b03811681146200009457600080fd5b919050565b600080600060608486031215620000ae578283fd5b620000b9846200007c565b9250620000c9602085016200007c565b9150620000d9604085016200007c565b90509250925092565b6155cd80620000f26000396000f3fe608060405234801561001057600080fd5b506004361061012c5760003560e01c8063ab5da187116100ad578063c817592d11610071578063c817592d146102a7578063c87e3ae9146102ba578063ded4df63146102cd578063f9bc3b21146102e0578063fa0ecc5b146102f35761012c565b8063ab5da1871461022b578063ab82d9a01461024d578063bfda2e7214610260578063c526656c14610273578063c70683ca146102945761012c565b80635748c130116100f45780635748c130146101aa57806373df1612146101bd57806382afd23b146101e2578063916b9bef146101f5578063995e4339146102085761012c565b806301ff62ab1461013157806326987b601461015a578063351e66571461016f5780633d46b819146101845780634c6fe7bf14610197575b600080fd5b61014461013f3660046143ea565b610306565b6040516101519190614a11565b60405180910390f35b61016261037e565b6040516101519190614a74565b61018261017d366004614436565b610384565b005b6101626101923660046143d2565b6109fb565b6101826101a53660046143d2565b610aa5565b6101626101b83660046143d2565b610c0f565b6101d06101cb3660046143ea565b610ea6565b6040516101519695949392919061497a565b6101446101f03660046143d2565b6117eb565b6101826102033660046143d2565b611803565b61021b6102163660046143d2565b611826565b6040516101519493929190614a1c565b61023e6102393660046143ea565b611bad565b60405161015193929190614a5a565b61018261025b3660046143d2565b611c3d565b61018261026e3660046143d2565b611ec2565b6102866102813660046143ea565b611fa5565b604051610151929190614939565b6101826102a2366004614415565b6120de565b6101626102b536600461451e565b61256a565b6101826102c83660046143d2565b612d1a565b6101826102db3660046143d2565b612ec1565b6101826102ee3660046143d2565b6131b1565b61018261030136600461461d565b613533565b600082806000541161034d576040805162461bcd60e51b81526020600482015260166024820152600080516020615578833981519152604482015290519081900360640190fd5b505060009182526006602090815260408084206001600160a01b039390931684526010909201905290205460ff1690565b60005481565b8480600054116103c9576040805162461bcd60e51b81526020600482015260166024820152600080516020615578833981519152604482015290519081900360640190fd5b6000868152600660205260409020600c01546001600160a01b0316338114610433576040805162461bcd60e51b815260206004820152601860248201527721b0b73737ba1031329031b0b63632b210313c903ab9b2b960411b604482015290519081900360640190fd5b60008781526002602090815260408083208054600101905560069091528120889161045d83613b2a565b600683015401421190506004601183015460ff16600a81111561047c57fe5b14806104a257506002601183015460ff16600a81111561049857fe5b1480156104a25750805b6104c75760405162461bcd60e51b81526004016104be90614ca8565b60405180910390fd5b87516015830154146104eb5760405162461bcd60e51b81526004016104be90614bdb565b60048201548751600160401b90910460ff1660020a1461051d5760405162461bcd60e51b81526004016104be906151fe565b606061052888613e44565b6004848101546040516310561d5760e31b81529293508c9273__$c7dbd794b8c7b5c2028db781007df1176e$__9263d7304dd9926001600160401b03811692600160401b90910460ff169185916382b0eab891610587918a9101614967565b60206040518083038186803b15801561059f57600080fd5b505af41580156105b3573d6000803e3d6000fd5b505050506040513d601f19601f820116820180604052508101906105d791906143ba565b8c6040518563ffffffff1660e01b81526004016105f794939291906154b2565b60206040518083038186803b15801561060f57600080fd5b505af4158015610623573d6000803e3d6000fd5b505050506040513d601f19601f8201168201806040525081019061064791906143ba565b146106645760405162461bcd60e51b81526004016104be90614ad9565b601583015460005b818110156109555760608b828151811061068257fe5b60200260200101519050856009015473__$c7dbd794b8c7b5c2028db781007df1176e$__63d7304dd98860150185815481106106ba57fe5b600091825260209091206005909102015460158a0180546001600160401b0390921691879081106106e757fe5b906000526020600020906005020160000160089054906101000a900460ff1673__$c7dbd794b8c7b5c2028db781007df1176e$__63a73426888c601501898154811061072f57fe5b600091825260209091206005909102015460405160e083901b6001600160e01b031916815261076b91600160401b900460ff16906004016154e3565b60206040518083038186803b15801561078357600080fd5b505af4158015610797573d6000803e3d6000fd5b505050506040513d601f19601f820116820180604052508101906107bb91906143ba565b866040518563ffffffff1660e01b81526004016107db94939291906154b2565b60206040518083038186803b1580156107f357600080fd5b505af4158015610807573d6000803e3d6000fd5b505050506040513d601f19601f8201168201806040525081019061082b91906143ba565b146108485760405162461bcd60e51b81526004016104be90614b69565b73__$c7dbd794b8c7b5c2028db781007df1176e$__63d7304dd987601501848154811061087157fe5b60009182526020909120600590910201546015890180546001600160401b03909216918690811061089e57fe5b906000526020600020906005020160000160089054906101000a900460ff168960140186815481106108cc57fe5b9060005260206000200154856040518563ffffffff1660e01b81526004016108f794939291906154b2565b60206040518083038186803b15801561090f57600080fd5b505af4158015610923573d6000803e3d6000fd5b505050506040513d601f19601f8201168201806040525081019061094791906143ba565b60098701555060010161066c565b50600a84018b905560118401805460ff19166006179055885161098190600b86019060208c0190613f38565b50600c8401546001600160a01b0316600090815260108501602052604090819020805461ff001916610100179055426006860155517f1e9358f673ff367487ce56f136412ae5b69bf2c06e223aad2756d748c2a9b52a906109e5908e908e906153be565b60405180910390a1505050505050505050505050565b6000818060005411610a42576040805162461bcd60e51b81526020600482015260166024820152600080516020615578833981519152604482015290519081900360640190fd5b610a4b816117eb565b610a8d576040805162461bcd60e51b815260206004820152600e60248201526d496e64657820696e61637469766560901b604482015290519081900360640190fd5b60008381526002602052604090205491505b50919050565b808060005411610aea576040805162461bcd60e51b81526020600482015260166024820152600080516020615578833981519152604482015290519081900360640190fd5b600082815260066020526040812090610b0284613b2a565b8260060154014211905080610b295760405162461bcd60e51b81526004016104be90614ded565b6000601183015460ff16600a811115610b3e57fe5b1415610b61576011820180546001919060ff191682805b02179055505050610c0b565b6003601183015460ff16600a811115610b7657fe5b1415610b91576011820180546001919060ff19168280610b55565b6004601183015460ff16600a811115610ba657fe5b1415610bc2576011820180546005919060ff1916600183610b55565b6006601183015460ff16600a811115610bd757fe5b1415610bf357601182018054600a919060ff1916600183610b55565b60405162461bcd60e51b81526004016104be90614f45565b5050565b6000818060005411610c56576040805162461bcd60e51b81526020600482015260166024820152600080516020615578833981519152604482015290519081900360640190fd5b60008381526006602052604081206011015460ff169081600a811115610c7857fe5b1415610c9a576f57616974696e6750726f76696465727360801b925050610a9f565b600381600a811115610ca857fe5b1415610cc8576d57616974696e6752657665616c7360901b925050610a9f565b600281600a811115610cd657fe5b1415610cfe577557616974696e674368616c6c656e676544726976657360501b925050610a9f565b600581600a811115610d0c57fe5b1415610d335774436c61696d65724d6973736564446561646c696e6560581b925050610a9f565b600181600a811115610d4157fe5b1415610d69577550726f76696465724d6973736564446561646c696e6560501b925050610a9f565b600481600a811115610d7757fe5b1415610d95576b57616974696e67436c61696d60a01b925050610a9f565b600681600a811115610da357fe5b1415610dd2577f57616974696e67436f6e6669726d6174696f6e446561646c696e650000000000925050610a9f565b600781600a811115610de057fe5b1415610e08577515d85a5d1a5b99d0da185b1b195b99d954995cdd5b1d60521b925050610a9f565b600a81600a811115610e1657fe5b1415610e37576e10dbdb9cd95b9cdd5cd4995cdd5b1d608a1b925050610a9f565b600881600a811115610e4557fe5b1415610e64576c21b430b63632b733b2b92bb7b760991b925050610a9f565b600981600a811115610e7257fe5b1415610e8e576921b630b4b6b2b92bb7b760b11b925050610a9f565b60405162461bcd60e51b81526004016104be90614f7c565b6060806060806060610eb6613fc4565b878060005411610efb576040805162461bcd60e51b81526020600482015260166024820152600080516020615578833981519152604482015290519081900360640190fd5b60008981526006602090815260408083206001600160a01b038c16845260108101835292819020815160608082018452915460ff808216151583526101008204811615158387015262010000909104161515818401528251600480825260a0820190945290965090929091908201608080368337019050509050816003015481600081518110610f8757fe5b602002602001018181525050610f9c8b613b2a565b82600601540181600181518110610faf57fe5b6020908102919091010152600482015481516001600160401b039091169082906002908110610fda57fe5b6020026020010181815250508160040160089054906101000a900460ff1660ff168160038151811061100857fe5b60209081029190910101526040805160028082526060828101909352816020016020820280368337505050600d84015481519192506001600160a01b031690829060009061105257fe5b6001600160a01b039283166020918202929092010152600c84015482519116908290600190811061107f57fe5b6001600160a01b039290921660209283029190910182015260408051600480825260a0820190925260609290919082016080803683370190505090508360080154816000815181106110cd57fe5b6020026020010181815250508360090154816001815181106110eb57fe5b60200260200101818152505083600a01548160028151811061110957fe5b60200260200101818152505061111e8d610c0f565b8160038151811061112b57fe5b60209081029190910101526000601185015460ff16600a81111561114b57fe5b141561142457604080516001808252818301909252606091816020015b611170613fe4565b815260200190600190039081611168579050509050846015018560130186600201548154811061119c57fe5b9060005260206000200154815481106111b157fe5b600091825260209182902060408051610100808201835260059490940290920180546001600160401b0381168452600160401b900460ff1683860152600180820180548451600293821615909702600019011691909104601f81018790048702860187018452808652939591949286019390918301828280156112755780601f1061124a57610100808354040283529160200191611275565b820191906000526020600020905b81548152906001019060200180831161125857829003601f168201915b5050509183525050600282810180546040805160206001841615610100026000190190931694909404601f810183900483028501830190915280845293810193908301828280156113075780601f106112dc57610100808354040283529160200191611307565b820191906000526020600020905b8154815290600101906020018083116112ea57829003601f168201915b5050509183525050600382015460208201526004909101546001600160a01b038116604083015260ff600160a01b8204811615156060840152600160a81b9091041615156080909101528151829060009061135e57fe5b602002602001018190525083838387600b01848b828054600181600116156101000203166002900480601f0160208091040260200160405190810160405280929190818152602001828054600181600116156101000203166002900480156114075780601f106113dc57610100808354040283529160200191611407565b820191906000526020600020905b8154815290600101906020018083116113ea57829003601f168201915b505050505092509b509b509b509b509b509b5050505050506117e0565b6003601185015460ff16600a81111561143957fe5b141561148a57604080516001808252818301909252606091816020015b61145e613fe4565b815260200190600190039081611456579050509050846015018560120186600101548154811061119c57fe5b6001601185015460ff16600a81111561149f57fe5b141561154e57604080516000808252602082019092526060916114d8565b6114c5613fe4565b8152602001906001900390816114bd5790505b50905083838387600b01848b828054600181600116156101000203166002900480601f0160208091040260200160405190810160405280929190818152602001828054600181600116156101000203166002900480156114075780601f106113dc57610100808354040283529160200191611407565b600b84018054604080516020601f60026000196101006001881615020190951694909404938401819004810282018101909252828152869386938693919260158b01928d9285918301828280156115e65780601f106115bb576101008083540402835291602001916115e6565b820191906000526020600020905b8154815290600101906020018083116115c957829003601f168201915b5050505050925081805480602002602001604051908101604052809291908181526020016000905b828210156117c95760008481526020908190206040805161010080820183526005870290930180546001600160401b0381168352600160401b900460ff1682860152600180820180548551600293821615909702600019011691909104601f8101879004870286018701855280865292959194938601939290918301828280156116d95780601f106116ae576101008083540402835291602001916116d9565b820191906000526020600020905b8154815290600101906020018083116116bc57829003601f168201915b5050509183525050600282810180546040805160206001841615610100026000190190931694909404601f8101839004830285018301909152808452938101939083018282801561176b5780601f106117405761010080835404028352916020019161176b565b820191906000526020600020905b81548152906001019060200180831161174e57829003601f168201915b505050918352505060038201546020808301919091526004909201546001600160a01b038116604083015260ff600160a01b8204811615156060840152600160a81b909104161515608090910152908252600192909201910161160e565b5050505091509a509a509a509a509a509a50505050505b509295509295509295565b60008181526001602052604090205460ff165b919050565b6000908152600160209081526040808320805460ff191690556002909152812055565b60008060006060848060005411611872576040805162461bcd60e51b81526020600482015260166024820152600080516020615578833981519152604482015290519081900360640190fd5b6000868152600660205260409020600a601182015460ff16600a81111561189557fe5b141561194e57600160008083600b01808054600181600116156101000203166002900480601f0160208091040260200160405190810160405280929190818152602001828054600181600116156101000203166002900480156119395780601f1061190e57610100808354040283529160200191611939565b820191906000526020600020905b81548152906001019060200180831161191c57829003601f168201915b50505050509050955095509550955050611ba5565b6000601182015460ff16600a81111561196357fe5b148061198157506004601182015460ff16600a81111561197f57fe5b145b8061199e57506006601182015460ff16600a81111561199c57fe5b145b806119bb57506007601182015460ff16600a8111156119b957fe5b145b156119e45760006001600060405180602001604052806000815250955095509550955050611ba5565b6001601182015460ff16600a8111156119f957fe5b1415611afc57600087815260066020526040812060138101546002909101541015611a6e578160150182601301836002015481548110611a3557fe5b906000526020600020015481548110611a4a57fe5b60009182526020909120600460059092020101546001600160a01b03169050611ad9565b600088815260066020526040902060128101546001909101541015611ad9578160150182601201836001015481548110611aa457fe5b906000526020600020015481548110611ab957fe5b60009182526020909120600460059092020101546001600160a01b031690505b600080826040518060200160405280600081525096509650965096505050611ba5565b6005601182015460ff16600a811115611b1157fe5b1480611b2f57506008601182015460ff16600a811115611b2d57fe5b145b15611b6157600c01546040805160208101909152600080825296508695506001600160a01b0390911693509150611ba5565b6009601182015460ff16600a811115611b7657fe5b1415610e8e57600d01546040805160208101909152600080825296508695506001600160a01b03909116935091505b509193509193565b6000806000848060005411611bf7576040805162461bcd60e51b81526020600482015260166024820152600080516020615578833981519152604482015290519081900360640190fd5b5050506000928352506006602090815260408084206001600160a01b0390931684526010909201905290205460ff80821692610100830482169262010000900490911690565b808060005411611c82576040805162461bcd60e51b81526020600482015260166024820152600080516020615578833981519152604482015290519081900360640190fd5b6000828152600660209081526040808320338452601081019092529091205483919060ff16611cc35760405162461bcd60e51b81526004016104be90615376565b60008481526006602090815260408083203384526010810190925290912054859190610100900460ff1615611d0a5760405162461bcd60e51b81526004016104be90615057565b6000868152600260209081526040808320805460010190556006918290529091208791601182015460ff16600a811115611d4057fe5b14611d5d5760405162461bcd60e51b81526004016104be90614a8e565b60058054600c83015491830154600380546009860154600a8701549287015460405163020b738760e41b81526001600160a01b03968716976320b7387097611db497339792821696909591169390926004016148f5565b602060405180830381600087803b158015611dce57600080fd5b505af1158015611de2573d6000803e3d6000fd5b505050506040513d601f19601f82011682018060405250810190611e0691906143ba565b60078083019190915560118201805460ff1916600183021790555033600081815260108301602052604090819020805461ff001916610100179055600d830180546001600160a01b031916909217909155600f820180546001600160401b038082166001011667ffffffffffffffff19909116179055426006830155517fa895da4b794aeba8d8082db237265459db7b7ffdb5aa7c2332a7c5eafbfae73590611eb0908a90614a74565b60405180910390a15050505050505050565b808060005411611f07576040805162461bcd60e51b81526020600482015260166024820152600080516020615578833981519152604482015290519081900360640190fd5b60008281526002602081815260408084208054600101905560069091529091208391601182015460ff16600a811115611f3c57fe5b14611f595760405162461bcd60e51b81526004016104be90614e89565b33600090815260108201602052604090205460ff16611f8a5760405162461bcd60e51b81526004016104be9061524a565b60118101805460ff1916600317905542600690910155505050565b606080838060005411611fed576040805162461bcd60e51b81526020600482015260166024820152600080516020615578833981519152604482015290519081900360640190fd5b606080600760008881526006602052604090206011015460ff16600a81111561201257fe5b14156120b85760408051600180825281830190925290602080830190803683375050604080516001808252818301909252929450905060208083019080368337505060055484519293506001600160a01b03169184915060009061207257fe5b6001600160a01b039092166020928302919091018201526000888152600690915260408120600701548251909183916120a757fe5b6020026020010181815250506120d2565b505060408051600080825260208201908152818301909252905b90969095509350505050565b818060005411612123576040805162461bcd60e51b81526020600482015260166024820152600080516020615578833981519152604482015290519081900360640190fd5b60008381526006602052604081208491601182015460ff16600a81111561214657fe5b146121635760405162461bcd60e51b81526004016104be90614fa8565b601381015460028201541061218a5760405162461bcd60e51b81526004016104be90614fe9565b60008160130182600201548154811061219f57fe5b90600052602060002001549050816015018054905081106121d25760405162461bcd60e51b81526004016104be90614ecf565b6121da613fe4565b8260150182815481106121e957fe5b600091825260209182902060408051610100808201835260059490940290920180546001600160401b0381168452600160401b900460ff1683860152600180820180548451600293821615909702600019011691909104601f81018790048702860187018452808652939591949286019390918301828280156122ad5780601f10612282576101008083540402835291602001916122ad565b820191906000526020600020905b81548152906001019060200180831161229057829003601f168201915b5050509183525050600282810180546040805160206001841615610100026000190190931694909404601f8101839004830285018301909152808452938101939083018282801561233f5780601f106123145761010080835404028352916020019161233f565b820191906000526020600020905b81548152906001019060200180831161232257829003601f168201915b5050509183525050600382015460208201526004909101546001600160a01b038116604083015260ff600160a01b8204811615156060840152600160a81b9091041615156080909101526014840180549192506000918490811061239f57fe5b9060005260206000200154146123c75760405162461bcd60e51b81526004016104be906151bc565b8060c001516123e85760405162461bcd60e51b81526004016104be90615291565b60a08101516001600160a01b031633146124145760405162461bcd60e51b81526004016104be90615020565b60008781526006602052604081206002810154601382018054929392909190811061243b57fe5b90600052602060002001549050600082601501828154811061245957fe5b906000526020600020906005020190508060040160159054906101000a900460ff166124975760405162461bcd60e51b81526004016104be90614d69565b600381018990556014830180548a9190849081106124b157fe5b6000918252602090912001556002830180546001019081905542600685015560138401541415612509576012830154156124f95760118301805460ff19166002179055612509565b60118301805460ff191660041790555b7fc33d5cc33df375fac3c4fb6395fac74e37c0183c522e645801a298a6ba8e04a38a84601501848154811061253a57fe5b90600052602060002090600502016040516125569291906153cc565b60405180910390a150505050505050505050565b6000603284101561258d5760405162461bcd60e51b81526004016104be906150d6565b600080548152600660205260408120905b84518110156126a8578160100160008683815181106125b957fe5b6020908102919091018101516001600160a01b031682528101919091526040016000205460ff16156125fd5760405162461bcd60e51b81526004016104be90614d1a565b600182601001600087848151811061261157fe5b60200260200101516001600160a01b03166001600160a01b0316815260200190815260200160002060000160006101000a81548160ff02191690831515021790555081600e0185828151811061266357fe5b60209081029190910181015182546001808201855560009485529290932090920180546001600160a01b0319166001600160a01b03909316929092179091550161259e565b508251600090806001600160401b03811180156126c457600080fd5b506040519080825280602002602001820160405280156126ee578160200160208202803683370190505b50805161270591601486019160209091019061402a565b5060005b81811015612b8a57612719613fe4565b86828151811061272557fe5b602002602001015190508060e0015161292d576003816020015160ff1610156127605760405162461bcd60e51b81526004016104be90615175565b600a816020015160ff1611156127885760405162461bcd60e51b81526004016104be906152c8565b8060c0015161290a57806020015160ff1660020a81604001515111156127c05760405162461bcd60e51b81526004016104be90614e39565b60408101516020820151815160ff90911660020a11156128515760408201518051602084015160ff1660020a036001600160401b038111801561280257600080fd5b506040519080825280601f01601f19166020018201604052801561282d576020820181803683370190505b5060405160200161283f9291906148c6565b60405160208183030381529060405290505b606061285c82613e44565b6040516310561d5760e31b815290915073__$c7dbd794b8c7b5c2028db781007df1176e$__906382b0eab890612896908490600401614967565b60206040518083038186803b1580156128ae57600080fd5b505af41580156128c2573d6000803e3d6000fd5b505050506040513d601f19601f820116820180604052508101906128e691906143ba565b8760140185815481106128f557fe5b90600052602060002001819055505050612928565b60138501805460018181018355600092835260209092200183905593505b612a24565b8060c00151612a0657806080015185601401838154811061294a57fe5b6000918252602091829020019190915560048054608084015192840151604051632b6baa3760e21b81526001600160a01b039092169363adaea8dc936129939391929101614a7d565b60206040518083038186803b1580156129ab57600080fd5b505afa1580156129bf573d6000803e3d6000fd5b505050506040513d601f19601f820116820180604052508101906129e39190614397565b612928576012850180546001810182556000918252602090912001829055612a24565b60138501805460018181018355600092835260209092200183905593505b604080516101008101825282516001600160401b03908116825260208085015160ff90811682850190815286860151958501958652606080880151908601526080808801519086015260a0808801516001600160a01b03169086015260c08088015115159086015260e08088015115159086015260158b0180546001808201835560009283529185902087516005909202018054935167ffffffffffffffff19909416919096161760ff60401b1916600160401b92909316919091029190911783559351805193949293612aff938501929190910190613f38565b5060608201518051612b1b916002840191602090910190613f38565b506080820151600382015560a08201516004909101805460c084015160e0909401511515600160a81b0260ff60a81b19941515600160a01b0260ff60a01b196001600160a01b039095166001600160a01b03199093169290921793909316179290921617905550600101612709565b5060038860ff161015612baf5760405162461bcd60e51b81526004016104be90614c60565b82546001600160a01b0319163317835585518690600090612bcc57fe5b6020908102919091010151600c840180546001600160a01b0319166001600160a01b03909216919091179055600f8301805467ffffffffffffffff19908116600117909155600384018c9055600884018b9055600984018b90556004840180549091166001600160401b038b161760ff60401b1916600160401b60ff8b1602179055600583018790554260068401558115612c7d576011830180546000919060ff19166001835b0217905550612cad565b601283015415612c9d576011830180546002919060ff1916600183612c73565b60118301805460ff191660041790555b7f636fd79aca92320cae2060e85a57eff6548c5fb3b972fb98bfd6432eef78c0e9600054604051612cde9190614a74565b60405180910390a150506000805481526001602081905260408220805460ff19168217905581549081019091559150505b979650505050505050565b808060005411612d5f576040805162461bcd60e51b81526020600482015260166024820152600080516020615578833981519152604482015290519081900360640190fd5b6000828152600660205260409020546001600160a01b0316338114612dc6576040805162461bcd60e51b815260206004820152601860248201527721b0b73737ba1031329031b0b63632b210313c903ab9b2b960411b604482015290519081900360640190fd5b60008381526006602052604090206001601182015460ff16600a811115612de957fe5b1480612e0757506005601182015460ff16600a811115612e0557fe5b145b80612e245750600a601182015460ff16600a811115612e2257fe5b145b80612e4157506008601182015460ff16600a811115612e3f57fe5b145b80612e5e57506009601182015460ff16600a811115612e5c57fe5b145b612e7a5760405162461bcd60e51b81526004016104be90614efc565b612e88601282016000614064565b612e96601382016000614064565b612ea4601482016000614064565b612eb2601582016000614085565b612ebb84611803565b50505050565b808060005411612f06576040805162461bcd60e51b81526020600482015260166024820152600080516020615578833981519152604482015290519081900360640190fd5b6000828152600260209081526040808320805460010190556006909152902082906007601182015460ff16600a811115612f3c57fe5b14612f595760405162461bcd60e51b81526004016104be90615122565b426006820155600781015460055460405163b6b5c31960e01b81526001600160a01b039091169063b6b5c31990612f94908490600401614a74565b60206040518083038186803b158015612fac57600080fd5b505afa158015612fc0573d6000803e3d6000fd5b505050506040513d601f19601f82011682018060405250810190612fe49190614397565b1561308857600e820154600f8301546001600160401b03161415613020576011820180546008919060ff19166001835b021790555050506131ac565b5060118101805460ff19166004179055600c810180546001600160a01b0390811660009081526010840160205260409020805462ff0000191662010000179055600d909201805482546001600160a01b031990811694821694909417909255911690556131ac565b600554604051633664f8bf60e11b81526001600160a01b0390911690636cc9f17e906130b8908490600401614a74565b60206040518083038186803b1580156130d057600080fd5b505afa1580156130e4573d6000803e3d6000fd5b505050506040513d601f19601f820116820180604052508101906131089190614397565b1561319157600e820154600f8301546001600160401b0316141561313c576011820180546009919060ff1916600183613014565b5060118101805460ff19166006179055600d810180546001600160a01b031660009081526010909201602052604090912080546201000062ff00001990911617905580546001600160a01b03191690556131ac565b60405162461bcd60e51b81526004016104be9061530d565b50505b505050565b8080600054116131f6576040805162461bcd60e51b81526020600482015260166024820152600080516020615578833981519152604482015290519081900360640190fd5b60008281526006602052604081206001810154601282018054929392909190811061321d57fe5b60009182526020909120015490506003601183015460ff16600a81111561324057fe5b1461325d5760405162461bcd60e51b81526004016104be9061533f565b601582015481106132805760405162461bcd60e51b81526004016104be90614c34565b613288613fe4565b82601501828154811061329757fe5b600091825260209182902060408051610100808201835260059490940290920180546001600160401b0381168452600160401b900460ff1683860152600180820180548451600293821615909702600019011691909104601f810187900487028601870184528086529395919492860193909183018282801561335b5780601f106133305761010080835404028352916020019161335b565b820191906000526020600020905b81548152906001019060200180831161333e57829003601f168201915b5050509183525050600282810180546040805160206001841615610100026000190190931694909404601f810183900483028501830190915280845293810193908301828280156133ed5780601f106133c2576101008083540402835291602001916133ed565b820191906000526020600020905b8154815290600101906020018083116133d057829003601f168201915b5050509183525050600382015460208201526004909101546001600160a01b038116604083015260ff600160a01b8204811615156060840152600160a81b90910416151560809091015260e081015190915061345b5760405162461bcd60e51b81526004016104be9061509f565b6004805460808301516020840151604051632b6baa3760e21b81526001600160a01b039093169363adaea8dc9361349493929101614a7d565b60206040518083038186803b1580156134ac57600080fd5b505afa1580156134c0573d6000803e3d6000fd5b505050506040513d601f19601f820116820180604052508101906134e49190614397565b6135005760405162461bcd60e51b81526004016104be90614daa565b6001808401805490910190819055426006850155601284015414156131a9575050601101805460ff191660041790555050565b818060005411613578576040805162461bcd60e51b81526020600482015260166024820152600080516020615578833981519152604482015290519081900360640190fd5b60008381526006602052604081208491601182015460ff16600a81111561359b57fe5b146135b85760405162461bcd60e51b81526004016104be90614fa8565b60138101546002820154106135df5760405162461bcd60e51b81526004016104be90614fe9565b6000816013018260020154815481106135f457fe5b90600052602060002001549050816015018054905081106136275760405162461bcd60e51b81526004016104be90614ecf565b61362f613fe4565b82601501828154811061363e57fe5b600091825260209182902060408051610100808201835260059490940290920180546001600160401b0381168452600160401b900460ff1683860152600180820180548451600293821615909702600019011691909104601f81018790048702860187018452808652939591949286019390918301828280156137025780601f106136d757610100808354040283529160200191613702565b820191906000526020600020905b8154815290600101906020018083116136e557829003601f168201915b5050509183525050600282810180546040805160206001841615610100026000190190931694909404601f810183900483028501830190915280845293810193908301828280156137945780601f1061376957610100808354040283529160200191613794565b820191906000526020600020905b81548152906001019060200180831161377757829003601f168201915b5050509183525050600382015460208201526004909101546001600160a01b038116604083015260ff600160a01b8204811615156060840152600160a81b909104161515608090910152601484018054919250600091849081106137f457fe5b90600052602060002001541461381c5760405162461bcd60e51b81526004016104be906151bc565b8060c0015161383d5760405162461bcd60e51b81526004016104be90615291565b60a08101516001600160a01b031633146138695760405162461bcd60e51b81526004016104be90615020565b60008781526006602052604081206002810154601382018054929392909190811061389057fe5b9060005260206000200154905060008260150182815481106138ae57fe5b906000526020600020906005020190508060040160159054906101000a900460ff16156138ed5760405162461bcd60e51b81526004016104be90614b22565b80548951600160401b90910460ff1660020a101561391d5760405162461bcd60e51b81526004016104be90614e39565b805489518a91600160401b900460ff1660020a11156139af57895182548b91600160401b90910460ff1660020a036001600160401b038111801561396057600080fd5b506040519080825280601f01601f19166020018201604052801561398b576020820181803683370190505b5060405160200161399d9291906148c6565b60405160208183030381529060405290505b60606139ba82613e44565b9050600073__$c7dbd794b8c7b5c2028db781007df1176e$__6382b0eab8836040518263ffffffff1660e01b81526004016139f59190614967565b60206040518083038186803b158015613a0d57600080fd5b505af4158015613a21573d6000803e3d6000fd5b505050506040513d601f19601f82011682018060405250810190613a4591906143ba565b8c51909150613a5d90600186019060208f0190613f38565b5080866014018681548110613a6e57fe5b6000918252602090912001556002860180546001019081905542600688015560138701541415613ac657601286015415613ab65760118601805460ff19166002179055613ac6565b60118601805460ff191660041790555b7fc33d5cc33df375fac3c4fb6395fac74e37c0183c522e645801a298a6ba8e04a38d876015018781548110613af757fe5b9060005260206000209060050201604051613b139291906153cc565b60405180910390a150505050505050505050505050565b600060016101f460288360008681526006602052604090206011015460ff16600a811115613b5457fe5b1415613b765750505060008281526006602052604090206005015490506117fe565b600360008681526006602052604090206011015460ff16600a811115613b9857fe5b1415613bbe575050506000828152600660205260409020600501546109600190506117fe565b600260008681526006602052604090206011015460ff16600a811115613be057fe5b1415613c0d57505050600082815260066020526040902060058101546012909101540260020290506117fe565b600460008681526006602052604090206011015460ff16600a811115613c2f57fe5b1415613c66576000858152600660205260409020600581015460039091015464e8d4a510009084025b0482010193505050506117fe565b600660008681526006602052604090206011015460ff16600a811115613c8857fe5b1415613cb5576000858152600660205260409020600581015460039091015464e8d4a51000908402613c58565b600760008681526006602052604090206011015460ff16600a811115613cd757fe5b1415613d8a576000858152600660205260409081902060058082015490546003909201549251631b8798d560e11b815290926001600160a01b039092169163370f31aa91613d2f91859187918a918a9060040161548f565b60206040518083038186803b158015613d4757600080fd5b505afa158015613d5b573d6000803e3d6000fd5b505050506040513d601f19601f82011682018060405250810190613d7f91906143ba565b0193505050506117fe565b600960008681526006602052604090206011015460ff16600a811115613dac57fe5b1480613dd75750600860008681526006602052604090206011015460ff16600a811115613dd557fe5b145b80613e015750600560008681526006602052604090206011015460ff16600a811115613dff57fe5b145b80613e2b5750600a60008681526006602052604090206011015460ff16600a811115613e2957fe5b145b15613e3c57600093505050506117fe565b505050919050565b606060006008835181613e5357fe5b0490506060816001600160401b0381118015613e6e57600080fd5b50604051908082528060200260200182016040528015613e98578160200160208202803683370190505b50905060005b82811015613f30576000805b6008811015613ee85760008782856008020181518110613ec657fe5b01602001516001600160f81b031916600883021c929092179150600101613eaa565b5080604051602001613efa91906148b1565b60405160208183030381529060405280519060200120838381518110613f1c57fe5b602090810291909101015250600101613e9e565b509392505050565b828054600181600116156101000203166002900490600052602060002090601f016020900481019282613f6e5760008555613fb4565b82601f10613f8757805160ff1916838001178555613fb4565b82800160010185558215613fb4579182015b82811115613fb4578251825591602001919060010190613f99565b50613fc09291506140a6565b5090565b604080516060810182526000808252602082018190529181019190915290565b60408051610100810182526000808252602082018190526060928201839052828201929092526080810182905260a0810182905260c0810182905260e081019190915290565b828054828255906000526020600020908101928215613fb45791602002820182811115613fb4578251825591602001919060010190613f99565b508054600082559060005260206000209081019061408291906140a6565b50565b508054600082556005029060005260206000209081019061408291906140bb565b5b80821115613fc057600081556001016140a7565b80821115613fc057805468ffffffffffffffffff1916815560006140e26001830182614112565b6140f0600283016000614112565b50600060038201556004810180546001600160b01b03191690556005016140bb565b50805460018160011615610100020316600290046000825580601f106141385750614082565b601f01602090049060005260206000209081019061408291906140a6565b80356001600160a01b03811681146117fe57600080fd5b600082601f83011261417d578081fd5b813561419061418b82615514565b6154f1565b8181529150602080830190848101818402860182018710156141b157600080fd5b60005b848110156141d0578135845292820192908201906001016141b4565b505050505092915050565b600082601f8301126141eb578081fd5b81356141f961418b82615514565b818152915060208083019084810160005b848110156141d0578135870161010080601f19838c0301121561422c57600080fd5b614235816154f1565b61424086840161436f565b8152604061424f818501614386565b878301526060808501356001600160401b038082111561426e57600080fd5b61427c8f8b848a0101614309565b84860152608093508387013591508082111561429757600080fd5b506142a68e8a83890101614309565b82850152505060a0808501358284015260c091506142c5828601614156565b9083015260e06142d68582016142fe565b828401526142e58486016142fe565b908301525086525050928201929082019060010161420a565b80356117fe81615569565b600082601f830112614319578081fd5b81356001600160401b0381111561432c57fe5b61433f601f8201601f19166020016154f1565b915080825283602082850101111561435657600080fd5b8060208401602084013760009082016020015292915050565b80356001600160401b03811681146117fe57600080fd5b803560ff811681146117fe57600080fd5b6000602082840312156143a8578081fd5b81516143b381615569565b9392505050565b6000602082840312156143cb578081fd5b5051919050565b6000602082840312156143e3578081fd5b5035919050565b600080604083850312156143fc578081fd5b8235915061440c60208401614156565b90509250929050565b60008060408385031215614427578182fd5b50508035926020909101359150565b600080600080600060a0868803121561444d578081fd5b85359450602080870135945060408701356001600160401b0380821115614472578384fd5b818901915089601f830112614485578384fd5b813561449361418b82615514565b81815284810190848601875b848110156144c8576144b68f8984358a010161416d565b8452928701929087019060010161449f565b5090985050505060608901359250808311156144e2578384fd5b6144ee8a848b01614309565b94506080890135925080831115614503578384fd5b50506145118882890161416d565b9150509295509295909350565b600080600080600080600060e0888a031215614538578485fd5b87359650602080890135965061455060408a0161436f565b955061455e60608a01614386565b94506080890135935060a08901356001600160401b0380821115614580578485fd5b818b0191508b601f830112614593578485fd5b81356145a161418b82615514565b8082825285820191508585018f8788860288010111156145bf578889fd5b8895505b838610156145e8576145d481614156565b8352600195909501949186019186016145c3565b509650505060c08b0135925080831115614600578384fd5b505061460e8a828b016141db565b91505092959891949750929550565b6000806040838503121561462f578182fd5b8235915060208301356001600160401b0381111561464b578182fd5b61465785828601614309565b9150509250929050565b6001600160a01b03169052565b6000815180845260208085019450808401835b838110156146a65781516001600160a01b031687529582019590820190600101614681565b509495945050505050565b6000815180845260208085019450808401835b838110156146a6578151875295820195908201906001016146c4565b6000815180845260208085018081965082840281019150828601855b858110156147bc57828403895281516101006001600160401b0382511686528682015161472b888801826148aa565b506040808301518282890152614743838901826147cf565b925050506060808301518783038289015261475e83826147cf565b92505050608080830151818801525060a08083015161477f82890182614661565b505060c080830151614793828901826147c9565b505060e091820151916147a8878201846147c9565b5099860199945050908401906001016146fc565b5091979650505050505050565b15159052565b600081518084526147e781602086016020860161553d565b601f01601f19169290920160200192915050565b60008154600180821660008114614819576001811461483757614875565b60028304607f16865260ff1983166020870152604086019350614875565b6002830480875261484786615531565b60005b8281101561486b5781546020828b010152848201915060208101905061484a565b8801602001955050505b50505092915050565b8051151582526020808201511515908301526040908101511515910152565b6001600160401b03169052565b60ff169052565b6001600160c01b031991909116815260080190565b600083516148d881846020880161553d565b8351908301906148ec81836020880161553d565b01949350505050565b6001600160a01b03978816815295871660208701526040860194909452919094166060840152608083019390935260a082019290925260c081019190915260e00190565b60006040825261494c604083018561466e565b828103602084015261495e81856146b1565b95945050505050565b6000602082526143b360208301846146b1565b600061010080835261498e8184018a6146b1565b90506020838203818501526149a3828a61466e565b84810360408601528851808252828a01935090820190845b818110156149d7578451835293830193918301916001016149bb565b505084810360608601526149eb81896147cf565b925050508281036080840152614a0181866146e0565b915050612d0f60a083018461487e565b901515815260200190565b841515815283151560208201526001600160a01b0383166040820152608060608201819052600090614a50908301846147cf565b9695505050505050565b921515835290151560208301521515604082015260600190565b90815260200190565b91825260ff16602082015260400190565b6020808252602b908201527f53746174652073686f756c642062652057616974696e67436f6e6669726d617460408201526a696f6e446561646c696e6560a81b606082015260800190565b60208082526029908201527f4f7574707574206973206e6f7420636f6e7461696e656420696e2074686520666040820152680d2dcc2d840d0c2e6d60bb1b606082015260800190565b60208082526027908201527f496e76616c696420647269766520746f20636c61696d20666f72206469726563604082015266742076616c756560c81b606082015260800190565b6020808252604c908201527f4472697665207369626c696e6773206d75737420626520636f6d70617469626c60408201527f6520776974682070726576696f757320696e697469616c206861736820666f7260608201526b20656d70747920647269766560a01b608082015260a00190565b60208082526039908201527f436c61696d6564206472697665206e756d6265722073686f756c64206d617463604082015278341031b630b4b6b2b21039b4b13634b733b990373ab6b132b960391b606082015260800190565b602080825260129082015271092dcecc2d8d2c840c8e4d2ecca92dcc8caf60731b604082015260600190565b60208082526028908201527f6f75747075742064726976652068617320746f206265206174206c65617374206040820152671bdb99481ddbdc9960c21b606082015260800190565b6020808252604c908201527f53746174652073686f756c642062652057616974696e67436c61696d2c206f7260408201527f2057616974696e674368616c6c656e676544726976657320776974682064656160608201526b191b1a5b99481c185cdcd95960a21b608082015260a00190565b6020808252602f908201527f52657065746974696f6e206f662070617274696573272061646472657373657360408201526e081a5cc81b9bdd08185b1b1bddd959608a1b606082015260800190565b60208082526021908201527f496e76616c696420647269766520746f20636c61696d20666f72206c6f6767656040820152603960f91b606082015260800190565b60208082526023908201527f48617368206973206e6f7420617661696c61626c65206f6e206c6f67676572206040820152621e595d60ea1b606082015260800190565b6020808252602c908201527f446561646c696e65206973206e6f74206f76657220666f72207468697320737060408201526b65636966696320737461746560a01b606082015260800190565b60208082526030908201527f496e707574206279746573206c656e677468206578636565647320746865206360408201526f6c61696d6564206c6f67322073697a6560801b606082015260800190565b60208082526026908201527f53746174652073686f756c642062652057616974696e674368616c6c656e676560408201526544726976657360d01b606082015260800190565b602080825260139082015272092dcecc2d8d2c840c8e4d2ecca40d2dcc8caf606b1b604082015260600190565b60208082526029908201527f43616e6e6f7420646573747275637420696e7374616e63652061742063757272604082015268656e7420737461746560b81b606082015260800190565b6020808252601a908201527f43616e6e6f742061626f72742063757272656e74207374617465000000000000604082015260600190565b602080825260129082015271556e7265636f676e697a656420737461746560701b604082015260600190565b60208082526021908201527f546865207374617465206973206e6f742057616974696e6750726f76696465726040820152607360f81b606082015260800190565b6020808252601b908201527f4e6f20617661696c61626c652070656e64696e67206472697665730000000000604082015260600190565b6020808252601a908201527f5468652073656e646572206973206e6f742070726f7669646572000000000000604082015260600190565b60208082526028908201527f53656e6465722068617320616c7265616479206368616c6c656e676564206f726040820152670818db185a5b595960c21b606082015260800190565b6020808252601a908201527f6e656564734c6f676765722073686f756c642062652074727565000000000000604082015260600190565b6020808252602c908201527f726f756e64206475726174696f6e2068617320746f206265206174206c65617360408201526b74203530207365636f6e647360a01b606082015260800190565b60208082526033908201527f5374617465206973206e6f742057616974696e674368616c6c656e6765526573604082015272756c742c2063616e6e6f742077696e4279564760681b606082015260800190565b60208082526027908201527f64697265637456616c75652068617320746f206265206174206c65617374206f6040820152661b99481ddbdc9960ca1b606082015260800190565b60208082526022908201527f54686520647269766520686173682073686f756c646e27742062652066696c6c604082015261195960f21b606082015260800190565b6020808252602c908201527f4f7574707574206c656e67746820646f65736e2774206d61746368206f75747060408201526b7574206c6f67322073697a6560a01b606082015260800190565b60208082526027908201527f4f6e6c7920636f6e6365726e65642075736572732063616e206368616c6c656e6040820152666744726976657360c81b606082015260800190565b6020808252601b908201527f7761697450726f76696465722073686f756c6420626520747275650000000000604082015260600190565b60208082526025908201527f64697265637456616c75652063616e6e6f742062652062696767657220746861604082015264371018b5a160d91b606082015260800190565b60208082526018908201527714dd185d19481bd9881591c81a5cc81b9bdd08199a5b985b60421b604082015260600190565b6020808252601f908201527f546865207374617465206973206e6f742057616974696e6752657665616c7300604082015260600190565b60208082526028908201527f5468652073656e646572206973206e6f7420706172747920746f207468697320604082015267696e7374616e636560c01b606082015260800190565b918252602082015260400190565b60008382526040602083015282546153f0604084016001600160401b03831661489d565b6154036060840160ff8360401c166148aa565b5061010080608084015261541e6101408401600186016147fb565b838103603f190160a085015261543781600287016147fb565b600386015460c0860152600486015490915061545f60e086016001600160a01b038316614661565b61547183860160ff8360a01c166147c9565b615485610120860160ff8360a81c166147c9565b5095945050505050565b948552602085019390935260408401919091526060830152608082015260a00190565b60006001600160401b038616825260ff8516602083015283604083015260806060830152614a5060808301846146b1565b60ff91909116815260200190565b6040518181016001600160401b038111828210171561550c57fe5b604052919050565b60006001600160401b0382111561552757fe5b5060209081020190565b60009081526020902090565b60005b83811015615558578181015183820152602001615540565b83811115612ebb5750506000910152565b801515811461408257600080fdfe496e646578206e6f7420696e7374616e74696174656400000000000000000000a26469706673582212205f94bb6d6a2b144c702de30b2711066f25f3962405d8f7cf105f2bbfb8c35ef464736f6c63430007040033",
  "linkReferences": {
    "@cartesi/util/contracts/Merkle.sol": {
      "Merkle": [
        {
          "length": 20,
          "start": 1588
        },
        {
          "length": 20,
          "start": 1925
        },
        {
          "length": 20,
          "start": 2042
        },
        {
          "length": 20,
          "start": 2364
        },
        {
          "length": 20,
          "start": 10592
        },
        {
          "length": 20,
          "start": 15026
        }
      ]
    }
  },
  "deployedLinkReferences": {
    "@cartesi/util/contracts/Merkle.sol": {
      "Merkle": [
        {
          "length": 20,
          "start": 1346
        },
        {
          "length": 20,
          "start": 1683
        },
        {
          "length": 20,
          "start": 1800
        },
        {
          "length": 20,
          "start": 2122
        },
        {
          "length": 20,
          "start": 10350
        },
        {
          "length": 20,
          "start": 14784
        }
      ]
    }
  },
  "devdoc": {
    "kind": "dev",
    "methods": {
      "abortByDeadline(uint256)": {
        "params": {
          "_index": "index of Descartes instance to abort"
        }
      },
      "challenge(uint256)": {
        "params": {
          "_index": "index of Descartes instance which challenger is starting the VG."
        }
      },
      "challengeDrives(uint256)": {
        "params": {
          "_index": "index of Descartes instance which is requested for the drives"
        }
      },
      "destruct(uint256)": {
        "params": {
          "_index": "index of Descartes instance to deactivate"
        }
      },
      "getResult(uint256)": {
        "params": {
          "_index": "index of Descartes instance to get result"
        },
        "returns": {
          "_0": "bool, indicates the result is ready",
          "_1": "bool, indicates the sdk is still running",
          "_2": "address, the user to blame for the abnormal stop of the sdk",
          "_3": "bytes, the result of the sdk if available"
        }
      },
      "instantiate(uint256,bytes32,uint64,uint8,uint256,address[],(uint64,uint8,bytes,bytes,bytes32,address,bool,bool)[])": {
        "params": {
          "_finalTime": "max cycle of the machine for that computation",
          "_inputDrives": "an array of drive which assemble the machine",
          "_outputPosition": "position of the output drive",
          "_roundDuration": "duration of the round (security param)",
          "_templateHash": "hash of the machine with all drives empty"
        },
        "returns": {
          "_0": "uint256, Descartes index"
        }
      },
      "provideDirectDrive(uint256,bytes)": {
        "params": {
          "_index": "index of Descartes instance the drive belongs to.",
          "_value": "bytes value of the direct drive"
        }
      },
      "provideLoggerDrive(uint256,bytes32)": {
        "params": {
          "_index": "index of Descartes instance the drive belongs to",
          "_root": "root hash of the logger drive"
        }
      },
      "revealLoggerDrive(uint256)": {
        "params": {
          "_index": "index of Descartes instance the drive belongs to"
        }
      },
      "submitClaim(uint256,bytes32,bytes32[][],bytes,bytes32[])": {
        "details": "Example: consider 3 drives, the first drive's siblings should be a pristine machine.      The second drive's siblings should be the machine with drive 1 mounted.      The third drive's siblings should be the machine with drive 2 mounted.",
        "params": {
          "_claimedFinalHash": "is the final hash of the machine",
          "_drivesSiblings": "is an array of siblings of each drive (see below example)",
          "_output": "is the bytes32 value of the output position",
          "_outputSiblings": "is the siblings of the output drive"
        }
      },
      "winByVG(uint256)": {
        "params": {
          "_index": "index of Descartes instance to win"
        }
      }
    },
    "version": 1
  },
  "evm": {
    "bytecode": {
      "linkReferences": {
        "@cartesi/util/contracts/Merkle.sol": {
          "Merkle": [
            {
              "length": 20,
              "start": 1588
            },
            {
              "length": 20,
              "start": 1925
            },
            {
              "length": 20,
              "start": 2042
            },
            {
              "length": 20,
              "start": 2364
            },
            {
              "length": 20,
              "start": 10592
            },
            {
              "length": 20,
              "start": 15026
            }
          ]
        }
      },
      "opcodes": "PUSH1 0x80 PUSH1 0x40 MSTORE PUSH1 0x0 DUP1 SSTORE CALLVALUE DUP1 ISZERO PUSH3 0x15 JUMPI PUSH1 0x0 DUP1 REVERT JUMPDEST POP PUSH1 0x40 MLOAD PUSH3 0x56BF CODESIZE SUB DUP1 PUSH3 0x56BF DUP4 CODECOPY DUP2 ADD PUSH1 0x40 DUP2 SWAP1 MSTORE PUSH3 0x38 SWAP2 PUSH3 0x99 JUMP JUMPDEST PUSH1 0x3 DUP1 SLOAD PUSH1 0x1 PUSH1 0x1 PUSH1 0xA0 SHL SUB NOT SWAP1 DUP2 AND PUSH1 0x1 PUSH1 0x1 PUSH1 0xA0 SHL SUB SWAP4 DUP5 AND OR SWAP1 SWAP2 SSTORE PUSH1 0x5 DUP1 SLOAD DUP3 AND SWAP4 DUP4 AND SWAP4 SWAP1 SWAP4 OR SWAP1 SWAP3 SSTORE PUSH1 0x4 DUP1 SLOAD SWAP1 SWAP3 AND SWAP3 AND SWAP2 SWAP1 SWAP2 OR SWAP1 SSTORE PUSH3 0xE2 JUMP JUMPDEST DUP1 MLOAD PUSH1 0x1 PUSH1 0x1 PUSH1 0xA0 SHL SUB DUP2 AND DUP2 EQ PUSH3 0x94 JUMPI PUSH1 0x0 DUP1 REVERT JUMPDEST SWAP2 SWAP1 POP JUMP JUMPDEST PUSH1 0x0 DUP1 PUSH1 0x0 PUSH1 0x60 DUP5 DUP7 SUB SLT ISZERO PUSH3 0xAE JUMPI DUP3 DUP4 REVERT JUMPDEST PUSH3 0xB9 DUP5 PUSH3 0x7C JUMP JUMPDEST SWAP3 POP PUSH3 0xC9 PUSH1 0x20 DUP6 ADD PUSH3 0x7C JUMP JUMPDEST SWAP2 POP PUSH3 0xD9 PUSH1 0x40 DUP6 ADD PUSH3 0x7C JUMP JUMPDEST SWAP1 POP SWAP3 POP SWAP3 POP SWAP3 JUMP JUMPDEST PUSH2 0x55CD DUP1 PUSH3 0xF2 PUSH1 0x0 CODECOPY PUSH1 0x0 RETURN INVALID PUSH1 0x80 PUSH1 0x40 MSTORE CALLVALUE DUP1 ISZERO PUSH2 0x10 JUMPI PUSH1 0x0 DUP1 REVERT JUMPDEST POP PUSH1 0x4 CALLDATASIZE LT PUSH2 0x12C JUMPI PUSH1 0x0 CALLDATALOAD PUSH1 0xE0 SHR DUP1 PUSH4 0xAB5DA187 GT PUSH2 0xAD JUMPI DUP1 PUSH4 0xC817592D GT PUSH2 0x71 JUMPI DUP1 PUSH4 0xC817592D EQ PUSH2 0x2A7 JUMPI DUP1 PUSH4 0xC87E3AE9 EQ PUSH2 0x2BA JUMPI DUP1 PUSH4 0xDED4DF63 EQ PUSH2 0x2CD JUMPI DUP1 PUSH4 0xF9BC3B21 EQ PUSH2 0x2E0 JUMPI DUP1 PUSH4 0xFA0ECC5B EQ PUSH2 0x2F3 JUMPI PUSH2 0x12C JUMP JUMPDEST DUP1 PUSH4 0xAB5DA187 EQ PUSH2 0x22B JUMPI DUP1 PUSH4 0xAB82D9A0 EQ PUSH2 0x24D JUMPI DUP1 PUSH4 0xBFDA2E72 EQ PUSH2 0x260 JUMPI DUP1 PUSH4 0xC526656C EQ PUSH2 0x273 JUMPI DUP1 PUSH4 0xC70683CA EQ PUSH2 0x294 JUMPI PUSH2 0x12C JUMP JUMPDEST DUP1 PUSH4 0x5748C130 GT PUSH2 0xF4 JUMPI DUP1 PUSH4 0x5748C130 EQ PUSH2 0x1AA JUMPI DUP1 PUSH4 0x73DF1612 EQ PUSH2 0x1BD JUMPI DUP1 PUSH4 0x82AFD23B EQ PUSH2 0x1E2 JUMPI DUP1 PUSH4 0x916B9BEF EQ PUSH2 0x1F5 JUMPI DUP1 PUSH4 0x995E4339 EQ PUSH2 0x208 JUMPI PUSH2 0x12C JUMP JUMPDEST DUP1 PUSH4 0x1FF62AB EQ PUSH2 0x131 JUMPI DUP1 PUSH4 0x26987B60 EQ PUSH2 0x15A JUMPI DUP1 PUSH4 0x351E6657 EQ PUSH2 0x16F JUMPI DUP1 PUSH4 0x3D46B819 EQ PUSH2 0x184 JUMPI DUP1 PUSH4 0x4C6FE7BF EQ PUSH2 0x197 JUMPI JUMPDEST PUSH1 0x0 DUP1 REVERT JUMPDEST PUSH2 0x144 PUSH2 0x13F CALLDATASIZE PUSH1 0x4 PUSH2 0x43EA JUMP JUMPDEST PUSH2 0x306 JUMP JUMPDEST PUSH1 0x40 MLOAD PUSH2 0x151 SWAP2 SWAP1 PUSH2 0x4A11 JUMP JUMPDEST PUSH1 0x40 MLOAD DUP1 SWAP2 SUB SWAP1 RETURN JUMPDEST PUSH2 0x162 PUSH2 0x37E JUMP JUMPDEST PUSH1 0x40 MLOAD PUSH2 0x151 SWAP2 SWAP1 PUSH2 0x4A74 JUMP JUMPDEST PUSH2 0x182 PUSH2 0x17D CALLDATASIZE PUSH1 0x4 PUSH2 0x4436 JUMP JUMPDEST PUSH2 0x384 JUMP JUMPDEST STOP JUMPDEST PUSH2 0x162 PUSH2 0x192 CALLDATASIZE PUSH1 0x4 PUSH2 0x43D2 JUMP JUMPDEST PUSH2 0x9FB JUMP JUMPDEST PUSH2 0x182 PUSH2 0x1A5 CALLDATASIZE PUSH1 0x4 PUSH2 0x43D2 JUMP JUMPDEST PUSH2 0xAA5 JUMP JUMPDEST PUSH2 0x162 PUSH2 0x1B8 CALLDATASIZE PUSH1 0x4 PUSH2 0x43D2 JUMP JUMPDEST PUSH2 0xC0F JUMP JUMPDEST PUSH2 0x1D0 PUSH2 0x1CB CALLDATASIZE PUSH1 0x4 PUSH2 0x43EA JUMP JUMPDEST PUSH2 0xEA6 JUMP JUMPDEST PUSH1 0x40 MLOAD PUSH2 0x151 SWAP7 SWAP6 SWAP5 SWAP4 SWAP3 SWAP2 SWAP1 PUSH2 0x497A JUMP JUMPDEST PUSH2 0x144 PUSH2 0x1F0 CALLDATASIZE PUSH1 0x4 PUSH2 0x43D2 JUMP JUMPDEST PUSH2 0x17EB JUMP JUMPDEST PUSH2 0x182 PUSH2 0x203 CALLDATASIZE PUSH1 0x4 PUSH2 0x43D2 JUMP JUMPDEST PUSH2 0x1803 JUMP JUMPDEST PUSH2 0x21B PUSH2 0x216 CALLDATASIZE PUSH1 0x4 PUSH2 0x43D2 JUMP JUMPDEST PUSH2 0x1826 JUMP JUMPDEST PUSH1 0x40 MLOAD PUSH2 0x151 SWAP5 SWAP4 SWAP3 SWAP2 SWAP1 PUSH2 0x4A1C JUMP JUMPDEST PUSH2 0x23E PUSH2 0x239 CALLDATASIZE PUSH1 0x4 PUSH2 0x43EA JUMP JUMPDEST PUSH2 0x1BAD JUMP JUMPDEST PUSH1 0x40 MLOAD PUSH2 0x151 SWAP4 SWAP3 SWAP2 SWAP1 PUSH2 0x4A5A JUMP JUMPDEST PUSH2 0x182 PUSH2 0x25B CALLDATASIZE PUSH1 0x4 PUSH2 0x43D2 JUMP JUMPDEST PUSH2 0x1C3D JUMP JUMPDEST PUSH2 0x182 PUSH2 0x26E CALLDATASIZE PUSH1 0x4 PUSH2 0x43D2 JUMP JUMPDEST PUSH2 0x1EC2 JUMP JUMPDEST PUSH2 0x286 PUSH2 0x281 CALLDATASIZE PUSH1 0x4 PUSH2 0x43EA JUMP JUMPDEST PUSH2 0x1FA5 JUMP JUMPDEST PUSH1 0x40 MLOAD PUSH2 0x151 SWAP3 SWAP2 SWAP1 PUSH2 0x4939 JUMP JUMPDEST PUSH2 0x182 PUSH2 0x2A2 CALLDATASIZE PUSH1 0x4 PUSH2 0x4415 JUMP JUMPDEST PUSH2 0x20DE JUMP JUMPDEST PUSH2 0x162 PUSH2 0x2B5 CALLDATASIZE PUSH1 0x4 PUSH2 0x451E JUMP JUMPDEST PUSH2 0x256A JUMP JUMPDEST PUSH2 0x182 PUSH2 0x2C8 CALLDATASIZE PUSH1 0x4 PUSH2 0x43D2 JUMP JUMPDEST PUSH2 0x2D1A JUMP JUMPDEST PUSH2 0x182 PUSH2 0x2DB CALLDATASIZE PUSH1 0x4 PUSH2 0x43D2 JUMP JUMPDEST PUSH2 0x2EC1 JUMP JUMPDEST PUSH2 0x182 PUSH2 0x2EE CALLDATASIZE PUSH1 0x4 PUSH2 0x43D2 JUMP JUMPDEST PUSH2 0x31B1 JUMP JUMPDEST PUSH2 0x182 PUSH2 0x301 CALLDATASIZE PUSH1 0x4 PUSH2 0x461D JUMP JUMPDEST PUSH2 0x3533 JUMP JUMPDEST PUSH1 0x0 DUP3 DUP1 PUSH1 0x0 SLOAD GT PUSH2 0x34D JUMPI PUSH1 0x40 DUP1 MLOAD PUSH3 0x461BCD PUSH1 0xE5 SHL DUP2 MSTORE PUSH1 0x20 PUSH1 0x4 DUP3 ADD MSTORE PUSH1 0x16 PUSH1 0x24 DUP3 ADD MSTORE PUSH1 0x0 DUP1 MLOAD PUSH1 0x20 PUSH2 0x5578 DUP4 CODECOPY DUP2 MLOAD SWAP2 MSTORE PUSH1 0x44 DUP3 ADD MSTORE SWAP1 MLOAD SWAP1 DUP2 SWAP1 SUB PUSH1 0x64 ADD SWAP1 REVERT JUMPDEST POP POP PUSH1 0x0 SWAP2 DUP3 MSTORE PUSH1 0x6 PUSH1 0x20 SWAP1 DUP2 MSTORE PUSH1 0x40 DUP1 DUP5 KECCAK256 PUSH1 0x1 PUSH1 0x1 PUSH1 0xA0 SHL SUB SWAP4 SWAP1 SWAP4 AND DUP5 MSTORE PUSH1 0x10 SWAP1 SWAP3 ADD SWAP1 MSTORE SWAP1 KECCAK256 SLOAD PUSH1 0xFF AND SWAP1 JUMP JUMPDEST PUSH1 0x0 SLOAD DUP2 JUMP JUMPDEST DUP5 DUP1 PUSH1 0x0 SLOAD GT PUSH2 0x3C9 JUMPI PUSH1 0x40 DUP1 MLOAD PUSH3 0x461BCD PUSH1 0xE5 SHL DUP2 MSTORE PUSH1 0x20 PUSH1 0x4 DUP3 ADD MSTORE PUSH1 0x16 PUSH1 0x24 DUP3 ADD MSTORE PUSH1 0x0 DUP1 MLOAD PUSH1 0x20 PUSH2 0x5578 DUP4 CODECOPY DUP2 MLOAD SWAP2 MSTORE PUSH1 0x44 DUP3 ADD MSTORE SWAP1 MLOAD SWAP1 DUP2 SWAP1 SUB PUSH1 0x64 ADD SWAP1 REVERT JUMPDEST PUSH1 0x0 DUP7 DUP2 MSTORE PUSH1 0x6 PUSH1 0x20 MSTORE PUSH1 0x40 SWAP1 KECCAK256 PUSH1 0xC ADD SLOAD PUSH1 0x1 PUSH1 0x1 PUSH1 0xA0 SHL SUB AND CALLER DUP2 EQ PUSH2 0x433 JUMPI PUSH1 0x40 DUP1 MLOAD PUSH3 0x461BCD PUSH1 0xE5 SHL DUP2 MSTORE PUSH1 0x20 PUSH1 0x4 DUP3 ADD MSTORE PUSH1 0x18 PUSH1 0x24 DUP3 ADD MSTORE PUSH24 0x21B0B73737BA1031329031B0B63632B210313C903AB9B2B9 PUSH1 0x41 SHL PUSH1 0x44 DUP3 ADD MSTORE SWAP1 MLOAD SWAP1 DUP2 SWAP1 SUB PUSH1 0x64 ADD SWAP1 REVERT JUMPDEST PUSH1 0x0 DUP8 DUP2 MSTORE PUSH1 0x2 PUSH1 0x20 SWAP1 DUP2 MSTORE PUSH1 0x40 DUP1 DUP4 KECCAK256 DUP1 SLOAD PUSH1 0x1 ADD SWAP1 SSTORE PUSH1 0x6 SWAP1 SWAP2 MSTORE DUP2 KECCAK256 DUP9 SWAP2 PUSH2 0x45D DUP4 PUSH2 0x3B2A JUMP JUMPDEST PUSH1 0x6 DUP4 ADD SLOAD ADD TIMESTAMP GT SWAP1 POP PUSH1 0x4 PUSH1 0x11 DUP4 ADD SLOAD PUSH1 0xFF AND PUSH1 0xA DUP2 GT ISZERO PUSH2 0x47C JUMPI INVALID JUMPDEST EQ DUP1 PUSH2 0x4A2 JUMPI POP PUSH1 0x2 PUSH1 0x11 DUP4 ADD SLOAD PUSH1 0xFF AND PUSH1 0xA DUP2 GT ISZERO PUSH2 0x498 JUMPI INVALID JUMPDEST EQ DUP1 ISZERO PUSH2 0x4A2 JUMPI POP DUP1 JUMPDEST PUSH2 0x4C7 JUMPI PUSH1 0x40 MLOAD PUSH3 0x461BCD PUSH1 0xE5 SHL DUP2 MSTORE PUSH1 0x4 ADD PUSH2 0x4BE SWAP1 PUSH2 0x4CA8 JUMP JUMPDEST PUSH1 0x40 MLOAD DUP1 SWAP2 SUB SWAP1 REVERT JUMPDEST DUP8 MLOAD PUSH1 0x15 DUP4 ADD SLOAD EQ PUSH2 0x4EB JUMPI PUSH1 0x40 MLOAD PUSH3 0x461BCD PUSH1 0xE5 SHL DUP2 MSTORE PUSH1 0x4 ADD PUSH2 0x4BE SWAP1 PUSH2 0x4BDB JUMP JUMPDEST PUSH1 0x4 DUP3 ADD SLOAD DUP8 MLOAD PUSH1 0x1 PUSH1 0x40 SHL SWAP1 SWAP2 DIV PUSH1 0xFF AND PUSH1 0x2 EXP EQ PUSH2 0x51D JUMPI PUSH1 0x40 MLOAD PUSH3 0x461BCD PUSH1 0xE5 SHL DUP2 MSTORE PUSH1 0x4 ADD PUSH2 0x4BE SWAP1 PUSH2 0x51FE JUMP JUMPDEST PUSH1 0x60 PUSH2 0x528 DUP9 PUSH2 0x3E44 JUMP JUMPDEST PUSH1 0x4 DUP5 DUP2 ADD SLOAD PUSH1 0x40 MLOAD PUSH4 0x10561D57 PUSH1 0xE3 SHL DUP2 MSTORE SWAP3 SWAP4 POP DUP13 SWAP3 PUSH20 0x0 SWAP3 PUSH4 0xD7304DD9 SWAP3 PUSH1 0x1 PUSH1 0x1 PUSH1 0x40 SHL SUB DUP2 AND SWAP3 PUSH1 0x1 PUSH1 0x40 SHL SWAP1 SWAP2 DIV PUSH1 0xFF AND SWAP2 DUP6 SWAP2 PUSH4 0x82B0EAB8 SWAP2 PUSH2 0x587 SWAP2 DUP11 SWAP2 ADD PUSH2 0x4967 JUMP JUMPDEST PUSH1 0x20 PUSH1 0x40 MLOAD DUP1 DUP4 SUB DUP2 DUP7 DUP1 EXTCODESIZE ISZERO DUP1 ISZERO PUSH2 0x59F JUMPI PUSH1 0x0 DUP1 REVERT JUMPDEST POP GAS DELEGATECALL ISZERO DUP1 ISZERO PUSH2 0x5B3 JUMPI RETURNDATASIZE PUSH1 0x0 DUP1 RETURNDATACOPY RETURNDATASIZE PUSH1 0x0 REVERT JUMPDEST POP POP POP POP PUSH1 0x40 MLOAD RETURNDATASIZE PUSH1 0x1F NOT PUSH1 0x1F DUP3 ADD AND DUP3 ADD DUP1 PUSH1 0x40 MSTORE POP DUP2 ADD SWAP1 PUSH2 0x5D7 SWAP2 SWAP1 PUSH2 0x43BA JUMP JUMPDEST DUP13 PUSH1 0x40 MLOAD DUP6 PUSH4 0xFFFFFFFF AND PUSH1 0xE0 SHL DUP2 MSTORE PUSH1 0x4 ADD PUSH2 0x5F7 SWAP5 SWAP4 SWAP3 SWAP2 SWAP1 PUSH2 0x54B2 JUMP JUMPDEST PUSH1 0x20 PUSH1 0x40 MLOAD DUP1 DUP4 SUB DUP2 DUP7 DUP1 EXTCODESIZE ISZERO DUP1 ISZERO PUSH2 0x60F JUMPI PUSH1 0x0 DUP1 REVERT JUMPDEST POP GAS DELEGATECALL ISZERO DUP1 ISZERO PUSH2 0x623 JUMPI RETURNDATASIZE PUSH1 0x0 DUP1 RETURNDATACOPY RETURNDATASIZE PUSH1 0x0 REVERT JUMPDEST POP POP POP POP PUSH1 0x40 MLOAD RETURNDATASIZE PUSH1 0x1F NOT PUSH1 0x1F DUP3 ADD AND DUP3 ADD DUP1 PUSH1 0x40 MSTORE POP DUP2 ADD SWAP1 PUSH2 0x647 SWAP2 SWAP1 PUSH2 0x43BA JUMP JUMPDEST EQ PUSH2 0x664 JUMPI PUSH1 0x40 MLOAD PUSH3 0x461BCD PUSH1 0xE5 SHL DUP2 MSTORE PUSH1 0x4 ADD PUSH2 0x4BE SWAP1 PUSH2 0x4AD9 JUMP JUMPDEST PUSH1 0x15 DUP4 ADD SLOAD PUSH1 0x0 JUMPDEST DUP2 DUP2 LT ISZERO PUSH2 0x955 JUMPI PUSH1 0x60 DUP12 DUP3 DUP2 MLOAD DUP2 LT PUSH2 0x682 JUMPI INVALID JUMPDEST PUSH1 0x20 MUL PUSH1 0x20 ADD ADD MLOAD SWAP1 POP DUP6 PUSH1 0x9 ADD SLOAD PUSH20 0x0 PUSH4 0xD7304DD9 DUP9 PUSH1 0x15 ADD DUP6 DUP2 SLOAD DUP2 LT PUSH2 0x6BA JUMPI INVALID JUMPDEST PUSH1 0x0 SWAP2 DUP3 MSTORE PUSH1 0x20 SWAP1 SWAP2 KECCAK256 PUSH1 0x5 SWAP1 SWAP2 MUL ADD SLOAD PUSH1 0x15 DUP11 ADD DUP1 SLOAD PUSH1 0x1 PUSH1 0x1 PUSH1 0x40 SHL SUB SWAP1 SWAP3 AND SWAP2 DUP8 SWAP1 DUP2 LT PUSH2 0x6E7 JUMPI INVALID JUMPDEST SWAP1 PUSH1 0x0 MSTORE PUSH1 0x20 PUSH1 0x0 KECCAK256 SWAP1 PUSH1 0x5 MUL ADD PUSH1 0x0 ADD PUSH1 0x8 SWAP1 SLOAD SWAP1 PUSH2 0x100 EXP SWAP1 DIV PUSH1 0xFF AND PUSH20 0x0 PUSH4 0xA7342688 DUP13 PUSH1 0x15 ADD DUP10 DUP2 SLOAD DUP2 LT PUSH2 0x72F JUMPI INVALID JUMPDEST PUSH1 0x0 SWAP2 DUP3 MSTORE PUSH1 0x20 SWAP1 SWAP2 KECCAK256 PUSH1 0x5 SWAP1 SWAP2 MUL ADD SLOAD PUSH1 0x40 MLOAD PUSH1 0xE0 DUP4 SWAP1 SHL PUSH1 0x1 PUSH1 0x1 PUSH1 0xE0 SHL SUB NOT AND DUP2 MSTORE PUSH2 0x76B SWAP2 PUSH1 0x1 PUSH1 0x40 SHL SWAP1 DIV PUSH1 0xFF AND SWAP1 PUSH1 0x4 ADD PUSH2 0x54E3 JUMP JUMPDEST PUSH1 0x20 PUSH1 0x40 MLOAD DUP1 DUP4 SUB DUP2 DUP7 DUP1 EXTCODESIZE ISZERO DUP1 ISZERO PUSH2 0x783 JUMPI PUSH1 0x0 DUP1 REVERT JUMPDEST POP GAS DELEGATECALL ISZERO DUP1 ISZERO PUSH2 0x797 JUMPI RETURNDATASIZE PUSH1 0x0 DUP1 RETURNDATACOPY RETURNDATASIZE PUSH1 0x0 REVERT JUMPDEST POP POP POP POP PUSH1 0x40 MLOAD RETURNDATASIZE PUSH1 0x1F NOT PUSH1 0x1F DUP3 ADD AND DUP3 ADD DUP1 PUSH1 0x40 MSTORE POP DUP2 ADD SWAP1 PUSH2 0x7BB SWAP2 SWAP1 PUSH2 0x43BA JUMP JUMPDEST DUP7 PUSH1 0x40 MLOAD DUP6 PUSH4 0xFFFFFFFF AND PUSH1 0xE0 SHL DUP2 MSTORE PUSH1 0x4 ADD PUSH2 0x7DB SWAP5 SWAP4 SWAP3 SWAP2 SWAP1 PUSH2 0x54B2 JUMP JUMPDEST PUSH1 0x20 PUSH1 0x40 MLOAD DUP1 DUP4 SUB DUP2 DUP7 DUP1 EXTCODESIZE ISZERO DUP1 ISZERO PUSH2 0x7F3 JUMPI PUSH1 0x0 DUP1 REVERT JUMPDEST POP GAS DELEGATECALL ISZERO DUP1 ISZERO PUSH2 0x807 JUMPI RETURNDATASIZE PUSH1 0x0 DUP1 RETURNDATACOPY RETURNDATASIZE PUSH1 0x0 REVERT JUMPDEST POP POP POP POP PUSH1 0x40 MLOAD RETURNDATASIZE PUSH1 0x1F NOT PUSH1 0x1F DUP3 ADD AND DUP3 ADD DUP1 PUSH1 0x40 MSTORE POP DUP2 ADD SWAP1 PUSH2 0x82B SWAP2 SWAP1 PUSH2 0x43BA JUMP JUMPDEST EQ PUSH2 0x848 JUMPI PUSH1 0x40 MLOAD PUSH3 0x461BCD PUSH1 0xE5 SHL DUP2 MSTORE PUSH1 0x4 ADD PUSH2 0x4BE SWAP1 PUSH2 0x4B69 JUMP JUMPDEST PUSH20 0x0 PUSH4 0xD7304DD9 DUP8 PUSH1 0x15 ADD DUP5 DUP2 SLOAD DUP2 LT PUSH2 0x871 JUMPI INVALID JUMPDEST PUSH1 0x0 SWAP2 DUP3 MSTORE PUSH1 0x20 SWAP1 SWAP2 KECCAK256 PUSH1 0x5 SWAP1 SWAP2 MUL ADD SLOAD PUSH1 0x15 DUP10 ADD DUP1 SLOAD PUSH1 0x1 PUSH1 0x1 PUSH1 0x40 SHL SUB SWAP1 SWAP3 AND SWAP2 DUP7 SWAP1 DUP2 LT PUSH2 0x89E JUMPI INVALID JUMPDEST SWAP1 PUSH1 0x0 MSTORE PUSH1 0x20 PUSH1 0x0 KECCAK256 SWAP1 PUSH1 0x5 MUL ADD PUSH1 0x0 ADD PUSH1 0x8 SWAP1 SLOAD SWAP1 PUSH2 0x100 EXP SWAP1 DIV PUSH1 0xFF AND DUP10 PUSH1 0x14 ADD DUP7 DUP2 SLOAD DUP2 LT PUSH2 0x8CC JUMPI INVALID JUMPDEST SWAP1 PUSH1 0x0 MSTORE PUSH1 0x20 PUSH1 0x0 KECCAK256 ADD SLOAD DUP6 PUSH1 0x40 MLOAD DUP6 PUSH4 0xFFFFFFFF AND PUSH1 0xE0 SHL DUP2 MSTORE PUSH1 0x4 ADD PUSH2 0x8F7 SWAP5 SWAP4 SWAP3 SWAP2 SWAP1 PUSH2 0x54B2 JUMP JUMPDEST PUSH1 0x20 PUSH1 0x40 MLOAD DUP1 DUP4 SUB DUP2 DUP7 DUP1 EXTCODESIZE ISZERO DUP1 ISZERO PUSH2 0x90F JUMPI PUSH1 0x0 DUP1 REVERT JUMPDEST POP GAS DELEGATECALL ISZERO DUP1 ISZERO PUSH2 0x923 JUMPI RETURNDATASIZE PUSH1 0x0 DUP1 RETURNDATACOPY RETURNDATASIZE PUSH1 0x0 REVERT JUMPDEST POP POP POP POP PUSH1 0x40 MLOAD RETURNDATASIZE PUSH1 0x1F NOT PUSH1 0x1F DUP3 ADD AND DUP3 ADD DUP1 PUSH1 0x40 MSTORE POP DUP2 ADD SWAP1 PUSH2 0x947 SWAP2 SWAP1 PUSH2 0x43BA JUMP JUMPDEST PUSH1 0x9 DUP8 ADD SSTORE POP PUSH1 0x1 ADD PUSH2 0x66C JUMP JUMPDEST POP PUSH1 0xA DUP5 ADD DUP12 SWAP1 SSTORE PUSH1 0x11 DUP5 ADD DUP1 SLOAD PUSH1 0xFF NOT AND PUSH1 0x6 OR SWAP1 SSTORE DUP9 MLOAD PUSH2 0x981 SWAP1 PUSH1 0xB DUP7 ADD SWAP1 PUSH1 0x20 DUP13 ADD SWAP1 PUSH2 0x3F38 JUMP JUMPDEST POP PUSH1 0xC DUP5 ADD SLOAD PUSH1 0x1 PUSH1 0x1 PUSH1 0xA0 SHL SUB AND PUSH1 0x0 SWAP1 DUP2 MSTORE PUSH1 0x10 DUP6 ADD PUSH1 0x20 MSTORE PUSH1 0x40 SWAP1 DUP2 SWAP1 KECCAK256 DUP1 SLOAD PUSH2 0xFF00 NOT AND PUSH2 0x100 OR SWAP1 SSTORE TIMESTAMP PUSH1 0x6 DUP7 ADD SSTORE MLOAD PUSH32 0x1E9358F673FF367487CE56F136412AE5B69BF2C06E223AAD2756D748C2A9B52A SWAP1 PUSH2 0x9E5 SWAP1 DUP15 SWAP1 DUP15 SWAP1 PUSH2 0x53BE JUMP JUMPDEST PUSH1 0x40 MLOAD DUP1 SWAP2 SUB SWAP1 LOG1 POP POP POP POP POP POP POP POP POP POP POP POP JUMP JUMPDEST PUSH1 0x0 DUP2 DUP1 PUSH1 0x0 SLOAD GT PUSH2 0xA42 JUMPI PUSH1 0x40 DUP1 MLOAD PUSH3 0x461BCD PUSH1 0xE5 SHL DUP2 MSTORE PUSH1 0x20 PUSH1 0x4 DUP3 ADD MSTORE PUSH1 0x16 PUSH1 0x24 DUP3 ADD MSTORE PUSH1 0x0 DUP1 MLOAD PUSH1 0x20 PUSH2 0x5578 DUP4 CODECOPY DUP2 MLOAD SWAP2 MSTORE PUSH1 0x44 DUP3 ADD MSTORE SWAP1 MLOAD SWAP1 DUP2 SWAP1 SUB PUSH1 0x64 ADD SWAP1 REVERT JUMPDEST PUSH2 0xA4B DUP2 PUSH2 0x17EB JUMP JUMPDEST PUSH2 0xA8D JUMPI PUSH1 0x40 DUP1 MLOAD PUSH3 0x461BCD PUSH1 0xE5 SHL DUP2 MSTORE PUSH1 0x20 PUSH1 0x4 DUP3 ADD MSTORE PUSH1 0xE PUSH1 0x24 DUP3 ADD MSTORE PUSH14 0x496E64657820696E616374697665 PUSH1 0x90 SHL PUSH1 0x44 DUP3 ADD MSTORE SWAP1 MLOAD SWAP1 DUP2 SWAP1 SUB PUSH1 0x64 ADD SWAP1 REVERT JUMPDEST PUSH1 0x0 DUP4 DUP2 MSTORE PUSH1 0x2 PUSH1 0x20 MSTORE PUSH1 0x40 SWAP1 KECCAK256 SLOAD SWAP2 POP JUMPDEST POP SWAP2 SWAP1 POP JUMP JUMPDEST DUP1 DUP1 PUSH1 0x0 SLOAD GT PUSH2 0xAEA JUMPI PUSH1 0x40 DUP1 MLOAD PUSH3 0x461BCD PUSH1 0xE5 SHL DUP2 MSTORE PUSH1 0x20 PUSH1 0x4 DUP3 ADD MSTORE PUSH1 0x16 PUSH1 0x24 DUP3 ADD MSTORE PUSH1 0x0 DUP1 MLOAD PUSH1 0x20 PUSH2 0x5578 DUP4 CODECOPY DUP2 MLOAD SWAP2 MSTORE PUSH1 0x44 DUP3 ADD MSTORE SWAP1 MLOAD SWAP1 DUP2 SWAP1 SUB PUSH1 0x64 ADD SWAP1 REVERT JUMPDEST PUSH1 0x0 DUP3 DUP2 MSTORE PUSH1 0x6 PUSH1 0x20 MSTORE PUSH1 0x40 DUP2 KECCAK256 SWAP1 PUSH2 0xB02 DUP5 PUSH2 0x3B2A JUMP JUMPDEST DUP3 PUSH1 0x6 ADD SLOAD ADD TIMESTAMP GT SWAP1 POP DUP1 PUSH2 0xB29 JUMPI PUSH1 0x40 MLOAD PUSH3 0x461BCD PUSH1 0xE5 SHL DUP2 MSTORE PUSH1 0x4 ADD PUSH2 0x4BE SWAP1 PUSH2 0x4DED JUMP JUMPDEST PUSH1 0x0 PUSH1 0x11 DUP4 ADD SLOAD PUSH1 0xFF AND PUSH1 0xA DUP2 GT ISZERO PUSH2 0xB3E JUMPI INVALID JUMPDEST EQ ISZERO PUSH2 0xB61 JUMPI PUSH1 0x11 DUP3 ADD DUP1 SLOAD PUSH1 0x1 SWAP2 SWAP1 PUSH1 0xFF NOT AND DUP3 DUP1 JUMPDEST MUL OR SWAP1 SSTORE POP POP POP PUSH2 0xC0B JUMP JUMPDEST PUSH1 0x3 PUSH1 0x11 DUP4 ADD SLOAD PUSH1 0xFF AND PUSH1 0xA DUP2 GT ISZERO PUSH2 0xB76 JUMPI INVALID JUMPDEST EQ ISZERO PUSH2 0xB91 JUMPI PUSH1 0x11 DUP3 ADD DUP1 SLOAD PUSH1 0x1 SWAP2 SWAP1 PUSH1 0xFF NOT AND DUP3 DUP1 PUSH2 0xB55 JUMP JUMPDEST PUSH1 0x4 PUSH1 0x11 DUP4 ADD SLOAD PUSH1 0xFF AND PUSH1 0xA DUP2 GT ISZERO PUSH2 0xBA6 JUMPI INVALID JUMPDEST EQ ISZERO PUSH2 0xBC2 JUMPI PUSH1 0x11 DUP3 ADD DUP1 SLOAD PUSH1 0x5 SWAP2 SWAP1 PUSH1 0xFF NOT AND PUSH1 0x1 DUP4 PUSH2 0xB55 JUMP JUMPDEST PUSH1 0x6 PUSH1 0x11 DUP4 ADD SLOAD PUSH1 0xFF AND PUSH1 0xA DUP2 GT ISZERO PUSH2 0xBD7 JUMPI INVALID JUMPDEST EQ ISZERO PUSH2 0xBF3 JUMPI PUSH1 0x11 DUP3 ADD DUP1 SLOAD PUSH1 0xA SWAP2 SWAP1 PUSH1 0xFF NOT AND PUSH1 0x1 DUP4 PUSH2 0xB55 JUMP JUMPDEST PUSH1 0x40 MLOAD PUSH3 0x461BCD PUSH1 0xE5 SHL DUP2 MSTORE PUSH1 0x4 ADD PUSH2 0x4BE SWAP1 PUSH2 0x4F45 JUMP JUMPDEST POP POP JUMP JUMPDEST PUSH1 0x0 DUP2 DUP1 PUSH1 0x0 SLOAD GT PUSH2 0xC56 JUMPI PUSH1 0x40 DUP1 MLOAD PUSH3 0x461BCD PUSH1 0xE5 SHL DUP2 MSTORE PUSH1 0x20 PUSH1 0x4 DUP3 ADD MSTORE PUSH1 0x16 PUSH1 0x24 DUP3 ADD MSTORE PUSH1 0x0 DUP1 MLOAD PUSH1 0x20 PUSH2 0x5578 DUP4 CODECOPY DUP2 MLOAD SWAP2 MSTORE PUSH1 0x44 DUP3 ADD MSTORE SWAP1 MLOAD SWAP1 DUP2 SWAP1 SUB PUSH1 0x64 ADD SWAP1 REVERT JUMPDEST PUSH1 0x0 DUP4 DUP2 MSTORE PUSH1 0x6 PUSH1 0x20 MSTORE PUSH1 0x40 DUP2 KECCAK256 PUSH1 0x11 ADD SLOAD PUSH1 0xFF AND SWAP1 DUP2 PUSH1 0xA DUP2 GT ISZERO PUSH2 0xC78 JUMPI INVALID JUMPDEST EQ ISZERO PUSH2 0xC9A JUMPI PUSH16 0x57616974696E6750726F766964657273 PUSH1 0x80 SHL SWAP3 POP POP PUSH2 0xA9F JUMP JUMPDEST PUSH1 0x3 DUP2 PUSH1 0xA DUP2 GT ISZERO PUSH2 0xCA8 JUMPI INVALID JUMPDEST EQ ISZERO PUSH2 0xCC8 JUMPI PUSH14 0x57616974696E6752657665616C73 PUSH1 0x90 SHL SWAP3 POP POP PUSH2 0xA9F JUMP JUMPDEST PUSH1 0x2 DUP2 PUSH1 0xA DUP2 GT ISZERO PUSH2 0xCD6 JUMPI INVALID JUMPDEST EQ ISZERO PUSH2 0xCFE JUMPI PUSH22 0x57616974696E674368616C6C656E6765447269766573 PUSH1 0x50 SHL SWAP3 POP POP PUSH2 0xA9F JUMP JUMPDEST PUSH1 0x5 DUP2 PUSH1 0xA DUP2 GT ISZERO PUSH2 0xD0C JUMPI INVALID JUMPDEST EQ ISZERO PUSH2 0xD33 JUMPI PUSH21 0x436C61696D65724D6973736564446561646C696E65 PUSH1 0x58 SHL SWAP3 POP POP PUSH2 0xA9F JUMP JUMPDEST PUSH1 0x1 DUP2 PUSH1 0xA DUP2 GT ISZERO PUSH2 0xD41 JUMPI INVALID JUMPDEST EQ ISZERO PUSH2 0xD69 JUMPI PUSH22 0x50726F76696465724D6973736564446561646C696E65 PUSH1 0x50 SHL SWAP3 POP POP PUSH2 0xA9F JUMP JUMPDEST PUSH1 0x4 DUP2 PUSH1 0xA DUP2 GT ISZERO PUSH2 0xD77 JUMPI INVALID JUMPDEST EQ ISZERO PUSH2 0xD95 JUMPI PUSH12 0x57616974696E67436C61696D PUSH1 0xA0 SHL SWAP3 POP POP PUSH2 0xA9F JUMP JUMPDEST PUSH1 0x6 DUP2 PUSH1 0xA DUP2 GT ISZERO PUSH2 0xDA3 JUMPI INVALID JUMPDEST EQ ISZERO PUSH2 0xDD2 JUMPI PUSH32 0x57616974696E67436F6E6669726D6174696F6E446561646C696E650000000000 SWAP3 POP POP PUSH2 0xA9F JUMP JUMPDEST PUSH1 0x7 DUP2 PUSH1 0xA DUP2 GT ISZERO PUSH2 0xDE0 JUMPI INVALID JUMPDEST EQ ISZERO PUSH2 0xE08 JUMPI PUSH22 0x15D85A5D1A5B99D0DA185B1B195B99D954995CDD5B1D PUSH1 0x52 SHL SWAP3 POP POP PUSH2 0xA9F JUMP JUMPDEST PUSH1 0xA DUP2 PUSH1 0xA DUP2 GT ISZERO PUSH2 0xE16 JUMPI INVALID JUMPDEST EQ ISZERO PUSH2 0xE37 JUMPI PUSH15 0x10DBDB9CD95B9CDD5CD4995CDD5B1D PUSH1 0x8A SHL SWAP3 POP POP PUSH2 0xA9F JUMP JUMPDEST PUSH1 0x8 DUP2 PUSH1 0xA DUP2 GT ISZERO PUSH2 0xE45 JUMPI INVALID JUMPDEST EQ ISZERO PUSH2 0xE64 JUMPI PUSH13 0x21B430B63632B733B2B92BB7B7 PUSH1 0x99 SHL SWAP3 POP POP PUSH2 0xA9F JUMP JUMPDEST PUSH1 0x9 DUP2 PUSH1 0xA DUP2 GT ISZERO PUSH2 0xE72 JUMPI INVALID JUMPDEST EQ ISZERO PUSH2 0xE8E JUMPI PUSH10 0x21B630B4B6B2B92BB7B7 PUSH1 0xB1 SHL SWAP3 POP POP PUSH2 0xA9F JUMP JUMPDEST PUSH1 0x40 MLOAD PUSH3 0x461BCD PUSH1 0xE5 SHL DUP2 MSTORE PUSH1 0x4 ADD PUSH2 0x4BE SWAP1 PUSH2 0x4F7C JUMP JUMPDEST PUSH1 0x60 DUP1 PUSH1 0x60 DUP1 PUSH1 0x60 PUSH2 0xEB6 PUSH2 0x3FC4 JUMP JUMPDEST DUP8 DUP1 PUSH1 0x0 SLOAD GT PUSH2 0xEFB JUMPI PUSH1 0x40 DUP1 MLOAD PUSH3 0x461BCD PUSH1 0xE5 SHL DUP2 MSTORE PUSH1 0x20 PUSH1 0x4 DUP3 ADD MSTORE PUSH1 0x16 PUSH1 0x24 DUP3 ADD MSTORE PUSH1 0x0 DUP1 MLOAD PUSH1 0x20 PUSH2 0x5578 DUP4 CODECOPY DUP2 MLOAD SWAP2 MSTORE PUSH1 0x44 DUP3 ADD MSTORE SWAP1 MLOAD SWAP1 DUP2 SWAP1 SUB PUSH1 0x64 ADD SWAP1 REVERT JUMPDEST PUSH1 0x0 DUP10 DUP2 MSTORE PUSH1 0x6 PUSH1 0x20 SWAP1 DUP2 MSTORE PUSH1 0x40 DUP1 DUP4 KECCAK256 PUSH1 0x1 PUSH1 0x1 PUSH1 0xA0 SHL SUB DUP13 AND DUP5 MSTORE PUSH1 0x10 DUP2 ADD DUP4 MSTORE SWAP3 DUP2 SWAP1 KECCAK256 DUP2 MLOAD PUSH1 0x60 DUP1 DUP3 ADD DUP5 MSTORE SWAP2 SLOAD PUSH1 0xFF DUP1 DUP3 AND ISZERO ISZERO DUP4 MSTORE PUSH2 0x100 DUP3 DIV DUP2 AND ISZERO ISZERO DUP4 DUP8 ADD MSTORE PUSH3 0x10000 SWAP1 SWAP2 DIV AND ISZERO ISZERO DUP2 DUP5 ADD MSTORE DUP3 MLOAD PUSH1 0x4 DUP1 DUP3 MSTORE PUSH1 0xA0 DUP3 ADD SWAP1 SWAP5 MSTORE SWAP1 SWAP7 POP SWAP1 SWAP3 SWAP1 SWAP2 SWAP1 DUP3 ADD PUSH1 0x80 DUP1 CALLDATASIZE DUP4 CALLDATACOPY ADD SWAP1 POP POP SWAP1 POP DUP2 PUSH1 0x3 ADD SLOAD DUP2 PUSH1 0x0 DUP2 MLOAD DUP2 LT PUSH2 0xF87 JUMPI INVALID JUMPDEST PUSH1 0x20 MUL PUSH1 0x20 ADD ADD DUP2 DUP2 MSTORE POP POP PUSH2 0xF9C DUP12 PUSH2 0x3B2A JUMP JUMPDEST DUP3 PUSH1 0x6 ADD SLOAD ADD DUP2 PUSH1 0x1 DUP2 MLOAD DUP2 LT PUSH2 0xFAF JUMPI INVALID JUMPDEST PUSH1 0x20 SWAP1 DUP2 MUL SWAP2 SWAP1 SWAP2 ADD ADD MSTORE PUSH1 0x4 DUP3 ADD SLOAD DUP2 MLOAD PUSH1 0x1 PUSH1 0x1 PUSH1 0x40 SHL SUB SWAP1 SWAP2 AND SWAP1 DUP3 SWAP1 PUSH1 0x2 SWAP1 DUP2 LT PUSH2 0xFDA JUMPI INVALID JUMPDEST PUSH1 0x20 MUL PUSH1 0x20 ADD ADD DUP2 DUP2 MSTORE POP POP DUP2 PUSH1 0x4 ADD PUSH1 0x8 SWAP1 SLOAD SWAP1 PUSH2 0x100 EXP SWAP1 DIV PUSH1 0xFF AND PUSH1 0xFF AND DUP2 PUSH1 0x3 DUP2 MLOAD DUP2 LT PUSH2 0x1008 JUMPI INVALID JUMPDEST PUSH1 0x20 SWAP1 DUP2 MUL SWAP2 SWAP1 SWAP2 ADD ADD MSTORE PUSH1 0x40 DUP1 MLOAD PUSH1 0x2 DUP1 DUP3 MSTORE PUSH1 0x60 DUP3 DUP2 ADD SWAP1 SWAP4 MSTORE DUP2 PUSH1 0x20 ADD PUSH1 0x20 DUP3 MUL DUP1 CALLDATASIZE DUP4 CALLDATACOPY POP POP POP PUSH1 0xD DUP5 ADD SLOAD DUP2 MLOAD SWAP2 SWAP3 POP PUSH1 0x1 PUSH1 0x1 PUSH1 0xA0 SHL SUB AND SWAP1 DUP3 SWAP1 PUSH1 0x0 SWAP1 PUSH2 0x1052 JUMPI INVALID JUMPDEST PUSH1 0x1 PUSH1 0x1 PUSH1 0xA0 SHL SUB SWAP3 DUP4 AND PUSH1 0x20 SWAP2 DUP3 MUL SWAP3 SWAP1 SWAP3 ADD ADD MSTORE PUSH1 0xC DUP5 ADD SLOAD DUP3 MLOAD SWAP2 AND SWAP1 DUP3 SWAP1 PUSH1 0x1 SWAP1 DUP2 LT PUSH2 0x107F JUMPI INVALID JUMPDEST PUSH1 0x1 PUSH1 0x1 PUSH1 0xA0 SHL SUB SWAP3 SWAP1 SWAP3 AND PUSH1 0x20 SWAP3 DUP4 MUL SWAP2 SWAP1 SWAP2 ADD DUP3 ADD MSTORE PUSH1 0x40 DUP1 MLOAD PUSH1 0x4 DUP1 DUP3 MSTORE PUSH1 0xA0 DUP3 ADD SWAP1 SWAP3 MSTORE PUSH1 0x60 SWAP3 SWAP1 SWAP2 SWAP1 DUP3 ADD PUSH1 0x80 DUP1 CALLDATASIZE DUP4 CALLDATACOPY ADD SWAP1 POP POP SWAP1 POP DUP4 PUSH1 0x8 ADD SLOAD DUP2 PUSH1 0x0 DUP2 MLOAD DUP2 LT PUSH2 0x10CD JUMPI INVALID JUMPDEST PUSH1 0x20 MUL PUSH1 0x20 ADD ADD DUP2 DUP2 MSTORE POP POP DUP4 PUSH1 0x9 ADD SLOAD DUP2 PUSH1 0x1 DUP2 MLOAD DUP2 LT PUSH2 0x10EB JUMPI INVALID JUMPDEST PUSH1 0x20 MUL PUSH1 0x20 ADD ADD DUP2 DUP2 MSTORE POP POP DUP4 PUSH1 0xA ADD SLOAD DUP2 PUSH1 0x2 DUP2 MLOAD DUP2 LT PUSH2 0x1109 JUMPI INVALID JUMPDEST PUSH1 0x20 MUL PUSH1 0x20 ADD ADD DUP2 DUP2 MSTORE POP POP PUSH2 0x111E DUP14 PUSH2 0xC0F JUMP JUMPDEST DUP2 PUSH1 0x3 DUP2 MLOAD DUP2 LT PUSH2 0x112B JUMPI INVALID JUMPDEST PUSH1 0x20 SWAP1 DUP2 MUL SWAP2 SWAP1 SWAP2 ADD ADD MSTORE PUSH1 0x0 PUSH1 0x11 DUP6 ADD SLOAD PUSH1 0xFF AND PUSH1 0xA DUP2 GT ISZERO PUSH2 0x114B JUMPI INVALID JUMPDEST EQ ISZERO PUSH2 0x1424 JUMPI PUSH1 0x40 DUP1 MLOAD PUSH1 0x1 DUP1 DUP3 MSTORE DUP2 DUP4 ADD SWAP1 SWAP3 MSTORE PUSH1 0x60 SWAP2 DUP2 PUSH1 0x20 ADD JUMPDEST PUSH2 0x1170 PUSH2 0x3FE4 JUMP JUMPDEST DUP2 MSTORE PUSH1 0x20 ADD SWAP1 PUSH1 0x1 SWAP1 SUB SWAP1 DUP2 PUSH2 0x1168 JUMPI SWAP1 POP POP SWAP1 POP DUP5 PUSH1 0x15 ADD DUP6 PUSH1 0x13 ADD DUP7 PUSH1 0x2 ADD SLOAD DUP2 SLOAD DUP2 LT PUSH2 0x119C JUMPI INVALID JUMPDEST SWAP1 PUSH1 0x0 MSTORE PUSH1 0x20 PUSH1 0x0 KECCAK256 ADD SLOAD DUP2 SLOAD DUP2 LT PUSH2 0x11B1 JUMPI INVALID JUMPDEST PUSH1 0x0 SWAP2 DUP3 MSTORE PUSH1 0x20 SWAP2 DUP3 SWAP1 KECCAK256 PUSH1 0x40 DUP1 MLOAD PUSH2 0x100 DUP1 DUP3 ADD DUP4 MSTORE PUSH1 0x5 SWAP5 SWAP1 SWAP5 MUL SWAP1 SWAP3 ADD DUP1 SLOAD PUSH1 0x1 PUSH1 0x1 PUSH1 0x40 SHL SUB DUP2 AND DUP5 MSTORE PUSH1 0x1 PUSH1 0x40 SHL SWAP1 DIV PUSH1 0xFF AND DUP4 DUP7 ADD MSTORE PUSH1 0x1 DUP1 DUP3 ADD DUP1 SLOAD DUP5 MLOAD PUSH1 0x2 SWAP4 DUP3 AND ISZERO SWAP1 SWAP8 MUL PUSH1 0x0 NOT ADD AND SWAP2 SWAP1 SWAP2 DIV PUSH1 0x1F DUP2 ADD DUP8 SWAP1 DIV DUP8 MUL DUP7 ADD DUP8 ADD DUP5 MSTORE DUP1 DUP7 MSTORE SWAP4 SWAP6 SWAP2 SWAP5 SWAP3 DUP7 ADD SWAP4 SWAP1 SWAP2 DUP4 ADD DUP3 DUP3 DUP1 ISZERO PUSH2 0x1275 JUMPI DUP1 PUSH1 0x1F LT PUSH2 0x124A JUMPI PUSH2 0x100 DUP1 DUP4 SLOAD DIV MUL DUP4 MSTORE SWAP2 PUSH1 0x20 ADD SWAP2 PUSH2 0x1275 JUMP JUMPDEST DUP3 ADD SWAP2 SWAP1 PUSH1 0x0 MSTORE PUSH1 0x20 PUSH1 0x0 KECCAK256 SWAP1 JUMPDEST DUP2 SLOAD DUP2 MSTORE SWAP1 PUSH1 0x1 ADD SWAP1 PUSH1 0x20 ADD DUP1 DUP4 GT PUSH2 0x1258 JUMPI DUP3 SWAP1 SUB PUSH1 0x1F AND DUP3 ADD SWAP2 JUMPDEST POP POP POP SWAP2 DUP4 MSTORE POP POP PUSH1 0x2 DUP3 DUP2 ADD DUP1 SLOAD PUSH1 0x40 DUP1 MLOAD PUSH1 0x20 PUSH1 0x1 DUP5 AND ISZERO PUSH2 0x100 MUL PUSH1 0x0 NOT ADD SWAP1 SWAP4 AND SWAP5 SWAP1 SWAP5 DIV PUSH1 0x1F DUP2 ADD DUP4 SWAP1 DIV DUP4 MUL DUP6 ADD DUP4 ADD SWAP1 SWAP2 MSTORE DUP1 DUP5 MSTORE SWAP4 DUP2 ADD SWAP4 SWAP1 DUP4 ADD DUP3 DUP3 DUP1 ISZERO PUSH2 0x1307 JUMPI DUP1 PUSH1 0x1F LT PUSH2 0x12DC JUMPI PUSH2 0x100 DUP1 DUP4 SLOAD DIV MUL DUP4 MSTORE SWAP2 PUSH1 0x20 ADD SWAP2 PUSH2 0x1307 JUMP JUMPDEST DUP3 ADD SWAP2 SWAP1 PUSH1 0x0 MSTORE PUSH1 0x20 PUSH1 0x0 KECCAK256 SWAP1 JUMPDEST DUP2 SLOAD DUP2 MSTORE SWAP1 PUSH1 0x1 ADD SWAP1 PUSH1 0x20 ADD DUP1 DUP4 GT PUSH2 0x12EA JUMPI DUP3 SWAP1 SUB PUSH1 0x1F AND DUP3 ADD SWAP2 JUMPDEST POP POP POP SWAP2 DUP4 MSTORE POP POP PUSH1 0x3 DUP3 ADD SLOAD PUSH1 0x20 DUP3 ADD MSTORE PUSH1 0x4 SWAP1 SWAP2 ADD SLOAD PUSH1 0x1 PUSH1 0x1 PUSH1 0xA0 SHL SUB DUP2 AND PUSH1 0x40 DUP4 ADD MSTORE PUSH1 0xFF PUSH1 0x1 PUSH1 0xA0 SHL DUP3 DIV DUP2 AND ISZERO ISZERO PUSH1 0x60 DUP5 ADD MSTORE PUSH1 0x1 PUSH1 0xA8 SHL SWAP1 SWAP2 DIV AND ISZERO ISZERO PUSH1 0x80 SWAP1 SWAP2 ADD MSTORE DUP2 MLOAD DUP3 SWAP1 PUSH1 0x0 SWAP1 PUSH2 0x135E JUMPI INVALID JUMPDEST PUSH1 0x20 MUL PUSH1 0x20 ADD ADD DUP2 SWAP1 MSTORE POP DUP4 DUP4 DUP4 DUP8 PUSH1 0xB ADD DUP5 DUP12 DUP3 DUP1 SLOAD PUSH1 0x1 DUP2 PUSH1 0x1 AND ISZERO PUSH2 0x100 MUL SUB AND PUSH1 0x2 SWAP1 DIV DUP1 PUSH1 0x1F ADD PUSH1 0x20 DUP1 SWAP2 DIV MUL PUSH1 0x20 ADD PUSH1 0x40 MLOAD SWAP1 DUP2 ADD PUSH1 0x40 MSTORE DUP1 SWAP3 SWAP2 SWAP1 DUP2 DUP2 MSTORE PUSH1 0x20 ADD DUP3 DUP1 SLOAD PUSH1 0x1 DUP2 PUSH1 0x1 AND ISZERO PUSH2 0x100 MUL SUB AND PUSH1 0x2 SWAP1 DIV DUP1 ISZERO PUSH2 0x1407 JUMPI DUP1 PUSH1 0x1F LT PUSH2 0x13DC JUMPI PUSH2 0x100 DUP1 DUP4 SLOAD DIV MUL DUP4 MSTORE SWAP2 PUSH1 0x20 ADD SWAP2 PUSH2 0x1407 JUMP JUMPDEST DUP3 ADD SWAP2 SWAP1 PUSH1 0x0 MSTORE PUSH1 0x20 PUSH1 0x0 KECCAK256 SWAP1 JUMPDEST DUP2 SLOAD DUP2 MSTORE SWAP1 PUSH1 0x1 ADD SWAP1 PUSH1 0x20 ADD DUP1 DUP4 GT PUSH2 0x13EA JUMPI DUP3 SWAP1 SUB PUSH1 0x1F AND DUP3 ADD SWAP2 JUMPDEST POP POP POP POP POP SWAP3 POP SWAP12 POP SWAP12 POP SWAP12 POP SWAP12 POP SWAP12 POP SWAP12 POP POP POP POP POP POP PUSH2 0x17E0 JUMP JUMPDEST PUSH1 0x3 PUSH1 0x11 DUP6 ADD SLOAD PUSH1 0xFF AND PUSH1 0xA DUP2 GT ISZERO PUSH2 0x1439 JUMPI INVALID JUMPDEST EQ ISZERO PUSH2 0x148A JUMPI PUSH1 0x40 DUP1 MLOAD PUSH1 0x1 DUP1 DUP3 MSTORE DUP2 DUP4 ADD SWAP1 SWAP3 MSTORE PUSH1 0x60 SWAP2 DUP2 PUSH1 0x20 ADD JUMPDEST PUSH2 0x145E PUSH2 0x3FE4 JUMP JUMPDEST DUP2 MSTORE PUSH1 0x20 ADD SWAP1 PUSH1 0x1 SWAP1 SUB SWAP1 DUP2 PUSH2 0x1456 JUMPI SWAP1 POP POP SWAP1 POP DUP5 PUSH1 0x15 ADD DUP6 PUSH1 0x12 ADD DUP7 PUSH1 0x1 ADD SLOAD DUP2 SLOAD DUP2 LT PUSH2 0x119C JUMPI INVALID JUMPDEST PUSH1 0x1 PUSH1 0x11 DUP6 ADD SLOAD PUSH1 0xFF AND PUSH1 0xA DUP2 GT ISZERO PUSH2 0x149F JUMPI INVALID JUMPDEST EQ ISZERO PUSH2 0x154E JUMPI PUSH1 0x40 DUP1 MLOAD PUSH1 0x0 DUP1 DUP3 MSTORE PUSH1 0x20 DUP3 ADD SWAP1 SWAP3 MSTORE PUSH1 0x60 SWAP2 PUSH2 0x14D8 JUMP JUMPDEST PUSH2 0x14C5 PUSH2 0x3FE4 JUMP JUMPDEST DUP2 MSTORE PUSH1 0x20 ADD SWAP1 PUSH1 0x1 SWAP1 SUB SWAP1 DUP2 PUSH2 0x14BD JUMPI SWAP1 POP JUMPDEST POP SWAP1 POP DUP4 DUP4 DUP4 DUP8 PUSH1 0xB ADD DUP5 DUP12 DUP3 DUP1 SLOAD PUSH1 0x1 DUP2 PUSH1 0x1 AND ISZERO PUSH2 0x100 MUL SUB AND PUSH1 0x2 SWAP1 DIV DUP1 PUSH1 0x1F ADD PUSH1 0x20 DUP1 SWAP2 DIV MUL PUSH1 0x20 ADD PUSH1 0x40 MLOAD SWAP1 DUP2 ADD PUSH1 0x40 MSTORE DUP1 SWAP3 SWAP2 SWAP1 DUP2 DUP2 MSTORE PUSH1 0x20 ADD DUP3 DUP1 SLOAD PUSH1 0x1 DUP2 PUSH1 0x1 AND ISZERO PUSH2 0x100 MUL SUB AND PUSH1 0x2 SWAP1 DIV DUP1 ISZERO PUSH2 0x1407 JUMPI DUP1 PUSH1 0x1F LT PUSH2 0x13DC JUMPI PUSH2 0x100 DUP1 DUP4 SLOAD DIV MUL DUP4 MSTORE SWAP2 PUSH1 0x20 ADD SWAP2 PUSH2 0x1407 JUMP JUMPDEST PUSH1 0xB DUP5 ADD DUP1 SLOAD PUSH1 0x40 DUP1 MLOAD PUSH1 0x20 PUSH1 0x1F PUSH1 0x2 PUSH1 0x0 NOT PUSH2 0x100 PUSH1 0x1 DUP9 AND ISZERO MUL ADD SWAP1 SWAP6 AND SWAP5 SWAP1 SWAP5 DIV SWAP4 DUP5 ADD DUP2 SWAP1 DIV DUP2 MUL DUP3 ADD DUP2 ADD SWAP1 SWAP3 MSTORE DUP3 DUP2 MSTORE DUP7 SWAP4 DUP7 SWAP4 DUP7 SWAP4 SWAP2 SWAP3 PUSH1 0x15 DUP12 ADD SWAP3 DUP14 SWAP3 DUP6 SWAP2 DUP4 ADD DUP3 DUP3 DUP1 ISZERO PUSH2 0x15E6 JUMPI DUP1 PUSH1 0x1F LT PUSH2 0x15BB JUMPI PUSH2 0x100 DUP1 DUP4 SLOAD DIV MUL DUP4 MSTORE SWAP2 PUSH1 0x20 ADD SWAP2 PUSH2 0x15E6 JUMP JUMPDEST DUP3 ADD SWAP2 SWAP1 PUSH1 0x0 MSTORE PUSH1 0x20 PUSH1 0x0 KECCAK256 SWAP1 JUMPDEST DUP2 SLOAD DUP2 MSTORE SWAP1 PUSH1 0x1 ADD SWAP1 PUSH1 0x20 ADD DUP1 DUP4 GT PUSH2 0x15C9 JUMPI DUP3 SWAP1 SUB PUSH1 0x1F AND DUP3 ADD SWAP2 JUMPDEST POP POP POP POP POP SWAP3 POP DUP2 DUP1 SLOAD DUP1 PUSH1 0x20 MUL PUSH1 0x20 ADD PUSH1 0x40 MLOAD SWAP1 DUP2 ADD PUSH1 0x40 MSTORE DUP1 SWAP3 SWAP2 SWAP1 DUP2 DUP2 MSTORE PUSH1 0x20 ADD PUSH1 0x0 SWAP1 JUMPDEST DUP3 DUP3 LT ISZERO PUSH2 0x17C9 JUMPI PUSH1 0x0 DUP5 DUP2 MSTORE PUSH1 0x20 SWAP1 DUP2 SWAP1 KECCAK256 PUSH1 0x40 DUP1 MLOAD PUSH2 0x100 DUP1 DUP3 ADD DUP4 MSTORE PUSH1 0x5 DUP8 MUL SWAP1 SWAP4 ADD DUP1 SLOAD PUSH1 0x1 PUSH1 0x1 PUSH1 0x40 SHL SUB DUP2 AND DUP4 MSTORE PUSH1 0x1 PUSH1 0x40 SHL SWAP1 DIV PUSH1 0xFF AND DUP3 DUP7 ADD MSTORE PUSH1 0x1 DUP1 DUP3 ADD DUP1 SLOAD DUP6 MLOAD PUSH1 0x2 SWAP4 DUP3 AND ISZERO SWAP1 SWAP8 MUL PUSH1 0x0 NOT ADD AND SWAP2 SWAP1 SWAP2 DIV PUSH1 0x1F DUP2 ADD DUP8 SWAP1 DIV DUP8 MUL DUP7 ADD DUP8 ADD DUP6 MSTORE DUP1 DUP7 MSTORE SWAP3 SWAP6 SWAP2 SWAP5 SWAP4 DUP7 ADD SWAP4 SWAP3 SWAP1 SWAP2 DUP4 ADD DUP3 DUP3 DUP1 ISZERO PUSH2 0x16D9 JUMPI DUP1 PUSH1 0x1F LT PUSH2 0x16AE JUMPI PUSH2 0x100 DUP1 DUP4 SLOAD DIV MUL DUP4 MSTORE SWAP2 PUSH1 0x20 ADD SWAP2 PUSH2 0x16D9 JUMP JUMPDEST DUP3 ADD SWAP2 SWAP1 PUSH1 0x0 MSTORE PUSH1 0x20 PUSH1 0x0 KECCAK256 SWAP1 JUMPDEST DUP2 SLOAD DUP2 MSTORE SWAP1 PUSH1 0x1 ADD SWAP1 PUSH1 0x20 ADD DUP1 DUP4 GT PUSH2 0x16BC JUMPI DUP3 SWAP1 SUB PUSH1 0x1F AND DUP3 ADD SWAP2 JUMPDEST POP POP POP SWAP2 DUP4 MSTORE POP POP PUSH1 0x2 DUP3 DUP2 ADD DUP1 SLOAD PUSH1 0x40 DUP1 MLOAD PUSH1 0x20 PUSH1 0x1 DUP5 AND ISZERO PUSH2 0x100 MUL PUSH1 0x0 NOT ADD SWAP1 SWAP4 AND SWAP5 SWAP1 SWAP5 DIV PUSH1 0x1F DUP2 ADD DUP4 SWAP1 DIV DUP4 MUL DUP6 ADD DUP4 ADD SWAP1 SWAP2 MSTORE DUP1 DUP5 MSTORE SWAP4 DUP2 ADD SWAP4 SWAP1 DUP4 ADD DUP3 DUP3 DUP1 ISZERO PUSH2 0x176B JUMPI DUP1 PUSH1 0x1F LT PUSH2 0x1740 JUMPI PUSH2 0x100 DUP1 DUP4 SLOAD DIV MUL DUP4 MSTORE SWAP2 PUSH1 0x20 ADD SWAP2 PUSH2 0x176B JUMP JUMPDEST DUP3 ADD SWAP2 SWAP1 PUSH1 0x0 MSTORE PUSH1 0x20 PUSH1 0x0 KECCAK256 SWAP1 JUMPDEST DUP2 SLOAD DUP2 MSTORE SWAP1 PUSH1 0x1 ADD SWAP1 PUSH1 0x20 ADD DUP1 DUP4 GT PUSH2 0x174E JUMPI DUP3 SWAP1 SUB PUSH1 0x1F AND DUP3 ADD SWAP2 JUMPDEST POP POP POP SWAP2 DUP4 MSTORE POP POP PUSH1 0x3 DUP3 ADD SLOAD PUSH1 0x20 DUP1 DUP4 ADD SWAP2 SWAP1 SWAP2 MSTORE PUSH1 0x4 SWAP1 SWAP3 ADD SLOAD PUSH1 0x1 PUSH1 0x1 PUSH1 0xA0 SHL SUB DUP2 AND PUSH1 0x40 DUP4 ADD MSTORE PUSH1 0xFF PUSH1 0x1 PUSH1 0xA0 SHL DUP3 DIV DUP2 AND ISZERO ISZERO PUSH1 0x60 DUP5 ADD MSTORE PUSH1 0x1 PUSH1 0xA8 SHL SWAP1 SWAP2 DIV AND ISZERO ISZERO PUSH1 0x80 SWAP1 SWAP2 ADD MSTORE SWAP1 DUP3 MSTORE PUSH1 0x1 SWAP3 SWAP1 SWAP3 ADD SWAP2 ADD PUSH2 0x160E JUMP JUMPDEST POP POP POP POP SWAP2 POP SWAP11 POP SWAP11 POP SWAP11 POP SWAP11 POP SWAP11 POP SWAP11 POP POP POP POP POP JUMPDEST POP SWAP3 SWAP6 POP SWAP3 SWAP6 POP SWAP3 SWAP6 JUMP JUMPDEST PUSH1 0x0 DUP2 DUP2 MSTORE PUSH1 0x1 PUSH1 0x20 MSTORE PUSH1 0x40 SWAP1 KECCAK256 SLOAD PUSH1 0xFF AND JUMPDEST SWAP2 SWAP1 POP JUMP JUMPDEST PUSH1 0x0 SWAP1 DUP2 MSTORE PUSH1 0x1 PUSH1 0x20 SWAP1 DUP2 MSTORE PUSH1 0x40 DUP1 DUP4 KECCAK256 DUP1 SLOAD PUSH1 0xFF NOT AND SWAP1 SSTORE PUSH1 0x2 SWAP1 SWAP2 MSTORE DUP2 KECCAK256 SSTORE JUMP JUMPDEST PUSH1 0x0 DUP1 PUSH1 0x0 PUSH1 0x60 DUP5 DUP1 PUSH1 0x0 SLOAD GT PUSH2 0x1872 JUMPI PUSH1 0x40 DUP1 MLOAD PUSH3 0x461BCD PUSH1 0xE5 SHL DUP2 MSTORE PUSH1 0x20 PUSH1 0x4 DUP3 ADD MSTORE PUSH1 0x16 PUSH1 0x24 DUP3 ADD MSTORE PUSH1 0x0 DUP1 MLOAD PUSH1 0x20 PUSH2 0x5578 DUP4 CODECOPY DUP2 MLOAD SWAP2 MSTORE PUSH1 0x44 DUP3 ADD MSTORE SWAP1 MLOAD SWAP1 DUP2 SWAP1 SUB PUSH1 0x64 ADD SWAP1 REVERT JUMPDEST PUSH1 0x0 DUP7 DUP2 MSTORE PUSH1 0x6 PUSH1 0x20 MSTORE PUSH1 0x40 SWAP1 KECCAK256 PUSH1 0xA PUSH1 0x11 DUP3 ADD SLOAD PUSH1 0xFF AND PUSH1 0xA DUP2 GT ISZERO PUSH2 0x1895 JUMPI INVALID JUMPDEST EQ ISZERO PUSH2 0x194E JUMPI PUSH1 0x1 PUSH1 0x0 DUP1 DUP4 PUSH1 0xB ADD DUP1 DUP1 SLOAD PUSH1 0x1 DUP2 PUSH1 0x1 AND ISZERO PUSH2 0x100 MUL SUB AND PUSH1 0x2 SWAP1 DIV DUP1 PUSH1 0x1F ADD PUSH1 0x20 DUP1 SWAP2 DIV MUL PUSH1 0x20 ADD PUSH1 0x40 MLOAD SWAP1 DUP2 ADD PUSH1 0x40 MSTORE DUP1 SWAP3 SWAP2 SWAP1 DUP2 DUP2 MSTORE PUSH1 0x20 ADD DUP3 DUP1 SLOAD PUSH1 0x1 DUP2 PUSH1 0x1 AND ISZERO PUSH2 0x100 MUL SUB AND PUSH1 0x2 SWAP1 DIV DUP1 ISZERO PUSH2 0x1939 JUMPI DUP1 PUSH1 0x1F LT PUSH2 0x190E JUMPI PUSH2 0x100 DUP1 DUP4 SLOAD DIV MUL DUP4 MSTORE SWAP2 PUSH1 0x20 ADD SWAP2 PUSH2 0x1939 JUMP JUMPDEST DUP3 ADD SWAP2 SWAP1 PUSH1 0x0 MSTORE PUSH1 0x20 PUSH1 0x0 KECCAK256 SWAP1 JUMPDEST DUP2 SLOAD DUP2 MSTORE SWAP1 PUSH1 0x1 ADD SWAP1 PUSH1 0x20 ADD DUP1 DUP4 GT PUSH2 0x191C JUMPI DUP3 SWAP1 SUB PUSH1 0x1F AND DUP3 ADD SWAP2 JUMPDEST POP POP POP POP POP SWAP1 POP SWAP6 POP SWAP6 POP SWAP6 POP SWAP6 POP POP PUSH2 0x1BA5 JUMP JUMPDEST PUSH1 0x0 PUSH1 0x11 DUP3 ADD SLOAD PUSH1 0xFF AND PUSH1 0xA DUP2 GT ISZERO PUSH2 0x1963 JUMPI INVALID JUMPDEST EQ DUP1 PUSH2 0x1981 JUMPI POP PUSH1 0x4 PUSH1 0x11 DUP3 ADD SLOAD PUSH1 0xFF AND PUSH1 0xA DUP2 GT ISZERO PUSH2 0x197F JUMPI INVALID JUMPDEST EQ JUMPDEST DUP1 PUSH2 0x199E JUMPI POP PUSH1 0x6 PUSH1 0x11 DUP3 ADD SLOAD PUSH1 0xFF AND PUSH1 0xA DUP2 GT ISZERO PUSH2 0x199C JUMPI INVALID JUMPDEST EQ JUMPDEST DUP1 PUSH2 0x19BB JUMPI POP PUSH1 0x7 PUSH1 0x11 DUP3 ADD SLOAD PUSH1 0xFF AND PUSH1 0xA DUP2 GT ISZERO PUSH2 0x19B9 JUMPI INVALID JUMPDEST EQ JUMPDEST ISZERO PUSH2 0x19E4 JUMPI PUSH1 0x0 PUSH1 0x1 PUSH1 0x0 PUSH1 0x40 MLOAD DUP1 PUSH1 0x20 ADD PUSH1 0x40 MSTORE DUP1 PUSH1 0x0 DUP2 MSTORE POP SWAP6 POP SWAP6 POP SWAP6 POP SWAP6 POP POP PUSH2 0x1BA5 JUMP JUMPDEST PUSH1 0x1 PUSH1 0x11 DUP3 ADD SLOAD PUSH1 0xFF AND PUSH1 0xA DUP2 GT ISZERO PUSH2 0x19F9 JUMPI INVALID JUMPDEST EQ ISZERO PUSH2 0x1AFC JUMPI PUSH1 0x0 DUP8 DUP2 MSTORE PUSH1 0x6 PUSH1 0x20 MSTORE PUSH1 0x40 DUP2 KECCAK256 PUSH1 0x13 DUP2 ADD SLOAD PUSH1 0x2 SWAP1 SWAP2 ADD SLOAD LT ISZERO PUSH2 0x1A6E JUMPI DUP2 PUSH1 0x15 ADD DUP3 PUSH1 0x13 ADD DUP4 PUSH1 0x2 ADD SLOAD DUP2 SLOAD DUP2 LT PUSH2 0x1A35 JUMPI INVALID JUMPDEST SWAP1 PUSH1 0x0 MSTORE PUSH1 0x20 PUSH1 0x0 KECCAK256 ADD SLOAD DUP2 SLOAD DUP2 LT PUSH2 0x1A4A JUMPI INVALID JUMPDEST PUSH1 0x0 SWAP2 DUP3 MSTORE PUSH1 0x20 SWAP1 SWAP2 KECCAK256 PUSH1 0x4 PUSH1 0x5 SWAP1 SWAP3 MUL ADD ADD SLOAD PUSH1 0x1 PUSH1 0x1 PUSH1 0xA0 SHL SUB AND SWAP1 POP PUSH2 0x1AD9 JUMP JUMPDEST PUSH1 0x0 DUP9 DUP2 MSTORE PUSH1 0x6 PUSH1 0x20 MSTORE PUSH1 0x40 SWAP1 KECCAK256 PUSH1 0x12 DUP2 ADD SLOAD PUSH1 0x1 SWAP1 SWAP2 ADD SLOAD LT ISZERO PUSH2 0x1AD9 JUMPI DUP2 PUSH1 0x15 ADD DUP3 PUSH1 0x12 ADD DUP4 PUSH1 0x1 ADD SLOAD DUP2 SLOAD DUP2 LT PUSH2 0x1AA4 JUMPI INVALID JUMPDEST SWAP1 PUSH1 0x0 MSTORE PUSH1 0x20 PUSH1 0x0 KECCAK256 ADD SLOAD DUP2 SLOAD DUP2 LT PUSH2 0x1AB9 JUMPI INVALID JUMPDEST PUSH1 0x0 SWAP2 DUP3 MSTORE PUSH1 0x20 SWAP1 SWAP2 KECCAK256 PUSH1 0x4 PUSH1 0x5 SWAP1 SWAP3 MUL ADD ADD SLOAD PUSH1 0x1 PUSH1 0x1 PUSH1 0xA0 SHL SUB AND SWAP1 POP JUMPDEST PUSH1 0x0 DUP1 DUP3 PUSH1 0x40 MLOAD DUP1 PUSH1 0x20 ADD PUSH1 0x40 MSTORE DUP1 PUSH1 0x0 DUP2 MSTORE POP SWAP7 POP SWAP7 POP SWAP7 POP SWAP7 POP POP POP PUSH2 0x1BA5 JUMP JUMPDEST PUSH1 0x5 PUSH1 0x11 DUP3 ADD SLOAD PUSH1 0xFF AND PUSH1 0xA DUP2 GT ISZERO PUSH2 0x1B11 JUMPI INVALID JUMPDEST EQ DUP1 PUSH2 0x1B2F JUMPI POP PUSH1 0x8 PUSH1 0x11 DUP3 ADD SLOAD PUSH1 0xFF AND PUSH1 0xA DUP2 GT ISZERO PUSH2 0x1B2D JUMPI INVALID JUMPDEST EQ JUMPDEST ISZERO PUSH2 0x1B61 JUMPI PUSH1 0xC ADD SLOAD PUSH1 0x40 DUP1 MLOAD PUSH1 0x20 DUP2 ADD SWAP1 SWAP2 MSTORE PUSH1 0x0 DUP1 DUP3 MSTORE SWAP7 POP DUP7 SWAP6 POP PUSH1 0x1 PUSH1 0x1 PUSH1 0xA0 SHL SUB SWAP1 SWAP2 AND SWAP4 POP SWAP2 POP PUSH2 0x1BA5 JUMP JUMPDEST PUSH1 0x9 PUSH1 0x11 DUP3 ADD SLOAD PUSH1 0xFF AND PUSH1 0xA DUP2 GT ISZERO PUSH2 0x1B76 JUMPI INVALID JUMPDEST EQ ISZERO PUSH2 0xE8E JUMPI PUSH1 0xD ADD SLOAD PUSH1 0x40 DUP1 MLOAD PUSH1 0x20 DUP2 ADD SWAP1 SWAP2 MSTORE PUSH1 0x0 DUP1 DUP3 MSTORE SWAP7 POP DUP7 SWAP6 POP PUSH1 0x1 PUSH1 0x1 PUSH1 0xA0 SHL SUB SWAP1 SWAP2 AND SWAP4 POP SWAP2 POP JUMPDEST POP SWAP2 SWAP4 POP SWAP2 SWAP4 JUMP JUMPDEST PUSH1 0x0 DUP1 PUSH1 0x0 DUP5 DUP1 PUSH1 0x0 SLOAD GT PUSH2 0x1BF7 JUMPI PUSH1 0x40 DUP1 MLOAD PUSH3 0x461BCD PUSH1 0xE5 SHL DUP2 MSTORE PUSH1 0x20 PUSH1 0x4 DUP3 ADD MSTORE PUSH1 0x16 PUSH1 0x24 DUP3 ADD MSTORE PUSH1 0x0 DUP1 MLOAD PUSH1 0x20 PUSH2 0x5578 DUP4 CODECOPY DUP2 MLOAD SWAP2 MSTORE PUSH1 0x44 DUP3 ADD MSTORE SWAP1 MLOAD SWAP1 DUP2 SWAP1 SUB PUSH1 0x64 ADD SWAP1 REVERT JUMPDEST POP POP POP PUSH1 0x0 SWAP3 DUP4 MSTORE POP PUSH1 0x6 PUSH1 0x20 SWAP1 DUP2 MSTORE PUSH1 0x40 DUP1 DUP5 KECCAK256 PUSH1 0x1 PUSH1 0x1 PUSH1 0xA0 SHL SUB SWAP1 SWAP4 AND DUP5 MSTORE PUSH1 0x10 SWAP1 SWAP3 ADD SWAP1 MSTORE SWAP1 KECCAK256 SLOAD PUSH1 0xFF DUP1 DUP3 AND SWAP3 PUSH2 0x100 DUP4 DIV DUP3 AND SWAP3 PUSH3 0x10000 SWAP1 DIV SWAP1 SWAP2 AND SWAP1 JUMP JUMPDEST DUP1 DUP1 PUSH1 0x0 SLOAD GT PUSH2 0x1C82 JUMPI PUSH1 0x40 DUP1 MLOAD PUSH3 0x461BCD PUSH1 0xE5 SHL DUP2 MSTORE PUSH1 0x20 PUSH1 0x4 DUP3 ADD MSTORE PUSH1 0x16 PUSH1 0x24 DUP3 ADD MSTORE PUSH1 0x0 DUP1 MLOAD PUSH1 0x20 PUSH2 0x5578 DUP4 CODECOPY DUP2 MLOAD SWAP2 MSTORE PUSH1 0x44 DUP3 ADD MSTORE SWAP1 MLOAD SWAP1 DUP2 SWAP1 SUB PUSH1 0x64 ADD SWAP1 REVERT JUMPDEST PUSH1 0x0 DUP3 DUP2 MSTORE PUSH1 0x6 PUSH1 0x20 SWAP1 DUP2 MSTORE PUSH1 0x40 DUP1 DUP4 KECCAK256 CALLER DUP5 MSTORE PUSH1 0x10 DUP2 ADD SWAP1 SWAP3 MSTORE SWAP1 SWAP2 KECCAK256 SLOAD DUP4 SWAP2 SWAP1 PUSH1 0xFF AND PUSH2 0x1CC3 JUMPI PUSH1 0x40 MLOAD PUSH3 0x461BCD PUSH1 0xE5 SHL DUP2 MSTORE PUSH1 0x4 ADD PUSH2 0x4BE SWAP1 PUSH2 0x5376 JUMP JUMPDEST PUSH1 0x0 DUP5 DUP2 MSTORE PUSH1 0x6 PUSH1 0x20 SWAP1 DUP2 MSTORE PUSH1 0x40 DUP1 DUP4 KECCAK256 CALLER DUP5 MSTORE PUSH1 0x10 DUP2 ADD SWAP1 SWAP3 MSTORE SWAP1 SWAP2 KECCAK256 SLOAD DUP6 SWAP2 SWAP1 PUSH2 0x100 SWAP1 DIV PUSH1 0xFF AND ISZERO PUSH2 0x1D0A JUMPI PUSH1 0x40 MLOAD PUSH3 0x461BCD PUSH1 0xE5 SHL DUP2 MSTORE PUSH1 0x4 ADD PUSH2 0x4BE SWAP1 PUSH2 0x5057 JUMP JUMPDEST PUSH1 0x0 DUP7 DUP2 MSTORE PUSH1 0x2 PUSH1 0x20 SWAP1 DUP2 MSTORE PUSH1 0x40 DUP1 DUP4 KECCAK256 DUP1 SLOAD PUSH1 0x1 ADD SWAP1 SSTORE PUSH1 0x6 SWAP2 DUP3 SWAP1 MSTORE SWAP1 SWAP2 KECCAK256 DUP8 SWAP2 PUSH1 0x11 DUP3 ADD SLOAD PUSH1 0xFF AND PUSH1 0xA DUP2 GT ISZERO PUSH2 0x1D40 JUMPI INVALID JUMPDEST EQ PUSH2 0x1D5D JUMPI PUSH1 0x40 MLOAD PUSH3 0x461BCD PUSH1 0xE5 SHL DUP2 MSTORE PUSH1 0x4 ADD PUSH2 0x4BE SWAP1 PUSH2 0x4A8E JUMP JUMPDEST PUSH1 0x5 DUP1 SLOAD PUSH1 0xC DUP4 ADD SLOAD SWAP2 DUP4 ADD SLOAD PUSH1 0x3 DUP1 SLOAD PUSH1 0x9 DUP7 ADD SLOAD PUSH1 0xA DUP8 ADD SLOAD SWAP3 DUP8 ADD SLOAD PUSH1 0x40 MLOAD PUSH4 0x20B7387 PUSH1 0xE4 SHL DUP2 MSTORE PUSH1 0x1 PUSH1 0x1 PUSH1 0xA0 SHL SUB SWAP7 DUP8 AND SWAP8 PUSH4 0x20B73870 SWAP8 PUSH2 0x1DB4 SWAP8 CALLER SWAP8 SWAP3 DUP3 AND SWAP7 SWAP1 SWAP6 SWAP2 AND SWAP4 SWAP1 SWAP3 PUSH1 0x4 ADD PUSH2 0x48F5 JUMP JUMPDEST PUSH1 0x20 PUSH1 0x40 MLOAD DUP1 DUP4 SUB DUP2 PUSH1 0x0 DUP8 DUP1 EXTCODESIZE ISZERO DUP1 ISZERO PUSH2 0x1DCE JUMPI PUSH1 0x0 DUP1 REVERT JUMPDEST POP GAS CALL ISZERO DUP1 ISZERO PUSH2 0x1DE2 JUMPI RETURNDATASIZE PUSH1 0x0 DUP1 RETURNDATACOPY RETURNDATASIZE PUSH1 0x0 REVERT JUMPDEST POP POP POP POP PUSH1 0x40 MLOAD RETURNDATASIZE PUSH1 0x1F NOT PUSH1 0x1F DUP3 ADD AND DUP3 ADD DUP1 PUSH1 0x40 MSTORE POP DUP2 ADD SWAP1 PUSH2 0x1E06 SWAP2 SWAP1 PUSH2 0x43BA JUMP JUMPDEST PUSH1 0x7 DUP1 DUP4 ADD SWAP2 SWAP1 SWAP2 SSTORE PUSH1 0x11 DUP3 ADD DUP1 SLOAD PUSH1 0xFF NOT AND PUSH1 0x1 DUP4 MUL OR SWAP1 SSTORE POP CALLER PUSH1 0x0 DUP2 DUP2 MSTORE PUSH1 0x10 DUP4 ADD PUSH1 0x20 MSTORE PUSH1 0x40 SWAP1 DUP2 SWAP1 KECCAK256 DUP1 SLOAD PUSH2 0xFF00 NOT AND PUSH2 0x100 OR SWAP1 SSTORE PUSH1 0xD DUP4 ADD DUP1 SLOAD PUSH1 0x1 PUSH1 0x1 PUSH1 0xA0 SHL SUB NOT AND SWAP1 SWAP3 OR SWAP1 SWAP2 SSTORE PUSH1 0xF DUP3 ADD DUP1 SLOAD PUSH1 0x1 PUSH1 0x1 PUSH1 0x40 SHL SUB DUP1 DUP3 AND PUSH1 0x1 ADD AND PUSH8 0xFFFFFFFFFFFFFFFF NOT SWAP1 SWAP2 AND OR SWAP1 SSTORE TIMESTAMP PUSH1 0x6 DUP4 ADD SSTORE MLOAD PUSH32 0xA895DA4B794AEBA8D8082DB237265459DB7B7FFDB5AA7C2332A7C5EAFBFAE735 SWAP1 PUSH2 0x1EB0 SWAP1 DUP11 SWAP1 PUSH2 0x4A74 JUMP JUMPDEST PUSH1 0x40 MLOAD DUP1 SWAP2 SUB SWAP1 LOG1 POP POP POP POP POP POP POP POP JUMP JUMPDEST DUP1 DUP1 PUSH1 0x0 SLOAD GT PUSH2 0x1F07 JUMPI PUSH1 0x40 DUP1 MLOAD PUSH3 0x461BCD PUSH1 0xE5 SHL DUP2 MSTORE PUSH1 0x20 PUSH1 0x4 DUP3 ADD MSTORE PUSH1 0x16 PUSH1 0x24 DUP3 ADD MSTORE PUSH1 0x0 DUP1 MLOAD PUSH1 0x20 PUSH2 0x5578 DUP4 CODECOPY DUP2 MLOAD SWAP2 MSTORE PUSH1 0x44 DUP3 ADD MSTORE SWAP1 MLOAD SWAP1 DUP2 SWAP1 SUB PUSH1 0x64 ADD SWAP1 REVERT JUMPDEST PUSH1 0x0 DUP3 DUP2 MSTORE PUSH1 0x2 PUSH1 0x20 DUP2 DUP2 MSTORE PUSH1 0x40 DUP1 DUP5 KECCAK256 DUP1 SLOAD PUSH1 0x1 ADD SWAP1 SSTORE PUSH1 0x6 SWAP1 SWAP2 MSTORE SWAP1 SWAP2 KECCAK256 DUP4 SWAP2 PUSH1 0x11 DUP3 ADD SLOAD PUSH1 0xFF AND PUSH1 0xA DUP2 GT ISZERO PUSH2 0x1F3C JUMPI INVALID JUMPDEST EQ PUSH2 0x1F59 JUMPI PUSH1 0x40 MLOAD PUSH3 0x461BCD PUSH1 0xE5 SHL DUP2 MSTORE PUSH1 0x4 ADD PUSH2 0x4BE SWAP1 PUSH2 0x4E89 JUMP JUMPDEST CALLER PUSH1 0x0 SWAP1 DUP2 MSTORE PUSH1 0x10 DUP3 ADD PUSH1 0x20 MSTORE PUSH1 0x40 SWAP1 KECCAK256 SLOAD PUSH1 0xFF AND PUSH2 0x1F8A JUMPI PUSH1 0x40 MLOAD PUSH3 0x461BCD PUSH1 0xE5 SHL DUP2 MSTORE PUSH1 0x4 ADD PUSH2 0x4BE SWAP1 PUSH2 0x524A JUMP JUMPDEST PUSH1 0x11 DUP2 ADD DUP1 SLOAD PUSH1 0xFF NOT AND PUSH1 0x3 OR SWAP1 SSTORE TIMESTAMP PUSH1 0x6 SWAP1 SWAP2 ADD SSTORE POP POP POP JUMP JUMPDEST PUSH1 0x60 DUP1 DUP4 DUP1 PUSH1 0x0 SLOAD GT PUSH2 0x1FED JUMPI PUSH1 0x40 DUP1 MLOAD PUSH3 0x461BCD PUSH1 0xE5 SHL DUP2 MSTORE PUSH1 0x20 PUSH1 0x4 DUP3 ADD MSTORE PUSH1 0x16 PUSH1 0x24 DUP3 ADD MSTORE PUSH1 0x0 DUP1 MLOAD PUSH1 0x20 PUSH2 0x5578 DUP4 CODECOPY DUP2 MLOAD SWAP2 MSTORE PUSH1 0x44 DUP3 ADD MSTORE SWAP1 MLOAD SWAP1 DUP2 SWAP1 SUB PUSH1 0x64 ADD SWAP1 REVERT JUMPDEST PUSH1 0x60 DUP1 PUSH1 0x7 PUSH1 0x0 DUP9 DUP2 MSTORE PUSH1 0x6 PUSH1 0x20 MSTORE PUSH1 0x40 SWAP1 KECCAK256 PUSH1 0x11 ADD SLOAD PUSH1 0xFF AND PUSH1 0xA DUP2 GT ISZERO PUSH2 0x2012 JUMPI INVALID JUMPDEST EQ ISZERO PUSH2 0x20B8 JUMPI PUSH1 0x40 DUP1 MLOAD PUSH1 0x1 DUP1 DUP3 MSTORE DUP2 DUP4 ADD SWAP1 SWAP3 MSTORE SWAP1 PUSH1 0x20 DUP1 DUP4 ADD SWAP1 DUP1 CALLDATASIZE DUP4 CALLDATACOPY POP POP PUSH1 0x40 DUP1 MLOAD PUSH1 0x1 DUP1 DUP3 MSTORE DUP2 DUP4 ADD SWAP1 SWAP3 MSTORE SWAP3 SWAP5 POP SWAP1 POP PUSH1 0x20 DUP1 DUP4 ADD SWAP1 DUP1 CALLDATASIZE DUP4 CALLDATACOPY POP POP PUSH1 0x5 SLOAD DUP5 MLOAD SWAP3 SWAP4 POP PUSH1 0x1 PUSH1 0x1 PUSH1 0xA0 SHL SUB AND SWAP2 DUP5 SWAP2 POP PUSH1 0x0 SWAP1 PUSH2 0x2072 JUMPI INVALID JUMPDEST PUSH1 0x1 PUSH1 0x1 PUSH1 0xA0 SHL SUB SWAP1 SWAP3 AND PUSH1 0x20 SWAP3 DUP4 MUL SWAP2 SWAP1 SWAP2 ADD DUP3 ADD MSTORE PUSH1 0x0 DUP9 DUP2 MSTORE PUSH1 0x6 SWAP1 SWAP2 MSTORE PUSH1 0x40 DUP2 KECCAK256 PUSH1 0x7 ADD SLOAD DUP3 MLOAD SWAP1 SWAP2 DUP4 SWAP2 PUSH2 0x20A7 JUMPI INVALID JUMPDEST PUSH1 0x20 MUL PUSH1 0x20 ADD ADD DUP2 DUP2 MSTORE POP POP PUSH2 0x20D2 JUMP JUMPDEST POP POP PUSH1 0x40 DUP1 MLOAD PUSH1 0x0 DUP1 DUP3 MSTORE PUSH1 0x20 DUP3 ADD SWAP1 DUP2 MSTORE DUP2 DUP4 ADD SWAP1 SWAP3 MSTORE SWAP1 JUMPDEST SWAP1 SWAP7 SWAP1 SWAP6 POP SWAP4 POP POP POP POP JUMP JUMPDEST DUP2 DUP1 PUSH1 0x0 SLOAD GT PUSH2 0x2123 JUMPI PUSH1 0x40 DUP1 MLOAD PUSH3 0x461BCD PUSH1 0xE5 SHL DUP2 MSTORE PUSH1 0x20 PUSH1 0x4 DUP3 ADD MSTORE PUSH1 0x16 PUSH1 0x24 DUP3 ADD MSTORE PUSH1 0x0 DUP1 MLOAD PUSH1 0x20 PUSH2 0x5578 DUP4 CODECOPY DUP2 MLOAD SWAP2 MSTORE PUSH1 0x44 DUP3 ADD MSTORE SWAP1 MLOAD SWAP1 DUP2 SWAP1 SUB PUSH1 0x64 ADD SWAP1 REVERT JUMPDEST PUSH1 0x0 DUP4 DUP2 MSTORE PUSH1 0x6 PUSH1 0x20 MSTORE PUSH1 0x40 DUP2 KECCAK256 DUP5 SWAP2 PUSH1 0x11 DUP3 ADD SLOAD PUSH1 0xFF AND PUSH1 0xA DUP2 GT ISZERO PUSH2 0x2146 JUMPI INVALID JUMPDEST EQ PUSH2 0x2163 JUMPI PUSH1 0x40 MLOAD PUSH3 0x461BCD PUSH1 0xE5 SHL DUP2 MSTORE PUSH1 0x4 ADD PUSH2 0x4BE SWAP1 PUSH2 0x4FA8 JUMP JUMPDEST PUSH1 0x13 DUP2 ADD SLOAD PUSH1 0x2 DUP3 ADD SLOAD LT PUSH2 0x218A JUMPI PUSH1 0x40 MLOAD PUSH3 0x461BCD PUSH1 0xE5 SHL DUP2 MSTORE PUSH1 0x4 ADD PUSH2 0x4BE SWAP1 PUSH2 0x4FE9 JUMP JUMPDEST PUSH1 0x0 DUP2 PUSH1 0x13 ADD DUP3 PUSH1 0x2 ADD SLOAD DUP2 SLOAD DUP2 LT PUSH2 0x219F JUMPI INVALID JUMPDEST SWAP1 PUSH1 0x0 MSTORE PUSH1 0x20 PUSH1 0x0 KECCAK256 ADD SLOAD SWAP1 POP DUP2 PUSH1 0x15 ADD DUP1 SLOAD SWAP1 POP DUP2 LT PUSH2 0x21D2 JUMPI PUSH1 0x40 MLOAD PUSH3 0x461BCD PUSH1 0xE5 SHL DUP2 MSTORE PUSH1 0x4 ADD PUSH2 0x4BE SWAP1 PUSH2 0x4ECF JUMP JUMPDEST PUSH2 0x21DA PUSH2 0x3FE4 JUMP JUMPDEST DUP3 PUSH1 0x15 ADD DUP3 DUP2 SLOAD DUP2 LT PUSH2 0x21E9 JUMPI INVALID JUMPDEST PUSH1 0x0 SWAP2 DUP3 MSTORE PUSH1 0x20 SWAP2 DUP3 SWAP1 KECCAK256 PUSH1 0x40 DUP1 MLOAD PUSH2 0x100 DUP1 DUP3 ADD DUP4 MSTORE PUSH1 0x5 SWAP5 SWAP1 SWAP5 MUL SWAP1 SWAP3 ADD DUP1 SLOAD PUSH1 0x1 PUSH1 0x1 PUSH1 0x40 SHL SUB DUP2 AND DUP5 MSTORE PUSH1 0x1 PUSH1 0x40 SHL SWAP1 DIV PUSH1 0xFF AND DUP4 DUP7 ADD MSTORE PUSH1 0x1 DUP1 DUP3 ADD DUP1 SLOAD DUP5 MLOAD PUSH1 0x2 SWAP4 DUP3 AND ISZERO SWAP1 SWAP8 MUL PUSH1 0x0 NOT ADD AND SWAP2 SWAP1 SWAP2 DIV PUSH1 0x1F DUP2 ADD DUP8 SWAP1 DIV DUP8 MUL DUP7 ADD DUP8 ADD DUP5 MSTORE DUP1 DUP7 MSTORE SWAP4 SWAP6 SWAP2 SWAP5 SWAP3 DUP7 ADD SWAP4 SWAP1 SWAP2 DUP4 ADD DUP3 DUP3 DUP1 ISZERO PUSH2 0x22AD JUMPI DUP1 PUSH1 0x1F LT PUSH2 0x2282 JUMPI PUSH2 0x100 DUP1 DUP4 SLOAD DIV MUL DUP4 MSTORE SWAP2 PUSH1 0x20 ADD SWAP2 PUSH2 0x22AD JUMP JUMPDEST DUP3 ADD SWAP2 SWAP1 PUSH1 0x0 MSTORE PUSH1 0x20 PUSH1 0x0 KECCAK256 SWAP1 JUMPDEST DUP2 SLOAD DUP2 MSTORE SWAP1 PUSH1 0x1 ADD SWAP1 PUSH1 0x20 ADD DUP1 DUP4 GT PUSH2 0x2290 JUMPI DUP3 SWAP1 SUB PUSH1 0x1F AND DUP3 ADD SWAP2 JUMPDEST POP POP POP SWAP2 DUP4 MSTORE POP POP PUSH1 0x2 DUP3 DUP2 ADD DUP1 SLOAD PUSH1 0x40 DUP1 MLOAD PUSH1 0x20 PUSH1 0x1 DUP5 AND ISZERO PUSH2 0x100 MUL PUSH1 0x0 NOT ADD SWAP1 SWAP4 AND SWAP5 SWAP1 SWAP5 DIV PUSH1 0x1F DUP2 ADD DUP4 SWAP1 DIV DUP4 MUL DUP6 ADD DUP4 ADD SWAP1 SWAP2 MSTORE DUP1 DUP5 MSTORE SWAP4 DUP2 ADD SWAP4 SWAP1 DUP4 ADD DUP3 DUP3 DUP1 ISZERO PUSH2 0x233F JUMPI DUP1 PUSH1 0x1F LT PUSH2 0x2314 JUMPI PUSH2 0x100 DUP1 DUP4 SLOAD DIV MUL DUP4 MSTORE SWAP2 PUSH1 0x20 ADD SWAP2 PUSH2 0x233F JUMP JUMPDEST DUP3 ADD SWAP2 SWAP1 PUSH1 0x0 MSTORE PUSH1 0x20 PUSH1 0x0 KECCAK256 SWAP1 JUMPDEST DUP2 SLOAD DUP2 MSTORE SWAP1 PUSH1 0x1 ADD SWAP1 PUSH1 0x20 ADD DUP1 DUP4 GT PUSH2 0x2322 JUMPI DUP3 SWAP1 SUB PUSH1 0x1F AND DUP3 ADD SWAP2 JUMPDEST POP POP POP SWAP2 DUP4 MSTORE POP POP PUSH1 0x3 DUP3 ADD SLOAD PUSH1 0x20 DUP3 ADD MSTORE PUSH1 0x4 SWAP1 SWAP2 ADD SLOAD PUSH1 0x1 PUSH1 0x1 PUSH1 0xA0 SHL SUB DUP2 AND PUSH1 0x40 DUP4 ADD MSTORE PUSH1 0xFF PUSH1 0x1 PUSH1 0xA0 SHL DUP3 DIV DUP2 AND ISZERO ISZERO PUSH1 0x60 DUP5 ADD MSTORE PUSH1 0x1 PUSH1 0xA8 SHL SWAP1 SWAP2 DIV AND ISZERO ISZERO PUSH1 0x80 SWAP1 SWAP2 ADD MSTORE PUSH1 0x14 DUP5 ADD DUP1 SLOAD SWAP2 SWAP3 POP PUSH1 0x0 SWAP2 DUP5 SWAP1 DUP2 LT PUSH2 0x239F JUMPI INVALID JUMPDEST SWAP1 PUSH1 0x0 MSTORE PUSH1 0x20 PUSH1 0x0 KECCAK256 ADD SLOAD EQ PUSH2 0x23C7 JUMPI PUSH1 0x40 MLOAD PUSH3 0x461BCD PUSH1 0xE5 SHL DUP2 MSTORE PUSH1 0x4 ADD PUSH2 0x4BE SWAP1 PUSH2 0x51BC JUMP JUMPDEST DUP1 PUSH1 0xC0 ADD MLOAD PUSH2 0x23E8 JUMPI PUSH1 0x40 MLOAD PUSH3 0x461BCD PUSH1 0xE5 SHL DUP2 MSTORE PUSH1 0x4 ADD PUSH2 0x4BE SWAP1 PUSH2 0x5291 JUMP JUMPDEST PUSH1 0xA0 DUP2 ADD MLOAD PUSH1 0x1 PUSH1 0x1 PUSH1 0xA0 SHL SUB AND CALLER EQ PUSH2 0x2414 JUMPI PUSH1 0x40 MLOAD PUSH3 0x461BCD PUSH1 0xE5 SHL DUP2 MSTORE PUSH1 0x4 ADD PUSH2 0x4BE SWAP1 PUSH2 0x5020 JUMP JUMPDEST PUSH1 0x0 DUP8 DUP2 MSTORE PUSH1 0x6 PUSH1 0x20 MSTORE PUSH1 0x40 DUP2 KECCAK256 PUSH1 0x2 DUP2 ADD SLOAD PUSH1 0x13 DUP3 ADD DUP1 SLOAD SWAP3 SWAP4 SWAP3 SWAP1 SWAP2 SWAP1 DUP2 LT PUSH2 0x243B JUMPI INVALID JUMPDEST SWAP1 PUSH1 0x0 MSTORE PUSH1 0x20 PUSH1 0x0 KECCAK256 ADD SLOAD SWAP1 POP PUSH1 0x0 DUP3 PUSH1 0x15 ADD DUP3 DUP2 SLOAD DUP2 LT PUSH2 0x2459 JUMPI INVALID JUMPDEST SWAP1 PUSH1 0x0 MSTORE PUSH1 0x20 PUSH1 0x0 KECCAK256 SWAP1 PUSH1 0x5 MUL ADD SWAP1 POP DUP1 PUSH1 0x4 ADD PUSH1 0x15 SWAP1 SLOAD SWAP1 PUSH2 0x100 EXP SWAP1 DIV PUSH1 0xFF AND PUSH2 0x2497 JUMPI PUSH1 0x40 MLOAD PUSH3 0x461BCD PUSH1 0xE5 SHL DUP2 MSTORE PUSH1 0x4 ADD PUSH2 0x4BE SWAP1 PUSH2 0x4D69 JUMP JUMPDEST PUSH1 0x3 DUP2 ADD DUP10 SWAP1 SSTORE PUSH1 0x14 DUP4 ADD DUP1 SLOAD DUP11 SWAP2 SWAP1 DUP5 SWAP1 DUP2 LT PUSH2 0x24B1 JUMPI INVALID JUMPDEST PUSH1 0x0 SWAP2 DUP3 MSTORE PUSH1 0x20 SWAP1 SWAP2 KECCAK256 ADD SSTORE PUSH1 0x2 DUP4 ADD DUP1 SLOAD PUSH1 0x1 ADD SWAP1 DUP2 SWAP1 SSTORE TIMESTAMP PUSH1 0x6 DUP6 ADD SSTORE PUSH1 0x13 DUP5 ADD SLOAD EQ ISZERO PUSH2 0x2509 JUMPI PUSH1 0x12 DUP4 ADD SLOAD ISZERO PUSH2 0x24F9 JUMPI PUSH1 0x11 DUP4 ADD DUP1 SLOAD PUSH1 0xFF NOT AND PUSH1 0x2 OR SWAP1 SSTORE PUSH2 0x2509 JUMP JUMPDEST PUSH1 0x11 DUP4 ADD DUP1 SLOAD PUSH1 0xFF NOT AND PUSH1 0x4 OR SWAP1 SSTORE JUMPDEST PUSH32 0xC33D5CC33DF375FAC3C4FB6395FAC74E37C0183C522E645801A298A6BA8E04A3 DUP11 DUP5 PUSH1 0x15 ADD DUP5 DUP2 SLOAD DUP2 LT PUSH2 0x253A JUMPI INVALID JUMPDEST SWAP1 PUSH1 0x0 MSTORE PUSH1 0x20 PUSH1 0x0 KECCAK256 SWAP1 PUSH1 0x5 MUL ADD PUSH1 0x40 MLOAD PUSH2 0x2556 SWAP3 SWAP2 SWAP1 PUSH2 0x53CC JUMP JUMPDEST PUSH1 0x40 MLOAD DUP1 SWAP2 SUB SWAP1 LOG1 POP POP POP POP POP POP POP POP POP POP JUMP JUMPDEST PUSH1 0x0 PUSH1 0x32 DUP5 LT ISZERO PUSH2 0x258D JUMPI PUSH1 0x40 MLOAD PUSH3 0x461BCD PUSH1 0xE5 SHL DUP2 MSTORE PUSH1 0x4 ADD PUSH2 0x4BE SWAP1 PUSH2 0x50D6 JUMP JUMPDEST PUSH1 0x0 DUP1 SLOAD DUP2 MSTORE PUSH1 0x6 PUSH1 0x20 MSTORE PUSH1 0x40 DUP2 KECCAK256 SWAP1 JUMPDEST DUP5 MLOAD DUP2 LT ISZERO PUSH2 0x26A8 JUMPI DUP2 PUSH1 0x10 ADD PUSH1 0x0 DUP7 DUP4 DUP2 MLOAD DUP2 LT PUSH2 0x25B9 JUMPI INVALID JUMPDEST PUSH1 0x20 SWAP1 DUP2 MUL SWAP2 SWAP1 SWAP2 ADD DUP2 ADD MLOAD PUSH1 0x1 PUSH1 0x1 PUSH1 0xA0 SHL SUB AND DUP3 MSTORE DUP2 ADD SWAP2 SWAP1 SWAP2 MSTORE PUSH1 0x40 ADD PUSH1 0x0 KECCAK256 SLOAD PUSH1 0xFF AND ISZERO PUSH2 0x25FD JUMPI PUSH1 0x40 MLOAD PUSH3 0x461BCD PUSH1 0xE5 SHL DUP2 MSTORE PUSH1 0x4 ADD PUSH2 0x4BE SWAP1 PUSH2 0x4D1A JUMP JUMPDEST PUSH1 0x1 DUP3 PUSH1 0x10 ADD PUSH1 0x0 DUP8 DUP5 DUP2 MLOAD DUP2 LT PUSH2 0x2611 JUMPI INVALID JUMPDEST PUSH1 0x20 MUL PUSH1 0x20 ADD ADD MLOAD PUSH1 0x1 PUSH1 0x1 PUSH1 0xA0 SHL SUB AND PUSH1 0x1 PUSH1 0x1 PUSH1 0xA0 SHL SUB AND DUP2 MSTORE PUSH1 0x20 ADD SWAP1 DUP2 MSTORE PUSH1 0x20 ADD PUSH1 0x0 KECCAK256 PUSH1 0x0 ADD PUSH1 0x0 PUSH2 0x100 EXP DUP2 SLOAD DUP2 PUSH1 0xFF MUL NOT AND SWAP1 DUP4 ISZERO ISZERO MUL OR SWAP1 SSTORE POP DUP2 PUSH1 0xE ADD DUP6 DUP3 DUP2 MLOAD DUP2 LT PUSH2 0x2663 JUMPI INVALID JUMPDEST PUSH1 0x20 SWAP1 DUP2 MUL SWAP2 SWAP1 SWAP2 ADD DUP2 ADD MLOAD DUP3 SLOAD PUSH1 0x1 DUP1 DUP3 ADD DUP6 SSTORE PUSH1 0x0 SWAP5 DUP6 MSTORE SWAP3 SWAP1 SWAP4 KECCAK256 SWAP1 SWAP3 ADD DUP1 SLOAD PUSH1 0x1 PUSH1 0x1 PUSH1 0xA0 SHL SUB NOT AND PUSH1 0x1 PUSH1 0x1 PUSH1 0xA0 SHL SUB SWAP1 SWAP4 AND SWAP3 SWAP1 SWAP3 OR SWAP1 SWAP2 SSTORE ADD PUSH2 0x259E JUMP JUMPDEST POP DUP3 MLOAD PUSH1 0x0 SWAP1 DUP1 PUSH1 0x1 PUSH1 0x1 PUSH1 0x40 SHL SUB DUP2 GT DUP1 ISZERO PUSH2 0x26C4 JUMPI PUSH1 0x0 DUP1 REVERT JUMPDEST POP PUSH1 0x40 MLOAD SWAP1 DUP1 DUP3 MSTORE DUP1 PUSH1 0x20 MUL PUSH1 0x20 ADD DUP3 ADD PUSH1 0x40 MSTORE DUP1 ISZERO PUSH2 0x26EE JUMPI DUP2 PUSH1 0x20 ADD PUSH1 0x20 DUP3 MUL DUP1 CALLDATASIZE DUP4 CALLDATACOPY ADD SWAP1 POP JUMPDEST POP DUP1 MLOAD PUSH2 0x2705 SWAP2 PUSH1 0x14 DUP7 ADD SWAP2 PUSH1 0x20 SWAP1 SWAP2 ADD SWAP1 PUSH2 0x402A JUMP JUMPDEST POP PUSH1 0x0 JUMPDEST DUP2 DUP2 LT ISZERO PUSH2 0x2B8A JUMPI PUSH2 0x2719 PUSH2 0x3FE4 JUMP JUMPDEST DUP7 DUP3 DUP2 MLOAD DUP2 LT PUSH2 0x2725 JUMPI INVALID JUMPDEST PUSH1 0x20 MUL PUSH1 0x20 ADD ADD MLOAD SWAP1 POP DUP1 PUSH1 0xE0 ADD MLOAD PUSH2 0x292D JUMPI PUSH1 0x3 DUP2 PUSH1 0x20 ADD MLOAD PUSH1 0xFF AND LT ISZERO PUSH2 0x2760 JUMPI PUSH1 0x40 MLOAD PUSH3 0x461BCD PUSH1 0xE5 SHL DUP2 MSTORE PUSH1 0x4 ADD PUSH2 0x4BE SWAP1 PUSH2 0x5175 JUMP JUMPDEST PUSH1 0xA DUP2 PUSH1 0x20 ADD MLOAD PUSH1 0xFF AND GT ISZERO PUSH2 0x2788 JUMPI PUSH1 0x40 MLOAD PUSH3 0x461BCD PUSH1 0xE5 SHL DUP2 MSTORE PUSH1 0x4 ADD PUSH2 0x4BE SWAP1 PUSH2 0x52C8 JUMP JUMPDEST DUP1 PUSH1 0xC0 ADD MLOAD PUSH2 0x290A JUMPI DUP1 PUSH1 0x20 ADD MLOAD PUSH1 0xFF AND PUSH1 0x2 EXP DUP2 PUSH1 0x40 ADD MLOAD MLOAD GT ISZERO PUSH2 0x27C0 JUMPI PUSH1 0x40 MLOAD PUSH3 0x461BCD PUSH1 0xE5 SHL DUP2 MSTORE PUSH1 0x4 ADD PUSH2 0x4BE SWAP1 PUSH2 0x4E39 JUMP JUMPDEST PUSH1 0x40 DUP2 ADD MLOAD PUSH1 0x20 DUP3 ADD MLOAD DUP2 MLOAD PUSH1 0xFF SWAP1 SWAP2 AND PUSH1 0x2 EXP GT ISZERO PUSH2 0x2851 JUMPI PUSH1 0x40 DUP3 ADD MLOAD DUP1 MLOAD PUSH1 0x20 DUP5 ADD MLOAD PUSH1 0xFF AND PUSH1 0x2 EXP SUB PUSH1 0x1 PUSH1 0x1 PUSH1 0x40 SHL SUB DUP2 GT DUP1 ISZERO PUSH2 0x2802 JUMPI PUSH1 0x0 DUP1 REVERT JUMPDEST POP PUSH1 0x40 MLOAD SWAP1 DUP1 DUP3 MSTORE DUP1 PUSH1 0x1F ADD PUSH1 0x1F NOT AND PUSH1 0x20 ADD DUP3 ADD PUSH1 0x40 MSTORE DUP1 ISZERO PUSH2 0x282D JUMPI PUSH1 0x20 DUP3 ADD DUP2 DUP1 CALLDATASIZE DUP4 CALLDATACOPY ADD SWAP1 POP JUMPDEST POP PUSH1 0x40 MLOAD PUSH1 0x20 ADD PUSH2 0x283F SWAP3 SWAP2 SWAP1 PUSH2 0x48C6 JUMP JUMPDEST PUSH1 0x40 MLOAD PUSH1 0x20 DUP2 DUP4 SUB SUB DUP2 MSTORE SWAP1 PUSH1 0x40 MSTORE SWAP1 POP JUMPDEST PUSH1 0x60 PUSH2 0x285C DUP3 PUSH2 0x3E44 JUMP JUMPDEST PUSH1 0x40 MLOAD PUSH4 0x10561D57 PUSH1 0xE3 SHL DUP2 MSTORE SWAP1 SWAP2 POP PUSH20 0x0 SWAP1 PUSH4 0x82B0EAB8 SWAP1 PUSH2 0x2896 SWAP1 DUP5 SWAP1 PUSH1 0x4 ADD PUSH2 0x4967 JUMP JUMPDEST PUSH1 0x20 PUSH1 0x40 MLOAD DUP1 DUP4 SUB DUP2 DUP7 DUP1 EXTCODESIZE ISZERO DUP1 ISZERO PUSH2 0x28AE JUMPI PUSH1 0x0 DUP1 REVERT JUMPDEST POP GAS DELEGATECALL ISZERO DUP1 ISZERO PUSH2 0x28C2 JUMPI RETURNDATASIZE PUSH1 0x0 DUP1 RETURNDATACOPY RETURNDATASIZE PUSH1 0x0 REVERT JUMPDEST POP POP POP POP PUSH1 0x40 MLOAD RETURNDATASIZE PUSH1 0x1F NOT PUSH1 0x1F DUP3 ADD AND DUP3 ADD DUP1 PUSH1 0x40 MSTORE POP DUP2 ADD SWAP1 PUSH2 0x28E6 SWAP2 SWAP1 PUSH2 0x43BA JUMP JUMPDEST DUP8 PUSH1 0x14 ADD DUP6 DUP2 SLOAD DUP2 LT PUSH2 0x28F5 JUMPI INVALID JUMPDEST SWAP1 PUSH1 0x0 MSTORE PUSH1 0x20 PUSH1 0x0 KECCAK256 ADD DUP2 SWAP1 SSTORE POP POP POP PUSH2 0x2928 JUMP JUMPDEST PUSH1 0x13 DUP6 ADD DUP1 SLOAD PUSH1 0x1 DUP2 DUP2 ADD DUP4 SSTORE PUSH1 0x0 SWAP3 DUP4 MSTORE PUSH1 0x20 SWAP1 SWAP3 KECCAK256 ADD DUP4 SWAP1 SSTORE SWAP4 POP JUMPDEST PUSH2 0x2A24 JUMP JUMPDEST DUP1 PUSH1 0xC0 ADD MLOAD PUSH2 0x2A06 JUMPI DUP1 PUSH1 0x80 ADD MLOAD DUP6 PUSH1 0x14 ADD DUP4 DUP2 SLOAD DUP2 LT PUSH2 0x294A JUMPI INVALID JUMPDEST PUSH1 0x0 SWAP2 DUP3 MSTORE PUSH1 0x20 SWAP2 DUP3 SWAP1 KECCAK256 ADD SWAP2 SWAP1 SWAP2 SSTORE PUSH1 0x4 DUP1 SLOAD PUSH1 0x80 DUP5 ADD MLOAD SWAP3 DUP5 ADD MLOAD PUSH1 0x40 MLOAD PUSH4 0x2B6BAA37 PUSH1 0xE2 SHL DUP2 MSTORE PUSH1 0x1 PUSH1 0x1 PUSH1 0xA0 SHL SUB SWAP1 SWAP3 AND SWAP4 PUSH4 0xADAEA8DC SWAP4 PUSH2 0x2993 SWAP4 SWAP2 SWAP3 SWAP2 ADD PUSH2 0x4A7D JUMP JUMPDEST PUSH1 0x20 PUSH1 0x40 MLOAD DUP1 DUP4 SUB DUP2 DUP7 DUP1 EXTCODESIZE ISZERO DUP1 ISZERO PUSH2 0x29AB JUMPI PUSH1 0x0 DUP1 REVERT JUMPDEST POP GAS STATICCALL ISZERO DUP1 ISZERO PUSH2 0x29BF JUMPI RETURNDATASIZE PUSH1 0x0 DUP1 RETURNDATACOPY RETURNDATASIZE PUSH1 0x0 REVERT JUMPDEST POP POP POP POP PUSH1 0x40 MLOAD RETURNDATASIZE PUSH1 0x1F NOT PUSH1 0x1F DUP3 ADD AND DUP3 ADD DUP1 PUSH1 0x40 MSTORE POP DUP2 ADD SWAP1 PUSH2 0x29E3 SWAP2 SWAP1 PUSH2 0x4397 JUMP JUMPDEST PUSH2 0x2928 JUMPI PUSH1 0x12 DUP6 ADD DUP1 SLOAD PUSH1 0x1 DUP2 ADD DUP3 SSTORE PUSH1 0x0 SWAP2 DUP3 MSTORE PUSH1 0x20 SWAP1 SWAP2 KECCAK256 ADD DUP3 SWAP1 SSTORE PUSH2 0x2A24 JUMP JUMPDEST PUSH1 0x13 DUP6 ADD DUP1 SLOAD PUSH1 0x1 DUP2 DUP2 ADD DUP4 SSTORE PUSH1 0x0 SWAP3 DUP4 MSTORE PUSH1 0x20 SWAP1 SWAP3 KECCAK256 ADD DUP4 SWAP1 SSTORE SWAP4 POP JUMPDEST PUSH1 0x40 DUP1 MLOAD PUSH2 0x100 DUP2 ADD DUP3 MSTORE DUP3 MLOAD PUSH1 0x1 PUSH1 0x1 PUSH1 0x40 SHL SUB SWAP1 DUP2 AND DUP3 MSTORE PUSH1 0x20 DUP1 DUP6 ADD MLOAD PUSH1 0xFF SWAP1 DUP2 AND DUP3 DUP6 ADD SWAP1 DUP2 MSTORE DUP7 DUP7 ADD MLOAD SWAP6 DUP6 ADD SWAP6 DUP7 MSTORE PUSH1 0x60 DUP1 DUP9 ADD MLOAD SWAP1 DUP7 ADD MSTORE PUSH1 0x80 DUP1 DUP9 ADD MLOAD SWAP1 DUP7 ADD MSTORE PUSH1 0xA0 DUP1 DUP9 ADD MLOAD PUSH1 0x1 PUSH1 0x1 PUSH1 0xA0 SHL SUB AND SWAP1 DUP7 ADD MSTORE PUSH1 0xC0 DUP1 DUP9 ADD MLOAD ISZERO ISZERO SWAP1 DUP7 ADD MSTORE PUSH1 0xE0 DUP1 DUP9 ADD MLOAD ISZERO ISZERO SWAP1 DUP7 ADD MSTORE PUSH1 0x15 DUP12 ADD DUP1 SLOAD PUSH1 0x1 DUP1 DUP3 ADD DUP4 SSTORE PUSH1 0x0 SWAP3 DUP4 MSTORE SWAP2 DUP6 SWAP1 KECCAK256 DUP8 MLOAD PUSH1 0x5 SWAP1 SWAP3 MUL ADD DUP1 SLOAD SWAP4 MLOAD PUSH8 0xFFFFFFFFFFFFFFFF NOT SWAP1 SWAP5 AND SWAP2 SWAP1 SWAP7 AND OR PUSH1 0xFF PUSH1 0x40 SHL NOT AND PUSH1 0x1 PUSH1 0x40 SHL SWAP3 SWAP1 SWAP4 AND SWAP2 SWAP1 SWAP2 MUL SWAP2 SWAP1 SWAP2 OR DUP4 SSTORE SWAP4 MLOAD DUP1 MLOAD SWAP4 SWAP5 SWAP3 SWAP4 PUSH2 0x2AFF SWAP4 DUP6 ADD SWAP3 SWAP2 SWAP1 SWAP2 ADD SWAP1 PUSH2 0x3F38 JUMP JUMPDEST POP PUSH1 0x60 DUP3 ADD MLOAD DUP1 MLOAD PUSH2 0x2B1B SWAP2 PUSH1 0x2 DUP5 ADD SWAP2 PUSH1 0x20 SWAP1 SWAP2 ADD SWAP1 PUSH2 0x3F38 JUMP JUMPDEST POP PUSH1 0x80 DUP3 ADD MLOAD PUSH1 0x3 DUP3 ADD SSTORE PUSH1 0xA0 DUP3 ADD MLOAD PUSH1 0x4 SWAP1 SWAP2 ADD DUP1 SLOAD PUSH1 0xC0 DUP5 ADD MLOAD PUSH1 0xE0 SWAP1 SWAP5 ADD MLOAD ISZERO ISZERO PUSH1 0x1 PUSH1 0xA8 SHL MUL PUSH1 0xFF PUSH1 0xA8 SHL NOT SWAP5 ISZERO ISZERO PUSH1 0x1 PUSH1 0xA0 SHL MUL PUSH1 0xFF PUSH1 0xA0 SHL NOT PUSH1 0x1 PUSH1 0x1 PUSH1 0xA0 SHL SUB SWAP1 SWAP6 AND PUSH1 0x1 PUSH1 0x1 PUSH1 0xA0 SHL SUB NOT SWAP1 SWAP4 AND SWAP3 SWAP1 SWAP3 OR SWAP4 SWAP1 SWAP4 AND OR SWAP3 SWAP1 SWAP3 AND OR SWAP1 SSTORE POP PUSH1 0x1 ADD PUSH2 0x2709 JUMP JUMPDEST POP PUSH1 0x3 DUP9 PUSH1 0xFF AND LT ISZERO PUSH2 0x2BAF JUMPI PUSH1 0x40 MLOAD PUSH3 0x461BCD PUSH1 0xE5 SHL DUP2 MSTORE PUSH1 0x4 ADD PUSH2 0x4BE SWAP1 PUSH2 0x4C60 JUMP JUMPDEST DUP3 SLOAD PUSH1 0x1 PUSH1 0x1 PUSH1 0xA0 SHL SUB NOT AND CALLER OR DUP4 SSTORE DUP6 MLOAD DUP7 SWAP1 PUSH1 0x0 SWAP1 PUSH2 0x2BCC JUMPI INVALID JUMPDEST PUSH1 0x20 SWAP1 DUP2 MUL SWAP2 SWAP1 SWAP2 ADD ADD MLOAD PUSH1 0xC DUP5 ADD DUP1 SLOAD PUSH1 0x1 PUSH1 0x1 PUSH1 0xA0 SHL SUB NOT AND PUSH1 0x1 PUSH1 0x1 PUSH1 0xA0 SHL SUB SWAP1 SWAP3 AND SWAP2 SWAP1 SWAP2 OR SWAP1 SSTORE PUSH1 0xF DUP4 ADD DUP1 SLOAD PUSH8 0xFFFFFFFFFFFFFFFF NOT SWAP1 DUP2 AND PUSH1 0x1 OR SWAP1 SWAP2 SSTORE PUSH1 0x3 DUP5 ADD DUP13 SWAP1 SSTORE PUSH1 0x8 DUP5 ADD DUP12 SWAP1 SSTORE PUSH1 0x9 DUP5 ADD DUP12 SWAP1 SSTORE PUSH1 0x4 DUP5 ADD DUP1 SLOAD SWAP1 SWAP2 AND PUSH1 0x1 PUSH1 0x1 PUSH1 0x40 SHL SUB DUP12 AND OR PUSH1 0xFF PUSH1 0x40 SHL NOT AND PUSH1 0x1 PUSH1 0x40 SHL PUSH1 0xFF DUP12 AND MUL OR SWAP1 SSTORE PUSH1 0x5 DUP4 ADD DUP8 SWAP1 SSTORE TIMESTAMP PUSH1 0x6 DUP5 ADD SSTORE DUP2 ISZERO PUSH2 0x2C7D JUMPI PUSH1 0x11 DUP4 ADD DUP1 SLOAD PUSH1 0x0 SWAP2 SWAP1 PUSH1 0xFF NOT AND PUSH1 0x1 DUP4 JUMPDEST MUL OR SWAP1 SSTORE POP PUSH2 0x2CAD JUMP JUMPDEST PUSH1 0x12 DUP4 ADD SLOAD ISZERO PUSH2 0x2C9D JUMPI PUSH1 0x11 DUP4 ADD DUP1 SLOAD PUSH1 0x2 SWAP2 SWAP1 PUSH1 0xFF NOT AND PUSH1 0x1 DUP4 PUSH2 0x2C73 JUMP JUMPDEST PUSH1 0x11 DUP4 ADD DUP1 SLOAD PUSH1 0xFF NOT AND PUSH1 0x4 OR SWAP1 SSTORE JUMPDEST PUSH32 0x636FD79ACA92320CAE2060E85A57EFF6548C5FB3B972FB98BFD6432EEF78C0E9 PUSH1 0x0 SLOAD PUSH1 0x40 MLOAD PUSH2 0x2CDE SWAP2 SWAP1 PUSH2 0x4A74 JUMP JUMPDEST PUSH1 0x40 MLOAD DUP1 SWAP2 SUB SWAP1 LOG1 POP POP PUSH1 0x0 DUP1 SLOAD DUP2 MSTORE PUSH1 0x1 PUSH1 0x20 DUP2 SWAP1 MSTORE PUSH1 0x40 DUP3 KECCAK256 DUP1 SLOAD PUSH1 0xFF NOT AND DUP3 OR SWAP1 SSTORE DUP2 SLOAD SWAP1 DUP2 ADD SWAP1 SWAP2 SSTORE SWAP2 POP POP JUMPDEST SWAP8 SWAP7 POP POP POP POP POP POP POP JUMP JUMPDEST DUP1 DUP1 PUSH1 0x0 SLOAD GT PUSH2 0x2D5F JUMPI PUSH1 0x40 DUP1 MLOAD PUSH3 0x461BCD PUSH1 0xE5 SHL DUP2 MSTORE PUSH1 0x20 PUSH1 0x4 DUP3 ADD MSTORE PUSH1 0x16 PUSH1 0x24 DUP3 ADD MSTORE PUSH1 0x0 DUP1 MLOAD PUSH1 0x20 PUSH2 0x5578 DUP4 CODECOPY DUP2 MLOAD SWAP2 MSTORE PUSH1 0x44 DUP3 ADD MSTORE SWAP1 MLOAD SWAP1 DUP2 SWAP1 SUB PUSH1 0x64 ADD SWAP1 REVERT JUMPDEST PUSH1 0x0 DUP3 DUP2 MSTORE PUSH1 0x6 PUSH1 0x20 MSTORE PUSH1 0x40 SWAP1 KECCAK256 SLOAD PUSH1 0x1 PUSH1 0x1 PUSH1 0xA0 SHL SUB AND CALLER DUP2 EQ PUSH2 0x2DC6 JUMPI PUSH1 0x40 DUP1 MLOAD PUSH3 0x461BCD PUSH1 0xE5 SHL DUP2 MSTORE PUSH1 0x20 PUSH1 0x4 DUP3 ADD MSTORE PUSH1 0x18 PUSH1 0x24 DUP3 ADD MSTORE PUSH24 0x21B0B73737BA1031329031B0B63632B210313C903AB9B2B9 PUSH1 0x41 SHL PUSH1 0x44 DUP3 ADD MSTORE SWAP1 MLOAD SWAP1 DUP2 SWAP1 SUB PUSH1 0x64 ADD SWAP1 REVERT JUMPDEST PUSH1 0x0 DUP4 DUP2 MSTORE PUSH1 0x6 PUSH1 0x20 MSTORE PUSH1 0x40 SWAP1 KECCAK256 PUSH1 0x1 PUSH1 0x11 DUP3 ADD SLOAD PUSH1 0xFF AND PUSH1 0xA DUP2 GT ISZERO PUSH2 0x2DE9 JUMPI INVALID JUMPDEST EQ DUP1 PUSH2 0x2E07 JUMPI POP PUSH1 0x5 PUSH1 0x11 DUP3 ADD SLOAD PUSH1 0xFF AND PUSH1 0xA DUP2 GT ISZERO PUSH2 0x2E05 JUMPI INVALID JUMPDEST EQ JUMPDEST DUP1 PUSH2 0x2E24 JUMPI POP PUSH1 0xA PUSH1 0x11 DUP3 ADD SLOAD PUSH1 0xFF AND PUSH1 0xA DUP2 GT ISZERO PUSH2 0x2E22 JUMPI INVALID JUMPDEST EQ JUMPDEST DUP1 PUSH2 0x2E41 JUMPI POP PUSH1 0x8 PUSH1 0x11 DUP3 ADD SLOAD PUSH1 0xFF AND PUSH1 0xA DUP2 GT ISZERO PUSH2 0x2E3F JUMPI INVALID JUMPDEST EQ JUMPDEST DUP1 PUSH2 0x2E5E JUMPI POP PUSH1 0x9 PUSH1 0x11 DUP3 ADD SLOAD PUSH1 0xFF AND PUSH1 0xA DUP2 GT ISZERO PUSH2 0x2E5C JUMPI INVALID JUMPDEST EQ JUMPDEST PUSH2 0x2E7A JUMPI PUSH1 0x40 MLOAD PUSH3 0x461BCD PUSH1 0xE5 SHL DUP2 MSTORE PUSH1 0x4 ADD PUSH2 0x4BE SWAP1 PUSH2 0x4EFC JUMP JUMPDEST PUSH2 0x2E88 PUSH1 0x12 DUP3 ADD PUSH1 0x0 PUSH2 0x4064 JUMP JUMPDEST PUSH2 0x2E96 PUSH1 0x13 DUP3 ADD PUSH1 0x0 PUSH2 0x4064 JUMP JUMPDEST PUSH2 0x2EA4 PUSH1 0x14 DUP3 ADD PUSH1 0x0 PUSH2 0x4064 JUMP JUMPDEST PUSH2 0x2EB2 PUSH1 0x15 DUP3 ADD PUSH1 0x0 PUSH2 0x4085 JUMP JUMPDEST PUSH2 0x2EBB DUP5 PUSH2 0x1803 JUMP JUMPDEST POP POP POP POP JUMP JUMPDEST DUP1 DUP1 PUSH1 0x0 SLOAD GT PUSH2 0x2F06 JUMPI PUSH1 0x40 DUP1 MLOAD PUSH3 0x461BCD PUSH1 0xE5 SHL DUP2 MSTORE PUSH1 0x20 PUSH1 0x4 DUP3 ADD MSTORE PUSH1 0x16 PUSH1 0x24 DUP3 ADD MSTORE PUSH1 0x0 DUP1 MLOAD PUSH1 0x20 PUSH2 0x5578 DUP4 CODECOPY DUP2 MLOAD SWAP2 MSTORE PUSH1 0x44 DUP3 ADD MSTORE SWAP1 MLOAD SWAP1 DUP2 SWAP1 SUB PUSH1 0x64 ADD SWAP1 REVERT JUMPDEST PUSH1 0x0 DUP3 DUP2 MSTORE PUSH1 0x2 PUSH1 0x20 SWAP1 DUP2 MSTORE PUSH1 0x40 DUP1 DUP4 KECCAK256 DUP1 SLOAD PUSH1 0x1 ADD SWAP1 SSTORE PUSH1 0x6 SWAP1 SWAP2 MSTORE SWAP1 KECCAK256 DUP3 SWAP1 PUSH1 0x7 PUSH1 0x11 DUP3 ADD SLOAD PUSH1 0xFF AND PUSH1 0xA DUP2 GT ISZERO PUSH2 0x2F3C JUMPI INVALID JUMPDEST EQ PUSH2 0x2F59 JUMPI PUSH1 0x40 MLOAD PUSH3 0x461BCD PUSH1 0xE5 SHL DUP2 MSTORE PUSH1 0x4 ADD PUSH2 0x4BE SWAP1 PUSH2 0x5122 JUMP JUMPDEST TIMESTAMP PUSH1 0x6 DUP3 ADD SSTORE PUSH1 0x7 DUP2 ADD SLOAD PUSH1 0x5 SLOAD PUSH1 0x40 MLOAD PUSH4 0xB6B5C319 PUSH1 0xE0 SHL DUP2 MSTORE PUSH1 0x1 PUSH1 0x1 PUSH1 0xA0 SHL SUB SWAP1 SWAP2 AND SWAP1 PUSH4 0xB6B5C319 SWAP1 PUSH2 0x2F94 SWAP1 DUP5 SWAP1 PUSH1 0x4 ADD PUSH2 0x4A74 JUMP JUMPDEST PUSH1 0x20 PUSH1 0x40 MLOAD DUP1 DUP4 SUB DUP2 DUP7 DUP1 EXTCODESIZE ISZERO DUP1 ISZERO PUSH2 0x2FAC JUMPI PUSH1 0x0 DUP1 REVERT JUMPDEST POP GAS STATICCALL ISZERO DUP1 ISZERO PUSH2 0x2FC0 JUMPI RETURNDATASIZE PUSH1 0x0 DUP1 RETURNDATACOPY RETURNDATASIZE PUSH1 0x0 REVERT JUMPDEST POP POP POP POP PUSH1 0x40 MLOAD RETURNDATASIZE PUSH1 0x1F NOT PUSH1 0x1F DUP3 ADD AND DUP3 ADD DUP1 PUSH1 0x40 MSTORE POP DUP2 ADD SWAP1 PUSH2 0x2FE4 SWAP2 SWAP1 PUSH2 0x4397 JUMP JUMPDEST ISZERO PUSH2 0x3088 JUMPI PUSH1 0xE DUP3 ADD SLOAD PUSH1 0xF DUP4 ADD SLOAD PUSH1 0x1 PUSH1 0x1 PUSH1 0x40 SHL SUB AND EQ ISZERO PUSH2 0x3020 JUMPI PUSH1 0x11 DUP3 ADD DUP1 SLOAD PUSH1 0x8 SWAP2 SWAP1 PUSH1 0xFF NOT AND PUSH1 0x1 DUP4 JUMPDEST MUL OR SWAP1 SSTORE POP POP POP PUSH2 0x31AC JUMP JUMPDEST POP PUSH1 0x11 DUP2 ADD DUP1 SLOAD PUSH1 0xFF NOT AND PUSH1 0x4 OR SWAP1 SSTORE PUSH1 0xC DUP2 ADD DUP1 SLOAD PUSH1 0x1 PUSH1 0x1 PUSH1 0xA0 SHL SUB SWAP1 DUP2 AND PUSH1 0x0 SWAP1 DUP2 MSTORE PUSH1 0x10 DUP5 ADD PUSH1 0x20 MSTORE PUSH1 0x40 SWAP1 KECCAK256 DUP1 SLOAD PUSH3 0xFF0000 NOT AND PUSH3 0x10000 OR SWAP1 SSTORE PUSH1 0xD SWAP1 SWAP3 ADD DUP1 SLOAD DUP3 SLOAD PUSH1 0x1 PUSH1 0x1 PUSH1 0xA0 SHL SUB NOT SWAP1 DUP2 AND SWAP5 DUP3 AND SWAP5 SWAP1 SWAP5 OR SWAP1 SWAP3 SSTORE SWAP2 AND SWAP1 SSTORE PUSH2 0x31AC JUMP JUMPDEST PUSH1 0x5 SLOAD PUSH1 0x40 MLOAD PUSH4 0x3664F8BF PUSH1 0xE1 SHL DUP2 MSTORE PUSH1 0x1 PUSH1 0x1 PUSH1 0xA0 SHL SUB SWAP1 SWAP2 AND SWAP1 PUSH4 0x6CC9F17E SWAP1 PUSH2 0x30B8 SWAP1 DUP5 SWAP1 PUSH1 0x4 ADD PUSH2 0x4A74 JUMP JUMPDEST PUSH1 0x20 PUSH1 0x40 MLOAD DUP1 DUP4 SUB DUP2 DUP7 DUP1 EXTCODESIZE ISZERO DUP1 ISZERO PUSH2 0x30D0 JUMPI PUSH1 0x0 DUP1 REVERT JUMPDEST POP GAS STATICCALL ISZERO DUP1 ISZERO PUSH2 0x30E4 JUMPI RETURNDATASIZE PUSH1 0x0 DUP1 RETURNDATACOPY RETURNDATASIZE PUSH1 0x0 REVERT JUMPDEST POP POP POP POP PUSH1 0x40 MLOAD RETURNDATASIZE PUSH1 0x1F NOT PUSH1 0x1F DUP3 ADD AND DUP3 ADD DUP1 PUSH1 0x40 MSTORE POP DUP2 ADD SWAP1 PUSH2 0x3108 SWAP2 SWAP1 PUSH2 0x4397 JUMP JUMPDEST ISZERO PUSH2 0x3191 JUMPI PUSH1 0xE DUP3 ADD SLOAD PUSH1 0xF DUP4 ADD SLOAD PUSH1 0x1 PUSH1 0x1 PUSH1 0x40 SHL SUB AND EQ ISZERO PUSH2 0x313C JUMPI PUSH1 0x11 DUP3 ADD DUP1 SLOAD PUSH1 0x9 SWAP2 SWAP1 PUSH1 0xFF NOT AND PUSH1 0x1 DUP4 PUSH2 0x3014 JUMP JUMPDEST POP PUSH1 0x11 DUP2 ADD DUP1 SLOAD PUSH1 0xFF NOT AND PUSH1 0x6 OR SWAP1 SSTORE PUSH1 0xD DUP2 ADD DUP1 SLOAD PUSH1 0x1 PUSH1 0x1 PUSH1 0xA0 SHL SUB AND PUSH1 0x0 SWAP1 DUP2 MSTORE PUSH1 0x10 SWAP1 SWAP3 ADD PUSH1 0x20 MSTORE PUSH1 0x40 SWAP1 SWAP2 KECCAK256 DUP1 SLOAD PUSH3 0x10000 PUSH3 0xFF0000 NOT SWAP1 SWAP2 AND OR SWAP1 SSTORE DUP1 SLOAD PUSH1 0x1 PUSH1 0x1 PUSH1 0xA0 SHL SUB NOT AND SWAP1 SSTORE PUSH2 0x31AC JUMP JUMPDEST PUSH1 0x40 MLOAD PUSH3 0x461BCD PUSH1 0xE5 SHL DUP2 MSTORE PUSH1 0x4 ADD PUSH2 0x4BE SWAP1 PUSH2 0x530D JUMP JUMPDEST POP POP JUMPDEST POP POP POP JUMP JUMPDEST DUP1 DUP1 PUSH1 0x0 SLOAD GT PUSH2 0x31F6 JUMPI PUSH1 0x40 DUP1 MLOAD PUSH3 0x461BCD PUSH1 0xE5 SHL DUP2 MSTORE PUSH1 0x20 PUSH1 0x4 DUP3 ADD MSTORE PUSH1 0x16 PUSH1 0x24 DUP3 ADD MSTORE PUSH1 0x0 DUP1 MLOAD PUSH1 0x20 PUSH2 0x5578 DUP4 CODECOPY DUP2 MLOAD SWAP2 MSTORE PUSH1 0x44 DUP3 ADD MSTORE SWAP1 MLOAD SWAP1 DUP2 SWAP1 SUB PUSH1 0x64 ADD SWAP1 REVERT JUMPDEST PUSH1 0x0 DUP3 DUP2 MSTORE PUSH1 0x6 PUSH1 0x20 MSTORE PUSH1 0x40 DUP2 KECCAK256 PUSH1 0x1 DUP2 ADD SLOAD PUSH1 0x12 DUP3 ADD DUP1 SLOAD SWAP3 SWAP4 SWAP3 SWAP1 SWAP2 SWAP1 DUP2 LT PUSH2 0x321D JUMPI INVALID JUMPDEST PUSH1 0x0 SWAP2 DUP3 MSTORE PUSH1 0x20 SWAP1 SWAP2 KECCAK256 ADD SLOAD SWAP1 POP PUSH1 0x3 PUSH1 0x11 DUP4 ADD SLOAD PUSH1 0xFF AND PUSH1 0xA DUP2 GT ISZERO PUSH2 0x3240 JUMPI INVALID JUMPDEST EQ PUSH2 0x325D JUMPI PUSH1 0x40 MLOAD PUSH3 0x461BCD PUSH1 0xE5 SHL DUP2 MSTORE PUSH1 0x4 ADD PUSH2 0x4BE SWAP1 PUSH2 0x533F JUMP JUMPDEST PUSH1 0x15 DUP3 ADD SLOAD DUP2 LT PUSH2 0x3280 JUMPI PUSH1 0x40 MLOAD PUSH3 0x461BCD PUSH1 0xE5 SHL DUP2 MSTORE PUSH1 0x4 ADD PUSH2 0x4BE SWAP1 PUSH2 0x4C34 JUMP JUMPDEST PUSH2 0x3288 PUSH2 0x3FE4 JUMP JUMPDEST DUP3 PUSH1 0x15 ADD DUP3 DUP2 SLOAD DUP2 LT PUSH2 0x3297 JUMPI INVALID JUMPDEST PUSH1 0x0 SWAP2 DUP3 MSTORE PUSH1 0x20 SWAP2 DUP3 SWAP1 KECCAK256 PUSH1 0x40 DUP1 MLOAD PUSH2 0x100 DUP1 DUP3 ADD DUP4 MSTORE PUSH1 0x5 SWAP5 SWAP1 SWAP5 MUL SWAP1 SWAP3 ADD DUP1 SLOAD PUSH1 0x1 PUSH1 0x1 PUSH1 0x40 SHL SUB DUP2 AND DUP5 MSTORE PUSH1 0x1 PUSH1 0x40 SHL SWAP1 DIV PUSH1 0xFF AND DUP4 DUP7 ADD MSTORE PUSH1 0x1 DUP1 DUP3 ADD DUP1 SLOAD DUP5 MLOAD PUSH1 0x2 SWAP4 DUP3 AND ISZERO SWAP1 SWAP8 MUL PUSH1 0x0 NOT ADD AND SWAP2 SWAP1 SWAP2 DIV PUSH1 0x1F DUP2 ADD DUP8 SWAP1 DIV DUP8 MUL DUP7 ADD DUP8 ADD DUP5 MSTORE DUP1 DUP7 MSTORE SWAP4 SWAP6 SWAP2 SWAP5 SWAP3 DUP7 ADD SWAP4 SWAP1 SWAP2 DUP4 ADD DUP3 DUP3 DUP1 ISZERO PUSH2 0x335B JUMPI DUP1 PUSH1 0x1F LT PUSH2 0x3330 JUMPI PUSH2 0x100 DUP1 DUP4 SLOAD DIV MUL DUP4 MSTORE SWAP2 PUSH1 0x20 ADD SWAP2 PUSH2 0x335B JUMP JUMPDEST DUP3 ADD SWAP2 SWAP1 PUSH1 0x0 MSTORE PUSH1 0x20 PUSH1 0x0 KECCAK256 SWAP1 JUMPDEST DUP2 SLOAD DUP2 MSTORE SWAP1 PUSH1 0x1 ADD SWAP1 PUSH1 0x20 ADD DUP1 DUP4 GT PUSH2 0x333E JUMPI DUP3 SWAP1 SUB PUSH1 0x1F AND DUP3 ADD SWAP2 JUMPDEST POP POP POP SWAP2 DUP4 MSTORE POP POP PUSH1 0x2 DUP3 DUP2 ADD DUP1 SLOAD PUSH1 0x40 DUP1 MLOAD PUSH1 0x20 PUSH1 0x1 DUP5 AND ISZERO PUSH2 0x100 MUL PUSH1 0x0 NOT ADD SWAP1 SWAP4 AND SWAP5 SWAP1 SWAP5 DIV PUSH1 0x1F DUP2 ADD DUP4 SWAP1 DIV DUP4 MUL DUP6 ADD DUP4 ADD SWAP1 SWAP2 MSTORE DUP1 DUP5 MSTORE SWAP4 DUP2 ADD SWAP4 SWAP1 DUP4 ADD DUP3 DUP3 DUP1 ISZERO PUSH2 0x33ED JUMPI DUP1 PUSH1 0x1F LT PUSH2 0x33C2 JUMPI PUSH2 0x100 DUP1 DUP4 SLOAD DIV MUL DUP4 MSTORE SWAP2 PUSH1 0x20 ADD SWAP2 PUSH2 0x33ED JUMP JUMPDEST DUP3 ADD SWAP2 SWAP1 PUSH1 0x0 MSTORE PUSH1 0x20 PUSH1 0x0 KECCAK256 SWAP1 JUMPDEST DUP2 SLOAD DUP2 MSTORE SWAP1 PUSH1 0x1 ADD SWAP1 PUSH1 0x20 ADD DUP1 DUP4 GT PUSH2 0x33D0 JUMPI DUP3 SWAP1 SUB PUSH1 0x1F AND DUP3 ADD SWAP2 JUMPDEST POP POP POP SWAP2 DUP4 MSTORE POP POP PUSH1 0x3 DUP3 ADD SLOAD PUSH1 0x20 DUP3 ADD MSTORE PUSH1 0x4 SWAP1 SWAP2 ADD SLOAD PUSH1 0x1 PUSH1 0x1 PUSH1 0xA0 SHL SUB DUP2 AND PUSH1 0x40 DUP4 ADD MSTORE PUSH1 0xFF PUSH1 0x1 PUSH1 0xA0 SHL DUP3 DIV DUP2 AND ISZERO ISZERO PUSH1 0x60 DUP5 ADD MSTORE PUSH1 0x1 PUSH1 0xA8 SHL SWAP1 SWAP2 DIV AND ISZERO ISZERO PUSH1 0x80 SWAP1 SWAP2 ADD MSTORE PUSH1 0xE0 DUP2 ADD MLOAD SWAP1 SWAP2 POP PUSH2 0x345B JUMPI PUSH1 0x40 MLOAD PUSH3 0x461BCD PUSH1 0xE5 SHL DUP2 MSTORE PUSH1 0x4 ADD PUSH2 0x4BE SWAP1 PUSH2 0x509F JUMP JUMPDEST PUSH1 0x4 DUP1 SLOAD PUSH1 0x80 DUP4 ADD MLOAD PUSH1 0x20 DUP5 ADD MLOAD PUSH1 0x40 MLOAD PUSH4 0x2B6BAA37 PUSH1 0xE2 SHL DUP2 MSTORE PUSH1 0x1 PUSH1 0x1 PUSH1 0xA0 SHL SUB SWAP1 SWAP4 AND SWAP4 PUSH4 0xADAEA8DC SWAP4 PUSH2 0x3494 SWAP4 SWAP3 SWAP2 ADD PUSH2 0x4A7D JUMP JUMPDEST PUSH1 0x20 PUSH1 0x40 MLOAD DUP1 DUP4 SUB DUP2 DUP7 DUP1 EXTCODESIZE ISZERO DUP1 ISZERO PUSH2 0x34AC JUMPI PUSH1 0x0 DUP1 REVERT JUMPDEST POP GAS STATICCALL ISZERO DUP1 ISZERO PUSH2 0x34C0 JUMPI RETURNDATASIZE PUSH1 0x0 DUP1 RETURNDATACOPY RETURNDATASIZE PUSH1 0x0 REVERT JUMPDEST POP POP POP POP PUSH1 0x40 MLOAD RETURNDATASIZE PUSH1 0x1F NOT PUSH1 0x1F DUP3 ADD AND DUP3 ADD DUP1 PUSH1 0x40 MSTORE POP DUP2 ADD SWAP1 PUSH2 0x34E4 SWAP2 SWAP1 PUSH2 0x4397 JUMP JUMPDEST PUSH2 0x3500 JUMPI PUSH1 0x40 MLOAD PUSH3 0x461BCD PUSH1 0xE5 SHL DUP2 MSTORE PUSH1 0x4 ADD PUSH2 0x4BE SWAP1 PUSH2 0x4DAA JUMP JUMPDEST PUSH1 0x1 DUP1 DUP5 ADD DUP1 SLOAD SWAP1 SWAP2 ADD SWAP1 DUP2 SWAP1 SSTORE TIMESTAMP PUSH1 0x6 DUP6 ADD SSTORE PUSH1 0x12 DUP5 ADD SLOAD EQ ISZERO PUSH2 0x31A9 JUMPI POP POP PUSH1 0x11 ADD DUP1 SLOAD PUSH1 0xFF NOT AND PUSH1 0x4 OR SWAP1 SSTORE POP POP JUMP JUMPDEST DUP2 DUP1 PUSH1 0x0 SLOAD GT PUSH2 0x3578 JUMPI PUSH1 0x40 DUP1 MLOAD PUSH3 0x461BCD PUSH1 0xE5 SHL DUP2 MSTORE PUSH1 0x20 PUSH1 0x4 DUP3 ADD MSTORE PUSH1 0x16 PUSH1 0x24 DUP3 ADD MSTORE PUSH1 0x0 DUP1 MLOAD PUSH1 0x20 PUSH2 0x5578 DUP4 CODECOPY DUP2 MLOAD SWAP2 MSTORE PUSH1 0x44 DUP3 ADD MSTORE SWAP1 MLOAD SWAP1 DUP2 SWAP1 SUB PUSH1 0x64 ADD SWAP1 REVERT JUMPDEST PUSH1 0x0 DUP4 DUP2 MSTORE PUSH1 0x6 PUSH1 0x20 MSTORE PUSH1 0x40 DUP2 KECCAK256 DUP5 SWAP2 PUSH1 0x11 DUP3 ADD SLOAD PUSH1 0xFF AND PUSH1 0xA DUP2 GT ISZERO PUSH2 0x359B JUMPI INVALID JUMPDEST EQ PUSH2 0x35B8 JUMPI PUSH1 0x40 MLOAD PUSH3 0x461BCD PUSH1 0xE5 SHL DUP2 MSTORE PUSH1 0x4 ADD PUSH2 0x4BE SWAP1 PUSH2 0x4FA8 JUMP JUMPDEST PUSH1 0x13 DUP2 ADD SLOAD PUSH1 0x2 DUP3 ADD SLOAD LT PUSH2 0x35DF JUMPI PUSH1 0x40 MLOAD PUSH3 0x461BCD PUSH1 0xE5 SHL DUP2 MSTORE PUSH1 0x4 ADD PUSH2 0x4BE SWAP1 PUSH2 0x4FE9 JUMP JUMPDEST PUSH1 0x0 DUP2 PUSH1 0x13 ADD DUP3 PUSH1 0x2 ADD SLOAD DUP2 SLOAD DUP2 LT PUSH2 0x35F4 JUMPI INVALID JUMPDEST SWAP1 PUSH1 0x0 MSTORE PUSH1 0x20 PUSH1 0x0 KECCAK256 ADD SLOAD SWAP1 POP DUP2 PUSH1 0x15 ADD DUP1 SLOAD SWAP1 POP DUP2 LT PUSH2 0x3627 JUMPI PUSH1 0x40 MLOAD PUSH3 0x461BCD PUSH1 0xE5 SHL DUP2 MSTORE PUSH1 0x4 ADD PUSH2 0x4BE SWAP1 PUSH2 0x4ECF JUMP JUMPDEST PUSH2 0x362F PUSH2 0x3FE4 JUMP JUMPDEST DUP3 PUSH1 0x15 ADD DUP3 DUP2 SLOAD DUP2 LT PUSH2 0x363E JUMPI INVALID JUMPDEST PUSH1 0x0 SWAP2 DUP3 MSTORE PUSH1 0x20 SWAP2 DUP3 SWAP1 KECCAK256 PUSH1 0x40 DUP1 MLOAD PUSH2 0x100 DUP1 DUP3 ADD DUP4 MSTORE PUSH1 0x5 SWAP5 SWAP1 SWAP5 MUL SWAP1 SWAP3 ADD DUP1 SLOAD PUSH1 0x1 PUSH1 0x1 PUSH1 0x40 SHL SUB DUP2 AND DUP5 MSTORE PUSH1 0x1 PUSH1 0x40 SHL SWAP1 DIV PUSH1 0xFF AND DUP4 DUP7 ADD MSTORE PUSH1 0x1 DUP1 DUP3 ADD DUP1 SLOAD DUP5 MLOAD PUSH1 0x2 SWAP4 DUP3 AND ISZERO SWAP1 SWAP8 MUL PUSH1 0x0 NOT ADD AND SWAP2 SWAP1 SWAP2 DIV PUSH1 0x1F DUP2 ADD DUP8 SWAP1 DIV DUP8 MUL DUP7 ADD DUP8 ADD DUP5 MSTORE DUP1 DUP7 MSTORE SWAP4 SWAP6 SWAP2 SWAP5 SWAP3 DUP7 ADD SWAP4 SWAP1 SWAP2 DUP4 ADD DUP3 DUP3 DUP1 ISZERO PUSH2 0x3702 JUMPI DUP1 PUSH1 0x1F LT PUSH2 0x36D7 JUMPI PUSH2 0x100 DUP1 DUP4 SLOAD DIV MUL DUP4 MSTORE SWAP2 PUSH1 0x20 ADD SWAP2 PUSH2 0x3702 JUMP JUMPDEST DUP3 ADD SWAP2 SWAP1 PUSH1 0x0 MSTORE PUSH1 0x20 PUSH1 0x0 KECCAK256 SWAP1 JUMPDEST DUP2 SLOAD DUP2 MSTORE SWAP1 PUSH1 0x1 ADD SWAP1 PUSH1 0x20 ADD DUP1 DUP4 GT PUSH2 0x36E5 JUMPI DUP3 SWAP1 SUB PUSH1 0x1F AND DUP3 ADD SWAP2 JUMPDEST POP POP POP SWAP2 DUP4 MSTORE POP POP PUSH1 0x2 DUP3 DUP2 ADD DUP1 SLOAD PUSH1 0x40 DUP1 MLOAD PUSH1 0x20 PUSH1 0x1 DUP5 AND ISZERO PUSH2 0x100 MUL PUSH1 0x0 NOT ADD SWAP1 SWAP4 AND SWAP5 SWAP1 SWAP5 DIV PUSH1 0x1F DUP2 ADD DUP4 SWAP1 DIV DUP4 MUL DUP6 ADD DUP4 ADD SWAP1 SWAP2 MSTORE DUP1 DUP5 MSTORE SWAP4 DUP2 ADD SWAP4 SWAP1 DUP4 ADD DUP3 DUP3 DUP1 ISZERO PUSH2 0x3794 JUMPI DUP1 PUSH1 0x1F LT PUSH2 0x3769 JUMPI PUSH2 0x100 DUP1 DUP4 SLOAD DIV MUL DUP4 MSTORE SWAP2 PUSH1 0x20 ADD SWAP2 PUSH2 0x3794 JUMP JUMPDEST DUP3 ADD SWAP2 SWAP1 PUSH1 0x0 MSTORE PUSH1 0x20 PUSH1 0x0 KECCAK256 SWAP1 JUMPDEST DUP2 SLOAD DUP2 MSTORE SWAP1 PUSH1 0x1 ADD SWAP1 PUSH1 0x20 ADD DUP1 DUP4 GT PUSH2 0x3777 JUMPI DUP3 SWAP1 SUB PUSH1 0x1F AND DUP3 ADD SWAP2 JUMPDEST POP POP POP SWAP2 DUP4 MSTORE POP POP PUSH1 0x3 DUP3 ADD SLOAD PUSH1 0x20 DUP3 ADD MSTORE PUSH1 0x4 SWAP1 SWAP2 ADD SLOAD PUSH1 0x1 PUSH1 0x1 PUSH1 0xA0 SHL SUB DUP2 AND PUSH1 0x40 DUP4 ADD MSTORE PUSH1 0xFF PUSH1 0x1 PUSH1 0xA0 SHL DUP3 DIV DUP2 AND ISZERO ISZERO PUSH1 0x60 DUP5 ADD MSTORE PUSH1 0x1 PUSH1 0xA8 SHL SWAP1 SWAP2 DIV AND ISZERO ISZERO PUSH1 0x80 SWAP1 SWAP2 ADD MSTORE PUSH1 0x14 DUP5 ADD DUP1 SLOAD SWAP2 SWAP3 POP PUSH1 0x0 SWAP2 DUP5 SWAP1 DUP2 LT PUSH2 0x37F4 JUMPI INVALID JUMPDEST SWAP1 PUSH1 0x0 MSTORE PUSH1 0x20 PUSH1 0x0 KECCAK256 ADD SLOAD EQ PUSH2 0x381C JUMPI PUSH1 0x40 MLOAD PUSH3 0x461BCD PUSH1 0xE5 SHL DUP2 MSTORE PUSH1 0x4 ADD PUSH2 0x4BE SWAP1 PUSH2 0x51BC JUMP JUMPDEST DUP1 PUSH1 0xC0 ADD MLOAD PUSH2 0x383D JUMPI PUSH1 0x40 MLOAD PUSH3 0x461BCD PUSH1 0xE5 SHL DUP2 MSTORE PUSH1 0x4 ADD PUSH2 0x4BE SWAP1 PUSH2 0x5291 JUMP JUMPDEST PUSH1 0xA0 DUP2 ADD MLOAD PUSH1 0x1 PUSH1 0x1 PUSH1 0xA0 SHL SUB AND CALLER EQ PUSH2 0x3869 JUMPI PUSH1 0x40 MLOAD PUSH3 0x461BCD PUSH1 0xE5 SHL DUP2 MSTORE PUSH1 0x4 ADD PUSH2 0x4BE SWAP1 PUSH2 0x5020 JUMP JUMPDEST PUSH1 0x0 DUP8 DUP2 MSTORE PUSH1 0x6 PUSH1 0x20 MSTORE PUSH1 0x40 DUP2 KECCAK256 PUSH1 0x2 DUP2 ADD SLOAD PUSH1 0x13 DUP3 ADD DUP1 SLOAD SWAP3 SWAP4 SWAP3 SWAP1 SWAP2 SWAP1 DUP2 LT PUSH2 0x3890 JUMPI INVALID JUMPDEST SWAP1 PUSH1 0x0 MSTORE PUSH1 0x20 PUSH1 0x0 KECCAK256 ADD SLOAD SWAP1 POP PUSH1 0x0 DUP3 PUSH1 0x15 ADD DUP3 DUP2 SLOAD DUP2 LT PUSH2 0x38AE JUMPI INVALID JUMPDEST SWAP1 PUSH1 0x0 MSTORE PUSH1 0x20 PUSH1 0x0 KECCAK256 SWAP1 PUSH1 0x5 MUL ADD SWAP1 POP DUP1 PUSH1 0x4 ADD PUSH1 0x15 SWAP1 SLOAD SWAP1 PUSH2 0x100 EXP SWAP1 DIV PUSH1 0xFF AND ISZERO PUSH2 0x38ED JUMPI PUSH1 0x40 MLOAD PUSH3 0x461BCD PUSH1 0xE5 SHL DUP2 MSTORE PUSH1 0x4 ADD PUSH2 0x4BE SWAP1 PUSH2 0x4B22 JUMP JUMPDEST DUP1 SLOAD DUP10 MLOAD PUSH1 0x1 PUSH1 0x40 SHL SWAP1 SWAP2 DIV PUSH1 0xFF AND PUSH1 0x2 EXP LT ISZERO PUSH2 0x391D JUMPI PUSH1 0x40 MLOAD PUSH3 0x461BCD PUSH1 0xE5 SHL DUP2 MSTORE PUSH1 0x4 ADD PUSH2 0x4BE SWAP1 PUSH2 0x4E39 JUMP JUMPDEST DUP1 SLOAD DUP10 MLOAD DUP11 SWAP2 PUSH1 0x1 PUSH1 0x40 SHL SWAP1 DIV PUSH1 0xFF AND PUSH1 0x2 EXP GT ISZERO PUSH2 0x39AF JUMPI DUP10 MLOAD DUP3 SLOAD DUP12 SWAP2 PUSH1 0x1 PUSH1 0x40 SHL SWAP1 SWAP2 DIV PUSH1 0xFF AND PUSH1 0x2 EXP SUB PUSH1 0x1 PUSH1 0x1 PUSH1 0x40 SHL SUB DUP2 GT DUP1 ISZERO PUSH2 0x3960 JUMPI PUSH1 0x0 DUP1 REVERT JUMPDEST POP PUSH1 0x40 MLOAD SWAP1 DUP1 DUP3 MSTORE DUP1 PUSH1 0x1F ADD PUSH1 0x1F NOT AND PUSH1 0x20 ADD DUP3 ADD PUSH1 0x40 MSTORE DUP1 ISZERO PUSH2 0x398B JUMPI PUSH1 0x20 DUP3 ADD DUP2 DUP1 CALLDATASIZE DUP4 CALLDATACOPY ADD SWAP1 POP JUMPDEST POP PUSH1 0x40 MLOAD PUSH1 0x20 ADD PUSH2 0x399D SWAP3 SWAP2 SWAP1 PUSH2 0x48C6 JUMP JUMPDEST PUSH1 0x40 MLOAD PUSH1 0x20 DUP2 DUP4 SUB SUB DUP2 MSTORE SWAP1 PUSH1 0x40 MSTORE SWAP1 POP JUMPDEST PUSH1 0x60 PUSH2 0x39BA DUP3 PUSH2 0x3E44 JUMP JUMPDEST SWAP1 POP PUSH1 0x0 PUSH20 0x0 PUSH4 0x82B0EAB8 DUP4 PUSH1 0x40 MLOAD DUP3 PUSH4 0xFFFFFFFF AND PUSH1 0xE0 SHL DUP2 MSTORE PUSH1 0x4 ADD PUSH2 0x39F5 SWAP2 SWAP1 PUSH2 0x4967 JUMP JUMPDEST PUSH1 0x20 PUSH1 0x40 MLOAD DUP1 DUP4 SUB DUP2 DUP7 DUP1 EXTCODESIZE ISZERO DUP1 ISZERO PUSH2 0x3A0D JUMPI PUSH1 0x0 DUP1 REVERT JUMPDEST POP GAS DELEGATECALL ISZERO DUP1 ISZERO PUSH2 0x3A21 JUMPI RETURNDATASIZE PUSH1 0x0 DUP1 RETURNDATACOPY RETURNDATASIZE PUSH1 0x0 REVERT JUMPDEST POP POP POP POP PUSH1 0x40 MLOAD RETURNDATASIZE PUSH1 0x1F NOT PUSH1 0x1F DUP3 ADD AND DUP3 ADD DUP1 PUSH1 0x40 MSTORE POP DUP2 ADD SWAP1 PUSH2 0x3A45 SWAP2 SWAP1 PUSH2 0x43BA JUMP JUMPDEST DUP13 MLOAD SWAP1 SWAP2 POP PUSH2 0x3A5D SWAP1 PUSH1 0x1 DUP7 ADD SWAP1 PUSH1 0x20 DUP16 ADD SWAP1 PUSH2 0x3F38 JUMP JUMPDEST POP DUP1 DUP7 PUSH1 0x14 ADD DUP7 DUP2 SLOAD DUP2 LT PUSH2 0x3A6E JUMPI INVALID JUMPDEST PUSH1 0x0 SWAP2 DUP3 MSTORE PUSH1 0x20 SWAP1 SWAP2 KECCAK256 ADD SSTORE PUSH1 0x2 DUP7 ADD DUP1 SLOAD PUSH1 0x1 ADD SWAP1 DUP2 SWAP1 SSTORE TIMESTAMP PUSH1 0x6 DUP9 ADD SSTORE PUSH1 0x13 DUP8 ADD SLOAD EQ ISZERO PUSH2 0x3AC6 JUMPI PUSH1 0x12 DUP7 ADD SLOAD ISZERO PUSH2 0x3AB6 JUMPI PUSH1 0x11 DUP7 ADD DUP1 SLOAD PUSH1 0xFF NOT AND PUSH1 0x2 OR SWAP1 SSTORE PUSH2 0x3AC6 JUMP JUMPDEST PUSH1 0x11 DUP7 ADD DUP1 SLOAD PUSH1 0xFF NOT AND PUSH1 0x4 OR SWAP1 SSTORE JUMPDEST PUSH32 0xC33D5CC33DF375FAC3C4FB6395FAC74E37C0183C522E645801A298A6BA8E04A3 DUP14 DUP8 PUSH1 0x15 ADD DUP8 DUP2 SLOAD DUP2 LT PUSH2 0x3AF7 JUMPI INVALID JUMPDEST SWAP1 PUSH1 0x0 MSTORE PUSH1 0x20 PUSH1 0x0 KECCAK256 SWAP1 PUSH1 0x5 MUL ADD PUSH1 0x40 MLOAD PUSH2 0x3B13 SWAP3 SWAP2 SWAP1 PUSH2 0x53CC JUMP JUMPDEST PUSH1 0x40 MLOAD DUP1 SWAP2 SUB SWAP1 LOG1 POP POP POP POP POP POP POP POP POP POP POP POP POP JUMP JUMPDEST PUSH1 0x0 PUSH1 0x1 PUSH2 0x1F4 PUSH1 0x28 DUP4 PUSH1 0x0 DUP7 DUP2 MSTORE PUSH1 0x6 PUSH1 0x20 MSTORE PUSH1 0x40 SWAP1 KECCAK256 PUSH1 0x11 ADD SLOAD PUSH1 0xFF AND PUSH1 0xA DUP2 GT ISZERO PUSH2 0x3B54 JUMPI INVALID JUMPDEST EQ ISZERO PUSH2 0x3B76 JUMPI POP POP POP PUSH1 0x0 DUP3 DUP2 MSTORE PUSH1 0x6 PUSH1 0x20 MSTORE PUSH1 0x40 SWAP1 KECCAK256 PUSH1 0x5 ADD SLOAD SWAP1 POP PUSH2 0x17FE JUMP JUMPDEST PUSH1 0x3 PUSH1 0x0 DUP7 DUP2 MSTORE PUSH1 0x6 PUSH1 0x20 MSTORE PUSH1 0x40 SWAP1 KECCAK256 PUSH1 0x11 ADD SLOAD PUSH1 0xFF AND PUSH1 0xA DUP2 GT ISZERO PUSH2 0x3B98 JUMPI INVALID JUMPDEST EQ ISZERO PUSH2 0x3BBE JUMPI POP POP POP PUSH1 0x0 DUP3 DUP2 MSTORE PUSH1 0x6 PUSH1 0x20 MSTORE PUSH1 0x40 SWAP1 KECCAK256 PUSH1 0x5 ADD SLOAD PUSH2 0x960 ADD SWAP1 POP PUSH2 0x17FE JUMP JUMPDEST PUSH1 0x2 PUSH1 0x0 DUP7 DUP2 MSTORE PUSH1 0x6 PUSH1 0x20 MSTORE PUSH1 0x40 SWAP1 KECCAK256 PUSH1 0x11 ADD SLOAD PUSH1 0xFF AND PUSH1 0xA DUP2 GT ISZERO PUSH2 0x3BE0 JUMPI INVALID JUMPDEST EQ ISZERO PUSH2 0x3C0D JUMPI POP POP POP PUSH1 0x0 DUP3 DUP2 MSTORE PUSH1 0x6 PUSH1 0x20 MSTORE PUSH1 0x40 SWAP1 KECCAK256 PUSH1 0x5 DUP2 ADD SLOAD PUSH1 0x12 SWAP1 SWAP2 ADD SLOAD MUL PUSH1 0x2 MUL SWAP1 POP PUSH2 0x17FE JUMP JUMPDEST PUSH1 0x4 PUSH1 0x0 DUP7 DUP2 MSTORE PUSH1 0x6 PUSH1 0x20 MSTORE PUSH1 0x40 SWAP1 KECCAK256 PUSH1 0x11 ADD SLOAD PUSH1 0xFF AND PUSH1 0xA DUP2 GT ISZERO PUSH2 0x3C2F JUMPI INVALID JUMPDEST EQ ISZERO PUSH2 0x3C66 JUMPI PUSH1 0x0 DUP6 DUP2 MSTORE PUSH1 0x6 PUSH1 0x20 MSTORE PUSH1 0x40 SWAP1 KECCAK256 PUSH1 0x5 DUP2 ADD SLOAD PUSH1 0x3 SWAP1 SWAP2 ADD SLOAD PUSH5 0xE8D4A51000 SWAP1 DUP5 MUL JUMPDEST DIV DUP3 ADD ADD SWAP4 POP POP POP POP PUSH2 0x17FE JUMP JUMPDEST PUSH1 0x6 PUSH1 0x0 DUP7 DUP2 MSTORE PUSH1 0x6 PUSH1 0x20 MSTORE PUSH1 0x40 SWAP1 KECCAK256 PUSH1 0x11 ADD SLOAD PUSH1 0xFF AND PUSH1 0xA DUP2 GT ISZERO PUSH2 0x3C88 JUMPI INVALID JUMPDEST EQ ISZERO PUSH2 0x3CB5 JUMPI PUSH1 0x0 DUP6 DUP2 MSTORE PUSH1 0x6 PUSH1 0x20 MSTORE PUSH1 0x40 SWAP1 KECCAK256 PUSH1 0x5 DUP2 ADD SLOAD PUSH1 0x3 SWAP1 SWAP2 ADD SLOAD PUSH5 0xE8D4A51000 SWAP1 DUP5 MUL PUSH2 0x3C58 JUMP JUMPDEST PUSH1 0x7 PUSH1 0x0 DUP7 DUP2 MSTORE PUSH1 0x6 PUSH1 0x20 MSTORE PUSH1 0x40 SWAP1 KECCAK256 PUSH1 0x11 ADD SLOAD PUSH1 0xFF AND PUSH1 0xA DUP2 GT ISZERO PUSH2 0x3CD7 JUMPI INVALID JUMPDEST EQ ISZERO PUSH2 0x3D8A JUMPI PUSH1 0x0 DUP6 DUP2 MSTORE PUSH1 0x6 PUSH1 0x20 MSTORE PUSH1 0x40 SWAP1 DUP2 SWAP1 KECCAK256 PUSH1 0x5 DUP1 DUP3 ADD SLOAD SWAP1 SLOAD PUSH1 0x3 SWAP1 SWAP3 ADD SLOAD SWAP3 MLOAD PUSH4 0x1B8798D5 PUSH1 0xE1 SHL DUP2 MSTORE SWAP1 SWAP3 PUSH1 0x1 PUSH1 0x1 PUSH1 0xA0 SHL SUB SWAP1 SWAP3 AND SWAP2 PUSH4 0x370F31AA SWAP2 PUSH2 0x3D2F SWAP2 DUP6 SWAP2 DUP8 SWAP2 DUP11 SWAP2 DUP11 SWAP1 PUSH1 0x4 ADD PUSH2 0x548F JUMP JUMPDEST PUSH1 0x20 PUSH1 0x40 MLOAD DUP1 DUP4 SUB DUP2 DUP7 DUP1 EXTCODESIZE ISZERO DUP1 ISZERO PUSH2 0x3D47 JUMPI PUSH1 0x0 DUP1 REVERT JUMPDEST POP GAS STATICCALL ISZERO DUP1 ISZERO PUSH2 0x3D5B JUMPI RETURNDATASIZE PUSH1 0x0 DUP1 RETURNDATACOPY RETURNDATASIZE PUSH1 0x0 REVERT JUMPDEST POP POP POP POP PUSH1 0x40 MLOAD RETURNDATASIZE PUSH1 0x1F NOT PUSH1 0x1F DUP3 ADD AND DUP3 ADD DUP1 PUSH1 0x40 MSTORE POP DUP2 ADD SWAP1 PUSH2 0x3D7F SWAP2 SWAP1 PUSH2 0x43BA JUMP JUMPDEST ADD SWAP4 POP POP POP POP PUSH2 0x17FE JUMP JUMPDEST PUSH1 0x9 PUSH1 0x0 DUP7 DUP2 MSTORE PUSH1 0x6 PUSH1 0x20 MSTORE PUSH1 0x40 SWAP1 KECCAK256 PUSH1 0x11 ADD SLOAD PUSH1 0xFF AND PUSH1 0xA DUP2 GT ISZERO PUSH2 0x3DAC JUMPI INVALID JUMPDEST EQ DUP1 PUSH2 0x3DD7 JUMPI POP PUSH1 0x8 PUSH1 0x0 DUP7 DUP2 MSTORE PUSH1 0x6 PUSH1 0x20 MSTORE PUSH1 0x40 SWAP1 KECCAK256 PUSH1 0x11 ADD SLOAD PUSH1 0xFF AND PUSH1 0xA DUP2 GT ISZERO PUSH2 0x3DD5 JUMPI INVALID JUMPDEST EQ JUMPDEST DUP1 PUSH2 0x3E01 JUMPI POP PUSH1 0x5 PUSH1 0x0 DUP7 DUP2 MSTORE PUSH1 0x6 PUSH1 0x20 MSTORE PUSH1 0x40 SWAP1 KECCAK256 PUSH1 0x11 ADD SLOAD PUSH1 0xFF AND PUSH1 0xA DUP2 GT ISZERO PUSH2 0x3DFF JUMPI INVALID JUMPDEST EQ JUMPDEST DUP1 PUSH2 0x3E2B JUMPI POP PUSH1 0xA PUSH1 0x0 DUP7 DUP2 MSTORE PUSH1 0x6 PUSH1 0x20 MSTORE PUSH1 0x40 SWAP1 KECCAK256 PUSH1 0x11 ADD SLOAD PUSH1 0xFF AND PUSH1 0xA DUP2 GT ISZERO PUSH2 0x3E29 JUMPI INVALID JUMPDEST EQ JUMPDEST ISZERO PUSH2 0x3E3C JUMPI PUSH1 0x0 SWAP4 POP POP POP POP PUSH2 0x17FE JUMP JUMPDEST POP POP POP SWAP2 SWAP1 POP JUMP JUMPDEST PUSH1 0x60 PUSH1 0x0 PUSH1 0x8 DUP4 MLOAD DUP2 PUSH2 0x3E53 JUMPI INVALID JUMPDEST DIV SWAP1 POP PUSH1 0x60 DUP2 PUSH1 0x1 PUSH1 0x1 PUSH1 0x40 SHL SUB DUP2 GT DUP1 ISZERO PUSH2 0x3E6E JUMPI PUSH1 0x0 DUP1 REVERT JUMPDEST POP PUSH1 0x40 MLOAD SWAP1 DUP1 DUP3 MSTORE DUP1 PUSH1 0x20 MUL PUSH1 0x20 ADD DUP3 ADD PUSH1 0x40 MSTORE DUP1 ISZERO PUSH2 0x3E98 JUMPI DUP2 PUSH1 0x20 ADD PUSH1 0x20 DUP3 MUL DUP1 CALLDATASIZE DUP4 CALLDATACOPY ADD SWAP1 POP JUMPDEST POP SWAP1 POP PUSH1 0x0 JUMPDEST DUP3 DUP2 LT ISZERO PUSH2 0x3F30 JUMPI PUSH1 0x0 DUP1 JUMPDEST PUSH1 0x8 DUP2 LT ISZERO PUSH2 0x3EE8 JUMPI PUSH1 0x0 DUP8 DUP3 DUP6 PUSH1 0x8 MUL ADD DUP2 MLOAD DUP2 LT PUSH2 0x3EC6 JUMPI INVALID JUMPDEST ADD PUSH1 0x20 ADD MLOAD PUSH1 0x1 PUSH1 0x1 PUSH1 0xF8 SHL SUB NOT AND PUSH1 0x8 DUP4 MUL SHR SWAP3 SWAP1 SWAP3 OR SWAP2 POP PUSH1 0x1 ADD PUSH2 0x3EAA JUMP JUMPDEST POP DUP1 PUSH1 0x40 MLOAD PUSH1 0x20 ADD PUSH2 0x3EFA SWAP2 SWAP1 PUSH2 0x48B1 JUMP JUMPDEST PUSH1 0x40 MLOAD PUSH1 0x20 DUP2 DUP4 SUB SUB DUP2 MSTORE SWAP1 PUSH1 0x40 MSTORE DUP1 MLOAD SWAP1 PUSH1 0x20 ADD KECCAK256 DUP4 DUP4 DUP2 MLOAD DUP2 LT PUSH2 0x3F1C JUMPI INVALID JUMPDEST PUSH1 0x20 SWAP1 DUP2 MUL SWAP2 SWAP1 SWAP2 ADD ADD MSTORE POP PUSH1 0x1 ADD PUSH2 0x3E9E JUMP JUMPDEST POP SWAP4 SWAP3 POP POP POP JUMP JUMPDEST DUP3 DUP1 SLOAD PUSH1 0x1 DUP2 PUSH1 0x1 AND ISZERO PUSH2 0x100 MUL SUB AND PUSH1 0x2 SWAP1 DIV SWAP1 PUSH1 0x0 MSTORE PUSH1 0x20 PUSH1 0x0 KECCAK256 SWAP1 PUSH1 0x1F ADD PUSH1 0x20 SWAP1 DIV DUP2 ADD SWAP3 DUP3 PUSH2 0x3F6E JUMPI PUSH1 0x0 DUP6 SSTORE PUSH2 0x3FB4 JUMP JUMPDEST DUP3 PUSH1 0x1F LT PUSH2 0x3F87 JUMPI DUP1 MLOAD PUSH1 0xFF NOT AND DUP4 DUP1 ADD OR DUP6 SSTORE PUSH2 0x3FB4 JUMP JUMPDEST DUP3 DUP1 ADD PUSH1 0x1 ADD DUP6 SSTORE DUP3 ISZERO PUSH2 0x3FB4 JUMPI SWAP2 DUP3 ADD JUMPDEST DUP3 DUP2 GT ISZERO PUSH2 0x3FB4 JUMPI DUP3 MLOAD DUP3 SSTORE SWAP2 PUSH1 0x20 ADD SWAP2 SWAP1 PUSH1 0x1 ADD SWAP1 PUSH2 0x3F99 JUMP JUMPDEST POP PUSH2 0x3FC0 SWAP3 SWAP2 POP PUSH2 0x40A6 JUMP JUMPDEST POP SWAP1 JUMP JUMPDEST PUSH1 0x40 DUP1 MLOAD PUSH1 0x60 DUP2 ADD DUP3 MSTORE PUSH1 0x0 DUP1 DUP3 MSTORE PUSH1 0x20 DUP3 ADD DUP2 SWAP1 MSTORE SWAP2 DUP2 ADD SWAP2 SWAP1 SWAP2 MSTORE SWAP1 JUMP JUMPDEST PUSH1 0x40 DUP1 MLOAD PUSH2 0x100 DUP2 ADD DUP3 MSTORE PUSH1 0x0 DUP1 DUP3 MSTORE PUSH1 0x20 DUP3 ADD DUP2 SWAP1 MSTORE PUSH1 0x60 SWAP3 DUP3 ADD DUP4 SWAP1 MSTORE DUP3 DUP3 ADD SWAP3 SWAP1 SWAP3 MSTORE PUSH1 0x80 DUP2 ADD DUP3 SWAP1 MSTORE PUSH1 0xA0 DUP2 ADD DUP3 SWAP1 MSTORE PUSH1 0xC0 DUP2 ADD DUP3 SWAP1 MSTORE PUSH1 0xE0 DUP2 ADD SWAP2 SWAP1 SWAP2 MSTORE SWAP1 JUMP JUMPDEST DUP3 DUP1 SLOAD DUP3 DUP3 SSTORE SWAP1 PUSH1 0x0 MSTORE PUSH1 0x20 PUSH1 0x0 KECCAK256 SWAP1 DUP2 ADD SWAP3 DUP3 ISZERO PUSH2 0x3FB4 JUMPI SWAP2 PUSH1 0x20 MUL DUP3 ADD DUP3 DUP2 GT ISZERO PUSH2 0x3FB4 JUMPI DUP3 MLOAD DUP3 SSTORE SWAP2 PUSH1 0x20 ADD SWAP2 SWAP1 PUSH1 0x1 ADD SWAP1 PUSH2 0x3F99 JUMP JUMPDEST POP DUP1 SLOAD PUSH1 0x0 DUP3 SSTORE SWAP1 PUSH1 0x0 MSTORE PUSH1 0x20 PUSH1 0x0 KECCAK256 SWAP1 DUP2 ADD SWAP1 PUSH2 0x4082 SWAP2 SWAP1 PUSH2 0x40A6 JUMP JUMPDEST POP JUMP JUMPDEST POP DUP1 SLOAD PUSH1 0x0 DUP3 SSTORE PUSH1 0x5 MUL SWAP1 PUSH1 0x0 MSTORE PUSH1 0x20 PUSH1 0x0 KECCAK256 SWAP1 DUP2 ADD SWAP1 PUSH2 0x4082 SWAP2 SWAP1 PUSH2 0x40BB JUMP JUMPDEST JUMPDEST DUP1 DUP3 GT ISZERO PUSH2 0x3FC0 JUMPI PUSH1 0x0 DUP2 SSTORE PUSH1 0x1 ADD PUSH2 0x40A7 JUMP JUMPDEST DUP1 DUP3 GT ISZERO PUSH2 0x3FC0 JUMPI DUP1 SLOAD PUSH9 0xFFFFFFFFFFFFFFFFFF NOT AND DUP2 SSTORE PUSH1 0x0 PUSH2 0x40E2 PUSH1 0x1 DUP4 ADD DUP3 PUSH2 0x4112 JUMP JUMPDEST PUSH2 0x40F0 PUSH1 0x2 DUP4 ADD PUSH1 0x0 PUSH2 0x4112 JUMP JUMPDEST POP PUSH1 0x0 PUSH1 0x3 DUP3 ADD SSTORE PUSH1 0x4 DUP2 ADD DUP1 SLOAD PUSH1 0x1 PUSH1 0x1 PUSH1 0xB0 SHL SUB NOT AND SWAP1 SSTORE PUSH1 0x5 ADD PUSH2 0x40BB JUMP JUMPDEST POP DUP1 SLOAD PUSH1 0x1 DUP2 PUSH1 0x1 AND ISZERO PUSH2 0x100 MUL SUB AND PUSH1 0x2 SWAP1 DIV PUSH1 0x0 DUP3 SSTORE DUP1 PUSH1 0x1F LT PUSH2 0x4138 JUMPI POP PUSH2 0x4082 JUMP JUMPDEST PUSH1 0x1F ADD PUSH1 0x20 SWAP1 DIV SWAP1 PUSH1 0x0 MSTORE PUSH1 0x20 PUSH1 0x0 KECCAK256 SWAP1 DUP2 ADD SWAP1 PUSH2 0x4082 SWAP2 SWAP1 PUSH2 0x40A6 JUMP JUMPDEST DUP1 CALLDATALOAD PUSH1 0x1 PUSH1 0x1 PUSH1 0xA0 SHL SUB DUP2 AND DUP2 EQ PUSH2 0x17FE JUMPI PUSH1 0x0 DUP1 REVERT JUMPDEST PUSH1 0x0 DUP3 PUSH1 0x1F DUP4 ADD SLT PUSH2 0x417D JUMPI DUP1 DUP2 REVERT JUMPDEST DUP2 CALLDATALOAD PUSH2 0x4190 PUSH2 0x418B DUP3 PUSH2 0x5514 JUMP JUMPDEST PUSH2 0x54F1 JUMP JUMPDEST DUP2 DUP2 MSTORE SWAP2 POP PUSH1 0x20 DUP1 DUP4 ADD SWAP1 DUP5 DUP2 ADD DUP2 DUP5 MUL DUP7 ADD DUP3 ADD DUP8 LT ISZERO PUSH2 0x41B1 JUMPI PUSH1 0x0 DUP1 REVERT JUMPDEST PUSH1 0x0 JUMPDEST DUP5 DUP2 LT ISZERO PUSH2 0x41D0 JUMPI DUP2 CALLDATALOAD DUP5 MSTORE SWAP3 DUP3 ADD SWAP3 SWAP1 DUP3 ADD SWAP1 PUSH1 0x1 ADD PUSH2 0x41B4 JUMP JUMPDEST POP POP POP POP POP SWAP3 SWAP2 POP POP JUMP JUMPDEST PUSH1 0x0 DUP3 PUSH1 0x1F DUP4 ADD SLT PUSH2 0x41EB JUMPI DUP1 DUP2 REVERT JUMPDEST DUP2 CALLDATALOAD PUSH2 0x41F9 PUSH2 0x418B DUP3 PUSH2 0x5514 JUMP JUMPDEST DUP2 DUP2 MSTORE SWAP2 POP PUSH1 0x20 DUP1 DUP4 ADD SWAP1 DUP5 DUP2 ADD PUSH1 0x0 JUMPDEST DUP5 DUP2 LT ISZERO PUSH2 0x41D0 JUMPI DUP2 CALLDATALOAD DUP8 ADD PUSH2 0x100 DUP1 PUSH1 0x1F NOT DUP4 DUP13 SUB ADD SLT ISZERO PUSH2 0x422C JUMPI PUSH1 0x0 DUP1 REVERT JUMPDEST PUSH2 0x4235 DUP2 PUSH2 0x54F1 JUMP JUMPDEST PUSH2 0x4240 DUP7 DUP5 ADD PUSH2 0x436F JUMP JUMPDEST DUP2 MSTORE PUSH1 0x40 PUSH2 0x424F DUP2 DUP6 ADD PUSH2 0x4386 JUMP JUMPDEST DUP8 DUP4 ADD MSTORE PUSH1 0x60 DUP1 DUP6 ADD CALLDATALOAD PUSH1 0x1 PUSH1 0x1 PUSH1 0x40 SHL SUB DUP1 DUP3 GT ISZERO PUSH2 0x426E JUMPI PUSH1 0x0 DUP1 REVERT JUMPDEST PUSH2 0x427C DUP16 DUP12 DUP5 DUP11 ADD ADD PUSH2 0x4309 JUMP JUMPDEST DUP5 DUP7 ADD MSTORE PUSH1 0x80 SWAP4 POP DUP4 DUP8 ADD CALLDATALOAD SWAP2 POP DUP1 DUP3 GT ISZERO PUSH2 0x4297 JUMPI PUSH1 0x0 DUP1 REVERT JUMPDEST POP PUSH2 0x42A6 DUP15 DUP11 DUP4 DUP10 ADD ADD PUSH2 0x4309 JUMP JUMPDEST DUP3 DUP6 ADD MSTORE POP POP PUSH1 0xA0 DUP1 DUP6 ADD CALLDATALOAD DUP3 DUP5 ADD MSTORE PUSH1 0xC0 SWAP2 POP PUSH2 0x42C5 DUP3 DUP7 ADD PUSH2 0x4156 JUMP JUMPDEST SWAP1 DUP4 ADD MSTORE PUSH1 0xE0 PUSH2 0x42D6 DUP6 DUP3 ADD PUSH2 0x42FE JUMP JUMPDEST DUP3 DUP5 ADD MSTORE PUSH2 0x42E5 DUP5 DUP7 ADD PUSH2 0x42FE JUMP JUMPDEST SWAP1 DUP4 ADD MSTORE POP DUP7 MSTORE POP POP SWAP3 DUP3 ADD SWAP3 SWAP1 DUP3 ADD SWAP1 PUSH1 0x1 ADD PUSH2 0x420A JUMP JUMPDEST DUP1 CALLDATALOAD PUSH2 0x17FE DUP2 PUSH2 0x5569 JUMP JUMPDEST PUSH1 0x0 DUP3 PUSH1 0x1F DUP4 ADD SLT PUSH2 0x4319 JUMPI DUP1 DUP2 REVERT JUMPDEST DUP2 CALLDATALOAD PUSH1 0x1 PUSH1 0x1 PUSH1 0x40 SHL SUB DUP2 GT ISZERO PUSH2 0x432C JUMPI INVALID JUMPDEST PUSH2 0x433F PUSH1 0x1F DUP3 ADD PUSH1 0x1F NOT AND PUSH1 0x20 ADD PUSH2 0x54F1 JUMP JUMPDEST SWAP2 POP DUP1 DUP3 MSTORE DUP4 PUSH1 0x20 DUP3 DUP6 ADD ADD GT ISZERO PUSH2 0x4356 JUMPI PUSH1 0x0 DUP1 REVERT JUMPDEST DUP1 PUSH1 0x20 DUP5 ADD PUSH1 0x20 DUP5 ADD CALLDATACOPY PUSH1 0x0 SWAP1 DUP3 ADD PUSH1 0x20 ADD MSTORE SWAP3 SWAP2 POP POP JUMP JUMPDEST DUP1 CALLDATALOAD PUSH1 0x1 PUSH1 0x1 PUSH1 0x40 SHL SUB DUP2 AND DUP2 EQ PUSH2 0x17FE JUMPI PUSH1 0x0 DUP1 REVERT JUMPDEST DUP1 CALLDATALOAD PUSH1 0xFF DUP2 AND DUP2 EQ PUSH2 0x17FE JUMPI PUSH1 0x0 DUP1 REVERT JUMPDEST PUSH1 0x0 PUSH1 0x20 DUP3 DUP5 SUB SLT ISZERO PUSH2 0x43A8 JUMPI DUP1 DUP2 REVERT JUMPDEST DUP2 MLOAD PUSH2 0x43B3 DUP2 PUSH2 0x5569 JUMP JUMPDEST SWAP4 SWAP3 POP POP POP JUMP JUMPDEST PUSH1 0x0 PUSH1 0x20 DUP3 DUP5 SUB SLT ISZERO PUSH2 0x43CB JUMPI DUP1 DUP2 REVERT JUMPDEST POP MLOAD SWAP2 SWAP1 POP JUMP JUMPDEST PUSH1 0x0 PUSH1 0x20 DUP3 DUP5 SUB SLT ISZERO PUSH2 0x43E3 JUMPI DUP1 DUP2 REVERT JUMPDEST POP CALLDATALOAD SWAP2 SWAP1 POP JUMP JUMPDEST PUSH1 0x0 DUP1 PUSH1 0x40 DUP4 DUP6 SUB SLT ISZERO PUSH2 0x43FC JUMPI DUP1 DUP2 REVERT JUMPDEST DUP3 CALLDATALOAD SWAP2 POP PUSH2 0x440C PUSH1 0x20 DUP5 ADD PUSH2 0x4156 JUMP JUMPDEST SWAP1 POP SWAP3 POP SWAP3 SWAP1 POP JUMP JUMPDEST PUSH1 0x0 DUP1 PUSH1 0x40 DUP4 DUP6 SUB SLT ISZERO PUSH2 0x4427 JUMPI DUP2 DUP3 REVERT JUMPDEST POP POP DUP1 CALLDATALOAD SWAP3 PUSH1 0x20 SWAP1 SWAP2 ADD CALLDATALOAD SWAP2 POP JUMP JUMPDEST PUSH1 0x0 DUP1 PUSH1 0x0 DUP1 PUSH1 0x0 PUSH1 0xA0 DUP7 DUP9 SUB SLT ISZERO PUSH2 0x444D JUMPI DUP1 DUP2 REVERT JUMPDEST DUP6 CALLDATALOAD SWAP5 POP PUSH1 0x20 DUP1 DUP8 ADD CALLDATALOAD SWAP5 POP PUSH1 0x40 DUP8 ADD CALLDATALOAD PUSH1 0x1 PUSH1 0x1 PUSH1 0x40 SHL SUB DUP1 DUP3 GT ISZERO PUSH2 0x4472 JUMPI DUP4 DUP5 REVERT JUMPDEST DUP2 DUP10 ADD SWAP2 POP DUP10 PUSH1 0x1F DUP4 ADD SLT PUSH2 0x4485 JUMPI DUP4 DUP5 REVERT JUMPDEST DUP2 CALLDATALOAD PUSH2 0x4493 PUSH2 0x418B DUP3 PUSH2 0x5514 JUMP JUMPDEST DUP2 DUP2 MSTORE DUP5 DUP2 ADD SWAP1 DUP5 DUP7 ADD DUP8 JUMPDEST DUP5 DUP2 LT ISZERO PUSH2 0x44C8 JUMPI PUSH2 0x44B6 DUP16 DUP10 DUP5 CALLDATALOAD DUP11 ADD ADD PUSH2 0x416D JUMP JUMPDEST DUP5 MSTORE SWAP3 DUP8 ADD SWAP3 SWAP1 DUP8 ADD SWAP1 PUSH1 0x1 ADD PUSH2 0x449F JUMP JUMPDEST POP SWAP1 SWAP9 POP POP POP POP PUSH1 0x60 DUP10 ADD CALLDATALOAD SWAP3 POP DUP1 DUP4 GT ISZERO PUSH2 0x44E2 JUMPI DUP4 DUP5 REVERT JUMPDEST PUSH2 0x44EE DUP11 DUP5 DUP12 ADD PUSH2 0x4309 JUMP JUMPDEST SWAP5 POP PUSH1 0x80 DUP10 ADD CALLDATALOAD SWAP3 POP DUP1 DUP4 GT ISZERO PUSH2 0x4503 JUMPI DUP4 DUP5 REVERT JUMPDEST POP POP PUSH2 0x4511 DUP9 DUP3 DUP10 ADD PUSH2 0x416D JUMP JUMPDEST SWAP2 POP POP SWAP3 SWAP6 POP SWAP3 SWAP6 SWAP1 SWAP4 POP JUMP JUMPDEST PUSH1 0x0 DUP1 PUSH1 0x0 DUP1 PUSH1 0x0 DUP1 PUSH1 0x0 PUSH1 0xE0 DUP9 DUP11 SUB SLT ISZERO PUSH2 0x4538 JUMPI DUP5 DUP6 REVERT JUMPDEST DUP8 CALLDATALOAD SWAP7 POP PUSH1 0x20 DUP1 DUP10 ADD CALLDATALOAD SWAP7 POP PUSH2 0x4550 PUSH1 0x40 DUP11 ADD PUSH2 0x436F JUMP JUMPDEST SWAP6 POP PUSH2 0x455E PUSH1 0x60 DUP11 ADD PUSH2 0x4386 JUMP JUMPDEST SWAP5 POP PUSH1 0x80 DUP10 ADD CALLDATALOAD SWAP4 POP PUSH1 0xA0 DUP10 ADD CALLDATALOAD PUSH1 0x1 PUSH1 0x1 PUSH1 0x40 SHL SUB DUP1 DUP3 GT ISZERO PUSH2 0x4580 JUMPI DUP5 DUP6 REVERT JUMPDEST DUP2 DUP12 ADD SWAP2 POP DUP12 PUSH1 0x1F DUP4 ADD SLT PUSH2 0x4593 JUMPI DUP5 DUP6 REVERT JUMPDEST DUP2 CALLDATALOAD PUSH2 0x45A1 PUSH2 0x418B DUP3 PUSH2 0x5514 JUMP JUMPDEST DUP1 DUP3 DUP3 MSTORE DUP6 DUP3 ADD SWAP2 POP DUP6 DUP6 ADD DUP16 DUP8 DUP9 DUP7 MUL DUP9 ADD ADD GT ISZERO PUSH2 0x45BF JUMPI DUP9 DUP10 REVERT JUMPDEST DUP9 SWAP6 POP JUMPDEST DUP4 DUP7 LT ISZERO PUSH2 0x45E8 JUMPI PUSH2 0x45D4 DUP2 PUSH2 0x4156 JUMP JUMPDEST DUP4 MSTORE PUSH1 0x1 SWAP6 SWAP1 SWAP6 ADD SWAP5 SWAP2 DUP7 ADD SWAP2 DUP7 ADD PUSH2 0x45C3 JUMP JUMPDEST POP SWAP7 POP POP POP PUSH1 0xC0 DUP12 ADD CALLDATALOAD SWAP3 POP DUP1 DUP4 GT ISZERO PUSH2 0x4600 JUMPI DUP4 DUP5 REVERT JUMPDEST POP POP PUSH2 0x460E DUP11 DUP3 DUP12 ADD PUSH2 0x41DB JUMP JUMPDEST SWAP2 POP POP SWAP3 SWAP6 SWAP9 SWAP2 SWAP5 SWAP8 POP SWAP3 SWAP6 POP JUMP JUMPDEST PUSH1 0x0 DUP1 PUSH1 0x40 DUP4 DUP6 SUB SLT ISZERO PUSH2 0x462F JUMPI DUP2 DUP3 REVERT JUMPDEST DUP3 CALLDATALOAD SWAP2 POP PUSH1 0x20 DUP4 ADD CALLDATALOAD PUSH1 0x1 PUSH1 0x1 PUSH1 0x40 SHL SUB DUP2 GT ISZERO PUSH2 0x464B JUMPI DUP2 DUP3 REVERT JUMPDEST PUSH2 0x4657 DUP6 DUP3 DUP7 ADD PUSH2 0x4309 JUMP JUMPDEST SWAP2 POP POP SWAP3 POP SWAP3 SWAP1 POP JUMP JUMPDEST PUSH1 0x1 PUSH1 0x1 PUSH1 0xA0 SHL SUB AND SWAP1 MSTORE JUMP JUMPDEST PUSH1 0x0 DUP2 MLOAD DUP1 DUP5 MSTORE PUSH1 0x20 DUP1 DUP6 ADD SWAP5 POP DUP1 DUP5 ADD DUP4 JUMPDEST DUP4 DUP2 LT ISZERO PUSH2 0x46A6 JUMPI DUP2 MLOAD PUSH1 0x1 PUSH1 0x1 PUSH1 0xA0 SHL SUB AND DUP8 MSTORE SWAP6 DUP3 ADD SWAP6 SWAP1 DUP3 ADD SWAP1 PUSH1 0x1 ADD PUSH2 0x4681 JUMP JUMPDEST POP SWAP5 SWAP6 SWAP5 POP POP POP POP POP JUMP JUMPDEST PUSH1 0x0 DUP2 MLOAD DUP1 DUP5 MSTORE PUSH1 0x20 DUP1 DUP6 ADD SWAP5 POP DUP1 DUP5 ADD DUP4 JUMPDEST DUP4 DUP2 LT ISZERO PUSH2 0x46A6 JUMPI DUP2 MLOAD DUP8 MSTORE SWAP6 DUP3 ADD SWAP6 SWAP1 DUP3 ADD SWAP1 PUSH1 0x1 ADD PUSH2 0x46C4 JUMP JUMPDEST PUSH1 0x0 DUP2 MLOAD DUP1 DUP5 MSTORE PUSH1 0x20 DUP1 DUP6 ADD DUP1 DUP2 SWAP7 POP DUP3 DUP5 MUL DUP2 ADD SWAP2 POP DUP3 DUP7 ADD DUP6 JUMPDEST DUP6 DUP2 LT ISZERO PUSH2 0x47BC JUMPI DUP3 DUP5 SUB DUP10 MSTORE DUP2 MLOAD PUSH2 0x100 PUSH1 0x1 PUSH1 0x1 PUSH1 0x40 SHL SUB DUP3 MLOAD AND DUP7 MSTORE DUP7 DUP3 ADD MLOAD PUSH2 0x472B DUP9 DUP9 ADD DUP3 PUSH2 0x48AA JUMP JUMPDEST POP PUSH1 0x40 DUP1 DUP4 ADD MLOAD DUP3 DUP3 DUP10 ADD MSTORE PUSH2 0x4743 DUP4 DUP10 ADD DUP3 PUSH2 0x47CF JUMP JUMPDEST SWAP3 POP POP POP PUSH1 0x60 DUP1 DUP4 ADD MLOAD DUP8 DUP4 SUB DUP3 DUP10 ADD MSTORE PUSH2 0x475E DUP4 DUP3 PUSH2 0x47CF JUMP JUMPDEST SWAP3 POP POP POP PUSH1 0x80 DUP1 DUP4 ADD MLOAD DUP2 DUP9 ADD MSTORE POP PUSH1 0xA0 DUP1 DUP4 ADD MLOAD PUSH2 0x477F DUP3 DUP10 ADD DUP3 PUSH2 0x4661 JUMP JUMPDEST POP POP PUSH1 0xC0 DUP1 DUP4 ADD MLOAD PUSH2 0x4793 DUP3 DUP10 ADD DUP3 PUSH2 0x47C9 JUMP JUMPDEST POP POP PUSH1 0xE0 SWAP2 DUP3 ADD MLOAD SWAP2 PUSH2 0x47A8 DUP8 DUP3 ADD DUP5 PUSH2 0x47C9 JUMP JUMPDEST POP SWAP10 DUP7 ADD SWAP10 SWAP5 POP POP SWAP1 DUP5 ADD SWAP1 PUSH1 0x1 ADD PUSH2 0x46FC JUMP JUMPDEST POP SWAP2 SWAP8 SWAP7 POP POP POP POP POP POP POP JUMP JUMPDEST ISZERO ISZERO SWAP1 MSTORE JUMP JUMPDEST PUSH1 0x0 DUP2 MLOAD DUP1 DUP5 MSTORE PUSH2 0x47E7 DUP2 PUSH1 0x20 DUP7 ADD PUSH1 0x20 DUP7 ADD PUSH2 0x553D JUMP JUMPDEST PUSH1 0x1F ADD PUSH1 0x1F NOT AND SWAP3 SWAP1 SWAP3 ADD PUSH1 0x20 ADD SWAP3 SWAP2 POP POP JUMP JUMPDEST PUSH1 0x0 DUP2 SLOAD PUSH1 0x1 DUP1 DUP3 AND PUSH1 0x0 DUP2 EQ PUSH2 0x4819 JUMPI PUSH1 0x1 DUP2 EQ PUSH2 0x4837 JUMPI PUSH2 0x4875 JUMP JUMPDEST PUSH1 0x2 DUP4 DIV PUSH1 0x7F AND DUP7 MSTORE PUSH1 0xFF NOT DUP4 AND PUSH1 0x20 DUP8 ADD MSTORE PUSH1 0x40 DUP7 ADD SWAP4 POP PUSH2 0x4875 JUMP JUMPDEST PUSH1 0x2 DUP4 DIV DUP1 DUP8 MSTORE PUSH2 0x4847 DUP7 PUSH2 0x5531 JUMP JUMPDEST PUSH1 0x0 JUMPDEST DUP3 DUP2 LT ISZERO PUSH2 0x486B JUMPI DUP2 SLOAD PUSH1 0x20 DUP3 DUP12 ADD ADD MSTORE DUP5 DUP3 ADD SWAP2 POP PUSH1 0x20 DUP2 ADD SWAP1 POP PUSH2 0x484A JUMP JUMPDEST DUP9 ADD PUSH1 0x20 ADD SWAP6 POP POP POP JUMPDEST POP POP POP SWAP3 SWAP2 POP POP JUMP JUMPDEST DUP1 MLOAD ISZERO ISZERO DUP3 MSTORE PUSH1 0x20 DUP1 DUP3 ADD MLOAD ISZERO ISZERO SWAP1 DUP4 ADD MSTORE PUSH1 0x40 SWAP1 DUP2 ADD MLOAD ISZERO ISZERO SWAP2 ADD MSTORE JUMP JUMPDEST PUSH1 0x1 PUSH1 0x1 PUSH1 0x40 SHL SUB AND SWAP1 MSTORE JUMP JUMPDEST PUSH1 0xFF AND SWAP1 MSTORE JUMP JUMPDEST PUSH1 0x1 PUSH1 0x1 PUSH1 0xC0 SHL SUB NOT SWAP2 SWAP1 SWAP2 AND DUP2 MSTORE PUSH1 0x8 ADD SWAP1 JUMP JUMPDEST PUSH1 0x0 DUP4 MLOAD PUSH2 0x48D8 DUP2 DUP5 PUSH1 0x20 DUP9 ADD PUSH2 0x553D JUMP JUMPDEST DUP4 MLOAD SWAP1 DUP4 ADD SWAP1 PUSH2 0x48EC DUP2 DUP4 PUSH1 0x20 DUP9 ADD PUSH2 0x553D JUMP JUMPDEST ADD SWAP5 SWAP4 POP POP POP POP JUMP JUMPDEST PUSH1 0x1 PUSH1 0x1 PUSH1 0xA0 SHL SUB SWAP8 DUP9 AND DUP2 MSTORE SWAP6 DUP8 AND PUSH1 0x20 DUP8 ADD MSTORE PUSH1 0x40 DUP7 ADD SWAP5 SWAP1 SWAP5 MSTORE SWAP2 SWAP1 SWAP5 AND PUSH1 0x60 DUP5 ADD MSTORE PUSH1 0x80 DUP4 ADD SWAP4 SWAP1 SWAP4 MSTORE PUSH1 0xA0 DUP3 ADD SWAP3 SWAP1 SWAP3 MSTORE PUSH1 0xC0 DUP2 ADD SWAP2 SWAP1 SWAP2 MSTORE PUSH1 0xE0 ADD SWAP1 JUMP JUMPDEST PUSH1 0x0 PUSH1 0x40 DUP3 MSTORE PUSH2 0x494C PUSH1 0x40 DUP4 ADD DUP6 PUSH2 0x466E JUMP JUMPDEST DUP3 DUP2 SUB PUSH1 0x20 DUP5 ADD MSTORE PUSH2 0x495E DUP2 DUP6 PUSH2 0x46B1 JUMP JUMPDEST SWAP6 SWAP5 POP POP POP POP POP JUMP JUMPDEST PUSH1 0x0 PUSH1 0x20 DUP3 MSTORE PUSH2 0x43B3 PUSH1 0x20 DUP4 ADD DUP5 PUSH2 0x46B1 JUMP JUMPDEST PUSH1 0x0 PUSH2 0x100 DUP1 DUP4 MSTORE PUSH2 0x498E DUP2 DUP5 ADD DUP11 PUSH2 0x46B1 JUMP JUMPDEST SWAP1 POP PUSH1 0x20 DUP4 DUP3 SUB DUP2 DUP6 ADD MSTORE PUSH2 0x49A3 DUP3 DUP11 PUSH2 0x466E JUMP JUMPDEST DUP5 DUP2 SUB PUSH1 0x40 DUP7 ADD MSTORE DUP9 MLOAD DUP1 DUP3 MSTORE DUP3 DUP11 ADD SWAP4 POP SWAP1 DUP3 ADD SWAP1 DUP5 JUMPDEST DUP2 DUP2 LT ISZERO PUSH2 0x49D7 JUMPI DUP5 MLOAD DUP4 MSTORE SWAP4 DUP4 ADD SWAP4 SWAP2 DUP4 ADD SWAP2 PUSH1 0x1 ADD PUSH2 0x49BB JUMP JUMPDEST POP POP DUP5 DUP2 SUB PUSH1 0x60 DUP7 ADD MSTORE PUSH2 0x49EB DUP2 DUP10 PUSH2 0x47CF JUMP JUMPDEST SWAP3 POP POP POP DUP3 DUP2 SUB PUSH1 0x80 DUP5 ADD MSTORE PUSH2 0x4A01 DUP2 DUP7 PUSH2 0x46E0 JUMP JUMPDEST SWAP2 POP POP PUSH2 0x2D0F PUSH1 0xA0 DUP4 ADD DUP5 PUSH2 0x487E JUMP JUMPDEST SWAP1 ISZERO ISZERO DUP2 MSTORE PUSH1 0x20 ADD SWAP1 JUMP JUMPDEST DUP5 ISZERO ISZERO DUP2 MSTORE DUP4 ISZERO ISZERO PUSH1 0x20 DUP3 ADD MSTORE PUSH1 0x1 PUSH1 0x1 PUSH1 0xA0 SHL SUB DUP4 AND PUSH1 0x40 DUP3 ADD MSTORE PUSH1 0x80 PUSH1 0x60 DUP3 ADD DUP2 SWAP1 MSTORE PUSH1 0x0 SWAP1 PUSH2 0x4A50 SWAP1 DUP4 ADD DUP5 PUSH2 0x47CF JUMP JUMPDEST SWAP7 SWAP6 POP POP POP POP POP POP JUMP JUMPDEST SWAP3 ISZERO ISZERO DUP4 MSTORE SWAP1 ISZERO ISZERO PUSH1 0x20 DUP4 ADD MSTORE ISZERO ISZERO PUSH1 0x40 DUP3 ADD MSTORE PUSH1 0x60 ADD SWAP1 JUMP JUMPDEST SWAP1 DUP2 MSTORE PUSH1 0x20 ADD SWAP1 JUMP JUMPDEST SWAP2 DUP3 MSTORE PUSH1 0xFF AND PUSH1 0x20 DUP3 ADD MSTORE PUSH1 0x40 ADD SWAP1 JUMP JUMPDEST PUSH1 0x20 DUP1 DUP3 MSTORE PUSH1 0x2B SWAP1 DUP3 ADD MSTORE PUSH32 0x53746174652073686F756C642062652057616974696E67436F6E6669726D6174 PUSH1 0x40 DUP3 ADD MSTORE PUSH11 0x696F6E446561646C696E65 PUSH1 0xA8 SHL PUSH1 0x60 DUP3 ADD MSTORE PUSH1 0x80 ADD SWAP1 JUMP JUMPDEST PUSH1 0x20 DUP1 DUP3 MSTORE PUSH1 0x29 SWAP1 DUP3 ADD MSTORE PUSH32 0x4F7574707574206973206E6F7420636F6E7461696E656420696E207468652066 PUSH1 0x40 DUP3 ADD MSTORE PUSH9 0xD2DCC2D840D0C2E6D PUSH1 0xBB SHL PUSH1 0x60 DUP3 ADD MSTORE PUSH1 0x80 ADD SWAP1 JUMP JUMPDEST PUSH1 0x20 DUP1 DUP3 MSTORE PUSH1 0x27 SWAP1 DUP3 ADD MSTORE PUSH32 0x496E76616C696420647269766520746F20636C61696D20666F72206469726563 PUSH1 0x40 DUP3 ADD MSTORE PUSH7 0x742076616C7565 PUSH1 0xC8 SHL PUSH1 0x60 DUP3 ADD MSTORE PUSH1 0x80 ADD SWAP1 JUMP JUMPDEST PUSH1 0x20 DUP1 DUP3 MSTORE PUSH1 0x4C SWAP1 DUP3 ADD MSTORE PUSH32 0x4472697665207369626C696E6773206D75737420626520636F6D70617469626C PUSH1 0x40 DUP3 ADD MSTORE PUSH32 0x6520776974682070726576696F757320696E697469616C206861736820666F72 PUSH1 0x60 DUP3 ADD MSTORE PUSH12 0x20656D707479206472697665 PUSH1 0xA0 SHL PUSH1 0x80 DUP3 ADD MSTORE PUSH1 0xA0 ADD SWAP1 JUMP JUMPDEST PUSH1 0x20 DUP1 DUP3 MSTORE PUSH1 0x39 SWAP1 DUP3 ADD MSTORE PUSH32 0x436C61696D6564206472697665206E756D6265722073686F756C64206D617463 PUSH1 0x40 DUP3 ADD MSTORE PUSH25 0x341031B630B4B6B2B21039B4B13634B733B990373AB6B132B9 PUSH1 0x39 SHL PUSH1 0x60 DUP3 ADD MSTORE PUSH1 0x80 ADD SWAP1 JUMP JUMPDEST PUSH1 0x20 DUP1 DUP3 MSTORE PUSH1 0x12 SWAP1 DUP3 ADD MSTORE PUSH18 0x92DCECC2D8D2C840C8E4D2ECCA92DCC8CAF PUSH1 0x73 SHL PUSH1 0x40 DUP3 ADD MSTORE PUSH1 0x60 ADD SWAP1 JUMP JUMPDEST PUSH1 0x20 DUP1 DUP3 MSTORE PUSH1 0x28 SWAP1 DUP3 ADD MSTORE PUSH32 0x6F75747075742064726976652068617320746F206265206174206C6561737420 PUSH1 0x40 DUP3 ADD MSTORE PUSH8 0x1BDB99481DDBDC99 PUSH1 0xC2 SHL PUSH1 0x60 DUP3 ADD MSTORE PUSH1 0x80 ADD SWAP1 JUMP JUMPDEST PUSH1 0x20 DUP1 DUP3 MSTORE PUSH1 0x4C SWAP1 DUP3 ADD MSTORE PUSH32 0x53746174652073686F756C642062652057616974696E67436C61696D2C206F72 PUSH1 0x40 DUP3 ADD MSTORE PUSH32 0x2057616974696E674368616C6C656E6765447269766573207769746820646561 PUSH1 0x60 DUP3 ADD MSTORE PUSH12 0x191B1A5B99481C185CDCD959 PUSH1 0xA2 SHL PUSH1 0x80 DUP3 ADD MSTORE PUSH1 0xA0 ADD SWAP1 JUMP JUMPDEST PUSH1 0x20 DUP1 DUP3 MSTORE PUSH1 0x2F SWAP1 DUP3 ADD MSTORE PUSH32 0x52657065746974696F6E206F6620706172746965732720616464726573736573 PUSH1 0x40 DUP3 ADD MSTORE PUSH15 0x81A5CC81B9BDD08185B1B1BDDD959 PUSH1 0x8A SHL PUSH1 0x60 DUP3 ADD MSTORE PUSH1 0x80 ADD SWAP1 JUMP JUMPDEST PUSH1 0x20 DUP1 DUP3 MSTORE PUSH1 0x21 SWAP1 DUP3 ADD MSTORE PUSH32 0x496E76616C696420647269766520746F20636C61696D20666F72206C6F676765 PUSH1 0x40 DUP3 ADD MSTORE PUSH1 0x39 PUSH1 0xF9 SHL PUSH1 0x60 DUP3 ADD MSTORE PUSH1 0x80 ADD SWAP1 JUMP JUMPDEST PUSH1 0x20 DUP1 DUP3 MSTORE PUSH1 0x23 SWAP1 DUP3 ADD MSTORE PUSH32 0x48617368206973206E6F7420617661696C61626C65206F6E206C6F6767657220 PUSH1 0x40 DUP3 ADD MSTORE PUSH3 0x1E595D PUSH1 0xEA SHL PUSH1 0x60 DUP3 ADD MSTORE PUSH1 0x80 ADD SWAP1 JUMP JUMPDEST PUSH1 0x20 DUP1 DUP3 MSTORE PUSH1 0x2C SWAP1 DUP3 ADD MSTORE PUSH32 0x446561646C696E65206973206E6F74206F76657220666F722074686973207370 PUSH1 0x40 DUP3 ADD MSTORE PUSH12 0x656369666963207374617465 PUSH1 0xA0 SHL PUSH1 0x60 DUP3 ADD MSTORE PUSH1 0x80 ADD SWAP1 JUMP JUMPDEST PUSH1 0x20 DUP1 DUP3 MSTORE PUSH1 0x30 SWAP1 DUP3 ADD MSTORE PUSH32 0x496E707574206279746573206C656E6774682065786365656473207468652063 PUSH1 0x40 DUP3 ADD MSTORE PUSH16 0x6C61696D6564206C6F67322073697A65 PUSH1 0x80 SHL PUSH1 0x60 DUP3 ADD MSTORE PUSH1 0x80 ADD SWAP1 JUMP JUMPDEST PUSH1 0x20 DUP1 DUP3 MSTORE PUSH1 0x26 SWAP1 DUP3 ADD MSTORE PUSH32 0x53746174652073686F756C642062652057616974696E674368616C6C656E6765 PUSH1 0x40 DUP3 ADD MSTORE PUSH6 0x447269766573 PUSH1 0xD0 SHL PUSH1 0x60 DUP3 ADD MSTORE PUSH1 0x80 ADD SWAP1 JUMP JUMPDEST PUSH1 0x20 DUP1 DUP3 MSTORE PUSH1 0x13 SWAP1 DUP3 ADD MSTORE PUSH19 0x92DCECC2D8D2C840C8E4D2ECCA40D2DCC8CAF PUSH1 0x6B SHL PUSH1 0x40 DUP3 ADD MSTORE PUSH1 0x60 ADD SWAP1 JUMP JUMPDEST PUSH1 0x20 DUP1 DUP3 MSTORE PUSH1 0x29 SWAP1 DUP3 ADD MSTORE PUSH32 0x43616E6E6F7420646573747275637420696E7374616E63652061742063757272 PUSH1 0x40 DUP3 ADD MSTORE PUSH9 0x656E74207374617465 PUSH1 0xB8 SHL PUSH1 0x60 DUP3 ADD MSTORE PUSH1 0x80 ADD SWAP1 JUMP JUMPDEST PUSH1 0x20 DUP1 DUP3 MSTORE PUSH1 0x1A SWAP1 DUP3 ADD MSTORE PUSH32 0x43616E6E6F742061626F72742063757272656E74207374617465000000000000 PUSH1 0x40 DUP3 ADD MSTORE PUSH1 0x60 ADD SWAP1 JUMP JUMPDEST PUSH1 0x20 DUP1 DUP3 MSTORE PUSH1 0x12 SWAP1 DUP3 ADD MSTORE PUSH18 0x556E7265636F676E697A6564207374617465 PUSH1 0x70 SHL PUSH1 0x40 DUP3 ADD MSTORE PUSH1 0x60 ADD SWAP1 JUMP JUMPDEST PUSH1 0x20 DUP1 DUP3 MSTORE PUSH1 0x21 SWAP1 DUP3 ADD MSTORE PUSH32 0x546865207374617465206973206E6F742057616974696E6750726F7669646572 PUSH1 0x40 DUP3 ADD MSTORE PUSH1 0x73 PUSH1 0xF8 SHL PUSH1 0x60 DUP3 ADD MSTORE PUSH1 0x80 ADD SWAP1 JUMP JUMPDEST PUSH1 0x20 DUP1 DUP3 MSTORE PUSH1 0x1B SWAP1 DUP3 ADD MSTORE PUSH32 0x4E6F20617661696C61626C652070656E64696E67206472697665730000000000 PUSH1 0x40 DUP3 ADD MSTORE PUSH1 0x60 ADD SWAP1 JUMP JUMPDEST PUSH1 0x20 DUP1 DUP3 MSTORE PUSH1 0x1A SWAP1 DUP3 ADD MSTORE PUSH32 0x5468652073656E646572206973206E6F742070726F7669646572000000000000 PUSH1 0x40 DUP3 ADD MSTORE PUSH1 0x60 ADD SWAP1 JUMP JUMPDEST PUSH1 0x20 DUP1 DUP3 MSTORE PUSH1 0x28 SWAP1 DUP3 ADD MSTORE PUSH32 0x53656E6465722068617320616C7265616479206368616C6C656E676564206F72 PUSH1 0x40 DUP3 ADD MSTORE PUSH8 0x818DB185A5B5959 PUSH1 0xC2 SHL PUSH1 0x60 DUP3 ADD MSTORE PUSH1 0x80 ADD SWAP1 JUMP JUMPDEST PUSH1 0x20 DUP1 DUP3 MSTORE PUSH1 0x1A SWAP1 DUP3 ADD MSTORE PUSH32 0x6E656564734C6F676765722073686F756C642062652074727565000000000000 PUSH1 0x40 DUP3 ADD MSTORE PUSH1 0x60 ADD SWAP1 JUMP JUMPDEST PUSH1 0x20 DUP1 DUP3 MSTORE PUSH1 0x2C SWAP1 DUP3 ADD MSTORE PUSH32 0x726F756E64206475726174696F6E2068617320746F206265206174206C656173 PUSH1 0x40 DUP3 ADD MSTORE PUSH12 0x74203530207365636F6E6473 PUSH1 0xA0 SHL PUSH1 0x60 DUP3 ADD MSTORE PUSH1 0x80 ADD SWAP1 JUMP JUMPDEST PUSH1 0x20 DUP1 DUP3 MSTORE PUSH1 0x33 SWAP1 DUP3 ADD MSTORE PUSH32 0x5374617465206973206E6F742057616974696E674368616C6C656E6765526573 PUSH1 0x40 DUP3 ADD MSTORE PUSH19 0x756C742C2063616E6E6F742077696E42795647 PUSH1 0x68 SHL PUSH1 0x60 DUP3 ADD MSTORE PUSH1 0x80 ADD SWAP1 JUMP JUMPDEST PUSH1 0x20 DUP1 DUP3 MSTORE PUSH1 0x27 SWAP1 DUP3 ADD MSTORE PUSH32 0x64697265637456616C75652068617320746F206265206174206C65617374206F PUSH1 0x40 DUP3 ADD MSTORE PUSH7 0x1B99481DDBDC99 PUSH1 0xCA SHL PUSH1 0x60 DUP3 ADD MSTORE PUSH1 0x80 ADD SWAP1 JUMP JUMPDEST PUSH1 0x20 DUP1 DUP3 MSTORE PUSH1 0x22 SWAP1 DUP3 ADD MSTORE PUSH32 0x54686520647269766520686173682073686F756C646E27742062652066696C6C PUSH1 0x40 DUP3 ADD MSTORE PUSH2 0x1959 PUSH1 0xF2 SHL PUSH1 0x60 DUP3 ADD MSTORE PUSH1 0x80 ADD SWAP1 JUMP JUMPDEST PUSH1 0x20 DUP1 DUP3 MSTORE PUSH1 0x2C SWAP1 DUP3 ADD MSTORE PUSH32 0x4F7574707574206C656E67746820646F65736E2774206D61746368206F757470 PUSH1 0x40 DUP3 ADD MSTORE PUSH12 0x7574206C6F67322073697A65 PUSH1 0xA0 SHL PUSH1 0x60 DUP3 ADD MSTORE PUSH1 0x80 ADD SWAP1 JUMP JUMPDEST PUSH1 0x20 DUP1 DUP3 MSTORE PUSH1 0x27 SWAP1 DUP3 ADD MSTORE PUSH32 0x4F6E6C7920636F6E6365726E65642075736572732063616E206368616C6C656E PUSH1 0x40 DUP3 ADD MSTORE PUSH7 0x67447269766573 PUSH1 0xC8 SHL PUSH1 0x60 DUP3 ADD MSTORE PUSH1 0x80 ADD SWAP1 JUMP JUMPDEST PUSH1 0x20 DUP1 DUP3 MSTORE PUSH1 0x1B SWAP1 DUP3 ADD MSTORE PUSH32 0x7761697450726F76696465722073686F756C6420626520747275650000000000 PUSH1 0x40 DUP3 ADD MSTORE PUSH1 0x60 ADD SWAP1 JUMP JUMPDEST PUSH1 0x20 DUP1 DUP3 MSTORE PUSH1 0x25 SWAP1 DUP3 ADD MSTORE PUSH32 0x64697265637456616C75652063616E6E6F742062652062696767657220746861 PUSH1 0x40 DUP3 ADD MSTORE PUSH5 0x371018B5A1 PUSH1 0xD9 SHL PUSH1 0x60 DUP3 ADD MSTORE PUSH1 0x80 ADD SWAP1 JUMP JUMPDEST PUSH1 0x20 DUP1 DUP3 MSTORE PUSH1 0x18 SWAP1 DUP3 ADD MSTORE PUSH24 0x14DD185D19481BD9881591C81A5CC81B9BDD08199A5B985B PUSH1 0x42 SHL PUSH1 0x40 DUP3 ADD MSTORE PUSH1 0x60 ADD SWAP1 JUMP JUMPDEST PUSH1 0x20 DUP1 DUP3 MSTORE PUSH1 0x1F SWAP1 DUP3 ADD MSTORE PUSH32 0x546865207374617465206973206E6F742057616974696E6752657665616C7300 PUSH1 0x40 DUP3 ADD MSTORE PUSH1 0x60 ADD SWAP1 JUMP JUMPDEST PUSH1 0x20 DUP1 DUP3 MSTORE PUSH1 0x28 SWAP1 DUP3 ADD MSTORE PUSH32 0x5468652073656E646572206973206E6F7420706172747920746F207468697320 PUSH1 0x40 DUP3 ADD MSTORE PUSH8 0x696E7374616E6365 PUSH1 0xC0 SHL PUSH1 0x60 DUP3 ADD MSTORE PUSH1 0x80 ADD SWAP1 JUMP JUMPDEST SWAP2 DUP3 MSTORE PUSH1 0x20 DUP3 ADD MSTORE PUSH1 0x40 ADD SWAP1 JUMP JUMPDEST PUSH1 0x0 DUP4 DUP3 MSTORE PUSH1 0x40 PUSH1 0x20 DUP4 ADD MSTORE DUP3 SLOAD PUSH2 0x53F0 PUSH1 0x40 DUP5 ADD PUSH1 0x1 PUSH1 0x1 PUSH1 0x40 SHL SUB DUP4 AND PUSH2 0x489D JUMP JUMPDEST PUSH2 0x5403 PUSH1 0x60 DUP5 ADD PUSH1 0xFF DUP4 PUSH1 0x40 SHR AND PUSH2 0x48AA JUMP JUMPDEST POP PUSH2 0x100 DUP1 PUSH1 0x80 DUP5 ADD MSTORE PUSH2 0x541E PUSH2 0x140 DUP5 ADD PUSH1 0x1 DUP7 ADD PUSH2 0x47FB JUMP JUMPDEST DUP4 DUP2 SUB PUSH1 0x3F NOT ADD PUSH1 0xA0 DUP6 ADD MSTORE PUSH2 0x5437 DUP2 PUSH1 0x2 DUP8 ADD PUSH2 0x47FB JUMP JUMPDEST PUSH1 0x3 DUP7 ADD SLOAD PUSH1 0xC0 DUP7 ADD MSTORE PUSH1 0x4 DUP7 ADD SLOAD SWAP1 SWAP2 POP PUSH2 0x545F PUSH1 0xE0 DUP7 ADD PUSH1 0x1 PUSH1 0x1 PUSH1 0xA0 SHL SUB DUP4 AND PUSH2 0x4661 JUMP JUMPDEST PUSH2 0x5471 DUP4 DUP7 ADD PUSH1 0xFF DUP4 PUSH1 0xA0 SHR AND PUSH2 0x47C9 JUMP JUMPDEST PUSH2 0x5485 PUSH2 0x120 DUP7 ADD PUSH1 0xFF DUP4 PUSH1 0xA8 SHR AND PUSH2 0x47C9 JUMP JUMPDEST POP SWAP6 SWAP5 POP POP POP POP POP JUMP JUMPDEST SWAP5 DUP6 MSTORE PUSH1 0x20 DUP6 ADD SWAP4 SWAP1 SWAP4 MSTORE PUSH1 0x40 DUP5 ADD SWAP2 SWAP1 SWAP2 MSTORE PUSH1 0x60 DUP4 ADD MSTORE PUSH1 0x80 DUP3 ADD MSTORE PUSH1 0xA0 ADD SWAP1 JUMP JUMPDEST PUSH1 0x0 PUSH1 0x1 PUSH1 0x1 PUSH1 0x40 SHL SUB DUP7 AND DUP3 MSTORE PUSH1 0xFF DUP6 AND PUSH1 0x20 DUP4 ADD MSTORE DUP4 PUSH1 0x40 DUP4 ADD MSTORE PUSH1 0x80 PUSH1 0x60 DUP4 ADD MSTORE PUSH2 0x4A50 PUSH1 0x80 DUP4 ADD DUP5 PUSH2 0x46B1 JUMP JUMPDEST PUSH1 0xFF SWAP2 SWAP1 SWAP2 AND DUP2 MSTORE PUSH1 0x20 ADD SWAP1 JUMP JUMPDEST PUSH1 0x40 MLOAD DUP2 DUP2 ADD PUSH1 0x1 PUSH1 0x1 PUSH1 0x40 SHL SUB DUP2 GT DUP3 DUP3 LT OR ISZERO PUSH2 0x550C JUMPI INVALID JUMPDEST PUSH1 0x40 MSTORE SWAP2 SWAP1 POP JUMP JUMPDEST PUSH1 0x0 PUSH1 0x1 PUSH1 0x1 PUSH1 0x40 SHL SUB DUP3 GT ISZERO PUSH2 0x5527 JUMPI INVALID JUMPDEST POP PUSH1 0x20 SWAP1 DUP2 MUL ADD SWAP1 JUMP JUMPDEST PUSH1 0x0 SWAP1 DUP2 MSTORE PUSH1 0x20 SWAP1 KECCAK256 SWAP1 JUMP JUMPDEST PUSH1 0x0 JUMPDEST DUP4 DUP2 LT ISZERO PUSH2 0x5558 JUMPI DUP2 DUP2 ADD MLOAD DUP4 DUP3 ADD MSTORE PUSH1 0x20 ADD PUSH2 0x5540 JUMP JUMPDEST DUP4 DUP2 GT ISZERO PUSH2 0x2EBB JUMPI POP POP PUSH1 0x0 SWAP2 ADD MSTORE JUMP JUMPDEST DUP1 ISZERO ISZERO DUP2 EQ PUSH2 0x4082 JUMPI PUSH1 0x0 DUP1 REVERT INVALID 0x49 PUSH15 0x646578206E6F7420696E7374616E74 PUSH10 0x61746564000000000000 STOP STOP STOP STOP LOG2 PUSH5 0x6970667358 0x22 SLT KECCAK256 0x5F SWAP5 0xBB PUSH14 0x6A2B144C702DE30B2711066F25F3 SWAP7 0x24 SDIV 0xD8 0xF7 0xCF LT 0x5F 0x2B 0xBF 0xB8 0xC3 0x5E DELEGATECALL PUSH5 0x736F6C6343 STOP SMOD DIV STOP CALLER "
    },
    "gasEstimates": {
      "creation": {
        "codeDepositCost": "4393000",
        "executionCost": "infinite",
        "totalCost": "infinite"
      },
      "external": {
        "abortByDeadline(uint256)": "infinite",
        "challenge(uint256)": "infinite",
        "challengeDrives(uint256)": "infinite",
        "currentIndex()": "1074",
        "deactivate(uint256)": "26260",
        "destruct(uint256)": "infinite",
        "getCurrentState(uint256)": "infinite",
        "getNonce(uint256)": "infinite",
        "getPartyState(uint256,address)": "infinite",
        "getResult(uint256)": "infinite",
        "getState(uint256,address)": "infinite",
        "getSubInstances(uint256,address)": "infinite",
        "instantiate(uint256,bytes32,uint64,uint8,uint256,address[],(uint64,uint8,bytes,bytes,bytes32,address,bool,bool)[])": "infinite",
        "isActive(uint256)": "1256",
        "isConcerned(uint256,address)": "infinite",
        "provideDirectDrive(uint256,bytes)": "infinite",
        "provideLoggerDrive(uint256,bytes32)": "infinite",
        "revealLoggerDrive(uint256)": "infinite",
        "submitClaim(uint256,bytes32,bytes32[][],bytes,bytes32[])": "infinite",
        "winByVG(uint256)": "infinite"
      },
      "internal": {
        "getMaxStateDuration(uint256)": "infinite",
        "getWordHashesFromBytes(bytes memory)": "infinite",
        "getWordHashesFromBytes32(bytes32)": "infinite"
      }
    },
    "methodIdentifiers": {
      "abortByDeadline(uint256)": "4c6fe7bf",
      "challenge(uint256)": "ab82d9a0",
      "challengeDrives(uint256)": "bfda2e72",
      "currentIndex()": "26987b60",
      "deactivate(uint256)": "916b9bef",
      "destruct(uint256)": "c87e3ae9",
      "getCurrentState(uint256)": "5748c130",
      "getNonce(uint256)": "3d46b819",
      "getPartyState(uint256,address)": "ab5da187",
      "getResult(uint256)": "995e4339",
      "getState(uint256,address)": "73df1612",
      "getSubInstances(uint256,address)": "c526656c",
      "instantiate(uint256,bytes32,uint64,uint8,uint256,address[],(uint64,uint8,bytes,bytes,bytes32,address,bool,bool)[])": "c817592d",
      "isActive(uint256)": "82afd23b",
      "isConcerned(uint256,address)": "01ff62ab",
      "provideDirectDrive(uint256,bytes)": "fa0ecc5b",
      "provideLoggerDrive(uint256,bytes32)": "c70683ca",
      "revealLoggerDrive(uint256)": "f9bc3b21",
      "submitClaim(uint256,bytes32,bytes32[][],bytes,bytes32[])": "351e6657",
      "winByVG(uint256)": "ded4df63"
    }
  },
  "storageLayout": {
    "storage": [
      {
        "astId": 445,
        "contract": "cache/solpp-generated-contracts/Descartes.sol:Descartes",
        "label": "currentIndex",
        "offset": 0,
        "slot": "0",
        "type": "t_uint256"
      },
      {
        "astId": 449,
        "contract": "cache/solpp-generated-contracts/Descartes.sol:Descartes",
        "label": "active",
        "offset": 0,
        "slot": "1",
        "type": "t_mapping(t_uint256,t_bool)"
      },
      {
        "astId": 453,
        "contract": "cache/solpp-generated-contracts/Descartes.sol:Descartes",
        "label": "nonce",
        "offset": 0,
        "slot": "2",
        "type": "t_mapping(t_uint256,t_uint256)"
      },
      {
        "astId": 941,
        "contract": "cache/solpp-generated-contracts/Descartes.sol:Descartes",
        "label": "machine",
        "offset": 0,
        "slot": "3",
        "type": "t_address"
      },
      {
        "astId": 943,
        "contract": "cache/solpp-generated-contracts/Descartes.sol:Descartes",
        "label": "li",
        "offset": 0,
        "slot": "4",
        "type": "t_contract(LoggerInterface)350"
      },
      {
        "astId": 945,
        "contract": "cache/solpp-generated-contracts/Descartes.sol:Descartes",
        "label": "vg",
        "offset": 0,
        "slot": "5",
        "type": "t_contract(VGInterface)338"
      },
      {
        "astId": 1003,
        "contract": "cache/solpp-generated-contracts/Descartes.sol:Descartes",
        "label": "instance",
        "offset": 0,
        "slot": "6",
        "type": "t_mapping(t_uint256,t_struct(DescartesCtx)999_storage)"
      }
    ],
    "types": {
      "t_address": {
        "encoding": "inplace",
        "label": "address",
        "numberOfBytes": "20"
      },
      "t_array(t_address)dyn_storage": {
        "base": "t_address",
        "encoding": "dynamic_array",
        "label": "address[]",
        "numberOfBytes": "32"
      },
      "t_array(t_bytes32)dyn_storage": {
        "base": "t_bytes32",
        "encoding": "dynamic_array",
        "label": "bytes32[]",
        "numberOfBytes": "32"
      },
      "t_array(t_struct(Drive)3780_storage)dyn_storage": {
        "base": "t_struct(Drive)3780_storage",
        "encoding": "dynamic_array",
        "label": "struct DescartesInterface.Drive[]",
        "numberOfBytes": "32"
      },
      "t_array(t_uint256)dyn_storage": {
        "base": "t_uint256",
        "encoding": "dynamic_array",
        "label": "uint256[]",
        "numberOfBytes": "32"
      },
      "t_bool": {
        "encoding": "inplace",
        "label": "bool",
        "numberOfBytes": "1"
      },
      "t_bytes32": {
        "encoding": "inplace",
        "label": "bytes32",
        "numberOfBytes": "32"
      },
      "t_bytes_storage": {
        "encoding": "bytes",
        "label": "bytes",
        "numberOfBytes": "32"
      },
      "t_contract(LoggerInterface)350": {
        "encoding": "inplace",
        "label": "contract LoggerInterface",
        "numberOfBytes": "20"
      },
      "t_contract(VGInterface)338": {
        "encoding": "inplace",
        "label": "contract VGInterface",
        "numberOfBytes": "20"
      },
      "t_enum(State)3763": {
        "encoding": "inplace",
        "label": "enum DescartesInterface.State",
        "numberOfBytes": "1"
      },
      "t_mapping(t_address,t_struct(Party)3787_storage)": {
        "encoding": "mapping",
        "key": "t_address",
        "label": "mapping(address => struct DescartesInterface.Party)",
        "numberOfBytes": "32",
        "value": "t_struct(Party)3787_storage"
      },
      "t_mapping(t_uint256,t_bool)": {
        "encoding": "mapping",
        "key": "t_uint256",
        "label": "mapping(uint256 => bool)",
        "numberOfBytes": "32",
        "value": "t_bool"
      },
      "t_mapping(t_uint256,t_struct(DescartesCtx)999_storage)": {
        "encoding": "mapping",
        "key": "t_uint256",
        "label": "mapping(uint256 => struct Descartes.DescartesCtx)",
        "numberOfBytes": "32",
        "value": "t_struct(DescartesCtx)999_storage"
      },
      "t_mapping(t_uint256,t_uint256)": {
        "encoding": "mapping",
        "key": "t_uint256",
        "label": "mapping(uint256 => uint256)",
        "numberOfBytes": "32",
        "value": "t_uint256"
      },
      "t_struct(DescartesCtx)999_storage": {
        "encoding": "inplace",
        "label": "struct Descartes.DescartesCtx",
        "members": [
          {
            "astId": 947,
            "contract": "cache/solpp-generated-contracts/Descartes.sol:Descartes",
            "label": "owner",
            "offset": 0,
            "slot": "0",
            "type": "t_address"
          },
          {
            "astId": 949,
            "contract": "cache/solpp-generated-contracts/Descartes.sol:Descartes",
            "label": "revealDrivesPointer",
            "offset": 0,
            "slot": "1",
            "type": "t_uint256"
          },
          {
            "astId": 951,
            "contract": "cache/solpp-generated-contracts/Descartes.sol:Descartes",
            "label": "providerDrivesPointer",
            "offset": 0,
            "slot": "2",
            "type": "t_uint256"
          },
          {
            "astId": 953,
            "contract": "cache/solpp-generated-contracts/Descartes.sol:Descartes",
            "label": "finalTime",
            "offset": 0,
            "slot": "3",
            "type": "t_uint256"
          },
          {
            "astId": 955,
            "contract": "cache/solpp-generated-contracts/Descartes.sol:Descartes",
            "label": "outputPosition",
            "offset": 0,
            "slot": "4",
            "type": "t_uint64"
          },
          {
            "astId": 957,
            "contract": "cache/solpp-generated-contracts/Descartes.sol:Descartes",
            "label": "outputLog2Size",
            "offset": 8,
            "slot": "4",
            "type": "t_uint8"
          },
          {
            "astId": 959,
            "contract": "cache/solpp-generated-contracts/Descartes.sol:Descartes",
            "label": "roundDuration",
            "offset": 0,
            "slot": "5",
            "type": "t_uint256"
          },
          {
            "astId": 961,
            "contract": "cache/solpp-generated-contracts/Descartes.sol:Descartes",
            "label": "timeOfLastMove",
            "offset": 0,
            "slot": "6",
            "type": "t_uint256"
          },
          {
            "astId": 963,
            "contract": "cache/solpp-generated-contracts/Descartes.sol:Descartes",
            "label": "vgInstance",
            "offset": 0,
            "slot": "7",
            "type": "t_uint256"
          },
          {
            "astId": 965,
            "contract": "cache/solpp-generated-contracts/Descartes.sol:Descartes",
            "label": "templateHash",
            "offset": 0,
            "slot": "8",
            "type": "t_bytes32"
          },
          {
            "astId": 967,
            "contract": "cache/solpp-generated-contracts/Descartes.sol:Descartes",
            "label": "initialHash",
            "offset": 0,
            "slot": "9",
            "type": "t_bytes32"
          },
          {
            "astId": 969,
            "contract": "cache/solpp-generated-contracts/Descartes.sol:Descartes",
            "label": "claimedFinalHash",
            "offset": 0,
            "slot": "10",
            "type": "t_bytes32"
          },
          {
            "astId": 971,
            "contract": "cache/solpp-generated-contracts/Descartes.sol:Descartes",
            "label": "claimedOutput",
            "offset": 0,
            "slot": "11",
            "type": "t_bytes_storage"
          },
          {
            "astId": 973,
            "contract": "cache/solpp-generated-contracts/Descartes.sol:Descartes",
            "label": "claimer",
            "offset": 0,
            "slot": "12",
            "type": "t_address"
          },
          {
            "astId": 975,
            "contract": "cache/solpp-generated-contracts/Descartes.sol:Descartes",
            "label": "currentChallenger",
            "offset": 0,
            "slot": "13",
            "type": "t_address"
          },
          {
            "astId": 978,
            "contract": "cache/solpp-generated-contracts/Descartes.sol:Descartes",
            "label": "partiesArray",
            "offset": 0,
            "slot": "14",
            "type": "t_array(t_address)dyn_storage"
          },
          {
            "astId": 980,
            "contract": "cache/solpp-generated-contracts/Descartes.sol:Descartes",
            "label": "votesCounter",
            "offset": 0,
            "slot": "15",
            "type": "t_uint64"
          },
          {
            "astId": 984,
            "contract": "cache/solpp-generated-contracts/Descartes.sol:Descartes",
            "label": "parties",
            "offset": 0,
            "slot": "16",
            "type": "t_mapping(t_address,t_struct(Party)3787_storage)"
          },
          {
            "astId": 986,
            "contract": "cache/solpp-generated-contracts/Descartes.sol:Descartes",
            "label": "currentState",
            "offset": 0,
            "slot": "17",
            "type": "t_enum(State)3763"
          },
          {
            "astId": 989,
            "contract": "cache/solpp-generated-contracts/Descartes.sol:Descartes",
            "label": "revealDrives",
            "offset": 0,
            "slot": "18",
            "type": "t_array(t_uint256)dyn_storage"
          },
          {
            "astId": 992,
            "contract": "cache/solpp-generated-contracts/Descartes.sol:Descartes",
            "label": "providerDrives",
            "offset": 0,
            "slot": "19",
            "type": "t_array(t_uint256)dyn_storage"
          },
          {
            "astId": 995,
            "contract": "cache/solpp-generated-contracts/Descartes.sol:Descartes",
            "label": "driveHash",
            "offset": 0,
            "slot": "20",
            "type": "t_array(t_bytes32)dyn_storage"
          },
          {
            "astId": 998,
            "contract": "cache/solpp-generated-contracts/Descartes.sol:Descartes",
            "label": "inputDrives",
            "offset": 0,
            "slot": "21",
            "type": "t_array(t_struct(Drive)3780_storage)dyn_storage"
          }
        ],
        "numberOfBytes": "704"
      },
      "t_struct(Drive)3780_storage": {
        "encoding": "inplace",
        "label": "struct DescartesInterface.Drive",
        "members": [
          {
            "astId": 3765,
            "contract": "cache/solpp-generated-contracts/Descartes.sol:Descartes",
            "label": "position",
            "offset": 0,
            "slot": "0",
            "type": "t_uint64"
          },
          {
            "astId": 3767,
            "contract": "cache/solpp-generated-contracts/Descartes.sol:Descartes",
            "label": "driveLog2Size",
            "offset": 8,
            "slot": "0",
            "type": "t_uint8"
          },
          {
            "astId": 3769,
            "contract": "cache/solpp-generated-contracts/Descartes.sol:Descartes",
            "label": "directValue",
            "offset": 0,
            "slot": "1",
            "type": "t_bytes_storage"
          },
          {
            "astId": 3771,
            "contract": "cache/solpp-generated-contracts/Descartes.sol:Descartes",
            "label": "loggerIpfsPath",
            "offset": 0,
            "slot": "2",
            "type": "t_bytes_storage"
          },
          {
            "astId": 3773,
            "contract": "cache/solpp-generated-contracts/Descartes.sol:Descartes",
            "label": "loggerRootHash",
            "offset": 0,
            "slot": "3",
            "type": "t_bytes32"
          },
          {
            "astId": 3775,
            "contract": "cache/solpp-generated-contracts/Descartes.sol:Descartes",
            "label": "provider",
            "offset": 0,
            "slot": "4",
            "type": "t_address"
          },
          {
            "astId": 3777,
            "contract": "cache/solpp-generated-contracts/Descartes.sol:Descartes",
            "label": "waitsProvider",
            "offset": 20,
            "slot": "4",
            "type": "t_bool"
          },
          {
            "astId": 3779,
            "contract": "cache/solpp-generated-contracts/Descartes.sol:Descartes",
            "label": "needsLogger",
            "offset": 21,
            "slot": "4",
            "type": "t_bool"
          }
        ],
        "numberOfBytes": "160"
      },
      "t_struct(Party)3787_storage": {
        "encoding": "inplace",
        "label": "struct DescartesInterface.Party",
        "members": [
          {
            "astId": 3782,
            "contract": "cache/solpp-generated-contracts/Descartes.sol:Descartes",
            "label": "isParty",
            "offset": 0,
            "slot": "0",
            "type": "t_bool"
          },
          {
            "astId": 3784,
            "contract": "cache/solpp-generated-contracts/Descartes.sol:Descartes",
            "label": "hasVoted",
            "offset": 1,
            "slot": "0",
            "type": "t_bool"
          },
          {
            "astId": 3786,
            "contract": "cache/solpp-generated-contracts/Descartes.sol:Descartes",
            "label": "hasCheated",
            "offset": 2,
            "slot": "0",
            "type": "t_bool"
          }
        ],
        "numberOfBytes": "32"
      },
      "t_uint256": {
        "encoding": "inplace",
        "label": "uint256",
        "numberOfBytes": "32"
      },
      "t_uint64": {
        "encoding": "inplace",
        "label": "uint64",
        "numberOfBytes": "8"
      },
      "t_uint8": {
        "encoding": "inplace",
        "label": "uint8",
        "numberOfBytes": "1"
      }
    }
  },
  "userdoc": {
    "kind": "user",
    "methods": {
      "abortByDeadline(uint256)": {
        "notice": "Abort the instance by missing deadline."
      },
      "challenge(uint256)": {
        "notice": "Challenger disputes the claim, starting a verification game."
      },
      "challengeDrives(uint256)": {
        "notice": "User requesting content of all drives to be revealed."
      },
      "destruct(uint256)": {
        "notice": "Deactivate a Descartes SDK instance."
      },
      "getResult(uint256)": {
        "notice": "Get result of a finished instance."
      },
      "getState(uint256,address)": {
        "notice": "Get state of the instance concerning given user."
      },
      "getSubInstances(uint256,address)": {
        "notice": "Get sub-instances of the instance."
      },
      "instantiate(uint256,bytes32,uint64,uint8,uint256,address[],(uint64,uint8,bytes,bytes,bytes32,address,bool,bool)[])": {
        "notice": "Instantiate a Descartes SDK instance."
      },
      "isConcerned(uint256,address)": {
        "notice": "Is the given user concern about this instance."
      },
      "provideDirectDrive(uint256,bytes)": {
        "notice": "Provide the content of a direct drive (only drive provider can call it)."
      },
      "provideLoggerDrive(uint256,bytes32)": {
        "notice": "Provide the root hash of a logger drive (only drive provider can call it)."
      },
      "revealLoggerDrive(uint256)": {
        "notice": "Reveal the content of a logger drive (only drive provider can call it)."
      },
      "submitClaim(uint256,bytes32,bytes32[][],bytes,bytes32[])": {
        "notice": "Claimer claims the machine final hash and also validate the drives and initial hash of the machine."
      },
      "winByVG(uint256)": {
        "notice": "In case one of the parties wins the verification game,         then he or she can call this function to claim victory in         this contract as well."
      }
    },
    "version": 1
  }
}