{
  "abi": [
    {
      "inputs": [],
      "stateMutability": "nonpayable",
      "type": "constructor"
    },
    {
      "inputs": [
        {
          "internalType": "Machine.Hash",
          "name": "_initialHash",
          "type": "bytes32"
        },
        {
          "internalType": "Tree.Node",
          "name": "_contestedCommitmentOne",
          "type": "bytes32"
        },
        {
          "internalType": "Machine.Hash",
          "name": "_contestedFinalStateOne",
          "type": "bytes32"
        },
        {
          "internalType": "Tree.Node",
          "name": "_contestedCommitmentTwo",
          "type": "bytes32"
        },
        {
          "internalType": "Machine.Hash",
          "name": "_contestedFinalStateTwo",
          "type": "bytes32"
        },
        {
          "internalType": "Time.Duration",
          "name": "_allowance",
          "type": "uint64"
        },
        {
          "internalType": "uint256",
          "name": "_startCycle",
          "type": "uint256"
        },
        {
          "internalType": "uint64",
          "name": "_level",
          "type": "uint64"
        },
        {
          "internalType": "contract NonLeafTournament",
          "name": "_parent",
          "type": "address"
        }
      ],
      "name": "instantiate",
      "outputs": [
        {
          "internalType": "contract BottomTournament",
          "name": "",
          "type": "address"
        }
      ],
      "stateMutability": "nonpayable",
      "type": "function"
    }
  ],
  "bytecode": {
    "object": "0x608060405234801561001057600080fd5b506156bd806100206000396000f3fe608060405234801561001057600080fd5b506004361061002b5760003560e01c80635cd8701614610030575b600080fd5b61004361003e36600461011e565b61005f565b6040516001600160a01b03909116815260200160405180910390f35b6000808a8a8a8a8a8a8a8a8a604051610077906100f8565b988952602089019790975260408801959095526060870193909352608086019190915267ffffffffffffffff90811660a086015260c08501919091521660e08301526001600160a01b031661010082015261012001604051809103906000f0801580156100e8573d6000803e3d6000fd5b509b9a5050505050505050505050565b6154d7806101b183390190565b67ffffffffffffffff8116811461011b57600080fd5b50565b60008060008060008060008060006101208a8c03121561013d57600080fd5b8935985060208a0135975060408a0135965060608a0135955060808a0135945060a08a013561016b81610105565b935060c08a0135925060e08a013561018281610105565b91506101008a01356001600160a01b038116811461019f57600080fd5b80915050929598509295985092959856fe6101c06040523480156200001257600080fd5b50604051620054d7380380620054d7833981016040819052620000359162000151565b608089905260a08390526001600160401b03821660c05288888888888888888888848484426001600160401b0390811660e0528316610100819052602d1015620000b75762000091602d425b6001600160401b0316906200011f565b600080546001600160401b0319166001600160401b0392909216919091179055620000e4565b620000c3834262000081565b600080546001600160401b0319166001600160401b03929092169190911790555b505050506001600160a01b0316610120525050506101409390935261016091909152610180526101a052506200022198505050505050505050565b600082826200012f8183620001eb565b95945050505050565b6001600160401b03811681146200014e57600080fd5b50565b60008060008060008060008060006101208a8c0312156200017157600080fd5b8951985060208a0151975060408a0151965060608a0151955060808a0151945060a08a0151620001a18162000138565b60c08b015160e08c01519195509350620001bb8162000138565b6101008b01519092506001600160a01b0381168114620001da57600080fd5b809150509295985092959850929598565b6001600160401b038181168382160190808211156200021a57634e487b7160e01b600052601160045260246000fd5b5092915050565b60805160a05160c05160e05161010051610120516101405161016051610180516101a0516151f4620002e360003960008181610c85015261237001526000610cb4015260008181610c36015261234101526000610c5d015260006125a20152600081816103d20152818161146501526114fb0152600081816103b1015281816114a001526114d901526000818161032e01528181610bae01528181610be001526116fa0152600081816108790152610b810152600061066f01526151f46000f3fe608060405234801561001057600080fd5b50600436106100b45760003560e01c80638acc802d116100715780638acc802d146101d1578063a1af906b146101f2578063bcb0129514610224578063fcc6077d1461022c578063fcc853911461029a578063ff78e0ee146102ad57600080fd5b80631d5bf796146100b95780635017746a146100ce5780636041ddd5146100e157806360f302dc146100f45780636a1a140d146101245780637795820c14610147575b600080fd5b6100cc6100c7366004614d39565b6102c0565b005b6100cc6100dc366004614dae565b610433565b6100cc6100ef366004614e1f565b6106ec565b600054610107906001600160401b031681565b6040516001600160401b0390911681526020015b60405180910390f35b610137610132366004614eb3565b610aed565b604051901515815260200161011b565b6101a5610155366004614ecf565b6040805180820182526000808252602091820181905292835260028152818320600382529282902054825180840190935292546001600160401b038082168452600160401b909104169082015291565b6040805183516001600160401b039081168252602094850151169381019390935282015260600161011b565b6101e46101df366004614ecf565b610b6d565b60405190815260200161011b565b6101fa610bac565b604080516001600160401b039485168152928416602084015292169181019190915260600161011b565b6101e4610c0b565b61023f61023a366004614ecf565b610cda565b60405161011b9190600060c0820190508251825260208301516020830152604083015160408301526060830151606083015260808301516001600160401b0380821660808501528060a08601511660a0850152505092915050565b6100cc6102a8366004614ee8565b610d71565b6100cc6102bb366004614f2b565b610ffa565b6102c861145f565b1561031a5760405162461bcd60e51b815260206004820152601b60248201527f746f75726e616d656e7420636865636b2d696e20656c6170736564000000000060448201526064015b60405180910390fd5b6000610326838361151f565b9050610355817f000000000000000000000000000000000000000000000000000000000000000088888861154e565b61035e86611576565b60008181526003602090815260408083208990556002825291829020825180840190935280546001600160401b038082168552600160401b9091041691830191909152906103ab906115e4565b6103f6817f00000000000000000000000000000000000000000000000000000000000000007f0000000000000000000000000000000000000000000000000000000000000000611630565b6040805180820190915281546001600160401b038082168352600160401b90910416602082015261042a90839086866116d9565b50505050505050565b61043b6118ae565b156104585760405162461bcd60e51b815260040161031190614f5f565b600060048161047461046f368b90038b018b614f8f565b6118d2565b81526020808201929092526040908101600020815160c081018352815481526001820154938101939093526002810154918301919091526003810154606083015260048101546001600160401b038082166080850152600160401b9091041660a083015291506104e390611914565b6040805160c08101825282548152600183015460208201526002830154918101919091526003820154606082015260048201546001600160401b038082166080840152600160401b9091041660a082015261053d90611959565b6040805160c08101825282548152600183015460208201526002830154918101919091526003820154606082015260048201546001600160401b038082166080840152600160401b9091041660a08201526105999087876119c1565b6040805160c08101825282548152600183015460208201526002830154918101919091526003820154606082015260048201546001600160401b038082166080840152600160401b9091041660a082015260009081906105f990896119d3565b6106115761060783896119ec565b9092509050610621565b61061b8388611ac8565b90925090505b88356000908152600260209081526040808320918c0135835290912061064682611bb4565b61064f82611bd0565b61065881611bb4565b61066181611bd0565b84600301546000036106d5577f000000000000000000000000000000000000000000000000000000000000000088146106d55760405162461bcd60e51b81526020600482015260166024820152751a5b9a5d1a585b081a185cda081a5b98dbdc9c9958dd60521b6044820152606401610311565b6106df8589611c90565b5050505050505050505050565b6106f46118ae565b156107115760405162461bcd60e51b815260040161031190614f5f565b600060048161072861046f368a90038a018a614f8f565b81526020808201929092526040908101600020815160c081018352815481526001820154938101939093526002810154918301919091526003810154606083015260048101546001600160401b038082166080850152600160401b9091041660a0830152915061079790611914565b6040805160c08101825282548152600183015460208201526002830154918101919091526003820154606082015260048201546001600160401b038082166080840152600160401b9091041660a08201526107f190611caf565b85356000908152600260209081526040808320828a0135845292819020815180830190925283546001600160401b038082168452600160401b909104169282019290925261083e90611d02565b6040805180820190915281546001600160401b038082168352600160401b90910416602082015261086e90611d02565b600080808061089d877f0000000000000000000000000000000000000000000000000000000000000000611d58565b935093509350935060006108e885858c8c8080601f016020809104026020016040519081016040528093929190818152602001838380828437600092019190915250611f3392505050565b90506108fd8d356108f98e8e61151f565b1490565b15610996578281146109515760405162461bcd60e51b815260206004820152601d60248201527f66696e616c207374617465206f6e6520646f65736e2774206d617463680000006044820152606401610311565b61095c876000611f40565b6040805180820190915287546001600160401b038082168352600160401b909104166020820152610991908e35908e8e6116d9565b610a8a565b6109a860208e01356108f98e8e61151f565b15610a42578181146109fc5760405162461bcd60e51b815260206004820152601d60248201527f66696e616c2073746174652074776f20646f65736e2774206d617463680000006044820152606401610311565b610a07866000611f40565b6040805180820190915286546001600160401b038082168352600160401b9091041660208281019190915261099191908f0135908e8e6116d9565b60405162461bcd60e51b815260206004820152601f60248201527f77726f6e67206c6566742f7269676874206e6f64657320666f722073746570006044820152606401610311565b60046000610aa28f80360381019061046f9190614f8f565b8152602081019190915260400160009081208181556001810182905560028101829055600381019190915560040180546001600160801b031916905550505050505050505050505050565b803560009081526002602081815260408084208151808301835290546001600160401b038082168352600160401b9182900481168386015284880135875294845282862083518085019094525480861684520490931691810191909152610b5382612025565b1580610b655750610b6381612025565b155b949350505050565b600080610b7983610cda565b9050610ba5817f0000000000000000000000000000000000000000000000000000000000000000612067565b9392505050565b7f0000000000000000000000000000000000000000000000000000000000000000600080610bd983612084565b9150610c047f00000000000000000000000000000000000000000000000000000000000000006120d3565b9050909192565b600080610c16612116565b905080610c2557506000919050565b6000818152600360205260409020547f00000000000000000000000000000000000000000000000000000000000000008103610c83577f00000000000000000000000000000000000000000000000000000000000000009250505090565b7f00000000000000000000000000000000000000000000000000000000000000008114610cb257610cb2614feb565b7f00000000000000000000000000000000000000000000000000000000000000009250505090565b6040805160c081018252600080825260208201819052918101829052606081018290526080810182905260a081019190915250600090815260046020818152604092839020835160c08101855281548152600182015492810192909252600281015493820193909352600383015460608201529101546001600160401b038082166080840152600160401b9091041660a082015290565b610d796118ae565b15610d965760405162461bcd60e51b815260040161031190614f5f565b6000600481610dad61046f368a90038a018a614f8f565b81526020808201929092526040908101600020815160c081018352815481526001820154938101939093526002810154918301919091526003810154606083015260048101546001600160401b038082166080850152600160401b9091041660a08301529150610e1c90611914565b6040805160c08101825282548152600183015460208201526002830154918101919091526003820154606082015260048201546001600160401b038082166080840152600160401b9091041660a0820152610e7690612146565b6040805160c08101825282548152600183015460208201526002830154918101919091526003820154606082015260048201546001600160401b038082166080840152600160401b9091041660a0820152610ed29086866119c1565b6040805160c08101825282548152600183015460208201526002830154918101919091526003820154606082015260048201546001600160401b038082166080840152600160401b9091041660a0820152610f2d90866119d3565b610f4c57610f3c8584846121a3565b610f478184846121fa565b610f62565b610f578484846121a3565b610f62818484612270565b85356000908152600260205260409020610f7b90611bd0565b610f9a6002600088602001358152602001908152602001600020611bd0565b610fac61046f36889003880188614f8f565b815460018301546040517f29ff393c59c37f91e930fad4d88447efc58cf5d7c048499e1f20edb36994137892610fea92908252602082015260400190565b60405180910390a2505050505050565b6110026118ae565b1561101f5760405162461bcd60e51b815260040161031190614f5f565b6110a06004600061103861046f36889003880188614f8f565b81526020808201929092526040908101600020815160c0810183528154815260018201549381019390935260028101549183019190915260038101546060830152600401546001600160401b038082166080840152600160401b9091041660a0820152611914565b8235600090815260026020908152604080832082870135845292819020815180830190925283546001600160401b038082168452600160401b90910416928201929092526110ed90611d02565b6040805180820190915281546001600160401b038082168352600160401b90910416602082015261111d90611d02565b6040805180820190915282546001600160401b038082168352600160401b90910416602082015261114d90612025565b801561118657506040805180820190915281546001600160401b038082168352600160401b90910416602082015261118490612025565b155b1561127057611197853585856122ed565b6111fb5760405162461bcd60e51b815260206004820152602f60248201527f6368696c64206e6f64657320646f206e6f74206d6174636820706172656e742060448201526e28636f6d6d69746d656e744f6e652960881b6064820152608401610311565b6040805180820190915281546001600160401b038082168352600160401b9091041660208201526112369061122f90612301565b8390611f40565b6040805180820190915282546001600160401b038082168352600160401b90910416602082015261126b9086359086866116d9565b611406565b6040805180820190915282546001600160401b038082168352600160401b9091041660208201526112a090612025565b1580156112d857506040805180820190915281546001600160401b038082168352600160401b9091041660208201526112d890612025565b156113c6576112ec602086013585856122ed565b6113505760405162461bcd60e51b815260206004820152602f60248201527f6368696c64206e6f64657320646f206e6f74206d6174636820706172656e742060448201526e28636f6d6d69746d656e7454776f2960881b6064820152608401610311565b6040805180820190915282546001600160401b038082168352600160401b90910416602082015261138b9061138490612301565b8290611f40565b6040805180820190915281546001600160401b038082168352600160401b9091041660208281019190915261126b91908701359086866116d9565b60405162461bcd60e51b815260206004820152601560248201527418d85b9b9bdd081dda5b88189e481d1a5b595bdd5d605a1b6044820152606401610311565b6004600061141c61046f36899003890189614f8f565b8152602081019190915260400160009081208181556001810182905560028101829055600381019190915560040180546001600160801b03191690555050505050565b6000602d7f00000000000000000000000000000000000000000000000000000000000000006001600160401b031611156114cc576114c76001600160401b037f000000000000000000000000000000000000000000000000000000000000000016602d612327565b905090565b6114c76001600160401b037f0000000000000000000000000000000000000000000000000000000000000000167f0000000000000000000000000000000000000000000000000000000000000000612327565b604080516020808201859052818301849052825180830384018152606090920190925280519101205b92915050565b61156f61155a856120d3565b869060016001600160401b039182161b168585855b5050505050565b61157f8161233d565b6115e15760405162461bcd60e51b815260206004820152602d60248201527f746f75726e616d656e7420646f65736e2774206861766520636f6e746573746560448201526c642066696e616c20737461746560981b6064820152608401610311565b50565b6115ed816123a5565b6115e15760405162461bcd60e51b815260206004820152601460248201527318db1bd8dac81a5cc81a5b9a5d1a585b1a5e995960621b6044820152606401610311565b60006116586116486001600160401b034216856123b9565b6001600160401b038416906123d0565b90506001600160401b0381166116ba5760405162461bcd60e51b815260206004820152602160248201527f63616e27742063726561746520636c6f636b2077697468207a65726f2074696d6044820152606560f81b6064820152608401610311565b83546001600160801b0319166001600160401b03909116179092555050565b6000806116e4612401565b9150915081156118815760008061171e838988887f0000000000000000000000000000000000000000000000000000000000000000612416565b6000828152600460208181526040808420855181558583015160018201558582015160028083019190915560608701516003830155608087015191909401805460a08801516001600160401b039384166001600160801b031990921691909117600160401b9184168202179091558a865293835281852082518084019093528054808316845294909404169181019190915293955091935090916117c2908a6124da565b6040805180820190915283546001600160401b038082168352600160401b9091041660208201529091506000906117f9908b61250d565b905061180482612537565b5061182061181b6001600160401b03841683612576565b612584565b61182983611bd0565b6118336000600155565b61183c82612584565b8a867f32911001007d8c9879b608566be8acc2184592f0a43706f804f285455bb0f52e8b60405161186f91815260200190565b60405180910390a350505050506118a6565b845160005461189d9161181b916001600160401b031690612576565b6118a686600155565b505050505050565b600080546114c7906001600160401b0316425b6001600160401b0391821691161190565b6000816040516020016118f79190815181526020918201519181019190915260400190565b604051602081830303815290604052805190602001209050919050565b80516115e15760405162461bcd60e51b81526020600482015260146024820152731b585d18da08191bd95cc81b9bdd08195e1a5cdd60621b6044820152606401610311565b60808101516001600160401b03166001146115e15760405162461bcd60e51b815260206004820152602260248201527f6d61746368206973206e6f7420726561647920746f2062652066696e616c697a604482015261195960f21b6064820152608401610311565b82516119ce9083836121a3565b505050565b6000610ba58360200151836108f990919063ffffffff16565b600482015460009081906001600160401b0316600114611a0e57611a0e614feb565b600280850184905560048501805467ffffffffffffffff1916908190556040805160c08101825287548152600188015460208201529081018690526003870154606082015260006080820152600160401b9091046001600160401b031660a0820152611a7990612602565b611a839190615017565b6001600160401b0316600003611aac5760018401549150611aa5846002015490565b9050611ac1565b60028401549150611abe846001015490565b90505b9250929050565b600482015460009081906001600160401b0316600114611aea57611aea614feb565b6001808501849055600385018054600090611b06908490615053565b909155505060048401805467ffffffffffffffff1916908190556040805160c0810182528654815260018701546020820152600280880154928201929092526003870154606082015260006080820152600160401b9092046001600160401b031660a083015290611b7690612602565b611b809190615017565b6001600160401b0316600003611ba25760028401549150611aa5846001015490565b60018401549150611abe846002015490565b8054600160401b90046001600160401b0316156115e1576115e1815b6040805180820190915281546001600160401b038082168352600160401b909104166020820152600090611c0390612611565b90506001600160401b038116611c695760405162461bcd60e51b815260206004820152602560248201527f63616e277420616476616e636520636c6f636b2077697468206e6f2074696d65604482015264081b19599d60da1b6064820152608401610311565b611c7282612648565b815467ffffffffffffffff19166001600160401b0391909116179055565b60048201546001600160401b031615611cab57611cab614feb565b9055565b60808101516001600160401b0316156115e15760405162461bcd60e51b81526020600482015260156024820152741b585d18da081a5cc81b9bdd08199a5b9a5cda1959605a1b6044820152606401610311565b611d0b816123a5565b156115e15760405162461bcd60e51b815260206004820152601860248201527f636c6f636b206973206e6f7420696e697469616c697a656400000000000000006044820152606401610311565b60048201546000908190819081906001600160401b031615611d7c57611d7c614feb565b85546040805160c081018252828152600189015460208201526002890154918101919091526003880154606082015260048801546001600160401b038082166080840152600160401b9091041660a0820152909450611ddb9086612067565b925060028660030154611dee9190615066565b600003611e96576040805160c0810182528754815260018801546020820152600288810154928201929092526003880154606082015260048801546001600160401b038082166080840152600160401b9091041660a0820152611e5090612602565b611e5a9190615017565b6001600160401b0316600003611e835760018601549150611e7c866002015490565b9050611f2a565b60028601545b9150611e7c866001015490565b6040805160c0810182528754815260018801546020820152600288810154928201929092526003880154606082015260048801546001600160401b038082166080840152600160401b9091041660a0820152611ef190612602565b611efb9190615017565b6001600160401b0316600003611f15576002860154611e89565b60018601549150611f27866002015490565b90505b92959194509250565b6000610b65848484612697565b8154600090611f58906001600160401b0316836123d0565b90506001600160401b038116611fbc5760405162461bcd60e51b815260206004820152602360248201527f63616e277420726573657420636c6f636b2077697468206e6f2074696d65206c60448201526219599d60ea1b6064820152608401610311565b6000611fd26001600160401b038316602d612576565b9050611ff4611fe2602d8061507a565b6001600160401b039081169083161190565b156116ba57612004602d8061507a565b905083546001600160801b0319166001600160401b03909116179092555050565b60208101516000906001600160401b031661204257506001919050565b611548612054425b84602001516123b9565b83516001600160401b0391821691161190565b6000806120778460a00151612084565b9050610b65848483612729565b6040805160808101825260188152600e602082015260079181019190915260006060820181905290806001600160401b038416600481106120c7576120c76150a1565b60200201519392505050565b6040805160808101825260278152600a602082015260079181018290526060810191909152600090806001600160401b038416600481106120c7576120c76150a1565b60006121206118ae565b61212a5750600090565b600080612135612401565b915091508161154857611548614feb565b60808101516001600160401b03166001036115e15760405162461bcd60e51b815260206004820152601e60248201527f6d6174636820697320726561647920746f2062652066696e616c697a656400006044820152606401610311565b6121ae8383836122ed565b6119ce5760405162461bcd60e51b815260206004820152601e60248201527f6368696c64206e6f64657320646f6e2774206d6174636820706172656e7400006044820152606401610311565b600483015460016001600160401b039091161161221957612219614feb565b6001830180548455829055600283018190556004830180546001600160401b0316906000612246836150b7565b91906101000a8154816001600160401b0302191690836001600160401b0316021790555050505050565b600483015460016001600160401b039091161161228f5761228f614feb565b600283018054845560018085018490559082905560048401546003850180546001600160401b039092169290921b91906000906122cd908490615053565b90915550506004830180546001600160401b0316906000612246836150b7565b6000610b656122fc848461151f565b851490565b8051600090611548906123184285602001516123b9565b6001600160401b0316906123d0565b6000610ba56001600160401b038416834261275d565b60007f0000000000000000000000000000000000000000000000000000000000000000820361236e57506001919050565b7f0000000000000000000000000000000000000000000000000000000000000000820361239d57506001919050565b506000919050565b80516000906001600160401b031615611548565b600082826123c781836150da565b95945050505050565b600082826001600160401b03808216908316106123f6576123f181836150da565b6123c7565b506000949350505050565b600154600090801561241257600191505b9091565b6040805160c081018252600080825260208201819052918101829052606081018290526080810182905260a081018290526124528686866122ed565b61245e5761245e614feb565b6000604051806040016040528089815260200188815250905060006040518060c001604052808a8152602001888152602001878152602001600081526020016124a6876120d3565b6001600160401b03168152602001866001600160401b031681525090506124cc826118d2565b999098509650505050505050565b8051825160009182916124f8916001600160401b0390911690612576565b9050610b656001600160401b03421682612576565b805182516000916001600160401b039081169116111561252f57508151611548565b508051611548565b600080546001600160401b03908116908316111561239d57506000805467ffffffffffffffff19166001600160401b0392909216919091179055600190565b600082826123c7818361507a565b604051630f224aa760e21b81526001600160401b03821660048201527f00000000000000000000000000000000000000000000000000000000000000006001600160a01b031690633c892a9c90602401600060405180830381600087803b1580156125ee57600080fd5b505af115801561156f573d6000803e3d6000fd5b60006115488260a001516120d3565b60208101516000906001600160401b031661262b57505190565b6115486126374261204a565b83516001600160401b0316906123d0565b8054600160401b90046001600160401b031661268357805467ffffffffffffffff60401b1916600160401b6001600160401b03421602179055565b805467ffffffffffffffff60401b19169055565b6040805180820182528481528151808301909252828252600060208381018290528201929092526001600160401b0367fffffffffffffffe19858216016127165760405162461bcd60e51b8152602060048201526013602482015272149154d1550815539253541311535153951151606a1b6044820152606401610311565b61271f82612776565b5050519050610ba5565b606083015160009060016001600160401b0384161b9061274982826150fa565b6127539086615053565b9695505050505050565b6000610b63826118c16001600160401b03871686612576565b60008061278283612871565b905067fffffffffffffffe196001600160401b038216016127a65750600292915050565b6127af83612881565b156127bd5750600392915050565b60006127c88461289f565b905060018116156127dd575060049392505050565b60028116156127f0575060059392505050565b60006127fb856128ac565b9050600061280986836128b9565b9050612816868284612940565b61282184600161507a565b935061282d8685612eb2565b6128368661289f565b92506001831615158061284b57506002831615155b156128655761285986612ec5565b50600195945050505050565b50600095945050505050565b60006115486103205b8390612ed3565b600061288e61032861287a565b6001600160401b0316151592915050565b60006115486102e861287a565b600061154861033061287a565b6000600382161561290c5760405162461bcd60e51b815260206004820152601d60248201527f6d6973616c69676e6564207265616455696e74333220616464726573730000006044820152606401610311565b600719821660006038600385901b165b9050600061292a8684612f85565b90506001600160401b038116603f83161c612753565b61707f8216601303612957576119ce838383612fe2565b61707f82166130030361296f576119ce838383613048565b61707f821661606303612987576119ce8383836130bc565b61707f821660630361299e576119ce83838361312c565b61707f8216617013036129b6576119ce838383613196565b6129c48260336000806131f5565b156129d4576119ce838383613237565b607f8216606f036129ea576119ce838383613295565b6129f9826013600160006132d4565b15612a09576119ce8383836132fd565b612a18826033600760006131f5565b15612a28576119ce838383613354565b61707f821661302303612a40576119ce8383836133ad565b607f8216603703612a56576119ce838383613404565b61707f8216606703612a6d576119ce83838361344f565b61707f8216601b03612a84576119ce8383836134b2565b612a93826013600560006132d4565b15612aa3576119ce838383613514565b612ab282601b600560006131f5565b15612ac2576119ce83838361356b565b61707f821661106303612ada576119ce8383836135c9565b61707f821661200303612af2576119ce838383613633565b607f8216601703612b08576119ce83838361367d565b61707f821661706303612b20576119ce8383836136be565b612b2e82603b6000806131f5565b15612b3e576119ce838383613728565b612b4d826013600560106132d4565b15612b5d576119ce83838361379c565b612b6c826033600660006131f5565b15612b7c576119ce8383836137ee565b612b8b82601b600560206131f5565b15612b9b576119ce838383613847565b61707f821661506303612bb3576119ce8383836138a1565b612bc2826033600060206131f5565b15612bd2576119ce8383836138ff565b61707f821661400303612bea576119ce838383613958565b612bf982601b600160006131f5565b15612c09576119ce8383836139bb565b612c18826033600560006131f5565b15612c28576119ce838383613a12565b612c37826033600460006131f5565b15612c47576119ce838383613a77565b61707f821661202303612c5f576119ce838383613ad0565b612c6e826033600160006131f5565b15612c7e576119ce838383613b27565b61707f821661406303612c96576119ce838383613b8c565b61707f8216602303612cad576119ce838383613beb565b612cbc82603b600060206131f5565b15612ccc576119ce838383613c42565b61707f821661401303612ce4576119ce838383613c9e565b612cf3826033600560206131f5565b15612d03576119ce838383613cf2565b61707f821661500303612d1b576119ce838383613d52565b61707f821661102303612d33576119ce838383613db6565b612d4282603b600560006131f5565b15612d52576119ce838383613e0d565b61707f821661600303612d6a576119ce838383613e8e565b612d7982603b600160006131f5565b15612d89576119ce838383613eef565b61707f8216600303612da0576119ce838383613f45565b612daf826033600360006131f5565b15612dbf576119ce838383613fa4565b612dce82603b600560206131f5565b15612dde576119ce838383614028565b61707f821661100303612df6576119ce83838361407f565b61707f821661601303612e0e576119ce8383836140de565b61707f821661301303612e26576119ce838383614132565b612e35826033600260006131f5565b15612e45576119ce8383836141b0565b61707f821661201303612e5d576119ce83838361421a565b61707f8216600f03612e74576119ce838383614272565b60405162461bcd60e51b815260206004820152601360248201527234b63632b3b0b61034b739ba393ab1ba34b7b760691b6044820152606401610311565b612ec16103205b83908361427c565b5050565b6115e181610328600161427c565b600080612ee384602001516142c4565b6040516001600160c01b0319821660208201529091506000906028016040516020818303038152906040528051906020012090506000612f2b86612f26876142ee565b6142fa565b9050808214612f7c5760405162461bcd60e51b815260206004820152601860248201527f526561642076616c756520646f65736e2774206d6174636800000000000000006044820152606401610311565b61275383614313565b60006007821615612fd85760405162461bcd60e51b815260206004820152601d60248201527f6d6973616c69676e6564207265616455696e74363420616464726573730000006044820152606401610311565b610ba58383614327565b6000612fed8361433c565b90506000612ffa8461434b565b9050600061300785614368565b905060ff82161561303e57600061301e878361437f565b9050600061302e828660030b0190565b905061303b8885836143a0565b50505b6118a686856143c6565b60006130538361433c565b905060006130608461434b565b9050600061306d85614368565b9050600061307b878361437f565b905060006130928861308d84886143d4565b612f85565b905060ff8416156130a8576130a88885836143a0565b6130b288876143c6565b5050505050505050565b60006130c7836143eb565b905060006130d484614368565b905060006130e18561448f565b905060006130ef878461437f565b905060006130fd888461437f565b9050806001600160401b0316826001600160401b031610156130a8576130b28861312788886143d4565b6144a5565b6000613137836143eb565b9050600061314484614368565b905060006131518561448f565b9050600061315f878461437f565b9050600061316d888461437f565b9050806001600160401b0316826001600160401b0316036130a8576130b28861312788886143d4565b60006131a18361433c565b905060006131ae8461434b565b905060006131bb85614368565b905060ff82161561303e5760006131d2878361437f565b90506131ea87846131e38760030b90565b84166143a0565b506118a686856143c6565b600063fe00707f84650ffffffff000600c86901b166701fffffffe000000601986901b165b171763ffffffff1681871663ffffffff1614915050949350505050565b60006132428361434b565b9050600061324f84614368565b9050600061325c8561448f565b905060ff83161561303e576000613273878461437f565b90506000613281888461437f565b905061303b88868484016143a0565b6143a0565b60006132a0836144af565b905060006132ad8461434b565b905060ff8116156132c6576132c68582600486016143a0565b61156f8561312785856143d4565b600063fc00707f84650ffffffff000600c86901b166703fffffffc000000601a86901b1661321a565b600061330883614507565b905060006133158461434b565b9050600061332285614368565b905060ff82161561303e576000613339878361437f565b90506131ea87846001600160401b038416603f88161b6143a0565b600061335f8361434b565b9050600061336c84614368565b905060006133798561448f565b905060ff83161561303e576000613390878461437f565b9050600061339e888461437f565b905061303b88868385166143a0565b60006133b88361451d565b905060006133c584614368565b905060006133d28561448f565b905060006133e0878461437f565b905060006133ee888461437f565b90506130a8886133fe84886143d4565b8361454c565b600061340f8361434b565b9050600061342b846000611548620fffff600c84901c166143fa565b905060ff8216156134455761344585836132908460030b90565b61156f85846143c6565b600061345a8361433c565b905060006134678461434b565b9050600061347485614368565b90506000613482878361437f565b905060ff83161561349b5761349b8784600488016143a0565b61042a876001196134ac84886143d4565b166144a5565b60006134bd8361433c565b905060006134ca8461434b565b905060006134d785614368565b905060006134eb6134e8888461437f565b90565b905060ff83161561350a578084016135088885600384900b6143a0565b505b61042a87866143c6565b600061351f83614507565b9050600061352c8461434b565b9050600061353985614368565b905060ff82161561303e576000613550878361437f565b90506131ea87846001600160401b038416603f88161c6143a0565b60006135768361448f565b905060006135838461434b565b9050600061359085614368565b9050600061359e878361437f565b9050600063ffffffff8216601f86161c5b905060ff8416156130a8576130a888856132908460030b90565b60006135d4836143eb565b905060006135e184614368565b905060006135ee8561448f565b905060006135fc878461437f565b9050600061360a888461437f565b9050806001600160401b0316826001600160401b0316146130a8576130b28861312788886143d4565b600061363e8361433c565b9050600061364b8461434b565b9050600061365885614368565b90506000613666878361437f565b905060006135af8861367884886143d4565b6128b9565b6000613697836000611548620fffff600c84901c166143fa565b905060006136a48461434b565b905060ff81161561344557613445858261329086866143d4565b60006136c9836143eb565b905060006136d684614368565b905060006136e38561448f565b905060006136f1878461437f565b905060006136ff888461437f565b9050806001600160401b0316826001600160401b0316106130a8576130b28861312788886143d4565b60006137338361434b565b9050600061374084614368565b9050600061374d8561448f565b9050600061375e6134e8888561437f565b9050600061376f6134e8898561437f565b905060ff8516156130a85760008183015b905061379189876132908460030b90565b506130b288876143c6565b60006137a783614507565b905060006137b48461434b565b905060006137c185614368565b905060ff82161561303e5760006137d8878361437f565b90506131ea8784600784900b603f88161d6143a0565b60006137f98361434b565b9050600061380684614368565b905060006138138561448f565b905060ff83161561303e57600061382a878461437f565b90506000613838888461437f565b905061303b88868385176143a0565b60006138528361448f565b9050600061385f8461434b565b9050600061386c85614368565b9050600061387d6134e8888461437f565b905060ff83161561350a5761350a8784613290600385900b601f89161d5b60030b90565b60006138ac836143eb565b905060006138b984614368565b905060006138c68561448f565b905060006138d4878461437f565b905060006138e2888461437f565b90508060070b8260070b126130a8576130b28861312788886143d4565b600061390a8361434b565b9050600061391784614368565b905060006139248561448f565b905060ff83161561303e57600061393b878461437f565b90506000613949888461437f565b905061303b88868385036143a0565b60006139638361433c565b905060006139708461434b565b9050600061397d85614368565b9050600061398b878361437f565b905060006139a28861399d84886143d4565b6145a8565b905060ff8416156130a8576130a888858360ff166143a0565b60006139c68361448f565b905060006139d38461434b565b905060006139e085614368565b905060006139ee878361437f565b905060ff83161561350a5761350a878461329063ffffffff8516601f89161b61389b565b6000613a1d8361434b565b90506000613a2a84614368565b90506000613a378561448f565b905060ff83161561303e576000613a4e878461437f565b90506000613a5c888461437f565b905061303b88866001600160401b038516603f85161c6143a0565b6000613a828361434b565b90506000613a8f84614368565b90506000613a9c8561448f565b905060ff83161561303e576000613ab3878461437f565b90506000613ac1888461437f565b905061303b88868385186143a0565b6000613adb8361451d565b90506000613ae884614368565b90506000613af58561448f565b90506000613b03878461437f565b90506000613b11888461437f565b90506130a888613b2184886143d4565b836145bd565b6000613b328361434b565b90506000613b3f84614368565b90506000613b4c8561448f565b905060ff83161561303e576000613b63878461437f565b90506000613b71888461437f565b905061303b88866001600160401b038516603f85161b6143a0565b6000613b97836143eb565b90506000613ba484614368565b90506000613bb18561448f565b90506000613bbf878461437f565b90506000613bcd888461437f565b90508060070b8260070b12156130a8576130b28861312788886143d4565b6000613bf68361451d565b90506000613c0384614368565b90506000613c108561448f565b90506000613c1e878461437f565b90506000613c2c888461437f565b90506130a888613c3c84886143d4565b83614645565b6000613c4d8361434b565b90506000613c5a84614368565b90506000613c678561448f565b90506000613c786134e8888561437f565b90506000613c896134e8898561437f565b905060ff8516156130a8576000818303613780565b6000613ca98361433c565b90506000613cb68461434b565b90506000613cc385614368565b905060ff82161561303e576000613cda878361437f565b90506131ea8784613ceb8760030b90565b84186143a0565b6000613cfd8361434b565b90506000613d0a84614368565b90506000613d178561448f565b905060ff83161561303e576000613d2e878461437f565b90506000613d3c888461437f565b905061303b8886600785900b603f85161d6143a0565b6000613d5d8361433c565b90506000613d6a8461434b565b90506000613d7785614368565b90506000613d85878361437f565b90506000613d9c88613d9784886143d4565b614672565b905060ff8416156130a8576130a888858361ffff166143a0565b6000613dc18361451d565b90506000613dce84614368565b90506000613ddb8561448f565b90506000613de9878461437f565b90506000613df7888461437f565b90506130a888613e0784886143d4565b836146c5565b6000613e188361434b565b90506000613e2584614368565b90506000613e328561448f565b90506000613e40878461437f565b90506000613e4e888461437f565b9050600063ffffffff8316601f83161c5b905060ff861615613e7957613e7989876132908460030b90565b613e8389886143c6565b505050505050505050565b6000613e998361433c565b90506000613ea68461434b565b90506000613eb385614368565b90506000613ec1878361437f565b90506000613ed38861367884886143d4565b905060ff8416156130a8576130a888858363ffffffff166143a0565b6000613efa8361434b565b90506000613f0784614368565b90506000613f148561448f565b90506000613f22878461437f565b90506000613f30888461437f565b9050600063ffffffff8316601f83161b613e5f565b6000613f508361433c565b90506000613f5d8461434b565b90506000613f6a85614368565b90506000613f78878361437f565b90506000613f8a8861399d84886143d4565b905060ff8416156130a8576130a888856132908460000b90565b6000613faf8361434b565b90506000613fbc84614368565b90506000613fc98561448f565b905060ff83161561303e576000613fe0878461437f565b90506000613fee888461437f565b90506000816001600160401b0316836001600160401b03161015614010575060015b61401b8987836143a0565b5050506118a686856143c6565b60006140338361434b565b9050600061404084614368565b9050600061404d8561448f565b9050600061405e6134e8888561437f565b9050600061406c888461437f565b90506000600383900b601f83161d613e5f565b600061408a8361433c565b905060006140978461434b565b905060006140a485614368565b905060006140b2878361437f565b905060006140c488613d9784886143d4565b905060ff8416156130a8576130a888856132908460010b90565b60006140e98361433c565b905060006140f68461434b565b9050600061410385614368565b905060ff82161561303e57600061411a878361437f565b90506131ea878461412b8760030b90565b84176143a0565b600061413d8361433c565b9050600061414a8461434b565b9050600061415785614368565b905060ff82161561303e57600061416e878361437f565b905061417a8460030b90565b6001600160401b0316816001600160401b031610156141a45761419f878460016143a0565b6131ea565b6131ea878460006143a0565b60006141bb8361434b565b905060006141c884614368565b905060006141d58561448f565b905060ff83161561303e5760006141ec878461437f565b905060006141fa888461437f565b905060008160070b8360070b12156140105750600161401b8987836143a0565b60006142258361433c565b905060006142328461434b565b9050600061423f85614368565b905060ff82161561303e576000614256878361437f565b90508360030b8160070b12156141a45761419f878460016143a0565b6119ce83826143c6565b6119ce83614289846142ee565b61429284614744565b6040516001600160c01b0319909116602082015260280160405160208183030381529060405280519060200120614752565b6000806142d08361476b565b90506008836020018181516142e59190615053565b90525092915050565b6000611548828261477f565b60008061430783826147e5565b9050610b658482614830565b600061431e826148b1565b60c01c92915050565b6000610ba5836001600160401b038416612ed3565b6000600382900b60141d611548565b6000611548660ffffffff00000601484901b165b601b1c601f1690565b6000611548650ffffffff000600c84901b1661435f565b600061034060f8600384901b1601610b65846001600160401b038316612ed3565b61034060f8600384901b16016143c0846001600160401b0383168461427c565b50505050565b600481016119ce8382614928565b6000806143e18360030b90565b9093019392505050565b600080614408600384900b601f1d5b600c1b650ffffffff0001690565b905060006144356144286401fffffffe600187901b165b601a1c603f1690565b60051b641fffffffe01690565b90506000614452600f600887901c165b60011b6401fffffffe1690565b9050600061448261447466ffffffff000000601889901b165b601f1c60011690565b600b1b6507fffffff8001690565b9290931717179392505050565b6000611548647fffffff80600784901b1661435f565b612ec18282614928565b6000600382900b601f1d60141b660ffffffff0000016816144d7601585901c6103ff16614445565b905060006144f36144746507fffffff800600b88901b1661446b565b9050600061448260ff600c88901c166143fa565b6000611548643fffffffc0600684901b1661441f565b6000614535660ffffffff00000601484901b1661435f565b614545600384900b60191d614428565b1792915050565b600782161561459d5760405162461bcd60e51b815260206004820152601e60248201527f6d6973616c69676e656420777269746555696e743634206164647265737300006044820152606401610311565b6119ce838383614933565b60006007198216816038600385901b1661291c565b600382161561460e5760405162461bcd60e51b815260206004820152601e60248201527f6d6973616c69676e656420777269746555696e743332206164647265737300006044820152606401610311565b6007198216600383901b60381660006146278684612f85565b905060006146388560208486614947565b905061042a87858361454c565b6007198216600383901b603816600061465e8684612f85565b905060006146388560ff1660088486614947565b6000600182161561290c5760405162461bcd60e51b815260206004820152601d60248201527f6d6973616c69676e6564207265616455696e74313620616464726573730000006044820152606401610311565b60018216156147165760405162461bcd60e51b815260206004820152601e60248201527f6d6973616c69676e656420777269746555696e743136206164647265737300006044820152606401610311565b6007198216600383901b603816600061472f8684612f85565b905060006146388561ffff1660108486614947565b60006115488260c01b6148b1565b600061475e83826147e5565b90506143c08482846149f5565b600061154882805160209182015101015190565b6000600160ff83161b83600781161561479a5761479a614feb565b671fffffffffffffff600386901c16806147b56001856150da565b166001600160401b03166000146147ce576147ce614feb565b60006147da8483615111565b979650505050505050565b604080518082019091526000808252602082015261480c6001600160401b03841683614a8b565b50604080518082019091526001600160401b0392909216825260ff16602082015290565b6000806148408460200151614ad2565b6020850151909150600090614856908584614afc565b855190915081146148a95760405162461bcd60e51b815260206004820152601e60248201527f5265616420726567696f6e20726f6f7420646f65736e2774206d6174636800006044820152606401610311565b509392505050565b603881811b6001600160f81b031916602883811b60ff60f01b1691909117601884811b60ff60e81b1691909117600885811b60ff60e01b169190911760ff60d81b9186901c919091161760ff60d01b9185901c919091161760ff60c81b9184901c919091161760ff60c01b9290911c919091161790565b612ec1610330612eb9565b6119ce836001600160401b0384168361427c565b600060406149558584615137565b63ffffffff1611156149b45760405162461bcd60e51b815260206004820152602260248201527f636f70794269747320636f756e742065786365656473206c696d6974206f66206044820152610d8d60f21b6064820152608401610311565b60006149c76001603f871681901b6150da565b90506001600160401b038116603f84161b19905083811663ffffffff8716603f85161b179695505050505050565b6000614a048460200151614ad2565b6020850151909150600090614a1a908584614b39565b5085519091508114614a6e5760405162461bcd60e51b815260206004820152601f60248201527f577269746520726567696f6e20726f6f7420646f65736e2774206d61746368006044820152606401610311565b6020850151600090614a81908686614afc565b9095525050505050565b6000600160ff83161b9050614aa960016720000000000000006150da565b6001600160401b0316614abc8285615154565b6001600160401b0316106119ce576119ce614feb565b600080614ae783805160209182015101015190565b90506020836020018181516142e59190615053565b60008080614b0b868686614b39565b602088018051929450909250611fe0600584901b1691614b2c908390615053565b9052509095945050505050565b6000806000614b4c856020015160ff1690565b9050603d60ff82161115614bb05760405162461bcd60e51b815260206004820152602560248201527f43616e6e6f7420626520626967676572207468616e20746865207472656520696044820152643a39b2b63360d91b6064820152608401610311565b84516000614bbf83603d61517f565b905060005b8160ff16816001600160401b03161015614cc957600060405180604001604052808b6000015181526020016005846001600160401b0316901b6001600160401b03168c60200151614c159190615053565b90529050614c306001600160401b038581169084161c614cd8565b15614c775787614c4882805160209182015101015190565b604080516020810193909352820152606001604051602081830303815290604052805190602001209750614cb6565b614c8981805160209182015101015190565b60408051602081019290925281018990526060016040516020818303038152906040528051906020012097505b5080614cc181615198565b915050614bc4565b50949794965093945050505050565b6000614ce5600283615017565b6001600160401b03161592915050565b60008083601f840112614d0757600080fd5b5081356001600160401b03811115614d1e57600080fd5b6020830191508360208260051b8501011115611ac157600080fd5b600080600080600060808688031215614d5157600080fd5b8535945060208601356001600160401b03811115614d6e57600080fd5b614d7a88828901614cf5565b9699909850959660408101359660609091013595509350505050565b600060408284031215614da857600080fd5b50919050565b60008060008060008060c08789031215614dc757600080fd5b614dd18888614d96565b955060408701359450606087013593506080870135925060a08701356001600160401b03811115614e0157600080fd5b614e0d89828a01614cf5565b979a9699509497509295939492505050565b600080600080600060a08688031215614e3757600080fd5b614e418787614d96565b9450604086013593506060860135925060808601356001600160401b0380821115614e6b57600080fd5b818801915088601f830112614e7f57600080fd5b813581811115614e8e57600080fd5b896020828501011115614ea057600080fd5b9699959850939650602001949392505050565b600060408284031215614ec557600080fd5b610ba58383614d96565b600060208284031215614ee157600080fd5b5035919050565b600080600080600060c08688031215614f0057600080fd5b614f0a8787614d96565b97604087013597506060870135966080810135965060a00135945092505050565b600080600060808486031215614f4057600080fd5b614f4a8585614d96565b95604085013595506060909401359392505050565b6020808252601690820152751d1bdd5c9b985b595b9d081a5cc8199a5b9a5cda195960521b604082015260600190565b600060408284031215614fa157600080fd5b604051604081018181106001600160401b0382111715614fd157634e487b7160e01b600052604160045260246000fd5b604052823581526020928301359281019290925250919050565b634e487b7160e01b600052600160045260246000fd5b634e487b7160e01b600052601260045260246000fd5b60006001600160401b038084168061503157615031615001565b92169190910692915050565b634e487b7160e01b600052601160045260246000fd5b808201808211156115485761154861503d565b60008261507557615075615001565b500690565b6001600160401b0381811683821601908082111561509a5761509a61503d565b5092915050565b634e487b7160e01b600052603260045260246000fd5b60006001600160401b038216806150d0576150d061503d565b6000190192915050565b6001600160401b0382811682821603908082111561509a5761509a61503d565b80820281158282048414176115485761154861503d565b60006001600160401b038084168061512b5761512b615001565b92169190910492915050565b63ffffffff81811683821601908082111561509a5761509a61503d565b6001600160401b038181168382160280821691908281146151775761517761503d565b505092915050565b60ff82811682821603908111156115485761154861503d565b60006001600160401b038083168181036151b4576151b461503d565b600101939250505056fea2646970667358221220f60e05106a03ee452e488bbddfdc6c55ea5648b0e5d6df2d4cf8656d854e394664736f6c63430008140033a2646970667358221220932ab37bbefe431877ecef48d2ccb7ff8046b90763df7c021c2cc90d205bad4d64736f6c63430008140033",
    "linkReferences": {}
  },
  "methodIdentifiers": {
    "instantiate(bytes32,bytes32,bytes32,bytes32,bytes32,uint64,uint256,uint64,address)": "5cd87016"
  },
  "id": 40
}