{
  "abi": [
    {
      "inputs": [],
      "stateMutability": "nonpayable",
      "type": "constructor"
    },
    {
      "inputs": [
        {
          "internalType": "Machine.Hash",
          "name": "_initialHash",
          "type": "bytes32"
        },
        {
          "internalType": "Tree.Node",
          "name": "_contestedCommitmentOne",
          "type": "bytes32"
        },
        {
          "internalType": "Machine.Hash",
          "name": "_contestedFinalStateOne",
          "type": "bytes32"
        },
        {
          "internalType": "Tree.Node",
          "name": "_contestedCommitmentTwo",
          "type": "bytes32"
        },
        {
          "internalType": "Machine.Hash",
          "name": "_contestedFinalStateTwo",
          "type": "bytes32"
        },
        {
          "internalType": "Time.Duration",
          "name": "_allowance",
          "type": "uint64"
        },
        {
          "internalType": "uint256",
          "name": "_startCycle",
          "type": "uint256"
        },
        {
          "internalType": "uint64",
          "name": "_level",
          "type": "uint64"
        },
        {
          "internalType": "contract NonLeafTournament",
          "name": "_parent",
          "type": "address"
        }
      ],
      "name": "instantiate",
      "outputs": [
        {
          "internalType": "contract MiddleTournament",
          "name": "",
          "type": "address"
        }
      ],
      "stateMutability": "nonpayable",
      "type": "function"
    }
  ],
  "bytecode": {
    "object": "0x608060405234801561001057600080fd5b50613218806100206000396000f3fe608060405234801561001057600080fd5b506004361061002b5760003560e01c80635cd8701614610030575b600080fd5b61004361003e366004610128565b61005f565b6040516001600160a01b03909116815260200160405180910390f35b6000808a8a8a8a8a8a8a8a8a3360405161007890610102565b998a5260208a019890985260408901969096526060880194909452608087019290925267ffffffffffffffff90811660a087015260c08601919091521660e08401526001600160a01b039081166101008401521661012082015261014001604051809103906000f0801580156100f2573d6000803e3d6000fd5b509b9a5050505050505050505050565b613028806101bb83390190565b67ffffffffffffffff8116811461012557600080fd5b50565b60008060008060008060008060006101208a8c03121561014757600080fd5b8935985060208a0135975060408a0135965060608a0135955060808a0135945060a08a01356101758161010f565b935060c08a0135925060e08a013561018c8161010f565b91506101008a01356001600160a01b03811681146101a957600080fd5b80915050929598509295985092959856fe6101e06040523480156200001257600080fd5b506040516200302838038062003028833981016040819052620000359162000170565b60808a905260a08490526001600160401b03831660c0528989898989898989898989858585426001600160401b0390811660e0528316610100819052602d1015620000b85762000092602d425b6001600160401b03169062000128565b600080546001600160401b0319166001600160401b0392909216919091179055620000e5565b620000c4834262000082565b600080546001600160401b0319166001600160401b03929092169190911790555b5050506001600160a01b039182166101205250166101405250505061016093909352610180919091526101a0526101c052506200024c9950505050505050505050565b6000828262000138818362000216565b95945050505050565b6001600160401b03811681146200015757600080fd5b50565b6001600160a01b03811681146200015757600080fd5b6000806000806000806000806000806101408b8d0312156200019157600080fd5b8a51995060208b0151985060408b0151975060608b0151965060808b0151955060a08b0151620001c18162000141565b60c08c015160e08d01519196509450620001db8162000141565b6101008c0151909350620001ef816200015a565b6101208c015190925062000203816200015a565b809150509295989b9194979a5092959850565b6001600160401b038181168382160190808211156200024557634e487b7160e01b600052601160045260246000fd5b5092915050565b60805160a05160c05160e05161010051610120516101405161016051610180516101a0516101c051612d016200032760003960008181610dec01526125ce01526000610e1b015260008181610d9d015261259f01526000610dc401526000611aac015260008181611e710152611f15015260008181610400015281816115c5015261165b0152600081816103df01528181611600015261163901526000818161035c01528181610877015281816109eb01528181610a1d015261184e0152600081816107b301526109be015260006107190152612d016000f3fe608060405234801561001057600080fd5b50600436106100cf5760003560e01c80638acc802d1161008c578063bcb0129511610066578063bcb0129514610252578063fcc6077d1461025a578063fcc85391146102c8578063ff78e0ee146102db57600080fd5b80638acc802d146101ec578063a1af906b1461020d578063b401865c1461023f57600080fd5b80631d5bf796146100d45780633c892a9c146100e95780633f36e2fe146100fc57806360f302dc1461010f5780636a1a140d1461013f5780637795820c14610162575b600080fd5b6100e76100e236600461287c565b6102ee565b005b6100e76100f73660046128ee565b610461565b6100e761010a366004612923565b6104f9565b600054610122906001600160401b031681565b6040516001600160401b0390911681526020015b60405180910390f35b61015261014d366004612994565b61092a565b6040519015158152602001610136565b6101c06101703660046129b0565b6040805180820182526000808252602091820181905292835260028152818320600382529282902054825180840190935292546001600160401b038082168452600160401b909104169082015291565b6040805183516001600160401b0390811682526020948501511693810193909352820152606001610136565b6101ff6101fa3660046129b0565b6109aa565b604051908152602001610136565b6102156109e9565b604080516001600160401b0394851681529284166020840152921691810191909152606001610136565b6100e761024d3660046129de565b610a48565b6101ff610d72565b61026d6102683660046129b0565b610e41565b6040516101369190600060c0820190508251825260208301516020830152604083015160408301526060830151606083015260808301516001600160401b0380821660808501528060a08601511660a0850152505092915050565b6100e76102d6366004612a13565b610ed8565b6100e76102e9366004612a56565b611161565b6102f66115bf565b156103485760405162461bcd60e51b815260206004820152601b60248201527f746f75726e616d656e7420636865636b2d696e20656c6170736564000000000060448201526064015b60405180910390fd5b6000610354838361167f565b9050610383817f00000000000000000000000000000000000000000000000000000000000000008888886116ae565b61038c866116d6565b60008181526003602090815260408083208990556002825291829020825180840190935280546001600160401b038082168552600160401b9091041691830191909152906103d990611741565b610424817f00000000000000000000000000000000000000000000000000000000000000007f000000000000000000000000000000000000000000000000000000000000000061178d565b6040805180820190915281546001600160401b038082168352600160401b909104166020820152610458908390868661182d565b50505050505050565b33600090815260056020908152604080832054808452600480845293829020825160c08101845281548152600182015494810194909452600281015492840192909252600382015460608401529201546001600160401b038082166080840152600160401b9091041660a08201526104d890611a02565b60006104e383611a47565b905080156104f4576104f483611a8e565b505050565b610501611b0c565b1561051e5760405162461bcd60e51b815260040161033f90612a8a565b600060048161053a610535368b90038b018b612aba565b611b30565b81526020808201929092526040908101600020815160c081018352815481526001820154938101939093526002810154918301919091526003810154606083015260048101546001600160401b038082166080850152600160401b9091041660a083015291506105a990611b72565b6040805160c08101825282548152600183015460208201526002830154918101919091526003820154606082015260048201546001600160401b038082166080840152600160401b9091041660a0820152610605908787611bda565b6040805160c08101825282548152600183015460208201526002830154918101919091526003820154606082015260048201546001600160401b038082166080840152600160401b9091041660a082015260009081906106659089611be7565b61067d576106738389611c00565b909250905061068d565b6106878388611cdc565b90925090505b88356000908152600260209081526040808320918c0135835282206106b182611dc8565b6106ba81611dc8565b60408051808201825283546001600160401b038082168352600160401b91829004811660208085019190915284518086019095528554808316865292909204169083015261070791611de8565b925050508360030154600003610784577f0000000000000000000000000000000000000000000000000000000000000000871461077f5760405162461bcd60e51b81526020600482015260166024820152751a5b9a5d1a585b081a185cda081a5b98dbdc9c9958dd60521b604482015260640161033f565b61079b565b61079b600185600301546107989190612b2c565b50565b60006108a2888c60000135868e6020013587876108727f00000000000000000000000000000000000000000000000000000000000000008d6040518060c0016040529081600082015481526020016001820154815260200160028201548152602001600382015481526020016004820160009054906101000a90046001600160401b03166001600160401b03166001600160401b031681526020016004820160089054906101000a90046001600160401b03166001600160401b03166001600160401b031681525050611e1690919063ffffffff16565b61089d7f00000000000000000000000000000000000000000000000000000000000000006001612b3f565b611e33565b90506108b6610535368d90038d018d612aba565b6001600160a01b0382166000908152600560205260409020556108e1610535368d90038d018d612aba565b6040516001600160a01b03831681527f166b786700a644dcec96aa84a92c26ecfee11b50956409c8cc83616042290d799060200160405180910390a25050505050505050505050565b803560009081526002602081815260408084208151808301835290546001600160401b038082168352600160401b918290048116838601528488013587529484528286208351808501909452548086168452049093169181019190915261099082611fab565b15806109a257506109a081611fab565b155b949350505050565b6000806109b683610e41565b90506109e2817f0000000000000000000000000000000000000000000000000000000000000000611e16565b9392505050565b7f0000000000000000000000000000000000000000000000000000000000000000600080610a1683611fed565b9150610a417f000000000000000000000000000000000000000000000000000000000000000061203c565b9050909192565b610a50611b0c565b15610a6d5760405162461bcd60e51b815260040161033f90612a8a565b6001600160a01b038316600090815260056020526040902054610a8f8161207f565b600081815260046020818152604092839020835160c0810185528154815260018201549281019290925260028101549382019390935260038301546060820152908201546001600160401b038082166080840152600160401b9091041660a0820152610afa90611a02565b6040805160c08101825282548152600183015460208201526002830154918101919091526003820154606082015260048201546001600160401b038082166080840152600160401b9091041660a0820152610b54906120c2565b6000856001600160a01b031663bcb012956040518163ffffffff1660e01b8152600401602060405180830381865afa158015610b94573d6000803e3d6000fd5b505050506040513d601f19601f82011682018060405250810190610bb89190612b66565b9050610bc381612115565b6000610bcf868661167f565b9050818114610c205760405162461bcd60e51b815260206004820152601e60248201527f746f75726e616d656e742077696e6e657220697320646966666572656e740000604482015260640161033f565b600081815260026020908152604091829020825180840190935280546001600160401b038082168552600160401b909104169183019190915290610c6390612162565b610ce3610cdc896001600160a01b03166360f302dc6040518163ffffffff1660e01b8152600401602060405180830381865afa158015610ca7573d6000803e3d6000fd5b505050506040513d601f19601f82011682018060405250810190610ccb9190612b7f565b425b6001600160401b0316906121b8565b82906121cf565b6040805180820190915281546001600160401b038082168352600160401b909104166020820152610d17908390898961182d565b50505060009182525060046020818152604080842084815560018101859055600281018590556003810185905590920180546001600160801b03191690556001600160a01b0390951682526005909452928320929092555050565b600080610d7d6122b4565b905080610d8c57506000919050565b6000818152600360205260409020547f00000000000000000000000000000000000000000000000000000000000000008103610dea577f00000000000000000000000000000000000000000000000000000000000000009250505090565b7f00000000000000000000000000000000000000000000000000000000000000008114610e1957610e19612b9c565b7f00000000000000000000000000000000000000000000000000000000000000009250505090565b6040805160c081018252600080825260208201819052918101829052606081018290526080810182905260a081019190915250600090815260046020818152604092839020835160c08101855281548152600182015492810192909252600281015493820193909352600383015460608201529101546001600160401b038082166080840152600160401b9091041660a082015290565b610ee0611b0c565b15610efd5760405162461bcd60e51b815260040161033f90612a8a565b6000600481610f14610535368a90038a018a612aba565b81526020808201929092526040908101600020815160c081018352815481526001820154938101939093526002810154918301919091526003810154606083015260048101546001600160401b038082166080850152600160401b9091041660a08301529150610f8390611a02565b6040805160c08101825282548152600183015460208201526002830154918101919091526003820154606082015260048201546001600160401b038082166080840152600160401b9091041660a0820152610fdd906122e4565b6040805160c08101825282548152600183015460208201526002830154918101919091526003820154606082015260048201546001600160401b038082166080840152600160401b9091041660a0820152611039908686611bda565b6040805160c08101825282548152600183015460208201526002830154918101919091526003820154606082015260048201546001600160401b038082166080840152600160401b9091041660a08201526110949086611be7565b6110b3576110a3858484612341565b6110ae818484612398565b6110c9565b6110be848484612341565b6110c981848461240e565b853560009081526002602052604090206110e29061248b565b611101600260008860200135815260200190815260200160002061248b565b61111361053536889003880188612aba565b815460018301546040517f29ff393c59c37f91e930fad4d88447efc58cf5d7c048499e1f20edb3699413789261115192908252602082015260400190565b60405180910390a2505050505050565b611169611b0c565b156111865760405162461bcd60e51b815260040161033f90612a8a565b6112076004600061119f61053536889003880188612aba565b81526020808201929092526040908101600020815160c0810183528154815260018201549381019390935260028101549183019190915260038101546060830152600401546001600160401b038082166080840152600160401b9091041660a0820152611a02565b8235600090815260026020908152604080832082870135845292819020815180830190925283546001600160401b038082168452600160401b909104169282019290925261125490612162565b6040805180820190915281546001600160401b038082168352600160401b90910416602082015261128490612162565b6040805180820190915282546001600160401b038082168352600160401b9091041660208201526112b490611fab565b80156112ed57506040805180820190915281546001600160401b038082168352600160401b9091041660208201526112eb90611fab565b155b156113d7576112fe8535858561254b565b6113625760405162461bcd60e51b815260206004820152602f60248201527f6368696c64206e6f64657320646f206e6f74206d6174636820706172656e742060448201526e28636f6d6d69746d656e744f6e652960881b606482015260840161033f565b6040805180820190915281546001600160401b038082168352600160401b90910416602082015261139d906113969061255f565b83906121cf565b6040805180820190915282546001600160401b038082168352600160401b9091041660208201526113d290863590868661182d565b611566565b6040805180820190915282546001600160401b038082168352600160401b90910416602082015261140790611fab565b15801561143f57506040805180820190915281546001600160401b038082168352600160401b90910416602082015261143f90611fab565b15611526576114536020860135858561254b565b6114b75760405162461bcd60e51b815260206004820152602f60248201527f6368696c64206e6f64657320646f206e6f74206d6174636820706172656e742060448201526e28636f6d6d69746d656e7454776f2960881b606482015260840161033f565b6040805180820190915282546001600160401b038082168352600160401b9091041660208201526114eb90610cdc9061255f565b6040805180820190915281546001600160401b038082168352600160401b909104166020828101919091526113d2919087013590868661182d565b60405162461bcd60e51b815260206004820152601560248201527418d85b9b9bdd081dda5b88189e481d1a5b595bdd5d605a1b604482015260640161033f565b6004600061157c61053536899003890189612aba565b8152602081019190915260400160009081208181556001810182905560028101829055600381019190915560040180546001600160801b03191690555050505050565b6000602d7f00000000000000000000000000000000000000000000000000000000000000006001600160401b0316111561162c576116276001600160401b037f000000000000000000000000000000000000000000000000000000000000000016602d612585565b905090565b6116276001600160401b037f0000000000000000000000000000000000000000000000000000000000000000167f0000000000000000000000000000000000000000000000000000000000000000612585565b604080516020808201859052818301849052825180830384018152606090920190925280519101205b92915050565b6116cf6116ba8561203c565b869060016001600160401b039182161b168585855b5050505050565b6116df8161259b565b6107985760405162461bcd60e51b815260206004820152602d60248201527f746f75726e616d656e7420646f65736e2774206861766520636f6e746573746560448201526c642066696e616c20737461746560981b606482015260840161033f565b61174a816125fb565b6107985760405162461bcd60e51b815260206004820152601460248201527318db1bd8dac81a5cc81a5b9a5d1a585b1a5e995960621b604482015260640161033f565b60006117ac61179c8442610ccd565b6001600160401b0384169061260f565b90506001600160401b03811661180e5760405162461bcd60e51b815260206004820152602160248201527f63616e27742063726561746520636c6f636b2077697468207a65726f2074696d6044820152606560f81b606482015260840161033f565b83546001600160801b0319166001600160401b03909116179092555050565b600080611838612640565b9150915081156119d557600080611872838988887f0000000000000000000000000000000000000000000000000000000000000000612655565b6000828152600460208181526040808420855181558583015160018201558582015160028083019190915560608701516003830155608087015191909401805460a08801516001600160401b039384166001600160801b031990921691909117600160401b9184168202179091558a86529383528185208251808401909352805480831684529490940416918101919091529395509193509091611916908a612719565b6040805180820190915283546001600160401b038082168352600160401b90910416602082015290915060009061194d908b611de8565b905061195882611a47565b5061197461196f6001600160401b03841683612748565b611a8e565b61197d8361248b565b6119876000600155565b61199082611a8e565b8a867f32911001007d8c9879b608566be8acc2184592f0a43706f804f285455bb0f52e8b6040516119c391815260200190565b60405180910390a350505050506119fa565b84516000546119f19161196f916001600160401b031690612748565b6119fa86600155565b505050505050565b80516107985760405162461bcd60e51b81526020600482015260146024820152731b585d18da08191bd95cc81b9bdd08195e1a5cdd60621b604482015260640161033f565b600080546001600160401b039081169083161115611a8657506000805467ffffffffffffffff19166001600160401b0392909216919091179055600190565b506000919050565b604051630f224aa760e21b81526001600160401b03821660048201527f00000000000000000000000000000000000000000000000000000000000000006001600160a01b031690633c892a9c90602401600060405180830381600087803b158015611af857600080fd5b505af11580156116cf573d6000803e3d6000fd5b60008054611627906001600160401b0316425b6001600160401b0391821691161190565b600081604051602001611b559190815181526020918201519181019190915260400190565b604051602081830303815290604052805190602001209050919050565b60808101516001600160401b03166001146107985760405162461bcd60e51b815260206004820152602260248201527f6d61746368206973206e6f7420726561647920746f2062652066696e616c697a604482015261195960f21b606482015260840161033f565b82516104f4908383612341565b60006109e2836020015183611e1290919063ffffffff16565b600482015460009081906001600160401b0316600114611c2257611c22612b9c565b600280850184905560048501805467ffffffffffffffff1916908190556040805160c08101825287548152600188015460208201529081018690526003870154606082015260006080820152600160401b9091046001600160401b031660a0820152611c8d90612756565b611c979190612bb2565b6001600160401b0316600003611cc05760018401549150611cb9846002015490565b9050611cd5565b60028401549150611cd2846001015490565b90505b9250929050565b600482015460009081906001600160401b0316600114611cfe57611cfe612b9c565b6001808501849055600385018054600090611d1a908490612be6565b909155505060048401805467ffffffffffffffff1916908190556040805160c0810182528654815260018701546020820152600280880154928201929092526003870154606082015260006080820152600160401b9092046001600160401b031660a083015290611d8a90612756565b611d949190612bb2565b6001600160401b0316600003611db65760028401549150611cb9846001015490565b60018401549150611cd2846002015490565b8054600160401b90046001600160401b031615610798576107988161248b565b805182516000916001600160401b0390811691161115611e0a575081516116a8565b5080516116a8565b1490565b600080611e268460a00151611fed565b90506109a2848483612765565b600080611e4260016004612bf9565b6001600160401b0316836001600160401b031603611efe5760405163b96efa6b60e01b81526001600160a01b037f0000000000000000000000000000000000000000000000000000000000000000169063b96efa6b90611eb4908d908d908d908d908d908d908d908d90600401612c19565b6020604051808303816000875af1158015611ed3573d6000803e3d6000fd5b505050506040513d601f19601f82011682018060405250810190611ef79190612c5e565b9050611f9e565b60405163141012df60e21b81526001600160a01b037f000000000000000000000000000000000000000000000000000000000000000016906350404b7c90611f58908d908d908d908d908d908d908d908d90600401612c19565b6020604051808303816000875af1158015611f77573d6000803e3d6000fd5b505050506040513d601f19601f82011682018060405250810190611f9b9190612c5e565b90505b9998505050505050505050565b60208101516000906001600160401b0316611fc857506001919050565b6116a8611fda425b84602001516121b8565b83516001600160401b0391821691161190565b6040805160808101825260188152600e602082015260079181019190915260006060820181905290806001600160401b0384166004811061203057612030612c7b565b60200201519392505050565b6040805160808101825260278152600a602082015260079181018290526060810191909152600090806001600160401b0384166004811061203057612030612c7b565b806107985760405162461bcd60e51b81526020600482015260136024820152721b585d18da08191bd95cdb89dd08195e1a5cdd606a1b604482015260640161033f565b60808101516001600160401b0316156107985760405162461bcd60e51b81526020600482015260156024820152741b585d18da081a5cc81b9bdd08199a5b9a5cda1959605a1b604482015260640161033f565b806107985760405162461bcd60e51b815260206004820152601760248201527f74726565206e6f646520646f65736e2774206578697374000000000000000000604482015260640161033f565b61216b816125fb565b156107985760405162461bcd60e51b815260206004820152601860248201527f636c6f636b206973206e6f7420696e697469616c697a65640000000000000000604482015260640161033f565b600082826121c68183612bf9565b95945050505050565b81546000906121e7906001600160401b03168361260f565b90506001600160401b03811661224b5760405162461bcd60e51b815260206004820152602360248201527f63616e277420726573657420636c6f636b2077697468206e6f2074696d65206c60448201526219599d60ea1b606482015260840161033f565b60006122616001600160401b038316602d612748565b9050612283612271602d80612b3f565b6001600160401b039081169083161190565b1561180e57612293602d80612b3f565b905083546001600160801b0319166001600160401b03909116179092555050565b60006122be611b0c565b6122c85750600090565b6000806122d3612640565b91509150816116a8576116a8612b9c565b60808101516001600160401b03166001036107985760405162461bcd60e51b815260206004820152601e60248201527f6d6174636820697320726561647920746f2062652066696e616c697a65640000604482015260640161033f565b61234c83838361254b565b6104f45760405162461bcd60e51b815260206004820152601e60248201527f6368696c64206e6f64657320646f6e2774206d6174636820706172656e740000604482015260640161033f565b600483015460016001600160401b03909116116123b7576123b7612b9c565b6001830180548455829055600283018190556004830180546001600160401b03169060006123e483612c91565b91906101000a8154816001600160401b0302191690836001600160401b0316021790555050505050565b600483015460016001600160401b039091161161242d5761242d612b9c565b600283018054845560018085018490559082905560048401546003850180546001600160401b039092169290921b919060009061246b908490612be6565b90915550506004830180546001600160401b03169060006123e483612c91565b6040805180820190915281546001600160401b038082168352600160401b9091041660208201526000906124be90612799565b90506001600160401b0381166125245760405162461bcd60e51b815260206004820152602560248201527f63616e277420616476616e636520636c6f636b2077697468206e6f2074696d65604482015264081b19599d60da1b606482015260840161033f565b61252d826127d0565b815467ffffffffffffffff19166001600160401b0391909116179055565b60006109a261255a848461167f565b851490565b80516000906116a8906125764285602001516121b8565b6001600160401b03169061260f565b60006109e26001600160401b038416834261281f565b60007f000000000000000000000000000000000000000000000000000000000000000082036125cc57506001919050565b7f00000000000000000000000000000000000000000000000000000000000000008203611a8657506001919050565b80516000906001600160401b0316156116a8565b600082826001600160401b0380821690831610612635576126308183612bf9565b6121c6565b506000949350505050565b600154600090801561265157600191505b9091565b6040805160c081018252600080825260208201819052918101829052606081018290526080810182905260a0810182905261269186868661254b565b61269d5761269d612b9c565b6000604051806040016040528089815260200188815250905060006040518060c001604052808a8152602001888152602001878152602001600081526020016126e58761203c565b6001600160401b03168152602001866001600160401b0316815250905061270b82611b30565b999098509650505050505050565b805182516000918291612737916001600160401b0390911690612748565b90506109a26001600160401b034216825b600082826121c68183612b3f565b60006116a88260a0015161203c565b606083015160009060016001600160401b0384161b906127858282612cb4565b61278f9086612be6565b9695505050505050565b60208101516000906001600160401b03166127b357505190565b6116a86127bf42611fd0565b83516001600160401b03169061260f565b8054600160401b90046001600160401b031661280b57805467ffffffffffffffff60401b1916600160401b6001600160401b03421602179055565b805467ffffffffffffffff60401b19169055565b60006109a082611b1f6001600160401b03871686612748565b60008083601f84011261284a57600080fd5b5081356001600160401b0381111561286157600080fd5b6020830191508360208260051b8501011115611cd557600080fd5b60008060008060006080868803121561289457600080fd5b8535945060208601356001600160401b038111156128b157600080fd5b6128bd88828901612838565b9699909850959660408101359660609091013595509350505050565b6001600160401b038116811461079857600080fd5b60006020828403121561290057600080fd5b81356109e2816128d9565b60006040828403121561291d57600080fd5b50919050565b60008060008060008060c0878903121561293c57600080fd5b612946888861290b565b955060408701359450606087013593506080870135925060a08701356001600160401b0381111561297657600080fd5b61298289828a01612838565b979a9699509497509295939492505050565b6000604082840312156129a657600080fd5b6109e2838361290b565b6000602082840312156129c257600080fd5b5035919050565b6001600160a01b038116811461079857600080fd5b6000806000606084860312156129f357600080fd5b83356129fe816129c9565b95602085013595506040909401359392505050565b600080600080600060c08688031215612a2b57600080fd5b612a35878761290b565b97604087013597506060870135966080810135965060a00135945092505050565b600080600060808486031215612a6b57600080fd5b612a75858561290b565b95604085013595506060909401359392505050565b6020808252601690820152751d1bdd5c9b985b595b9d081a5cc8199a5b9a5cda195960521b604082015260600190565b600060408284031215612acc57600080fd5b604051604081018181106001600160401b0382111715612afc57634e487b7160e01b600052604160045260246000fd5b604052823581526020928301359281019290925250919050565b634e487b7160e01b600052601160045260246000fd5b818103818111156116a8576116a8612b16565b6001600160401b03818116838216019080821115612b5f57612b5f612b16565b5092915050565b600060208284031215612b7857600080fd5b5051919050565b600060208284031215612b9157600080fd5b81516109e2816128d9565b634e487b7160e01b600052600160045260246000fd5b60006001600160401b0380841680612bda57634e487b7160e01b600052601260045260246000fd5b92169190910692915050565b808201808211156116a8576116a8612b16565b6001600160401b03828116828216039080821115612b5f57612b5f612b16565b97885260208801969096526040870194909452606086019290925260808501526001600160401b0390811660a085015260c08401919091521660e08201526101000190565b600060208284031215612c7057600080fd5b81516109e2816129c9565b634e487b7160e01b600052603260045260246000fd5b60006001600160401b03821680612caa57612caa612b16565b6000190192915050565b80820281158282048414176116a8576116a8612b1656fea264697066735822122030463c70de4741ee0701ae87d96007654be1a408a1df0bf8255d60f2693bb03364736f6c63430008140033a2646970667358221220554776aa6ef18910a82a5047fdd00272860123ee22b7df4a62cc352ee3ee29fe64736f6c63430008140033",
    "linkReferences": {}
  },
  "methodIdentifiers": {
    "instantiate(bytes32,bytes32,bytes32,bytes32,bytes32,uint64,uint256,uint64,address)": "5cd87016"
  },
  "id": 42
}