{
  "abi": [
    {
      "inputs": [
        {
          "internalType": "Machine.Hash",
          "name": "_initialHash",
          "type": "bytes32"
        }
      ],
      "stateMutability": "nonpayable",
      "type": "constructor"
    },
    {
      "anonymous": false,
      "inputs": [
        {
          "indexed": true,
          "internalType": "Match.IdHash",
          "name": "",
          "type": "bytes32"
        },
        {
          "indexed": false,
          "internalType": "Tree.Node",
          "name": "parent",
          "type": "bytes32"
        },
        {
          "indexed": false,
          "internalType": "Tree.Node",
          "name": "left",
          "type": "bytes32"
        }
      ],
      "name": "matchAdvanced",
      "type": "event"
    },
    {
      "anonymous": false,
      "inputs": [
        {
          "indexed": true,
          "internalType": "Tree.Node",
          "name": "one",
          "type": "bytes32"
        },
        {
          "indexed": true,
          "internalType": "Tree.Node",
          "name": "two",
          "type": "bytes32"
        },
        {
          "indexed": false,
          "internalType": "Tree.Node",
          "name": "leftOfTwo",
          "type": "bytes32"
        }
      ],
      "name": "matchCreated",
      "type": "event"
    },
    {
      "inputs": [
        {
          "components": [
            {
              "internalType": "Tree.Node",
              "name": "commitmentOne",
              "type": "bytes32"
            },
            {
              "internalType": "Tree.Node",
              "name": "commitmentTwo",
              "type": "bytes32"
            }
          ],
          "internalType": "struct Match.Id",
          "name": "_matchId",
          "type": "tuple"
        },
        {
          "internalType": "Tree.Node",
          "name": "_leftNode",
          "type": "bytes32"
        },
        {
          "internalType": "Tree.Node",
          "name": "_rightNode",
          "type": "bytes32"
        },
        {
          "internalType": "Tree.Node",
          "name": "_newLeftNode",
          "type": "bytes32"
        },
        {
          "internalType": "Tree.Node",
          "name": "_newRightNode",
          "type": "bytes32"
        }
      ],
      "name": "advanceMatch",
      "outputs": [],
      "stateMutability": "nonpayable",
      "type": "function"
    },
    {
      "inputs": [
        {
          "components": [
            {
              "internalType": "Tree.Node",
              "name": "commitmentOne",
              "type": "bytes32"
            },
            {
              "internalType": "Tree.Node",
              "name": "commitmentTwo",
              "type": "bytes32"
            }
          ],
          "internalType": "struct Match.Id",
          "name": "_matchId",
          "type": "tuple"
        }
      ],
      "name": "canWinMatchByTimeout",
      "outputs": [
        {
          "internalType": "bool",
          "name": "",
          "type": "bool"
        }
      ],
      "stateMutability": "view",
      "type": "function"
    },
    {
      "inputs": [
        {
          "internalType": "Tree.Node",
          "name": "_commitmentRoot",
          "type": "bytes32"
        }
      ],
      "name": "getCommitment",
      "outputs": [
        {
          "components": [
            {
              "internalType": "Time.Duration",
              "name": "allowance",
              "type": "uint64"
            },
            {
              "internalType": "Time.Instant",
              "name": "startInstant",
              "type": "uint64"
            }
          ],
          "internalType": "struct Clock.State",
          "name": "",
          "type": "tuple"
        },
        {
          "internalType": "Machine.Hash",
          "name": "",
          "type": "bytes32"
        }
      ],
      "stateMutability": "view",
      "type": "function"
    },
    {
      "inputs": [
        {
          "internalType": "Match.IdHash",
          "name": "_matchIdHash",
          "type": "bytes32"
        }
      ],
      "name": "getMatch",
      "outputs": [
        {
          "components": [
            {
              "internalType": "Tree.Node",
              "name": "otherParent",
              "type": "bytes32"
            },
            {
              "internalType": "Tree.Node",
              "name": "leftNode",
              "type": "bytes32"
            },
            {
              "internalType": "Tree.Node",
              "name": "rightNode",
              "type": "bytes32"
            },
            {
              "internalType": "uint256",
              "name": "runningLeafPosition",
              "type": "uint256"
            },
            {
              "internalType": "uint64",
              "name": "currentHeight",
              "type": "uint64"
            },
            {
              "internalType": "uint64",
              "name": "level",
              "type": "uint64"
            }
          ],
          "internalType": "struct Match.State",
          "name": "",
          "type": "tuple"
        }
      ],
      "stateMutability": "view",
      "type": "function"
    },
    {
      "inputs": [
        {
          "internalType": "Match.IdHash",
          "name": "_matchIdHash",
          "type": "bytes32"
        }
      ],
      "name": "getMatchCycle",
      "outputs": [
        {
          "internalType": "uint256",
          "name": "",
          "type": "uint256"
        }
      ],
      "stateMutability": "view",
      "type": "function"
    },
    {
      "inputs": [
        {
          "internalType": "Machine.Hash",
          "name": "_finalState",
          "type": "bytes32"
        },
        {
          "internalType": "bytes32[]",
          "name": "_proof",
          "type": "bytes32[]"
        },
        {
          "internalType": "Tree.Node",
          "name": "_leftNode",
          "type": "bytes32"
        },
        {
          "internalType": "Tree.Node",
          "name": "_rightNode",
          "type": "bytes32"
        }
      ],
      "name": "joinTournament",
      "outputs": [],
      "stateMutability": "nonpayable",
      "type": "function"
    },
    {
      "inputs": [],
      "name": "maximumEnforceableDelay",
      "outputs": [
        {
          "internalType": "Time.Instant",
          "name": "",
          "type": "uint64"
        }
      ],
      "stateMutability": "view",
      "type": "function"
    },
    {
      "inputs": [],
      "name": "rootTournamentFinalState",
      "outputs": [
        {
          "internalType": "bool",
          "name": "",
          "type": "bool"
        },
        {
          "internalType": "Machine.Hash",
          "name": "",
          "type": "bytes32"
        }
      ],
      "stateMutability": "view",
      "type": "function"
    },
    {
      "inputs": [
        {
          "components": [
            {
              "internalType": "Tree.Node",
              "name": "commitmentOne",
              "type": "bytes32"
            },
            {
              "internalType": "Tree.Node",
              "name": "commitmentTwo",
              "type": "bytes32"
            }
          ],
          "internalType": "struct Match.Id",
          "name": "_matchId",
          "type": "tuple"
        },
        {
          "internalType": "Tree.Node",
          "name": "_leftLeaf",
          "type": "bytes32"
        },
        {
          "internalType": "Tree.Node",
          "name": "_rightLeaf",
          "type": "bytes32"
        },
        {
          "internalType": "Machine.Hash",
          "name": "_initialHash",
          "type": "bytes32"
        },
        {
          "internalType": "bytes32[]",
          "name": "_initialHashProof",
          "type": "bytes32[]"
        }
      ],
      "name": "sealLeafMatch",
      "outputs": [],
      "stateMutability": "nonpayable",
      "type": "function"
    },
    {
      "inputs": [],
      "name": "tournamentLevelConstants",
      "outputs": [
        {
          "internalType": "uint64",
          "name": "_level",
          "type": "uint64"
        },
        {
          "internalType": "uint64",
          "name": "_log2step",
          "type": "uint64"
        },
        {
          "internalType": "uint64",
          "name": "_height",
          "type": "uint64"
        }
      ],
      "stateMutability": "view",
      "type": "function"
    },
    {
      "inputs": [],
      "name": "tournamentWinner",
      "outputs": [
        {
          "internalType": "Tree.Node",
          "name": "",
          "type": "bytes32"
        }
      ],
      "stateMutability": "view",
      "type": "function"
    },
    {
      "inputs": [
        {
          "components": [
            {
              "internalType": "Tree.Node",
              "name": "commitmentOne",
              "type": "bytes32"
            },
            {
              "internalType": "Tree.Node",
              "name": "commitmentTwo",
              "type": "bytes32"
            }
          ],
          "internalType": "struct Match.Id",
          "name": "_matchId",
          "type": "tuple"
        },
        {
          "internalType": "Tree.Node",
          "name": "_leftNode",
          "type": "bytes32"
        },
        {
          "internalType": "Tree.Node",
          "name": "_rightNode",
          "type": "bytes32"
        },
        {
          "internalType": "bytes",
          "name": "proofs",
          "type": "bytes"
        }
      ],
      "name": "winLeafMatch",
      "outputs": [],
      "stateMutability": "nonpayable",
      "type": "function"
    },
    {
      "inputs": [
        {
          "components": [
            {
              "internalType": "Tree.Node",
              "name": "commitmentOne",
              "type": "bytes32"
            },
            {
              "internalType": "Tree.Node",
              "name": "commitmentTwo",
              "type": "bytes32"
            }
          ],
          "internalType": "struct Match.Id",
          "name": "_matchId",
          "type": "tuple"
        },
        {
          "internalType": "Tree.Node",
          "name": "_leftNode",
          "type": "bytes32"
        },
        {
          "internalType": "Tree.Node",
          "name": "_rightNode",
          "type": "bytes32"
        }
      ],
      "name": "winMatchByTimeout",
      "outputs": [],
      "stateMutability": "nonpayable",
      "type": "function"
    }
  ],
  "bytecode": {
    "object": "0x6101206040523480156200001257600080fd5b50604051620051ec380380620051ec8339810160408190526200003591620000c8565b6080819052600060a081905260c08190526001600160401b03421660e052602d61010081905282918291908062000077565b6001600160401b031690620000af565b62000083834262000067565b600080546001600160401b0319166001600160401b039290921691909117905550505050505062000118565b60008282620000bf8183620000e2565b95945050505050565b600060208284031215620000db57600080fd5b5051919050565b6001600160401b038181168382160190808211156200011157634e487b7160e01b600052601160045260246000fd5b5092915050565b60805160a05160c05160e0516101005161505762000195600039600081816104030152818161142401526114b50152600081816103e20152818161145f015261149301526000818161036801528181610c2d01528181610c5f01526116490152600081816108aa0152610bb2015260006106a001526150576000f3fe608060405234801561001057600080fd5b50600436106100cf5760003560e01c80638acc802d1161008c578063bcb0129511610066578063bcb012951461025e578063fcc6077d14610266578063fcc85391146102d4578063ff78e0ee146102e757600080fd5b80638acc802d146101ec57806392b9ead51461020d578063a1af906b1461022c57600080fd5b80631d5bf796146100d45780635017746a146100e95780636041ddd5146100fc57806360f302dc1461010f5780636a1a140d1461013f5780637795820c14610162575b600080fd5b6100e76100e2366004614b9c565b6102fa565b005b6100e76100f7366004614c11565b610464565b6100e761010a366004614c82565b61071d565b600054610122906001600160401b031681565b6040516001600160401b0390911681526020015b60405180910390f35b61015261014d366004614d16565b610b1e565b6040519015158152602001610136565b6101c0610170366004614d32565b6040805180820182526000808252602091820181905292835260028152818320600382529282902054825180840190935292546001600160401b038082168452600160401b909104169082015291565b6040805183516001600160401b0390811682526020948501511693810193909352820152606001610136565b6101ff6101fa366004614d32565b610b9e565b604051908152602001610136565b610215610bdd565b604080519215158352602083019190915201610136565b610234610c2b565b604080516001600160401b0394851681529284166020840152921691810191909152606001610136565b6101ff610c8a565b610279610274366004614d32565b610c99565b6040516101369190600060c0820190508251825260208301516020830152604083015160408301526060830151606083015260808301516001600160401b0380821660808501528060a08601511660a0850152505092915050565b6100e76102e2366004614d4b565b610d30565b6100e76102f5366004614d8e565b610fb9565b61030261141e565b156103545760405162461bcd60e51b815260206004820152601b60248201527f746f75726e616d656e7420636865636b2d696e20656c6170736564000000000060448201526064015b60405180910390fd5b600061036083836114d9565b905061038f817f0000000000000000000000000000000000000000000000000000000000000000888888611508565b60008181526003602090815260408083208990556002825291829020825180840190935280546001600160401b038082168552600160401b9091041691830191909152906103dc90611533565b610427817f00000000000000000000000000000000000000000000000000000000000000007f000000000000000000000000000000000000000000000000000000000000000061157f565b6040805180820190915281546001600160401b038082168352600160401b90910416602082015261045b9083908686611628565b50505050505050565b61046c6117ef565b156104895760405162461bcd60e51b815260040161034b90614dc2565b60006004816104a56104a0368b90038b018b614df2565b611813565b81526020808201929092526040908101600020815160c081018352815481526001820154938101939093526002810154918301919091526003810154606083015260048101546001600160401b038082166080850152600160401b9091041660a0830152915061051490611855565b6040805160c08101825282548152600183015460208201526002830154918101919091526003820154606082015260048201546001600160401b038082166080840152600160401b9091041660a082015261056e9061189a565b6040805160c08101825282548152600183015460208201526002830154918101919091526003820154606082015260048201546001600160401b038082166080840152600160401b9091041660a08201526105ca908787611902565b6040805160c08101825282548152600183015460208201526002830154918101919091526003820154606082015260048201546001600160401b038082166080840152600160401b9091041660a0820152600090819061062a9089611914565b61064257610638838961192d565b9092509050610652565b61064c8388611a09565b90925090505b88356000908152600260209081526040808320918c0135835290912061067782611af5565b61068082611b11565b61068981611af5565b61069281611b11565b8460030154600003610706577f000000000000000000000000000000000000000000000000000000000000000088146107065760405162461bcd60e51b81526020600482015260166024820152751a5b9a5d1a585b081a185cda081a5b98dbdc9c9958dd60521b604482015260640161034b565b6107108589611bd1565b5050505050505050505050565b6107256117ef565b156107425760405162461bcd60e51b815260040161034b90614dc2565b60006004816107596104a0368a90038a018a614df2565b81526020808201929092526040908101600020815160c081018352815481526001820154938101939093526002810154918301919091526003810154606083015260048101546001600160401b038082166080850152600160401b9091041660a083015291506107c890611855565b6040805160c08101825282548152600183015460208201526002830154918101919091526003820154606082015260048201546001600160401b038082166080840152600160401b9091041660a082015261082290611bf0565b85356000908152600260209081526040808320828a0135845292819020815180830190925283546001600160401b038082168452600160401b909104169282019290925261086f90611c43565b6040805180820190915281546001600160401b038082168352600160401b90910416602082015261089f90611c43565b60008080806108ce877f0000000000000000000000000000000000000000000000000000000000000000611c99565b9350935093509350600061091985858c8c8080601f016020809104026020016040519081016040528093929190818152602001838380828437600092019190915250611e7492505050565b905061092e8d3561092a8e8e6114d9565b1490565b156109c7578281146109825760405162461bcd60e51b815260206004820152601d60248201527f66696e616c207374617465206f6e6520646f65736e2774206d61746368000000604482015260640161034b565b61098d876000611e81565b6040805180820190915287546001600160401b038082168352600160401b9091041660208201526109c2908e35908e8e611628565b610abb565b6109d960208e013561092a8e8e6114d9565b15610a7357818114610a2d5760405162461bcd60e51b815260206004820152601d60248201527f66696e616c2073746174652074776f20646f65736e2774206d61746368000000604482015260640161034b565b610a38866000611e81565b6040805180820190915286546001600160401b038082168352600160401b909104166020828101919091526109c291908f0135908e8e611628565b60405162461bcd60e51b815260206004820152601f60248201527f77726f6e67206c6566742f7269676874206e6f64657320666f72207374657000604482015260640161034b565b60046000610ad38f8036038101906104a09190614df2565b8152602081019190915260400160009081208181556001810182905560028101829055600381019190915560040180546001600160801b031916905550505050505050505050505050565b803560009081526002602081815260408084208151808301835290546001600160401b038082168352600160401b9182900481168386015284880135875294845282862083518085019094525480861684520490931691810191909152610b8482611f66565b1580610b965750610b9481611f66565b155b949350505050565b600080610baa83610c99565b9050610bd6817f0000000000000000000000000000000000000000000000000000000000000000611fa8565b9392505050565b600080610be86117ef565b610bf55750600091829150565b600080610c00611fc5565b9150915081610c1157610c11614e4e565b600090815260036020526040902054600194909350915050565b7f0000000000000000000000000000000000000000000000000000000000000000600080610c5883611fda565b9150610c837f0000000000000000000000000000000000000000000000000000000000000000612029565b9050909192565b6000610c9461206c565b905090565b6040805160c081018252600080825260208201819052918101829052606081018290526080810182905260a081019190915250600090815260046020818152604092839020835160c08101855281548152600182015492810192909252600281015493820193909352600383015460608201529101546001600160401b038082166080840152600160401b9091041660a082015290565b610d386117ef565b15610d555760405162461bcd60e51b815260040161034b90614dc2565b6000600481610d6c6104a0368a90038a018a614df2565b81526020808201929092526040908101600020815160c081018352815481526001820154938101939093526002810154918301919091526003810154606083015260048101546001600160401b038082166080850152600160401b9091041660a08301529150610ddb90611855565b6040805160c08101825282548152600183015460208201526002830154918101919091526003820154606082015260048201546001600160401b038082166080840152600160401b9091041660a0820152610e359061209c565b6040805160c08101825282548152600183015460208201526002830154918101919091526003820154606082015260048201546001600160401b038082166080840152600160401b9091041660a0820152610e91908686611902565b6040805160c08101825282548152600183015460208201526002830154918101919091526003820154606082015260048201546001600160401b038082166080840152600160401b9091041660a0820152610eec9086611914565b610f0b57610efb8584846120f9565b610f06818484612150565b610f21565b610f168484846120f9565b610f218184846121c6565b85356000908152600260205260409020610f3a90611b11565b610f596002600088602001358152602001908152602001600020611b11565b610f6b6104a036889003880188614df2565b815460018301546040517f29ff393c59c37f91e930fad4d88447efc58cf5d7c048499e1f20edb36994137892610fa992908252602082015260400190565b60405180910390a2505050505050565b610fc16117ef565b15610fde5760405162461bcd60e51b815260040161034b90614dc2565b61105f60046000610ff76104a036889003880188614df2565b81526020808201929092526040908101600020815160c0810183528154815260018201549381019390935260028101549183019190915260038101546060830152600401546001600160401b038082166080840152600160401b9091041660a0820152611855565b8235600090815260026020908152604080832082870135845292819020815180830190925283546001600160401b038082168452600160401b90910416928201929092526110ac90611c43565b6040805180820190915281546001600160401b038082168352600160401b9091041660208201526110dc90611c43565b6040805180820190915282546001600160401b038082168352600160401b90910416602082015261110c90611f66565b801561114557506040805180820190915281546001600160401b038082168352600160401b90910416602082015261114390611f66565b155b1561122f5761115685358585612243565b6111ba5760405162461bcd60e51b815260206004820152602f60248201527f6368696c64206e6f64657320646f206e6f74206d6174636820706172656e742060448201526e28636f6d6d69746d656e744f6e652960881b606482015260840161034b565b6040805180820190915281546001600160401b038082168352600160401b9091041660208201526111f5906111ee90612257565b8390611e81565b6040805180820190915282546001600160401b038082168352600160401b90910416602082015261122a908635908686611628565b6113c5565b6040805180820190915282546001600160401b038082168352600160401b90910416602082015261125f90611f66565b15801561129757506040805180820190915281546001600160401b038082168352600160401b90910416602082015261129790611f66565b15611385576112ab60208601358585612243565b61130f5760405162461bcd60e51b815260206004820152602f60248201527f6368696c64206e6f64657320646f206e6f74206d6174636820706172656e742060448201526e28636f6d6d69746d656e7454776f2960881b606482015260840161034b565b6040805180820190915282546001600160401b038082168352600160401b90910416602082015261134a9061134390612257565b8290611e81565b6040805180820190915281546001600160401b038082168352600160401b9091041660208281019190915261122a9190870135908686611628565b60405162461bcd60e51b815260206004820152601560248201527418d85b9b9bdd081dda5b88189e481d1a5b595bdd5d605a1b604482015260640161034b565b600460006113db6104a036899003890189614df2565b8152602081019190915260400160009081208181556001810182905560028101829055600381019190915560040180546001600160801b03191690555050505050565b6000602d7f00000000000000000000000000000000000000000000000000000000000000006001600160401b0316111561148657610c946001600160401b037f000000000000000000000000000000000000000000000000000000000000000016602d61227d565b610c946001600160401b037f0000000000000000000000000000000000000000000000000000000000000000167f000000000000000000000000000000000000000000000000000000000000000061227d565b604080516020808201859052818301849052825180830384018152606090920190925280519101205b92915050565b61152961151485612029565b869060016001600160401b039182161b168585855b5050505050565b50565b61153c81612293565b6115305760405162461bcd60e51b815260206004820152601460248201527318db1bd8dac81a5cc81a5b9a5d1a585b1a5e995960621b604482015260640161034b565b60006115a76115976001600160401b034216856122a7565b6001600160401b038416906122be565b90506001600160401b0381166116095760405162461bcd60e51b815260206004820152602160248201527f63616e27742063726561746520636c6f636b2077697468207a65726f2074696d6044820152606560f81b606482015260840161034b565b83546001600160801b0319166001600160401b03909116179092555050565b600080611633611fc5565b9150915081156117c25760008061166d838988887f00000000000000000000000000000000000000000000000000000000000000006122ef565b6000828152600460208181526040808420855181558583015160018201558582015160028083019190915560608701516003830155608087015191909401805460a08801516001600160401b039384166001600160801b031990921691909117600160401b9184168202179091558a86529383528185208251808401909352805480831684529490940416918101919091529395509193509091611711908a6123b3565b6040805180820190915283546001600160401b038082168352600160401b909104166020820152909150600090611748908b6123e6565b905061175382612410565b5061176a6115306001600160401b03841683612457565b61177383611b11565b61177d6000600155565b8a867f32911001007d8c9879b608566be8acc2184592f0a43706f804f285455bb0f52e8b6040516117b091815260200190565b60405180910390a350505050506117e7565b84516000546117de91611530916001600160401b031690612457565b6117e786600155565b505050505050565b60008054610c94906001600160401b0316425b6001600160401b0391821691161190565b6000816040516020016118389190815181526020918201519181019190915260400190565b604051602081830303815290604052805190602001209050919050565b80516115305760405162461bcd60e51b81526020600482015260146024820152731b585d18da08191bd95cc81b9bdd08195e1a5cdd60621b604482015260640161034b565b60808101516001600160401b03166001146115305760405162461bcd60e51b815260206004820152602260248201527f6d61746368206973206e6f7420726561647920746f2062652066696e616c697a604482015261195960f21b606482015260840161034b565b825161190f9083836120f9565b505050565b6000610bd683602001518361092a90919063ffffffff16565b600482015460009081906001600160401b031660011461194f5761194f614e4e565b600280850184905560048501805467ffffffffffffffff1916908190556040805160c08101825287548152600188015460208201529081018690526003870154606082015260006080820152600160401b9091046001600160401b031660a08201526119ba90612465565b6119c49190614e7a565b6001600160401b03166000036119ed57600184015491506119e6846002015490565b9050611a02565b600284015491506119ff846001015490565b90505b9250929050565b600482015460009081906001600160401b0316600114611a2b57611a2b614e4e565b6001808501849055600385018054600090611a47908490614eb6565b909155505060048401805467ffffffffffffffff1916908190556040805160c0810182528654815260018701546020820152600280880154928201929092526003870154606082015260006080820152600160401b9092046001600160401b031660a083015290611ab790612465565b611ac19190614e7a565b6001600160401b0316600003611ae357600284015491506119e6846001015490565b600184015491506119ff846002015490565b8054600160401b90046001600160401b03161561153057611530815b6040805180820190915281546001600160401b038082168352600160401b909104166020820152600090611b4490612474565b90506001600160401b038116611baa5760405162461bcd60e51b815260206004820152602560248201527f63616e277420616476616e636520636c6f636b2077697468206e6f2074696d65604482015264081b19599d60da1b606482015260840161034b565b611bb3826124ab565b815467ffffffffffffffff19166001600160401b0391909116179055565b60048201546001600160401b031615611bec57611bec614e4e565b9055565b60808101516001600160401b0316156115305760405162461bcd60e51b81526020600482015260156024820152741b585d18da081a5cc81b9bdd08199a5b9a5cda1959605a1b604482015260640161034b565b611c4c81612293565b156115305760405162461bcd60e51b815260206004820152601860248201527f636c6f636b206973206e6f7420696e697469616c697a65640000000000000000604482015260640161034b565b60048201546000908190819081906001600160401b031615611cbd57611cbd614e4e565b85546040805160c081018252828152600189015460208201526002890154918101919091526003880154606082015260048801546001600160401b038082166080840152600160401b9091041660a0820152909450611d1c9086611fa8565b925060028660030154611d2f9190614ec9565b600003611dd7576040805160c0810182528754815260018801546020820152600288810154928201929092526003880154606082015260048801546001600160401b038082166080840152600160401b9091041660a0820152611d9190612465565b611d9b9190614e7a565b6001600160401b0316600003611dc45760018601549150611dbd866002015490565b9050611e6b565b60028601545b9150611dbd866001015490565b6040805160c0810182528754815260018801546020820152600288810154928201929092526003880154606082015260048801546001600160401b038082166080840152600160401b9091041660a0820152611e3290612465565b611e3c9190614e7a565b6001600160401b0316600003611e56576002860154611dca565b60018601549150611e68866002015490565b90505b92959194509250565b6000610b968484846124fa565b8154600090611e99906001600160401b0316836122be565b90506001600160401b038116611efd5760405162461bcd60e51b815260206004820152602360248201527f63616e277420726573657420636c6f636b2077697468206e6f2074696d65206c60448201526219599d60ea1b606482015260840161034b565b6000611f136001600160401b038316602d612457565b9050611f35611f23602d80614edd565b6001600160401b039081169083161190565b1561160957611f45602d80614edd565b905083546001600160801b0319166001600160401b03909116179092555050565b60208101516000906001600160401b0316611f8357506001919050565b611502611f95425b84602001516122a7565b83516001600160401b0391821691161190565b600080611fb88460a00151611fda565b9050610b9684848361258c565b6001546000908015611fd657600191505b9091565b6040805160808101825260188152600e602082015260079181019190915260006060820181905290806001600160401b0384166004811061201d5761201d614f04565b60200201519392505050565b6040805160808101825260278152600a602082015260079181018290526060810191909152600090806001600160401b0384166004811061201d5761201d614f04565b60006120766117ef565b6120805750600090565b60008061208b611fc5565b915091508161150257611502614e4e565b60808101516001600160401b03166001036115305760405162461bcd60e51b815260206004820152601e60248201527f6d6174636820697320726561647920746f2062652066696e616c697a65640000604482015260640161034b565b612104838383612243565b61190f5760405162461bcd60e51b815260206004820152601e60248201527f6368696c64206e6f64657320646f6e2774206d6174636820706172656e740000604482015260640161034b565b600483015460016001600160401b039091161161216f5761216f614e4e565b6001830180548455829055600283018190556004830180546001600160401b031690600061219c83614f1a565b91906101000a8154816001600160401b0302191690836001600160401b0316021790555050505050565b600483015460016001600160401b03909116116121e5576121e5614e4e565b600283018054845560018085018490559082905560048401546003850180546001600160401b039092169290921b9190600090612223908490614eb6565b90915550506004830180546001600160401b031690600061219c83614f1a565b6000610b9661225284846114d9565b851490565b80516000906115029061226e4285602001516122a7565b6001600160401b0316906122be565b6000610bd66001600160401b03841683426125c0565b80516000906001600160401b031615611502565b600082826122b58183614f3d565b95945050505050565b600082826001600160401b03808216908316106122e4576122df8183614f3d565b6122b5565b506000949350505050565b6040805160c081018252600080825260208201819052918101829052606081018290526080810182905260a0810182905261232b868686612243565b61233757612337614e4e565b6000604051806040016040528089815260200188815250905060006040518060c001604052808a81526020018881526020018781526020016000815260200161237f87612029565b6001600160401b03168152602001866001600160401b031681525090506123a582611813565b999098509650505050505050565b8051825160009182916123d1916001600160401b0390911690612457565b9050610b966001600160401b03421682612457565b805182516000916001600160401b039081169116111561240857508151611502565b508051611502565b600080546001600160401b03908116908316111561244f57506000805467ffffffffffffffff19166001600160401b0392909216919091179055600190565b506000919050565b600082826122b58183614edd565b60006115028260a00151612029565b60208101516000906001600160401b031661248e57505190565b61150261249a42611f8b565b83516001600160401b0316906122be565b8054600160401b90046001600160401b03166124e657805467ffffffffffffffff60401b1916600160401b6001600160401b03421602179055565b805467ffffffffffffffff60401b19169055565b6040805180820182528481528151808301909252828252600060208381018290528201929092526001600160401b0367fffffffffffffffe19858216016125795760405162461bcd60e51b8152602060048201526013602482015272149154d1550815539253541311535153951151606a1b604482015260640161034b565b612582826125d9565b5050519050610bd6565b606083015160009060016001600160401b0384161b906125ac8282614f5d565b6125b69086614eb6565b9695505050505050565b6000610b94826118026001600160401b03871686612457565b6000806125e5836126d4565b905067fffffffffffffffe196001600160401b038216016126095750600292915050565b612612836126e4565b156126205750600392915050565b600061262b84612702565b90506001811615612640575060049392505050565b6002811615612653575060059392505050565b600061265e8561270f565b9050600061266c868361271c565b90506126798682846127a3565b612684846001614edd565b93506126908685612d15565b61269986612702565b9250600183161515806126ae57506002831615155b156126c8576126bc86612d28565b50600195945050505050565b50600095945050505050565b60006115026103205b8390612d36565b60006126f16103286126dd565b6001600160401b0316151592915050565b60006115026102e86126dd565b60006115026103306126dd565b6000600382161561276f5760405162461bcd60e51b815260206004820152601d60248201527f6d6973616c69676e6564207265616455696e7433322061646472657373000000604482015260640161034b565b600719821660006038600385901b165b9050600061278d8684612de8565b90506001600160401b038116603f83161c6125b6565b61707f82166013036127ba5761190f838383612e45565b61707f8216613003036127d25761190f838383612eab565b61707f8216616063036127ea5761190f838383612f1f565b61707f82166063036128015761190f838383612f8f565b61707f8216617013036128195761190f838383612ff9565b612827826033600080613058565b156128375761190f83838361309a565b607f8216606f0361284d5761190f8383836130f8565b61285c82601360016000613137565b1561286c5761190f838383613160565b61287b82603360076000613058565b1561288b5761190f8383836131b7565b61707f8216613023036128a35761190f838383613210565b607f82166037036128b95761190f838383613267565b61707f82166067036128d05761190f8383836132b2565b61707f8216601b036128e75761190f838383613315565b6128f682601360056000613137565b156129065761190f838383613377565b61291582601b60056000613058565b156129255761190f8383836133ce565b61707f82166110630361293d5761190f83838361342c565b61707f8216612003036129555761190f838383613496565b607f821660170361296b5761190f8383836134e0565b61707f8216617063036129835761190f838383613521565b61299182603b600080613058565b156129a15761190f83838361358b565b6129b082601360056010613137565b156129c05761190f8383836135ff565b6129cf82603360066000613058565b156129df5761190f838383613651565b6129ee82601b60056020613058565b156129fe5761190f8383836136aa565b61707f821661506303612a165761190f838383613704565b612a2582603360006020613058565b15612a355761190f838383613762565b61707f821661400303612a4d5761190f8383836137bb565b612a5c82601b60016000613058565b15612a6c5761190f83838361381e565b612a7b82603360056000613058565b15612a8b5761190f838383613875565b612a9a82603360046000613058565b15612aaa5761190f8383836138da565b61707f821661202303612ac25761190f838383613933565b612ad182603360016000613058565b15612ae15761190f83838361398a565b61707f821661406303612af95761190f8383836139ef565b61707f8216602303612b105761190f838383613a4e565b612b1f82603b60006020613058565b15612b2f5761190f838383613aa5565b61707f821661401303612b475761190f838383613b01565b612b5682603360056020613058565b15612b665761190f838383613b55565b61707f821661500303612b7e5761190f838383613bb5565b61707f821661102303612b965761190f838383613c19565b612ba582603b60056000613058565b15612bb55761190f838383613c70565b61707f821661600303612bcd5761190f838383613cf1565b612bdc82603b60016000613058565b15612bec5761190f838383613d52565b61707f8216600303612c035761190f838383613da8565b612c1282603360036000613058565b15612c225761190f838383613e07565b612c3182603b60056020613058565b15612c415761190f838383613e8b565b61707f821661100303612c595761190f838383613ee2565b61707f821661601303612c715761190f838383613f41565b61707f821661301303612c895761190f838383613f95565b612c9882603360026000613058565b15612ca85761190f838383614013565b61707f821661201303612cc05761190f83838361407d565b61707f8216600f03612cd75761190f8383836140d5565b60405162461bcd60e51b815260206004820152601360248201527234b63632b3b0b61034b739ba393ab1ba34b7b760691b604482015260640161034b565b612d246103205b8390836140df565b5050565b6115308161032860016140df565b600080612d468460200151614127565b6040516001600160c01b0319821660208201529091506000906028016040516020818303038152906040528051906020012090506000612d8e86612d8987614151565b61415d565b9050808214612ddf5760405162461bcd60e51b815260206004820152601860248201527f526561642076616c756520646f65736e2774206d617463680000000000000000604482015260640161034b565b6125b683614176565b60006007821615612e3b5760405162461bcd60e51b815260206004820152601d60248201527f6d6973616c69676e6564207265616455696e7436342061646472657373000000604482015260640161034b565b610bd6838361418a565b6000612e508361419f565b90506000612e5d846141ae565b90506000612e6a856141cb565b905060ff821615612ea1576000612e8187836141e2565b90506000612e91828660030b0190565b9050612e9e888583614203565b50505b6117e78685614229565b6000612eb68361419f565b90506000612ec3846141ae565b90506000612ed0856141cb565b90506000612ede87836141e2565b90506000612ef588612ef08488614237565b612de8565b905060ff841615612f0b57612f0b888583614203565b612f158887614229565b5050505050505050565b6000612f2a8361424e565b90506000612f37846141cb565b90506000612f44856142f2565b90506000612f5287846141e2565b90506000612f6088846141e2565b9050806001600160401b0316826001600160401b03161015612f0b57612f1588612f8a8888614237565b614308565b6000612f9a8361424e565b90506000612fa7846141cb565b90506000612fb4856142f2565b90506000612fc287846141e2565b90506000612fd088846141e2565b9050806001600160401b0316826001600160401b031603612f0b57612f1588612f8a8888614237565b60006130048361419f565b90506000613011846141ae565b9050600061301e856141cb565b905060ff821615612ea157600061303587836141e2565b905061304d87846130468760030b90565b8416614203565b506117e78685614229565b600063fe00707f84650ffffffff000600c86901b166701fffffffe000000601986901b165b171763ffffffff1681871663ffffffff1614915050949350505050565b60006130a5836141ae565b905060006130b2846141cb565b905060006130bf856142f2565b905060ff831615612ea15760006130d687846141e2565b905060006130e488846141e2565b9050612e9e8886848401614203565b614203565b600061310383614312565b90506000613110846141ae565b905060ff81161561312957613129858260048601614203565b61152985612f8a8585614237565b600063fc00707f84650ffffffff000600c86901b166703fffffffc000000601a86901b1661307d565b600061316b8361436a565b90506000613178846141ae565b90506000613185856141cb565b905060ff821615612ea157600061319c87836141e2565b905061304d87846001600160401b038416603f88161b614203565b60006131c2836141ae565b905060006131cf846141cb565b905060006131dc856142f2565b905060ff831615612ea15760006131f387846141e2565b9050600061320188846141e2565b9050612e9e8886838516614203565b600061321b83614380565b90506000613228846141cb565b90506000613235856142f2565b9050600061324387846141e2565b9050600061325188846141e2565b9050612f0b886132618488614237565b836143af565b6000613272836141ae565b9050600061328e846000611502620fffff600c84901c1661425d565b905060ff8216156132a8576132a885836130f38460030b90565b6115298584614229565b60006132bd8361419f565b905060006132ca846141ae565b905060006132d7856141cb565b905060006132e587836141e2565b905060ff8316156132fe576132fe878460048801614203565b61045b8760011961330f8488614237565b16614308565b60006133208361419f565b9050600061332d846141ae565b9050600061333a856141cb565b9050600061334e61334b88846141e2565b90565b905060ff83161561336d5780840161336b8885600384900b614203565b505b61045b8786614229565b60006133828361436a565b9050600061338f846141ae565b9050600061339c856141cb565b905060ff821615612ea15760006133b387836141e2565b905061304d87846001600160401b038416603f88161c614203565b60006133d9836142f2565b905060006133e6846141ae565b905060006133f3856141cb565b9050600061340187836141e2565b9050600063ffffffff8216601f86161c5b905060ff841615612f0b57612f0b88856130f38460030b90565b60006134378361424e565b90506000613444846141cb565b90506000613451856142f2565b9050600061345f87846141e2565b9050600061346d88846141e2565b9050806001600160401b0316826001600160401b031614612f0b57612f1588612f8a8888614237565b60006134a18361419f565b905060006134ae846141ae565b905060006134bb856141cb565b905060006134c987836141e2565b90506000613412886134db8488614237565b61271c565b60006134fa836000611502620fffff600c84901c1661425d565b90506000613507846141ae565b905060ff8116156132a8576132a885826130f38686614237565b600061352c8361424e565b90506000613539846141cb565b90506000613546856142f2565b9050600061355487846141e2565b9050600061356288846141e2565b9050806001600160401b0316826001600160401b031610612f0b57612f1588612f8a8888614237565b6000613596836141ae565b905060006135a3846141cb565b905060006135b0856142f2565b905060006135c161334b88856141e2565b905060006135d261334b89856141e2565b905060ff851615612f0b5760008183015b90506135f489876130f38460030b90565b50612f158887614229565b600061360a8361436a565b90506000613617846141ae565b90506000613624856141cb565b905060ff821615612ea157600061363b87836141e2565b905061304d8784600784900b603f88161d614203565b600061365c836141ae565b90506000613669846141cb565b90506000613676856142f2565b905060ff831615612ea157600061368d87846141e2565b9050600061369b88846141e2565b9050612e9e8886838517614203565b60006136b5836142f2565b905060006136c2846141ae565b905060006136cf856141cb565b905060006136e061334b88846141e2565b905060ff83161561336d5761336d87846130f3600385900b601f89161d5b60030b90565b600061370f8361424e565b9050600061371c846141cb565b90506000613729856142f2565b9050600061373787846141e2565b9050600061374588846141e2565b90508060070b8260070b12612f0b57612f1588612f8a8888614237565b600061376d836141ae565b9050600061377a846141cb565b90506000613787856142f2565b905060ff831615612ea157600061379e87846141e2565b905060006137ac88846141e2565b9050612e9e8886838503614203565b60006137c68361419f565b905060006137d3846141ae565b905060006137e0856141cb565b905060006137ee87836141e2565b90506000613805886138008488614237565b61440b565b905060ff841615612f0b57612f0b88858360ff16614203565b6000613829836142f2565b90506000613836846141ae565b90506000613843856141cb565b9050600061385187836141e2565b905060ff83161561336d5761336d87846130f363ffffffff8516601f89161b6136fe565b6000613880836141ae565b9050600061388d846141cb565b9050600061389a856142f2565b905060ff831615612ea15760006138b187846141e2565b905060006138bf88846141e2565b9050612e9e88866001600160401b038516603f85161c614203565b60006138e5836141ae565b905060006138f2846141cb565b905060006138ff856142f2565b905060ff831615612ea157600061391687846141e2565b9050600061392488846141e2565b9050612e9e8886838518614203565b600061393e83614380565b9050600061394b846141cb565b90506000613958856142f2565b9050600061396687846141e2565b9050600061397488846141e2565b9050612f0b886139848488614237565b83614420565b6000613995836141ae565b905060006139a2846141cb565b905060006139af856142f2565b905060ff831615612ea15760006139c687846141e2565b905060006139d488846141e2565b9050612e9e88866001600160401b038516603f85161b614203565b60006139fa8361424e565b90506000613a07846141cb565b90506000613a14856142f2565b90506000613a2287846141e2565b90506000613a3088846141e2565b90508060070b8260070b1215612f0b57612f1588612f8a8888614237565b6000613a5983614380565b90506000613a66846141cb565b90506000613a73856142f2565b90506000613a8187846141e2565b90506000613a8f88846141e2565b9050612f0b88613a9f8488614237565b836144a8565b6000613ab0836141ae565b90506000613abd846141cb565b90506000613aca856142f2565b90506000613adb61334b88856141e2565b90506000613aec61334b89856141e2565b905060ff851615612f0b5760008183036135e3565b6000613b0c8361419f565b90506000613b19846141ae565b90506000613b26856141cb565b905060ff821615612ea1576000613b3d87836141e2565b905061304d8784613b4e8760030b90565b8418614203565b6000613b60836141ae565b90506000613b6d846141cb565b90506000613b7a856142f2565b905060ff831615612ea1576000613b9187846141e2565b90506000613b9f88846141e2565b9050612e9e8886600785900b603f85161d614203565b6000613bc08361419f565b90506000613bcd846141ae565b90506000613bda856141cb565b90506000613be887836141e2565b90506000613bff88613bfa8488614237565b6144d5565b905060ff841615612f0b57612f0b88858361ffff16614203565b6000613c2483614380565b90506000613c31846141cb565b90506000613c3e856142f2565b90506000613c4c87846141e2565b90506000613c5a88846141e2565b9050612f0b88613c6a8488614237565b83614528565b6000613c7b836141ae565b90506000613c88846141cb565b90506000613c95856142f2565b90506000613ca387846141e2565b90506000613cb188846141e2565b9050600063ffffffff8316601f83161c5b905060ff861615613cdc57613cdc89876130f38460030b90565b613ce68988614229565b505050505050505050565b6000613cfc8361419f565b90506000613d09846141ae565b90506000613d16856141cb565b90506000613d2487836141e2565b90506000613d36886134db8488614237565b905060ff841615612f0b57612f0b88858363ffffffff16614203565b6000613d5d836141ae565b90506000613d6a846141cb565b90506000613d77856142f2565b90506000613d8587846141e2565b90506000613d9388846141e2565b9050600063ffffffff8316601f83161b613cc2565b6000613db38361419f565b90506000613dc0846141ae565b90506000613dcd856141cb565b90506000613ddb87836141e2565b90506000613ded886138008488614237565b905060ff841615612f0b57612f0b88856130f38460000b90565b6000613e12836141ae565b90506000613e1f846141cb565b90506000613e2c856142f2565b905060ff831615612ea1576000613e4387846141e2565b90506000613e5188846141e2565b90506000816001600160401b0316836001600160401b03161015613e73575060015b613e7e898783614203565b5050506117e78685614229565b6000613e96836141ae565b90506000613ea3846141cb565b90506000613eb0856142f2565b90506000613ec161334b88856141e2565b90506000613ecf88846141e2565b90506000600383900b601f83161d613cc2565b6000613eed8361419f565b90506000613efa846141ae565b90506000613f07856141cb565b90506000613f1587836141e2565b90506000613f2788613bfa8488614237565b905060ff841615612f0b57612f0b88856130f38460010b90565b6000613f4c8361419f565b90506000613f59846141ae565b90506000613f66856141cb565b905060ff821615612ea1576000613f7d87836141e2565b905061304d8784613f8e8760030b90565b8417614203565b6000613fa08361419f565b90506000613fad846141ae565b90506000613fba856141cb565b905060ff821615612ea1576000613fd187836141e2565b9050613fdd8460030b90565b6001600160401b0316816001600160401b031610156140075761400287846001614203565b61304d565b61304d87846000614203565b600061401e836141ae565b9050600061402b846141cb565b90506000614038856142f2565b905060ff831615612ea157600061404f87846141e2565b9050600061405d88846141e2565b905060008160070b8360070b1215613e7357506001613e7e898783614203565b60006140888361419f565b90506000614095846141ae565b905060006140a2856141cb565b905060ff821615612ea15760006140b987836141e2565b90508360030b8160070b12156140075761400287846001614203565b61190f8382614229565b61190f836140ec84614151565b6140f5846145a7565b6040516001600160c01b03199091166020820152602801604051602081830303815290604052805190602001206145b5565b600080614133836145ce565b90506008836020018181516141489190614eb6565b90525092915050565b600061150282826145e2565b60008061416a8382614648565b9050610b968482614693565b600061418182614714565b60c01c92915050565b6000610bd6836001600160401b038416612d36565b6000600382900b60141d611502565b6000611502660ffffffff00000601484901b165b601b1c601f1690565b6000611502650ffffffff000600c84901b166141c2565b600061034060f8600384901b1601610b96846001600160401b038316612d36565b61034060f8600384901b1601614223846001600160401b038316846140df565b50505050565b6004810161190f838261478b565b6000806142448360030b90565b9093019392505050565b60008061426b600384900b601f1d5b600c1b650ffffffff0001690565b9050600061429861428b6401fffffffe600187901b165b601a1c603f1690565b60051b641fffffffe01690565b905060006142b5600f600887901c165b60011b6401fffffffe1690565b905060006142e56142d766ffffffff000000601889901b165b601f1c60011690565b600b1b6507fffffff8001690565b9290931717179392505050565b6000611502647fffffff80600784901b166141c2565b612d24828261478b565b6000600382900b601f1d60141b660ffffffff00000168161433a601585901c6103ff166142a8565b905060006143566142d76507fffffff800600b88901b166142ce565b905060006142e560ff600c88901c1661425d565b6000611502643fffffffc0600684901b16614282565b6000614398660ffffffff00000601484901b166141c2565b6143a8600384900b60191d61428b565b1792915050565b60078216156144005760405162461bcd60e51b815260206004820152601e60248201527f6d6973616c69676e656420777269746555696e74363420616464726573730000604482015260640161034b565b61190f838383614796565b60006007198216816038600385901b1661277f565b60038216156144715760405162461bcd60e51b815260206004820152601e60248201527f6d6973616c69676e656420777269746555696e74333220616464726573730000604482015260640161034b565b6007198216600383901b603816600061448a8684612de8565b9050600061449b85602084866147aa565b905061045b8785836143af565b6007198216600383901b60381660006144c18684612de8565b9050600061449b8560ff16600884866147aa565b6000600182161561276f5760405162461bcd60e51b815260206004820152601d60248201527f6d6973616c69676e6564207265616455696e7431362061646472657373000000604482015260640161034b565b60018216156145795760405162461bcd60e51b815260206004820152601e60248201527f6d6973616c69676e656420777269746555696e74313620616464726573730000604482015260640161034b565b6007198216600383901b60381660006145928684612de8565b9050600061449b8561ffff16601084866147aa565b60006115028260c01b614714565b60006145c18382614648565b9050614223848284614858565b600061150282805160209182015101015190565b6000600160ff83161b8360078116156145fd576145fd614e4e565b671fffffffffffffff600386901c1680614618600185614f3d565b166001600160401b031660001461463157614631614e4e565b600061463d8483614f74565b979650505050505050565b604080518082019091526000808252602082015261466f6001600160401b038416836148ee565b50604080518082019091526001600160401b0392909216825260ff16602082015290565b6000806146a38460200151614935565b60208501519091506000906146b990858461495f565b8551909150811461470c5760405162461bcd60e51b815260206004820152601e60248201527f5265616420726567696f6e20726f6f7420646f65736e2774206d617463680000604482015260640161034b565b509392505050565b603881811b6001600160f81b031916602883811b60ff60f01b1691909117601884811b60ff60e81b1691909117600885811b60ff60e01b169190911760ff60d81b9186901c919091161760ff60d01b9185901c919091161760ff60c81b9184901c919091161760ff60c01b9290911c919091161790565b612d24610330612d1c565b61190f836001600160401b038416836140df565b600060406147b88584614f9a565b63ffffffff1611156148175760405162461bcd60e51b815260206004820152602260248201527f636f70794269747320636f756e742065786365656473206c696d6974206f66206044820152610d8d60f21b606482015260840161034b565b600061482a6001603f871681901b614f3d565b90506001600160401b038116603f84161b19905083811663ffffffff8716603f85161b179695505050505050565b60006148678460200151614935565b602085015190915060009061487d90858461499c565b50855190915081146148d15760405162461bcd60e51b815260206004820152601f60248201527f577269746520726567696f6e20726f6f7420646f65736e2774206d6174636800604482015260640161034b565b60208501516000906148e490868661495f565b9095525050505050565b6000600160ff83161b905061490c6001672000000000000000614f3d565b6001600160401b031661491f8285614fb7565b6001600160401b03161061190f5761190f614e4e565b60008061494a83805160209182015101015190565b90506020836020018181516141489190614eb6565b6000808061496e86868661499c565b602088018051929450909250611fe0600584901b169161498f908390614eb6565b9052509095945050505050565b60008060006149af856020015160ff1690565b9050603d60ff82161115614a135760405162461bcd60e51b815260206004820152602560248201527f43616e6e6f7420626520626967676572207468616e20746865207472656520696044820152643a39b2b63360d91b606482015260840161034b565b84516000614a2283603d614fe2565b905060005b8160ff16816001600160401b03161015614b2c57600060405180604001604052808b6000015181526020016005846001600160401b0316901b6001600160401b03168c60200151614a789190614eb6565b90529050614a936001600160401b038581169084161c614b3b565b15614ada5787614aab82805160209182015101015190565b604080516020810193909352820152606001604051602081830303815290604052805190602001209750614b19565b614aec81805160209182015101015190565b60408051602081019290925281018990526060016040516020818303038152906040528051906020012097505b5080614b2481614ffb565b915050614a27565b50949794965093945050505050565b6000614b48600283614e7a565b6001600160401b03161592915050565b60008083601f840112614b6a57600080fd5b5081356001600160401b03811115614b8157600080fd5b6020830191508360208260051b8501011115611a0257600080fd5b600080600080600060808688031215614bb457600080fd5b8535945060208601356001600160401b03811115614bd157600080fd5b614bdd88828901614b58565b9699909850959660408101359660609091013595509350505050565b600060408284031215614c0b57600080fd5b50919050565b60008060008060008060c08789031215614c2a57600080fd5b614c348888614bf9565b955060408701359450606087013593506080870135925060a08701356001600160401b03811115614c6457600080fd5b614c7089828a01614b58565b979a9699509497509295939492505050565b600080600080600060a08688031215614c9a57600080fd5b614ca48787614bf9565b9450604086013593506060860135925060808601356001600160401b0380821115614cce57600080fd5b818801915088601f830112614ce257600080fd5b813581811115614cf157600080fd5b896020828501011115614d0357600080fd5b9699959850939650602001949392505050565b600060408284031215614d2857600080fd5b610bd68383614bf9565b600060208284031215614d4457600080fd5b5035919050565b600080600080600060c08688031215614d6357600080fd5b614d6d8787614bf9565b97604087013597506060870135966080810135965060a00135945092505050565b600080600060808486031215614da357600080fd5b614dad8585614bf9565b95604085013595506060909401359392505050565b6020808252601690820152751d1bdd5c9b985b595b9d081a5cc8199a5b9a5cda195960521b604082015260600190565b600060408284031215614e0457600080fd5b604051604081018181106001600160401b0382111715614e3457634e487b7160e01b600052604160045260246000fd5b604052823581526020928301359281019290925250919050565b634e487b7160e01b600052600160045260246000fd5b634e487b7160e01b600052601260045260246000fd5b60006001600160401b0380841680614e9457614e94614e64565b92169190910692915050565b634e487b7160e01b600052601160045260246000fd5b8082018082111561150257611502614ea0565b600082614ed857614ed8614e64565b500690565b6001600160401b03818116838216019080821115614efd57614efd614ea0565b5092915050565b634e487b7160e01b600052603260045260246000fd5b60006001600160401b03821680614f3357614f33614ea0565b6000190192915050565b6001600160401b03828116828216039080821115614efd57614efd614ea0565b808202811582820484141761150257611502614ea0565b60006001600160401b0380841680614f8e57614f8e614e64565b92169190910492915050565b63ffffffff818116838216019080821115614efd57614efd614ea0565b6001600160401b03818116838216028082169190828114614fda57614fda614ea0565b505092915050565b60ff828116828216039081111561150257611502614ea0565b60006001600160401b0380831681810361501757615017614ea0565b600101939250505056fea264697066735822122038a53bd660f7ea26977c91e95f75772a27383bd17d039dcb1d2d62ccced4cfea64736f6c63430008140033",
    "linkReferences": {}
  },
  "methodIdentifiers": {
    "advanceMatch((bytes32,bytes32),bytes32,bytes32,bytes32,bytes32)": "fcc85391",
    "canWinMatchByTimeout((bytes32,bytes32))": "6a1a140d",
    "getCommitment(bytes32)": "7795820c",
    "getMatch(bytes32)": "fcc6077d",
    "getMatchCycle(bytes32)": "8acc802d",
    "joinTournament(bytes32,bytes32[],bytes32,bytes32)": "1d5bf796",
    "maximumEnforceableDelay()": "60f302dc",
    "rootTournamentFinalState()": "92b9ead5",
    "sealLeafMatch((bytes32,bytes32),bytes32,bytes32,bytes32,bytes32[])": "5017746a",
    "tournamentLevelConstants()": "a1af906b",
    "tournamentWinner()": "bcb01295",
    "winLeafMatch((bytes32,bytes32),bytes32,bytes32,bytes)": "6041ddd5",
    "winMatchByTimeout((bytes32,bytes32),bytes32,bytes32)": "ff78e0ee"
  },
  "id": 38
}