{
  "abi": [
    {
      "inputs": [
        {
          "internalType": "contract IInnerTournamentFactory",
          "name": "_innerFactory",
          "type": "address"
        },
        {
          "internalType": "contract IUArchState",
          "name": "_stateInterface",
          "type": "address"
        },
        {
          "internalType": "contract IUArchStep",
          "name": "_stepInterface",
          "type": "address"
        }
      ],
      "stateMutability": "nonpayable",
      "type": "constructor"
    },
    {
      "anonymous": false,
      "inputs": [
        {
          "indexed": false,
          "internalType": "contract RootTournament",
          "name": "",
          "type": "address"
        }
      ],
      "name": "rootCreated",
      "type": "event"
    },
    {
      "inputs": [
        {
          "internalType": "Machine.Hash",
          "name": "_initialHash",
          "type": "bytes32"
        }
      ],
      "name": "instantiateSingle",
      "outputs": [
        {
          "internalType": "contract RootTournament",
          "name": "",
          "type": "address"
        }
      ],
      "stateMutability": "nonpayable",
      "type": "function"
    },
    {
      "inputs": [
        {
          "internalType": "Machine.Hash",
          "name": "_initialHash",
          "type": "bytes32"
        }
      ],
      "name": "instantiateTopOfMultiple",
      "outputs": [
        {
          "internalType": "contract RootTournament",
          "name": "",
          "type": "address"
        }
      ],
      "stateMutability": "nonpayable",
      "type": "function"
    }
  ],
  "bytecode": {
    "object": "0x60e060405234801561001057600080fd5b5060405161642838038061642883398101604081905261002f91610064565b6001600160a01b0392831660805290821660a0521660c0526100b1565b6001600160a01b038116811461006157600080fd5b50565b60008060006060848603121561007957600080fd5b83516100848161004c565b60208501519093506100958161004c565b60408501519092506100a68161004c565b809150509250925092565b60805160a05160c0516163496100df600039600061014d0152600061012c01526000608201526163496000f3fe608060405234801561001057600080fd5b50600436106100365760003560e01c80631e78da561461003b578063d514cfc71461006a575b600080fd5b61004e6100493660046101b3565b61007d565b6040516001600160a01b03909116815260200160405180910390f35b61004e6100783660046101b3565b610126565b6000807f0000000000000000000000000000000000000000000000000000000000000000836040516100ae90610199565b6001600160a01b03909216825260208201526040015b604051809103906000f0801580156100e0573d6000803e3d6000fd5b506040516001600160a01b03821681529091507fba35f4f3a38c454d2bb9d88f4c8e3d33eefc0eb6934f460a53fb758fd7009e689060200160405180910390a192915050565b600080827f00000000000000000000000000000000000000000000000000000000000000007f0000000000000000000000000000000000000000000000000000000000000000604051610178906101a6565b9283526001600160a01b0391821660208401521660408201526060016100c4565b612cf2806101cd83390190565b61345580612ebf83390190565b6000602082840312156101c557600080fd5b503591905056fe6101406040523480156200001257600080fd5b5060405162002cf238038062002cf28339810160408190526200003591620000d8565b6080819052600060a081905260c08190526001600160401b03421660e052602d6101008190528291849183918062000078565b6001600160401b031690620000bf565b62000084834262000068565b600080546001600160401b0319166001600160401b0392909216919091179055505050506001600160a01b031661012052506200014a915050565b60008282620000cf818362000114565b95945050505050565b60008060408385031215620000ec57600080fd5b82516001600160a01b03811681146200010457600080fd5b6020939093015192949293505050565b6001600160401b038181168382160190808211156200014357634e487b7160e01b600052601160045260246000fd5b5092915050565b60805160a05160c05160e0516101005161012051612b0b620001e760003960006107f301526000818161043c015281816116e9015261177a01526000818161041b015281816117240152611758015260008181610398015281816108540152818161093e01528181610b3f01528181610bba01528181610bec01526119040152600081816108330152610b1e015260006107630152612b0b6000f3fe608060405234801561001057600080fd5b50600436106100ea5760003560e01c806392b9ead51161008c578063bcb0129511610066578063bcb012951461028c578063fcc6077d14610294578063fcc8539114610304578063ff78e0ee1461031757600080fd5b806392b9ead514610228578063a1af906b14610247578063b401865c1461027957600080fd5b806360f302dc116100c857806360f302dc1461012a5780636a1a140d1461015a5780637795820c1461017d5780638acc802d1461020757600080fd5b80631d5bf796146100ef5780633c892a9c146101045780633f36e2fe14610117575b600080fd5b6101026100fd3660046126de565b61032a565b005b610102610112366004612750565b61049d565b610102610125366004612785565b61052b565b60005461013d906001600160401b031681565b6040516001600160401b0390911681526020015b60405180910390f35b61016d6101683660046127f6565b610a8a565b6040519015158152602001610151565b6101db61018b366004612812565b6040805180820182526000808252602091820181905292835260028152818320600382529282902054825180840190935292546001600160401b038082168452600160401b909104169082015291565b6040805183516001600160401b0390811682526020948501511693810193909352820152606001610151565b61021a610215366004612812565b610b0a565b604051908152602001610151565b610230610b6a565b604080519215158352602083019190915201610151565b61024f610bb8565b604080516001600160401b0394851681529284166020840152921691810191909152606001610151565b610102610287366004612840565b610c17565b61021a610f42565b6102a76102a2366004612812565b610f51565b6040516101519190600060c08201905082518252602083015160208301526040830151604083015260608301516001600160401b0380821660608501528060808601511660808501528060a08601511660a0850152505092915050565b610102610312366004612875565b610fef565b6101026103253660046128b8565b611288565b6103326116e3565b156103845760405162461bcd60e51b815260206004820152601b60248201527f746f75726e616d656e7420636865636b2d696e20656c6170736564000000000060448201526064015b60405180910390fd5b6000610390838361179e565b90506103bf817f00000000000000000000000000000000000000000000000000000000000000008888886117cd565b6103c8866107ec565b60008181526003602090815260408083208990556002825291829020825180840190935280546001600160401b038082168552600160401b909104169183019190915290610415906117f4565b610460817f00000000000000000000000000000000000000000000000000000000000000007f0000000000000000000000000000000000000000000000000000000000000000611840565b6040805180820190915281546001600160401b038082168352600160401b90910416602082015261049490839086866118e0565b50505050505050565b336000908152600560209081526040808320548084526004835292819020815160c08101835281548152600182015493810193909352600281015491830191909152600301546001600160401b038082166060840152600160401b820481166080840152600160801b9091041660a082015261051890611acb565b600061052383611b10565b90505b505050565b610533611b57565b156105505760405162461bcd60e51b815260040161037b906128ec565b600060048161056c610567368b90038b018b61291c565b611b7b565b81526020808201929092526040908101600020815160c0810183528154815260018201549381019390935260028101549183019190915260038101546001600160401b038082166060850152600160401b820481166080850152600160801b9091041660a083015291506105df90611bbd565b6040805160c081018252825481526001830154602082015260028301549181019190915260038201546001600160401b038082166060840152600160401b820481166080840152600160801b9091041660a082015261063f908787611c25565b6040805160c081018252825481526001830154602082015260028301549181019190915260038201546001600160401b038082166060840152600160401b820481166080840152600160801b9091041660a082015260009081906106a39089611c32565b6106bb576106b18389611c4b565b90925090506106cb565b6106c58388611cfd565b90925090505b88356000908152600260209081526040808320918c0135835282206106ef82611dd7565b6106f881611dd7565b60408051808201825283546001600160401b038082168352600160401b91829004811660208085019190915284518086019095528554808316865292909204169083015261074591611df7565b60038701549093506001600160401b031660000391506107ce9050577f000000000000000000000000000000000000000000000000000000000000000087146107c95760405162461bcd60e51b81526020600482015260166024820152751a5b9a5d1a585b081a185cda081a5b98dbdc9c9958dd60521b604482015260640161037b565b6107ef565b60038401546107ef906107ec906001906001600160401b031661298e565b50565b60007f00000000000000000000000000000000000000000000000000000000000000006001600160a01b0316637ba4ce1b898d60000135878f6020013588886109397f00000000000000000000000000000000000000000000000000000000000000007f00000000000000000000000000000000000000000000000000000000000000008f6040518060c00160405290816000820154815260200160018201548152602001600282015481526020016003820160009054906101000a90046001600160401b03166001600160401b03166001600160401b031681526020016003820160089054906101000a90046001600160401b03166001600160401b03166001600160401b031681526020016003820160109054906101000a90046001600160401b03166001600160401b03166001600160401b031681525050611e259092919063ffffffff16565b6109647f000000000000000000000000000000000000000000000000000000000000000060016129b5565b6040516001600160e01b031960e08b901b168152600481019890985260248801969096526044870194909452606486019290925260848501526001600160401b0390811660a485015260c48401919091521660e4820152610104016020604051808303816000875af11580156109de573d6000803e3d6000fd5b505050506040513d601f19601f82011682018060405250810190610a0291906129d5565b9050610a16610567368d90038d018d61291c565b6001600160a01b038216600090815260056020526040902055610a41610567368d90038d018d61291c565b6040516001600160a01b03831681527f166b786700a644dcec96aa84a92c26ecfee11b50956409c8cc83616042290d799060200160405180910390a25050505050505050505050565b803560009081526002602081815260408084208151808301835290546001600160401b038082168352600160401b9182900481168386015284880135875294845282862083518085019094525480861684520490931691810191909152610af082611e47565b1580610b025750610b0081611e47565b155b949350505050565b600080610b1683610f51565b9050610b63817f00000000000000000000000000000000000000000000000000000000000000007f0000000000000000000000000000000000000000000000000000000000000000611e25565b9392505050565b600080610b75611b57565b610b825750600091829150565b600080610b8d611e89565b9150915081610b9e57610b9e6129f2565b600090815260036020526040902054600194909350915050565b7f0000000000000000000000000000000000000000000000000000000000000000600080610be583611e9e565b9150610c107f0000000000000000000000000000000000000000000000000000000000000000611eed565b9050909192565b610c1f611b57565b15610c3c5760405162461bcd60e51b815260040161037b906128ec565b6001600160a01b038316600090815260056020526040902054610c5e81611f30565b600081815260046020908152604091829020825160c0810184528154815260018201549281019290925260028101549282019290925260038201546001600160401b038082166060840152600160401b820481166080840152600160801b9091041660a0820152610cce90611acb565b6040805160c081018252825481526001830154602082015260028301549181019190915260038201546001600160401b038082166060840152600160401b820481166080840152600160801b9091041660a0820152610d2c90611f73565b6000856001600160a01b031663bcb012956040518163ffffffff1660e01b8152600401602060405180830381865afa158015610d6c573d6000803e3d6000fd5b505050506040513d601f19601f82011682018060405250810190610d909190612a08565b9050610d9b81611fc6565b6000610da7868661179e565b9050818114610df85760405162461bcd60e51b815260206004820152601e60248201527f746f75726e616d656e742077696e6e657220697320646966666572656e740000604482015260640161037b565b600081815260026020908152604091829020825180840190935280546001600160401b038082168552600160401b909104169183019190915290610e3b90612013565b610ebb610eb4896001600160a01b03166360f302dc6040518163ffffffff1660e01b8152600401602060405180830381865afa158015610e7f573d6000803e3d6000fd5b505050506040513d601f19601f82011682018060405250810190610ea39190612a21565b425b6001600160401b031690612069565b8290612077565b6040805180820190915281546001600160401b038082168352600160401b909104166020820152610eef90839089896118e0565b505050600091825250600460209081526040808320838155600181018490556002810184905560030180546001600160c01b03191690556001600160a01b03909516825260059052928320929092555050565b6000610f4c61215c565b905090565b6040805160c081018252600080825260208201819052918101829052606081018290526080810182905260a081019190915250600090815260046020908152604091829020825160c081018452815481526001820154928101929092526002810154928201929092526003909101546001600160401b038082166060840152600160401b820481166080840152600160801b9091041660a082015290565b610ff7611b57565b156110145760405162461bcd60e51b815260040161037b906128ec565b600060048161102b610567368a90038a018a61291c565b81526020808201929092526040908101600020815160c0810183528154815260018201549381019390935260028101549183019190915260038101546001600160401b038082166060850152600160401b820481166080850152600160801b9091041660a0830152915061109e90611acb565b6040805160c081018252825481526001830154602082015260028301549181019190915260038201546001600160401b038082166060840152600160401b820481166080840152600160801b9091041660a08201526110fc9061218c565b6040805160c081018252825481526001830154602082015260028301549181019190915260038201546001600160401b038082166060840152600160401b820481166080840152600160801b9091041660a082015261115c908686611c25565b6040805160c081018252825481526001830154602082015260028301549181019190915260038201546001600160401b038082166060840152600160401b820481166080840152600160801b9091041660a08201526111bb9086611c32565b6111da576111ca8584846121e9565b6111d5818484612240565b6111f0565b6111e58484846121e9565b6111f08184846122c3565b8535600090815260026020526040902061120990612372565b6112286002600088602001358152602001908152602001600020612372565b61123a6105673688900388018861291c565b815460018301546040517f29ff393c59c37f91e930fad4d88447efc58cf5d7c048499e1f20edb3699413789261127892908252602082015260400190565b60405180910390a2505050505050565b611290611b57565b156112ad5760405162461bcd60e51b815260040161037b906128ec565b611332600460006112c66105673688900388018861291c565b81526020808201929092526040908101600020815160c08101835281548152600182015493810193909352600281015491830191909152600301546001600160401b038082166060840152600160401b820481166080840152600160801b9091041660a0820152611acb565b8235600090815260026020908152604080832082870135845292819020815180830190925283546001600160401b038082168452600160401b909104169282019290925261137f90612013565b6040805180820190915281546001600160401b038082168352600160401b9091041660208201526113af90612013565b6040805180820190915282546001600160401b038082168352600160401b9091041660208201526113df90611e47565b801561141857506040805180820190915281546001600160401b038082168352600160401b90910416602082015261141690611e47565b155b156115025761142985358585612432565b61148d5760405162461bcd60e51b815260206004820152602f60248201527f6368696c64206e6f64657320646f206e6f74206d6174636820706172656e742060448201526e28636f6d6d69746d656e744f6e652960881b606482015260840161037b565b6040805180820190915281546001600160401b038082168352600160401b9091041660208201526114c8906114c190612446565b8390612077565b6040805180820190915282546001600160401b038082168352600160401b9091041660208201526114fd9086359086866118e0565b611691565b6040805180820190915282546001600160401b038082168352600160401b90910416602082015261153290611e47565b15801561156a57506040805180820190915281546001600160401b038082168352600160401b90910416602082015261156a90611e47565b156116515761157e60208601358585612432565b6115e25760405162461bcd60e51b815260206004820152602f60248201527f6368696c64206e6f64657320646f206e6f74206d6174636820706172656e742060448201526e28636f6d6d69746d656e7454776f2960881b606482015260840161037b565b6040805180820190915282546001600160401b038082168352600160401b90910416602082015261161690610eb490612446565b6040805180820190915281546001600160401b038082168352600160401b909104166020828101919091526114fd91908701359086866118e0565b60405162461bcd60e51b815260206004820152601560248201527418d85b9b9bdd081dda5b88189e481d1a5b595bdd5d605a1b604482015260640161037b565b600460006116a76105673689900389018961291c565b81526020810191909152604001600090812081815560018101829055600281019190915560030180546001600160c01b03191690555050505050565b6000602d7f00000000000000000000000000000000000000000000000000000000000000006001600160401b0316111561174b57610f4c6001600160401b037f000000000000000000000000000000000000000000000000000000000000000016602d61246c565b610f4c6001600160401b037f0000000000000000000000000000000000000000000000000000000000000000167f000000000000000000000000000000000000000000000000000000000000000061246c565b604080516020808201859052818301849052825180830384018152606090920190925280519101205b92915050565b6117ed6117d985611eed565b869060016001600160401b039091161b8585855b5050505050565b6117fd81612482565b6107ec5760405162461bcd60e51b815260206004820152601460248201527318db1bd8dac81a5cc81a5b9a5d1a585b1a5e995960621b604482015260640161037b565b600061185f61184f8442610ea5565b6001600160401b03841690612496565b90506001600160401b0381166118c15760405162461bcd60e51b815260206004820152602160248201527f63616e27742063726561746520636c6f636b2077697468207a65726f2074696d6044820152606560f81b606482015260840161037b565b83546001600160801b0319166001600160401b03909116179092555050565b6000806118eb611e89565b915091508115611a9e5760008061192d838988886119287f0000000000000000000000000000000000000000000000000000000000000000611eed565b6124c7565b60008281526004602090815260408083208451815584830151600182015584820151600280830191909155606086015160039092018054608088015160a08901516001600160401b039586166001600160801b031990931692909217600160401b91861682021767ffffffffffffffff60801b1916600160801b92861692909202919091179091558a8652908452828520835180850190945280548084168552919091049091169282019290925293955091935090916119ed908a61256f565b6040805180820190915283546001600160401b038082168352600160401b909104166020820152909150600090611a24908b611df7565b9050611a2f82611b10565b50611a466107ec6001600160401b0384168361259e565b611a4f83612372565b611a596000600155565b8a867f32911001007d8c9879b608566be8acc2184592f0a43706f804f285455bb0f52e8b604051611a8c91815260200190565b60405180910390a35050505050611ac3565b8451600054611aba916107ec916001600160401b03169061259e565b611ac386600155565b505050505050565b80516107ec5760405162461bcd60e51b81526020600482015260146024820152731b585d18da08191bd95cc81b9bdd08195e1a5cdd60621b604482015260640161037b565b600080546001600160401b039081169083161115611b4f57506000805467ffffffffffffffff19166001600160401b0392909216919091179055600190565b506000919050565b60008054610f4c906001600160401b0316425b6001600160401b0391821691161190565b600081604051602001611ba09190815181526020918201519181019190915260400190565b604051602081830303815290604052805190602001209050919050565b60a08101516001600160401b03166001146107ec5760405162461bcd60e51b815260206004820152602260248201527f6d61746368206973206e6f7420726561647920746f2062652066696e616c697a604482015261195960f21b606482015260840161037b565b82516105269083836121e9565b6000610b63836020015183611e2190919063ffffffff16565b6000808360030160109054906101000a90046001600160401b03166001600160401b0316600114611c7e57611c7e6129f2565b600280850184905560038501805467ffffffffffffffff60801b191690819055611cb89190600160401b90046001600160401b0316612a3e565b6001600160401b0316600003611ce15760018401549150611cda846002015490565b9050611cf6565b60028401549150611cf3846001015490565b90505b9250929050565b6000808360030160109054906101000a90046001600160401b03166001600160401b0316600114611d3057611d306129f2565b6001808501849055600385018054600090611d559084906001600160401b03166129b5565b82546101009290920a6001600160401b0381810219909316918316021790915560038601805467ffffffffffffffff60801b191690819055611da39250600291600160401b90910416612a3e565b6001600160401b0316600003611dc55760028401549150611cda846001015490565b60018401549150611cf3846002015490565b8054600160401b90046001600160401b0316156107ec576107ec81612372565b805182516000916001600160401b0390811691161115611e19575081516117c7565b5080516117c7565b1490565b600080611e3183611e9e565b9050611e3e8585836125ac565b95945050505050565b60208101516000906001600160401b0316611e6457506001919050565b6117c7611e76425b8460200151612069565b83516001600160401b0391821691161190565b6001546000908015611e9a57600191505b9091565b6040805160808101825260188152600e602082015260079181019190915260006060820181905290806001600160401b03841660048110611ee157611ee1612a72565b60200201519392505050565b6040805160808101825260278152600a602082015260079181018290526060810191909152600090806001600160401b03841660048110611ee157611ee1612a72565b806107ec5760405162461bcd60e51b81526020600482015260136024820152721b585d18da08191bd95cdb89dd08195e1a5cdd606a1b604482015260640161037b565b60a08101516001600160401b0316156107ec5760405162461bcd60e51b81526020600482015260156024820152741b585d18da081a5cc81b9bdd08199a5b9a5cda1959605a1b604482015260640161037b565b806107ec5760405162461bcd60e51b815260206004820152601760248201527f74726565206e6f646520646f65736e2774206578697374000000000000000000604482015260640161037b565b61201c81612482565b156107ec5760405162461bcd60e51b815260206004820152601860248201527f636c6f636b206973206e6f7420696e697469616c697a65640000000000000000604482015260640161037b565b60008282611e3e818361298e565b815460009061208f906001600160401b031683612496565b90506001600160401b0381166120f35760405162461bcd60e51b815260206004820152602360248201527f63616e277420726573657420636c6f636b2077697468206e6f2074696d65206c60448201526219599d60ea1b606482015260840161037b565b60006121096001600160401b038316602d61259e565b905061212b612119602d806129b5565b6001600160401b039081169083161190565b156118c15761213b602d806129b5565b905083546001600160801b0319166001600160401b03909116179092555050565b6000612166611b57565b6121705750600090565b60008061217b611e89565b91509150816117c7576117c76129f2565b60a08101516001600160401b03166001036107ec5760405162461bcd60e51b815260206004820152601e60248201527f6d6174636820697320726561647920746f2062652066696e616c697a65640000604482015260640161037b565b6121f4838383612432565b6105265760405162461bcd60e51b815260206004820152601e60248201527f6368696c64206e6f64657320646f6e2774206d6174636820706172656e740000604482015260640161037b565b60038301546001600160801b9091046001600160401b031611612265576122656129f2565b600183018054845582905560028301819055600383018054600160801b90046001600160401b031690601061229983612a88565b91906101000a8154816001600160401b0302191690836001600160401b0316021790555050505050565b60038301546001600160801b9091046001600160401b0316116122e8576122e86129f2565b60028301805484556001808501849055908290556003840180546001600160401b03600160801b820481169390931b92600091612327918591166129b5565b92506101000a8154816001600160401b0302191690836001600160401b0316021790555082600301601081819054906101000a90046001600160401b03168092919061229990612a88565b6040805180820190915281546001600160401b038082168352600160401b9091041660208201526000906123a5906125fb565b90506001600160401b03811661240b5760405162461bcd60e51b815260206004820152602560248201527f63616e277420616476616e636520636c6f636b2077697468206e6f2074696d65604482015264081b19599d60da1b606482015260840161037b565b61241482612632565b815467ffffffffffffffff19166001600160401b0391909116179055565b6000610b02612441848461179e565b851490565b80516000906117c79061245d428560200151612069565b6001600160401b031690612496565b6000610b636001600160401b0384168342612681565b80516000906001600160401b0316156117c7565b600082826001600160401b03808216908316106124bc576124b7818361298e565b611e3e565b506000949350505050565b6040805160c081018252600080825260208201819052918101829052606081018290526080810182905260a08101829052612503868686612432565b61250f5761250f6129f2565b6040805180820182528881526020808201899052825160c0810184528a8152908101889052918201869052600060608301526001600160401b0385166080830181905260a08301529061256182611b7b565b999098509650505050505050565b80518251600091829161258d916001600160401b039091169061259e565b9050610b026001600160401b034216825b60008282611e3e81836129b5565b600080826001600160401b03166001901b90506000856060015160016125d291906129b5565b6001600160401b031690506125e78282612aab565b6125f19086612ac2565b9695505050505050565b60208101516000906001600160401b031661261557505190565b6117c761262142611e6c565b83516001600160401b031690612496565b8054600160401b90046001600160401b031661266d57805467ffffffffffffffff60401b1916600160401b6001600160401b03421602179055565b805467ffffffffffffffff60401b19169055565b6000610b0082611b6a6001600160401b0387168661259e565b60008083601f8401126126ac57600080fd5b5081356001600160401b038111156126c357600080fd5b6020830191508360208260051b8501011115611cf657600080fd5b6000806000806000608086880312156126f657600080fd5b8535945060208601356001600160401b0381111561271357600080fd5b61271f8882890161269a565b9699909850959660408101359660609091013595509350505050565b6001600160401b03811681146107ec57600080fd5b60006020828403121561276257600080fd5b8135610b638161273b565b60006040828403121561277f57600080fd5b50919050565b60008060008060008060c0878903121561279e57600080fd5b6127a8888861276d565b955060408701359450606087013593506080870135925060a08701356001600160401b038111156127d857600080fd5b6127e489828a0161269a565b979a9699509497509295939492505050565b60006040828403121561280857600080fd5b610b63838361276d565b60006020828403121561282457600080fd5b5035919050565b6001600160a01b03811681146107ec57600080fd5b60008060006060848603121561285557600080fd5b83356128608161282b565b95602085013595506040909401359392505050565b600080600080600060c0868803121561288d57600080fd5b612897878761276d565b97604087013597506060870135966080810135965060a00135945092505050565b6000806000608084860312156128cd57600080fd5b6128d7858561276d565b95604085013595506060909401359392505050565b6020808252601690820152751d1bdd5c9b985b595b9d081a5cc8199a5b9a5cda195960521b604082015260600190565b60006040828403121561292e57600080fd5b604051604081018181106001600160401b038211171561295e57634e487b7160e01b600052604160045260246000fd5b604052823581526020928301359281019290925250919050565b634e487b7160e01b600052601160045260246000fd5b6001600160401b038281168282160390808211156129ae576129ae612978565b5092915050565b6001600160401b038181168382160190808211156129ae576129ae612978565b6000602082840312156129e757600080fd5b8151610b638161282b565b634e487b7160e01b600052600160045260246000fd5b600060208284031215612a1a57600080fd5b5051919050565b600060208284031215612a3357600080fd5b8151610b638161273b565b60006001600160401b0380841680612a6657634e487b7160e01b600052601260045260246000fd5b92169190910692915050565b634e487b7160e01b600052603260045260246000fd5b60006001600160401b03821680612aa157612aa1612978565b6000190192915050565b80820281158282048414176117c7576117c7612978565b808201808211156117c7576117c761297856fea26469706673582212207af507877d1a3f4be666defe4c5d1c94c5c305a5c80ae07a2e1a3c7297d0dce264736f6c634300081400336101606040523480156200001257600080fd5b5060405162003455380380620034558339810160408190526200003591620000fc565b6080839052600060a081905260c08190526001600160401b03421660e052602d610100819052849184918491849190806200007b565b6001600160401b031690620000ca565b6200008783426200006b565b600080546001600160401b0319166001600160401b03929092169190911790555050506001600160a01b0392831661012052501661014052506200017a92505050565b60008282620000da818362000144565b95945050505050565b6001600160a01b0381168114620000f957600080fd5b50565b6000806000606084860312156200011257600080fd5b8351925060208401516200012681620000e3565b60408501519092506200013981620000e3565b809150509250925092565b6001600160401b038181168382160190808211156200017357634e487b7160e01b600052601160045260246000fd5b5092915050565b60805160a05160c05160e0516101005161012051610140516132486200020d6000396000612232015260006121f801526000818161040e0152818161152201526115b30152600081816103ed0152818161155d015261159101526000818161036a015281816108130152818161088e015281816108c00152611746015260006107f2015260006106c401526132486000f3fe608060405234801561001057600080fd5b50600436106100cf5760003560e01c806392b9ead51161008c578063c51b306111610066578063c51b306114610253578063fcc6077d14610266578063fcc85391146102d6578063ff78e0ee146102e957600080fd5b806392b9ead5146101fa578063a1af906b14610219578063bcb012951461024b57600080fd5b80631d5bf796146100d45780635017746a146100e957806360f302dc146100fc5780636a1a140d1461012c5780637795820c1461014f5780638acc802d146101d9575b600080fd5b6100e76100e23660046129ac565b6102fc565b005b6100e76100f7366004612a21565b61046f565b60005461010f906001600160401b031681565b6040516001600160401b0390911681526020015b60405180910390f35b61013f61013a366004612a92565b61075e565b6040519015158152602001610123565b6101ad61015d366004612aae565b6040805180820182526000808252602091820181905292835260028152818320600382529282902054825180840190935292546001600160401b038082168452600160401b909104169082015291565b6040805183516001600160401b0390811682526020948501511693810193909352820152606001610123565b6101ec6101e7366004612aae565b6107de565b604051908152602001610123565b61020261083e565b604080519215158352602083019190915201610123565b61022161088c565b604080516001600160401b0394851681529284166020840152921691810191909152606001610123565b6101ec6108eb565b6100e7610261366004612ac7565b6108fa565b610279610274366004612aae565b610d83565b6040516101239190600060c08201905082518252602083015160208301526040830151604083015260608301516001600160401b0380821660608501528060808601511660808501528060a08601511660a0850152505092915050565b6100e76102e4366004612b7b565b610e21565b6100e76102f7366004612bbe565b6110ba565b61030461151c565b156103565760405162461bcd60e51b815260206004820152601b60248201527f746f75726e616d656e7420636865636b2d696e20656c6170736564000000000060448201526064015b60405180910390fd5b600061036283836115d7565b9050610391817f0000000000000000000000000000000000000000000000000000000000000000888888611606565b61039a8661074d565b60008181526003602090815260408083208990556002825291829020825180840190935280546001600160401b038082168552600160401b9091041691830191909152906103e79061162d565b610432817f00000000000000000000000000000000000000000000000000000000000000007f0000000000000000000000000000000000000000000000000000000000000000611679565b6040805180820190915281546001600160401b038082168352600160401b9091041660208201526104669083908686611722565b50505050505050565b61047761190d565b156104945760405162461bcd60e51b815260040161034d90612bf2565b60006004816104b06104ab368b90038b018b612cb2565b611931565b81526020808201929092526040908101600020815160c0810183528154815260018201549381019390935260028101549183019190915260038101546001600160401b038082166060850152600160401b820481166080850152600160801b9091041660a0830152915061052390611973565b6040805160c081018252825481526001830154602082015260028301549181019190915260038201546001600160401b038082166060840152600160401b820481166080840152600160801b9091041660a0820152610581906119b8565b6040805160c081018252825481526001830154602082015260028301549181019190915260038201546001600160401b038082166060840152600160401b820481166080840152600160801b9091041660a08201526105e1908787611a20565b6040805160c081018252825481526001830154602082015260028301549181019190915260038201546001600160401b038082166060840152600160401b820481166080840152600160801b9091041660a082015260009081906106459089611a32565b61065d576106538389611a4b565b909250905061066d565b6106678388611afd565b90925090505b88356000908152600260209081526040808320918c0135835290912061069282611bd7565b61069b82611bf3565b6106a481611bd7565b6106ad81611bf3565b60038501546001600160401b031660000361072f577f0000000000000000000000000000000000000000000000000000000000000000881461072a5760405162461bcd60e51b81526020600482015260166024820152751a5b9a5d1a585b081a185cda081a5b98dbdc9c9958dd60521b604482015260640161034d565b610750565b60038501546107509061074d906001906001600160401b0316612cfa565b50565b505050939055505050505050565b803560009081526002602081815260408084208151808301835290546001600160401b038082168352600160401b91829004811683860152848801358752948452828620835180850190945254808616845204909316918101919091526107c482611cb3565b15806107d657506107d481611cb3565b155b949350505050565b6000806107ea83610d83565b9050610837817f00000000000000000000000000000000000000000000000000000000000000007f0000000000000000000000000000000000000000000000000000000000000000611cf5565b9392505050565b60008061084961190d565b6108565750600091829150565b600080610861611d17565b915091508161087257610872612d21565b600090815260036020526040902054600194909350915050565b7f00000000000000000000000000000000000000000000000000000000000000006000806108b983611d2c565b91506108e47f0000000000000000000000000000000000000000000000000000000000000000611d7b565b9050909192565b60006108f5611dbe565b905090565b61090261190d565b1561091f5760405162461bcd60e51b815260040161034d90612bf2565b60006004816109366104ab368d90038d018d612cb2565b81526020808201929092526040908101600020815160c0810183528154815260018201549381019390935260028101549183019190915260038101546001600160401b038082166060850152600160401b820481166080850152600160801b9091041660a083015291506109a990611973565b6040805160c081018252825481526001830154602082015260028301549181019190915260038201546001600160401b038082166060840152600160401b820481166080840152600160801b9091041660a0820152610a0790611dee565b88356000908152600260209081526040808320828d0135845292819020815180830190925283546001600160401b038082168452600160401b9091041692820192909252610a5490611e41565b6040805180820190915281546001600160401b038082168352600160401b909104166020820152610a8490611e41565b85610a8f8b80612d37565b905014610ade5760405162461bcd60e51b815260206004820152601b60248201527f70726f6f6673206c656e67746820646f65736e2774206d617463680000000000604482015260640161034d565b8254600090610b3590610af08d612db7565b8c8c80806020026020016040519081016040528093929190818152602001838360200280828437600092019190915250610b3092508d91508e9050612eba565b611e97565b9050600080610b43866122b7565b9092509050610b5b8e35610b578a8a6115d7565b1490565b15610bf457818314610baf5760405162461bcd60e51b815260206004820152601d60248201527f66696e616c207374617465206f6e6520646f65736e2774206d61746368000000604482015260640161034d565b610bba8560006123b2565b6040805180820190915285546001600160401b038082168352600160401b909104166020820152610bef908f35908a8a611722565b610d26565b610c0660208f0135610b578a8a6115d7565b15610cde57808314610c5a5760405162461bcd60e51b815260206004820152601d60248201527f66696e616c2073746174652074776f20646f65736e2774206d61746368000000604482015260640161034d565b610c658460006123b2565b610bef8e60200135856040518060400160405290816000820160009054906101000a90046001600160401b03166001600160401b03166001600160401b031681526020016000820160089054906101000a90046001600160401b03166001600160401b03166001600160401b0316815250508a8a611722565b60405162461bcd60e51b815260206004820152601f60248201527f77726f6e67206c6566742f7269676874206e6f64657320666f72207374657000604482015260640161034d565b50505060046000610d418d8036038101906104ab9190612cb2565b81526020810191909152604001600090812081815560018101829055600281019190915560030180546001600160c01b03191690555050505050505050505050565b6040805160c081018252600080825260208201819052918101829052606081018290526080810182905260a081019190915250600090815260046020908152604091829020825160c081018452815481526001820154928101929092526002810154928201929092526003909101546001600160401b038082166060840152600160401b820481166080840152600160801b9091041660a082015290565b610e2961190d565b15610e465760405162461bcd60e51b815260040161034d90612bf2565b6000600481610e5d6104ab368a90038a018a612cb2565b81526020808201929092526040908101600020815160c0810183528154815260018201549381019390935260028101549183019190915260038101546001600160401b038082166060850152600160401b820481166080850152600160801b9091041660a08301529150610ed090611973565b6040805160c081018252825481526001830154602082015260028301549181019190915260038201546001600160401b038082166060840152600160401b820481166080840152600160801b9091041660a0820152610f2e90612497565b6040805160c081018252825481526001830154602082015260028301549181019190915260038201546001600160401b038082166060840152600160401b820481166080840152600160801b9091041660a0820152610f8e908686611a20565b6040805160c081018252825481526001830154602082015260028301549181019190915260038201546001600160401b038082166060840152600160401b820481166080840152600160801b9091041660a0820152610fed9086611a32565b61100c57610ffc8584846124f4565b61100781848461254b565b611022565b6110178484846124f4565b6110228184846125ce565b8535600090815260026020526040902061103b90611bf3565b61105a6002600088602001358152602001908152602001600020611bf3565b61106c6104ab36889003880188612cb2565b815460018301546040517f29ff393c59c37f91e930fad4d88447efc58cf5d7c048499e1f20edb369941378926110aa92908252602082015260400190565b60405180910390a2505050505050565b6110c261190d565b156110df5760405162461bcd60e51b815260040161034d90612bf2565b611164600460006110f86104ab36889003880188612cb2565b81526020808201929092526040908101600020815160c08101835281548152600182015493810193909352600281015491830191909152600301546001600160401b038082166060840152600160401b820481166080840152600160801b9091041660a0820152611973565b8235600090815260026020908152604080832082870135845292819020815180830190925283546001600160401b038082168452600160401b90910416928201929092526111b190611e41565b6040805180820190915281546001600160401b038082168352600160401b9091041660208201526111e190611e41565b6040805180820190915282546001600160401b038082168352600160401b90910416602082015261121190611cb3565b801561124a57506040805180820190915281546001600160401b038082168352600160401b90910416602082015261124890611cb3565b155b156113345761125b8535858561267d565b6112bf5760405162461bcd60e51b815260206004820152602f60248201527f6368696c64206e6f64657320646f206e6f74206d6174636820706172656e742060448201526e28636f6d6d69746d656e744f6e652960881b606482015260840161034d565b6040805180820190915281546001600160401b038082168352600160401b9091041660208201526112fa906112f390612691565b83906123b2565b6040805180820190915282546001600160401b038082168352600160401b90910416602082015261132f908635908686611722565b6114ca565b6040805180820190915282546001600160401b038082168352600160401b90910416602082015261136490611cb3565b15801561139c57506040805180820190915281546001600160401b038082168352600160401b90910416602082015261139c90611cb3565b1561148a576113b06020860135858561267d565b6114145760405162461bcd60e51b815260206004820152602f60248201527f6368696c64206e6f64657320646f206e6f74206d6174636820706172656e742060448201526e28636f6d6d69746d656e7454776f2960881b606482015260840161034d565b6040805180820190915282546001600160401b038082168352600160401b90910416602082015261144f9061144890612691565b82906123b2565b6040805180820190915281546001600160401b038082168352600160401b9091041660208281019190915261132f9190870135908686611722565b60405162461bcd60e51b815260206004820152601560248201527418d85b9b9bdd081dda5b88189e481d1a5b595bdd5d605a1b604482015260640161034d565b600460006114e06104ab36899003890189612cb2565b81526020810191909152604001600090812081815560018101829055600281019190915560030180546001600160c01b03191690555050505050565b6000602d7f00000000000000000000000000000000000000000000000000000000000000006001600160401b03161115611584576108f56001600160401b037f000000000000000000000000000000000000000000000000000000000000000016602d6126b7565b6108f56001600160401b037f0000000000000000000000000000000000000000000000000000000000000000167f00000000000000000000000000000000000000000000000000000000000000006126b7565b604080516020808201859052818301849052825180830384018152606090920190925280519101205b92915050565b61162661161285611d7b565b869060016001600160401b039091161b8585855b5050505050565b611636816126cd565b61074d5760405162461bcd60e51b815260206004820152601460248201527318db1bd8dac81a5cc81a5b9a5d1a585b1a5e995960621b604482015260640161034d565b60006116a16116916001600160401b034216856126e1565b6001600160401b038416906126ef565b90506001600160401b0381166117035760405162461bcd60e51b815260206004820152602160248201527f63616e27742063726561746520636c6f636b2077697468207a65726f2074696d6044820152606560f81b606482015260840161034d565b83546001600160801b0319166001600160401b03909116179092555050565b60008061172d611d17565b9150915081156118e05760008061176f8389888861176a7f0000000000000000000000000000000000000000000000000000000000000000611d7b565b612720565b60008281526004602090815260408083208451815584830151600182015584820151600280830191909155606086015160039092018054608088015160a08901516001600160401b039586166001600160801b031990931692909217600160401b91861682021767ffffffffffffffff60801b1916600160801b92861692909202919091179091558a86529084528285208351808501909452805480841685529190910490911692820192909252939550919350909161182f908a6127c8565b6040805180820190915283546001600160401b038082168352600160401b909104166020820152909150600090611866908b6127fb565b905061187182612825565b5061188861074d6001600160401b0384168361286c565b61189183611bf3565b61189b6000600155565b8a867f32911001007d8c9879b608566be8acc2184592f0a43706f804f285455bb0f52e8b6040516118ce91815260200190565b60405180910390a35050505050611905565b84516000546118fc9161074d916001600160401b03169061286c565b61190586600155565b505050505050565b600080546108f5906001600160401b0316425b6001600160401b0391821691161190565b6000816040516020016119569190815181526020918201519181019190915260400190565b604051602081830303815290604052805190602001209050919050565b805161074d5760405162461bcd60e51b81526020600482015260146024820152731b585d18da08191bd95cc81b9bdd08195e1a5cdd60621b604482015260640161034d565b60a08101516001600160401b031660011461074d5760405162461bcd60e51b815260206004820152602260248201527f6d61746368206973206e6f7420726561647920746f2062652066696e616c697a604482015261195960f21b606482015260840161034d565b8251611a2d9083836124f4565b505050565b6000610837836020015183610b5790919063ffffffff16565b6000808360030160109054906101000a90046001600160401b03166001600160401b0316600114611a7e57611a7e612d21565b600280850184905560038501805467ffffffffffffffff60801b191690819055611ab89190600160401b90046001600160401b0316612f7f565b6001600160401b0316600003611ae15760018401549150611ada846002015490565b9050611af6565b60028401549150611af3846001015490565b90505b9250929050565b6000808360030160109054906101000a90046001600160401b03166001600160401b0316600114611b3057611b30612d21565b6001808501849055600385018054600090611b559084906001600160401b0316612fb3565b82546101009290920a6001600160401b0381810219909316918316021790915560038601805467ffffffffffffffff60801b191690819055611ba39250600291600160401b90910416612f7f565b6001600160401b0316600003611bc55760028401549150611ada846001015490565b60018401549150611af3846002015490565b8054600160401b90046001600160401b03161561074d5761074d815b6040805180820190915281546001600160401b038082168352600160401b909104166020820152600090611c269061287a565b90506001600160401b038116611c8c5760405162461bcd60e51b815260206004820152602560248201527f63616e277420616476616e636520636c6f636b2077697468206e6f2074696d65604482015264081b19599d60da1b606482015260840161034d565b611c95826128b1565b815467ffffffffffffffff19166001600160401b0391909116179055565b60208101516000906001600160401b0316611cd057506001919050565b611600611ce2425b84602001516126e1565b83516001600160401b0391821691161190565b600080611d0183611d2c565b9050611d0e858583612900565b95945050505050565b6001546000908015611d2857600191505b9091565b6040805160808101825260188152600e602082015260079181019190915260006060820181905290806001600160401b03841660048110611d6f57611d6f612fd3565b60200201519392505050565b6040805160808101825260278152600a602082015260079181018290526060810191909152600090806001600160401b03841660048110611d6f57611d6f612fd3565b6000611dc861190d565b611dd25750600090565b600080611ddd611d17565b915091508161160057611600612d21565b60a08101516001600160401b03161561074d5760405162461bcd60e51b81526020600482015260156024820152741b585d18da081a5cc81b9bdd08199a5b9a5cda1959605a1b604482015260640161034d565b611e4a816126cd565b1561074d5760405162461bcd60e51b815260206004820152601860248201527f636c6f636b206973206e6f7420696e697469616c697a65640000000000000000604482015260640161034d565b60008085815b8651518110156121e45760018751805183908110611ebd57611ebd612fd3565b6020026020010151604001516001811115611eda57611eda612fe9565b036120ed57611fb673__$1e8af0dcf79b6c44968c43790cbeb252f8$__638daeff4b89600001518481518110611f1257611f12612fd3565b602002602001015160000151898781518110611f3057611f30612fd3565b6020026020010151898681518110611f4a57611f4a612fd3565b60200260200101516040518463ffffffff1660e01b8152600401611f709392919061303a565b602060405180830381865af4158015611f8d573d6000803e3d6000fd5b505050506040513d601f19601f82011682018060405250810190611fb19190613062565b831490565b6120025760405162461bcd60e51b815260206004820152601a60248201527f6d616368696e65206861736820646f65736e2774206d61746368000000000000604482015260640161034d565b73__$1e8af0dcf79b6c44968c43790cbeb252f8$__634d6a3fd48860000151838151811061203257612032612fd3565b6020026020010151600001518960000151848151811061205457612054612fd3565b60200260200101516020015188858151811061207257612072612fd3565b60200260200101516040518463ffffffff1660e01b81526004016120989392919061307b565b602060405180830381865af41580156120b5573d6000803e3d6000fd5b505050506040513d601f19601f820116820180604052508101906120d99190613062565b9150826120e5816130af565b9350506121d2565b61218673__$1e8af0dcf79b6c44968c43790cbeb252f8$__634d6a3fd48960000151848151811061212057612120612fd3565b6020026020010151600001518a60000151858151811061214257612142612fd3565b60200260200101516020015189868151811061216057612160612fd3565b60200260200101516040518463ffffffff1660e01b8152600401611f709392919061307b565b6121d25760405162461bcd60e51b815260206004820152601a60248201527f6d616368696e65206861736820646f65736e2774206d61746368000000000000604482015260640161034d565b806121dc816130af565b915050611e9d565b506040805180820182526001600160a01b037f000000000000000000000000000000000000000000000000000000000000000081168252602082018990529151634c90ec0f60e01b815290917f00000000000000000000000000000000000000000000000000000000000000001690634c90ec0f906122679084906004016130c8565b60408051808303816000875af1158015612285573d6000803e3d6000fd5b505050506040513d601f19601f820116820180604052508101906122a99190613186565b509198975050505050505050565b60038101546000908190600160801b90046001600160401b0316156122de576122de612d21565b60038301546122f8906002906001600160401b0316612f7f565b6001600160401b031660000361236557600383015461232990600290600160401b90046001600160401b0316612f7f565b6001600160401b0316600003612352576001830154915061234b836002015490565b9050915091565b60028301545b915061234b836001015490565b600383015461238690600290600160401b90046001600160401b0316612f7f565b6001600160401b03166000036123a0576002830154612358565b6001830154915061234b836002015490565b81546000906123ca906001600160401b0316836126ef565b90506001600160401b03811661242e5760405162461bcd60e51b815260206004820152602360248201527f63616e277420726573657420636c6f636b2077697468206e6f2074696d65206c60448201526219599d60ea1b606482015260840161034d565b60006124446001600160401b038316602d61286c565b9050612466612454602d80612fb3565b6001600160401b039081169083161190565b1561170357612476602d80612fb3565b905083546001600160801b0319166001600160401b03909116179092555050565b60a08101516001600160401b031660010361074d5760405162461bcd60e51b815260206004820152601e60248201527f6d6174636820697320726561647920746f2062652066696e616c697a65640000604482015260640161034d565b6124ff83838361267d565b611a2d5760405162461bcd60e51b815260206004820152601e60248201527f6368696c64206e6f64657320646f6e2774206d6174636820706172656e740000604482015260640161034d565b60038301546001600160801b9091046001600160401b03161161257057612570612d21565b600183018054845582905560028301819055600383018054600160801b90046001600160401b03169060106125a4836131c5565b91906101000a8154816001600160401b0302191690836001600160401b0316021790555050505050565b60038301546001600160801b9091046001600160401b0316116125f3576125f3612d21565b60028301805484556001808501849055908290556003840180546001600160401b03600160801b820481169390931b9260009161263291859116612fb3565b92506101000a8154816001600160401b0302191690836001600160401b0316021790555082600301601081819054906101000a90046001600160401b0316809291906125a4906131c5565b60006107d661268c84846115d7565b851490565b8051600090611600906126a84285602001516126e1565b6001600160401b0316906126ef565b60006108376001600160401b038416834261294f565b80516000906001600160401b031615611600565b60008282611d0e8183612cfa565b600082826001600160401b0380821690831610612715576127108183612cfa565b611d0e565b506000949350505050565b6040805160c081018252600080825260208201819052918101829052606081018290526080810182905260a0810182905261275c86868661267d565b61276857612768612d21565b6040805180820182528881526020808201899052825160c0810184528a8152908101889052918201869052600060608301526001600160401b0385166080830181905260a0830152906127ba82611931565b999098509650505050505050565b8051825160009182916127e6916001600160401b039091169061286c565b90506107d66001600160401b0342168261286c565b805182516000916001600160401b039081169116111561281d57508151611600565b508051611600565b600080546001600160401b03908116908316111561286457506000805467ffffffffffffffff19166001600160401b0392909216919091179055600190565b506000919050565b60008282611d0e8183612fb3565b60208101516000906001600160401b031661289457505190565b6116006128a042611cd8565b83516001600160401b0316906126ef565b8054600160401b90046001600160401b03166128ec57805467ffffffffffffffff60401b1916600160401b6001600160401b03421602179055565b805467ffffffffffffffff60401b19169055565b600080826001600160401b03166001901b90506000856060015160016129269190612fb3565b6001600160401b0316905061293b82826131e8565b61294590866131ff565b9695505050505050565b60006107d4826119206001600160401b0387168661286c565b60008083601f84011261297a57600080fd5b5081356001600160401b0381111561299157600080fd5b6020830191508360208260051b8501011115611af657600080fd5b6000806000806000608086880312156129c457600080fd5b8535945060208601356001600160401b038111156129e157600080fd5b6129ed88828901612968565b9699909850959660408101359660609091013595509350505050565b600060408284031215612a1b57600080fd5b50919050565b60008060008060008060c08789031215612a3a57600080fd5b612a448888612a09565b955060408701359450606087013593506080870135925060a08701356001600160401b03811115612a7457600080fd5b612a8089828a01612968565b979a9699509497509295939492505050565b600060408284031215612aa457600080fd5b6108378383612a09565b600060208284031215612ac057600080fd5b5035919050565b60008060008060008060008060e0898b031215612ae357600080fd5b612aed8a8a612a09565b975060408901356001600160401b0380821115612b0957600080fd5b612b158c838d01612a09565b985060608b0135915080821115612b2b57600080fd5b612b378c838d01612968565b909850965060808b0135915080821115612b5057600080fd5b50612b5d8b828c01612968565b999c989b5096999598969760a08701359660c0013595509350505050565b600080600080600060c08688031215612b9357600080fd5b612b9d8787612a09565b97604087013597506060870135966080810135965060a00135945092505050565b600080600060808486031215612bd357600080fd5b612bdd8585612a09565b95604085013595506060909401359392505050565b6020808252601690820152751d1bdd5c9b985b595b9d081a5cc8199a5b9a5cda195960521b604082015260600190565b634e487b7160e01b600052604160045260246000fd5b604080519081016001600160401b0381118282101715612c5a57612c5a612c22565b60405290565b604051606081016001600160401b0381118282101715612c5a57612c5a612c22565b604051601f8201601f191681016001600160401b0381118282101715612caa57612caa612c22565b604052919050565b600060408284031215612cc457600080fd5b612ccc612c38565b82358152602083013560208201528091505092915050565b634e487b7160e01b600052601160045260246000fd5b6001600160401b03828116828216039080821115612d1a57612d1a612ce4565b5092915050565b634e487b7160e01b600052600160045260246000fd5b6000808335601e19843603018112612d4e57600080fd5b8301803591506001600160401b03821115612d6857600080fd5b6020019150606081023603821315611af657600080fd5b60006001600160401b03821115612d9857612d98612c22565b5060051b60200190565b6001600160401b038116811461074d57600080fd5b60006040808336031215612dca57600080fd5b612dd2612c38565b83356001600160401b03811115612de857600080fd5b840136601f820112612df957600080fd5b80356020612e0e612e0983612d7f565b612c82565b82815260609283028401820192828201919036851115612e2d57600080fd5b948301945b84861015612ea357808636031215612e4a5760008081fd5b612e52612c60565b8635612e5d81612da2565b8152868501356001600160c01b031981168114612e7a5760008081fd5b818601528689013560028110612e905760008081fd5b818a015283529485019491830191612e32565b508552509586013595830195909552509392505050565b6000612ec8612e0984612d7f565b83815260208082019190600586811b860136811115612ee657600080fd5b865b81811015612f725780356001600160401b03811115612f075760008081fd5b880136601f820112612f195760008081fd5b8035612f27612e0982612d7f565b81815290851b82018601908681019036831115612f445760008081fd5b928701925b82841015612f6257833582529287019290870190612f49565b8952505050948301948301612ee8565b5092979650505050505050565b60006001600160401b0380841680612fa757634e487b7160e01b600052601260045260246000fd5b92169190910692915050565b6001600160401b03818116838216019080821115612d1a57612d1a612ce4565b634e487b7160e01b600052603260045260246000fd5b634e487b7160e01b600052602160045260246000fd5b600081518084526020808501945080840160005b8381101561302f57815187529582019590820190600101613013565b509495945050505050565b6001600160401b0384168152826020820152606060408201526000611d0e6060830184612fff565b60006020828403121561307457600080fd5b5051919050565b6001600160401b03841681526001600160401b0360c01b83166020820152606060408201526000611d0e6060830184612fff565b6000600182016130c1576130c1612ce4565b5060010190565b602080825282516001600160a01b03168282015282810151604080840181905281516060808601839052815160a087018190526000959491939192850190869060c0890190825b8181101561316b57845180516001600160401b03168452898101516001600160c01b0319168a8501528601516002811061315757634e487b7160e01b85526021600452602485fd5b83870152938801939187019160010161310f565b50508685015160808a01528097505050505050505092915050565b6000806040838503121561319957600080fd5b82516131a481612da2565b602084015190925080151581146131ba57600080fd5b809150509250929050565b60006001600160401b038216806131de576131de612ce4565b6000190192915050565b808202811582820484141761160057611600612ce4565b8082018082111561160057611600612ce456fea26469706673582212205e0667f64278e9abf254daf03591c80664b2f1140a8f604a0ee1b30c73234ac964736f6c63430008140033a2646970667358221220a333e96875008e922d0eed28194ea8dc996f41437748f788ce05a68965a2b2f064736f6c63430008140033",
    "linkReferences": {
      "src/Merkle.sol": {
        "Merkle": [
          {
            "start": 20623,
            "length": 20
          },
          {
            "start": 20911,
            "length": 20
          },
          {
            "start": 21149,
            "length": 20
          }
        ]
      }
    }
  },
  "methodIdentifiers": {
    "instantiateSingle(bytes32)": "d514cfc7",
    "instantiateTopOfMultiple(bytes32)": "1e78da56"
  },
  "id": 45
}