{
  "abi": [
    {
      "inputs": [
        {
          "internalType": "contract IUArchState",
          "name": "_stateInterface",
          "type": "address"
        },
        {
          "internalType": "contract IUArchStep",
          "name": "_stepInterface",
          "type": "address"
        }
      ],
      "stateMutability": "nonpayable",
      "type": "constructor"
    },
    {
      "inputs": [
        {
          "internalType": "Machine.Hash",
          "name": "_initialHash",
          "type": "bytes32"
        },
        {
          "internalType": "Tree.Node",
          "name": "_contestedCommitmentOne",
          "type": "bytes32"
        },
        {
          "internalType": "Machine.Hash",
          "name": "_contestedFinalStateOne",
          "type": "bytes32"
        },
        {
          "internalType": "Tree.Node",
          "name": "_contestedCommitmentTwo",
          "type": "bytes32"
        },
        {
          "internalType": "Machine.Hash",
          "name": "_contestedFinalStateTwo",
          "type": "bytes32"
        },
        {
          "internalType": "Time.Duration",
          "name": "_allowance",
          "type": "uint64"
        },
        {
          "internalType": "uint256",
          "name": "_startCycle",
          "type": "uint256"
        },
        {
          "internalType": "uint64",
          "name": "_level",
          "type": "uint64"
        }
      ],
      "name": "instantiateInner",
      "outputs": [
        {
          "internalType": "contract NonRootTournament",
          "name": "",
          "type": "address"
        }
      ],
      "stateMutability": "nonpayable",
      "type": "function"
    }
  ],
  "bytecode": {
    "object": "0x60c060405234801561001057600080fd5b50604051616abf380380616abf83398101604081905261002f9161005e565b6001600160a01b039182166080521660a052610098565b6001600160a01b038116811461005b57600080fd5b50565b6000806040838503121561007157600080fd5b825161007c81610046565b602084015190925061008d81610046565b809150509250929050565b60805160a051616a046100bb600039600060ed0152600060cc0152616a046000f3fe608060405234801561001057600080fd5b506004361061002b5760003560e01c80637ba4ce1b14610030575b600080fd5b61004361003e36600461024e565b61005f565b6040516001600160a01b03909116815260200160405180910390f35b60008061006e600160046102c1565b67ffffffffffffffff168367ffffffffffffffff160361009f576100988a8a8a8a8a8a8a8a6100bf565b90506100b2565b6100af8a8a8a8a8a8a8a8a6101a9565b90505b9998505050505050505050565b60008089898989898989897f00000000000000000000000000000000000000000000000000000000000000007f0000000000000000000000000000000000000000000000000000000000000000336040516101199061021b565b9a8b5260208b019990995260408a01979097526060890195909552608088019390935267ffffffffffffffff91821660a088015260c08701521660e08501526001600160a01b0390811661010085015290811661012084015216610140820152610160015b604051809103906000f08015801561019a573d6000803e3d6000fd5b509a9950505050505050505050565b6000808989898989898989336040516101c190610228565b988952602089019790975260408801959095526060870193909352608086019190915267ffffffffffffffff90811660a086015260c08501919091521660e08301526001600160a01b03166101008201526101200161017e565b61371f806102f883390190565b612fb880613a1783390190565b67ffffffffffffffff8116811461024b57600080fd5b50565b600080600080600080600080610100898b03121561026b57600080fd5b883597506020890135965060408901359550606089013594506080890135935060a089013561029981610235565b925060c0890135915060e08901356102b081610235565b809150509295985092959890939650565b67ffffffffffffffff8281168282160390808211156102f057634e487b7160e01b600052601160045260246000fd5b509291505056fe6102006040523480156200001257600080fd5b506040516200371f3803806200371f833981016040819052620000359162000178565b60808b905260a08590526001600160401b03841660c0528a8a8a8a8a8a8a8a888b8b8a868686426001600160401b0390811660e0528316610100819052602d1015620000b95762000093602d425b6001600160401b03169062000130565b600080546001600160401b0319166001600160401b0392909216919091179055620000e6565b620000c5834262000083565b600080546001600160401b0319166001600160401b03929092169190911790555b5050506001600160a01b0392831661012052508116610140521661016052505050610180939093526101a0919091526101c0526101e052506200026b9a5050505050505050505050565b6000828262000140818362000235565b95945050505050565b6001600160401b03811681146200015f57600080fd5b50565b6001600160a01b03811681146200015f57600080fd5b60008060008060008060008060008060006101608c8e0312156200019b57600080fd5b8b519a5060208c0151995060408c0151985060608c0151975060808c0151965060a08c0151620001cb8162000149565b60c08d015160e08e01519197509550620001e58162000149565b6101008d0151909450620001f98162000162565b6101208d01519093506200020d8162000162565b6101408d0151909250620002218162000162565b809150509295989b509295989b9093969950565b6001600160401b038181168382160190808211156200026457634e487b7160e01b600052601160045260246000fd5b5092915050565b60805160a05160c05160e05161010051610120516101405161016051610180516101a0516101c0516101e0516133dc62000343600039600081816108dd01526127a10152600061090c01526000818161088e0152612772015260006108b5015260006129ae015260006122d3015260006122990152600081816103d40152818161155a01526115f00152600081816103b30152818161159501526115ce015260008181610330015281816107d9015281816108060152818161083801526117ee015260006107b80152600061068a01526133dc6000f3fe608060405234801561001057600080fd5b50600436106100b45760003560e01c8063a1af906b11610071578063a1af906b146101df578063bcb0129514610211578063c51b306114610219578063fcc6077d1461022c578063fcc853911461029c578063ff78e0ee146102af57600080fd5b80631d5bf796146100b95780635017746a146100ce57806360f302dc146100e15780636a1a140d146101115780637795820c146101345780638acc802d146101be575b600080fd5b6100cc6100c7366004612b40565b6102c2565b005b6100cc6100dc366004612bb5565b610435565b6000546100f4906001600160401b031681565b6040516001600160401b0390911681526020015b60405180910390f35b61012461011f366004612c26565b610724565b6040519015158152602001610108565b610192610142366004612c42565b6040805180820182526000808252602091820181905292835260028152818320600382529282902054825180840190935292546001600160401b038082168452600160401b909104169082015291565b6040805183516001600160401b0390811682526020948501511693810193909352820152606001610108565b6101d16101cc366004612c42565b6107a4565b604051908152602001610108565b6101e7610804565b604080516001600160401b0394851681529284166020840152921691810191909152606001610108565b6101d1610863565b6100cc610227366004612c5b565b610932565b61023f61023a366004612c42565b610dbb565b6040516101089190600060c08201905082518252602083015160208301526040830151604083015260608301516001600160401b0380821660608501528060808601511660808501528060a08601511660a0850152505092915050565b6100cc6102aa366004612d0f565b610e59565b6100cc6102bd366004612d52565b6110f2565b6102ca611554565b1561031c5760405162461bcd60e51b815260206004820152601b60248201527f746f75726e616d656e7420636865636b2d696e20656c6170736564000000000060448201526064015b60405180910390fd5b60006103288383611614565b9050610357817f0000000000000000000000000000000000000000000000000000000000000000888888611643565b6103608661166a565b60008181526003602090815260408083208990556002825291829020825180840190935280546001600160401b038082168552600160401b9091041691830191909152906103ad906116d5565b6103f8817f00000000000000000000000000000000000000000000000000000000000000007f0000000000000000000000000000000000000000000000000000000000000000611721565b6040805180820190915281546001600160401b038082168352600160401b90910416602082015261042c90839086866117ca565b50505050505050565b61043d6119c3565b1561045a5760405162461bcd60e51b815260040161031390612d86565b6000600481610476610471368b90038b018b612e46565b6119e7565b81526020808201929092526040908101600020815160c0810183528154815260018201549381019390935260028101549183019190915260038101546001600160401b038082166060850152600160401b820481166080850152600160801b9091041660a083015291506104e990611a29565b6040805160c081018252825481526001830154602082015260028301549181019190915260038201546001600160401b038082166060840152600160401b820481166080840152600160801b9091041660a082015261054790611a6e565b6040805160c081018252825481526001830154602082015260028301549181019190915260038201546001600160401b038082166060840152600160401b820481166080840152600160801b9091041660a08201526105a7908787611ad6565b6040805160c081018252825481526001830154602082015260028301549181019190915260038201546001600160401b038082166060840152600160401b820481166080840152600160801b9091041660a0820152600090819061060b9089611ae8565b610623576106198389611b01565b9092509050610633565b61062d8388611bb3565b90925090505b88356000908152600260209081526040808320918c0135835290912061065882611c8d565b61066182611ca9565b61066a81611c8d565b61067381611ca9565b60038501546001600160401b03166000036106f5577f000000000000000000000000000000000000000000000000000000000000000088146106f05760405162461bcd60e51b81526020600482015260166024820152751a5b9a5d1a585b081a185cda081a5b98dbdc9c9958dd60521b6044820152606401610313565b610716565b600385015461071690610713906001906001600160401b0316612e8e565b50565b505050939055505050505050565b803560009081526002602081815260408084208151808301835290546001600160401b038082168352600160401b918290048116838601528488013587529484528286208351808501909452548086168452049093169181019190915261078a82611d69565b158061079c575061079a81611d69565b155b949350505050565b6000806107b083610dbb565b90506107fd817f00000000000000000000000000000000000000000000000000000000000000007f0000000000000000000000000000000000000000000000000000000000000000611dab565b9392505050565b7f000000000000000000000000000000000000000000000000000000000000000060008061083183611dcd565b915061085c7f0000000000000000000000000000000000000000000000000000000000000000611e1c565b9050909192565b60008061086e611e5f565b90508061087d57506000919050565b6000818152600360205260409020547f000000000000000000000000000000000000000000000000000000000000000081036108db577f00000000000000000000000000000000000000000000000000000000000000009250505090565b7f0000000000000000000000000000000000000000000000000000000000000000811461090a5761090a612eb5565b7f00000000000000000000000000000000000000000000000000000000000000009250505090565b61093a6119c3565b156109575760405162461bcd60e51b815260040161031390612d86565b600060048161096e610471368d90038d018d612e46565b81526020808201929092526040908101600020815160c0810183528154815260018201549381019390935260028101549183019190915260038101546001600160401b038082166060850152600160401b820481166080850152600160801b9091041660a083015291506109e190611a29565b6040805160c081018252825481526001830154602082015260028301549181019190915260038201546001600160401b038082166060840152600160401b820481166080840152600160801b9091041660a0820152610a3f90611e8f565b88356000908152600260209081526040808320828d0135845292819020815180830190925283546001600160401b038082168452600160401b9091041692820192909252610a8c90611ee2565b6040805180820190915281546001600160401b038082168352600160401b909104166020820152610abc90611ee2565b85610ac78b80612ecb565b905014610b165760405162461bcd60e51b815260206004820152601b60248201527f70726f6f6673206c656e67746820646f65736e2774206d6174636800000000006044820152606401610313565b8254600090610b6d90610b288d612f4b565b8c8c80806020026020016040519081016040528093929190818152602001838360200280828437600092019190915250610b6892508d91508e905061304e565b611f38565b9050600080610b7b86612358565b9092509050610b938e35610b8f8a8a611614565b1490565b15610c2c57818314610be75760405162461bcd60e51b815260206004820152601d60248201527f66696e616c207374617465206f6e6520646f65736e2774206d617463680000006044820152606401610313565b610bf2856000612453565b6040805180820190915285546001600160401b038082168352600160401b909104166020820152610c27908f35908a8a6117ca565b610d5e565b610c3e60208f0135610b8f8a8a611614565b15610d1657808314610c925760405162461bcd60e51b815260206004820152601d60248201527f66696e616c2073746174652074776f20646f65736e2774206d617463680000006044820152606401610313565b610c9d846000612453565b610c278e60200135856040518060400160405290816000820160009054906101000a90046001600160401b03166001600160401b03166001600160401b031681526020016000820160089054906101000a90046001600160401b03166001600160401b03166001600160401b0316815250508a8a6117ca565b60405162461bcd60e51b815260206004820152601f60248201527f77726f6e67206c6566742f7269676874206e6f64657320666f722073746570006044820152606401610313565b50505060046000610d798d8036038101906104719190612e46565b81526020810191909152604001600090812081815560018101829055600281019190915560030180546001600160c01b03191690555050505050505050505050565b6040805160c081018252600080825260208201819052918101829052606081018290526080810182905260a081019190915250600090815260046020908152604091829020825160c081018452815481526001820154928101929092526002810154928201929092526003909101546001600160401b038082166060840152600160401b820481166080840152600160801b9091041660a082015290565b610e616119c3565b15610e7e5760405162461bcd60e51b815260040161031390612d86565b6000600481610e95610471368a90038a018a612e46565b81526020808201929092526040908101600020815160c0810183528154815260018201549381019390935260028101549183019190915260038101546001600160401b038082166060850152600160401b820481166080850152600160801b9091041660a08301529150610f0890611a29565b6040805160c081018252825481526001830154602082015260028301549181019190915260038201546001600160401b038082166060840152600160401b820481166080840152600160801b9091041660a0820152610f6690612538565b6040805160c081018252825481526001830154602082015260028301549181019190915260038201546001600160401b038082166060840152600160401b820481166080840152600160801b9091041660a0820152610fc6908686611ad6565b6040805160c081018252825481526001830154602082015260028301549181019190915260038201546001600160401b038082166060840152600160401b820481166080840152600160801b9091041660a08201526110259086611ae8565b61104457611034858484612595565b61103f8184846125ec565b61105a565b61104f848484612595565b61105a81848461266f565b8535600090815260026020526040902061107390611ca9565b6110926002600088602001358152602001908152602001600020611ca9565b6110a461047136889003880188612e46565b815460018301546040517f29ff393c59c37f91e930fad4d88447efc58cf5d7c048499e1f20edb369941378926110e292908252602082015260400190565b60405180910390a2505050505050565b6110fa6119c3565b156111175760405162461bcd60e51b815260040161031390612d86565b61119c6004600061113061047136889003880188612e46565b81526020808201929092526040908101600020815160c08101835281548152600182015493810193909352600281015491830191909152600301546001600160401b038082166060840152600160401b820481166080840152600160801b9091041660a0820152611a29565b8235600090815260026020908152604080832082870135845292819020815180830190925283546001600160401b038082168452600160401b90910416928201929092526111e990611ee2565b6040805180820190915281546001600160401b038082168352600160401b90910416602082015261121990611ee2565b6040805180820190915282546001600160401b038082168352600160401b90910416602082015261124990611d69565b801561128257506040805180820190915281546001600160401b038082168352600160401b90910416602082015261128090611d69565b155b1561136c576112938535858561271e565b6112f75760405162461bcd60e51b815260206004820152602f60248201527f6368696c64206e6f64657320646f206e6f74206d6174636820706172656e742060448201526e28636f6d6d69746d656e744f6e652960881b6064820152608401610313565b6040805180820190915281546001600160401b038082168352600160401b9091041660208201526113329061132b90612732565b8390612453565b6040805180820190915282546001600160401b038082168352600160401b9091041660208201526113679086359086866117ca565b611502565b6040805180820190915282546001600160401b038082168352600160401b90910416602082015261139c90611d69565b1580156113d457506040805180820190915281546001600160401b038082168352600160401b9091041660208201526113d490611d69565b156114c2576113e86020860135858561271e565b61144c5760405162461bcd60e51b815260206004820152602f60248201527f6368696c64206e6f64657320646f206e6f74206d6174636820706172656e742060448201526e28636f6d6d69746d656e7454776f2960881b6064820152608401610313565b6040805180820190915282546001600160401b038082168352600160401b9091041660208201526114879061148090612732565b8290612453565b6040805180820190915281546001600160401b038082168352600160401b9091041660208281019190915261136791908701359086866117ca565b60405162461bcd60e51b815260206004820152601560248201527418d85b9b9bdd081dda5b88189e481d1a5b595bdd5d605a1b6044820152606401610313565b6004600061151861047136899003890189612e46565b81526020810191909152604001600090812081815560018101829055600281019190915560030180546001600160c01b03191690555050505050565b6000602d7f00000000000000000000000000000000000000000000000000000000000000006001600160401b031611156115c1576115bc6001600160401b037f000000000000000000000000000000000000000000000000000000000000000016602d612758565b905090565b6115bc6001600160401b037f0000000000000000000000000000000000000000000000000000000000000000167f0000000000000000000000000000000000000000000000000000000000000000612758565b604080516020808201859052818301849052825180830384018152606090920190925280519101205b92915050565b61166361164f85611e1c565b869060016001600160401b039091161b8585855b5050505050565b6116738161276e565b6107135760405162461bcd60e51b815260206004820152602d60248201527f746f75726e616d656e7420646f65736e2774206861766520636f6e746573746560448201526c642066696e616c20737461746560981b6064820152608401610313565b6116de816127d6565b6107135760405162461bcd60e51b815260206004820152601460248201527318db1bd8dac81a5cc81a5b9a5d1a585b1a5e995960621b6044820152606401610313565b60006117496117396001600160401b034216856127ea565b6001600160401b038416906127f8565b90506001600160401b0381166117ab5760405162461bcd60e51b815260206004820152602160248201527f63616e27742063726561746520636c6f636b2077697468207a65726f2074696d6044820152606560f81b6064820152608401610313565b83546001600160801b0319166001600160401b03909116179092555050565b6000806117d5612829565b91509150811561199657600080611817838988886118127f0000000000000000000000000000000000000000000000000000000000000000611e1c565b61283e565b60008281526004602090815260408083208451815584830151600182015584820151600280830191909155606086015160039092018054608088015160a08901516001600160401b039586166001600160801b031990931692909217600160401b91861682021767ffffffffffffffff60801b1916600160801b92861692909202919091179091558a8652908452828520835180850190945280548084168552919091049091169282019290925293955091935090916118d7908a6128e6565b6040805180820190915283546001600160401b038082168352600160401b90910416602082015290915060009061190e908b612919565b905061191982612943565b506119356119306001600160401b03841683612982565b612990565b61193e83611ca9565b6119486000600155565b61195182612990565b8a867f32911001007d8c9879b608566be8acc2184592f0a43706f804f285455bb0f52e8b60405161198491815260200190565b60405180910390a350505050506119bb565b84516000546119b291611930916001600160401b031690612982565b6119bb86600155565b505050505050565b600080546115bc906001600160401b0316425b6001600160401b0391821691161190565b600081604051602001611a0c9190815181526020918201519181019190915260400190565b604051602081830303815290604052805190602001209050919050565b80516107135760405162461bcd60e51b81526020600482015260146024820152731b585d18da08191bd95cc81b9bdd08195e1a5cdd60621b6044820152606401610313565b60a08101516001600160401b03166001146107135760405162461bcd60e51b815260206004820152602260248201527f6d61746368206973206e6f7420726561647920746f2062652066696e616c697a604482015261195960f21b6064820152608401610313565b8251611ae3908383612595565b505050565b60006107fd836020015183610b8f90919063ffffffff16565b6000808360030160109054906101000a90046001600160401b03166001600160401b0316600114611b3457611b34612eb5565b600280850184905560038501805467ffffffffffffffff60801b191690819055611b6e9190600160401b90046001600160401b0316613113565b6001600160401b0316600003611b975760018401549150611b90846002015490565b9050611bac565b60028401549150611ba9846001015490565b90505b9250929050565b6000808360030160109054906101000a90046001600160401b03166001600160401b0316600114611be657611be6612eb5565b6001808501849055600385018054600090611c0b9084906001600160401b0316613147565b82546101009290920a6001600160401b0381810219909316918316021790915560038601805467ffffffffffffffff60801b191690819055611c599250600291600160401b90910416613113565b6001600160401b0316600003611c7b5760028401549150611b90846001015490565b60018401549150611ba9846002015490565b8054600160401b90046001600160401b03161561071357610713815b6040805180820190915281546001600160401b038082168352600160401b909104166020820152600090611cdc90612a0e565b90506001600160401b038116611d425760405162461bcd60e51b815260206004820152602560248201527f63616e277420616476616e636520636c6f636b2077697468206e6f2074696d65604482015264081b19599d60da1b6064820152608401610313565b611d4b82612a45565b815467ffffffffffffffff19166001600160401b0391909116179055565b60208101516000906001600160401b0316611d8657506001919050565b61163d611d98425b84602001516127ea565b83516001600160401b0391821691161190565b600080611db783611dcd565b9050611dc4858583612a94565b95945050505050565b6040805160808101825260188152600e602082015260079181019190915260006060820181905290806001600160401b03841660048110611e1057611e10613167565b60200201519392505050565b6040805160808101825260278152600a602082015260079181018290526060810191909152600090806001600160401b03841660048110611e1057611e10613167565b6000611e696119c3565b611e735750600090565b600080611e7e612829565b915091508161163d5761163d612eb5565b60a08101516001600160401b0316156107135760405162461bcd60e51b81526020600482015260156024820152741b585d18da081a5cc81b9bdd08199a5b9a5cda1959605a1b6044820152606401610313565b611eeb816127d6565b156107135760405162461bcd60e51b815260206004820152601860248201527f636c6f636b206973206e6f7420696e697469616c697a656400000000000000006044820152606401610313565b60008085815b8651518110156122855760018751805183908110611f5e57611f5e613167565b6020026020010151604001516001811115611f7b57611f7b61317d565b0361218e5761205773__$1e8af0dcf79b6c44968c43790cbeb252f8$__638daeff4b89600001518481518110611fb357611fb3613167565b602002602001015160000151898781518110611fd157611fd1613167565b6020026020010151898681518110611feb57611feb613167565b60200260200101516040518463ffffffff1660e01b8152600401612011939291906131ce565b602060405180830381865af415801561202e573d6000803e3d6000fd5b505050506040513d601f19601f8201168201806040525081019061205291906131f6565b831490565b6120a35760405162461bcd60e51b815260206004820152601a60248201527f6d616368696e65206861736820646f65736e2774206d617463680000000000006044820152606401610313565b73__$1e8af0dcf79b6c44968c43790cbeb252f8$__634d6a3fd4886000015183815181106120d3576120d3613167565b602002602001015160000151896000015184815181106120f5576120f5613167565b60200260200101516020015188858151811061211357612113613167565b60200260200101516040518463ffffffff1660e01b81526004016121399392919061320f565b602060405180830381865af4158015612156573d6000803e3d6000fd5b505050506040513d601f19601f8201168201806040525081019061217a91906131f6565b91508261218681613243565b935050612273565b61222773__$1e8af0dcf79b6c44968c43790cbeb252f8$__634d6a3fd4896000015184815181106121c1576121c1613167565b6020026020010151600001518a6000015185815181106121e3576121e3613167565b60200260200101516020015189868151811061220157612201613167565b60200260200101516040518463ffffffff1660e01b81526004016120119392919061320f565b6122735760405162461bcd60e51b815260206004820152601a60248201527f6d616368696e65206861736820646f65736e2774206d617463680000000000006044820152606401610313565b8061227d81613243565b915050611f3e565b506040805180820182526001600160a01b037f000000000000000000000000000000000000000000000000000000000000000081168252602082018990529151634c90ec0f60e01b815290917f00000000000000000000000000000000000000000000000000000000000000001690634c90ec0f9061230890849060040161325c565b60408051808303816000875af1158015612326573d6000803e3d6000fd5b505050506040513d601f19601f8201168201806040525081019061234a919061331a565b509198975050505050505050565b60038101546000908190600160801b90046001600160401b03161561237f5761237f612eb5565b6003830154612399906002906001600160401b0316613113565b6001600160401b03166000036124065760038301546123ca90600290600160401b90046001600160401b0316613113565b6001600160401b03166000036123f357600183015491506123ec836002015490565b9050915091565b60028301545b91506123ec836001015490565b600383015461242790600290600160401b90046001600160401b0316613113565b6001600160401b03166000036124415760028301546123f9565b600183015491506123ec836002015490565b815460009061246b906001600160401b0316836127f8565b90506001600160401b0381166124cf5760405162461bcd60e51b815260206004820152602360248201527f63616e277420726573657420636c6f636b2077697468206e6f2074696d65206c60448201526219599d60ea1b6064820152608401610313565b60006124e56001600160401b038316602d612982565b90506125076124f5602d80613147565b6001600160401b039081169083161190565b156117ab57612517602d80613147565b905083546001600160801b0319166001600160401b03909116179092555050565b60a08101516001600160401b03166001036107135760405162461bcd60e51b815260206004820152601e60248201527f6d6174636820697320726561647920746f2062652066696e616c697a656400006044820152606401610313565b6125a083838361271e565b611ae35760405162461bcd60e51b815260206004820152601e60248201527f6368696c64206e6f64657320646f6e2774206d6174636820706172656e7400006044820152606401610313565b60038301546001600160801b9091046001600160401b03161161261157612611612eb5565b600183018054845582905560028301819055600383018054600160801b90046001600160401b031690601061264583613359565b91906101000a8154816001600160401b0302191690836001600160401b0316021790555050505050565b60038301546001600160801b9091046001600160401b03161161269457612694612eb5565b60028301805484556001808501849055908290556003840180546001600160401b03600160801b820481169390931b926000916126d391859116613147565b92506101000a8154816001600160401b0302191690836001600160401b0316021790555082600301601081819054906101000a90046001600160401b03168092919061264590613359565b600061079c61272d8484611614565b851490565b805160009061163d906127494285602001516127ea565b6001600160401b0316906127f8565b60006107fd6001600160401b0384168342612ae3565b60007f0000000000000000000000000000000000000000000000000000000000000000820361279f57506001919050565b7f000000000000000000000000000000000000000000000000000000000000000082036127ce57506001919050565b506000919050565b80516000906001600160401b03161561163d565b60008282611dc48183612e8e565b600082826001600160401b038082169083161061281e576128198183612e8e565b611dc4565b506000949350505050565b600154600090801561283a57600191505b9091565b6040805160c081018252600080825260208201819052918101829052606081018290526080810182905260a0810182905261287a86868661271e565b61288657612886612eb5565b6040805180820182528881526020808201899052825160c0810184528a8152908101889052918201869052600060608301526001600160401b0385166080830181905260a0830152906128d8826119e7565b999098509650505050505050565b805182516000918291612904916001600160401b0390911690612982565b905061079c6001600160401b03421682612982565b805182516000916001600160401b039081169116111561293b5750815161163d565b50805161163d565b600080546001600160401b0390811690831611156127ce57506000805467ffffffffffffffff19166001600160401b0392909216919091179055600190565b60008282611dc48183613147565b604051630f224aa760e21b81526001600160401b03821660048201527f00000000000000000000000000000000000000000000000000000000000000006001600160a01b031690633c892a9c90602401600060405180830381600087803b1580156129fa57600080fd5b505af1158015611663573d6000803e3d6000fd5b60208101516000906001600160401b0316612a2857505190565b61163d612a3442611d8e565b83516001600160401b0316906127f8565b8054600160401b90046001600160401b0316612a8057805467ffffffffffffffff60401b1916600160401b6001600160401b03421602179055565b805467ffffffffffffffff60401b19169055565b600080826001600160401b03166001901b9050600085606001516001612aba9190613147565b6001600160401b03169050612acf828261337c565b612ad99086613393565b9695505050505050565b600061079a826119d66001600160401b03871686612982565b60008083601f840112612b0e57600080fd5b5081356001600160401b03811115612b2557600080fd5b6020830191508360208260051b8501011115611bac57600080fd5b600080600080600060808688031215612b5857600080fd5b8535945060208601356001600160401b03811115612b7557600080fd5b612b8188828901612afc565b9699909850959660408101359660609091013595509350505050565b600060408284031215612baf57600080fd5b50919050565b60008060008060008060c08789031215612bce57600080fd5b612bd88888612b9d565b955060408701359450606087013593506080870135925060a08701356001600160401b03811115612c0857600080fd5b612c1489828a01612afc565b979a9699509497509295939492505050565b600060408284031215612c3857600080fd5b6107fd8383612b9d565b600060208284031215612c5457600080fd5b5035919050565b60008060008060008060008060e0898b031215612c7757600080fd5b612c818a8a612b9d565b975060408901356001600160401b0380821115612c9d57600080fd5b612ca98c838d01612b9d565b985060608b0135915080821115612cbf57600080fd5b612ccb8c838d01612afc565b909850965060808b0135915080821115612ce457600080fd5b50612cf18b828c01612afc565b999c989b5096999598969760a08701359660c0013595509350505050565b600080600080600060c08688031215612d2757600080fd5b612d318787612b9d565b97604087013597506060870135966080810135965060a00135945092505050565b600080600060808486031215612d6757600080fd5b612d718585612b9d565b95604085013595506060909401359392505050565b6020808252601690820152751d1bdd5c9b985b595b9d081a5cc8199a5b9a5cda195960521b604082015260600190565b634e487b7160e01b600052604160045260246000fd5b604080519081016001600160401b0381118282101715612dee57612dee612db6565b60405290565b604051606081016001600160401b0381118282101715612dee57612dee612db6565b604051601f8201601f191681016001600160401b0381118282101715612e3e57612e3e612db6565b604052919050565b600060408284031215612e5857600080fd5b612e60612dcc565b82358152602083013560208201528091505092915050565b634e487b7160e01b600052601160045260246000fd5b6001600160401b03828116828216039080821115612eae57612eae612e78565b5092915050565b634e487b7160e01b600052600160045260246000fd5b6000808335601e19843603018112612ee257600080fd5b8301803591506001600160401b03821115612efc57600080fd5b6020019150606081023603821315611bac57600080fd5b60006001600160401b03821115612f2c57612f2c612db6565b5060051b60200190565b6001600160401b038116811461071357600080fd5b60006040808336031215612f5e57600080fd5b612f66612dcc565b83356001600160401b03811115612f7c57600080fd5b840136601f820112612f8d57600080fd5b80356020612fa2612f9d83612f13565b612e16565b82815260609283028401820192828201919036851115612fc157600080fd5b948301945b8486101561303757808636031215612fde5760008081fd5b612fe6612df4565b8635612ff181612f36565b8152868501356001600160c01b03198116811461300e5760008081fd5b8186015286890135600281106130245760008081fd5b818a015283529485019491830191612fc6565b508552509586013595830195909552509392505050565b600061305c612f9d84612f13565b83815260208082019190600586811b86013681111561307a57600080fd5b865b818110156131065780356001600160401b0381111561309b5760008081fd5b880136601f8201126130ad5760008081fd5b80356130bb612f9d82612f13565b81815290851b820186019086810190368311156130d85760008081fd5b928701925b828410156130f6578335825292870192908701906130dd565b895250505094830194830161307c565b5092979650505050505050565b60006001600160401b038084168061313b57634e487b7160e01b600052601260045260246000fd5b92169190910692915050565b6001600160401b03818116838216019080821115612eae57612eae612e78565b634e487b7160e01b600052603260045260246000fd5b634e487b7160e01b600052602160045260246000fd5b600081518084526020808501945080840160005b838110156131c3578151875295820195908201906001016131a7565b509495945050505050565b6001600160401b0384168152826020820152606060408201526000611dc46060830184613193565b60006020828403121561320857600080fd5b5051919050565b6001600160401b03841681526001600160401b0360c01b83166020820152606060408201526000611dc46060830184613193565b60006001820161325557613255612e78565b5060010190565b602080825282516001600160a01b03168282015282810151604080840181905281516060808601839052815160a087018190526000959491939192850190869060c0890190825b818110156132ff57845180516001600160401b03168452898101516001600160c01b0319168a850152860151600281106132eb57634e487b7160e01b85526021600452602485fd5b8387015293880193918701916001016132a3565b50508685015160808a01528097505050505050505092915050565b6000806040838503121561332d57600080fd5b825161333881612f36565b6020840151909250801515811461334e57600080fd5b809150509250929050565b60006001600160401b0382168061337257613372612e78565b6000190192915050565b808202811582820484141761163d5761163d612e78565b8082018082111561163d5761163d612e7856fea26469706673582212209b40762f4e72bce99b66e1c8fcdb84ebc72b662bc53dad968859bf0959a437e064736f6c634300081400336101e06040523480156200001257600080fd5b5060405162002fb838038062002fb8833981016040819052620000359162000159565b608089905260a08390526001600160401b03821660c0528888888888888888883389858585426001600160401b0390811660e0528316610100819052602d1015620000b85762000092602d425b6001600160401b03169062000127565b600080546001600160401b0319166001600160401b0392909216919091179055620000e5565b620000c4834262000082565b600080546001600160401b0319166001600160401b03929092169190911790555b5050506001600160a01b039182166101205250166101405250505061016093909352610180919091526101a0526101c052506200022998505050505050505050565b60008282620001378183620001f3565b95945050505050565b6001600160401b03811681146200015657600080fd5b50565b60008060008060008060008060006101208a8c0312156200017957600080fd5b8951985060208a0151975060408a0151965060608a0151955060808a0151945060a08a0151620001a98162000140565b60c08b015160e08c01519195509350620001c38162000140565b6101008b01519092506001600160a01b0381168114620001e257600080fd5b809150509295985092959850929598565b6001600160401b038181168382160190808211156200022257634e487b7160e01b600052601160045260246000fd5b5092915050565b60805160a05160c05160e05161010051610120516101405161016051610180516101a0516101c051612cad6200030b60003960008181610f4201526125e201526000610f71015260008181610ef301526125b301526000610f1a01526000611c39015260006107c70152600081816104020152818161172f01526117c50152600081816103e10152818161176a01526117a301526000818161035e015281816108280152818161091201528181610b1301528181610b4001528181610b7201526119ba0152600081816108070152610af2015260006107370152612cad6000f3fe608060405234801561001057600080fd5b50600436106100cf5760003560e01c80638acc802d1161008c578063bcb0129511610066578063bcb0129514610252578063fcc6077d1461025a578063fcc85391146102ca578063ff78e0ee146102dd57600080fd5b80638acc802d146101ec578063a1af906b1461020d578063b401865c1461023f57600080fd5b80631d5bf796146100d45780633c892a9c146100e95780633f36e2fe146100fc57806360f302dc1461010f5780636a1a140d1461013f5780637795820c14610162575b600080fd5b6100e76100e2366004612880565b6102f0565b005b6100e76100f73660046128f2565b610463565b6100e761010a366004612927565b6104ff565b600054610122906001600160401b031681565b6040516001600160401b0390911681526020015b60405180910390f35b61015261014d366004612998565b610a5e565b6040519015158152602001610136565b6101c06101703660046129b4565b6040805180820182526000808252602091820181905292835260028152818320600382529282902054825180840190935292546001600160401b038082168452600160401b909104169082015291565b6040805183516001600160401b0390811682526020948501511693810193909352820152606001610136565b6101ff6101fa3660046129b4565b610ade565b604051908152602001610136565b610215610b3e565b604080516001600160401b0394851681529284166020840152921691810191909152606001610136565b6100e761024d3660046129e2565b610b9d565b6101ff610ec8565b61026d6102683660046129b4565b610f97565b6040516101369190600060c08201905082518252602083015160208301526040830151604083015260608301516001600160401b0380821660608501528060808601511660808501528060a08601511660a0850152505092915050565b6100e76102d8366004612a17565b611035565b6100e76102eb366004612a5a565b6112ce565b6102f8611729565b1561034a5760405162461bcd60e51b815260206004820152601b60248201527f746f75726e616d656e7420636865636b2d696e20656c6170736564000000000060448201526064015b60405180910390fd5b600061035683836117e9565b9050610385817f0000000000000000000000000000000000000000000000000000000000000000888888611818565b61038e8661183f565b60008181526003602090815260408083208990556002825291829020825180840190935280546001600160401b038082168552600160401b9091041691830191909152906103db906118aa565b610426817f00000000000000000000000000000000000000000000000000000000000000007f00000000000000000000000000000000000000000000000000000000000000006118f6565b6040805180820190915281546001600160401b038082168352600160401b90910416602082015261045a9083908686611996565b50505050505050565b336000908152600560209081526040808320548084526004835292819020815160c08101835281548152600182015493810193909352600281015491830191909152600301546001600160401b038082166060840152600160401b820481166080840152600160801b9091041660a08201526104de90611b8f565b60006104e983611bd4565b905080156104fa576104fa83611c1b565b505050565b610507611c99565b156105245760405162461bcd60e51b815260040161034190612a8e565b600060048161054061053b368b90038b018b612abe565b611cbd565b81526020808201929092526040908101600020815160c0810183528154815260018201549381019390935260028101549183019190915260038101546001600160401b038082166060850152600160401b820481166080850152600160801b9091041660a083015291506105b390611cff565b6040805160c081018252825481526001830154602082015260028301549181019190915260038201546001600160401b038082166060840152600160401b820481166080840152600160801b9091041660a0820152610613908787611d67565b6040805160c081018252825481526001830154602082015260028301549181019190915260038201546001600160401b038082166060840152600160401b820481166080840152600160801b9091041660a082015260009081906106779089611d74565b61068f576106858389611d8d565b909250905061069f565b6106998388611e3f565b90925090505b88356000908152600260209081526040808320918c0135835282206106c382611f19565b6106cc81611f19565b60408051808201825283546001600160401b038082168352600160401b91829004811660208085019190915284518086019095528554808316865292909204169083015261071991611f39565b60038701549093506001600160401b031660000391506107a29050577f0000000000000000000000000000000000000000000000000000000000000000871461079d5760405162461bcd60e51b81526020600482015260166024820152751a5b9a5d1a585b081a185cda081a5b98dbdc9c9958dd60521b6044820152606401610341565b6107c3565b60038401546107c3906107c0906001906001600160401b0316612b30565b50565b60007f00000000000000000000000000000000000000000000000000000000000000006001600160a01b0316637ba4ce1b898d60000135878f60200135888861090d7f00000000000000000000000000000000000000000000000000000000000000007f00000000000000000000000000000000000000000000000000000000000000008f6040518060c00160405290816000820154815260200160018201548152602001600282015481526020016003820160009054906101000a90046001600160401b03166001600160401b03166001600160401b031681526020016003820160089054906101000a90046001600160401b03166001600160401b03166001600160401b031681526020016003820160109054906101000a90046001600160401b03166001600160401b03166001600160401b031681525050611f679092919063ffffffff16565b6109387f00000000000000000000000000000000000000000000000000000000000000006001612b57565b6040516001600160e01b031960e08b901b168152600481019890985260248801969096526044870194909452606486019290925260848501526001600160401b0390811660a485015260c48401919091521660e4820152610104016020604051808303816000875af11580156109b2573d6000803e3d6000fd5b505050506040513d601f19601f820116820180604052508101906109d69190612b77565b90506109ea61053b368d90038d018d612abe565b6001600160a01b038216600090815260056020526040902055610a1561053b368d90038d018d612abe565b6040516001600160a01b03831681527f166b786700a644dcec96aa84a92c26ecfee11b50956409c8cc83616042290d799060200160405180910390a25050505050505050505050565b803560009081526002602081815260408084208151808301835290546001600160401b038082168352600160401b9182900481168386015284880135875294845282862083518085019094525480861684520490931691810191909152610ac482611f89565b1580610ad65750610ad481611f89565b155b949350505050565b600080610aea83610f97565b9050610b37817f00000000000000000000000000000000000000000000000000000000000000007f0000000000000000000000000000000000000000000000000000000000000000611f67565b9392505050565b7f0000000000000000000000000000000000000000000000000000000000000000600080610b6b83611fcb565b9150610b967f000000000000000000000000000000000000000000000000000000000000000061201a565b9050909192565b610ba5611c99565b15610bc25760405162461bcd60e51b815260040161034190612a8e565b6001600160a01b038316600090815260056020526040902054610be48161205d565b600081815260046020908152604091829020825160c0810184528154815260018201549281019290925260028101549282019290925260038201546001600160401b038082166060840152600160401b820481166080840152600160801b9091041660a0820152610c5490611b8f565b6040805160c081018252825481526001830154602082015260028301549181019190915260038201546001600160401b038082166060840152600160401b820481166080840152600160801b9091041660a0820152610cb2906120a0565b6000856001600160a01b031663bcb012956040518163ffffffff1660e01b8152600401602060405180830381865afa158015610cf2573d6000803e3d6000fd5b505050506040513d601f19601f82011682018060405250810190610d169190612b94565b9050610d21816120f3565b6000610d2d86866117e9565b9050818114610d7e5760405162461bcd60e51b815260206004820152601e60248201527f746f75726e616d656e742077696e6e657220697320646966666572656e7400006044820152606401610341565b600081815260026020908152604091829020825180840190935280546001600160401b038082168552600160401b909104169183019190915290610dc190612140565b610e41610e3a896001600160a01b03166360f302dc6040518163ffffffff1660e01b8152600401602060405180830381865afa158015610e05573d6000803e3d6000fd5b505050506040513d601f19601f82011682018060405250810190610e299190612bad565b425b6001600160401b031690612196565b82906121a4565b6040805180820190915281546001600160401b038082168352600160401b909104166020820152610e759083908989611996565b505050600091825250600460209081526040808320838155600181018490556002810184905560030180546001600160c01b03191690556001600160a01b03909516825260059052928320929092555050565b600080610ed3612289565b905080610ee257506000919050565b6000818152600360205260409020547f00000000000000000000000000000000000000000000000000000000000000008103610f40577f00000000000000000000000000000000000000000000000000000000000000009250505090565b7f00000000000000000000000000000000000000000000000000000000000000008114610f6f57610f6f612bca565b7f00000000000000000000000000000000000000000000000000000000000000009250505090565b6040805160c081018252600080825260208201819052918101829052606081018290526080810182905260a081019190915250600090815260046020908152604091829020825160c081018452815481526001820154928101929092526002810154928201929092526003909101546001600160401b038082166060840152600160401b820481166080840152600160801b9091041660a082015290565b61103d611c99565b1561105a5760405162461bcd60e51b815260040161034190612a8e565b600060048161107161053b368a90038a018a612abe565b81526020808201929092526040908101600020815160c0810183528154815260018201549381019390935260028101549183019190915260038101546001600160401b038082166060850152600160401b820481166080850152600160801b9091041660a083015291506110e490611b8f565b6040805160c081018252825481526001830154602082015260028301549181019190915260038201546001600160401b038082166060840152600160401b820481166080840152600160801b9091041660a0820152611142906122b9565b6040805160c081018252825481526001830154602082015260028301549181019190915260038201546001600160401b038082166060840152600160401b820481166080840152600160801b9091041660a08201526111a2908686611d67565b6040805160c081018252825481526001830154602082015260028301549181019190915260038201546001600160401b038082166060840152600160401b820481166080840152600160801b9091041660a08201526112019086611d74565b61122057611210858484612316565b61121b81848461236d565b611236565b61122b848484612316565b6112368184846123f0565b8535600090815260026020526040902061124f9061249f565b61126e600260008860200135815260200190815260200160002061249f565b61128061053b36889003880188612abe565b815460018301546040517f29ff393c59c37f91e930fad4d88447efc58cf5d7c048499e1f20edb369941378926112be92908252602082015260400190565b60405180910390a2505050505050565b6112d6611c99565b156112f35760405162461bcd60e51b815260040161034190612a8e565b6113786004600061130c61053b36889003880188612abe565b81526020808201929092526040908101600020815160c08101835281548152600182015493810193909352600281015491830191909152600301546001600160401b038082166060840152600160401b820481166080840152600160801b9091041660a0820152611b8f565b8235600090815260026020908152604080832082870135845292819020815180830190925283546001600160401b038082168452600160401b90910416928201929092526113c590612140565b6040805180820190915281546001600160401b038082168352600160401b9091041660208201526113f590612140565b6040805180820190915282546001600160401b038082168352600160401b90910416602082015261142590611f89565b801561145e57506040805180820190915281546001600160401b038082168352600160401b90910416602082015261145c90611f89565b155b156115485761146f8535858561255f565b6114d35760405162461bcd60e51b815260206004820152602f60248201527f6368696c64206e6f64657320646f206e6f74206d6174636820706172656e742060448201526e28636f6d6d69746d656e744f6e652960881b6064820152608401610341565b6040805180820190915281546001600160401b038082168352600160401b90910416602082015261150e9061150790612573565b83906121a4565b6040805180820190915282546001600160401b038082168352600160401b909104166020820152611543908635908686611996565b6116d7565b6040805180820190915282546001600160401b038082168352600160401b90910416602082015261157890611f89565b1580156115b057506040805180820190915281546001600160401b038082168352600160401b9091041660208201526115b090611f89565b15611697576115c46020860135858561255f565b6116285760405162461bcd60e51b815260206004820152602f60248201527f6368696c64206e6f64657320646f206e6f74206d6174636820706172656e742060448201526e28636f6d6d69746d656e7454776f2960881b6064820152608401610341565b6040805180820190915282546001600160401b038082168352600160401b90910416602082015261165c90610e3a90612573565b6040805180820190915281546001600160401b038082168352600160401b909104166020828101919091526115439190870135908686611996565b60405162461bcd60e51b815260206004820152601560248201527418d85b9b9bdd081dda5b88189e481d1a5b595bdd5d605a1b6044820152606401610341565b600460006116ed61053b36899003890189612abe565b81526020810191909152604001600090812081815560018101829055600281019190915560030180546001600160c01b03191690555050505050565b6000602d7f00000000000000000000000000000000000000000000000000000000000000006001600160401b03161115611796576117916001600160401b037f000000000000000000000000000000000000000000000000000000000000000016602d612599565b905090565b6117916001600160401b037f0000000000000000000000000000000000000000000000000000000000000000167f0000000000000000000000000000000000000000000000000000000000000000612599565b604080516020808201859052818301849052825180830384018152606090920190925280519101205b92915050565b6118386118248561201a565b869060016001600160401b039091161b8585855b5050505050565b611848816125af565b6107c05760405162461bcd60e51b815260206004820152602d60248201527f746f75726e616d656e7420646f65736e2774206861766520636f6e746573746560448201526c642066696e616c20737461746560981b6064820152608401610341565b6118b38161260f565b6107c05760405162461bcd60e51b815260206004820152601460248201527318db1bd8dac81a5cc81a5b9a5d1a585b1a5e995960621b6044820152606401610341565b60006119156119058442610e2b565b6001600160401b03841690612623565b90506001600160401b0381166119775760405162461bcd60e51b815260206004820152602160248201527f63616e27742063726561746520636c6f636b2077697468207a65726f2074696d6044820152606560f81b6064820152608401610341565b83546001600160801b0319166001600160401b03909116179092555050565b6000806119a1612654565b915091508115611b62576000806119e3838988886119de7f000000000000000000000000000000000000000000000000000000000000000061201a565b612669565b60008281526004602090815260408083208451815584830151600182015584820151600280830191909155606086015160039092018054608088015160a08901516001600160401b039586166001600160801b031990931692909217600160401b91861682021767ffffffffffffffff60801b1916600160801b92861692909202919091179091558a865290845282852083518085019094528054808416855291909104909116928201929092529395509193509091611aa3908a612711565b6040805180820190915283546001600160401b038082168352600160401b909104166020820152909150600090611ada908b611f39565b9050611ae582611bd4565b50611b01611afc6001600160401b03841683612740565b611c1b565b611b0a8361249f565b611b146000600155565b611b1d82611c1b565b8a867f32911001007d8c9879b608566be8acc2184592f0a43706f804f285455bb0f52e8b604051611b5091815260200190565b60405180910390a35050505050611b87565b8451600054611b7e91611afc916001600160401b031690612740565b611b8786600155565b505050505050565b80516107c05760405162461bcd60e51b81526020600482015260146024820152731b585d18da08191bd95cc81b9bdd08195e1a5cdd60621b6044820152606401610341565b600080546001600160401b039081169083161115611c1357506000805467ffffffffffffffff19166001600160401b0392909216919091179055600190565b506000919050565b604051630f224aa760e21b81526001600160401b03821660048201527f00000000000000000000000000000000000000000000000000000000000000006001600160a01b031690633c892a9c90602401600060405180830381600087803b158015611c8557600080fd5b505af1158015611838573d6000803e3d6000fd5b60008054611791906001600160401b0316425b6001600160401b0391821691161190565b600081604051602001611ce29190815181526020918201519181019190915260400190565b604051602081830303815290604052805190602001209050919050565b60a08101516001600160401b03166001146107c05760405162461bcd60e51b815260206004820152602260248201527f6d61746368206973206e6f7420726561647920746f2062652066696e616c697a604482015261195960f21b6064820152608401610341565b82516104fa908383612316565b6000610b37836020015183611f6390919063ffffffff16565b6000808360030160109054906101000a90046001600160401b03166001600160401b0316600114611dc057611dc0612bca565b600280850184905560038501805467ffffffffffffffff60801b191690819055611dfa9190600160401b90046001600160401b0316612be0565b6001600160401b0316600003611e235760018401549150611e1c846002015490565b9050611e38565b60028401549150611e35846001015490565b90505b9250929050565b6000808360030160109054906101000a90046001600160401b03166001600160401b0316600114611e7257611e72612bca565b6001808501849055600385018054600090611e979084906001600160401b0316612b57565b82546101009290920a6001600160401b0381810219909316918316021790915560038601805467ffffffffffffffff60801b191690819055611ee59250600291600160401b90910416612be0565b6001600160401b0316600003611f075760028401549150611e1c846001015490565b60018401549150611e35846002015490565b8054600160401b90046001600160401b0316156107c0576107c08161249f565b805182516000916001600160401b0390811691161115611f5b57508151611812565b508051611812565b1490565b600080611f7383611fcb565b9050611f8085858361274e565b95945050505050565b60208101516000906001600160401b0316611fa657506001919050565b611812611fb8425b8460200151612196565b83516001600160401b0391821691161190565b6040805160808101825260188152600e602082015260079181019190915260006060820181905290806001600160401b0384166004811061200e5761200e612c14565b60200201519392505050565b6040805160808101825260278152600a602082015260079181018290526060810191909152600090806001600160401b0384166004811061200e5761200e612c14565b806107c05760405162461bcd60e51b81526020600482015260136024820152721b585d18da08191bd95cdb89dd08195e1a5cdd606a1b6044820152606401610341565b60a08101516001600160401b0316156107c05760405162461bcd60e51b81526020600482015260156024820152741b585d18da081a5cc81b9bdd08199a5b9a5cda1959605a1b6044820152606401610341565b806107c05760405162461bcd60e51b815260206004820152601760248201527f74726565206e6f646520646f65736e27742065786973740000000000000000006044820152606401610341565b6121498161260f565b156107c05760405162461bcd60e51b815260206004820152601860248201527f636c6f636b206973206e6f7420696e697469616c697a656400000000000000006044820152606401610341565b60008282611f808183612b30565b81546000906121bc906001600160401b031683612623565b90506001600160401b0381166122205760405162461bcd60e51b815260206004820152602360248201527f63616e277420726573657420636c6f636b2077697468206e6f2074696d65206c60448201526219599d60ea1b6064820152608401610341565b60006122366001600160401b038316602d612740565b9050612258612246602d80612b57565b6001600160401b039081169083161190565b1561197757612268602d80612b57565b905083546001600160801b0319166001600160401b03909116179092555050565b6000612293611c99565b61229d5750600090565b6000806122a8612654565b915091508161181257611812612bca565b60a08101516001600160401b03166001036107c05760405162461bcd60e51b815260206004820152601e60248201527f6d6174636820697320726561647920746f2062652066696e616c697a656400006044820152606401610341565b61232183838361255f565b6104fa5760405162461bcd60e51b815260206004820152601e60248201527f6368696c64206e6f64657320646f6e2774206d6174636820706172656e7400006044820152606401610341565b60038301546001600160801b9091046001600160401b03161161239257612392612bca565b600183018054845582905560028301819055600383018054600160801b90046001600160401b03169060106123c683612c2a565b91906101000a8154816001600160401b0302191690836001600160401b0316021790555050505050565b60038301546001600160801b9091046001600160401b03161161241557612415612bca565b60028301805484556001808501849055908290556003840180546001600160401b03600160801b820481169390931b9260009161245491859116612b57565b92506101000a8154816001600160401b0302191690836001600160401b0316021790555082600301601081819054906101000a90046001600160401b0316809291906123c690612c2a565b6040805180820190915281546001600160401b038082168352600160401b9091041660208201526000906124d29061279d565b90506001600160401b0381166125385760405162461bcd60e51b815260206004820152602560248201527f63616e277420616476616e636520636c6f636b2077697468206e6f2074696d65604482015264081b19599d60da1b6064820152608401610341565b612541826127d4565b815467ffffffffffffffff19166001600160401b0391909116179055565b6000610ad661256e84846117e9565b851490565b80516000906118129061258a428560200151612196565b6001600160401b031690612623565b6000610b376001600160401b0384168342612823565b60007f000000000000000000000000000000000000000000000000000000000000000082036125e057506001919050565b7f00000000000000000000000000000000000000000000000000000000000000008203611c1357506001919050565b80516000906001600160401b031615611812565b600082826001600160401b0380821690831610612649576126448183612b30565b611f80565b506000949350505050565b600154600090801561266557600191505b9091565b6040805160c081018252600080825260208201819052918101829052606081018290526080810182905260a081018290526126a586868661255f565b6126b1576126b1612bca565b6040805180820182528881526020808201899052825160c0810184528a8152908101889052918201869052600060608301526001600160401b0385166080830181905260a08301529061270382611cbd565b999098509650505050505050565b80518251600091829161272f916001600160401b0390911690612740565b9050610ad66001600160401b034216825b60008282611f808183612b57565b600080826001600160401b03166001901b90506000856060015160016127749190612b57565b6001600160401b031690506127898282612c4d565b6127939086612c64565b9695505050505050565b60208101516000906001600160401b03166127b757505190565b6118126127c342611fae565b83516001600160401b031690612623565b8054600160401b90046001600160401b031661280f57805467ffffffffffffffff60401b1916600160401b6001600160401b03421602179055565b805467ffffffffffffffff60401b19169055565b6000610ad482611cac6001600160401b03871686612740565b60008083601f84011261284e57600080fd5b5081356001600160401b0381111561286557600080fd5b6020830191508360208260051b8501011115611e3857600080fd5b60008060008060006080868803121561289857600080fd5b8535945060208601356001600160401b038111156128b557600080fd5b6128c18882890161283c565b9699909850959660408101359660609091013595509350505050565b6001600160401b03811681146107c057600080fd5b60006020828403121561290457600080fd5b8135610b37816128dd565b60006040828403121561292157600080fd5b50919050565b60008060008060008060c0878903121561294057600080fd5b61294a888861290f565b955060408701359450606087013593506080870135925060a08701356001600160401b0381111561297a57600080fd5b61298689828a0161283c565b979a9699509497509295939492505050565b6000604082840312156129aa57600080fd5b610b37838361290f565b6000602082840312156129c657600080fd5b5035919050565b6001600160a01b03811681146107c057600080fd5b6000806000606084860312156129f757600080fd5b8335612a02816129cd565b95602085013595506040909401359392505050565b600080600080600060c08688031215612a2f57600080fd5b612a39878761290f565b97604087013597506060870135966080810135965060a00135945092505050565b600080600060808486031215612a6f57600080fd5b612a79858561290f565b95604085013595506060909401359392505050565b6020808252601690820152751d1bdd5c9b985b595b9d081a5cc8199a5b9a5cda195960521b604082015260600190565b600060408284031215612ad057600080fd5b604051604081018181106001600160401b0382111715612b0057634e487b7160e01b600052604160045260246000fd5b604052823581526020928301359281019290925250919050565b634e487b7160e01b600052601160045260246000fd5b6001600160401b03828116828216039080821115612b5057612b50612b1a565b5092915050565b6001600160401b03818116838216019080821115612b5057612b50612b1a565b600060208284031215612b8957600080fd5b8151610b37816129cd565b600060208284031215612ba657600080fd5b5051919050565b600060208284031215612bbf57600080fd5b8151610b37816128dd565b634e487b7160e01b600052600160045260246000fd5b60006001600160401b0380841680612c0857634e487b7160e01b600052601260045260246000fd5b92169190910692915050565b634e487b7160e01b600052603260045260246000fd5b60006001600160401b03821680612c4357612c43612b1a565b6000190192915050565b808202811582820484141761181257611812612b1a565b8082018082111561181257611812612b1a56fea264697066735822122073334710e6d79a6ed8d9423688032b2f04d180ff599d732838b21e9aaff0ec6f64736f6c63430008140033a2646970667358221220a92a6d8e58029397a4a979620812341f03370b7c97a68a2d13535d43207c354b64736f6c63430008140033",
    "linkReferences": {
      "src/Merkle.sol": {
        "Merkle": [
          {
            "start": 9851,
            "length": 20
          },
          {
            "start": 10139,
            "length": 20
          },
          {
            "start": 10377,
            "length": 20
          }
        ]
      }
    }
  },
  "methodIdentifiers": {
    "instantiateInner(bytes32,bytes32,bytes32,bytes32,bytes32,uint64,uint256,uint64)": "7ba4ce1b"
  },
  "id": 44
}