{
  "address": "0x4d3574eCcC04a98c44EF031a9D419fc67AED258E",
  "abi": [
    {
      "anonymous": false,
      "inputs": [
        {
          "indexed": true,
          "internalType": "address",
          "name": "user",
          "type": "address"
        },
        {
          "indexed": true,
          "internalType": "address",
          "name": "worker",
          "type": "address"
        },
        {
          "indexed": true,
          "internalType": "address",
          "name": "dapp",
          "type": "address"
        }
      ],
      "name": "Authorization",
      "type": "event"
    },
    {
      "anonymous": false,
      "inputs": [
        {
          "indexed": true,
          "internalType": "address",
          "name": "user",
          "type": "address"
        },
        {
          "indexed": true,
          "internalType": "address",
          "name": "worker",
          "type": "address"
        },
        {
          "indexed": true,
          "internalType": "address",
          "name": "dapp",
          "type": "address"
        }
      ],
      "name": "Deauthorization",
      "type": "event"
    },
    {
      "anonymous": false,
      "inputs": [
        {
          "indexed": true,
          "internalType": "address",
          "name": "worker",
          "type": "address"
        },
        {
          "indexed": true,
          "internalType": "address",
          "name": "user",
          "type": "address"
        }
      ],
      "name": "JobAccepted",
      "type": "event"
    },
    {
      "anonymous": false,
      "inputs": [
        {
          "indexed": true,
          "internalType": "address",
          "name": "worker",
          "type": "address"
        },
        {
          "indexed": true,
          "internalType": "address",
          "name": "user",
          "type": "address"
        }
      ],
      "name": "JobOffer",
      "type": "event"
    },
    {
      "anonymous": false,
      "inputs": [
        {
          "indexed": true,
          "internalType": "address",
          "name": "worker",
          "type": "address"
        },
        {
          "indexed": true,
          "internalType": "address",
          "name": "user",
          "type": "address"
        }
      ],
      "name": "JobRejected",
      "type": "event"
    },
    {
      "anonymous": false,
      "inputs": [
        {
          "indexed": true,
          "internalType": "address",
          "name": "worker",
          "type": "address"
        },
        {
          "indexed": true,
          "internalType": "address",
          "name": "user",
          "type": "address"
        }
      ],
      "name": "Retired",
      "type": "event"
    },
    {
      "inputs": [],
      "name": "acceptJob",
      "outputs": [],
      "stateMutability": "nonpayable",
      "type": "function"
    },
    {
      "inputs": [
        {
          "internalType": "address",
          "name": "_workerAddress",
          "type": "address"
        },
        {
          "internalType": "address",
          "name": "_dappAddress",
          "type": "address"
        }
      ],
      "name": "authorize",
      "outputs": [],
      "stateMutability": "nonpayable",
      "type": "function"
    },
    {
      "inputs": [
        {
          "internalType": "address",
          "name": "_workerAddress",
          "type": "address"
        }
      ],
      "name": "cancelHire",
      "outputs": [],
      "stateMutability": "nonpayable",
      "type": "function"
    },
    {
      "inputs": [
        {
          "internalType": "address",
          "name": "_workerAddress",
          "type": "address"
        },
        {
          "internalType": "address",
          "name": "_dappAddress",
          "type": "address"
        }
      ],
      "name": "deauthorize",
      "outputs": [],
      "stateMutability": "nonpayable",
      "type": "function"
    },
    {
      "inputs": [
        {
          "internalType": "address",
          "name": "_workerAddress",
          "type": "address"
        }
      ],
      "name": "getOwner",
      "outputs": [
        {
          "internalType": "address",
          "name": "",
          "type": "address"
        }
      ],
      "stateMutability": "view",
      "type": "function"
    },
    {
      "inputs": [
        {
          "internalType": "address",
          "name": "_workerAddress",
          "type": "address"
        }
      ],
      "name": "getUser",
      "outputs": [
        {
          "internalType": "address",
          "name": "",
          "type": "address"
        }
      ],
      "stateMutability": "view",
      "type": "function"
    },
    {
      "inputs": [
        {
          "internalType": "address payable",
          "name": "_workerAddress",
          "type": "address"
        }
      ],
      "name": "hire",
      "outputs": [],
      "stateMutability": "payable",
      "type": "function"
    },
    {
      "inputs": [
        {
          "internalType": "address payable",
          "name": "_workerAddress",
          "type": "address"
        },
        {
          "internalType": "address",
          "name": "_dappAddress",
          "type": "address"
        }
      ],
      "name": "hireAndAuthorize",
      "outputs": [],
      "stateMutability": "payable",
      "type": "function"
    },
    {
      "inputs": [
        {
          "internalType": "address",
          "name": "_workerAddress",
          "type": "address"
        },
        {
          "internalType": "address",
          "name": "_dappAddress",
          "type": "address"
        }
      ],
      "name": "isAuthorized",
      "outputs": [
        {
          "internalType": "bool",
          "name": "",
          "type": "bool"
        }
      ],
      "stateMutability": "view",
      "type": "function"
    },
    {
      "inputs": [
        {
          "internalType": "address",
          "name": "workerAddress",
          "type": "address"
        }
      ],
      "name": "isAvailable",
      "outputs": [
        {
          "internalType": "bool",
          "name": "",
          "type": "bool"
        }
      ],
      "stateMutability": "view",
      "type": "function"
    },
    {
      "inputs": [
        {
          "internalType": "address",
          "name": "_workerAddress",
          "type": "address"
        }
      ],
      "name": "isOwned",
      "outputs": [
        {
          "internalType": "bool",
          "name": "",
          "type": "bool"
        }
      ],
      "stateMutability": "view",
      "type": "function"
    },
    {
      "inputs": [
        {
          "internalType": "address",
          "name": "workerAddress",
          "type": "address"
        }
      ],
      "name": "isPending",
      "outputs": [
        {
          "internalType": "bool",
          "name": "",
          "type": "bool"
        }
      ],
      "stateMutability": "view",
      "type": "function"
    },
    {
      "inputs": [
        {
          "internalType": "address",
          "name": "_workerAddress",
          "type": "address"
        }
      ],
      "name": "isRetired",
      "outputs": [
        {
          "internalType": "bool",
          "name": "",
          "type": "bool"
        }
      ],
      "stateMutability": "view",
      "type": "function"
    },
    {
      "inputs": [],
      "name": "rejectJob",
      "outputs": [],
      "stateMutability": "payable",
      "type": "function"
    },
    {
      "inputs": [
        {
          "internalType": "address payable",
          "name": "_workerAddress",
          "type": "address"
        }
      ],
      "name": "retire",
      "outputs": [],
      "stateMutability": "nonpayable",
      "type": "function"
    }
  ],
  "transactionHash": "0xbd6f3384d92a0687598c83b189651f4199140549a7bd4bd5f963ca6bd30a3aa3",
  "args": [],
  "bytecode": "0x608060405234801561001057600080fd5b50610da7806100206000396000f3fe6080604052600436106100e85760003560e01c80639b789b7e1161008a578063d9d6bd8611610059578063d9d6bd861461031f578063dbd9655414610345578063f4dc754b14610373578063fa544161146103a6576100e8565b80639b789b7e146102715780639e6371ba14610286578063a00745b6146102b9578063b64b3bed146102ec576100e8565b806365e4ad9e116100c657806365e4ad9e146101795780636d3c6275146101b45780636d892f7e146101e75780636f77926b14610222576100e8565b806303d6e81e146100ed5780632896f60b146100f75780632bef45951461013e575b600080fd5b6100f56103d9565b005b34801561010357600080fd5b5061012a6004803603602081101561011a57600080fd5b50356001600160a01b03166104f1565b604080519115158252519081900360200190f35b34801561014a57600080fd5b506100f56004803603604081101561016157600080fd5b506001600160a01b0381358116916020013516610523565b34801561018557600080fd5b5061012a6004803603604081101561019c57600080fd5b506001600160a01b0381358116916020013516610653565b3480156101c057600080fd5b5061012a600480360360208110156101d757600080fd5b50356001600160a01b0316610687565b3480156101f357600080fd5b506100f56004803603604081101561020a57600080fd5b506001600160a01b0381358116916020013516610690565b34801561022e57600080fd5b506102556004803603602081101561024557600080fd5b50356001600160a01b03166107b7565b604080516001600160a01b039092168252519081900360200190f35b34801561027d57600080fd5b506100f56107d5565b34801561029257600080fd5b506100f5600480360360208110156102a957600080fd5b50356001600160a01b031661088a565b3480156102c557600080fd5b5061012a600480360360208110156102dc57600080fd5b50356001600160a01b03166109b4565b3480156102f857600080fd5b506100f56004803603602081101561030f57600080fd5b50356001600160a01b03166109bd565b6100f56004803603602081101561033557600080fd5b50356001600160a01b0316610a79565b6100f56004803603604081101561035b57600080fd5b506001600160a01b0381358116916020013516610c85565b34801561037f57600080fd5b5061012a6004803603602081101561039657600080fd5b50356001600160a01b0316610c9c565b3480156103b257600080fd5b50610255600480360360208110156103c957600080fd5b50356001600160a01b0316610ca5565b336000908152602081905260409020546001600160a01b0316610443576040805162461bcd60e51b815260206004820181905260248201527f776f726b657220646f6573206e6f7420686176652061206a6f62206f66666572604482015290519081900360640190fd5b3360009081526020818152604080832080546001600160a01b031981169091556001909252808320805460ff19169055516001600160a01b039091169182913480156108fc0292909190818181858888f193505050501580156104aa573d6000803e3d6000fd5b50336000818152602081905260408082205490516001600160a01b0390911692917fac8bfc64efe7b663f325ca81c7468a291a868aacc74c8f91cdc5c8141c15e38a91a350565b6000805b6001600160a01b03831660009081526001602052604090205460ff16600381111561051c57fe5b1492915050565b813361052e826107b7565b6001600160a01b031614610589576040805162461bcd60e51b815260206004820152601a60248201527f776f726b6572206e6f742068697265642062792073656e646572000000000000604482015290519081900360640190fd5b6000610596338585610cfe565b60008181526002602052604090205490915060ff16156105fd576040805162461bcd60e51b815260206004820152601760248201527f6461707020616c726561647920617574686f72697a6564000000000000000000604482015290519081900360640190fd5b600081815260026020526040808220805460ff19166001179055516001600160a01b03808616929087169133917fde756a416a233cdb16c23a1fa5dcb3113164968df8607e0a4eeca25974b96e0391a450505050565b60006002600061066c61066586610ca5565b8686610cfe565b815260208101919091526040016000205460ff169392505050565b600060036104f5565b813361069b826107b7565b6001600160a01b0316146106f6576040805162461bcd60e51b815260206004820152601a60248201527f776f726b6572206e6f742068697265642062792073656e646572000000000000604482015290519081900360640190fd5b6000610703338585610cfe565b60008181526002602052604090205490915060ff161515600114610764576040805162461bcd60e51b815260206004820152601360248201527219185c1c081b9bdd08185d5d1a1bdc9a5e9959606a1b604482015290519081900360640190fd5b600081815260026020526040808220805460ff19169055516001600160a01b03808616929087169133917f4d2275ddb8a6d9c36c95476c2eaf9746c1785b4ab76a99719fd647b36da46cee91a450505050565b6001600160a01b039081166000908152602081905260409020541690565b60013360009081526001602052604090205460ff1660038111156107f557fe5b146108315760405162461bcd60e51b8152600401808060200182810382526022815260200180610d506022913960400191505060405180910390fd5b336000818152600160209081526040808320805460ff19166002179055908290528082205490516001600160a01b0390911692917f0cfa12ab8ee8dc6f9b68938d5e764dafed737d43dc5ec8443abf81e645276eb691a3565b60026001600160a01b03821660009081526001602052604090205460ff1660038111156108b357fe5b146108f8576040805162461bcd60e51b815260206004820152601060248201526f1ddbdc9ad95c881b9bdd081bdddb995960821b604482015290519081900360640190fd5b6001600160a01b03818116600090815260208190526040902054163314610966576040805162461bcd60e51b815260206004820152601c60248201527f6f6e6c79206f776e65722063616e2072657469726520776f726b657200000000604482015290519081900360640190fd5b6001600160a01b038116600081815260016020526040808220805460ff19166003179055513392917f657b373e1262c26d1f1a83e8949f0af9067fe48026b308e47eec5ef6b40ff25d91a350565b600060016104f5565b6001600160a01b03818116600090815260208190526040902054163314610a2b576040805162461bcd60e51b815260206004820152601f60248201527f6f6e6c792068697265722063616e2063616e63656c20746865206f6666657200604482015290519081900360640190fd5b6001600160a01b038116600081815260016020526040808220805460ff19166003179055513392917fac8bfc64efe7b663f325ca81c7468a291a868aacc74c8f91cdc5c8141c15e38a91a350565b610a82816104f1565b610ad3576040805162461bcd60e51b815260206004820152601760248201527f776f726b6572206973206e6f7420617661696c61626c65000000000000000000604482015290519081900360640190fd5b6001600160a01b038116610b2e576040805162461bcd60e51b815260206004820152601d60248201527f776f726b657220616464726573732063616e206e6f7420626520307830000000604482015290519081900360640190fd5b66038d7ea4c68000341015610b82576040805162461bcd60e51b815260206004820152601560248201527466756e64696e672062656c6f77206d696e696d756d60581b604482015290519081900360640190fd5b6729a2241af62c0000341115610bd7576040805162461bcd60e51b815260206004820152601560248201527466756e64696e672061626f7665206d6178696d756d60581b604482015290519081900360640190fd5b6001600160a01b03811660009081526020818152604080832080546001600160a01b03191633179055600191829052909120805460ff1916828002179055506040516001600160a01b038216903480156108fc02916000818181858888f19350505050158015610c4b573d6000803e3d6000fd5b5060405133906001600160a01b038316907f2e0aa97ef0e6f4f76319861c90e91beec7a7a44a698cab856dfc1985a0c588f090600090a350565b610c8e82610a79565b610c988282610523565b5050565b600060026104f5565b600060026001600160a01b03831660009081526001602052604090205460ff166003811115610cd057fe5b14610cdc576000610cf8565b6001600160a01b03808316600090815260208190526040902054165b92915050565b604080516bffffffffffffffffffffffff19606095861b811660208084019190915294861b811660348301529290941b90911660488401528051603c818503018152605c909301905281519101209056fe776f726b6572206e6f74206973206e6f7420696e2070656e64696e67207374617465a26469706673582212208c53bf1eedc7351032f43e555009382924e5be081917cbd30b4284e0f572d9bc64736f6c63430007040033",
  "devdoc": {
    "kind": "dev",
    "methods": {
      "authorize(address,address)": {
        "params": {
          "_dappAddress": "address of the dapp that permission will be given to",
          "_workerAddress": "address of the worker node to given permission"
        }
      },
      "isAuthorized(address,address)": {
        "params": {
          "_dappAddress": "address of the DApp",
          "_workerAddress": "address of the worker"
        }
      },
      "isAvailable(address)": {
        "params": {
          "workerAddress": "address of the worker node"
        }
      },
      "isPending(address)": {
        "params": {
          "workerAddress": "address of the worker node"
        }
      }
    },
    "stateVariables": {
      "MAXIMUM_FUNDING": {
        "details": "transfers bigger than maximum value should be done directly"
      },
      "MINIMUM_FUNDING": {
        "details": "user can only hire a worker if he sends more than minimum value"
      },
      "permissions": {
        "details": "permissions keyed by hash(user, worker, dapp)"
      },
      "stateOf": {
        "details": "mapping from worker to its internal state"
      },
      "userOf": {
        "details": "mapping from worker to its user"
      }
    },
    "version": 1
  },
  "userdoc": {
    "events": {
      "Authorization(address,address,address)": {
        "notice": "A DApp has been authorized by a user for a worker"
      },
      "Deauthorization(address,address,address)": {
        "notice": "A DApp has been deauthorized by a user for a worker"
      },
      "JobOffer(address,address)": {
        "notice": "Events signalling every state transition"
      }
    },
    "kind": "user",
    "methods": {
      "acceptJob()": {
        "notice": "Called by the worker to accept the job"
      },
      "authorize(address,address)": {
        "notice": "Gives worker permission to act on a DApp"
      },
      "isAuthorized(address,address)": {
        "notice": "Returns is the dapp is authorized to be called by that worker"
      },
      "isAvailable(address)": {
        "notice": "Returns true if worker node is available"
      },
      "isPending(address)": {
        "notice": "Returns true if worker node is pending"
      },
      "rejectJob()": {
        "notice": "Called by the worker to reject a job offer"
      }
    },
    "version": 1
  },
  "storageLayout": {
    "storage": [
      {
        "astId": 368,
        "contract": "contracts/WorkerManagerAuthManagerImpl.sol:WorkerManagerAuthManagerImpl",
        "label": "userOf",
        "offset": 0,
        "slot": "0",
        "type": "t_mapping(t_address,t_address_payable)"
      },
      {
        "astId": 373,
        "contract": "contracts/WorkerManagerAuthManagerImpl.sol:WorkerManagerAuthManagerImpl",
        "label": "stateOf",
        "offset": 0,
        "slot": "1",
        "type": "t_mapping(t_address,t_enum(WorkerState)363)"
      },
      {
        "astId": 378,
        "contract": "contracts/WorkerManagerAuthManagerImpl.sol:WorkerManagerAuthManagerImpl",
        "label": "permissions",
        "offset": 0,
        "slot": "2",
        "type": "t_mapping(t_bytes32,t_bool)"
      }
    ],
    "types": {
      "t_address": {
        "encoding": "inplace",
        "label": "address",
        "numberOfBytes": "20"
      },
      "t_address_payable": {
        "encoding": "inplace",
        "label": "address payable",
        "numberOfBytes": "20"
      },
      "t_bool": {
        "encoding": "inplace",
        "label": "bool",
        "numberOfBytes": "1"
      },
      "t_bytes32": {
        "encoding": "inplace",
        "label": "bytes32",
        "numberOfBytes": "32"
      },
      "t_enum(WorkerState)363": {
        "encoding": "inplace",
        "label": "enum WorkerManagerAuthManagerImpl.WorkerState",
        "numberOfBytes": "1"
      },
      "t_mapping(t_address,t_address_payable)": {
        "encoding": "mapping",
        "key": "t_address",
        "label": "mapping(address => address payable)",
        "numberOfBytes": "32",
        "value": "t_address_payable"
      },
      "t_mapping(t_address,t_enum(WorkerState)363)": {
        "encoding": "mapping",
        "key": "t_address",
        "label": "mapping(address => enum WorkerManagerAuthManagerImpl.WorkerState)",
        "numberOfBytes": "32",
        "value": "t_enum(WorkerState)363"
      },
      "t_mapping(t_bytes32,t_bool)": {
        "encoding": "mapping",
        "key": "t_bytes32",
        "label": "mapping(bytes32 => bool)",
        "numberOfBytes": "32",
        "value": "t_bool"
      }
    }
  }
}