{
  "abi": [
    {
      "inputs": [],
      "stateMutability": "nonpayable",
      "type": "constructor"
    },
    {
      "inputs": [
        {
          "internalType": "Machine.Hash",
          "name": "_initialHash",
          "type": "bytes32"
        }
      ],
      "name": "instantiate",
      "outputs": [
        {
          "internalType": "contract SingleLevelTournament",
          "name": "",
          "type": "address"
        }
      ],
      "stateMutability": "nonpayable",
      "type": "function"
    }
  ],
  "bytecode": {
    "object": "0x608060405234801561001057600080fd5b5061553b806100206000396000f3fe608060405234801561001057600080fd5b506004361061002b5760003560e01c806369ea58d814610030575b600080fd5b61004361003e3660046100a6565b61005f565b6040516001600160a01b03909116815260200160405180910390f35b6000808260405161006f90610099565b908152602001604051809103906000f080158015610091573d6000803e3d6000fd5b509392505050565b615446806100c083390190565b6000602082840312156100b857600080fd5b503591905056fe6101206040523480156200001257600080fd5b5060405162005446380380620054468339810160408190526200003591620000c8565b6080819052600060a081905260c08190526001600160401b03421660e05260d261010081905282918291908062000077565b6001600160401b031690620000af565b62000083834262000067565b600080546001600160401b0319166001600160401b039290921691909117905550505050505062000118565b60008282620000bf8183620000e2565b95945050505050565b600060208284031215620000db57600080fd5b5051919050565b6001600160401b038181168382160190808211156200011157634e487b7160e01b600052601160045260246000fd5b5092915050565b60805160a05160c05160e051610100516152b162000195600039600081816103e6015281816112a5015261133b0152600081816103c5015281816112e0015261131901526000818161034b01528181610b4201528181610b74015261153901526000818161080d0152610b15015260006105f701526152b16000f3fe608060405234801561001057600080fd5b50600436106100b45760003560e01c80638acc802d116100715780638acc802d146101d1578063a1af906b146101f2578063cb2773db14610224578063fcc6077d14610249578063fcc85391146102b7578063ff78e0ee146102ca57600080fd5b80631d5bf796146100b95780635017746a146100ce5780636041ddd5146100e157806360f302dc146100f45780636a1a140d146101245780637795820c14610147575b600080fd5b6100cc6100c7366004614dca565b6102dd565b005b6100cc6100dc366004614e3f565b610447565b6100cc6100ef366004614eb0565b61062b565b600054610107906001600160401b031681565b6040516001600160401b0390911681526020015b60405180910390f35b610137610132366004614f44565b610a81565b604051901515815260200161011b565b6101a5610155366004614f60565b6040805180820182526000808252602091820181905292835260028152818320600382529282902054825180840190935292546001600160401b038082168452600160401b909104169082015291565b6040805183516001600160401b039081168252602094850151169381019390935282015260600161011b565b6101e46101df366004614f60565b610b01565b60405190815260200161011b565b6101fa610b40565b604080516001600160401b039485168152928416602084015292169181019190915260600161011b565b61022c610b9f565b60408051931515845260208401929092529082015260600161011b565b61025c610257366004614f60565b610bf4565b60405161011b9190600060c0820190508251825260208301516020830152604083015160408301526060830151606083015260808301516001600160401b0380821660808501528060a08601511660a0850152505092915050565b6100cc6102c5366004614f79565b610c8b565b6100cc6102d8366004614fbc565b610e3a565b6102e561129f565b156103375760405162461bcd60e51b815260206004820152601b60248201527f746f75726e616d656e7420636865636b2d696e20656c6170736564000000000060448201526064015b60405180910390fd5b6000610343838361135f565b9050610372817f000000000000000000000000000000000000000000000000000000000000000088888861138e565b60008181526003602090815260408083208990556002825291829020825180840190935280546001600160401b038082168552600160401b9091041691830191909152906103bf90611409565b61040a817f00000000000000000000000000000000000000000000000000000000000000007f0000000000000000000000000000000000000000000000000000000000000000611455565b6040805180820190915281546001600160401b038082168352600160401b90910416602082015261043e90839086866114fe565b50505050505050565b61044f6116d7565b1561046c5760405162461bcd60e51b815260040161032e90614ff0565b6000600481610488610483368b90038b018b615020565b6116fb565b81526020808201929092526040908101600020815160c081018352815481526001820154938101939093526002810154918301919091526003810154606083015260048101546001600160401b038082166080850152600160401b9091041660a083015291506104f79061173d565b6040805160c08101825282548152600183015460208201526002830154918101919091526003820154606082015260048201546001600160401b038082166080840152600160401b9091041660a082015261055190611789565b6040805160c08101825282548152600183015460208201526002830154918101919091526003820154606082015260048201546001600160401b038082166080840152600160401b9091041660a08201526105ad9087876117f1565b86356000908152600260209081526040808320918a013583529091206105d282611803565b6105db8261181f565b6105e481611803565b6105ed8161181f565b50610620905081887f000000000000000000000000000000000000000000000000000000000000000089898989896118df565b505050505050505050565b6106336116d7565b156106505760405162461bcd60e51b815260040161032e90614ff0565b6000600481610667610483368a90038a018a615020565b81526020808201929092526040908101600020815160c081018352815481526001820154938101939093526002810154918301919091526003810154606083015260048101546001600160401b038082166080850152600160401b9091041660a083015291506106d69061173d565b6040805160c08101825282548152600183015460208201526002830154918101919091526003820154606082015260048201546001600160401b038082166080840152600160401b9091041660a082015261073090611a0c565b85356000908152600260209081526040808320828a0135845292819020815180830190925283546001600160401b038082168452600160401b909104169282019290925261077d90611a5f565b6040805180820190915281546001600160401b038082168352600160401b9091041660208201526107ad90611a5f565b6040805160c08101825284548152600185015460208201526002850154918101919091526003840154606082015260048401546001600160401b038082166080840152600160401b9091041660a0820152600090819081908190610831907f0000000000000000000000000000000000000000000000000000000000000000611ab5565b9350935093509350600061087c85858c8c8080601f016020809104026020016040519081016040528093929190818152602001838380828437600092019190915250611b9e92505050565b90506108918d3561088d8e8e61135f565b1490565b1561092a578281146108e55760405162461bcd60e51b815260206004820152601d60248201527f66696e616c207374617465206f6e6520646f65736e2774206d61746368000000604482015260640161032e565b6108f0876000611bab565b6040805180820190915287546001600160401b038082168352600160401b909104166020820152610925908e35908e8e6114fe565b610a1e565b61093c60208e013561088d8e8e61135f565b156109d6578181146109905760405162461bcd60e51b815260206004820152601d60248201527f66696e616c2073746174652074776f20646f65736e2774206d61746368000000604482015260640161032e565b61099b866000611bab565b6040805180820190915286546001600160401b038082168352600160401b9091041660208281019190915261092591908f0135908e8e6114fe565b60405162461bcd60e51b815260206004820152601f60248201527f77726f6e67206c6566742f7269676874206e6f64657320666f72207374657000604482015260640161032e565b60046000610a368f8036038101906104839190615020565b8152602081019190915260400160009081208181556001810182905560028101829055600381019190915560040180546001600160801b031916905550505050505050505050505050565b803560009081526002602081815260408084208151808301835290546001600160401b038082168352600160401b9182900481168386015284880135875294845282862083518085019094525480861684520490931691810191909152610ae782611c91565b1580610af95750610af781611c91565b155b949350505050565b600080610b0d83610bf4565b9050610b39817f0000000000000000000000000000000000000000000000000000000000000000611cd3565b9392505050565b7f0000000000000000000000000000000000000000000000000000000000000000600080610b6d83611cf0565b9150610b987f0000000000000000000000000000000000000000000000000000000000000000611d34565b9050909192565b6000806000610bac6116d7565b610bbc5750600092839250829150565b600080610bc7611d70565b9150915081610bd857610bd861507c565b6000818152600360205260409020546001969195509350915050565b6040805160c081018252600080825260208201819052918101829052606081018290526080810182905260a081019190915250600090815260046020818152604092839020835160c08101855281548152600182015492810192909252600281015493820193909352600383015460608201529101546001600160401b038082166080840152600160401b9091041660a082015290565b610c936116d7565b15610cb05760405162461bcd60e51b815260040161032e90614ff0565b6000600481610cc7610483368a90038a018a615020565b81526020808201929092526040908101600020815160c081018352815481526001820154938101939093526002810154918301919091526003810154606083015260048101546001600160401b038082166080850152600160401b9091041660a08301529150610d369061173d565b6040805160c08101825282548152600183015460208201526002830154918101919091526003820154606082015260048201546001600160401b038082166080840152600160401b9091041660a0820152610d9090611d85565b6040805160c08101825282548152600183015460208201526002830154918101919091526003820154606082015260048201546001600160401b038082166080840152600160401b9091041660a0820152610dec9086866117f1565b610dfa818787878787611de4565b85356000908152600260205260409020610e139061181f565b610e32600260008860200135815260200190815260200160002061181f565b505050505050565b610e426116d7565b15610e5f5760405162461bcd60e51b815260040161032e90614ff0565b610ee060046000610e7861048336889003880188615020565b81526020808201929092526040908101600020815160c0810183528154815260018201549381019390935260028101549183019190915260038101546060830152600401546001600160401b038082166080840152600160401b9091041660a082015261173d565b8235600090815260026020908152604080832082870135845292819020815180830190925283546001600160401b038082168452600160401b9091041692820192909252610f2d90611a5f565b6040805180820190915281546001600160401b038082168352600160401b909104166020820152610f5d90611a5f565b6040805180820190915282546001600160401b038082168352600160401b909104166020820152610f8d90611c91565b8015610fc657506040805180820190915281546001600160401b038082168352600160401b909104166020820152610fc490611c91565b155b156110b057610fd785358585611ed4565b61103b5760405162461bcd60e51b815260206004820152602f60248201527f6368696c64206e6f64657320646f206e6f74206d6174636820706172656e742060448201526e28636f6d6d69746d656e744f6e652960881b606482015260840161032e565b6040805180820190915281546001600160401b038082168352600160401b9091041660208201526110769061106f90611ee8565b8390611bab565b6040805180820190915282546001600160401b038082168352600160401b9091041660208201526110ab9086359086866114fe565b611246565b6040805180820190915282546001600160401b038082168352600160401b9091041660208201526110e090611c91565b15801561111857506040805180820190915281546001600160401b038082168352600160401b90910416602082015261111890611c91565b156112065761112c60208601358585611ed4565b6111905760405162461bcd60e51b815260206004820152602f60248201527f6368696c64206e6f64657320646f206e6f74206d6174636820706172656e742060448201526e28636f6d6d69746d656e7454776f2960881b606482015260840161032e565b6040805180820190915282546001600160401b038082168352600160401b9091041660208201526111cb906111c490611ee8565b8290611bab565b6040805180820190915281546001600160401b038082168352600160401b909104166020828101919091526110ab91908701359086866114fe565b60405162461bcd60e51b815260206004820152601560248201527418d85b9b9bdd081dda5b88189e481d1a5b595bdd5d605a1b604482015260640161032e565b6004600061125c61048336899003890189615020565b8152602081019190915260400160009081208181556001810182905560028101829055600381019190915560040180546001600160801b03191690555050505050565b600060d27f00000000000000000000000000000000000000000000000000000000000000006001600160401b0316111561130c576113076001600160401b037f00000000000000000000000000000000000000000000000000000000000000001660d2611f0e565b905090565b6113076001600160401b037f0000000000000000000000000000000000000000000000000000000000000000167f0000000000000000000000000000000000000000000000000000000000000000611f0e565b604080516020808201859052818301849052825180830384018152606090920190925280519101205b92915050565b600061139985611d34565b905060006113a982868686611f24565b905086811461043e5760405162461bcd60e51b815260206004820152602360248201527f636f6d6d69746d656e74206c61737420737461746520646f65736e2774206d616044820152620e8c6d60eb1b606482015260840161032e565b50565b61141281611fbb565b6114065760405162461bcd60e51b815260206004820152601460248201527318db1bd8dac81a5cc81a5b9a5d1a585b1a5e995960621b604482015260640161032e565b600061147d61146d6001600160401b03421685611fcf565b6001600160401b03841690611fe6565b90506001600160401b0381166114df5760405162461bcd60e51b815260206004820152602160248201527f63616e27742063726561746520636c6f636b2077697468207a65726f2074696d6044820152606560f81b606482015260840161032e565b83546001600160801b0319166001600160401b03909116179092555050565b61150c8461088d848461135f565b6115185761151861507c565b600080611523611d70565b9150915081156116b25760008061155d838988887f0000000000000000000000000000000000000000000000000000000000000000612017565b6000828152600460208181526040808420855181558583015160018201558582015160028083019190915560608701516003830155608087015191909401805460a08801516001600160401b039384166001600160801b031990921691909117600160401b9184168202179091558a86529383528185208251808401909352805480831684529490940416918101919091529395509193509091611601908a6120db565b6040805180820190915283546001600160401b038082168352600160401b909104166020820152909150600090611638908b61210e565b905061164382612138565b5061165a6114066001600160401b0384168361217f565b6116638361181f565b61166d6000600155565b8a867f32911001007d8c9879b608566be8acc2184592f0a43706f804f285455bb0f52e8b6040516116a091815260200190565b60405180910390a35050505050610e32565b84516000546116ce91611406916001600160401b03169061217f565b610e3286600155565b60008054611307906001600160401b0316425b6001600160401b0391821691161190565b6000816040516020016117209190815181526020918201519181019190915260400190565b604051602081830303815290604052805190602001209050919050565b6117468161218d565b6114065760405162461bcd60e51b81526020600482015260146024820152731b585d18da08191bd95cc81b9bdd08195e1a5cdd60621b604482015260640161032e565b60808101516001600160401b03166001146114065760405162461bcd60e51b815260206004820152602260248201527f6d61746368206973206e6f7420726561647920746f2062652066696e616c697a604482015261195960f21b606482015260840161032e565b82516117fe90838361219b565b505050565b8054600160401b90046001600160401b03161561140657611406815b6040805180820190915281546001600160401b038082168352600160401b909104166020820152600090611852906121f2565b90506001600160401b0381166118b85760405162461bcd60e51b815260206004820152602560248201527f63616e277420616476616e636520636c6f636b2077697468206e6f2074696d65604482015264081b19599d60da1b606482015260840161032e565b6118c182612229565b815467ffffffffffffffff19166001600160401b0391909116179055565b6040805160c0810182528954815260018a0154602082015260028a0154918101919091526003890154606082015260048901546001600160401b038082166080840152600160401b9091041660a0820152600090819061193f9088612278565b6119575761194d8a88612291565b9092509050611967565b6119618a8761236d565b90925090505b89600301546000036119be578785146119b95760405162461bcd60e51b81526020600482015260146024820152731859dc9959481a185cda081a5b98dbdc9c9958dd60621b604482015260640161032e565b6119f5565b60048a015460038b01546119f591600160401b90046001600160401b0316906119e9906001906150a8565b8b35919088888861245c565b6119ff8a866124d3565b9850989650505050505050565b60808101516001600160401b0316156114065760405162461bcd60e51b81526020600482015260156024820152741b585d18da081a5cc81b9bdd08199a5b9a5cda1959605a1b604482015260640161032e565b611a6881611fbb565b156114065760405162461bcd60e51b815260206004820152601860248201527f636c6f636b206973206e6f7420696e697469616c697a65640000000000000000604482015260640161032e565b60008060008085608001516001600160401b0316600014611ad857611ad861507c565b85519350611ae68686611cd3565b925060028660600151611af991906150d1565b600003611b51576002611b0b876124f2565b611b1591906150e5565b6001600160401b0316600003611b3e5760208601519150611b37866040015190565b9050611b95565b60408601515b9150611b37866020015190565b6002611b5c876124f2565b611b6691906150e5565b6001600160401b0316600003611b80576040860151611b44565b60208601519150611b92866040015190565b90505b92959194509250565b6000610af9848484612501565b8154600090611bc3906001600160401b031683611fe6565b90506001600160401b038116611c275760405162461bcd60e51b815260206004820152602360248201527f63616e277420726573657420636c6f636b2077697468206e6f2074696d65206c60448201526219599d60ea1b606482015260840161032e565b6000611c3c6001600160401b0383168261217f565b9050611c5f611c4d600060d261510b565b6001600160401b039081169083161190565b156114df57611c70600060d261510b565b905083546001600160801b0319166001600160401b03909116179092555050565b60208101516000906001600160401b0316611cae57506001919050565b611388611cc0425b8460200151611fcf565b83516001600160401b0391821691161190565b600080611ce38460a00151611cf0565b9050610af9848483612593565b60408051606081018252601f8152601060208201526000918101829052806001600160401b03841660038110611d2857611d28615132565b60200201519392505050565b604080516060810182526020808252600f90820152601091810191909152600090806001600160401b03841660038110611d2857611d28615132565b6001546000908015611d8157600191505b9091565b608081015160016001600160401b03909116116114065760405162461bcd60e51b815260206004820152601760248201527f6d617463682063616e277420626520616476616e636564000000000000000000604482015260640161032e565b6040805160c08101825287548152600188015460208201526002880154918101919091526003870154606082015260048701546001600160401b038082166080840152600160401b9091041660a0820152611e3f9085612278565b611e5e57611e4e84838361219b565b611e598683836125c7565b611e74565b611e6983838361219b565b611e7486838361263d565b611e8661048336879003870187615020565b865460018801546040517f29ff393c59c37f91e930fad4d88447efc58cf5d7c048499e1f20edb36994137892611ec492908252602082015260400190565b60405180910390a2505050505050565b6000610af9611ee3848461135f565b851490565b805160009061138890611eff428560200151611fcf565b6001600160401b031690611fe6565b6000610b396001600160401b03841683426126f0565b60006001600160401b0385168214611f3e57611f3e61507c565b60005b856001600160401b0316811015611fb157838382818110611f6457611f64615132565b9050602002013585604051602001611f86929190918252602082015260400190565b6040516020818303038152906040528051906020012094508080611fa990615148565b915050611f41565b5092949350505050565b80516000906001600160401b031615611388565b60008282611fdd8183615161565b95945050505050565b600082826001600160401b038082169083161061200c576120078183615161565b611fdd565b506000949350505050565b6040805160c081018252600080825260208201819052918101829052606081018290526080810182905260a08101829052612053868686611ed4565b61205f5761205f61507c565b6000604051806040016040528089815260200188815250905060006040518060c001604052808a8152602001888152602001878152602001600081526020016120a787611d34565b6001600160401b03168152602001866001600160401b031681525090506120cd826116fb565b999098509650505050505050565b8051825160009182916120f9916001600160401b039091169061217f565b9050610af96001600160401b0342168261217f565b805182516000916001600160401b039081169116111561213057508151611388565b508051611388565b600080546001600160401b03908116908316111561217757506000805467ffffffffffffffff19166001600160401b0392909216919091179055600190565b506000919050565b60008282611fdd818361510b565b8051600090155b1592915050565b6121a6838383611ed4565b6117fe5760405162461bcd60e51b815260206004820152601e60248201527f6368696c64206e6f64657320646f6e2774206d6174636820706172656e740000604482015260640161032e565b60208101516000906001600160401b031661220c57505190565b61138861221842611cb6565b83516001600160401b031690611fe6565b8054600160401b90046001600160401b031661226457805467ffffffffffffffff60401b1916600160401b6001600160401b03421602179055565b805467ffffffffffffffff60401b19169055565b6000610b3983602001518361088d90919063ffffffff16565b600482015460009081906001600160401b03166001146122b3576122b361507c565b600280850184905560048501805467ffffffffffffffff1916908190556040805160c08101825287548152600188015460208201529081018690526003870154606082015260006080820152600160401b9091046001600160401b031660a082015261231e906124f2565b61232891906150e5565b6001600160401b0316600003612351576001840154915061234a846002015490565b9050612366565b60028401549150612363846001015490565b90505b9250929050565b600482015460009081906001600160401b031660011461238f5761238f61507c565b600180850184905560048501805467ffffffffffffffff191690556003850180546000906123be908490615181565b90915550506040805160c0810182528554815260018601546020820152600286810154928201929092526003860154606082015260048601546001600160401b038082166080840152600160401b9091041660a082015261241e906124f2565b61242891906150e5565b6001600160401b031660000361244a576002840154915061234a846001015490565b60018401549150612363846002015490565b600061246786611d34565b905060006124788583888787612709565b90508781146124c95760405162461bcd60e51b815260206004820152601e60248201527f636f6d6d69746d656e7420737461746520646f65736e2774206d617463680000604482015260640161032e565b5050505050505050565b60048201546001600160401b0316156124ee576124ee61507c565b9055565b60006113888260a00151611d34565b6040805180820182528481528151808301909252828252600060208381018290528201929092526001600160401b0367fffffffffffffffe19858216016125805760405162461bcd60e51b8152602060048201526013602482015272149154d1550815539253541311535153951151606a1b604482015260640161032e565b61258982612808565b5050519050610b39565b606083015160009060016001600160401b0384161b906125b38282615194565b6125bd9086615181565b9695505050505050565b600483015460016001600160401b03909116116125e6576125e661507c565b6001830180548455829055600283018190556004830180546001600160401b0316906000612613836151ab565b91906101000a8154816001600160401b0302191690836001600160401b0316021790555050505050565b600483015460016001600160401b039091161161265c5761265c61507c565b6002830180548455600184018390558190556004830180546001600160401b0316906000612689836151ab565b91906101000a8154816001600160401b0302191690836001600160401b03160217905550508260040160009054906101000a90046001600160401b03166001600160401b03166001901b8360030160008282546126e69190615181565b9091555050505050565b6000610af7826116ea6001600160401b0387168661217f565b600080612717600187615161565b6001600160401b031690508281146127315761273161507c565b60005b818110156127fc5761274786821c612903565b1561279d578785858381811061275f5761275f615132565b90506020020135604051602001612780929190918252602082015260400190565b6040516020818303038152906040528051906020012097506127ea565b8484828181106127af576127af615132565b90506020020135886040516020016127d1929190918252602082015260400190565b6040516020818303038152906040528051906020012097505b806127f481615148565b915050612734565b50959695505050505050565b60008061281483612910565b905067fffffffffffffffe196001600160401b038216016128385750600292915050565b61284183612920565b1561284f5750600392915050565b600061285a8461293e565b9050600181161561286f575060049392505050565b6002811615612882575060059392505050565b600061288d8561294b565b9050600061289b8683612958565b90506128a88682846129df565b6128b384600161510b565b93506128bf8685612f51565b6128c88661293e565b9250600183161515806128dd57506002831615155b156128f7576128eb86612f64565b50600195945050505050565b50600095945050505050565b60006121946002836150d1565b60006113886103205b8390612f72565b600061292d610328612919565b6001600160401b0316151592915050565b60006113886102e8612919565b6000611388610330612919565b600060038216156129ab5760405162461bcd60e51b815260206004820152601d60248201527f6d6973616c69676e6564207265616455696e7433322061646472657373000000604482015260640161032e565b600719821660006038600385901b165b905060006129c98684613024565b90506001600160401b038116603f83161c6125bd565b61707f82166013036129f6576117fe838383613081565b61707f821661300303612a0e576117fe8383836130e7565b61707f821661606303612a26576117fe838383613151565b61707f8216606303612a3d576117fe8383836131c1565b61707f821661701303612a55576117fe83838361322b565b612a6382603360008061328a565b15612a73576117fe8383836132cc565b607f8216606f03612a89576117fe83838361332a565b612a9882601360016000613370565b15612aa8576117fe838383613399565b612ab78260336007600061328a565b15612ac7576117fe8383836133f0565b61707f821661302303612adf576117fe838383613449565b607f8216603703612af5576117fe8383836134a0565b61707f8216606703612b0c576117fe8383836134eb565b61707f8216601b03612b23576117fe83838361354e565b612b3282601360056000613370565b15612b42576117fe8383836135b0565b612b5182601b6005600061328a565b15612b61576117fe838383613607565b61707f821661106303612b79576117fe838383613665565b61707f821661200303612b91576117fe8383836136cf565b607f8216601703612ba7576117fe838383613719565b61707f821661706303612bbf576117fe83838361375a565b612bcd82603b60008061328a565b15612bdd576117fe8383836137c4565b612bec82601360056010613370565b15612bfc576117fe838383613838565b612c0b8260336006600061328a565b15612c1b576117fe83838361388a565b612c2a82601b6005602061328a565b15612c3a576117fe8383836138e3565b61707f821661506303612c52576117fe83838361393d565b612c618260336000602061328a565b15612c71576117fe83838361399b565b61707f821661400303612c89576117fe8383836139f4565b612c9882601b6001600061328a565b15612ca8576117fe838383613a57565b612cb78260336005600061328a565b15612cc7576117fe838383613aae565b612cd68260336004600061328a565b15612ce6576117fe838383613b13565b61707f821661202303612cfe576117fe838383613b6c565b612d0d8260336001600061328a565b15612d1d576117fe838383613bc3565b61707f821661406303612d35576117fe838383613c28565b61707f8216602303612d4c576117fe838383613c87565b612d5b82603b6000602061328a565b15612d6b576117fe838383613cde565b61707f821661401303612d83576117fe838383613d3a565b612d928260336005602061328a565b15612da2576117fe838383613d8e565b61707f821661500303612dba576117fe838383613dee565b61707f821661102303612dd2576117fe838383613e52565b612de182603b6005600061328a565b15612df1576117fe838383613ea9565b61707f821661600303612e09576117fe838383613f1f565b612e1882603b6001600061328a565b15612e28576117fe838383613f80565b61707f8216600303612e3f576117fe838383613fd6565b612e4e8260336003600061328a565b15612e5e576117fe838383614035565b612e6d82603b6005602061328a565b15612e7d576117fe8383836140b9565b61707f821661100303612e95576117fe838383614110565b61707f821661601303612ead576117fe83838361416f565b61707f821661301303612ec5576117fe8383836141c3565b612ed48260336002600061328a565b15612ee4576117fe838383614241565b61707f821661201303612efc576117fe8383836142ab565b61707f8216600f03612f13576117fe838383614303565b60405162461bcd60e51b815260206004820152601360248201527234b63632b3b0b61034b739ba393ab1ba34b7b760691b604482015260640161032e565b612f606103205b83908361430d565b5050565b61140681610328600161430d565b600080612f828460200151614355565b6040516001600160c01b0319821660208201529091506000906028016040516020818303038152906040528051906020012090506000612fca86612fc58761437f565b61438b565b905080821461301b5760405162461bcd60e51b815260206004820152601860248201527f526561642076616c756520646f65736e2774206d617463680000000000000000604482015260640161032e565b6125bd836143a4565b600060078216156130775760405162461bcd60e51b815260206004820152601d60248201527f6d6973616c69676e6564207265616455696e7436342061646472657373000000604482015260640161032e565b610b3983836143b8565b600061308c836143cd565b90506000613099846143dc565b905060006130a6856143f9565b905060ff8216156130dd5760006130bd8783614410565b905060006130cd828660030b0190565b90506130da888583614431565b50505b610e328685614457565b60006130f2836143cd565b905060006130ff846143dc565b9050600061310c856143f9565b9050600061311a8783614410565b905060006131318861312c8488614465565b613024565b905060ff84161561314757613147888583614431565b6124c98887614457565b600061315c8361447c565b90506000613169846143f9565b9050600061317685614520565b905060006131848784614410565b905060006131928884614410565b9050806001600160401b0316826001600160401b03161015613147576124c9886131bc8888614465565b614536565b60006131cc8361447c565b905060006131d9846143f9565b905060006131e685614520565b905060006131f48784614410565b905060006132028884614410565b9050806001600160401b0316826001600160401b031603613147576124c9886131bc8888614465565b6000613236836143cd565b90506000613243846143dc565b90506000613250856143f9565b905060ff8216156130dd5760006132678783614410565b905061327f87846132788760030b90565b8416614431565b50610e328685614457565b600063fe00707f84650ffffffff000600c86901b166701fffffffe000000601986901b165b171763ffffffff1681871663ffffffff1614915050949350505050565b60006132d7836143dc565b905060006132e4846143f9565b905060006132f185614520565b905060ff8316156130dd5760006133088784614410565b905060006133168884614410565b90506130da8886848401614431565b614431565b600061333583614540565b90506000613342846143dc565b905060ff81161561335b5761335b858260048601614431565b613369856131bc8585614465565b5050505050565b600063fc00707f84650ffffffff000600c86901b166703fffffffc000000601a86901b166132af565b60006133a483614598565b905060006133b1846143dc565b905060006133be856143f9565b905060ff8216156130dd5760006133d58783614410565b905061327f87846001600160401b038416603f88161b614431565b60006133fb836143dc565b90506000613408846143f9565b9050600061341585614520565b905060ff8316156130dd57600061342c8784614410565b9050600061343a8884614410565b90506130da8886838516614431565b6000613454836145ae565b90506000613461846143f9565b9050600061346e85614520565b9050600061347c8784614410565b9050600061348a8884614410565b90506131478861349a8488614465565b836145dd565b60006134ab836143dc565b905060006134c7846000611388620fffff600c84901c1661448b565b905060ff8216156134e1576134e185836133258460030b90565b6133698584614457565b60006134f6836143cd565b90506000613503846143dc565b90506000613510856143f9565b9050600061351e8783614410565b905060ff83161561353757613537878460048801614431565b61043e876001196135488488614465565b16614536565b6000613559836143cd565b90506000613566846143dc565b90506000613573856143f9565b905060006135876135848884614410565b90565b905060ff8316156135a6578084016135a48885600384900b614431565b505b61043e8786614457565b60006135bb83614598565b905060006135c8846143dc565b905060006135d5856143f9565b905060ff8216156130dd5760006135ec8783614410565b905061327f87846001600160401b038416603f88161c614431565b600061361283614520565b9050600061361f846143dc565b9050600061362c856143f9565b9050600061363a8783614410565b9050600063ffffffff8216601f86161c5b905060ff8416156131475761314788856133258460030b90565b60006136708361447c565b9050600061367d846143f9565b9050600061368a85614520565b905060006136988784614410565b905060006136a68884614410565b9050806001600160401b0316826001600160401b031614613147576124c9886131bc8888614465565b60006136da836143cd565b905060006136e7846143dc565b905060006136f4856143f9565b905060006137028783614410565b9050600061364b886137148488614465565b612958565b6000613733836000611388620fffff600c84901c1661448b565b90506000613740846143dc565b905060ff8116156134e1576134e185826133258686614465565b60006137658361447c565b90506000613772846143f9565b9050600061377f85614520565b9050600061378d8784614410565b9050600061379b8884614410565b9050806001600160401b0316826001600160401b031610613147576124c9886131bc8888614465565b60006137cf836143dc565b905060006137dc846143f9565b905060006137e985614520565b905060006137fa6135848885614410565b9050600061380b6135848985614410565b905060ff8516156131475760008183015b905061382d89876133258460030b90565b506124c98887614457565b600061384383614598565b90506000613850846143dc565b9050600061385d856143f9565b905060ff8216156130dd5760006138748783614410565b905061327f8784600784900b603f88161d614431565b6000613895836143dc565b905060006138a2846143f9565b905060006138af85614520565b905060ff8316156130dd5760006138c68784614410565b905060006138d48884614410565b90506130da8886838517614431565b60006138ee83614520565b905060006138fb846143dc565b90506000613908856143f9565b905060006139196135848884614410565b905060ff8316156135a6576135a68784613325600385900b601f89161d5b60030b90565b60006139488361447c565b90506000613955846143f9565b9050600061396285614520565b905060006139708784614410565b9050600061397e8884614410565b90508060070b8260070b12613147576124c9886131bc8888614465565b60006139a6836143dc565b905060006139b3846143f9565b905060006139c085614520565b905060ff8316156130dd5760006139d78784614410565b905060006139e58884614410565b90506130da8886838503614431565b60006139ff836143cd565b90506000613a0c846143dc565b90506000613a19856143f9565b90506000613a278783614410565b90506000613a3e88613a398488614465565b614639565b905060ff8416156131475761314788858360ff16614431565b6000613a6283614520565b90506000613a6f846143dc565b90506000613a7c856143f9565b90506000613a8a8783614410565b905060ff8316156135a6576135a6878461332563ffffffff8516601f89161b613937565b6000613ab9836143dc565b90506000613ac6846143f9565b90506000613ad385614520565b905060ff8316156130dd576000613aea8784614410565b90506000613af88884614410565b90506130da88866001600160401b038516603f85161c614431565b6000613b1e836143dc565b90506000613b2b846143f9565b90506000613b3885614520565b905060ff8316156130dd576000613b4f8784614410565b90506000613b5d8884614410565b90506130da8886838518614431565b6000613b77836145ae565b90506000613b84846143f9565b90506000613b9185614520565b90506000613b9f8784614410565b90506000613bad8884614410565b905061314788613bbd8488614465565b8361464e565b6000613bce836143dc565b90506000613bdb846143f9565b90506000613be885614520565b905060ff8316156130dd576000613bff8784614410565b90506000613c0d8884614410565b90506130da88866001600160401b038516603f85161b614431565b6000613c338361447c565b90506000613c40846143f9565b90506000613c4d85614520565b90506000613c5b8784614410565b90506000613c698884614410565b90508060070b8260070b1215613147576124c9886131bc8888614465565b6000613c92836145ae565b90506000613c9f846143f9565b90506000613cac85614520565b90506000613cba8784614410565b90506000613cc88884614410565b905061314788613cd88488614465565b836146d6565b6000613ce9836143dc565b90506000613cf6846143f9565b90506000613d0385614520565b90506000613d146135848885614410565b90506000613d256135848985614410565b905060ff85161561314757600081830361381c565b6000613d45836143cd565b90506000613d52846143dc565b90506000613d5f856143f9565b905060ff8216156130dd576000613d768783614410565b905061327f8784613d878760030b90565b8418614431565b6000613d99836143dc565b90506000613da6846143f9565b90506000613db385614520565b905060ff8316156130dd576000613dca8784614410565b90506000613dd88884614410565b90506130da8886600785900b603f85161d614431565b6000613df9836143cd565b90506000613e06846143dc565b90506000613e13856143f9565b90506000613e218783614410565b90506000613e3888613e338488614465565b614703565b905060ff8416156131475761314788858361ffff16614431565b6000613e5d836145ae565b90506000613e6a846143f9565b90506000613e7785614520565b90506000613e858784614410565b90506000613e938884614410565b905061314788613ea38488614465565b83614756565b6000613eb4836143dc565b90506000613ec1846143f9565b90506000613ece85614520565b90506000613edc8784614410565b90506000613eea8884614410565b9050600063ffffffff8316601f83161c5b905060ff861615613f1557613f1589876133258460030b90565b6106208988614457565b6000613f2a836143cd565b90506000613f37846143dc565b90506000613f44856143f9565b90506000613f528783614410565b90506000613f64886137148488614465565b905060ff8416156131475761314788858363ffffffff16614431565b6000613f8b836143dc565b90506000613f98846143f9565b90506000613fa585614520565b90506000613fb38784614410565b90506000613fc18884614410565b9050600063ffffffff8316601f83161b613efb565b6000613fe1836143cd565b90506000613fee846143dc565b90506000613ffb856143f9565b905060006140098783614410565b9050600061401b88613a398488614465565b905060ff8416156131475761314788856133258460000b90565b6000614040836143dc565b9050600061404d846143f9565b9050600061405a85614520565b905060ff8316156130dd5760006140718784614410565b9050600061407f8884614410565b90506000816001600160401b0316836001600160401b031610156140a1575060015b6140ac898783614431565b505050610e328685614457565b60006140c4836143dc565b905060006140d1846143f9565b905060006140de85614520565b905060006140ef6135848885614410565b905060006140fd8884614410565b90506000600383900b601f83161d613efb565b600061411b836143cd565b90506000614128846143dc565b90506000614135856143f9565b905060006141438783614410565b9050600061415588613e338488614465565b905060ff8416156131475761314788856133258460010b90565b600061417a836143cd565b90506000614187846143dc565b90506000614194856143f9565b905060ff8216156130dd5760006141ab8783614410565b905061327f87846141bc8760030b90565b8417614431565b60006141ce836143cd565b905060006141db846143dc565b905060006141e8856143f9565b905060ff8216156130dd5760006141ff8783614410565b905061420b8460030b90565b6001600160401b0316816001600160401b031610156142355761423087846001614431565b61327f565b61327f87846000614431565b600061424c836143dc565b90506000614259846143f9565b9050600061426685614520565b905060ff8316156130dd57600061427d8784614410565b9050600061428b8884614410565b905060008160070b8360070b12156140a1575060016140ac898783614431565b60006142b6836143cd565b905060006142c3846143dc565b905060006142d0856143f9565b905060ff8216156130dd5760006142e78783614410565b90508360030b8160070b12156142355761423087846001614431565b6117fe8382614457565b6117fe8361431a8461437f565b614323846147d5565b6040516001600160c01b03199091166020820152602801604051602081830303815290604052805190602001206147e3565b600080614361836147fc565b90506008836020018181516143769190615181565b90525092915050565b60006113888282614810565b6000806143988382614876565b9050610af984826148c1565b60006143af82614942565b60c01c92915050565b6000610b39836001600160401b038416612f72565b6000600382900b60141d611388565b6000611388660ffffffff00000601484901b165b601b1c601f1690565b6000611388650ffffffff000600c84901b166143f0565b600061034060f8600384901b1601610af9846001600160401b038316612f72565b61034060f8600384901b1601614451846001600160401b0383168461430d565b50505050565b600481016117fe83826149b9565b6000806144728360030b90565b9093019392505050565b600080614499600384900b601f1d5b600c1b650ffffffff0001690565b905060006144c66144b96401fffffffe600187901b165b601a1c603f1690565b60051b641fffffffe01690565b905060006144e3600f600887901c165b60011b6401fffffffe1690565b9050600061451361450566ffffffff000000601889901b165b601f1c60011690565b600b1b6507fffffff8001690565b9290931717179392505050565b6000611388647fffffff80600784901b166143f0565b612f6082826149b9565b6000600382900b601f1d60141b660ffffffff000001681614568601585901c6103ff166144d6565b905060006145846145056507fffffff800600b88901b166144fc565b9050600061451360ff600c88901c1661448b565b6000611388643fffffffc0600684901b166144b0565b60006145c6660ffffffff00000601484901b166143f0565b6145d6600384900b60191d6144b9565b1792915050565b600782161561462e5760405162461bcd60e51b815260206004820152601e60248201527f6d6973616c69676e656420777269746555696e74363420616464726573730000604482015260640161032e565b6117fe8383836149c4565b60006007198216816038600385901b166129bb565b600382161561469f5760405162461bcd60e51b815260206004820152601e60248201527f6d6973616c69676e656420777269746555696e74333220616464726573730000604482015260640161032e565b6007198216600383901b60381660006146b88684613024565b905060006146c985602084866149d8565b905061043e8785836145dd565b6007198216600383901b60381660006146ef8684613024565b905060006146c98560ff16600884866149d8565b600060018216156129ab5760405162461bcd60e51b815260206004820152601d60248201527f6d6973616c69676e6564207265616455696e7431362061646472657373000000604482015260640161032e565b60018216156147a75760405162461bcd60e51b815260206004820152601e60248201527f6d6973616c69676e656420777269746555696e74313620616464726573730000604482015260640161032e565b6007198216600383901b60381660006147c08684613024565b905060006146c98561ffff16601084866149d8565b60006113888260c01b614942565b60006147ef8382614876565b9050614451848284614a86565b600061138882805160209182015101015190565b6000600160ff83161b83600781161561482b5761482b61507c565b671fffffffffffffff600386901c1680614846600185615161565b166001600160401b031660001461485f5761485f61507c565b600061486b84836151ce565b979650505050505050565b604080518082019091526000808252602082015261489d6001600160401b03841683614b1c565b50604080518082019091526001600160401b0392909216825260ff16602082015290565b6000806148d18460200151614b63565b60208501519091506000906148e7908584614b8d565b8551909150811461493a5760405162461bcd60e51b815260206004820152601e60248201527f5265616420726567696f6e20726f6f7420646f65736e2774206d617463680000604482015260640161032e565b509392505050565b603881811b6001600160f81b031916602883811b60ff60f01b1691909117601884811b60ff60e81b1691909117600885811b60ff60e01b169190911760ff60d81b9186901c919091161760ff60d01b9185901c919091161760ff60c81b9184901c919091161760ff60c01b9290911c919091161790565b612f60610330612f58565b6117fe836001600160401b0384168361430d565b600060406149e685846151f4565b63ffffffff161115614a455760405162461bcd60e51b815260206004820152602260248201527f636f70794269747320636f756e742065786365656473206c696d6974206f66206044820152610d8d60f21b606482015260840161032e565b6000614a586001603f871681901b615161565b90506001600160401b038116603f84161b19905083811663ffffffff8716603f85161b179695505050505050565b6000614a958460200151614b63565b6020850151909150600090614aab908584614bca565b5085519091508114614aff5760405162461bcd60e51b815260206004820152601f60248201527f577269746520726567696f6e20726f6f7420646f65736e2774206d6174636800604482015260640161032e565b6020850151600090614b12908686614b8d565b9095525050505050565b6000600160ff83161b9050614b3a6001672000000000000000615161565b6001600160401b0316614b4d8285615211565b6001600160401b0316106117fe576117fe61507c565b600080614b7883805160209182015101015190565b90506020836020018181516143769190615181565b60008080614b9c868686614bca565b602088018051929450909250611fe0600584901b1691614bbd908390615181565b9052509095945050505050565b6000806000614bdd856020015160ff1690565b9050603d60ff82161115614c415760405162461bcd60e51b815260206004820152602560248201527f43616e6e6f7420626520626967676572207468616e20746865207472656520696044820152643a39b2b63360d91b606482015260840161032e565b84516000614c5083603d61523c565b905060005b8160ff16816001600160401b03161015614d5a57600060405180604001604052808b6000015181526020016005846001600160401b0316901b6001600160401b03168c60200151614ca69190615181565b90529050614cc16001600160401b038581169084161c614d69565b15614d085787614cd982805160209182015101015190565b604080516020810193909352820152606001604051602081830303815290604052805190602001209750614d47565b614d1a81805160209182015101015190565b60408051602081019290925281018990526060016040516020818303038152906040528051906020012097505b5080614d5281615255565b915050614c55565b50949794965093945050505050565b6000614d766002836150e5565b6001600160401b03161592915050565b60008083601f840112614d9857600080fd5b5081356001600160401b03811115614daf57600080fd5b6020830191508360208260051b850101111561236657600080fd5b600080600080600060808688031215614de257600080fd5b8535945060208601356001600160401b03811115614dff57600080fd5b614e0b88828901614d86565b9699909850959660408101359660609091013595509350505050565b600060408284031215614e3957600080fd5b50919050565b60008060008060008060c08789031215614e5857600080fd5b614e628888614e27565b955060408701359450606087013593506080870135925060a08701356001600160401b03811115614e9257600080fd5b614e9e89828a01614d86565b979a9699509497509295939492505050565b600080600080600060a08688031215614ec857600080fd5b614ed28787614e27565b9450604086013593506060860135925060808601356001600160401b0380821115614efc57600080fd5b818801915088601f830112614f1057600080fd5b813581811115614f1f57600080fd5b896020828501011115614f3157600080fd5b9699959850939650602001949392505050565b600060408284031215614f5657600080fd5b610b398383614e27565b600060208284031215614f7257600080fd5b5035919050565b600080600080600060c08688031215614f9157600080fd5b614f9b8787614e27565b97604087013597506060870135966080810135965060a00135945092505050565b600080600060808486031215614fd157600080fd5b614fdb8585614e27565b95604085013595506060909401359392505050565b6020808252601690820152751d1bdd5c9b985b595b9d081a5cc8199a5b9a5cda195960521b604082015260600190565b60006040828403121561503257600080fd5b604051604081018181106001600160401b038211171561506257634e487b7160e01b600052604160045260246000fd5b604052823581526020928301359281019290925250919050565b634e487b7160e01b600052600160045260246000fd5b634e487b7160e01b600052601160045260246000fd5b8181038181111561138857611388615092565b634e487b7160e01b600052601260045260246000fd5b6000826150e0576150e06150bb565b500690565b60006001600160401b03808416806150ff576150ff6150bb565b92169190910692915050565b6001600160401b0381811683821601908082111561512b5761512b615092565b5092915050565b634e487b7160e01b600052603260045260246000fd5b60006001820161515a5761515a615092565b5060010190565b6001600160401b0382811682821603908082111561512b5761512b615092565b8082018082111561138857611388615092565b808202811582820484141761138857611388615092565b60006001600160401b038216806151c4576151c4615092565b6000190192915050565b60006001600160401b03808416806151e8576151e86150bb565b92169190910492915050565b63ffffffff81811683821601908082111561512b5761512b615092565b6001600160401b0381811683821602808216919082811461523457615234615092565b505092915050565b60ff828116828216039081111561138857611388615092565b60006001600160401b0380831681810361527157615271615092565b600101939250505056fea2646970667358221220cc9b718cffc7a8879d3a3faee1ad3d8d89e828ad1bbde197c8ed83a6a18dd4ef64736f6c63430008150033a26469706673582212202e1aa4affef38faa5d514575bf0cd773dc48992ef80ba77243bdf11885ae7c7f64736f6c63430008150033",
    "linkReferences": {}
  },
  "methodIdentifiers": {
    "instantiate(bytes32)": "69ea58d8"
  },
  "id": 42
}