{
  "abi": [
    {
      "inputs": [],
      "stateMutability": "nonpayable",
      "type": "constructor"
    },
    {
      "inputs": [
        {
          "internalType": "Machine.Hash",
          "name": "_initialHash",
          "type": "bytes32"
        }
      ],
      "name": "instantiate",
      "outputs": [
        {
          "internalType": "contract TopTournament",
          "name": "",
          "type": "address"
        }
      ],
      "stateMutability": "nonpayable",
      "type": "function"
    }
  ],
  "bytecode": {
    "object": "0x608060405234801561001057600080fd5b506131cd806100206000396000f3fe608060405234801561001057600080fd5b506004361061002b5760003560e01c806369ea58d814610030575b600080fd5b61004361003e3660046100b5565b61005f565b6040516001600160a01b03909116815260200160405180910390f35b6000808233604051610070906100a8565b9182526001600160a01b03166020820152604001604051809103906000f0801580156100a0573d6000803e3d6000fd5b509392505050565b6130c9806100cf83390190565b6000602082840312156100c757600080fd5b503591905056fe6101406040523480156200001257600080fd5b50604051620030c9380380620030c98339810160408190526200003591620000d8565b6080829052600060a081905260c08190526001600160401b03421660e05260d26101008190528391839183918062000078565b6001600160401b031690620000bf565b62000084834262000068565b600080546001600160401b0319166001600160401b0392909216919091179055505050506001600160a01b031661012052506200014d915050565b60008282620000cf818362000117565b95945050505050565b60008060408385031215620000ec57600080fd5b825160208401519092506001600160a01b03811681146200010c57600080fd5b809150509250929050565b6001600160401b038181168382160190808211156200014657634e487b7160e01b600052601160045260246000fd5b5092915050565b60805160a05160c05160e0516101005161012051612ee6620001e360003960008181611b550152611bf9015260008181610414015281816113e8015261147e0152600081816103f301528181611423015261145c0152600081816103790152818161079e015281816109120152818161094401526116770152600081816106da01526108e5015260006106950152612ee66000f3fe608060405234801561001057600080fd5b50600436106100cf5760003560e01c80638acc802d1161008c578063cb2773db11610066578063cb2773db14610252578063fcc6077d14610277578063fcc85391146102e5578063ff78e0ee146102f857600080fd5b80638acc802d146101ec578063a1af906b1461020d578063b401865c1461023f57600080fd5b80631d5bf796146100d45780633c892a9c146100e95780633f36e2fe146100fc57806360f302dc1461010f5780636a1a140d1461013f5780637795820c14610162575b600080fd5b6100e76100e2366004612a12565b61030b565b005b6100e76100f7366004612a84565b610475565b6100e761010a366004612ab9565b6104ff565b600054610122906001600160401b031681565b6040516001600160401b0390911681526020015b60405180910390f35b61015261014d366004612b2a565b610851565b6040519015158152602001610136565b6101c0610170366004612b46565b6040805180820182526000808252602091820181905292835260028152818320600382529282902054825180840190935292546001600160401b038082168452600160401b909104169082015291565b6040805183516001600160401b0390811682526020948501511693810193909352820152606001610136565b6101ff6101fa366004612b46565b6108d1565b604051908152602001610136565b610215610910565b604080516001600160401b0394851681529284166020840152921691810191909152606001610136565b6100e761024d366004612b74565b61096f565b61025a610ce9565b604080519315158452602084019290925290820152606001610136565b61028a610285366004612b46565b610d3e565b6040516101369190600060c0820190508251825260208301516020830152604083015160408301526060830151606083015260808301516001600160401b0380821660808501528060a08601511660a0850152505092915050565b6100e76102f3366004612ba9565b610dd5565b6100e7610306366004612bec565b610f84565b6103136113e2565b156103655760405162461bcd60e51b815260206004820152601b60248201527f746f75726e616d656e7420636865636b2d696e20656c6170736564000000000060448201526064015b60405180910390fd5b600061037183836114a2565b90506103a0817f00000000000000000000000000000000000000000000000000000000000000008888886114d1565b60008181526003602090815260408083208990556002825291829020825180840190935280546001600160401b038082168552600160401b9091041691830191909152906103ed9061154c565b610438817f00000000000000000000000000000000000000000000000000000000000000007f0000000000000000000000000000000000000000000000000000000000000000611598565b6040805180820190915281546001600160401b038082168352600160401b90910416602082015261046c9083908686611638565b50505050505050565b33600090815260056020908152604080832054808452600480845293829020825160c08101845281548152600182015494810194909452600281015492840192909252600382015460608401529201546001600160401b038082166080840152600160401b9091041660a08201526104ec90611815565b60006104f783611861565b90505b505050565b6105076118a8565b156105245760405162461bcd60e51b815260040161035c90612c20565b600060048161054061053b368b90038b018b612c50565b6118cc565b81526020808201929092526040908101600020815160c081018352815481526001820154938101939093526002810154918301919091526003810154606083015260048101546001600160401b038082166080850152600160401b9091041660a083015291506105af9061190e565b6040805160c08101825282548152600183015460208201526002830154918101919091526003820154606082015260048201546001600160401b038082166080840152600160401b9091041660a082015261060b908787611976565b86356000908152600260209081526040808320918a01358352822061062f82611983565b61063881611983565b60408051808201825283546001600160401b038082168352600160401b918290048116602080850191909152845180860190955285548083168652929092041690830152610685916119a3565b9250600091508190506106be848b7f00000000000000000000000000000000000000000000000000000000000000008c8c8c8c8c6119cd565b9150915060006107c9888c60000135858e6020013586896107997f00000000000000000000000000000000000000000000000000000000000000008d6040518060c0016040529081600082015481526020016001820154815260200160028201548152602001600382015481526020016004820160009054906101000a90046001600160401b03166001600160401b03166001600160401b031681526020016004820160089054906101000a90046001600160401b03166001600160401b03166001600160401b031681525050611afa90919063ffffffff16565b6107c47f00000000000000000000000000000000000000000000000000000000000000006001612cc2565b611b17565b90506107dd61053b368d90038d018d612c50565b6001600160a01b03821660009081526005602052604090205561080861053b368d90038d018d612c50565b6040516001600160a01b03831681527f166b786700a644dcec96aa84a92c26ecfee11b50956409c8cc83616042290d799060200160405180910390a25050505050505050505050565b803560009081526002602081815260408084208151808301835290546001600160401b038082168352600160401b91829004811683860152848801358752948452828620835180850190945254808616845204909316918101919091526108b782611c8f565b15806108c957506108c781611c8f565b155b949350505050565b6000806108dd83610d3e565b9050610909817f0000000000000000000000000000000000000000000000000000000000000000611afa565b9392505050565b7f000000000000000000000000000000000000000000000000000000000000000060008061093d83611cd1565b91506109687f0000000000000000000000000000000000000000000000000000000000000000611d15565b9050909192565b6109776118a8565b156109945760405162461bcd60e51b815260040161035c90612c20565b6001600160a01b0383166000908152600560205260409020546109b681611d51565b600081815260046020818152604092839020835160c0810185528154815260018201549281019290925260028101549382019390935260038301546060820152908201546001600160401b038082166080840152600160401b9091041660a0820152610a2190611815565b6040805160c08101825282548152600183015460208201526002830154918101919091526003820154606082015260048201546001600160401b038082166080840152600160401b9091041660a0820152610a7b90611d94565b600080866001600160a01b0316635145236f6040518163ffffffff1660e01b81526004016040805180830381865afa158015610abb573d6000803e3d6000fd5b505050506040513d601f19601f82011682018060405250810190610adf9190612ce9565b9150915081610b305760405162461bcd60e51b815260206004820181905260248201527f6368696c6420746f75726e616d656e74206973206e6f742066696e6973686564604482015260640161035c565b610b3981611de7565b6000610b4587876114a2565b9050818114610b965760405162461bcd60e51b815260206004820152601e60248201527f746f75726e616d656e742077696e6e657220697320646966666572656e740000604482015260640161035c565b600081815260026020908152604091829020825180840190935280546001600160401b038082168552600160401b909104169183019190915290610bd990611e34565b610c59610c528a6001600160a01b03166360f302dc6040518163ffffffff1660e01b8152600401602060405180830381865afa158015610c1d573d6000803e3d6000fd5b505050506040513d601f19601f82011682018060405250810190610c419190612d1c565b425b6001600160401b031690611e8a565b8290611ea1565b6040805180820190915281546001600160401b038082168352600160401b909104166020820152610c8d9083908a8a611638565b5050506000928352505060046020818152604080842084815560018101859055600281018590556003810185905590920180546001600160801b03191690556001600160a01b0390951682526005909452928320929092555050565b6000806000610cf66118a8565b610d065750600092839250829150565b600080610d11611f87565b9150915081610d2257610d22612d39565b6000818152600360205260409020546001969195509350915050565b6040805160c081018252600080825260208201819052918101829052606081018290526080810182905260a081019190915250600090815260046020818152604092839020835160c08101855281548152600182015492810192909252600281015493820193909352600383015460608201529101546001600160401b038082166080840152600160401b9091041660a082015290565b610ddd6118a8565b15610dfa5760405162461bcd60e51b815260040161035c90612c20565b6000600481610e1161053b368a90038a018a612c50565b81526020808201929092526040908101600020815160c081018352815481526001820154938101939093526002810154918301919091526003810154606083015260048101546001600160401b038082166080850152600160401b9091041660a08301529150610e8090611815565b6040805160c08101825282548152600183015460208201526002830154918101919091526003820154606082015260048201546001600160401b038082166080840152600160401b9091041660a0820152610eda90611f9c565b6040805160c08101825282548152600183015460208201526002830154918101919091526003820154606082015260048201546001600160401b038082166080840152600160401b9091041660a0820152610f36908686611976565b610f44818787878787611ffb565b85356000908152600260205260409020610f5d906120eb565b610f7c60026000886020013581526020019081526020016000206120eb565b505050505050565b610f8c6118a8565b15610fa95760405162461bcd60e51b815260040161035c90612c20565b61102a60046000610fc261053b36889003880188612c50565b81526020808201929092526040908101600020815160c0810183528154815260018201549381019390935260028101549183019190915260038101546060830152600401546001600160401b038082166080840152600160401b9091041660a0820152611815565b8235600090815260026020908152604080832082870135845292819020815180830190925283546001600160401b038082168452600160401b909104169282019290925261107790611e34565b6040805180820190915281546001600160401b038082168352600160401b9091041660208201526110a790611e34565b6040805180820190915282546001600160401b038082168352600160401b9091041660208201526110d790611c8f565b801561111057506040805180820190915281546001600160401b038082168352600160401b90910416602082015261110e90611c8f565b155b156111fa57611121853585856121ab565b6111855760405162461bcd60e51b815260206004820152602f60248201527f6368696c64206e6f64657320646f206e6f74206d6174636820706172656e742060448201526e28636f6d6d69746d656e744f6e652960881b606482015260840161035c565b6040805180820190915281546001600160401b038082168352600160401b9091041660208201526111c0906111b9906121bf565b8390611ea1565b6040805180820190915282546001600160401b038082168352600160401b9091041660208201526111f5908635908686611638565b611389565b6040805180820190915282546001600160401b038082168352600160401b90910416602082015261122a90611c8f565b15801561126257506040805180820190915281546001600160401b038082168352600160401b90910416602082015261126290611c8f565b1561134957611276602086013585856121ab565b6112da5760405162461bcd60e51b815260206004820152602f60248201527f6368696c64206e6f64657320646f206e6f74206d6174636820706172656e742060448201526e28636f6d6d69746d656e7454776f2960881b606482015260840161035c565b6040805180820190915282546001600160401b038082168352600160401b90910416602082015261130e90610c52906121bf565b6040805180820190915281546001600160401b038082168352600160401b909104166020828101919091526111f59190870135908686611638565b60405162461bcd60e51b815260206004820152601560248201527418d85b9b9bdd081dda5b88189e481d1a5b595bdd5d605a1b604482015260640161035c565b6004600061139f61053b36899003890189612c50565b8152602081019190915260400160009081208181556001810182905560028101829055600381019190915560040180546001600160801b03191690555050505050565b600060d27f00000000000000000000000000000000000000000000000000000000000000006001600160401b0316111561144f5761144a6001600160401b037f00000000000000000000000000000000000000000000000000000000000000001660d26121e5565b905090565b61144a6001600160401b037f0000000000000000000000000000000000000000000000000000000000000000167f00000000000000000000000000000000000000000000000000000000000000006121e5565b604080516020808201859052818301849052825180830384018152606090920190925280519101205b92915050565b60006114dc85611d15565b905060006114ec828686866121fb565b905086811461046c5760405162461bcd60e51b815260206004820152602360248201527f636f6d6d69746d656e74206c61737420737461746520646f65736e2774206d616044820152620e8c6d60eb1b606482015260840161035c565b50565b61155581612292565b6115495760405162461bcd60e51b815260206004820152601460248201527318db1bd8dac81a5cc81a5b9a5d1a585b1a5e995960621b604482015260640161035c565b60006115b76115a78442610c43565b6001600160401b038416906122a6565b90506001600160401b0381166116195760405162461bcd60e51b815260206004820152602160248201527f63616e27742063726561746520636c6f636b2077697468207a65726f2074696d6044820152606560f81b606482015260840161035c565b83546001600160801b0319166001600160401b03909116179092555050565b61164a8461164684846114a2565b1490565b61165657611656612d39565b600080611661611f87565b9150915081156117f05760008061169b838988887f00000000000000000000000000000000000000000000000000000000000000006122d7565b6000828152600460208181526040808420855181558583015160018201558582015160028083019190915560608701516003830155608087015191909401805460a08801516001600160401b039384166001600160801b031990921691909117600160401b9184168202179091558a8652938352818520825180840190935280548083168452949094041691810191909152939550919350909161173f908a61239b565b6040805180820190915283546001600160401b038082168352600160401b909104166020820152909150600090611776908b6119a3565b905061178182611861565b506117986115496001600160401b038416836123ca565b6117a1836120eb565b6117ab6000600155565b8a867f32911001007d8c9879b608566be8acc2184592f0a43706f804f285455bb0f52e8b6040516117de91815260200190565b60405180910390a35050505050610f7c565b845160005461180c91611549916001600160401b0316906123ca565b610f7c86600155565b61181e816123d8565b6115495760405162461bcd60e51b81526020600482015260146024820152731b585d18da08191bd95cc81b9bdd08195e1a5cdd60621b604482015260640161035c565b600080546001600160401b0390811690831611156118a057506000805467ffffffffffffffff19166001600160401b0392909216919091179055600190565b506000919050565b6000805461144a906001600160401b0316425b6001600160401b0391821691161190565b6000816040516020016118f19190815181526020918201519181019190915260400190565b604051602081830303815290604052805190602001209050919050565b60808101516001600160401b03166001146115495760405162461bcd60e51b815260206004820152602260248201527f6d61746368206973206e6f7420726561647920746f2062652066696e616c697a604482015261195960f21b606482015260840161035c565b82516104fa9083836123e6565b8054600160401b90046001600160401b03161561154957611549816120eb565b805182516000916001600160401b03908116911611156119c5575081516114cb565b5080516114cb565b6040805160c0810182528954815260018a0154602082015260028a0154918101919091526003890154606082015260048901546001600160401b038082166080840152600160401b9091041660a08201526000908190611a2d908861243d565b611a4557611a3b8a88612456565b9092509050611a55565b611a4f8a87612532565b90925090505b8960030154600003611aac57878514611aa75760405162461bcd60e51b81526020600482015260146024820152731859dc9959481a185cda081a5b98dbdc9c9958dd60621b604482015260640161035c565b611ae3565b60048a015460038b0154611ae391600160401b90046001600160401b031690611ad790600190612d4f565b8b359190888888612621565b611aed8a86612698565b9850989650505050505050565b600080611b0a8460a00151611cd1565b90506108c98484836126b7565b600080611b2660016003612d62565b6001600160401b0316836001600160401b031603611be25760405163b96efa6b60e01b81526001600160a01b037f0000000000000000000000000000000000000000000000000000000000000000169063b96efa6b90611b98908d908d908d908d908d908d908d908d90600401612d82565b6020604051808303816000875af1158015611bb7573d6000803e3d6000fd5b505050506040513d601f19601f82011682018060405250810190611bdb9190612dc7565b9050611c82565b60405163141012df60e21b81526001600160a01b037f000000000000000000000000000000000000000000000000000000000000000016906350404b7c90611c3c908d908d908d908d908d908d908d908d90600401612d82565b6020604051808303816000875af1158015611c5b573d6000803e3d6000fd5b505050506040513d601f19601f82011682018060405250810190611c7f9190612dc7565b90505b9998505050505050505050565b60208101516000906001600160401b0316611cac57506001919050565b6114cb611cbe425b8460200151611e8a565b83516001600160401b0391821691161190565b60408051606081018252601f8152601060208201526000918101829052806001600160401b03841660038110611d0957611d09612de4565b60200201519392505050565b604080516060810182526020808252600f90820152601091810191909152600090806001600160401b03841660038110611d0957611d09612de4565b806115495760405162461bcd60e51b81526020600482015260136024820152721b585d18da08191bd95cdb89dd08195e1a5cdd606a1b604482015260640161035c565b60808101516001600160401b0316156115495760405162461bcd60e51b81526020600482015260156024820152741b585d18da081a5cc81b9bdd08199a5b9a5cda1959605a1b604482015260640161035c565b806115495760405162461bcd60e51b815260206004820152601760248201527f74726565206e6f646520646f65736e2774206578697374000000000000000000604482015260640161035c565b611e3d81612292565b156115495760405162461bcd60e51b815260206004820152601860248201527f636c6f636b206973206e6f7420696e697469616c697a65640000000000000000604482015260640161035c565b60008282611e988183612d62565b95945050505050565b8154600090611eb9906001600160401b0316836122a6565b90506001600160401b038116611f1d5760405162461bcd60e51b815260206004820152602360248201527f63616e277420726573657420636c6f636b2077697468206e6f2074696d65206c60448201526219599d60ea1b606482015260840161035c565b6000611f326001600160401b038316826123ca565b9050611f55611f43600060d2612cc2565b6001600160401b039081169083161190565b1561161957611f66600060d2612cc2565b905083546001600160801b0319166001600160401b03909116179092555050565b6001546000908015611f9857600191505b9091565b608081015160016001600160401b03909116116115495760405162461bcd60e51b815260206004820152601760248201527f6d617463682063616e277420626520616476616e636564000000000000000000604482015260640161035c565b6040805160c08101825287548152600188015460208201526002880154918101919091526003870154606082015260048701546001600160401b038082166080840152600160401b9091041660a0820152612056908561243d565b612075576120658483836123e6565b6120708683836126eb565b61208b565b6120808383836123e6565b61208b868383612761565b61209d61053b36879003870187612c50565b865460018801546040517f29ff393c59c37f91e930fad4d88447efc58cf5d7c048499e1f20edb369941378926120db92908252602082015260400190565b60405180910390a2505050505050565b6040805180820190915281546001600160401b038082168352600160401b90910416602082015260009061211e90612814565b90506001600160401b0381166121845760405162461bcd60e51b815260206004820152602560248201527f63616e277420616476616e636520636c6f636b2077697468206e6f2074696d65604482015264081b19599d60da1b606482015260840161035c565b61218d8261284b565b815467ffffffffffffffff19166001600160401b0391909116179055565b60006108c96121ba84846114a2565b851490565b80516000906114cb906121d6428560200151611e8a565b6001600160401b0316906122a6565b60006109096001600160401b038416834261289a565b60006001600160401b038516821461221557612215612d39565b60005b856001600160401b03168110156122885783838281811061223b5761223b612de4565b905060200201358560405160200161225d929190918252602082015260400190565b604051602081830303815290604052805190602001209450808061228090612dfa565b915050612218565b5092949350505050565b80516000906001600160401b0316156114cb565b600082826001600160401b03808216908316106122cc576122c78183612d62565b611e98565b506000949350505050565b6040805160c081018252600080825260208201819052918101829052606081018290526080810182905260a081018290526123138686866121ab565b61231f5761231f612d39565b6000604051806040016040528089815260200188815250905060006040518060c001604052808a81526020018881526020018781526020016000815260200161236787611d15565b6001600160401b03168152602001866001600160401b0316815250905061238d826118cc565b999098509650505050505050565b8051825160009182916123b9916001600160401b03909116906123ca565b90506108c96001600160401b034216825b60008282611e988183612cc2565b8051600090155b1592915050565b6123f18383836121ab565b6104fa5760405162461bcd60e51b815260206004820152601e60248201527f6368696c64206e6f64657320646f6e2774206d6174636820706172656e740000604482015260640161035c565b600061090983602001518361164690919063ffffffff16565b600482015460009081906001600160401b031660011461247857612478612d39565b600280850184905560048501805467ffffffffffffffff1916908190556040805160c08101825287548152600188015460208201529081018690526003870154606082015260006080820152600160401b9091046001600160401b031660a08201526124e3906128b3565b6124ed9190612e29565b6001600160401b0316600003612516576001840154915061250f846002015490565b905061252b565b60028401549150612528846001015490565b90505b9250929050565b600482015460009081906001600160401b031660011461255457612554612d39565b600180850184905560048501805467ffffffffffffffff19169055600385018054600090612583908490612e4f565b90915550506040805160c0810182528554815260018601546020820152600286810154928201929092526003860154606082015260048601546001600160401b038082166080840152600160401b9091041660a08201526125e3906128b3565b6125ed9190612e29565b6001600160401b031660000361260f576002840154915061250f846001015490565b60018401549150612528846002015490565b600061262c86611d15565b9050600061263d85838887876128c2565b905087811461268e5760405162461bcd60e51b815260206004820152601e60248201527f636f6d6d69746d656e7420737461746520646f65736e2774206d617463680000604482015260640161035c565b5050505050505050565b60048201546001600160401b0316156126b3576126b3612d39565b9055565b606083015160009060016001600160401b0384161b906126d78282612e62565b6126e19086612e4f565b9695505050505050565b600483015460016001600160401b039091161161270a5761270a612d39565b6001830180548455829055600283018190556004830180546001600160401b031690600061273783612e79565b91906101000a8154816001600160401b0302191690836001600160401b0316021790555050505050565b600483015460016001600160401b039091161161278057612780612d39565b6002830180548455600184018390558190556004830180546001600160401b03169060006127ad83612e79565b91906101000a8154816001600160401b0302191690836001600160401b03160217905550508260040160009054906101000a90046001600160401b03166001600160401b03166001901b83600301600082825461280a9190612e4f565b9091555050505050565b60208101516000906001600160401b031661282e57505190565b6114cb61283a42611cb4565b83516001600160401b0316906122a6565b8054600160401b90046001600160401b031661288657805467ffffffffffffffff60401b1916600160401b6001600160401b03421602179055565b805467ffffffffffffffff60401b19169055565b60006108c7826118bb6001600160401b038716866123ca565b60006114cb8260a00151611d15565b6000806128d0600187612d62565b6001600160401b031690508281146128ea576128ea612d39565b60005b818110156129b55761290086821c6129c1565b15612956578785858381811061291857612918612de4565b90506020020135604051602001612939929190918252602082015260400190565b6040516020818303038152906040528051906020012097506129a3565b84848281811061296857612968612de4565b905060200201358860405160200161298a929190918252602082015260400190565b6040516020818303038152906040528051906020012097505b806129ad81612dfa565b9150506128ed565b50959695505050505050565b60006123df600283612e9c565b60008083601f8401126129e057600080fd5b5081356001600160401b038111156129f757600080fd5b6020830191508360208260051b850101111561252b57600080fd5b600080600080600060808688031215612a2a57600080fd5b8535945060208601356001600160401b03811115612a4757600080fd5b612a53888289016129ce565b9699909850959660408101359660609091013595509350505050565b6001600160401b038116811461154957600080fd5b600060208284031215612a9657600080fd5b813561090981612a6f565b600060408284031215612ab357600080fd5b50919050565b60008060008060008060c08789031215612ad257600080fd5b612adc8888612aa1565b955060408701359450606087013593506080870135925060a08701356001600160401b03811115612b0c57600080fd5b612b1889828a016129ce565b979a9699509497509295939492505050565b600060408284031215612b3c57600080fd5b6109098383612aa1565b600060208284031215612b5857600080fd5b5035919050565b6001600160a01b038116811461154957600080fd5b600080600060608486031215612b8957600080fd5b8335612b9481612b5f565b95602085013595506040909401359392505050565b600080600080600060c08688031215612bc157600080fd5b612bcb8787612aa1565b97604087013597506060870135966080810135965060a00135945092505050565b600080600060808486031215612c0157600080fd5b612c0b8585612aa1565b95604085013595506060909401359392505050565b6020808252601690820152751d1bdd5c9b985b595b9d081a5cc8199a5b9a5cda195960521b604082015260600190565b600060408284031215612c6257600080fd5b604051604081018181106001600160401b0382111715612c9257634e487b7160e01b600052604160045260246000fd5b604052823581526020928301359281019290925250919050565b634e487b7160e01b600052601160045260246000fd5b6001600160401b03818116838216019080821115612ce257612ce2612cac565b5092915050565b60008060408385031215612cfc57600080fd5b82518015158114612d0c57600080fd5b6020939093015192949293505050565b600060208284031215612d2e57600080fd5b815161090981612a6f565b634e487b7160e01b600052600160045260246000fd5b818103818111156114cb576114cb612cac565b6001600160401b03828116828216039080821115612ce257612ce2612cac565b97885260208801969096526040870194909452606086019290925260808501526001600160401b0390811660a085015260c08401919091521660e08201526101000190565b600060208284031215612dd957600080fd5b815161090981612b5f565b634e487b7160e01b600052603260045260246000fd5b600060018201612e0c57612e0c612cac565b5060010190565b634e487b7160e01b600052601260045260246000fd5b60006001600160401b0380841680612e4357612e43612e13565b92169190910692915050565b808201808211156114cb576114cb612cac565b80820281158282048414176114cb576114cb612cac565b60006001600160401b03821680612e9257612e92612cac565b6000190192915050565b600082612eab57612eab612e13565b50069056fea2646970667358221220b337aeade0f15db9952d12890e871501a5fb7cc5274cca479ad189effde7eb8164736f6c63430008150033a26469706673582212209517fdd71189812bb08c7eaeba7763fa71746f667e5ee549990c52cfc9d99f0564736f6c63430008150033",
    "linkReferences": {}
  },
  "methodIdentifiers": {
    "instantiate(bytes32)": "69ea58d8"
  },
  "id": 43
}