{
  "address": "0x7F64B7c77509b3dABB9233f4D4cfed8121cA5E99",
  "abi": [
    {
      "inputs": [
        {
          "internalType": "address",
          "name": "_liAddress",
          "type": "address"
        },
        {
          "internalType": "address",
          "name": "_vgAddress",
          "type": "address"
        },
        {
          "internalType": "address",
          "name": "_machineAddress",
          "type": "address"
        }
      ],
      "stateMutability": "nonpayable",
      "type": "constructor"
    },
    {
      "anonymous": false,
      "inputs": [
        {
          "indexed": false,
          "internalType": "uint256",
          "name": "_index",
          "type": "uint256"
        }
      ],
      "name": "ChallengeStarted",
      "type": "event"
    },
    {
      "anonymous": false,
      "inputs": [
        {
          "indexed": false,
          "internalType": "uint256",
          "name": "_index",
          "type": "uint256"
        },
        {
          "indexed": false,
          "internalType": "bytes32",
          "name": "_claimedFinalHash",
          "type": "bytes32"
        }
      ],
      "name": "ClaimSubmitted",
      "type": "event"
    },
    {
      "anonymous": false,
      "inputs": [
        {
          "indexed": false,
          "internalType": "uint256",
          "name": "_index",
          "type": "uint256"
        },
        {
          "indexed": false,
          "internalType": "address",
          "name": "_confirmParty",
          "type": "address"
        }
      ],
      "name": "Confirmed",
      "type": "event"
    },
    {
      "anonymous": false,
      "inputs": [
        {
          "indexed": false,
          "internalType": "uint256",
          "name": "_index",
          "type": "uint256"
        }
      ],
      "name": "CartesiComputeCreated",
      "type": "event"
    },
    {
      "anonymous": false,
      "inputs": [
        {
          "indexed": false,
          "internalType": "uint256",
          "name": "_index",
          "type": "uint256"
        },
        {
          "indexed": false,
          "internalType": "bytes32",
          "name": "_state",
          "type": "bytes32"
        }
      ],
      "name": "CartesiComputeFinished",
      "type": "event"
    },
    {
      "anonymous": false,
      "inputs": [
        {
          "indexed": false,
          "internalType": "uint256",
          "name": "_index",
          "type": "uint256"
        },
        {
          "components": [
            {
              "internalType": "uint64",
              "name": "position",
              "type": "uint64"
            },
            {
              "internalType": "uint8",
              "name": "driveLog2Size",
              "type": "uint8"
            },
            {
              "internalType": "bytes",
              "name": "directValue",
              "type": "bytes"
            },
            {
              "internalType": "bytes",
              "name": "loggerIpfsPath",
              "type": "bytes"
            },
            {
              "internalType": "bytes32",
              "name": "loggerRootHash",
              "type": "bytes32"
            },
            {
              "internalType": "address",
              "name": "provider",
              "type": "address"
            },
            {
              "internalType": "bool",
              "name": "waitsProvider",
              "type": "bool"
            },
            {
              "internalType": "bool",
              "name": "needsLogger",
              "type": "bool"
            }
          ],
          "indexed": false,
          "internalType": "struct CartesiComputeInterface.Drive",
          "name": "_drive",
          "type": "tuple"
        }
      ],
      "name": "DriveInserted",
      "type": "event"
    },
    {
      "inputs": [
        {
          "internalType": "uint256",
          "name": "_index",
          "type": "uint256"
        }
      ],
      "name": "abortByDeadline",
      "outputs": [],
      "stateMutability": "nonpayable",
      "type": "function"
    },
    {
      "inputs": [
        {
          "internalType": "uint256",
          "name": "_index",
          "type": "uint256"
        }
      ],
      "name": "challenge",
      "outputs": [],
      "stateMutability": "nonpayable",
      "type": "function"
    },
    {
      "inputs": [
        {
          "internalType": "uint256",
          "name": "_index",
          "type": "uint256"
        }
      ],
      "name": "challengeDrives",
      "outputs": [],
      "stateMutability": "nonpayable",
      "type": "function"
    },
    {
      "inputs": [
        {
          "internalType": "uint256",
          "name": "_index",
          "type": "uint256"
        }
      ],
      "name": "confirm",
      "outputs": [],
      "stateMutability": "nonpayable",
      "type": "function"
    },
    {
      "inputs": [],
      "name": "currentIndex",
      "outputs": [
        {
          "internalType": "uint256",
          "name": "",
          "type": "uint256"
        }
      ],
      "stateMutability": "view",
      "type": "function"
    },
    {
      "inputs": [
        {
          "internalType": "uint256",
          "name": "_index",
          "type": "uint256"
        }
      ],
      "name": "destruct",
      "outputs": [],
      "stateMutability": "nonpayable",
      "type": "function"
    },
    {
      "inputs": [
        {
          "internalType": "uint256",
          "name": "_index",
          "type": "uint256"
        }
      ],
      "name": "getCurrentState",
      "outputs": [
        {
          "internalType": "bytes32",
          "name": "",
          "type": "bytes32"
        }
      ],
      "stateMutability": "view",
      "type": "function"
    },
    {
      "inputs": [
        {
          "internalType": "uint256",
          "name": "_index",
          "type": "uint256"
        }
      ],
      "name": "getNonce",
      "outputs": [
        {
          "internalType": "uint256",
          "name": "currentNonce",
          "type": "uint256"
        }
      ],
      "stateMutability": "view",
      "type": "function"
    },
    {
      "inputs": [
        {
          "internalType": "uint256",
          "name": "_index",
          "type": "uint256"
        },
        {
          "internalType": "address",
          "name": "_p",
          "type": "address"
        }
      ],
      "name": "getPartyState",
      "outputs": [
        {
          "internalType": "bool",
          "name": "isParty",
          "type": "bool"
        },
        {
          "internalType": "bool",
          "name": "hasVoted",
          "type": "bool"
        },
        {
          "internalType": "bool",
          "name": "hasCheated",
          "type": "bool"
        }
      ],
      "stateMutability": "view",
      "type": "function"
    },
    {
      "inputs": [
        {
          "internalType": "uint256",
          "name": "_index",
          "type": "uint256"
        }
      ],
      "name": "getResult",
      "outputs": [
        {
          "internalType": "bool",
          "name": "",
          "type": "bool"
        },
        {
          "internalType": "bool",
          "name": "",
          "type": "bool"
        },
        {
          "internalType": "address",
          "name": "",
          "type": "address"
        },
        {
          "internalType": "bytes",
          "name": "",
          "type": "bytes"
        }
      ],
      "stateMutability": "view",
      "type": "function"
    },
    {
      "inputs": [
        {
          "internalType": "uint256",
          "name": "_index",
          "type": "uint256"
        },
        {
          "internalType": "address",
          "name": "_user",
          "type": "address"
        }
      ],
      "name": "getState",
      "outputs": [
        {
          "internalType": "uint256[]",
          "name": "",
          "type": "uint256[]"
        },
        {
          "internalType": "address[]",
          "name": "",
          "type": "address[]"
        },
        {
          "internalType": "bytes32[]",
          "name": "",
          "type": "bytes32[]"
        },
        {
          "internalType": "bytes",
          "name": "",
          "type": "bytes"
        },
        {
          "components": [
            {
              "internalType": "uint64",
              "name": "position",
              "type": "uint64"
            },
            {
              "internalType": "uint8",
              "name": "driveLog2Size",
              "type": "uint8"
            },
            {
              "internalType": "bytes",
              "name": "directValue",
              "type": "bytes"
            },
            {
              "internalType": "bytes",
              "name": "loggerIpfsPath",
              "type": "bytes"
            },
            {
              "internalType": "bytes32",
              "name": "loggerRootHash",
              "type": "bytes32"
            },
            {
              "internalType": "address",
              "name": "provider",
              "type": "address"
            },
            {
              "internalType": "bool",
              "name": "waitsProvider",
              "type": "bool"
            },
            {
              "internalType": "bool",
              "name": "needsLogger",
              "type": "bool"
            }
          ],
          "internalType": "struct CartesiComputeInterface.Drive[]",
          "name": "",
          "type": "tuple[]"
        },
        {
          "components": [
            {
              "internalType": "bool",
              "name": "isParty",
              "type": "bool"
            },
            {
              "internalType": "bool",
              "name": "hasVoted",
              "type": "bool"
            },
            {
              "internalType": "bool",
              "name": "hasCheated",
              "type": "bool"
            },
            {
              "internalType": "uint64",
              "name": "arrayIdx",
              "type": "uint64"
            }
          ],
          "internalType": "struct CartesiComputeInterface.Party",
          "name": "user",
          "type": "tuple"
        }
      ],
      "stateMutability": "view",
      "type": "function"
    },
    {
      "inputs": [
        {
          "internalType": "uint256",
          "name": "_index",
          "type": "uint256"
        },
        {
          "internalType": "address",
          "name": "",
          "type": "address"
        }
      ],
      "name": "getSubInstances",
      "outputs": [
        {
          "internalType": "address[]",
          "name": "_addresses",
          "type": "address[]"
        },
        {
          "internalType": "uint256[]",
          "name": "_indices",
          "type": "uint256[]"
        }
      ],
      "stateMutability": "view",
      "type": "function"
    },
    {
      "inputs": [
        {
          "internalType": "uint256",
          "name": "_finalTime",
          "type": "uint256"
        },
        {
          "internalType": "bytes32",
          "name": "_templateHash",
          "type": "bytes32"
        },
        {
          "internalType": "uint64",
          "name": "_outputPosition",
          "type": "uint64"
        },
        {
          "internalType": "uint8",
          "name": "_outputLog2Size",
          "type": "uint8"
        },
        {
          "internalType": "uint256",
          "name": "_roundDuration",
          "type": "uint256"
        },
        {
          "internalType": "address[]",
          "name": "parties",
          "type": "address[]"
        },
        {
          "components": [
            {
              "internalType": "uint64",
              "name": "position",
              "type": "uint64"
            },
            {
              "internalType": "uint8",
              "name": "driveLog2Size",
              "type": "uint8"
            },
            {
              "internalType": "bytes",
              "name": "directValue",
              "type": "bytes"
            },
            {
              "internalType": "bytes",
              "name": "loggerIpfsPath",
              "type": "bytes"
            },
            {
              "internalType": "bytes32",
              "name": "loggerRootHash",
              "type": "bytes32"
            },
            {
              "internalType": "address",
              "name": "provider",
              "type": "address"
            },
            {
              "internalType": "bool",
              "name": "waitsProvider",
              "type": "bool"
            },
            {
              "internalType": "bool",
              "name": "needsLogger",
              "type": "bool"
            }
          ],
          "internalType": "CartesiComputeInterface.Drive[]",
          "name": "_inputDrives",
          "type": "tuple[]"
        }
      ],
      "name": "instantiate",
      "outputs": [
        {
          "internalType": "uint256",
          "name": "",
          "type": "uint256"
        }
      ],
      "stateMutability": "nonpayable",
      "type": "function"
    },
    {
      "inputs": [
        {
          "internalType": "uint256",
          "name": "_index",
          "type": "uint256"
        }
      ],
      "name": "isActive",
      "outputs": [
        {
          "internalType": "bool",
          "name": "",
          "type": "bool"
        }
      ],
      "stateMutability": "view",
      "type": "function"
    },
    {
      "inputs": [
        {
          "internalType": "uint256",
          "name": "_index",
          "type": "uint256"
        },
        {
          "internalType": "address",
          "name": "_user",
          "type": "address"
        }
      ],
      "name": "isConcerned",
      "outputs": [
        {
          "internalType": "bool",
          "name": "",
          "type": "bool"
        }
      ],
      "stateMutability": "view",
      "type": "function"
    },
    {
      "inputs": [
        {
          "internalType": "uint256",
          "name": "_index",
          "type": "uint256"
        },
        {
          "internalType": "bytes",
          "name": "_value",
          "type": "bytes"
        }
      ],
      "name": "provideDirectDrive",
      "outputs": [],
      "stateMutability": "nonpayable",
      "type": "function"
    },
    {
      "inputs": [
        {
          "internalType": "uint256",
          "name": "_index",
          "type": "uint256"
        },
        {
          "internalType": "bytes32",
          "name": "_root",
          "type": "bytes32"
        }
      ],
      "name": "provideLoggerDrive",
      "outputs": [],
      "stateMutability": "nonpayable",
      "type": "function"
    },
    {
      "inputs": [
        {
          "internalType": "uint256",
          "name": "_index",
          "type": "uint256"
        }
      ],
      "name": "revealLoggerDrive",
      "outputs": [],
      "stateMutability": "nonpayable",
      "type": "function"
    },
    {
      "inputs": [
        {
          "internalType": "uint256",
          "name": "_index",
          "type": "uint256"
        },
        {
          "internalType": "bytes32",
          "name": "_claimedFinalHash",
          "type": "bytes32"
        },
        {
          "internalType": "bytes32[][]",
          "name": "_drivesSiblings",
          "type": "bytes32[][]"
        },
        {
          "internalType": "bytes",
          "name": "_output",
          "type": "bytes"
        },
        {
          "internalType": "bytes32[]",
          "name": "_outputSiblings",
          "type": "bytes32[]"
        }
      ],
      "name": "submitClaim",
      "outputs": [],
      "stateMutability": "nonpayable",
      "type": "function"
    },
    {
      "inputs": [
        {
          "internalType": "uint256",
          "name": "_index",
          "type": "uint256"
        }
      ],
      "name": "winByVG",
      "outputs": [],
      "stateMutability": "nonpayable",
      "type": "function"
    }
  ],
  "transactionHash": "0x46261186b40e0402d23944b3bee64e8477232a055881a81055a5aa3f14cccd9b",
  "args": [
    "0x1c207Ed29b77641DB12d256Ad55D079d40601e6E",
    "0xEF370c63569b2d8d9a66788758Ec57cA4dfd97c3",
    "0xfaF200FEa349cb800eb5Cd6691eBBBE1538797dD"
  ],
  "solcInputHash": "de8c85896bf3591f223d098df44615ca",
  "bytecode": "0x6080604052600080553480156200001557600080fd5b5060405162005fd638038062005fd6833981016040819052620000389162000099565b600380546001600160a01b03199081166001600160a01b039384161790915560058054821693831693909317909255600480549092169216919091179055620000e2565b80516001600160a01b03811681146200009457600080fd5b919050565b600080600060608486031215620000ae578283fd5b620000b9846200007c565b9250620000c9602085016200007c565b9150620000d9604085016200007c565b90509250925092565b615ee480620000f26000396000f3fe608060405234801561001057600080fd5b506004361061012c5760003560e01c8063ab82d9a0116100ad578063c817592d11610071578063c817592d146102a7578063c87e3ae9146102ba578063ded4df63146102cd578063f9bc3b21146102e0578063fa0ecc5b146102f35761012c565b8063ab82d9a01461023a578063ba0179b51461024d578063bfda2e7214610260578063c526656c14610273578063c70683ca146102945761012c565b80635748c130116100f45780635748c130146101aa57806373df1612146101bd57806382afd23b146101e2578063995e4339146101f5578063ab5da187146102185761012c565b806301ff62ab1461013157806326987b601461015a578063351e66571461016f5780633d46b819146101845780634c6fe7bf14610197575b600080fd5b61014461013f366004614ccf565b610306565b604051610151919061530c565b60405180910390f35b61016261037e565b604051610151919061536f565b61018261017d366004614d1b565b610384565b005b610162610192366004614cb7565b610a7d565b6101826101a5366004614cb7565b610b27565b6101626101b8366004614cb7565b610d1c565b6101d06101cb366004614ccf565b610fb3565b60405161015196959493929190615275565b6101446101f0366004614cb7565b611993565b610208610203366004614cb7565b6119ab565b6040516101519493929190615317565b61022b610226366004614ccf565b611da1565b60405161015193929190615355565b610182610248366004614cb7565b611e31565b61018261025b366004614cb7565b612157565b61018261026e366004614cb7565b6123ea565b610286610281366004614ccf565b612518565b604051610151929190615234565b6101826102a2366004614cfa565b612651565b6101626102b5366004614e03565b612b28565b6101826102c8366004614cb7565b61332f565b6101826102db366004614cb7565b613521565b6101826102ee366004614cb7565b6139ef565b610182610301366004614f02565b613dba565b600082806000541161034d576040805162461bcd60e51b81526020600482015260166024820152600080516020615e8f833981519152604482015290519081900360640190fd5b505060009182526006602090815260408084206001600160a01b03939093168452600f909201905290205460ff1690565b60005481565b8480600054116103c9576040805162461bcd60e51b81526020600482015260166024820152600080516020615e8f833981519152604482015290519081900360640190fd5b6103d281611993565b610414576040805162461bcd60e51b815260206004820152600e60248201526d496e64657820696e61637469766560901b604482015290519081900360640190fd5b6000868152600660205260409020600e810154600c820180548993923392916001600160401b0390911690811061044757fe5b6000918252602090912001546001600160a01b0316146104825760405162461bcd60e51b8152600401610479906156a5565b60405180910390fd5b6000888152600260209081526040808320805460010190556006909152812089916104ac836143e5565b600683015401421190506004601083015460ff16600a8111156104cb57fe5b14806104f157506002601083015460ff16600a8111156104e757fe5b1480156104f15750805b61050d5760405162461bcd60e51b8152600401610479906155a3565b88516014830154146105315760405162461bcd60e51b8152600401610479906154d6565b60048201548851600160401b90910460ff1660020a146105635760405162461bcd60e51b815260040161047990615b43565b606061056e896146ff565b6004848101546040516310561d5760e31b81529293508d9273D47860593fe40b3D0E04460e54bFE0b84E1E69229263d7304dd9926001600160401b03811692600160401b90910460ff169185916382b0eab8916105cd918a9101615262565b60206040518083038186803b1580156105e557600080fd5b505af41580156105f9573d6000803e3d6000fd5b505050506040513d601f19601f8201168201806040525081019061061d9190614c9f565b8d6040518563ffffffff1660e01b815260040161063d9493929190615dc9565b60206040518083038186803b15801561065557600080fd5b505af4158015610669573d6000803e3d6000fd5b505050506040513d601f19601f8201168201806040525081019061068d9190614c9f565b146106aa5760405162461bcd60e51b8152600401610479906153d4565b601483015460005b8181101561099b5760608c82815181106106c857fe5b60200260200101519050856009015473D47860593fe40b3D0E04460e54bFE0b84E1E692263d7304dd988601401858154811061070057fe5b600091825260209091206005909102015460148a0180546001600160401b03909216918790811061072d57fe5b906000526020600020906005020160000160089054906101000a900460ff1673D47860593fe40b3D0E04460e54bFE0b84E1E692263a73426888c601401898154811061077557fe5b600091825260209091206005909102015460405160e083901b6001600160e01b03191681526107b191600160401b900460ff1690600401615dfa565b60206040518083038186803b1580156107c957600080fd5b505af41580156107dd573d6000803e3d6000fd5b505050506040513d601f19601f820116820180604052508101906108019190614c9f565b866040518563ffffffff1660e01b81526004016108219493929190615dc9565b60206040518083038186803b15801561083957600080fd5b505af415801561084d573d6000803e3d6000fd5b505050506040513d601f19601f820116820180604052508101906108719190614c9f565b1461088e5760405162461bcd60e51b815260040161047990615464565b73D47860593fe40b3D0E04460e54bFE0b84E1E692263d7304dd98760140184815481106108b757fe5b60009182526020909120600590910201546014890180546001600160401b0390921691869081106108e457fe5b906000526020600020906005020160000160089054906101000a900460ff1689601301868154811061091257fe5b9060005260206000200154856040518563ffffffff1660e01b815260040161093d9493929190615dc9565b60206040518083038186803b15801561095557600080fd5b505af4158015610969573d6000803e3d6000fd5b505050506040513d601f19601f8201168201806040525081019061098d9190614c9f565b6009870155506001016106b2565b50600a84018c905560108401805460ff1916600617905589516109c790600b86019060208d0190614816565b50600e840154600c85018054600192600f88019260009290916001600160401b03169081106109f257fe5b60009182526020808320909101546001600160a01b03168352820192909252604090810190912080549215156101000261ff001990931692909217909155426006860155517f1e9358f673ff367487ce56f136412ae5b69bf2c06e223aad2756d748c2a9b52a90610a66908f908f90615cd5565b60405180910390a150505050505050505050505050565b6000818060005411610ac4576040805162461bcd60e51b81526020600482015260166024820152600080516020615e8f833981519152604482015290519081900360640190fd5b610acd81611993565b610b0f576040805162461bcd60e51b815260206004820152600e60248201526d496e64657820696e61637469766560901b604482015290519081900360640190fd5b60008381526002602052604090205491505b50919050565b808060005411610b6c576040805162461bcd60e51b81526020600482015260166024820152600080516020615e8f833981519152604482015290519081900360640190fd5b610b7581611993565b610bb7576040805162461bcd60e51b815260206004820152600e60248201526d496e64657820696e61637469766560901b604482015290519081900360640190fd5b600082815260066020526040812090610bcf846143e5565b8260060154014211905080610bf65760405162461bcd60e51b815260040161047990615732565b6000601083015460ff16600a811115610c0b57fe5b1415610c6e576010820180546001919060ff191682805b02179055507e8b9973029c7e97351818d3e7d05886281e66f26d8382e01b35dfbb95604ba384610c5186610d1c565b604051610c5f929190615cd5565b60405180910390a15050610d18565b6003601083015460ff16600a811115610c8357fe5b1415610c9e576010820180546001919060ff19168280610c22565b6004601083015460ff16600a811115610cb357fe5b1415610ccf576010820180546005919060ff1916600183610c22565b6006601083015460ff16600a811115610ce457fe5b1415610d0057601082018054600a919060ff1916600183610c22565b60405162461bcd60e51b81526004016104799061588a565b5050565b6000818060005411610d63576040805162461bcd60e51b81526020600482015260166024820152600080516020615e8f833981519152604482015290519081900360640190fd5b60008381526006602052604081206010015460ff169081600a811115610d8557fe5b1415610da7576f57616974696e6750726f76696465727360801b925050610b21565b600381600a811115610db557fe5b1415610dd5576d57616974696e6752657665616c7360901b925050610b21565b600281600a811115610de357fe5b1415610e0b577557616974696e674368616c6c656e676544726976657360501b925050610b21565b600581600a811115610e1957fe5b1415610e405774436c61696d65724d6973736564446561646c696e6560581b925050610b21565b600181600a811115610e4e57fe5b1415610e76577550726f76696465724d6973736564446561646c696e6560501b925050610b21565b600481600a811115610e8457fe5b1415610ea2576b57616974696e67436c61696d60a01b925050610b21565b600681600a811115610eb057fe5b1415610edf577f57616974696e67436f6e6669726d6174696f6e446561646c696e650000000000925050610b21565b600781600a811115610eed57fe5b1415610f15577515d85a5d1a5b99d0da185b1b195b99d954995cdd5b1d60521b925050610b21565b600a81600a811115610f2357fe5b1415610f44576e10dbdb9cd95b9cdd5cd4995cdd5b1d608a1b925050610b21565b600881600a811115610f5257fe5b1415610f71576c21b430b63632b733b2b92bb7b760991b925050610b21565b600981600a811115610f7f57fe5b1415610f9b576921b630b4b6b2b92bb7b760b11b925050610b21565b60405162461bcd60e51b8152600401610479906158c1565b6060806060806060610fc36148a2565b878060005411611008576040805162461bcd60e51b81526020600482015260166024820152600080516020615e8f833981519152604482015290519081900360640190fd5b60008981526006602090815260408083206001600160a01b038c168452600f8101835292819020815160808082018452915460ff808216151583526101008204811615158387015262010000820416151582850152630100000090046001600160401b03166060808301919091528351600480825260a082019095529197509390929190830190803683370190505090508160030154816000815181106110ab57fe5b6020026020010181815250506110c08b6143e5565b826006015401816001815181106110d357fe5b6020908102919091010152600482015481516001600160401b0390911690829060029081106110fe57fe5b6020026020010181815250508160040160089054906101000a900460ff1660ff168160038151811061112c57fe5b6020908102919091010152604080516002808252606082810190935281602001602082028036833701905050600e840154909150600160401b90046001600160401b0316156111dd57600e830154600c840180549091600160401b90046001600160401b031690811061119b57fe5b600091825260208220015482516001600160a01b039091169183916111bc57fe5b60200260200101906001600160a01b031690816001600160a01b0316815250505b600e830154600c8401805490916001600160401b03169081106111fc57fe5b9060005260206000200160009054906101000a90046001600160a01b03168160018151811061122757fe5b6001600160a01b039290921660209283029190910182015260408051600480825260a08201909252606092909190820160808036833701905050905083600801548160008151811061127557fe5b60200260200101818152505083600901548160018151811061129357fe5b60200260200101818152505083600a0154816002815181106112b157fe5b6020026020010181815250506112c68d610d1c565b816003815181106112d357fe5b60209081029190910101526000601085015460ff16600a8111156112f357fe5b14156115cc57604080516001808252818301909252606091816020015b6113186148c9565b815260200190600190039081611310579050509050846014018560120186600201548154811061134457fe5b90600052602060002001548154811061135957fe5b600091825260209182902060408051610100808201835260059490940290920180546001600160401b0381168452600160401b900460ff1683860152600180820180548451600293821615909702600019011691909104601f810187900487028601870184528086529395919492860193909183018282801561141d5780601f106113f25761010080835404028352916020019161141d565b820191906000526020600020905b81548152906001019060200180831161140057829003601f168201915b5050509183525050600282810180546040805160206001841615610100026000190190931694909404601f810183900483028501830190915280845293810193908301828280156114af5780601f10611484576101008083540402835291602001916114af565b820191906000526020600020905b81548152906001019060200180831161149257829003601f168201915b5050509183525050600382015460208201526004909101546001600160a01b038116604083015260ff600160a01b8204811615156060840152600160a81b9091041615156080909101528151829060009061150657fe5b602002602001018190525083838387600b01848b828054600181600116156101000203166002900480601f0160208091040260200160405190810160405280929190818152602001828054600181600116156101000203166002900480156115af5780601f10611584576101008083540402835291602001916115af565b820191906000526020600020905b81548152906001019060200180831161159257829003601f168201915b505050505092509b509b509b509b509b509b505050505050611988565b6003601085015460ff16600a8111156115e157fe5b141561163257604080516001808252818301909252606091816020015b6116066148c9565b8152602001906001900390816115fe579050509050846014018560110186600101548154811061134457fe5b6001601085015460ff16600a81111561164757fe5b14156116f65760408051600080825260208201909252606091611680565b61166d6148c9565b8152602001906001900390816116655790505b50905083838387600b01848b828054600181600116156101000203166002900480601f0160208091040260200160405190810160405280929190818152602001828054600181600116156101000203166002900480156115af5780601f10611584576101008083540402835291602001916115af565b600b84018054604080516020601f60026000196101006001881615020190951694909404938401819004810282018101909252828152869386938693919260148b01928d92859183018282801561178e5780601f106117635761010080835404028352916020019161178e565b820191906000526020600020905b81548152906001019060200180831161177157829003601f168201915b5050505050925081805480602002602001604051908101604052809291908181526020016000905b828210156119715760008481526020908190206040805161010080820183526005870290930180546001600160401b0381168352600160401b900460ff1682860152600180820180548551600293821615909702600019011691909104601f8101879004870286018701855280865292959194938601939290918301828280156118815780601f1061185657610100808354040283529160200191611881565b820191906000526020600020905b81548152906001019060200180831161186457829003601f168201915b5050509183525050600282810180546040805160206001841615610100026000190190931694909404601f810183900483028501830190915280845293810193908301828280156119135780601f106118e857610100808354040283529160200191611913565b820191906000526020600020905b8154815290600101906020018083116118f657829003601f168201915b505050918352505060038201546020808301919091526004909201546001600160a01b038116604083015260ff600160a01b8204811615156060840152600160a81b90910416151560809091015290825260019290920191016117b6565b5050505091509a509a509a509a509a509a50505050505b509295509295509295565b60008181526001602052604090205460ff165b919050565b600080600060608480600054116119f7576040805162461bcd60e51b81526020600482015260166024820152600080516020615e8f833981519152604482015290519081900360640190fd5b6000868152600660205260409020600a601082015460ff16600a811115611a1a57fe5b1415611ad357600160008083600b01808054600181600116156101000203166002900480601f016020809104026020016040519081016040528092919081815260200182805460018160011615610100020316600290048015611abe5780601f10611a9357610100808354040283529160200191611abe565b820191906000526020600020905b815481529060010190602001808311611aa157829003601f168201915b50505050509050955095509550955050611d99565b6000601082015460ff16600a811115611ae857fe5b1480611b0657506002601082015460ff16600a811115611b0457fe5b145b80611b2357506004601082015460ff16600a811115611b2157fe5b145b80611b4057506006601082015460ff16600a811115611b3e57fe5b145b80611b5d57506007601082015460ff16600a811115611b5b57fe5b145b80611b7a57506003601082015460ff16600a811115611b7857fe5b145b15611ba35760006001600060405180602001604052806000815250955095509550955050611d99565b6001601082015460ff16600a811115611bb857fe5b1415611cbb57600087815260066020526040812060128101546002909101541015611c2d578160140182601201836002015481548110611bf457fe5b906000526020600020015481548110611c0957fe5b60009182526020909120600460059092020101546001600160a01b03169050611c98565b600088815260066020526040902060118101546001909101541015611c98578160140182601101836001015481548110611c6357fe5b906000526020600020015481548110611c7857fe5b60009182526020909120600460059092020101546001600160a01b031690505b600080826040518060200160405280600081525096509650965096505050611d99565b6005601082015460ff16600a811115611cd057fe5b1480611cee57506008601082015460ff16600a811115611cec57fe5b145b15611d4c57600e810154600c820180546000928392916001600160401b03909116908110611d1857fe5b60009182526020808320909101546040805192830190529181529298509096506001600160a01b031694509250611d999050565b6009601082015460ff16600a811115611d6157fe5b1415610f9b5760008082600c0183600e0160089054906101000a90046001600160401b03166001600160401b031681548110611d1857fe5b509193509193565b6000806000848060005411611deb576040805162461bcd60e51b81526020600482015260166024820152600080516020615e8f833981519152604482015290519081900360640190fd5b5050506000928352506006602090815260408084206001600160a01b039093168452600f909201905290205460ff80821692610100830482169262010000900490911690565b808060005411611e76576040805162461bcd60e51b81526020600482015260166024820152600080516020615e8f833981519152604482015290519081900360640190fd5b611e7f81611993565b611ec1576040805162461bcd60e51b815260206004820152600e60248201526d496e64657820696e61637469766560901b604482015290519081900360640190fd5b6000828152600660209081526040808320338452600f81019092529091205483919060ff16611f025760405162461bcd60e51b815260040161047990615c76565b6000848152600660209081526040808320338452600f810190925290912054859190610100900460ff1615611f495760405162461bcd60e51b81526004016104799061599c565b6000868152600260209081526040808320805460010190556006918290529091208791601082015460ff16600a811115611f7f57fe5b14611f9c5760405162461bcd60e51b815260040161047990615389565b600554600e820154600c830180546001600160a01b03909316926320b73870923392916001600160401b03909116908110611fd357fe5b6000918252602090912001546005850154600380546009880154600a890154928901546040516001600160e01b031960e08a901b16815261202997966001600160a01b03908116969594169391906004016151f0565b602060405180830381600087803b15801561204357600080fd5b505af1158015612057573d6000803e3d6000fd5b505050506040513d601f19601f8201168201806040525081019061207b9190614c9f565b60078083019190915560108201805460ff19166001830217905550336000908152600f8201602052604090819020805461ff0019166101001790819055600e83018054600160801b600160401b6001600160401b03630100000090950485160267ffffffffffffffff60401b199092169190911781810484166001019093160267ffffffffffffffff60801b19909216919091179055426006830155517fa895da4b794aeba8d8082db237265459db7b7ffdb5aa7c2332a7c5eafbfae73590612145908a9061536f565b60405180910390a15050505050505050565b80806000541161219c576040805162461bcd60e51b81526020600482015260166024820152600080516020615e8f833981519152604482015290519081900360640190fd5b6121a581611993565b6121e7576040805162461bcd60e51b815260206004820152600e60248201526d496e64657820696e61637469766560901b604482015290519081900360640190fd5b6000828152600660209081526040808320338452600f81019092529091205483919060ff166122285760405162461bcd60e51b815260040161047990615c76565b6000848152600660209081526040808320338452600f810190925290912054859190610100900460ff161561226f5760405162461bcd60e51b81526004016104799061599c565b6000868152600260209081526040808320805460010190556006918290529091208791601082015460ff16600a8111156122a557fe5b146122c25760405162461bcd60e51b815260040161047990615389565b600d81018054600181810183556000928352602080842090920180546001600160a01b03191633908117909155808452600f8501909252604092839020805461ff001916610100179055600e840180546001600160401b03600160801b80830482169094011690920267ffffffffffffffff60801b1990921691909117905590517f6f220d98c15dbd07fdc24781b682ea34f92411fc61b83c761dd927afbe02d3fd91612371918b9190615cbe565b60405180910390a1600c810154600e820154600160801b90046001600160401b031614156123e05760108101805460ff1916600a1790557e8b9973029c7e97351818d3e7d05886281e66f26d8382e01b35dfbb95604ba3886123d281610d1c565b604051612145929190615cd5565b5050505050505050565b80806000541161242f576040805162461bcd60e51b81526020600482015260166024820152600080516020615e8f833981519152604482015290519081900360640190fd5b61243881611993565b61247a576040805162461bcd60e51b815260206004820152600e60248201526d496e64657820696e61637469766560901b604482015290519081900360640190fd5b60008281526002602081815260408084208054600101905560069091529091208391601082015460ff16600a8111156124af57fe5b146124cc5760405162461bcd60e51b8152600401610479906157ce565b336000908152600f8201602052604090205460ff166124fd5760405162461bcd60e51b815260040161047990615b8f565b60108101805460ff1916600317905542600690910155505050565b606080838060005411612560576040805162461bcd60e51b81526020600482015260166024820152600080516020615e8f833981519152604482015290519081900360640190fd5b606080600760008881526006602052604090206010015460ff16600a81111561258557fe5b141561262b5760408051600180825281830190925290602080830190803683375050604080516001808252818301909252929450905060208083019080368337505060055484519293506001600160a01b0316918491506000906125e557fe5b6001600160a01b0390921660209283029190910182015260008881526006909152604081206007015482519091839161261a57fe5b602002602001018181525050612645565b505060408051600080825260208201908152818301909252905b90969095509350505050565b818060005411612696576040805162461bcd60e51b81526020600482015260166024820152600080516020615e8f833981519152604482015290519081900360640190fd5b61269f81611993565b6126e1576040805162461bcd60e51b815260206004820152600e60248201526d496e64657820696e61637469766560901b604482015290519081900360640190fd5b60008381526006602052604081208491601082015460ff16600a81111561270457fe5b146127215760405162461bcd60e51b8152600401610479906158ed565b60128101546002820154106127485760405162461bcd60e51b81526004016104799061592e565b60008160120182600201548154811061275d57fe5b90600052602060002001549050816014018054905081106127905760405162461bcd60e51b815260040161047990615814565b6127986148c9565b8260140182815481106127a757fe5b600091825260209182902060408051610100808201835260059490940290920180546001600160401b0381168452600160401b900460ff1683860152600180820180548451600293821615909702600019011691909104601f810187900487028601870184528086529395919492860193909183018282801561286b5780601f106128405761010080835404028352916020019161286b565b820191906000526020600020905b81548152906001019060200180831161284e57829003601f168201915b5050509183525050600282810180546040805160206001841615610100026000190190931694909404601f810183900483028501830190915280845293810193908301828280156128fd5780601f106128d2576101008083540402835291602001916128fd565b820191906000526020600020905b8154815290600101906020018083116128e057829003601f168201915b5050509183525050600382015460208201526004909101546001600160a01b038116604083015260ff600160a01b8204811615156060840152600160a81b9091041615156080909101526013840180549192506000918490811061295d57fe5b9060005260206000200154146129855760405162461bcd60e51b815260040161047990615b01565b8060c001516129a65760405162461bcd60e51b815260040161047990615bd6565b60a08101516001600160a01b031633146129d25760405162461bcd60e51b815260040161047990615965565b6000878152600660205260408120600281015460128201805492939290919081106129f957fe5b906000526020600020015490506000826014018281548110612a1757fe5b906000526020600020906005020190508060040160159054906101000a900460ff16612a555760405162461bcd60e51b815260040161047990615664565b600381018990556013830180548a919084908110612a6f57fe5b6000918252602090912001556002830180546001019081905542600685015560128401541415612ac757601183015415612ab75760108301805460ff19166002179055612ac7565b60108301805460ff191660041790555b7fc33d5cc33df375fac3c4fb6395fac74e37c0183c522e645801a298a6ba8e04a38a846014018481548110612af857fe5b9060005260206000209060050201604051612b14929190615ce3565b60405180910390a150505050505050505050565b60006032841015612b4b5760405162461bcd60e51b815260040161047990615a1b565b600080548152600660205260408120905b8451816001600160401b03161015612cf55781600f01600086836001600160401b031681518110612b8957fe5b6020908102919091018101516001600160a01b031682528101919091526040016000205460ff1615612bcd5760405162461bcd60e51b815260040161047990615615565b600182600f01600087846001600160401b031681518110612bea57fe5b60200260200101516001600160a01b03166001600160a01b0316815260200190815260200160002060000160006101000a81548160ff0219169083151502179055508082600f01600087846001600160401b031681518110612c4857fe5b60200260200101516001600160a01b03166001600160a01b0316815260200190815260200160002060000160036101000a8154816001600160401b0302191690836001600160401b0316021790555081600c0185826001600160401b031681518110612cb057fe5b60209081029190910181015182546001808201855560009485529290932090920180546001600160a01b0319166001600160a01b039093169290921790915501612b5c565b508251600090806001600160401b0381118015612d1157600080fd5b50604051908082528060200260200182016040528015612d3b578160200160208202803683370190505b508051612d5291601386019160209091019061490f565b5060005b818110156131c957612d666148c9565b868281518110612d7257fe5b602002602001015190508060e00151612f52576003816020015160ff161015612dad5760405162461bcd60e51b815260040161047990615aba565b8060c00151612f2f57806020015160ff1660020a8160400151511115612de55760405162461bcd60e51b81526004016104799061577e565b60408101516020820151815160ff90911660020a1115612e765760408201518051602084015160ff1660020a036001600160401b0381118015612e2757600080fd5b506040519080825280601f01601f191660200182016040528015612e52576020820181803683370190505b50604051602001612e649291906151c1565b60405160208183030381529060405290505b6060612e81826146ff565b6040516310561d5760e31b815290915073D47860593fe40b3D0E04460e54bFE0b84E1E6922906382b0eab890612ebb908490600401615262565b60206040518083038186803b158015612ed357600080fd5b505af4158015612ee7573d6000803e3d6000fd5b505050506040513d601f19601f82011682018060405250810190612f0b9190614c9f565b876013018581548110612f1a57fe5b90600052602060002001819055505050612f4d565b60128501805460018181018355600092835260209092200183905593505b613063565b8060c00151613045578060800151856013018381548110612f6f57fe5b6000918252602091829020019190915560048054608084015192840151604051632b6baa3760e21b81526001600160a01b039092169363adaea8dc93612fb89391929101615378565b60206040518083038186803b158015612fd057600080fd5b505afa158015612fe4573d6000803e3d6000fd5b505050506040513d601f19601f820116820180604052508101906130089190614c7c565b158015613021575060a08101516001600160a01b031615155b15612f4d576011850180546001810182556000918252602090912001829055613063565b60128501805460018181018355600092835260209092200183905593505b604080516101008101825282516001600160401b03908116825260208085015160ff90811682850190815286860151958501958652606080880151908601526080808801519086015260a0808801516001600160a01b03169086015260c08088015115159086015260e08088015115159086015260148b0180546001808201835560009283529185902087516005909202018054935167ffffffffffffffff19909416919096161760ff60401b1916600160401b9290931691909102919091178355935180519394929361313e938501929190910190614816565b506060820151805161315a916002840191602090910190614816565b506080820151600382015560a08201516004909101805460c084015160e0909401511515600160a81b0260ff60a81b19941515600160a01b0260ff60a01b196001600160a01b039095166001600160a01b03199093169290921793909316179290921617905550600101612d56565b5060038860ff1610156131ee5760405162461bcd60e51b81526004016104799061555b565b8254336001600160a01b0319909116178355600e83018054600160801b67ffffffffffffffff60801b19909116179055600383018b9055600883018a9055600983018a905560048301805467ffffffffffffffff19166001600160401b038b161760ff60401b1916600160401b60ff8b1602179055600583018790554260068401558115613292576010830180546000919060ff19166001835b02179055506132c2565b6011830154156132b2576010830180546002919060ff1916600183613288565b60108301805460ff191660041790555b7f636fd79aca92320cae2060e85a57eff6548c5fb3b972fb98bfd6432eef78c0e96000546040516132f3919061536f565b60405180910390a150506000805481526001602081905260408220805460ff19168217905581549081019091559150505b979650505050505050565b808060005411613374576040805162461bcd60e51b81526020600482015260166024820152600080516020615e8f833981519152604482015290519081900360640190fd5b61337d81611993565b6133bf576040805162461bcd60e51b815260206004820152600e60248201526d496e64657820696e61637469766560901b604482015290519081900360640190fd5b6000828152600660205260409020546001600160a01b0316338114613426576040805162461bcd60e51b815260206004820152601860248201527721b0b73737ba1031329031b0b63632b210313c903ab9b2b960411b604482015290519081900360640190fd5b60008381526006602052604090206001601082015460ff16600a81111561344957fe5b148061346757506005601082015460ff16600a81111561346557fe5b145b806134845750600a601082015460ff16600a81111561348257fe5b145b806134a157506008601082015460ff16600a81111561349f57fe5b145b806134be57506009601082015460ff16600a8111156134bc57fe5b145b6134da5760405162461bcd60e51b815260040161047990615841565b6134e8601182016000614949565b6134f6601282016000614949565b613504601382016000614949565b61351260148201600061496a565b61351b846147f3565b50505050565b808060005411613566576040805162461bcd60e51b81526020600482015260166024820152600080516020615e8f833981519152604482015290519081900360640190fd5b61356f81611993565b6135b1576040805162461bcd60e51b815260206004820152600e60248201526d496e64657820696e61637469766560901b604482015290519081900360640190fd5b6000828152600260209081526040808320805460010190556006909152902082906007601082015460ff16600a8111156135e757fe5b146136045760405162461bcd60e51b815260040161047990615a67565b426006820155600781015460055460405163b6b5c31960e01b81526001600160a01b039091169063b6b5c3199061363f90849060040161536f565b60206040518083038186803b15801561365757600080fd5b505afa15801561366b573d6000803e3d6000fd5b505050506040513d601f19601f8201168201806040525081019061368f9190614c7c565b1561387657600e820154600c83018054600192600f86019260009290916001600160401b03169081106136be57fe5b60009182526020808320909101546001600160a01b0316835282019290925260400181208054921515620100000262ff000019909316929092179091555b600d83015481101561376157600083600f01600085600d01848154811061371f57fe5b60009182526020808320909101546001600160a01b03168352820192909252604001902080549115156101000261ff00199092169190911790556001016136fc565b50600d82018054600e840180546001600160401b03600160801b8083048216949094031690920267ffffffffffffffff60801b199092169190911790556137a9906000614949565b600c820154600e830154600160801b90046001600160401b03161415613827576010820180546008919060ff19166001835b02179055507e8b9973029c7e97351818d3e7d05886281e66f26d8382e01b35dfbb95604ba38561380a87610d1c565b604051613818929190615cd5565b60405180910390a150506139ea565b6010820180546004919060ff1916600183021790555050600e018054600160401b81046001600160401b031667ffffffffffffffff199091161767ffffffffffffffff60401b191690556139ea565b600554604051633664f8bf60e11b81526001600160a01b0390911690636cc9f17e906138a690849060040161536f565b60206040518083038186803b1580156138be57600080fd5b505afa1580156138d2573d6000803e3d6000fd5b505050506040513d601f19601f820116820180604052508101906138f69190614c7c565b156139cf57600182600f01600084600c0185600e0160089054906101000a90046001600160401b03166001600160401b03168154811061393257fe5b60009182526020808320909101546001600160a01b0316835282019290925260400190208054911515620100000262ff000019909216919091179055600c820154600e8301546001600160401b03600160801b9091041614156139a5576010820180546009919060ff19166001836137db565b5060108101805460ff19166006179055600e01805467ffffffffffffffff60401b191690556139ea565b60405162461bcd60e51b815260040161047990615c0d565b50505b505050565b808060005411613a34576040805162461bcd60e51b81526020600482015260166024820152600080516020615e8f833981519152604482015290519081900360640190fd5b613a3d81611993565b613a7f576040805162461bcd60e51b815260206004820152600e60248201526d496e64657820696e61637469766560901b604482015290519081900360640190fd5b60008281526006602052604090206003601082015460ff16600a811115613aa257fe5b14613abf5760405162461bcd60e51b815260040161047990615c3f565b600081601101826001015481548110613ad457fe5b9060005260206000200154905081601401805490508110613b075760405162461bcd60e51b81526004016104799061552f565b613b0f6148c9565b826014018281548110613b1e57fe5b600091825260209182902060408051610100808201835260059490940290920180546001600160401b0381168452600160401b900460ff1683860152600180820180548451600293821615909702600019011691909104601f8101879004870286018701845280865293959194928601939091830182828015613be25780601f10613bb757610100808354040283529160200191613be2565b820191906000526020600020905b815481529060010190602001808311613bc557829003601f168201915b5050509183525050600282810180546040805160206001841615610100026000190190931694909404601f81018390048302850183019091528084529381019390830182828015613c745780601f10613c4957610100808354040283529160200191613c74565b820191906000526020600020905b815481529060010190602001808311613c5757829003601f168201915b5050509183525050600382015460208201526004909101546001600160a01b038116604083015260ff600160a01b8204811615156060840152600160a81b90910416151560809091015260e0810151909150613ce25760405162461bcd60e51b8152600401610479906159e4565b6004805460808301516020840151604051632b6baa3760e21b81526001600160a01b039093169363adaea8dc93613d1b93929101615378565b60206040518083038186803b158015613d3357600080fd5b505afa158015613d47573d6000803e3d6000fd5b505050506040513d601f19601f82011682018060405250810190613d6b9190614c7c565b613d875760405162461bcd60e51b8152600401610479906156ef565b6001808401805490910190819055426006850155601184015414156139e7575050601001805460ff191660041790555050565b818060005411613dff576040805162461bcd60e51b81526020600482015260166024820152600080516020615e8f833981519152604482015290519081900360640190fd5b613e0881611993565b613e4a576040805162461bcd60e51b815260206004820152600e60248201526d496e64657820696e61637469766560901b604482015290519081900360640190fd5b60008381526006602052604081208491601082015460ff16600a811115613e6d57fe5b14613e8a5760405162461bcd60e51b8152600401610479906158ed565b6012810154600282015410613eb15760405162461bcd60e51b81526004016104799061592e565b600081601201826002015481548110613ec657fe5b9060005260206000200154905081601401805490508110613ef95760405162461bcd60e51b815260040161047990615814565b613f016148c9565b826014018281548110613f1057fe5b600091825260209182902060408051610100808201835260059490940290920180546001600160401b0381168452600160401b900460ff1683860152600180820180548451600293821615909702600019011691909104601f8101879004870286018701845280865293959194928601939091830182828015613fd45780601f10613fa957610100808354040283529160200191613fd4565b820191906000526020600020905b815481529060010190602001808311613fb757829003601f168201915b5050509183525050600282810180546040805160206001841615610100026000190190931694909404601f810183900483028501830190915280845293810193908301828280156140665780601f1061403b57610100808354040283529160200191614066565b820191906000526020600020905b81548152906001019060200180831161404957829003601f168201915b5050509183525050600382015460208201526004909101546001600160a01b038116604083015260ff600160a01b8204811615156060840152600160a81b909104161515608090910152601384018054919250600091849081106140c657fe5b9060005260206000200154146140ee5760405162461bcd60e51b815260040161047990615b01565b8060c0015161410f5760405162461bcd60e51b815260040161047990615bd6565b60a08101516001600160a01b0316331461413b5760405162461bcd60e51b815260040161047990615965565b60008781526006602052604081206002810154601282018054929392909190811061416257fe5b90600052602060002001549050600082601401828154811061418057fe5b906000526020600020906005020190508060040160159054906101000a900460ff16156141bf5760405162461bcd60e51b81526004016104799061541d565b80548951600160401b90910460ff1660020a10156141ef5760405162461bcd60e51b81526004016104799061577e565b805489518a91600160401b900460ff1660020a111561428157895182548b91600160401b90910460ff1660020a036001600160401b038111801561423257600080fd5b506040519080825280601f01601f19166020018201604052801561425d576020820181803683370190505b5060405160200161426f9291906151c1565b60405160208183030381529060405290505b606061428c826146ff565b9050600073D47860593fe40b3D0E04460e54bFE0b84E1E69226382b0eab8836040518263ffffffff1660e01b81526004016142c79190615262565b60206040518083038186803b1580156142df57600080fd5b505af41580156142f3573d6000803e3d6000fd5b505050506040513d601f19601f820116820180604052508101906143179190614c9f565b8c5190915061432f90600186019060208f0190614816565b508086601301868154811061434057fe5b6000918252602090912001556002860180546001019081905542600688015560128701541415614398576011860154156143885760108601805460ff19166002179055614398565b60108601805460ff191660041790555b7fc33d5cc33df375fac3c4fb6395fac74e37c0183c522e645801a298a6ba8e04a38d8760140187815481106143c957fe5b9060005260206000209060050201604051610a66929190615ce3565b600060016101f460288360008681526006602052604090206010015460ff16600a81111561440f57fe5b14156144315750505060008281526006602052604090206005015490506119a6565b600360008681526006602052604090206010015460ff16600a81111561445357fe5b1415614479575050506000828152600660205260409020600501546109600190506119a6565b600260008681526006602052604090206010015460ff16600a81111561449b57fe5b14156144c857505050600082815260066020526040902060058101546011909101540260020290506119a6565b600460008681526006602052604090206010015460ff16600a8111156144ea57fe5b1415614521576000858152600660205260409020600581015460039091015464e8d4a510009084025b0482010193505050506119a6565b600660008681526006602052604090206010015460ff16600a81111561454357fe5b1415614570576000858152600660205260409020600581015460039091015464e8d4a51000908402614513565b600760008681526006602052604090206010015460ff16600a81111561459257fe5b1415614645576000858152600660205260409081902060058082015490546003909201549251631b8798d560e11b815290926001600160a01b039092169163370f31aa916145ea91859187918a918a90600401615da6565b60206040518083038186803b15801561460257600080fd5b505afa158015614616573d6000803e3d6000fd5b505050506040513d601f19601f8201168201806040525081019061463a9190614c9f565b0193505050506119a6565b600960008681526006602052604090206010015460ff16600a81111561466757fe5b14806146925750600860008681526006602052604090206010015460ff16600a81111561469057fe5b145b806146bc5750600560008681526006602052604090206010015460ff16600a8111156146ba57fe5b145b806146e65750600a60008681526006602052604090206010015460ff16600a8111156146e457fe5b145b156146f757600093505050506119a6565b505050919050565b60606000600883518161470e57fe5b0490506060816001600160401b038111801561472957600080fd5b50604051908082528060200260200182016040528015614753578160200160208202803683370190505b50905060005b828110156147eb576000805b60088110156147a3576000878285600802018151811061478157fe5b01602001516001600160f81b031916600883021c929092179150600101614765565b50806040516020016147b591906151ac565b604051602081830303815290604052805190602001208383815181106147d757fe5b602090810291909101015250600101614759565b509392505050565b6000908152600160209081526040808320805460ff191690556002909152812055565b828054600181600116156101000203166002900490600052602060002090601f01602090048101928261484c5760008555614892565b82601f1061486557805160ff1916838001178555614892565b82800160010185558215614892579182015b82811115614892578251825591602001919060010190614877565b5061489e92915061498b565b5090565b60408051608081018252600080825260208201819052918101829052606081019190915290565b60408051610100810182526000808252602082018190526060928201839052828201929092526080810182905260a0810182905260c0810182905260e081019190915290565b8280548282559060005260206000209081019282156148925791602002820182811115614892578251825591602001919060010190614877565b5080546000825590600052602060002090810190614967919061498b565b50565b508054600082556005029060005260206000209081019061496791906149a0565b5b8082111561489e576000815560010161498c565b8082111561489e57805468ffffffffffffffffff1916815560006149c760018301826149f7565b6149d56002830160006149f7565b50600060038201556004810180546001600160b01b03191690556005016149a0565b50805460018160011615610100020316600290046000825580601f10614a1d5750614967565b601f016020900490600052602060002090810190614967919061498b565b80356001600160a01b03811681146119a657600080fd5b600082601f830112614a62578081fd5b8135614a75614a7082615e2b565b615e08565b818152915060208083019084810181840286018201871015614a9657600080fd5b60005b84811015614ab557813584529282019290820190600101614a99565b505050505092915050565b600082601f830112614ad0578081fd5b8135614ade614a7082615e2b565b818152915060208083019084810160005b84811015614ab5578135870161010080601f19838c03011215614b1157600080fd5b614b1a81615e08565b614b25868401614c54565b81526040614b34818501614c6b565b878301526060808501356001600160401b0380821115614b5357600080fd5b614b618f8b848a0101614bee565b848601526080935083870135915080821115614b7c57600080fd5b50614b8b8e8a83890101614bee565b82850152505060a0808501358284015260c09150614baa828601614a3b565b9083015260e0614bbb858201614be3565b82840152614bca848601614be3565b9083015250865250509282019290820190600101614aef565b80356119a681615e80565b600082601f830112614bfe578081fd5b81356001600160401b03811115614c1157fe5b614c24601f8201601f1916602001615e08565b9150808252836020828501011115614c3b57600080fd5b8060208401602084013760009082016020015292915050565b80356001600160401b03811681146119a657600080fd5b803560ff811681146119a657600080fd5b600060208284031215614c8d578081fd5b8151614c9881615e80565b9392505050565b600060208284031215614cb0578081fd5b5051919050565b600060208284031215614cc8578081fd5b5035919050565b60008060408385031215614ce1578081fd5b82359150614cf160208401614a3b565b90509250929050565b60008060408385031215614d0c578182fd5b50508035926020909101359150565b600080600080600060a08688031215614d32578081fd5b85359450602080870135945060408701356001600160401b0380821115614d57578384fd5b818901915089601f830112614d6a578384fd5b8135614d78614a7082615e2b565b81815284810190848601875b84811015614dad57614d9b8f8984358a0101614a52565b84529287019290870190600101614d84565b509098505050506060890135925080831115614dc7578384fd5b614dd38a848b01614bee565b94506080890135925080831115614de8578384fd5b5050614df688828901614a52565b9150509295509295909350565b600080600080600080600060e0888a031215614e1d578485fd5b873596506020808901359650614e3560408a01614c54565b9550614e4360608a01614c6b565b94506080890135935060a08901356001600160401b0380821115614e65578485fd5b818b0191508b601f830112614e78578485fd5b8135614e86614a7082615e2b565b8082825285820191508585018f878886028801011115614ea4578889fd5b8895505b83861015614ecd57614eb981614a3b565b835260019590950194918601918601614ea8565b509650505060c08b0135925080831115614ee5578384fd5b5050614ef38a828b01614ac0565b91505092959891949750929550565b60008060408385031215614f14578182fd5b8235915060208301356001600160401b03811115614f30578182fd5b614f3c85828601614bee565b9150509250929050565b6001600160a01b03169052565b6000815180845260208085019450808401835b83811015614f8b5781516001600160a01b031687529582019590820190600101614f66565b509495945050505050565b6000815180845260208085019450808401835b83811015614f8b57815187529582019590820190600101614fa9565b6000815180845260208085018081965082840281019150828601855b858110156150a157828403895281516101006001600160401b03825116865286820151615010888801826151a5565b506040808301518282890152615028838901826150b4565b925050506060808301518783038289015261504383826150b4565b92505050608080830151818801525060a08083015161506482890182614f46565b505060c080830151615078828901826150ae565b505060e0918201519161508d878201846150ae565b509986019994505090840190600101614fe1565b5091979650505050505050565b15159052565b600081518084526150cc816020860160208601615e54565b601f01601f19169290920160200192915050565b600081546001808216600081146150fe576001811461511c5761515a565b60028304607f16865260ff198316602087015260408601935061515a565b6002830480875261512c86615e48565b60005b828110156151505781546020828b010152848201915060208101905061512f565b8801602001955050505b50505092915050565b8051151582526020810151151560208301526040810151151560408301526001600160401b0360608201511660608301525050565b6001600160401b03169052565b60ff169052565b6001600160c01b031991909116815260080190565b600083516151d3818460208801615e54565b8351908301906151e7818360208801615e54565b01949350505050565b6001600160a01b03978816815295871660208701526040860194909452919094166060840152608083019390935260a082019290925260c081019190915260e00190565b6000604082526152476040830185614f53565b82810360208401526152598185614f96565b95945050505050565b600060208252614c986020830184614f96565b60006101208083526152898184018a614f96565b905060208382038185015261529e828a614f53565b84810360408601528851808252828a01935090820190845b818110156152d2578451835293830193918301916001016152b6565b505084810360608601526152e681896150b4565b9250505082810360808401526152fc8186614fc5565b91505061332460a0830184615163565b901515815260200190565b841515815283151560208201526001600160a01b038316604082015260806060820181905260009061534b908301846150b4565b9695505050505050565b921515835290151560208301521515604082015260600190565b90815260200190565b91825260ff16602082015260400190565b6020808252602b908201527f53746174652073686f756c642062652057616974696e67436f6e6669726d617460408201526a696f6e446561646c696e6560a81b606082015260800190565b60208082526029908201527f4f7574707574206973206e6f7420636f6e7461696e656420696e2074686520666040820152680d2dcc2d840d0c2e6d60bb1b606082015260800190565b60208082526027908201527f496e76616c696420647269766520746f20636c61696d20666f72206469726563604082015266742076616c756560c81b606082015260800190565b6020808252604c908201527f4472697665207369626c696e6773206d75737420626520636f6d70617469626c60408201527f6520776974682070726576696f757320696e697469616c206861736820666f7260608201526b20656d70747920647269766560a01b608082015260a00190565b60208082526039908201527f436c61696d6564206472697665206e756d6265722073686f756c64206d617463604082015278341031b630b4b6b2b21039b4b13634b733b990373ab6b132b960391b606082015260800190565b602080825260129082015271092dcecc2d8d2c840c8e4d2ecca92dcc8caf60731b604082015260600190565b60208082526028908201527f6f75747075742064726976652068617320746f206265206174206c65617374206040820152671bdb99481ddbdc9960c21b606082015260800190565b6020808252604c908201527f53746174652073686f756c642062652057616974696e67436c61696d2c206f7260408201527f2057616974696e674368616c6c656e676544726976657320776974682064656160608201526b191b1a5b99481c185cdcd95960a21b608082015260a00190565b6020808252602f908201527f52657065746974696f6e206f662070617274696573272061646472657373657360408201526e081a5cc81b9bdd08185b1b1bddd959608a1b606082015260800190565b60208082526021908201527f496e76616c696420647269766520746f20636c61696d20666f72206c6f6767656040820152603960f91b606082015260800190565b6020808252602a908201527f5468652073656e646572206973206e6f7420436c61696d6572206174207468696040820152697320696e7374616e636560b01b606082015260800190565b60208082526023908201527f48617368206973206e6f7420617661696c61626c65206f6e206c6f67676572206040820152621e595d60ea1b606082015260800190565b6020808252602c908201527f446561646c696e65206973206e6f74206f76657220666f72207468697320737060408201526b65636966696320737461746560a01b606082015260800190565b60208082526030908201527f496e707574206279746573206c656e677468206578636565647320746865206360408201526f6c61696d6564206c6f67322073697a6560801b606082015260800190565b60208082526026908201527f53746174652073686f756c642062652057616974696e674368616c6c656e676560408201526544726976657360d01b606082015260800190565b602080825260139082015272092dcecc2d8d2c840c8e4d2ecca40d2dcc8caf606b1b604082015260600190565b60208082526029908201527f43616e6e6f7420646573747275637420696e7374616e63652061742063757272604082015268656e7420737461746560b81b606082015260800190565b6020808252601a908201527f43616e6e6f742061626f72742063757272656e74207374617465000000000000604082015260600190565b602080825260129082015271556e7265636f676e697a656420737461746560701b604082015260600190565b60208082526021908201527f546865207374617465206973206e6f742057616974696e6750726f76696465726040820152607360f81b606082015260800190565b6020808252601b908201527f4e6f20617661696c61626c652070656e64696e67206472697665730000000000604082015260600190565b6020808252601a908201527f5468652073656e646572206973206e6f742070726f7669646572000000000000604082015260600190565b60208082526028908201527f53656e6465722068617320616c7265616479206368616c6c656e676564206f726040820152670818db185a5b595960c21b606082015260800190565b6020808252601a908201527f6e656564734c6f676765722073686f756c642062652074727565000000000000604082015260600190565b6020808252602c908201527f726f756e64206475726174696f6e2068617320746f206265206174206c65617360408201526b74203530207365636f6e647360a01b606082015260800190565b60208082526033908201527f5374617465206973206e6f742057616974696e674368616c6c656e6765526573604082015272756c742c2063616e6e6f742077696e4279564760681b606082015260800190565b60208082526027908201527f64697265637456616c75652068617320746f206265206174206c65617374206f6040820152661b99481ddbdc9960ca1b606082015260800190565b60208082526022908201527f54686520647269766520686173682073686f756c646e27742062652066696c6c604082015261195960f21b606082015260800190565b6020808252602c908201527f4f7574707574206c656e67746820646f65736e2774206d61746368206f75747060408201526b7574206c6f67322073697a6560a01b606082015260800190565b60208082526027908201527f4f6e6c7920636f6e6365726e65642075736572732063616e206368616c6c656e6040820152666744726976657360c81b606082015260800190565b6020808252601b908201527f7761697450726f76696465722073686f756c6420626520747275650000000000604082015260600190565b60208082526018908201527714dd185d19481bd9881591c81a5cc81b9bdd08199a5b985b60421b604082015260600190565b6020808252601f908201527f546865207374617465206973206e6f742057616974696e6752657665616c7300604082015260600190565b60208082526028908201527f5468652073656e646572206973206e6f7420706172747920746f207468697320604082015267696e7374616e636560c01b606082015260800190565b9182526001600160a01b0316602082015260400190565b918252602082015260400190565b6000838252604060208301528254615d07604084016001600160401b038316615198565b615d1a6060840160ff8360401c166151a5565b50610100806080840152615d356101408401600186016150e0565b838103603f190160a0850152615d4e81600287016150e0565b600386015460c08601526004860154909150615d7660e086016001600160a01b038316614f46565b615d8883860160ff8360a01c166150ae565b615d9c610120860160ff8360a81c166150ae565b5095945050505050565b948552602085019390935260408401919091526060830152608082015260a00190565b60006001600160401b038616825260ff851660208301528360408301526080606083015261534b6080830184614f96565b60ff91909116815260200190565b6040518181016001600160401b0381118282101715615e2357fe5b604052919050565b60006001600160401b03821115615e3e57fe5b5060209081020190565b60009081526020902090565b60005b83811015615e6f578181015183820152602001615e57565b8381111561351b5750506000910152565b801515811461496757600080fdfe496e646578206e6f7420696e7374616e74696174656400000000000000000000a2646970667358221220ebc980c8fb095b6ca05bef2e9787b76fe8f5945ac827b1e2aabe0ce7ed2e8a4564736f6c63430007040033",
  "deployedBytecode": "0x608060405234801561001057600080fd5b506004361061012c5760003560e01c8063ab82d9a0116100ad578063c817592d11610071578063c817592d146102a7578063c87e3ae9146102ba578063ded4df63146102cd578063f9bc3b21146102e0578063fa0ecc5b146102f35761012c565b8063ab82d9a01461023a578063ba0179b51461024d578063bfda2e7214610260578063c526656c14610273578063c70683ca146102945761012c565b80635748c130116100f45780635748c130146101aa57806373df1612146101bd57806382afd23b146101e2578063995e4339146101f5578063ab5da187146102185761012c565b806301ff62ab1461013157806326987b601461015a578063351e66571461016f5780633d46b819146101845780634c6fe7bf14610197575b600080fd5b61014461013f366004614ccf565b610306565b604051610151919061530c565b60405180910390f35b61016261037e565b604051610151919061536f565b61018261017d366004614d1b565b610384565b005b610162610192366004614cb7565b610a7d565b6101826101a5366004614cb7565b610b27565b6101626101b8366004614cb7565b610d1c565b6101d06101cb366004614ccf565b610fb3565b60405161015196959493929190615275565b6101446101f0366004614cb7565b611993565b610208610203366004614cb7565b6119ab565b6040516101519493929190615317565b61022b610226366004614ccf565b611da1565b60405161015193929190615355565b610182610248366004614cb7565b611e31565b61018261025b366004614cb7565b612157565b61018261026e366004614cb7565b6123ea565b610286610281366004614ccf565b612518565b604051610151929190615234565b6101826102a2366004614cfa565b612651565b6101626102b5366004614e03565b612b28565b6101826102c8366004614cb7565b61332f565b6101826102db366004614cb7565b613521565b6101826102ee366004614cb7565b6139ef565b610182610301366004614f02565b613dba565b600082806000541161034d576040805162461bcd60e51b81526020600482015260166024820152600080516020615e8f833981519152604482015290519081900360640190fd5b505060009182526006602090815260408084206001600160a01b03939093168452600f909201905290205460ff1690565b60005481565b8480600054116103c9576040805162461bcd60e51b81526020600482015260166024820152600080516020615e8f833981519152604482015290519081900360640190fd5b6103d281611993565b610414576040805162461bcd60e51b815260206004820152600e60248201526d496e64657820696e61637469766560901b604482015290519081900360640190fd5b6000868152600660205260409020600e810154600c820180548993923392916001600160401b0390911690811061044757fe5b6000918252602090912001546001600160a01b0316146104825760405162461bcd60e51b8152600401610479906156a5565b60405180910390fd5b6000888152600260209081526040808320805460010190556006909152812089916104ac836143e5565b600683015401421190506004601083015460ff16600a8111156104cb57fe5b14806104f157506002601083015460ff16600a8111156104e757fe5b1480156104f15750805b61050d5760405162461bcd60e51b8152600401610479906155a3565b88516014830154146105315760405162461bcd60e51b8152600401610479906154d6565b60048201548851600160401b90910460ff1660020a146105635760405162461bcd60e51b815260040161047990615b43565b606061056e896146ff565b6004848101546040516310561d5760e31b81529293508d9273__$c7dbd794b8c7b5c2028db781007df1176e$__9263d7304dd9926001600160401b03811692600160401b90910460ff169185916382b0eab8916105cd918a9101615262565b60206040518083038186803b1580156105e557600080fd5b505af41580156105f9573d6000803e3d6000fd5b505050506040513d601f19601f8201168201806040525081019061061d9190614c9f565b8d6040518563ffffffff1660e01b815260040161063d9493929190615dc9565b60206040518083038186803b15801561065557600080fd5b505af4158015610669573d6000803e3d6000fd5b505050506040513d601f19601f8201168201806040525081019061068d9190614c9f565b146106aa5760405162461bcd60e51b8152600401610479906153d4565b601483015460005b8181101561099b5760608c82815181106106c857fe5b60200260200101519050856009015473__$c7dbd794b8c7b5c2028db781007df1176e$__63d7304dd988601401858154811061070057fe5b600091825260209091206005909102015460148a0180546001600160401b03909216918790811061072d57fe5b906000526020600020906005020160000160089054906101000a900460ff1673__$c7dbd794b8c7b5c2028db781007df1176e$__63a73426888c601401898154811061077557fe5b600091825260209091206005909102015460405160e083901b6001600160e01b03191681526107b191600160401b900460ff1690600401615dfa565b60206040518083038186803b1580156107c957600080fd5b505af41580156107dd573d6000803e3d6000fd5b505050506040513d601f19601f820116820180604052508101906108019190614c9f565b866040518563ffffffff1660e01b81526004016108219493929190615dc9565b60206040518083038186803b15801561083957600080fd5b505af415801561084d573d6000803e3d6000fd5b505050506040513d601f19601f820116820180604052508101906108719190614c9f565b1461088e5760405162461bcd60e51b815260040161047990615464565b73__$c7dbd794b8c7b5c2028db781007df1176e$__63d7304dd98760140184815481106108b757fe5b60009182526020909120600590910201546014890180546001600160401b0390921691869081106108e457fe5b906000526020600020906005020160000160089054906101000a900460ff1689601301868154811061091257fe5b9060005260206000200154856040518563ffffffff1660e01b815260040161093d9493929190615dc9565b60206040518083038186803b15801561095557600080fd5b505af4158015610969573d6000803e3d6000fd5b505050506040513d601f19601f8201168201806040525081019061098d9190614c9f565b6009870155506001016106b2565b50600a84018c905560108401805460ff1916600617905589516109c790600b86019060208d0190614816565b50600e840154600c85018054600192600f88019260009290916001600160401b03169081106109f257fe5b60009182526020808320909101546001600160a01b03168352820192909252604090810190912080549215156101000261ff001990931692909217909155426006860155517f1e9358f673ff367487ce56f136412ae5b69bf2c06e223aad2756d748c2a9b52a90610a66908f908f90615cd5565b60405180910390a150505050505050505050505050565b6000818060005411610ac4576040805162461bcd60e51b81526020600482015260166024820152600080516020615e8f833981519152604482015290519081900360640190fd5b610acd81611993565b610b0f576040805162461bcd60e51b815260206004820152600e60248201526d496e64657820696e61637469766560901b604482015290519081900360640190fd5b60008381526002602052604090205491505b50919050565b808060005411610b6c576040805162461bcd60e51b81526020600482015260166024820152600080516020615e8f833981519152604482015290519081900360640190fd5b610b7581611993565b610bb7576040805162461bcd60e51b815260206004820152600e60248201526d496e64657820696e61637469766560901b604482015290519081900360640190fd5b600082815260066020526040812090610bcf846143e5565b8260060154014211905080610bf65760405162461bcd60e51b815260040161047990615732565b6000601083015460ff16600a811115610c0b57fe5b1415610c6e576010820180546001919060ff191682805b02179055507e8b9973029c7e97351818d3e7d05886281e66f26d8382e01b35dfbb95604ba384610c5186610d1c565b604051610c5f929190615cd5565b60405180910390a15050610d18565b6003601083015460ff16600a811115610c8357fe5b1415610c9e576010820180546001919060ff19168280610c22565b6004601083015460ff16600a811115610cb357fe5b1415610ccf576010820180546005919060ff1916600183610c22565b6006601083015460ff16600a811115610ce457fe5b1415610d0057601082018054600a919060ff1916600183610c22565b60405162461bcd60e51b81526004016104799061588a565b5050565b6000818060005411610d63576040805162461bcd60e51b81526020600482015260166024820152600080516020615e8f833981519152604482015290519081900360640190fd5b60008381526006602052604081206010015460ff169081600a811115610d8557fe5b1415610da7576f57616974696e6750726f76696465727360801b925050610b21565b600381600a811115610db557fe5b1415610dd5576d57616974696e6752657665616c7360901b925050610b21565b600281600a811115610de357fe5b1415610e0b577557616974696e674368616c6c656e676544726976657360501b925050610b21565b600581600a811115610e1957fe5b1415610e405774436c61696d65724d6973736564446561646c696e6560581b925050610b21565b600181600a811115610e4e57fe5b1415610e76577550726f76696465724d6973736564446561646c696e6560501b925050610b21565b600481600a811115610e8457fe5b1415610ea2576b57616974696e67436c61696d60a01b925050610b21565b600681600a811115610eb057fe5b1415610edf577f57616974696e67436f6e6669726d6174696f6e446561646c696e650000000000925050610b21565b600781600a811115610eed57fe5b1415610f15577515d85a5d1a5b99d0da185b1b195b99d954995cdd5b1d60521b925050610b21565b600a81600a811115610f2357fe5b1415610f44576e10dbdb9cd95b9cdd5cd4995cdd5b1d608a1b925050610b21565b600881600a811115610f5257fe5b1415610f71576c21b430b63632b733b2b92bb7b760991b925050610b21565b600981600a811115610f7f57fe5b1415610f9b576921b630b4b6b2b92bb7b760b11b925050610b21565b60405162461bcd60e51b8152600401610479906158c1565b6060806060806060610fc36148a2565b878060005411611008576040805162461bcd60e51b81526020600482015260166024820152600080516020615e8f833981519152604482015290519081900360640190fd5b60008981526006602090815260408083206001600160a01b038c168452600f8101835292819020815160808082018452915460ff808216151583526101008204811615158387015262010000820416151582850152630100000090046001600160401b03166060808301919091528351600480825260a082019095529197509390929190830190803683370190505090508160030154816000815181106110ab57fe5b6020026020010181815250506110c08b6143e5565b826006015401816001815181106110d357fe5b6020908102919091010152600482015481516001600160401b0390911690829060029081106110fe57fe5b6020026020010181815250508160040160089054906101000a900460ff1660ff168160038151811061112c57fe5b6020908102919091010152604080516002808252606082810190935281602001602082028036833701905050600e840154909150600160401b90046001600160401b0316156111dd57600e830154600c840180549091600160401b90046001600160401b031690811061119b57fe5b600091825260208220015482516001600160a01b039091169183916111bc57fe5b60200260200101906001600160a01b031690816001600160a01b0316815250505b600e830154600c8401805490916001600160401b03169081106111fc57fe5b9060005260206000200160009054906101000a90046001600160a01b03168160018151811061122757fe5b6001600160a01b039290921660209283029190910182015260408051600480825260a08201909252606092909190820160808036833701905050905083600801548160008151811061127557fe5b60200260200101818152505083600901548160018151811061129357fe5b60200260200101818152505083600a0154816002815181106112b157fe5b6020026020010181815250506112c68d610d1c565b816003815181106112d357fe5b60209081029190910101526000601085015460ff16600a8111156112f357fe5b14156115cc57604080516001808252818301909252606091816020015b6113186148c9565b815260200190600190039081611310579050509050846014018560120186600201548154811061134457fe5b90600052602060002001548154811061135957fe5b600091825260209182902060408051610100808201835260059490940290920180546001600160401b0381168452600160401b900460ff1683860152600180820180548451600293821615909702600019011691909104601f810187900487028601870184528086529395919492860193909183018282801561141d5780601f106113f25761010080835404028352916020019161141d565b820191906000526020600020905b81548152906001019060200180831161140057829003601f168201915b5050509183525050600282810180546040805160206001841615610100026000190190931694909404601f810183900483028501830190915280845293810193908301828280156114af5780601f10611484576101008083540402835291602001916114af565b820191906000526020600020905b81548152906001019060200180831161149257829003601f168201915b5050509183525050600382015460208201526004909101546001600160a01b038116604083015260ff600160a01b8204811615156060840152600160a81b9091041615156080909101528151829060009061150657fe5b602002602001018190525083838387600b01848b828054600181600116156101000203166002900480601f0160208091040260200160405190810160405280929190818152602001828054600181600116156101000203166002900480156115af5780601f10611584576101008083540402835291602001916115af565b820191906000526020600020905b81548152906001019060200180831161159257829003601f168201915b505050505092509b509b509b509b509b509b505050505050611988565b6003601085015460ff16600a8111156115e157fe5b141561163257604080516001808252818301909252606091816020015b6116066148c9565b8152602001906001900390816115fe579050509050846014018560110186600101548154811061134457fe5b6001601085015460ff16600a81111561164757fe5b14156116f65760408051600080825260208201909252606091611680565b61166d6148c9565b8152602001906001900390816116655790505b50905083838387600b01848b828054600181600116156101000203166002900480601f0160208091040260200160405190810160405280929190818152602001828054600181600116156101000203166002900480156115af5780601f10611584576101008083540402835291602001916115af565b600b84018054604080516020601f60026000196101006001881615020190951694909404938401819004810282018101909252828152869386938693919260148b01928d92859183018282801561178e5780601f106117635761010080835404028352916020019161178e565b820191906000526020600020905b81548152906001019060200180831161177157829003601f168201915b5050505050925081805480602002602001604051908101604052809291908181526020016000905b828210156119715760008481526020908190206040805161010080820183526005870290930180546001600160401b0381168352600160401b900460ff1682860152600180820180548551600293821615909702600019011691909104601f8101879004870286018701855280865292959194938601939290918301828280156118815780601f1061185657610100808354040283529160200191611881565b820191906000526020600020905b81548152906001019060200180831161186457829003601f168201915b5050509183525050600282810180546040805160206001841615610100026000190190931694909404601f810183900483028501830190915280845293810193908301828280156119135780601f106118e857610100808354040283529160200191611913565b820191906000526020600020905b8154815290600101906020018083116118f657829003601f168201915b505050918352505060038201546020808301919091526004909201546001600160a01b038116604083015260ff600160a01b8204811615156060840152600160a81b90910416151560809091015290825260019290920191016117b6565b5050505091509a509a509a509a509a509a50505050505b509295509295509295565b60008181526001602052604090205460ff165b919050565b600080600060608480600054116119f7576040805162461bcd60e51b81526020600482015260166024820152600080516020615e8f833981519152604482015290519081900360640190fd5b6000868152600660205260409020600a601082015460ff16600a811115611a1a57fe5b1415611ad357600160008083600b01808054600181600116156101000203166002900480601f016020809104026020016040519081016040528092919081815260200182805460018160011615610100020316600290048015611abe5780601f10611a9357610100808354040283529160200191611abe565b820191906000526020600020905b815481529060010190602001808311611aa157829003601f168201915b50505050509050955095509550955050611d99565b6000601082015460ff16600a811115611ae857fe5b1480611b0657506002601082015460ff16600a811115611b0457fe5b145b80611b2357506004601082015460ff16600a811115611b2157fe5b145b80611b4057506006601082015460ff16600a811115611b3e57fe5b145b80611b5d57506007601082015460ff16600a811115611b5b57fe5b145b80611b7a57506003601082015460ff16600a811115611b7857fe5b145b15611ba35760006001600060405180602001604052806000815250955095509550955050611d99565b6001601082015460ff16600a811115611bb857fe5b1415611cbb57600087815260066020526040812060128101546002909101541015611c2d578160140182601201836002015481548110611bf457fe5b906000526020600020015481548110611c0957fe5b60009182526020909120600460059092020101546001600160a01b03169050611c98565b600088815260066020526040902060118101546001909101541015611c98578160140182601101836001015481548110611c6357fe5b906000526020600020015481548110611c7857fe5b60009182526020909120600460059092020101546001600160a01b031690505b600080826040518060200160405280600081525096509650965096505050611d99565b6005601082015460ff16600a811115611cd057fe5b1480611cee57506008601082015460ff16600a811115611cec57fe5b145b15611d4c57600e810154600c820180546000928392916001600160401b03909116908110611d1857fe5b60009182526020808320909101546040805192830190529181529298509096506001600160a01b031694509250611d999050565b6009601082015460ff16600a811115611d6157fe5b1415610f9b5760008082600c0183600e0160089054906101000a90046001600160401b03166001600160401b031681548110611d1857fe5b509193509193565b6000806000848060005411611deb576040805162461bcd60e51b81526020600482015260166024820152600080516020615e8f833981519152604482015290519081900360640190fd5b5050506000928352506006602090815260408084206001600160a01b039093168452600f909201905290205460ff80821692610100830482169262010000900490911690565b808060005411611e76576040805162461bcd60e51b81526020600482015260166024820152600080516020615e8f833981519152604482015290519081900360640190fd5b611e7f81611993565b611ec1576040805162461bcd60e51b815260206004820152600e60248201526d496e64657820696e61637469766560901b604482015290519081900360640190fd5b6000828152600660209081526040808320338452600f81019092529091205483919060ff16611f025760405162461bcd60e51b815260040161047990615c76565b6000848152600660209081526040808320338452600f810190925290912054859190610100900460ff1615611f495760405162461bcd60e51b81526004016104799061599c565b6000868152600260209081526040808320805460010190556006918290529091208791601082015460ff16600a811115611f7f57fe5b14611f9c5760405162461bcd60e51b815260040161047990615389565b600554600e820154600c830180546001600160a01b03909316926320b73870923392916001600160401b03909116908110611fd357fe5b6000918252602090912001546005850154600380546009880154600a890154928901546040516001600160e01b031960e08a901b16815261202997966001600160a01b03908116969594169391906004016151f0565b602060405180830381600087803b15801561204357600080fd5b505af1158015612057573d6000803e3d6000fd5b505050506040513d601f19601f8201168201806040525081019061207b9190614c9f565b60078083019190915560108201805460ff19166001830217905550336000908152600f8201602052604090819020805461ff0019166101001790819055600e83018054600160801b600160401b6001600160401b03630100000090950485160267ffffffffffffffff60401b199092169190911781810484166001019093160267ffffffffffffffff60801b19909216919091179055426006830155517fa895da4b794aeba8d8082db237265459db7b7ffdb5aa7c2332a7c5eafbfae73590612145908a9061536f565b60405180910390a15050505050505050565b80806000541161219c576040805162461bcd60e51b81526020600482015260166024820152600080516020615e8f833981519152604482015290519081900360640190fd5b6121a581611993565b6121e7576040805162461bcd60e51b815260206004820152600e60248201526d496e64657820696e61637469766560901b604482015290519081900360640190fd5b6000828152600660209081526040808320338452600f81019092529091205483919060ff166122285760405162461bcd60e51b815260040161047990615c76565b6000848152600660209081526040808320338452600f810190925290912054859190610100900460ff161561226f5760405162461bcd60e51b81526004016104799061599c565b6000868152600260209081526040808320805460010190556006918290529091208791601082015460ff16600a8111156122a557fe5b146122c25760405162461bcd60e51b815260040161047990615389565b600d81018054600181810183556000928352602080842090920180546001600160a01b03191633908117909155808452600f8501909252604092839020805461ff001916610100179055600e840180546001600160401b03600160801b80830482169094011690920267ffffffffffffffff60801b1990921691909117905590517f6f220d98c15dbd07fdc24781b682ea34f92411fc61b83c761dd927afbe02d3fd91612371918b9190615cbe565b60405180910390a1600c810154600e820154600160801b90046001600160401b031614156123e05760108101805460ff1916600a1790557e8b9973029c7e97351818d3e7d05886281e66f26d8382e01b35dfbb95604ba3886123d281610d1c565b604051612145929190615cd5565b5050505050505050565b80806000541161242f576040805162461bcd60e51b81526020600482015260166024820152600080516020615e8f833981519152604482015290519081900360640190fd5b61243881611993565b61247a576040805162461bcd60e51b815260206004820152600e60248201526d496e64657820696e61637469766560901b604482015290519081900360640190fd5b60008281526002602081815260408084208054600101905560069091529091208391601082015460ff16600a8111156124af57fe5b146124cc5760405162461bcd60e51b8152600401610479906157ce565b336000908152600f8201602052604090205460ff166124fd5760405162461bcd60e51b815260040161047990615b8f565b60108101805460ff1916600317905542600690910155505050565b606080838060005411612560576040805162461bcd60e51b81526020600482015260166024820152600080516020615e8f833981519152604482015290519081900360640190fd5b606080600760008881526006602052604090206010015460ff16600a81111561258557fe5b141561262b5760408051600180825281830190925290602080830190803683375050604080516001808252818301909252929450905060208083019080368337505060055484519293506001600160a01b0316918491506000906125e557fe5b6001600160a01b0390921660209283029190910182015260008881526006909152604081206007015482519091839161261a57fe5b602002602001018181525050612645565b505060408051600080825260208201908152818301909252905b90969095509350505050565b818060005411612696576040805162461bcd60e51b81526020600482015260166024820152600080516020615e8f833981519152604482015290519081900360640190fd5b61269f81611993565b6126e1576040805162461bcd60e51b815260206004820152600e60248201526d496e64657820696e61637469766560901b604482015290519081900360640190fd5b60008381526006602052604081208491601082015460ff16600a81111561270457fe5b146127215760405162461bcd60e51b8152600401610479906158ed565b60128101546002820154106127485760405162461bcd60e51b81526004016104799061592e565b60008160120182600201548154811061275d57fe5b90600052602060002001549050816014018054905081106127905760405162461bcd60e51b815260040161047990615814565b6127986148c9565b8260140182815481106127a757fe5b600091825260209182902060408051610100808201835260059490940290920180546001600160401b0381168452600160401b900460ff1683860152600180820180548451600293821615909702600019011691909104601f810187900487028601870184528086529395919492860193909183018282801561286b5780601f106128405761010080835404028352916020019161286b565b820191906000526020600020905b81548152906001019060200180831161284e57829003601f168201915b5050509183525050600282810180546040805160206001841615610100026000190190931694909404601f810183900483028501830190915280845293810193908301828280156128fd5780601f106128d2576101008083540402835291602001916128fd565b820191906000526020600020905b8154815290600101906020018083116128e057829003601f168201915b5050509183525050600382015460208201526004909101546001600160a01b038116604083015260ff600160a01b8204811615156060840152600160a81b9091041615156080909101526013840180549192506000918490811061295d57fe5b9060005260206000200154146129855760405162461bcd60e51b815260040161047990615b01565b8060c001516129a65760405162461bcd60e51b815260040161047990615bd6565b60a08101516001600160a01b031633146129d25760405162461bcd60e51b815260040161047990615965565b6000878152600660205260408120600281015460128201805492939290919081106129f957fe5b906000526020600020015490506000826014018281548110612a1757fe5b906000526020600020906005020190508060040160159054906101000a900460ff16612a555760405162461bcd60e51b815260040161047990615664565b600381018990556013830180548a919084908110612a6f57fe5b6000918252602090912001556002830180546001019081905542600685015560128401541415612ac757601183015415612ab75760108301805460ff19166002179055612ac7565b60108301805460ff191660041790555b7fc33d5cc33df375fac3c4fb6395fac74e37c0183c522e645801a298a6ba8e04a38a846014018481548110612af857fe5b9060005260206000209060050201604051612b14929190615ce3565b60405180910390a150505050505050505050565b60006032841015612b4b5760405162461bcd60e51b815260040161047990615a1b565b600080548152600660205260408120905b8451816001600160401b03161015612cf55781600f01600086836001600160401b031681518110612b8957fe5b6020908102919091018101516001600160a01b031682528101919091526040016000205460ff1615612bcd5760405162461bcd60e51b815260040161047990615615565b600182600f01600087846001600160401b031681518110612bea57fe5b60200260200101516001600160a01b03166001600160a01b0316815260200190815260200160002060000160006101000a81548160ff0219169083151502179055508082600f01600087846001600160401b031681518110612c4857fe5b60200260200101516001600160a01b03166001600160a01b0316815260200190815260200160002060000160036101000a8154816001600160401b0302191690836001600160401b0316021790555081600c0185826001600160401b031681518110612cb057fe5b60209081029190910181015182546001808201855560009485529290932090920180546001600160a01b0319166001600160a01b039093169290921790915501612b5c565b508251600090806001600160401b0381118015612d1157600080fd5b50604051908082528060200260200182016040528015612d3b578160200160208202803683370190505b508051612d5291601386019160209091019061490f565b5060005b818110156131c957612d666148c9565b868281518110612d7257fe5b602002602001015190508060e00151612f52576003816020015160ff161015612dad5760405162461bcd60e51b815260040161047990615aba565b8060c00151612f2f57806020015160ff1660020a8160400151511115612de55760405162461bcd60e51b81526004016104799061577e565b60408101516020820151815160ff90911660020a1115612e765760408201518051602084015160ff1660020a036001600160401b0381118015612e2757600080fd5b506040519080825280601f01601f191660200182016040528015612e52576020820181803683370190505b50604051602001612e649291906151c1565b60405160208183030381529060405290505b6060612e81826146ff565b6040516310561d5760e31b815290915073__$c7dbd794b8c7b5c2028db781007df1176e$__906382b0eab890612ebb908490600401615262565b60206040518083038186803b158015612ed357600080fd5b505af4158015612ee7573d6000803e3d6000fd5b505050506040513d601f19601f82011682018060405250810190612f0b9190614c9f565b876013018581548110612f1a57fe5b90600052602060002001819055505050612f4d565b60128501805460018181018355600092835260209092200183905593505b613063565b8060c00151613045578060800151856013018381548110612f6f57fe5b6000918252602091829020019190915560048054608084015192840151604051632b6baa3760e21b81526001600160a01b039092169363adaea8dc93612fb89391929101615378565b60206040518083038186803b158015612fd057600080fd5b505afa158015612fe4573d6000803e3d6000fd5b505050506040513d601f19601f820116820180604052508101906130089190614c7c565b158015613021575060a08101516001600160a01b031615155b15612f4d576011850180546001810182556000918252602090912001829055613063565b60128501805460018181018355600092835260209092200183905593505b604080516101008101825282516001600160401b03908116825260208085015160ff90811682850190815286860151958501958652606080880151908601526080808801519086015260a0808801516001600160a01b03169086015260c08088015115159086015260e08088015115159086015260148b0180546001808201835560009283529185902087516005909202018054935167ffffffffffffffff19909416919096161760ff60401b1916600160401b9290931691909102919091178355935180519394929361313e938501929190910190614816565b506060820151805161315a916002840191602090910190614816565b506080820151600382015560a08201516004909101805460c084015160e0909401511515600160a81b0260ff60a81b19941515600160a01b0260ff60a01b196001600160a01b039095166001600160a01b03199093169290921793909316179290921617905550600101612d56565b5060038860ff1610156131ee5760405162461bcd60e51b81526004016104799061555b565b8254336001600160a01b0319909116178355600e83018054600160801b67ffffffffffffffff60801b19909116179055600383018b9055600883018a9055600983018a905560048301805467ffffffffffffffff19166001600160401b038b161760ff60401b1916600160401b60ff8b1602179055600583018790554260068401558115613292576010830180546000919060ff19166001835b02179055506132c2565b6011830154156132b2576010830180546002919060ff1916600183613288565b60108301805460ff191660041790555b7f636fd79aca92320cae2060e85a57eff6548c5fb3b972fb98bfd6432eef78c0e96000546040516132f3919061536f565b60405180910390a150506000805481526001602081905260408220805460ff19168217905581549081019091559150505b979650505050505050565b808060005411613374576040805162461bcd60e51b81526020600482015260166024820152600080516020615e8f833981519152604482015290519081900360640190fd5b61337d81611993565b6133bf576040805162461bcd60e51b815260206004820152600e60248201526d496e64657820696e61637469766560901b604482015290519081900360640190fd5b6000828152600660205260409020546001600160a01b0316338114613426576040805162461bcd60e51b815260206004820152601860248201527721b0b73737ba1031329031b0b63632b210313c903ab9b2b960411b604482015290519081900360640190fd5b60008381526006602052604090206001601082015460ff16600a81111561344957fe5b148061346757506005601082015460ff16600a81111561346557fe5b145b806134845750600a601082015460ff16600a81111561348257fe5b145b806134a157506008601082015460ff16600a81111561349f57fe5b145b806134be57506009601082015460ff16600a8111156134bc57fe5b145b6134da5760405162461bcd60e51b815260040161047990615841565b6134e8601182016000614949565b6134f6601282016000614949565b613504601382016000614949565b61351260148201600061496a565b61351b846147f3565b50505050565b808060005411613566576040805162461bcd60e51b81526020600482015260166024820152600080516020615e8f833981519152604482015290519081900360640190fd5b61356f81611993565b6135b1576040805162461bcd60e51b815260206004820152600e60248201526d496e64657820696e61637469766560901b604482015290519081900360640190fd5b6000828152600260209081526040808320805460010190556006909152902082906007601082015460ff16600a8111156135e757fe5b146136045760405162461bcd60e51b815260040161047990615a67565b426006820155600781015460055460405163b6b5c31960e01b81526001600160a01b039091169063b6b5c3199061363f90849060040161536f565b60206040518083038186803b15801561365757600080fd5b505afa15801561366b573d6000803e3d6000fd5b505050506040513d601f19601f8201168201806040525081019061368f9190614c7c565b1561387657600e820154600c83018054600192600f86019260009290916001600160401b03169081106136be57fe5b60009182526020808320909101546001600160a01b0316835282019290925260400181208054921515620100000262ff000019909316929092179091555b600d83015481101561376157600083600f01600085600d01848154811061371f57fe5b60009182526020808320909101546001600160a01b03168352820192909252604001902080549115156101000261ff00199092169190911790556001016136fc565b50600d82018054600e840180546001600160401b03600160801b8083048216949094031690920267ffffffffffffffff60801b199092169190911790556137a9906000614949565b600c820154600e830154600160801b90046001600160401b03161415613827576010820180546008919060ff19166001835b02179055507e8b9973029c7e97351818d3e7d05886281e66f26d8382e01b35dfbb95604ba38561380a87610d1c565b604051613818929190615cd5565b60405180910390a150506139ea565b6010820180546004919060ff1916600183021790555050600e018054600160401b81046001600160401b031667ffffffffffffffff199091161767ffffffffffffffff60401b191690556139ea565b600554604051633664f8bf60e11b81526001600160a01b0390911690636cc9f17e906138a690849060040161536f565b60206040518083038186803b1580156138be57600080fd5b505afa1580156138d2573d6000803e3d6000fd5b505050506040513d601f19601f820116820180604052508101906138f69190614c7c565b156139cf57600182600f01600084600c0185600e0160089054906101000a90046001600160401b03166001600160401b03168154811061393257fe5b60009182526020808320909101546001600160a01b0316835282019290925260400190208054911515620100000262ff000019909216919091179055600c820154600e8301546001600160401b03600160801b9091041614156139a5576010820180546009919060ff19166001836137db565b5060108101805460ff19166006179055600e01805467ffffffffffffffff60401b191690556139ea565b60405162461bcd60e51b815260040161047990615c0d565b50505b505050565b808060005411613a34576040805162461bcd60e51b81526020600482015260166024820152600080516020615e8f833981519152604482015290519081900360640190fd5b613a3d81611993565b613a7f576040805162461bcd60e51b815260206004820152600e60248201526d496e64657820696e61637469766560901b604482015290519081900360640190fd5b60008281526006602052604090206003601082015460ff16600a811115613aa257fe5b14613abf5760405162461bcd60e51b815260040161047990615c3f565b600081601101826001015481548110613ad457fe5b9060005260206000200154905081601401805490508110613b075760405162461bcd60e51b81526004016104799061552f565b613b0f6148c9565b826014018281548110613b1e57fe5b600091825260209182902060408051610100808201835260059490940290920180546001600160401b0381168452600160401b900460ff1683860152600180820180548451600293821615909702600019011691909104601f8101879004870286018701845280865293959194928601939091830182828015613be25780601f10613bb757610100808354040283529160200191613be2565b820191906000526020600020905b815481529060010190602001808311613bc557829003601f168201915b5050509183525050600282810180546040805160206001841615610100026000190190931694909404601f81018390048302850183019091528084529381019390830182828015613c745780601f10613c4957610100808354040283529160200191613c74565b820191906000526020600020905b815481529060010190602001808311613c5757829003601f168201915b5050509183525050600382015460208201526004909101546001600160a01b038116604083015260ff600160a01b8204811615156060840152600160a81b90910416151560809091015260e0810151909150613ce25760405162461bcd60e51b8152600401610479906159e4565b6004805460808301516020840151604051632b6baa3760e21b81526001600160a01b039093169363adaea8dc93613d1b93929101615378565b60206040518083038186803b158015613d3357600080fd5b505afa158015613d47573d6000803e3d6000fd5b505050506040513d601f19601f82011682018060405250810190613d6b9190614c7c565b613d875760405162461bcd60e51b8152600401610479906156ef565b6001808401805490910190819055426006850155601184015414156139e7575050601001805460ff191660041790555050565b818060005411613dff576040805162461bcd60e51b81526020600482015260166024820152600080516020615e8f833981519152604482015290519081900360640190fd5b613e0881611993565b613e4a576040805162461bcd60e51b815260206004820152600e60248201526d496e64657820696e61637469766560901b604482015290519081900360640190fd5b60008381526006602052604081208491601082015460ff16600a811115613e6d57fe5b14613e8a5760405162461bcd60e51b8152600401610479906158ed565b6012810154600282015410613eb15760405162461bcd60e51b81526004016104799061592e565b600081601201826002015481548110613ec657fe5b9060005260206000200154905081601401805490508110613ef95760405162461bcd60e51b815260040161047990615814565b613f016148c9565b826014018281548110613f1057fe5b600091825260209182902060408051610100808201835260059490940290920180546001600160401b0381168452600160401b900460ff1683860152600180820180548451600293821615909702600019011691909104601f8101879004870286018701845280865293959194928601939091830182828015613fd45780601f10613fa957610100808354040283529160200191613fd4565b820191906000526020600020905b815481529060010190602001808311613fb757829003601f168201915b5050509183525050600282810180546040805160206001841615610100026000190190931694909404601f810183900483028501830190915280845293810193908301828280156140665780601f1061403b57610100808354040283529160200191614066565b820191906000526020600020905b81548152906001019060200180831161404957829003601f168201915b5050509183525050600382015460208201526004909101546001600160a01b038116604083015260ff600160a01b8204811615156060840152600160a81b909104161515608090910152601384018054919250600091849081106140c657fe5b9060005260206000200154146140ee5760405162461bcd60e51b815260040161047990615b01565b8060c0015161410f5760405162461bcd60e51b815260040161047990615bd6565b60a08101516001600160a01b0316331461413b5760405162461bcd60e51b815260040161047990615965565b60008781526006602052604081206002810154601282018054929392909190811061416257fe5b90600052602060002001549050600082601401828154811061418057fe5b906000526020600020906005020190508060040160159054906101000a900460ff16156141bf5760405162461bcd60e51b81526004016104799061541d565b80548951600160401b90910460ff1660020a10156141ef5760405162461bcd60e51b81526004016104799061577e565b805489518a91600160401b900460ff1660020a111561428157895182548b91600160401b90910460ff1660020a036001600160401b038111801561423257600080fd5b506040519080825280601f01601f19166020018201604052801561425d576020820181803683370190505b5060405160200161426f9291906151c1565b60405160208183030381529060405290505b606061428c826146ff565b9050600073__$c7dbd794b8c7b5c2028db781007df1176e$__6382b0eab8836040518263ffffffff1660e01b81526004016142c79190615262565b60206040518083038186803b1580156142df57600080fd5b505af41580156142f3573d6000803e3d6000fd5b505050506040513d601f19601f820116820180604052508101906143179190614c9f565b8c5190915061432f90600186019060208f0190614816565b508086601301868154811061434057fe5b6000918252602090912001556002860180546001019081905542600688015560128701541415614398576011860154156143885760108601805460ff19166002179055614398565b60108601805460ff191660041790555b7fc33d5cc33df375fac3c4fb6395fac74e37c0183c522e645801a298a6ba8e04a38d8760140187815481106143c957fe5b9060005260206000209060050201604051610a66929190615ce3565b600060016101f460288360008681526006602052604090206010015460ff16600a81111561440f57fe5b14156144315750505060008281526006602052604090206005015490506119a6565b600360008681526006602052604090206010015460ff16600a81111561445357fe5b1415614479575050506000828152600660205260409020600501546109600190506119a6565b600260008681526006602052604090206010015460ff16600a81111561449b57fe5b14156144c857505050600082815260066020526040902060058101546011909101540260020290506119a6565b600460008681526006602052604090206010015460ff16600a8111156144ea57fe5b1415614521576000858152600660205260409020600581015460039091015464e8d4a510009084025b0482010193505050506119a6565b600660008681526006602052604090206010015460ff16600a81111561454357fe5b1415614570576000858152600660205260409020600581015460039091015464e8d4a51000908402614513565b600760008681526006602052604090206010015460ff16600a81111561459257fe5b1415614645576000858152600660205260409081902060058082015490546003909201549251631b8798d560e11b815290926001600160a01b039092169163370f31aa916145ea91859187918a918a90600401615da6565b60206040518083038186803b15801561460257600080fd5b505afa158015614616573d6000803e3d6000fd5b505050506040513d601f19601f8201168201806040525081019061463a9190614c9f565b0193505050506119a6565b600960008681526006602052604090206010015460ff16600a81111561466757fe5b14806146925750600860008681526006602052604090206010015460ff16600a81111561469057fe5b145b806146bc5750600560008681526006602052604090206010015460ff16600a8111156146ba57fe5b145b806146e65750600a60008681526006602052604090206010015460ff16600a8111156146e457fe5b145b156146f757600093505050506119a6565b505050919050565b60606000600883518161470e57fe5b0490506060816001600160401b038111801561472957600080fd5b50604051908082528060200260200182016040528015614753578160200160208202803683370190505b50905060005b828110156147eb576000805b60088110156147a3576000878285600802018151811061478157fe5b01602001516001600160f81b031916600883021c929092179150600101614765565b50806040516020016147b591906151ac565b604051602081830303815290604052805190602001208383815181106147d757fe5b602090810291909101015250600101614759565b509392505050565b6000908152600160209081526040808320805460ff191690556002909152812055565b828054600181600116156101000203166002900490600052602060002090601f01602090048101928261484c5760008555614892565b82601f1061486557805160ff1916838001178555614892565b82800160010185558215614892579182015b82811115614892578251825591602001919060010190614877565b5061489e92915061498b565b5090565b60408051608081018252600080825260208201819052918101829052606081019190915290565b60408051610100810182526000808252602082018190526060928201839052828201929092526080810182905260a0810182905260c0810182905260e081019190915290565b8280548282559060005260206000209081019282156148925791602002820182811115614892578251825591602001919060010190614877565b5080546000825590600052602060002090810190614967919061498b565b50565b508054600082556005029060005260206000209081019061496791906149a0565b5b8082111561489e576000815560010161498c565b8082111561489e57805468ffffffffffffffffff1916815560006149c760018301826149f7565b6149d56002830160006149f7565b50600060038201556004810180546001600160b01b03191690556005016149a0565b50805460018160011615610100020316600290046000825580601f10614a1d5750614967565b601f016020900490600052602060002090810190614967919061498b565b80356001600160a01b03811681146119a657600080fd5b600082601f830112614a62578081fd5b8135614a75614a7082615e2b565b615e08565b818152915060208083019084810181840286018201871015614a9657600080fd5b60005b84811015614ab557813584529282019290820190600101614a99565b505050505092915050565b600082601f830112614ad0578081fd5b8135614ade614a7082615e2b565b818152915060208083019084810160005b84811015614ab5578135870161010080601f19838c03011215614b1157600080fd5b614b1a81615e08565b614b25868401614c54565b81526040614b34818501614c6b565b878301526060808501356001600160401b0380821115614b5357600080fd5b614b618f8b848a0101614bee565b848601526080935083870135915080821115614b7c57600080fd5b50614b8b8e8a83890101614bee565b82850152505060a0808501358284015260c09150614baa828601614a3b565b9083015260e0614bbb858201614be3565b82840152614bca848601614be3565b9083015250865250509282019290820190600101614aef565b80356119a681615e80565b600082601f830112614bfe578081fd5b81356001600160401b03811115614c1157fe5b614c24601f8201601f1916602001615e08565b9150808252836020828501011115614c3b57600080fd5b8060208401602084013760009082016020015292915050565b80356001600160401b03811681146119a657600080fd5b803560ff811681146119a657600080fd5b600060208284031215614c8d578081fd5b8151614c9881615e80565b9392505050565b600060208284031215614cb0578081fd5b5051919050565b600060208284031215614cc8578081fd5b5035919050565b60008060408385031215614ce1578081fd5b82359150614cf160208401614a3b565b90509250929050565b60008060408385031215614d0c578182fd5b50508035926020909101359150565b600080600080600060a08688031215614d32578081fd5b85359450602080870135945060408701356001600160401b0380821115614d57578384fd5b818901915089601f830112614d6a578384fd5b8135614d78614a7082615e2b565b81815284810190848601875b84811015614dad57614d9b8f8984358a0101614a52565b84529287019290870190600101614d84565b509098505050506060890135925080831115614dc7578384fd5b614dd38a848b01614bee565b94506080890135925080831115614de8578384fd5b5050614df688828901614a52565b9150509295509295909350565b600080600080600080600060e0888a031215614e1d578485fd5b873596506020808901359650614e3560408a01614c54565b9550614e4360608a01614c6b565b94506080890135935060a08901356001600160401b0380821115614e65578485fd5b818b0191508b601f830112614e78578485fd5b8135614e86614a7082615e2b565b8082825285820191508585018f878886028801011115614ea4578889fd5b8895505b83861015614ecd57614eb981614a3b565b835260019590950194918601918601614ea8565b509650505060c08b0135925080831115614ee5578384fd5b5050614ef38a828b01614ac0565b91505092959891949750929550565b60008060408385031215614f14578182fd5b8235915060208301356001600160401b03811115614f30578182fd5b614f3c85828601614bee565b9150509250929050565b6001600160a01b03169052565b6000815180845260208085019450808401835b83811015614f8b5781516001600160a01b031687529582019590820190600101614f66565b509495945050505050565b6000815180845260208085019450808401835b83811015614f8b57815187529582019590820190600101614fa9565b6000815180845260208085018081965082840281019150828601855b858110156150a157828403895281516101006001600160401b03825116865286820151615010888801826151a5565b506040808301518282890152615028838901826150b4565b925050506060808301518783038289015261504383826150b4565b92505050608080830151818801525060a08083015161506482890182614f46565b505060c080830151615078828901826150ae565b505060e0918201519161508d878201846150ae565b509986019994505090840190600101614fe1565b5091979650505050505050565b15159052565b600081518084526150cc816020860160208601615e54565b601f01601f19169290920160200192915050565b600081546001808216600081146150fe576001811461511c5761515a565b60028304607f16865260ff198316602087015260408601935061515a565b6002830480875261512c86615e48565b60005b828110156151505781546020828b010152848201915060208101905061512f565b8801602001955050505b50505092915050565b8051151582526020810151151560208301526040810151151560408301526001600160401b0360608201511660608301525050565b6001600160401b03169052565b60ff169052565b6001600160c01b031991909116815260080190565b600083516151d3818460208801615e54565b8351908301906151e7818360208801615e54565b01949350505050565b6001600160a01b03978816815295871660208701526040860194909452919094166060840152608083019390935260a082019290925260c081019190915260e00190565b6000604082526152476040830185614f53565b82810360208401526152598185614f96565b95945050505050565b600060208252614c986020830184614f96565b60006101208083526152898184018a614f96565b905060208382038185015261529e828a614f53565b84810360408601528851808252828a01935090820190845b818110156152d2578451835293830193918301916001016152b6565b505084810360608601526152e681896150b4565b9250505082810360808401526152fc8186614fc5565b91505061332460a0830184615163565b901515815260200190565b841515815283151560208201526001600160a01b038316604082015260806060820181905260009061534b908301846150b4565b9695505050505050565b921515835290151560208301521515604082015260600190565b90815260200190565b91825260ff16602082015260400190565b6020808252602b908201527f53746174652073686f756c642062652057616974696e67436f6e6669726d617460408201526a696f6e446561646c696e6560a81b606082015260800190565b60208082526029908201527f4f7574707574206973206e6f7420636f6e7461696e656420696e2074686520666040820152680d2dcc2d840d0c2e6d60bb1b606082015260800190565b60208082526027908201527f496e76616c696420647269766520746f20636c61696d20666f72206469726563604082015266742076616c756560c81b606082015260800190565b6020808252604c908201527f4472697665207369626c696e6773206d75737420626520636f6d70617469626c60408201527f6520776974682070726576696f757320696e697469616c206861736820666f7260608201526b20656d70747920647269766560a01b608082015260a00190565b60208082526039908201527f436c61696d6564206472697665206e756d6265722073686f756c64206d617463604082015278341031b630b4b6b2b21039b4b13634b733b990373ab6b132b960391b606082015260800190565b602080825260129082015271092dcecc2d8d2c840c8e4d2ecca92dcc8caf60731b604082015260600190565b60208082526028908201527f6f75747075742064726976652068617320746f206265206174206c65617374206040820152671bdb99481ddbdc9960c21b606082015260800190565b6020808252604c908201527f53746174652073686f756c642062652057616974696e67436c61696d2c206f7260408201527f2057616974696e674368616c6c656e676544726976657320776974682064656160608201526b191b1a5b99481c185cdcd95960a21b608082015260a00190565b6020808252602f908201527f52657065746974696f6e206f662070617274696573272061646472657373657360408201526e081a5cc81b9bdd08185b1b1bddd959608a1b606082015260800190565b60208082526021908201527f496e76616c696420647269766520746f20636c61696d20666f72206c6f6767656040820152603960f91b606082015260800190565b6020808252602a908201527f5468652073656e646572206973206e6f7420436c61696d6572206174207468696040820152697320696e7374616e636560b01b606082015260800190565b60208082526023908201527f48617368206973206e6f7420617661696c61626c65206f6e206c6f67676572206040820152621e595d60ea1b606082015260800190565b6020808252602c908201527f446561646c696e65206973206e6f74206f76657220666f72207468697320737060408201526b65636966696320737461746560a01b606082015260800190565b60208082526030908201527f496e707574206279746573206c656e677468206578636565647320746865206360408201526f6c61696d6564206c6f67322073697a6560801b606082015260800190565b60208082526026908201527f53746174652073686f756c642062652057616974696e674368616c6c656e676560408201526544726976657360d01b606082015260800190565b602080825260139082015272092dcecc2d8d2c840c8e4d2ecca40d2dcc8caf606b1b604082015260600190565b60208082526029908201527f43616e6e6f7420646573747275637420696e7374616e63652061742063757272604082015268656e7420737461746560b81b606082015260800190565b6020808252601a908201527f43616e6e6f742061626f72742063757272656e74207374617465000000000000604082015260600190565b602080825260129082015271556e7265636f676e697a656420737461746560701b604082015260600190565b60208082526021908201527f546865207374617465206973206e6f742057616974696e6750726f76696465726040820152607360f81b606082015260800190565b6020808252601b908201527f4e6f20617661696c61626c652070656e64696e67206472697665730000000000604082015260600190565b6020808252601a908201527f5468652073656e646572206973206e6f742070726f7669646572000000000000604082015260600190565b60208082526028908201527f53656e6465722068617320616c7265616479206368616c6c656e676564206f726040820152670818db185a5b595960c21b606082015260800190565b6020808252601a908201527f6e656564734c6f676765722073686f756c642062652074727565000000000000604082015260600190565b6020808252602c908201527f726f756e64206475726174696f6e2068617320746f206265206174206c65617360408201526b74203530207365636f6e647360a01b606082015260800190565b60208082526033908201527f5374617465206973206e6f742057616974696e674368616c6c656e6765526573604082015272756c742c2063616e6e6f742077696e4279564760681b606082015260800190565b60208082526027908201527f64697265637456616c75652068617320746f206265206174206c65617374206f6040820152661b99481ddbdc9960ca1b606082015260800190565b60208082526022908201527f54686520647269766520686173682073686f756c646e27742062652066696c6c604082015261195960f21b606082015260800190565b6020808252602c908201527f4f7574707574206c656e67746820646f65736e2774206d61746368206f75747060408201526b7574206c6f67322073697a6560a01b606082015260800190565b60208082526027908201527f4f6e6c7920636f6e6365726e65642075736572732063616e206368616c6c656e6040820152666744726976657360c81b606082015260800190565b6020808252601b908201527f7761697450726f76696465722073686f756c6420626520747275650000000000604082015260600190565b60208082526018908201527714dd185d19481bd9881591c81a5cc81b9bdd08199a5b985b60421b604082015260600190565b6020808252601f908201527f546865207374617465206973206e6f742057616974696e6752657665616c7300604082015260600190565b60208082526028908201527f5468652073656e646572206973206e6f7420706172747920746f207468697320604082015267696e7374616e636560c01b606082015260800190565b9182526001600160a01b0316602082015260400190565b918252602082015260400190565b6000838252604060208301528254615d07604084016001600160401b038316615198565b615d1a6060840160ff8360401c166151a5565b50610100806080840152615d356101408401600186016150e0565b838103603f190160a0850152615d4e81600287016150e0565b600386015460c08601526004860154909150615d7660e086016001600160a01b038316614f46565b615d8883860160ff8360a01c166150ae565b615d9c610120860160ff8360a81c166150ae565b5095945050505050565b948552602085019390935260408401919091526060830152608082015260a00190565b60006001600160401b038616825260ff851660208301528360408301526080606083015261534b6080830184614f96565b60ff91909116815260200190565b6040518181016001600160401b0381118282101715615e2357fe5b604052919050565b60006001600160401b03821115615e3e57fe5b5060209081020190565b60009081526020902090565b60005b83811015615e6f578181015183820152602001615e57565b8381111561351b5750506000910152565b801515811461496757600080fdfe496e646578206e6f7420696e7374616e74696174656400000000000000000000a2646970667358221220ebc980c8fb095b6ca05bef2e9787b76fe8f5945ac827b1e2aabe0ce7ed2e8a4564736f6c63430007040033",
  "libraries": {
    "Merkle": "0xD47860593fe40b3D0E04460e54bFE0b84E1E6922"
  },
  "devdoc": {
    "kind": "dev",
    "methods": {
      "abortByDeadline(uint256)": {
        "params": {
          "_index": "index of Cartesi Compute instance to abort"
        }
      },
      "challenge(uint256)": {
        "params": {
          "_index": "index of Cartesi Compute instance which challenger is starting the VG."
        }
      },
      "challengeDrives(uint256)": {
        "params": {
          "_index": "index of Cartesi Compute instance which is requested for the drives"
        }
      },
      "confirm(uint256)": {
        "params": {
          "_index": "index of Cartesi Compute instance which claimer being confirmed"
        }
      },
      "destruct(uint256)": {
        "params": {
          "_index": "index of Cartesi Compute instance to deactivate"
        }
      },
      "getResult(uint256)": {
        "params": {
          "_index": "index of Cartesi Compute instance to get result"
        },
        "returns": {
          "_0": "bool, indicates the result is ready",
          "_1": "bool, indicates the sdk is still running",
          "_2": "address, the user to blame for the abnormal stop of the sdk",
          "_3": "bytes, the result of the sdk if available"
        }
      },
      "instantiate(uint256,bytes32,uint64,uint8,uint256,address[],(uint64,uint8,bytes,bytes,bytes32,address,bool,bool)[])": {
        "params": {
          "_finalTime": "max cycle of the machine for that computation",
          "_inputDrives": "an array of drive which assemble the machine",
          "_outputPosition": "position of the output drive",
          "_roundDuration": "duration of the round (security param)",
          "_templateHash": "hash of the machine with all drives empty"
        },
        "returns": {
          "_0": "uint256, Cartesi Compute index"
        }
      },
      "provideDirectDrive(uint256,bytes)": {
        "params": {
          "_index": "index of Cartesi Compute instance the drive belongs to.",
          "_value": "bytes value of the direct drive"
        }
      },
      "provideLoggerDrive(uint256,bytes32)": {
        "params": {
          "_index": "index of Cartesi Compute instance the drive belongs to",
          "_root": "root hash of the logger drive"
        }
      },
      "revealLoggerDrive(uint256)": {
        "params": {
          "_index": "index of Cartesi Compute instance the drive belongs to"
        }
      },
      "submitClaim(uint256,bytes32,bytes32[][],bytes,bytes32[])": {
        "details": "Example: consider 3 drives, the first drive's siblings should be a pristine machine.      The second drive's siblings should be the machine with drive 1 mounted.      The third drive's siblings should be the machine with drive 2 mounted.",
        "params": {
          "_claimedFinalHash": "is the final hash of the machine",
          "_drivesSiblings": "is an array of siblings of each drive (see below example)",
          "_output": "is the bytes32 value of the output position",
          "_outputSiblings": "is the siblings of the output drive"
        }
      },
      "winByVG(uint256)": {
        "params": {
          "_index": "index of Cartesi Compute instance to win"
        }
      }
    },
    "version": 1
  },
  "userdoc": {
    "kind": "user",
    "methods": {
      "abortByDeadline(uint256)": {
        "notice": "Abort the instance by missing deadline."
      },
      "challenge(uint256)": {
        "notice": "Challenger disputes the claim, starting a verification game."
      },
      "challengeDrives(uint256)": {
        "notice": "User requesting content of all drives to be revealed."
      },
      "confirm(uint256)": {
        "notice": "Party confirms the claim"
      },
      "destruct(uint256)": {
        "notice": "Deactivate a Cartesi Compute SDK instance."
      },
      "getResult(uint256)": {
        "notice": "Get result of a finished instance."
      },
      "getState(uint256,address)": {
        "notice": "Get state of the instance concerning given user."
      },
      "getSubInstances(uint256,address)": {
        "notice": "Get sub-instances of the instance."
      },
      "instantiate(uint256,bytes32,uint64,uint8,uint256,address[],(uint64,uint8,bytes,bytes,bytes32,address,bool,bool)[])": {
        "notice": "Instantiate a Cartesi Compute SDK instance."
      },
      "isConcerned(uint256,address)": {
        "notice": "Is the given user concern about this instance."
      },
      "provideDirectDrive(uint256,bytes)": {
        "notice": "Provide the content of a direct drive (only drive provider can call it)."
      },
      "provideLoggerDrive(uint256,bytes32)": {
        "notice": "Provide the root hash of a logger drive (only drive provider can call it)."
      },
      "revealLoggerDrive(uint256)": {
        "notice": "Reveal the content of a logger drive (only drive provider can call it)."
      },
      "submitClaim(uint256,bytes32,bytes32[][],bytes,bytes32[])": {
        "notice": "Claimer claims the machine final hash and also validate the drives and initial hash of the machine."
      },
      "winByVG(uint256)": {
        "notice": "In case one of the parties wins the verification game,         then he or she can call this function to claim victory in         this contract as well."
      }
    },
    "version": 1
  },
  "storageLayout": {
    "storage": [
      {
        "astId": 468,
        "contract": "cache/solpp-generated-contracts/CartesiCompute.sol:CartesiCompute",
        "label": "currentIndex",
        "offset": 0,
        "slot": "0",
        "type": "t_uint256"
      },
      {
        "astId": 472,
        "contract": "cache/solpp-generated-contracts/CartesiCompute.sol:CartesiCompute",
        "label": "active",
        "offset": 0,
        "slot": "1",
        "type": "t_mapping(t_uint256,t_bool)"
      },
      {
        "astId": 476,
        "contract": "cache/solpp-generated-contracts/CartesiCompute.sol:CartesiCompute",
        "label": "nonce",
        "offset": 0,
        "slot": "2",
        "type": "t_mapping(t_uint256,t_uint256)"
      },
      {
        "astId": 963,
        "contract": "cache/solpp-generated-contracts/CartesiCompute.sol:CartesiCompute",
        "label": "machine",
        "offset": 0,
        "slot": "3",
        "type": "t_address"
      },
      {
        "astId": 965,
        "contract": "cache/solpp-generated-contracts/CartesiCompute.sol:CartesiCompute",
        "label": "li",
        "offset": 0,
        "slot": "4",
        "type": "t_contract(LoggerInterface)378"
      },
      {
        "astId": 967,
        "contract": "cache/solpp-generated-contracts/CartesiCompute.sol:CartesiCompute",
        "label": "vg",
        "offset": 0,
        "slot": "5",
        "type": "t_contract(VGInterface)356"
      },
      {
        "astId": 1028,
        "contract": "cache/solpp-generated-contracts/CartesiCompute.sol:CartesiCompute",
        "label": "instance",
        "offset": 0,
        "slot": "6",
        "type": "t_mapping(t_uint256,t_struct(CartesiComputeCtx)1024_storage)"
      }
    ],
    "types": {
      "t_address": {
        "encoding": "inplace",
        "label": "address",
        "numberOfBytes": "20"
      },
      "t_array(t_address)dyn_storage": {
        "base": "t_address",
        "encoding": "dynamic_array",
        "label": "address[]",
        "numberOfBytes": "32"
      },
      "t_array(t_bytes32)dyn_storage": {
        "base": "t_bytes32",
        "encoding": "dynamic_array",
        "label": "bytes32[]",
        "numberOfBytes": "32"
      },
      "t_array(t_struct(Drive)4041_storage)dyn_storage": {
        "base": "t_struct(Drive)4041_storage",
        "encoding": "dynamic_array",
        "label": "struct CartesiComputeInterface.Drive[]",
        "numberOfBytes": "32"
      },
      "t_array(t_uint256)dyn_storage": {
        "base": "t_uint256",
        "encoding": "dynamic_array",
        "label": "uint256[]",
        "numberOfBytes": "32"
      },
      "t_bool": {
        "encoding": "inplace",
        "label": "bool",
        "numberOfBytes": "1"
      },
      "t_bytes32": {
        "encoding": "inplace",
        "label": "bytes32",
        "numberOfBytes": "32"
      },
      "t_bytes_storage": {
        "encoding": "bytes",
        "label": "bytes",
        "numberOfBytes": "32"
      },
      "t_contract(LoggerInterface)378": {
        "encoding": "inplace",
        "label": "contract LoggerInterface",
        "numberOfBytes": "20"
      },
      "t_contract(VGInterface)356": {
        "encoding": "inplace",
        "label": "contract VGInterface",
        "numberOfBytes": "20"
      },
      "t_enum(State)4024": {
        "encoding": "inplace",
        "label": "enum CartesiComputeInterface.State",
        "numberOfBytes": "1"
      },
      "t_mapping(t_address,t_struct(Party)4050_storage)": {
        "encoding": "mapping",
        "key": "t_address",
        "label": "mapping(address => struct CartesiComputeInterface.Party)",
        "numberOfBytes": "32",
        "value": "t_struct(Party)4050_storage"
      },
      "t_mapping(t_uint256,t_bool)": {
        "encoding": "mapping",
        "key": "t_uint256",
        "label": "mapping(uint256 => bool)",
        "numberOfBytes": "32",
        "value": "t_bool"
      },
      "t_mapping(t_uint256,t_struct(CartesiComputeCtx)1024_storage)": {
        "encoding": "mapping",
        "key": "t_uint256",
        "label": "mapping(uint256 => struct CartesiCompute.CartesiComputeCtx)",
        "numberOfBytes": "32",
        "value": "t_struct(CartesiComputeCtx)1024_storage"
      },
      "t_mapping(t_uint256,t_uint256)": {
        "encoding": "mapping",
        "key": "t_uint256",
        "label": "mapping(uint256 => uint256)",
        "numberOfBytes": "32",
        "value": "t_uint256"
      },
      "t_struct(CartesiComputeCtx)1024_storage": {
        "encoding": "inplace",
        "label": "struct CartesiCompute.CartesiComputeCtx",
        "members": [
          {
            "astId": 969,
            "contract": "cache/solpp-generated-contracts/CartesiCompute.sol:CartesiCompute",
            "label": "owner",
            "offset": 0,
            "slot": "0",
            "type": "t_address"
          },
          {
            "astId": 971,
            "contract": "cache/solpp-generated-contracts/CartesiCompute.sol:CartesiCompute",
            "label": "revealDrivesPointer",
            "offset": 0,
            "slot": "1",
            "type": "t_uint256"
          },
          {
            "astId": 973,
            "contract": "cache/solpp-generated-contracts/CartesiCompute.sol:CartesiCompute",
            "label": "providerDrivesPointer",
            "offset": 0,
            "slot": "2",
            "type": "t_uint256"
          },
          {
            "astId": 975,
            "contract": "cache/solpp-generated-contracts/CartesiCompute.sol:CartesiCompute",
            "label": "finalTime",
            "offset": 0,
            "slot": "3",
            "type": "t_uint256"
          },
          {
            "astId": 977,
            "contract": "cache/solpp-generated-contracts/CartesiCompute.sol:CartesiCompute",
            "label": "outputPosition",
            "offset": 0,
            "slot": "4",
            "type": "t_uint64"
          },
          {
            "astId": 979,
            "contract": "cache/solpp-generated-contracts/CartesiCompute.sol:CartesiCompute",
            "label": "outputLog2Size",
            "offset": 8,
            "slot": "4",
            "type": "t_uint8"
          },
          {
            "astId": 981,
            "contract": "cache/solpp-generated-contracts/CartesiCompute.sol:CartesiCompute",
            "label": "roundDuration",
            "offset": 0,
            "slot": "5",
            "type": "t_uint256"
          },
          {
            "astId": 983,
            "contract": "cache/solpp-generated-contracts/CartesiCompute.sol:CartesiCompute",
            "label": "timeOfLastMove",
            "offset": 0,
            "slot": "6",
            "type": "t_uint256"
          },
          {
            "astId": 985,
            "contract": "cache/solpp-generated-contracts/CartesiCompute.sol:CartesiCompute",
            "label": "vgInstance",
            "offset": 0,
            "slot": "7",
            "type": "t_uint256"
          },
          {
            "astId": 987,
            "contract": "cache/solpp-generated-contracts/CartesiCompute.sol:CartesiCompute",
            "label": "templateHash",
            "offset": 0,
            "slot": "8",
            "type": "t_bytes32"
          },
          {
            "astId": 989,
            "contract": "cache/solpp-generated-contracts/CartesiCompute.sol:CartesiCompute",
            "label": "initialHash",
            "offset": 0,
            "slot": "9",
            "type": "t_bytes32"
          },
          {
            "astId": 991,
            "contract": "cache/solpp-generated-contracts/CartesiCompute.sol:CartesiCompute",
            "label": "claimedFinalHash",
            "offset": 0,
            "slot": "10",
            "type": "t_bytes32"
          },
          {
            "astId": 993,
            "contract": "cache/solpp-generated-contracts/CartesiCompute.sol:CartesiCompute",
            "label": "claimedOutput",
            "offset": 0,
            "slot": "11",
            "type": "t_bytes_storage"
          },
          {
            "astId": 996,
            "contract": "cache/solpp-generated-contracts/CartesiCompute.sol:CartesiCompute",
            "label": "partiesArray",
            "offset": 0,
            "slot": "12",
            "type": "t_array(t_address)dyn_storage"
          },
          {
            "astId": 999,
            "contract": "cache/solpp-generated-contracts/CartesiCompute.sol:CartesiCompute",
            "label": "confirmedParties",
            "offset": 0,
            "slot": "13",
            "type": "t_array(t_address)dyn_storage"
          },
          {
            "astId": 1001,
            "contract": "cache/solpp-generated-contracts/CartesiCompute.sol:CartesiCompute",
            "label": "claimer",
            "offset": 0,
            "slot": "14",
            "type": "t_uint64"
          },
          {
            "astId": 1003,
            "contract": "cache/solpp-generated-contracts/CartesiCompute.sol:CartesiCompute",
            "label": "currentChallenger",
            "offset": 8,
            "slot": "14",
            "type": "t_uint64"
          },
          {
            "astId": 1005,
            "contract": "cache/solpp-generated-contracts/CartesiCompute.sol:CartesiCompute",
            "label": "votesCounter",
            "offset": 16,
            "slot": "14",
            "type": "t_uint64"
          },
          {
            "astId": 1009,
            "contract": "cache/solpp-generated-contracts/CartesiCompute.sol:CartesiCompute",
            "label": "parties",
            "offset": 0,
            "slot": "15",
            "type": "t_mapping(t_address,t_struct(Party)4050_storage)"
          },
          {
            "astId": 1011,
            "contract": "cache/solpp-generated-contracts/CartesiCompute.sol:CartesiCompute",
            "label": "currentState",
            "offset": 0,
            "slot": "16",
            "type": "t_enum(State)4024"
          },
          {
            "astId": 1014,
            "contract": "cache/solpp-generated-contracts/CartesiCompute.sol:CartesiCompute",
            "label": "revealDrives",
            "offset": 0,
            "slot": "17",
            "type": "t_array(t_uint256)dyn_storage"
          },
          {
            "astId": 1017,
            "contract": "cache/solpp-generated-contracts/CartesiCompute.sol:CartesiCompute",
            "label": "providerDrives",
            "offset": 0,
            "slot": "18",
            "type": "t_array(t_uint256)dyn_storage"
          },
          {
            "astId": 1020,
            "contract": "cache/solpp-generated-contracts/CartesiCompute.sol:CartesiCompute",
            "label": "driveHash",
            "offset": 0,
            "slot": "19",
            "type": "t_array(t_bytes32)dyn_storage"
          },
          {
            "astId": 1023,
            "contract": "cache/solpp-generated-contracts/CartesiCompute.sol:CartesiCompute",
            "label": "inputDrives",
            "offset": 0,
            "slot": "20",
            "type": "t_array(t_struct(Drive)4041_storage)dyn_storage"
          }
        ],
        "numberOfBytes": "672"
      },
      "t_struct(Drive)4041_storage": {
        "encoding": "inplace",
        "label": "struct CartesiComputeInterface.Drive",
        "members": [
          {
            "astId": 4026,
            "contract": "cache/solpp-generated-contracts/CartesiCompute.sol:CartesiCompute",
            "label": "position",
            "offset": 0,
            "slot": "0",
            "type": "t_uint64"
          },
          {
            "astId": 4028,
            "contract": "cache/solpp-generated-contracts/CartesiCompute.sol:CartesiCompute",
            "label": "driveLog2Size",
            "offset": 8,
            "slot": "0",
            "type": "t_uint8"
          },
          {
            "astId": 4030,
            "contract": "cache/solpp-generated-contracts/CartesiCompute.sol:CartesiCompute",
            "label": "directValue",
            "offset": 0,
            "slot": "1",
            "type": "t_bytes_storage"
          },
          {
            "astId": 4032,
            "contract": "cache/solpp-generated-contracts/CartesiCompute.sol:CartesiCompute",
            "label": "loggerIpfsPath",
            "offset": 0,
            "slot": "2",
            "type": "t_bytes_storage"
          },
          {
            "astId": 4034,
            "contract": "cache/solpp-generated-contracts/CartesiCompute.sol:CartesiCompute",
            "label": "loggerRootHash",
            "offset": 0,
            "slot": "3",
            "type": "t_bytes32"
          },
          {
            "astId": 4036,
            "contract": "cache/solpp-generated-contracts/CartesiCompute.sol:CartesiCompute",
            "label": "provider",
            "offset": 0,
            "slot": "4",
            "type": "t_address"
          },
          {
            "astId": 4038,
            "contract": "cache/solpp-generated-contracts/CartesiCompute.sol:CartesiCompute",
            "label": "waitsProvider",
            "offset": 20,
            "slot": "4",
            "type": "t_bool"
          },
          {
            "astId": 4040,
            "contract": "cache/solpp-generated-contracts/CartesiCompute.sol:CartesiCompute",
            "label": "needsLogger",
            "offset": 21,
            "slot": "4",
            "type": "t_bool"
          }
        ],
        "numberOfBytes": "160"
      },
      "t_struct(Party)4050_storage": {
        "encoding": "inplace",
        "label": "struct CartesiComputeInterface.Party",
        "members": [
          {
            "astId": 4043,
            "contract": "cache/solpp-generated-contracts/CartesiCompute.sol:CartesiCompute",
            "label": "isParty",
            "offset": 0,
            "slot": "0",
            "type": "t_bool"
          },
          {
            "astId": 4045,
            "contract": "cache/solpp-generated-contracts/CartesiCompute.sol:CartesiCompute",
            "label": "hasVoted",
            "offset": 1,
            "slot": "0",
            "type": "t_bool"
          },
          {
            "astId": 4047,
            "contract": "cache/solpp-generated-contracts/CartesiCompute.sol:CartesiCompute",
            "label": "hasCheated",
            "offset": 2,
            "slot": "0",
            "type": "t_bool"
          },
          {
            "astId": 4049,
            "contract": "cache/solpp-generated-contracts/CartesiCompute.sol:CartesiCompute",
            "label": "arrayIdx",
            "offset": 3,
            "slot": "0",
            "type": "t_uint64"
          }
        ],
        "numberOfBytes": "32"
      },
      "t_uint256": {
        "encoding": "inplace",
        "label": "uint256",
        "numberOfBytes": "32"
      },
      "t_uint64": {
        "encoding": "inplace",
        "label": "uint64",
        "numberOfBytes": "8"
      },
      "t_uint8": {
        "encoding": "inplace",
        "label": "uint8",
        "numberOfBytes": "1"
      }
    }
  }
}