{
  "contractName": "Merkle",
  "sourceName": "@cartesi/util/contracts/MerkleV3.sol",
  "abi": [
    {
      "inputs": [
        {
          "internalType": "bytes32[]",
          "name": "hashes",
          "type": "bytes32[]"
        }
      ],
      "name": "calculateRootFromPowerOfTwo",
      "outputs": [
        {
          "internalType": "bytes32",
          "name": "",
          "type": "bytes32"
        }
      ],
      "stateMutability": "pure",
      "type": "function"
    },
    {
      "inputs": [
        {
          "internalType": "uint256",
          "name": "number",
          "type": "uint256"
        }
      ],
      "name": "getLog2Floor",
      "outputs": [
        {
          "internalType": "uint8",
          "name": "",
          "type": "uint8"
        }
      ],
      "stateMutability": "pure",
      "type": "function"
    },
    {
      "inputs": [
        {
          "internalType": "uint8",
          "name": "_log2Size",
          "type": "uint8"
        }
      ],
      "name": "getPristineHash",
      "outputs": [
        {
          "internalType": "bytes32",
          "name": "",
          "type": "bytes32"
        }
      ],
      "stateMutability": "pure",
      "type": "function"
    },
    {
      "inputs": [
        {
          "internalType": "uint64",
          "name": "_position",
          "type": "uint64"
        },
        {
          "internalType": "bytes8",
          "name": "_value",
          "type": "bytes8"
        },
        {
          "internalType": "bytes32[]",
          "name": "proof",
          "type": "bytes32[]"
        }
      ],
      "name": "getRoot",
      "outputs": [
        {
          "internalType": "bytes32",
          "name": "",
          "type": "bytes32"
        }
      ],
      "stateMutability": "pure",
      "type": "function"
    },
    {
      "inputs": [
        {
          "internalType": "uint64",
          "name": "_position",
          "type": "uint64"
        },
        {
          "internalType": "uint8",
          "name": "_logOfSize",
          "type": "uint8"
        },
        {
          "internalType": "bytes32",
          "name": "_drive",
          "type": "bytes32"
        },
        {
          "internalType": "bytes32[]",
          "name": "siblings",
          "type": "bytes32[]"
        }
      ],
      "name": "getRootWithDrive",
      "outputs": [
        {
          "internalType": "bytes32",
          "name": "",
          "type": "bytes32"
        }
      ],
      "stateMutability": "pure",
      "type": "function"
    },
    {
      "inputs": [
        {
          "internalType": "uint256",
          "name": "number",
          "type": "uint256"
        }
      ],
      "name": "isPowerOf2",
      "outputs": [
        {
          "internalType": "bool",
          "name": "",
          "type": "bool"
        }
      ],
      "stateMutability": "pure",
      "type": "function"
    }
  ],
  "bytecode": "0x610b7c61003a600b82828239805160001a60731461002d57634e487b7160e01b600052600060045260246000fd5b30600052607381538281f3fe730000000000000000000000000000000000000000301460806040526004361061006c5760003560e01c806306c8e54b1461007157806382b0eab81461009b5780638492d93b146100bc578063a7342688146100cf578063d7304dd9146100e2578063d82ae4b1146100f5575b600080fd5b61008461007f3660046106bf565b610118565b60405160ff90911681526020015b60405180910390f35b6100ae6100a9366004610788565b610141565b604051908152602001610092565b6100ae6100ca3660046107db565b6102f2565b6100ae6100dd366004610858565b61033b565b6100ae6100f0366004610873565b610431565b6101086101033660046106bf565b61067a565b6040519015158152602001610092565b600080600183901c5b801561013a57610130826108f0565b915060011c610121565b5092915050565b600061014d825161067a565b6101b75760405162461bcd60e51b815260206004820152603060248201527f54686520696e707574206172726179206d75737420636f6e7461696e20706f7760448201526f6572206f66203220656c656d656e747360801b60648201526084015b60405180910390fd5b81516001036101e257816000815181106101d3576101d361090f565b60200260200101519050919050565b600060018351901c6001600160401b03811115610201576102016106d8565b60405190808252806020026020018201604052801561022a578160200160208202803683370190505b50905060005b83518110156102dc5783818151811061024b5761024b61090f565b6020026020010151848260016102619190610925565b815181106102715761027161090f565b6020026020010151604051602001610293929190918252602082015260400190565b6040516020818303038152906040528051906020012082600183901c815181106102bf576102bf61090f565b60209081029190910101526102d5600282610925565b9050610230565b506102e681610141565b9392505050565b919050565b6040516001600160c01b03198316602082015260009081906028016040516020818303038152906040528051906020012090506103328560038386610431565b95945050505050565b600060038260ff1610156103915760405162461bcd60e51b815260206004820152601b60248201527f48617320746f206265206174206c65617374206f6e6520776f7264000000000060448201526064016101ae565b60408260ff1611156103b55760405162461bcd60e51b81526004016101ae9061093d565b60408051600060208083018290528351600881850301815260289093019093528151919092012060035b8460ff16811015610429576040805160208101849052908101839052606001604051602081830303815290604052805190602001209150808061042190610985565b9150506103df565b509392505050565b600060038460ff1610156104875760405162461bcd60e51b815260206004820152601760248201527f4d757374206265206174206c65617374206120776f726400000000000000000060448201526064016101ae565b60408460ff1611156104ab5760405162461bcd60e51b81526004016101ae9061093d565b60006104b8856002610abd565b9050856104c6600183610ad5565b166001600160401b031660001461051f5760405162461bcd60e51b815260206004820152601760248201527f506f736974696f6e206973206e6f7420616c69676e656400000000000000000060448201526064016101ae565b61052a856040610afd565b60ff1683511461057c5760405162461bcd60e51b815260206004820152601b60248201527f50726f6f66206c656e67746820646f6573206e6f74206d61746368000000000060448201526064016101ae565b8360005b8451816001600160401b0316101561066f576001600160401b038381168183161b891616600003610606578185826001600160401b0316815181106105c7576105c761090f565b60200260200101516040516020016105e9929190918252602082015260400190565b60405160208183030381529060405280519060200120915061065d565b84816001600160401b0316815181106106215761062161090f565b602002602001015182604051602001610644929190918252602082015260400190565b6040516020818303038152906040528051906020012091505b8061066781610b20565b915050610580565b509695505050505050565b60008180820361068d5750600092915050565b5b806001166000036106a15760011c61068e565b60011c60008190036106b65750600192915050565b50600092915050565b6000602082840312156106d157600080fd5b5035919050565b634e487b7160e01b600052604160045260246000fd5b600082601f8301126106ff57600080fd5b813560206001600160401b038083111561071b5761071b6106d8565b8260051b604051601f19603f83011681018181108482111715610740576107406106d8565b60405293845285810183019383810192508785111561075e57600080fd5b83870191505b8482101561077d57813583529183019190830190610764565b979650505050505050565b60006020828403121561079a57600080fd5b81356001600160401b038111156107b057600080fd5b6107bc848285016106ee565b949350505050565b80356001600160401b03811681146102ed57600080fd5b6000806000606084860312156107f057600080fd5b6107f9846107c4565b925060208401356001600160c01b03198116811461081657600080fd5b915060408401356001600160401b0381111561083157600080fd5b61083d868287016106ee565b9150509250925092565b803560ff811681146102ed57600080fd5b60006020828403121561086a57600080fd5b6102e682610847565b6000806000806080858703121561088957600080fd5b610892856107c4565b93506108a060208601610847565b92506040850135915060608501356001600160401b038111156108c257600080fd5b6108ce878288016106ee565b91505092959194509250565b634e487b7160e01b600052601160045260246000fd5b600060ff821660ff8103610906576109066108da565b60010192915050565b634e487b7160e01b600052603260045260246000fd5b60008219821115610938576109386108da565b500190565b60208082526028908201527f43616e6e6f7420626520626967676572207468616e20746865206d616368696e604082015267329034ba39b2b63360c11b606082015260800190565b600060018201610997576109976108da565b5060010190565b600181815b808511156109de57816001600160401b03048211156109c4576109c46108da565b808516156109d157918102915b93841c93908002906109a3565b509250929050565b6000826109f557506001610ab7565b81610a0257506000610ab7565b8160018114610a185760028114610a2257610a56565b6001915050610ab7565b60ff841115610a3357610a336108da565b6001841b91506001600160401b03821115610a5057610a506108da565b50610ab7565b5060208310610133831016604e8410600b8410161715610a90575081810a6001600160401b03811115610a8b57610a8b6108da565b610ab7565b610a9a838361099e565b806001600160401b0304821115610ab357610ab36108da565b0290505b92915050565b60006102e660ff84166001600160401b0384166109e6565b60006001600160401b0383811690831681811015610af557610af56108da565b039392505050565b600060ff821660ff841680821015610b1757610b176108da565b90039392505050565b60006001600160401b03808316818103610b3c57610b3c6108da565b600101939250505056fea2646970667358221220ba225a525aa6c47e3693a778d11624631ce312c2c981eaee114aabe7dc62fb8c64736f6c634300080f0033",
  "linkReferences": {},
  "deployedLinkReferences": {},
  "devdoc": {
    "kind": "dev",
    "methods": {
      "calculateRootFromPowerOfTwo(bytes32[])": {
        "params": {
          "hashes": "The array containing power of 2 elements"
        },
        "returns": {
          "_0": "byte32 the root hash being calculated"
        }
      }
    },
    "version": 1
  },
  "evm": {
    "bytecode": {
      "linkReferences": {},
      "opcodes": "PUSH2 0xB7C PUSH2 0x3A PUSH1 0xB DUP3 DUP3 DUP3 CODECOPY DUP1 MLOAD PUSH1 0x0 BYTE PUSH1 0x73 EQ PUSH2 0x2D JUMPI PUSH4 0x4E487B71 PUSH1 0xE0 SHL PUSH1 0x0 MSTORE PUSH1 0x0 PUSH1 0x4 MSTORE PUSH1 0x24 PUSH1 0x0 REVERT JUMPDEST ADDRESS PUSH1 0x0 MSTORE PUSH1 0x73 DUP2 MSTORE8 DUP3 DUP2 RETURN INVALID PUSH20 0x0 ADDRESS EQ PUSH1 0x80 PUSH1 0x40 MSTORE PUSH1 0x4 CALLDATASIZE LT PUSH2 0x6C JUMPI PUSH1 0x0 CALLDATALOAD PUSH1 0xE0 SHR DUP1 PUSH4 0x6C8E54B EQ PUSH2 0x71 JUMPI DUP1 PUSH4 0x82B0EAB8 EQ PUSH2 0x9B JUMPI DUP1 PUSH4 0x8492D93B EQ PUSH2 0xBC JUMPI DUP1 PUSH4 0xA7342688 EQ PUSH2 0xCF JUMPI DUP1 PUSH4 0xD7304DD9 EQ PUSH2 0xE2 JUMPI DUP1 PUSH4 0xD82AE4B1 EQ PUSH2 0xF5 JUMPI JUMPDEST PUSH1 0x0 DUP1 REVERT JUMPDEST PUSH2 0x84 PUSH2 0x7F CALLDATASIZE PUSH1 0x4 PUSH2 0x6BF JUMP JUMPDEST PUSH2 0x118 JUMP JUMPDEST PUSH1 0x40 MLOAD PUSH1 0xFF SWAP1 SWAP2 AND DUP2 MSTORE PUSH1 0x20 ADD JUMPDEST PUSH1 0x40 MLOAD DUP1 SWAP2 SUB SWAP1 RETURN JUMPDEST PUSH2 0xAE PUSH2 0xA9 CALLDATASIZE PUSH1 0x4 PUSH2 0x788 JUMP JUMPDEST PUSH2 0x141 JUMP JUMPDEST PUSH1 0x40 MLOAD SWAP1 DUP2 MSTORE PUSH1 0x20 ADD PUSH2 0x92 JUMP JUMPDEST PUSH2 0xAE PUSH2 0xCA CALLDATASIZE PUSH1 0x4 PUSH2 0x7DB JUMP JUMPDEST PUSH2 0x2F2 JUMP JUMPDEST PUSH2 0xAE PUSH2 0xDD CALLDATASIZE PUSH1 0x4 PUSH2 0x858 JUMP JUMPDEST PUSH2 0x33B JUMP JUMPDEST PUSH2 0xAE PUSH2 0xF0 CALLDATASIZE PUSH1 0x4 PUSH2 0x873 JUMP JUMPDEST PUSH2 0x431 JUMP JUMPDEST PUSH2 0x108 PUSH2 0x103 CALLDATASIZE PUSH1 0x4 PUSH2 0x6BF JUMP JUMPDEST PUSH2 0x67A JUMP JUMPDEST PUSH1 0x40 MLOAD SWAP1 ISZERO ISZERO DUP2 MSTORE PUSH1 0x20 ADD PUSH2 0x92 JUMP JUMPDEST PUSH1 0x0 DUP1 PUSH1 0x1 DUP4 SWAP1 SHR JUMPDEST DUP1 ISZERO PUSH2 0x13A JUMPI PUSH2 0x130 DUP3 PUSH2 0x8F0 JUMP JUMPDEST SWAP2 POP PUSH1 0x1 SHR PUSH2 0x121 JUMP JUMPDEST POP SWAP3 SWAP2 POP POP JUMP JUMPDEST PUSH1 0x0 PUSH2 0x14D DUP3 MLOAD PUSH2 0x67A JUMP JUMPDEST PUSH2 0x1B7 JUMPI PUSH1 0x40 MLOAD PUSH3 0x461BCD PUSH1 0xE5 SHL DUP2 MSTORE PUSH1 0x20 PUSH1 0x4 DUP3 ADD MSTORE PUSH1 0x30 PUSH1 0x24 DUP3 ADD MSTORE PUSH32 0x54686520696E707574206172726179206D75737420636F6E7461696E20706F77 PUSH1 0x44 DUP3 ADD MSTORE PUSH16 0x6572206F66203220656C656D656E7473 PUSH1 0x80 SHL PUSH1 0x64 DUP3 ADD MSTORE PUSH1 0x84 ADD JUMPDEST PUSH1 0x40 MLOAD DUP1 SWAP2 SUB SWAP1 REVERT JUMPDEST DUP2 MLOAD PUSH1 0x1 SUB PUSH2 0x1E2 JUMPI DUP2 PUSH1 0x0 DUP2 MLOAD DUP2 LT PUSH2 0x1D3 JUMPI PUSH2 0x1D3 PUSH2 0x90F JUMP JUMPDEST PUSH1 0x20 MUL PUSH1 0x20 ADD ADD MLOAD SWAP1 POP SWAP2 SWAP1 POP JUMP JUMPDEST PUSH1 0x0 PUSH1 0x1 DUP4 MLOAD SWAP1 SHR PUSH1 0x1 PUSH1 0x1 PUSH1 0x40 SHL SUB DUP2 GT ISZERO PUSH2 0x201 JUMPI PUSH2 0x201 PUSH2 0x6D8 JUMP JUMPDEST PUSH1 0x40 MLOAD SWAP1 DUP1 DUP3 MSTORE DUP1 PUSH1 0x20 MUL PUSH1 0x20 ADD DUP3 ADD PUSH1 0x40 MSTORE DUP1 ISZERO PUSH2 0x22A JUMPI DUP2 PUSH1 0x20 ADD PUSH1 0x20 DUP3 MUL DUP1 CALLDATASIZE DUP4 CALLDATACOPY ADD SWAP1 POP JUMPDEST POP SWAP1 POP PUSH1 0x0 JUMPDEST DUP4 MLOAD DUP2 LT ISZERO PUSH2 0x2DC JUMPI DUP4 DUP2 DUP2 MLOAD DUP2 LT PUSH2 0x24B JUMPI PUSH2 0x24B PUSH2 0x90F JUMP JUMPDEST PUSH1 0x20 MUL PUSH1 0x20 ADD ADD MLOAD DUP5 DUP3 PUSH1 0x1 PUSH2 0x261 SWAP2 SWAP1 PUSH2 0x925 JUMP JUMPDEST DUP2 MLOAD DUP2 LT PUSH2 0x271 JUMPI PUSH2 0x271 PUSH2 0x90F JUMP JUMPDEST PUSH1 0x20 MUL PUSH1 0x20 ADD ADD MLOAD PUSH1 0x40 MLOAD PUSH1 0x20 ADD PUSH2 0x293 SWAP3 SWAP2 SWAP1 SWAP2 DUP3 MSTORE PUSH1 0x20 DUP3 ADD MSTORE PUSH1 0x40 ADD SWAP1 JUMP JUMPDEST PUSH1 0x40 MLOAD PUSH1 0x20 DUP2 DUP4 SUB SUB DUP2 MSTORE SWAP1 PUSH1 0x40 MSTORE DUP1 MLOAD SWAP1 PUSH1 0x20 ADD KECCAK256 DUP3 PUSH1 0x1 DUP4 SWAP1 SHR DUP2 MLOAD DUP2 LT PUSH2 0x2BF JUMPI PUSH2 0x2BF PUSH2 0x90F JUMP JUMPDEST PUSH1 0x20 SWAP1 DUP2 MUL SWAP2 SWAP1 SWAP2 ADD ADD MSTORE PUSH2 0x2D5 PUSH1 0x2 DUP3 PUSH2 0x925 JUMP JUMPDEST SWAP1 POP PUSH2 0x230 JUMP JUMPDEST POP PUSH2 0x2E6 DUP2 PUSH2 0x141 JUMP JUMPDEST SWAP4 SWAP3 POP POP POP JUMP JUMPDEST SWAP2 SWAP1 POP JUMP JUMPDEST PUSH1 0x40 MLOAD PUSH1 0x1 PUSH1 0x1 PUSH1 0xC0 SHL SUB NOT DUP4 AND PUSH1 0x20 DUP3 ADD MSTORE PUSH1 0x0 SWAP1 DUP2 SWAP1 PUSH1 0x28 ADD PUSH1 0x40 MLOAD PUSH1 0x20 DUP2 DUP4 SUB SUB DUP2 MSTORE SWAP1 PUSH1 0x40 MSTORE DUP1 MLOAD SWAP1 PUSH1 0x20 ADD KECCAK256 SWAP1 POP PUSH2 0x332 DUP6 PUSH1 0x3 DUP4 DUP7 PUSH2 0x431 JUMP JUMPDEST SWAP6 SWAP5 POP POP POP POP POP JUMP JUMPDEST PUSH1 0x0 PUSH1 0x3 DUP3 PUSH1 0xFF AND LT ISZERO PUSH2 0x391 JUMPI PUSH1 0x40 MLOAD PUSH3 0x461BCD PUSH1 0xE5 SHL DUP2 MSTORE PUSH1 0x20 PUSH1 0x4 DUP3 ADD MSTORE PUSH1 0x1B PUSH1 0x24 DUP3 ADD MSTORE PUSH32 0x48617320746F206265206174206C65617374206F6E6520776F72640000000000 PUSH1 0x44 DUP3 ADD MSTORE PUSH1 0x64 ADD PUSH2 0x1AE JUMP JUMPDEST PUSH1 0x40 DUP3 PUSH1 0xFF AND GT ISZERO PUSH2 0x3B5 JUMPI PUSH1 0x40 MLOAD PUSH3 0x461BCD PUSH1 0xE5 SHL DUP2 MSTORE PUSH1 0x4 ADD PUSH2 0x1AE SWAP1 PUSH2 0x93D JUMP JUMPDEST PUSH1 0x40 DUP1 MLOAD PUSH1 0x0 PUSH1 0x20 DUP1 DUP4 ADD DUP3 SWAP1 MSTORE DUP4 MLOAD PUSH1 0x8 DUP2 DUP6 SUB ADD DUP2 MSTORE PUSH1 0x28 SWAP1 SWAP4 ADD SWAP1 SWAP4 MSTORE DUP2 MLOAD SWAP2 SWAP1 SWAP3 ADD KECCAK256 PUSH1 0x3 JUMPDEST DUP5 PUSH1 0xFF AND DUP2 LT ISZERO PUSH2 0x429 JUMPI PUSH1 0x40 DUP1 MLOAD PUSH1 0x20 DUP2 ADD DUP5 SWAP1 MSTORE SWAP1 DUP2 ADD DUP4 SWAP1 MSTORE PUSH1 0x60 ADD PUSH1 0x40 MLOAD PUSH1 0x20 DUP2 DUP4 SUB SUB DUP2 MSTORE SWAP1 PUSH1 0x40 MSTORE DUP1 MLOAD SWAP1 PUSH1 0x20 ADD KECCAK256 SWAP2 POP DUP1 DUP1 PUSH2 0x421 SWAP1 PUSH2 0x985 JUMP JUMPDEST SWAP2 POP POP PUSH2 0x3DF JUMP JUMPDEST POP SWAP4 SWAP3 POP POP POP JUMP JUMPDEST PUSH1 0x0 PUSH1 0x3 DUP5 PUSH1 0xFF AND LT ISZERO PUSH2 0x487 JUMPI PUSH1 0x40 MLOAD PUSH3 0x461BCD PUSH1 0xE5 SHL DUP2 MSTORE PUSH1 0x20 PUSH1 0x4 DUP3 ADD MSTORE PUSH1 0x17 PUSH1 0x24 DUP3 ADD MSTORE PUSH32 0x4D757374206265206174206C65617374206120776F7264000000000000000000 PUSH1 0x44 DUP3 ADD MSTORE PUSH1 0x64 ADD PUSH2 0x1AE JUMP JUMPDEST PUSH1 0x40 DUP5 PUSH1 0xFF AND GT ISZERO PUSH2 0x4AB JUMPI PUSH1 0x40 MLOAD PUSH3 0x461BCD PUSH1 0xE5 SHL DUP2 MSTORE PUSH1 0x4 ADD PUSH2 0x1AE SWAP1 PUSH2 0x93D JUMP JUMPDEST PUSH1 0x0 PUSH2 0x4B8 DUP6 PUSH1 0x2 PUSH2 0xABD JUMP JUMPDEST SWAP1 POP DUP6 PUSH2 0x4C6 PUSH1 0x1 DUP4 PUSH2 0xAD5 JUMP JUMPDEST AND PUSH1 0x1 PUSH1 0x1 PUSH1 0x40 SHL SUB AND PUSH1 0x0 EQ PUSH2 0x51F JUMPI PUSH1 0x40 MLOAD PUSH3 0x461BCD PUSH1 0xE5 SHL DUP2 MSTORE PUSH1 0x20 PUSH1 0x4 DUP3 ADD MSTORE PUSH1 0x17 PUSH1 0x24 DUP3 ADD MSTORE PUSH32 0x506F736974696F6E206973206E6F7420616C69676E6564000000000000000000 PUSH1 0x44 DUP3 ADD MSTORE PUSH1 0x64 ADD PUSH2 0x1AE JUMP JUMPDEST PUSH2 0x52A DUP6 PUSH1 0x40 PUSH2 0xAFD JUMP JUMPDEST PUSH1 0xFF AND DUP4 MLOAD EQ PUSH2 0x57C JUMPI PUSH1 0x40 MLOAD PUSH3 0x461BCD PUSH1 0xE5 SHL DUP2 MSTORE PUSH1 0x20 PUSH1 0x4 DUP3 ADD MSTORE PUSH1 0x1B PUSH1 0x24 DUP3 ADD MSTORE PUSH32 0x50726F6F66206C656E67746820646F6573206E6F74206D617463680000000000 PUSH1 0x44 DUP3 ADD MSTORE PUSH1 0x64 ADD PUSH2 0x1AE JUMP JUMPDEST DUP4 PUSH1 0x0 JUMPDEST DUP5 MLOAD DUP2 PUSH1 0x1 PUSH1 0x1 PUSH1 0x40 SHL SUB AND LT ISZERO PUSH2 0x66F JUMPI PUSH1 0x1 PUSH1 0x1 PUSH1 0x40 SHL SUB DUP4 DUP2 AND DUP2 DUP4 AND SHL DUP10 AND AND PUSH1 0x0 SUB PUSH2 0x606 JUMPI DUP2 DUP6 DUP3 PUSH1 0x1 PUSH1 0x1 PUSH1 0x40 SHL SUB AND DUP2 MLOAD DUP2 LT PUSH2 0x5C7 JUMPI PUSH2 0x5C7 PUSH2 0x90F JUMP JUMPDEST PUSH1 0x20 MUL PUSH1 0x20 ADD ADD MLOAD PUSH1 0x40 MLOAD PUSH1 0x20 ADD PUSH2 0x5E9 SWAP3 SWAP2 SWAP1 SWAP2 DUP3 MSTORE PUSH1 0x20 DUP3 ADD MSTORE PUSH1 0x40 ADD SWAP1 JUMP JUMPDEST PUSH1 0x40 MLOAD PUSH1 0x20 DUP2 DUP4 SUB SUB DUP2 MSTORE SWAP1 PUSH1 0x40 MSTORE DUP1 MLOAD SWAP1 PUSH1 0x20 ADD KECCAK256 SWAP2 POP PUSH2 0x65D JUMP JUMPDEST DUP5 DUP2 PUSH1 0x1 PUSH1 0x1 PUSH1 0x40 SHL SUB AND DUP2 MLOAD DUP2 LT PUSH2 0x621 JUMPI PUSH2 0x621 PUSH2 0x90F JUMP JUMPDEST PUSH1 0x20 MUL PUSH1 0x20 ADD ADD MLOAD DUP3 PUSH1 0x40 MLOAD PUSH1 0x20 ADD PUSH2 0x644 SWAP3 SWAP2 SWAP1 SWAP2 DUP3 MSTORE PUSH1 0x20 DUP3 ADD MSTORE PUSH1 0x40 ADD SWAP1 JUMP JUMPDEST PUSH1 0x40 MLOAD PUSH1 0x20 DUP2 DUP4 SUB SUB DUP2 MSTORE SWAP1 PUSH1 0x40 MSTORE DUP1 MLOAD SWAP1 PUSH1 0x20 ADD KECCAK256 SWAP2 POP JUMPDEST DUP1 PUSH2 0x667 DUP2 PUSH2 0xB20 JUMP JUMPDEST SWAP2 POP POP PUSH2 0x580 JUMP JUMPDEST POP SWAP7 SWAP6 POP POP POP POP POP POP JUMP JUMPDEST PUSH1 0x0 DUP2 DUP1 DUP3 SUB PUSH2 0x68D JUMPI POP PUSH1 0x0 SWAP3 SWAP2 POP POP JUMP JUMPDEST JUMPDEST DUP1 PUSH1 0x1 AND PUSH1 0x0 SUB PUSH2 0x6A1 JUMPI PUSH1 0x1 SHR PUSH2 0x68E JUMP JUMPDEST PUSH1 0x1 SHR PUSH1 0x0 DUP2 SWAP1 SUB PUSH2 0x6B6 JUMPI POP PUSH1 0x1 SWAP3 SWAP2 POP POP JUMP JUMPDEST POP PUSH1 0x0 SWAP3 SWAP2 POP POP JUMP JUMPDEST PUSH1 0x0 PUSH1 0x20 DUP3 DUP5 SUB SLT ISZERO PUSH2 0x6D1 JUMPI PUSH1 0x0 DUP1 REVERT JUMPDEST POP CALLDATALOAD SWAP2 SWAP1 POP JUMP JUMPDEST PUSH4 0x4E487B71 PUSH1 0xE0 SHL PUSH1 0x0 MSTORE PUSH1 0x41 PUSH1 0x4 MSTORE PUSH1 0x24 PUSH1 0x0 REVERT JUMPDEST PUSH1 0x0 DUP3 PUSH1 0x1F DUP4 ADD SLT PUSH2 0x6FF JUMPI PUSH1 0x0 DUP1 REVERT JUMPDEST DUP2 CALLDATALOAD PUSH1 0x20 PUSH1 0x1 PUSH1 0x1 PUSH1 0x40 SHL SUB DUP1 DUP4 GT ISZERO PUSH2 0x71B JUMPI PUSH2 0x71B PUSH2 0x6D8 JUMP JUMPDEST DUP3 PUSH1 0x5 SHL PUSH1 0x40 MLOAD PUSH1 0x1F NOT PUSH1 0x3F DUP4 ADD AND DUP2 ADD DUP2 DUP2 LT DUP5 DUP3 GT OR ISZERO PUSH2 0x740 JUMPI PUSH2 0x740 PUSH2 0x6D8 JUMP JUMPDEST PUSH1 0x40 MSTORE SWAP4 DUP5 MSTORE DUP6 DUP2 ADD DUP4 ADD SWAP4 DUP4 DUP2 ADD SWAP3 POP DUP8 DUP6 GT ISZERO PUSH2 0x75E JUMPI PUSH1 0x0 DUP1 REVERT JUMPDEST DUP4 DUP8 ADD SWAP2 POP JUMPDEST DUP5 DUP3 LT ISZERO PUSH2 0x77D JUMPI DUP2 CALLDATALOAD DUP4 MSTORE SWAP2 DUP4 ADD SWAP2 SWAP1 DUP4 ADD SWAP1 PUSH2 0x764 JUMP JUMPDEST SWAP8 SWAP7 POP POP POP POP POP POP POP JUMP JUMPDEST PUSH1 0x0 PUSH1 0x20 DUP3 DUP5 SUB SLT ISZERO PUSH2 0x79A JUMPI PUSH1 0x0 DUP1 REVERT JUMPDEST DUP2 CALLDATALOAD PUSH1 0x1 PUSH1 0x1 PUSH1 0x40 SHL SUB DUP2 GT ISZERO PUSH2 0x7B0 JUMPI PUSH1 0x0 DUP1 REVERT JUMPDEST PUSH2 0x7BC DUP5 DUP3 DUP6 ADD PUSH2 0x6EE JUMP JUMPDEST SWAP5 SWAP4 POP POP POP POP JUMP JUMPDEST DUP1 CALLDATALOAD PUSH1 0x1 PUSH1 0x1 PUSH1 0x40 SHL SUB DUP2 AND DUP2 EQ PUSH2 0x2ED JUMPI PUSH1 0x0 DUP1 REVERT JUMPDEST PUSH1 0x0 DUP1 PUSH1 0x0 PUSH1 0x60 DUP5 DUP7 SUB SLT ISZERO PUSH2 0x7F0 JUMPI PUSH1 0x0 DUP1 REVERT JUMPDEST PUSH2 0x7F9 DUP5 PUSH2 0x7C4 JUMP JUMPDEST SWAP3 POP PUSH1 0x20 DUP5 ADD CALLDATALOAD PUSH1 0x1 PUSH1 0x1 PUSH1 0xC0 SHL SUB NOT DUP2 AND DUP2 EQ PUSH2 0x816 JUMPI PUSH1 0x0 DUP1 REVERT JUMPDEST SWAP2 POP PUSH1 0x40 DUP5 ADD CALLDATALOAD PUSH1 0x1 PUSH1 0x1 PUSH1 0x40 SHL SUB DUP2 GT ISZERO PUSH2 0x831 JUMPI PUSH1 0x0 DUP1 REVERT JUMPDEST PUSH2 0x83D DUP7 DUP3 DUP8 ADD PUSH2 0x6EE JUMP JUMPDEST SWAP2 POP POP SWAP3 POP SWAP3 POP SWAP3 JUMP JUMPDEST DUP1 CALLDATALOAD PUSH1 0xFF DUP2 AND DUP2 EQ PUSH2 0x2ED JUMPI PUSH1 0x0 DUP1 REVERT JUMPDEST PUSH1 0x0 PUSH1 0x20 DUP3 DUP5 SUB SLT ISZERO PUSH2 0x86A JUMPI PUSH1 0x0 DUP1 REVERT JUMPDEST PUSH2 0x2E6 DUP3 PUSH2 0x847 JUMP JUMPDEST PUSH1 0x0 DUP1 PUSH1 0x0 DUP1 PUSH1 0x80 DUP6 DUP8 SUB SLT ISZERO PUSH2 0x889 JUMPI PUSH1 0x0 DUP1 REVERT JUMPDEST PUSH2 0x892 DUP6 PUSH2 0x7C4 JUMP JUMPDEST SWAP4 POP PUSH2 0x8A0 PUSH1 0x20 DUP7 ADD PUSH2 0x847 JUMP JUMPDEST SWAP3 POP PUSH1 0x40 DUP6 ADD CALLDATALOAD SWAP2 POP PUSH1 0x60 DUP6 ADD CALLDATALOAD PUSH1 0x1 PUSH1 0x1 PUSH1 0x40 SHL SUB DUP2 GT ISZERO PUSH2 0x8C2 JUMPI PUSH1 0x0 DUP1 REVERT JUMPDEST PUSH2 0x8CE DUP8 DUP3 DUP9 ADD PUSH2 0x6EE JUMP JUMPDEST SWAP2 POP POP SWAP3 SWAP6 SWAP2 SWAP5 POP SWAP3 POP JUMP JUMPDEST PUSH4 0x4E487B71 PUSH1 0xE0 SHL PUSH1 0x0 MSTORE PUSH1 0x11 PUSH1 0x4 MSTORE PUSH1 0x24 PUSH1 0x0 REVERT JUMPDEST PUSH1 0x0 PUSH1 0xFF DUP3 AND PUSH1 0xFF DUP2 SUB PUSH2 0x906 JUMPI PUSH2 0x906 PUSH2 0x8DA JUMP JUMPDEST PUSH1 0x1 ADD SWAP3 SWAP2 POP POP JUMP JUMPDEST PUSH4 0x4E487B71 PUSH1 0xE0 SHL PUSH1 0x0 MSTORE PUSH1 0x32 PUSH1 0x4 MSTORE PUSH1 0x24 PUSH1 0x0 REVERT JUMPDEST PUSH1 0x0 DUP3 NOT DUP3 GT ISZERO PUSH2 0x938 JUMPI PUSH2 0x938 PUSH2 0x8DA JUMP JUMPDEST POP ADD SWAP1 JUMP JUMPDEST PUSH1 0x20 DUP1 DUP3 MSTORE PUSH1 0x28 SWAP1 DUP3 ADD MSTORE PUSH32 0x43616E6E6F7420626520626967676572207468616E20746865206D616368696E PUSH1 0x40 DUP3 ADD MSTORE PUSH8 0x329034BA39B2B633 PUSH1 0xC1 SHL PUSH1 0x60 DUP3 ADD MSTORE PUSH1 0x80 ADD SWAP1 JUMP JUMPDEST PUSH1 0x0 PUSH1 0x1 DUP3 ADD PUSH2 0x997 JUMPI PUSH2 0x997 PUSH2 0x8DA JUMP JUMPDEST POP PUSH1 0x1 ADD SWAP1 JUMP JUMPDEST PUSH1 0x1 DUP2 DUP2 JUMPDEST DUP1 DUP6 GT ISZERO PUSH2 0x9DE JUMPI DUP2 PUSH1 0x1 PUSH1 0x1 PUSH1 0x40 SHL SUB DIV DUP3 GT ISZERO PUSH2 0x9C4 JUMPI PUSH2 0x9C4 PUSH2 0x8DA JUMP JUMPDEST DUP1 DUP6 AND ISZERO PUSH2 0x9D1 JUMPI SWAP2 DUP2 MUL SWAP2 JUMPDEST SWAP4 DUP5 SHR SWAP4 SWAP1 DUP1 MUL SWAP1 PUSH2 0x9A3 JUMP JUMPDEST POP SWAP3 POP SWAP3 SWAP1 POP JUMP JUMPDEST PUSH1 0x0 DUP3 PUSH2 0x9F5 JUMPI POP PUSH1 0x1 PUSH2 0xAB7 JUMP JUMPDEST DUP2 PUSH2 0xA02 JUMPI POP PUSH1 0x0 PUSH2 0xAB7 JUMP JUMPDEST DUP2 PUSH1 0x1 DUP2 EQ PUSH2 0xA18 JUMPI PUSH1 0x2 DUP2 EQ PUSH2 0xA22 JUMPI PUSH2 0xA56 JUMP JUMPDEST PUSH1 0x1 SWAP2 POP POP PUSH2 0xAB7 JUMP JUMPDEST PUSH1 0xFF DUP5 GT ISZERO PUSH2 0xA33 JUMPI PUSH2 0xA33 PUSH2 0x8DA JUMP JUMPDEST PUSH1 0x1 DUP5 SHL SWAP2 POP PUSH1 0x1 PUSH1 0x1 PUSH1 0x40 SHL SUB DUP3 GT ISZERO PUSH2 0xA50 JUMPI PUSH2 0xA50 PUSH2 0x8DA JUMP JUMPDEST POP PUSH2 0xAB7 JUMP JUMPDEST POP PUSH1 0x20 DUP4 LT PUSH2 0x133 DUP4 LT AND PUSH1 0x4E DUP5 LT PUSH1 0xB DUP5 LT AND OR ISZERO PUSH2 0xA90 JUMPI POP DUP2 DUP2 EXP PUSH1 0x1 PUSH1 0x1 PUSH1 0x40 SHL SUB DUP2 GT ISZERO PUSH2 0xA8B JUMPI PUSH2 0xA8B PUSH2 0x8DA JUMP JUMPDEST PUSH2 0xAB7 JUMP JUMPDEST PUSH2 0xA9A DUP4 DUP4 PUSH2 0x99E JUMP JUMPDEST DUP1 PUSH1 0x1 PUSH1 0x1 PUSH1 0x40 SHL SUB DIV DUP3 GT ISZERO PUSH2 0xAB3 JUMPI PUSH2 0xAB3 PUSH2 0x8DA JUMP JUMPDEST MUL SWAP1 POP JUMPDEST SWAP3 SWAP2 POP POP JUMP JUMPDEST PUSH1 0x0 PUSH2 0x2E6 PUSH1 0xFF DUP5 AND PUSH1 0x1 PUSH1 0x1 PUSH1 0x40 SHL SUB DUP5 AND PUSH2 0x9E6 JUMP JUMPDEST PUSH1 0x0 PUSH1 0x1 PUSH1 0x1 PUSH1 0x40 SHL SUB DUP4 DUP2 AND SWAP1 DUP4 AND DUP2 DUP2 LT ISZERO PUSH2 0xAF5 JUMPI PUSH2 0xAF5 PUSH2 0x8DA JUMP JUMPDEST SUB SWAP4 SWAP3 POP POP POP JUMP JUMPDEST PUSH1 0x0 PUSH1 0xFF DUP3 AND PUSH1 0xFF DUP5 AND DUP1 DUP3 LT ISZERO PUSH2 0xB17 JUMPI PUSH2 0xB17 PUSH2 0x8DA JUMP JUMPDEST SWAP1 SUB SWAP4 SWAP3 POP POP POP JUMP JUMPDEST PUSH1 0x0 PUSH1 0x1 PUSH1 0x1 PUSH1 0x40 SHL SUB DUP1 DUP4 AND DUP2 DUP2 SUB PUSH2 0xB3C JUMPI PUSH2 0xB3C PUSH2 0x8DA JUMP JUMPDEST PUSH1 0x1 ADD SWAP4 SWAP3 POP POP POP JUMP INVALID LOG2 PUSH5 0x6970667358 0x22 SLT KECCAK256 0xBA 0x22 GAS MSTORE GAS 0xA6 0xC4 PUSH31 0x3693A778D11624631CE312C2C981EAEE114AABE7DC62FB8C64736F6C634300 ADDMOD 0xF STOP CALLER "
    },
    "gasEstimates": {
      "creation": {
        "codeDepositCost": "588000",
        "executionCost": "653",
        "totalCost": "588653"
      },
      "external": {
        "calculateRootFromPowerOfTwo(bytes32[])": "infinite",
        "getLog2Floor(uint256)": "infinite",
        "getPristineHash(uint8)": "infinite",
        "getRoot(uint64,bytes8,bytes32[])": "infinite",
        "getRootWithDrive(uint64,uint8,bytes32,bytes32[])": "infinite",
        "isPowerOf2(uint256)": "infinite"
      }
    },
    "methodIdentifiers": {
      "calculateRootFromPowerOfTwo(bytes32[])": "82b0eab8",
      "getLog2Floor(uint256)": "06c8e54b",
      "getPristineHash(uint8)": "a7342688",
      "getRoot(uint64,bytes8,bytes32[])": "8492d93b",
      "getRootWithDrive(uint64,uint8,bytes32,bytes32[])": "d7304dd9",
      "isPowerOf2(uint256)": "d82ae4b1"
    }
  },
  "storageLayout": {
    "storage": [],
    "types": null
  },
  "userdoc": {
    "kind": "user",
    "methods": {
      "calculateRootFromPowerOfTwo(bytes32[])": {
        "notice": "Calculate the root of Merkle tree from an array of power of 2 elements"
      }
    },
    "version": 1
  }
}