{
  "address": "0xF2264B36E2969021CC37Cd03a2EcD1DF9d445690",
  "abi": [
    {
      "anonymous": false,
      "inputs": [
        {
          "indexed": true,
          "internalType": "uint256",
          "name": "_index",
          "type": "uint256"
        },
        {
          "indexed": false,
          "internalType": "bytes8[]",
          "name": "_data",
          "type": "bytes8[]"
        },
        {
          "indexed": true,
          "internalType": "bytes32",
          "name": "_root",
          "type": "bytes32"
        },
        {
          "indexed": false,
          "internalType": "uint64",
          "name": "_log2Size",
          "type": "uint64"
        }
      ],
      "name": "MerkleRootCalculatedFromData",
      "type": "event"
    },
    {
      "anonymous": false,
      "inputs": [
        {
          "indexed": true,
          "internalType": "uint256",
          "name": "_index",
          "type": "uint256"
        },
        {
          "indexed": false,
          "internalType": "uint256[]",
          "name": "_indices",
          "type": "uint256[]"
        },
        {
          "indexed": true,
          "internalType": "bytes32",
          "name": "_root",
          "type": "bytes32"
        },
        {
          "indexed": false,
          "internalType": "uint64",
          "name": "_log2Size",
          "type": "uint64"
        }
      ],
      "name": "MerkleRootCalculatedFromHistory",
      "type": "event"
    },
    {
      "inputs": [
        {
          "internalType": "uint64",
          "name": "_log2Size",
          "type": "uint64"
        },
        {
          "internalType": "bytes8[]",
          "name": "_data",
          "type": "bytes8[]"
        }
      ],
      "name": "calculateMerkleRootFromData",
      "outputs": [
        {
          "internalType": "bytes32",
          "name": "",
          "type": "bytes32"
        }
      ],
      "stateMutability": "nonpayable",
      "type": "function"
    },
    {
      "inputs": [
        {
          "internalType": "uint64",
          "name": "_log2Size",
          "type": "uint64"
        },
        {
          "internalType": "uint256[]",
          "name": "_indices",
          "type": "uint256[]"
        }
      ],
      "name": "calculateMerkleRootFromHistory",
      "outputs": [
        {
          "internalType": "bytes32",
          "name": "",
          "type": "bytes32"
        }
      ],
      "stateMutability": "nonpayable",
      "type": "function"
    },
    {
      "inputs": [],
      "name": "currentIndex",
      "outputs": [
        {
          "internalType": "uint256",
          "name": "",
          "type": "uint256"
        }
      ],
      "stateMutability": "view",
      "type": "function"
    },
    {
      "inputs": [
        {
          "internalType": "bytes32",
          "name": "_root",
          "type": "bytes32"
        }
      ],
      "name": "getLogIndex",
      "outputs": [
        {
          "internalType": "uint256",
          "name": "",
          "type": "uint256"
        }
      ],
      "stateMutability": "view",
      "type": "function"
    },
    {
      "inputs": [
        {
          "internalType": "uint256",
          "name": "_index",
          "type": "uint256"
        }
      ],
      "name": "getLogRoot",
      "outputs": [
        {
          "internalType": "bytes32",
          "name": "",
          "type": "bytes32"
        }
      ],
      "stateMutability": "view",
      "type": "function"
    },
    {
      "inputs": [
        {
          "internalType": "bytes32",
          "name": "_root",
          "type": "bytes32"
        },
        {
          "internalType": "uint64",
          "name": "_log2Size",
          "type": "uint64"
        }
      ],
      "name": "isLogAvailable",
      "outputs": [
        {
          "internalType": "bool",
          "name": "",
          "type": "bool"
        }
      ],
      "stateMutability": "view",
      "type": "function"
    }
  ],
  "transactionHash": "0x57931ff99a3b60c34e72c4c62afbfdc5bc7baee30424c453bd5ad572f388d615",
  "args": [],
  "bytecode": "0x6080604052600060045534801561001557600080fd5b50610e67806100256000396000f3fe608060405234801561001057600080fd5b50600436106100625760003560e01c806326987b60146100675780634891ea36146100815780636a22e5fd14610134578063833459bc14610151578063a1ddff261461016e578063adaea8dc14610221575b600080fd5b61006f610261565b60408051918252519081900360200190f35b61006f6004803603604081101561009757600080fd5b6001600160401b0382351691908101906040810160208201356401000000008111156100c257600080fd5b8201836020820111156100d457600080fd5b803590602001918460208302840111640100000000831117156100f657600080fd5b919080806020026020016040519081016040528093929190818152602001838360200280828437600092019190915250929550610267945050505050565b61006f6004803603602081101561014a57600080fd5b5035610773565b61006f6004803603602081101561016757600080fd5b50356107c8565b61006f6004803603604081101561018457600080fd5b6001600160401b0382351691908101906040810160208201356401000000008111156101af57600080fd5b8201836020820111156101c157600080fd5b803590602001918460208302840111640100000000831117156101e357600080fd5b9190808060200260200160405190810160405280939291908181526020018383602002808284376000920191909152509295506107da945050505050565b61024d6004803603604081101561023757600080fd5b50803590602001356001600160401b0316610cc5565b604080519115158252519081900360200190f35b60045481565b60006003836001600160401b031610156102c8576040805162461bcd60e51b815260206004820152601b60248201527f48617320746f206265206174206c65617374206f6e6520776f72640000000000604482015290519081900360640190fd5b6040836001600160401b031611156103115760405162461bcd60e51b8152600401808060200182810382526028815260200180610de46028913960400191505060405180910390fd5b6000825111610367576040805162461bcd60e51b815260206004820152601f60248201527f54686520696e7075742061727261792063616e6e6f7420626520656d70747900604482015290519081900360640190fd5b815182906001600160401b036002198601811660020a16908110156103bd5760405162461bcd60e51b8152600401808060200182810382526031815260200180610d2f6031913960400191505060405180910390fd5b8084511461049a576060816001600160401b03811180156103dd57600080fd5b50604051908082528060200260200182016040528015610407578160200160208202803683370190505b50905060005b85518110156104575785818151811061042257fe5b602002602001015182828151811061043657fe5b6001600160c01b03199092166020928302919091019091015260010161040d565b5084515b815181101561049657600060c01b82828151811061047557fe5b6001600160c01b03199092166020928302919091019091015260010161045b565b5091505b606082516001600160401b03811180156104b357600080fd5b506040519080825280602002602001820160405280156104dd578160200160208202803683370190505b50905060005b835181101561054f578381815181106104f857fe5b602002602001015160405160200180826001600160c01b03191681526008019150506040516020818303038152906040528051906020012082828151811061053c57fe5b60209081029190910101526001016104e3565b5060007367B95A051EbcE8e482bCf387d80D3fb25592A1D26382b0eab8836040518263ffffffff1660e01b81526004018080602001828103825283818151815260200191508051906020019060200280838360005b838110156105bc5781810151838201526020016105a4565b505050509050019250505060206040518083038186803b1580156105df57600080fd5b505af41580156105f3573d6000803e3d6000fd5b505050506040513d602081101561060957600080fd5b50516040805180820182526001600160401b038a8116808352602080840186815260038054600181018255600091825295517fc2575a0e9e593c00f959f8c92f12db2869c3395a3b0502d05e2516446f71f85b6002909702968701805467ffffffffffffffff19169190961617909455517fc2575a0e9e593c00f959f8c92f12db2869c3395a3b0502d05e2516446f71f85c909401939093556004548451808501929092528482528b51948201949094528a5194955085947f5fdb13b5e276437af6afb5d6bede9cf90cb8cd2f13c93048434bf9fcf7284622938c938e93928392606084019287820192909102908190849084905b838110156107165781810151838201526020016106fe565b50505050905001935050505060405180910390a3600081815260208181526040808320805460ff19166001908117909155600480548285528386208190558552600290935292208390558054909101905593505050505b92915050565b600060045482106107b55760405162461bcd60e51b8152600401808060200182810382526026815260200180610e0c6026913960400191505060405180910390fd5b5060009081526002602052604090205490565b60009081526001602052604090205490565b60007367B95A051EbcE8e482bCf387d80D3fb25592A1D263d82ae4b183516040518263ffffffff1660e01b81526004018082815260200191505060206040518083038186803b15801561082c57600080fd5b505af4158015610840573d6000803e3d6000fd5b505050506040513d602081101561085657600080fd5b50516108935760405162461bcd60e51b8152600401808060200182810382526030815260200180610d866030913960400191505060405180910390fd5b60005b8251811015610974578281815181106108ab57fe5b6020026020010151600454116108f25760405162461bcd60e51b8152600401808060200182810382526026815260200180610d606026913960400191505060405180910390fd5b600383828151811061090057fe5b60200260200101518154811061091257fe5b60009182526020909120600290910201546001600160401b0385811691161461096c5760405162461bcd60e51b815260040180806020018281038252602e815260200180610db6602e913960400191505060405180910390fd5b600101610896565b50606082516001600160401b038111801561098e57600080fd5b506040519080825280602002602001820160405280156109b8578160200160208202803683370190505b50905060005b8351811015610a185760038482815181106109d557fe5b6020026020010151815481106109e757fe5b906000526020600020906002020160010154828281518110610a0557fe5b60209081029190910101526001016109be565b5060007367B95A051EbcE8e482bCf387d80D3fb25592A1D26382b0eab8836040518263ffffffff1660e01b81526004018080602001828103825283818151815260200191508051906020019060200280838360005b83811015610a85578181015183820152602001610a6d565b505050509050019250505060206040518083038186803b158015610aa857600080fd5b505af4158015610abc573d6000803e3d6000fd5b505050506040513d6020811015610ad257600080fd5b50518451604080516306c8e54b60e01b81526004810192909252519192506000917367B95A051EbcE8e482bCf387d80D3fb25592A1D2916306c8e54b916024808301926020929190829003018186803b158015610b2e57600080fd5b505af4158015610b42573d6000803e3d6000fd5b505050506040513d6020811015610b5857600080fd5b505160408051808201825260ff9092168881016001600160401b03818116808652602080870189815260038054600181018255600091825298517fc2575a0e9e593c00f959f8c92f12db2869c3395a3b0502d05e2516446f71f85b6002909a02998a01805467ffffffffffffffff19169190961617909455517fc2575a0e9e593c00f959f8c92f12db2869c3395a3b0502d05e2516446f71f85c909701969096556004548551808801929092528582528b51958201959095528a5193965087957f89cefba87d8a8fa0db60ec3681079c7740b90465999c62cd7c00d65d3c9e57a9948c949383926060840192878201929102908190849084905b83811015610c6a578181015183820152602001610c52565b50505050905001935050505060405180910390a350600081815260208181526040808320805460ff19166001908117909155600480548285528386208190558552600290935292208390558054909101905591505092915050565b60008281526020819052604081205460ff1615610d2557600083815260016020526040902054600380546001600160401b03851692908110610d0357fe5b60009182526020909120600290910201546001600160401b031614905061076d565b5060009291505056fe54686520696e70757420617272617920697320626967676572207468616e206465636c61726564206c6f67322073697a6554686520696e646578206f6620686973746f727920646f65736e27742065786973742079657454686520696e707574206172726179206d75737420636f6e7461696e20706f776572206f66203220656c656d656e74735468652076616c7565206f66206c6f673253697a6520646f65736e2774206d6174636820696e20686973746f727943616e6e6f7420626520626967676572207468616e20746865206d616368696e6520697473656c6654686520696e64657820646f65736e277420657869737420696e2074686520686973746f7279a26469706673582212200d8e6b39637d32a688a53738636551fb05c545bad85c626415b4bfe225f871fa64736f6c63430007040033",
  "deployedBytecode": "0x608060405234801561001057600080fd5b50600436106100625760003560e01c806326987b60146100675780634891ea36146100815780636a22e5fd14610134578063833459bc14610151578063a1ddff261461016e578063adaea8dc14610221575b600080fd5b61006f610261565b60408051918252519081900360200190f35b61006f6004803603604081101561009757600080fd5b6001600160401b0382351691908101906040810160208201356401000000008111156100c257600080fd5b8201836020820111156100d457600080fd5b803590602001918460208302840111640100000000831117156100f657600080fd5b919080806020026020016040519081016040528093929190818152602001838360200280828437600092019190915250929550610267945050505050565b61006f6004803603602081101561014a57600080fd5b5035610773565b61006f6004803603602081101561016757600080fd5b50356107c8565b61006f6004803603604081101561018457600080fd5b6001600160401b0382351691908101906040810160208201356401000000008111156101af57600080fd5b8201836020820111156101c157600080fd5b803590602001918460208302840111640100000000831117156101e357600080fd5b9190808060200260200160405190810160405280939291908181526020018383602002808284376000920191909152509295506107da945050505050565b61024d6004803603604081101561023757600080fd5b50803590602001356001600160401b0316610cc5565b604080519115158252519081900360200190f35b60045481565b60006003836001600160401b031610156102c8576040805162461bcd60e51b815260206004820152601b60248201527f48617320746f206265206174206c65617374206f6e6520776f72640000000000604482015290519081900360640190fd5b6040836001600160401b031611156103115760405162461bcd60e51b8152600401808060200182810382526028815260200180610de46028913960400191505060405180910390fd5b6000825111610367576040805162461bcd60e51b815260206004820152601f60248201527f54686520696e7075742061727261792063616e6e6f7420626520656d70747900604482015290519081900360640190fd5b815182906001600160401b036002198601811660020a16908110156103bd5760405162461bcd60e51b8152600401808060200182810382526031815260200180610d2f6031913960400191505060405180910390fd5b8084511461049a576060816001600160401b03811180156103dd57600080fd5b50604051908082528060200260200182016040528015610407578160200160208202803683370190505b50905060005b85518110156104575785818151811061042257fe5b602002602001015182828151811061043657fe5b6001600160c01b03199092166020928302919091019091015260010161040d565b5084515b815181101561049657600060c01b82828151811061047557fe5b6001600160c01b03199092166020928302919091019091015260010161045b565b5091505b606082516001600160401b03811180156104b357600080fd5b506040519080825280602002602001820160405280156104dd578160200160208202803683370190505b50905060005b835181101561054f578381815181106104f857fe5b602002602001015160405160200180826001600160c01b03191681526008019150506040516020818303038152906040528051906020012082828151811061053c57fe5b60209081029190910101526001016104e3565b50600073__$c7dbd794b8c7b5c2028db781007df1176e$__6382b0eab8836040518263ffffffff1660e01b81526004018080602001828103825283818151815260200191508051906020019060200280838360005b838110156105bc5781810151838201526020016105a4565b505050509050019250505060206040518083038186803b1580156105df57600080fd5b505af41580156105f3573d6000803e3d6000fd5b505050506040513d602081101561060957600080fd5b50516040805180820182526001600160401b038a8116808352602080840186815260038054600181018255600091825295517fc2575a0e9e593c00f959f8c92f12db2869c3395a3b0502d05e2516446f71f85b6002909702968701805467ffffffffffffffff19169190961617909455517fc2575a0e9e593c00f959f8c92f12db2869c3395a3b0502d05e2516446f71f85c909401939093556004548451808501929092528482528b51948201949094528a5194955085947f5fdb13b5e276437af6afb5d6bede9cf90cb8cd2f13c93048434bf9fcf7284622938c938e93928392606084019287820192909102908190849084905b838110156107165781810151838201526020016106fe565b50505050905001935050505060405180910390a3600081815260208181526040808320805460ff19166001908117909155600480548285528386208190558552600290935292208390558054909101905593505050505b92915050565b600060045482106107b55760405162461bcd60e51b8152600401808060200182810382526026815260200180610e0c6026913960400191505060405180910390fd5b5060009081526002602052604090205490565b60009081526001602052604090205490565b600073__$c7dbd794b8c7b5c2028db781007df1176e$__63d82ae4b183516040518263ffffffff1660e01b81526004018082815260200191505060206040518083038186803b15801561082c57600080fd5b505af4158015610840573d6000803e3d6000fd5b505050506040513d602081101561085657600080fd5b50516108935760405162461bcd60e51b8152600401808060200182810382526030815260200180610d866030913960400191505060405180910390fd5b60005b8251811015610974578281815181106108ab57fe5b6020026020010151600454116108f25760405162461bcd60e51b8152600401808060200182810382526026815260200180610d606026913960400191505060405180910390fd5b600383828151811061090057fe5b60200260200101518154811061091257fe5b60009182526020909120600290910201546001600160401b0385811691161461096c5760405162461bcd60e51b815260040180806020018281038252602e815260200180610db6602e913960400191505060405180910390fd5b600101610896565b50606082516001600160401b038111801561098e57600080fd5b506040519080825280602002602001820160405280156109b8578160200160208202803683370190505b50905060005b8351811015610a185760038482815181106109d557fe5b6020026020010151815481106109e757fe5b906000526020600020906002020160010154828281518110610a0557fe5b60209081029190910101526001016109be565b50600073__$c7dbd794b8c7b5c2028db781007df1176e$__6382b0eab8836040518263ffffffff1660e01b81526004018080602001828103825283818151815260200191508051906020019060200280838360005b83811015610a85578181015183820152602001610a6d565b505050509050019250505060206040518083038186803b158015610aa857600080fd5b505af4158015610abc573d6000803e3d6000fd5b505050506040513d6020811015610ad257600080fd5b50518451604080516306c8e54b60e01b815260048101929092525191925060009173__$c7dbd794b8c7b5c2028db781007df1176e$__916306c8e54b916024808301926020929190829003018186803b158015610b2e57600080fd5b505af4158015610b42573d6000803e3d6000fd5b505050506040513d6020811015610b5857600080fd5b505160408051808201825260ff9092168881016001600160401b03818116808652602080870189815260038054600181018255600091825298517fc2575a0e9e593c00f959f8c92f12db2869c3395a3b0502d05e2516446f71f85b6002909a02998a01805467ffffffffffffffff19169190961617909455517fc2575a0e9e593c00f959f8c92f12db2869c3395a3b0502d05e2516446f71f85c909701969096556004548551808801929092528582528b51958201959095528a5193965087957f89cefba87d8a8fa0db60ec3681079c7740b90465999c62cd7c00d65d3c9e57a9948c949383926060840192878201929102908190849084905b83811015610c6a578181015183820152602001610c52565b50505050905001935050505060405180910390a350600081815260208181526040808320805460ff19166001908117909155600480548285528386208190558552600290935292208390558054909101905591505092915050565b60008281526020819052604081205460ff1615610d2557600083815260016020526040902054600380546001600160401b03851692908110610d0357fe5b60009182526020909120600290910201546001600160401b031614905061076d565b5060009291505056fe54686520696e70757420617272617920697320626967676572207468616e206465636c61726564206c6f67322073697a6554686520696e646578206f6620686973746f727920646f65736e27742065786973742079657454686520696e707574206172726179206d75737420636f6e7461696e20706f776572206f66203220656c656d656e74735468652076616c7565206f66206c6f673253697a6520646f65736e2774206d6174636820696e20686973746f727943616e6e6f7420626520626967676572207468616e20746865206d616368696e6520697473656c6654686520696e64657820646f65736e277420657869737420696e2074686520686973746f7279a26469706673582212200d8e6b39637d32a688a53738636551fb05c545bad85c626415b4bfe225f871fa64736f6c63430007040033",
  "libraries": {
    "Merkle": "0x67B95A051EbcE8e482bCf387d80D3fb25592A1D2"
  },
  "devdoc": {
    "author": "Stephen Chen",
    "details": "This contract is not well-tested yet.",
    "kind": "dev",
    "methods": {},
    "title": "Logger",
    "version": 1
  },
  "userdoc": {
    "kind": "user",
    "methods": {
      "calculateMerkleRootFromData(uint64,bytes8[])": {
        "notice": "Calculate the Merkle tree and return the root hash"
      },
      "calculateMerkleRootFromHistory(uint64,uint256[])": {
        "notice": "Calculate the Merkle tree and return the root hash"
      },
      "getLogIndex(bytes32)": {
        "notice": "Getter function to get the index in the history for the given hash"
      },
      "getLogRoot(uint256)": {
        "notice": "Getter function to get the root in the history for the given index"
      },
      "isLogAvailable(bytes32,uint64)": {
        "notice": "Getter function to check if log has been submitted for the given hash"
      }
    },
    "notice": "A contract that offers data availability",
    "version": 1
  },
  "storageLayout": {
    "storage": [
      {
        "astId": 586,
        "contract": "contracts/Logger.sol:Logger",
        "label": "logSubmitted",
        "offset": 0,
        "slot": "0",
        "type": "t_mapping(t_bytes32,t_bool)"
      },
      {
        "astId": 590,
        "contract": "contracts/Logger.sol:Logger",
        "label": "logIndex",
        "offset": 0,
        "slot": "1",
        "type": "t_mapping(t_bytes32,t_uint256)"
      },
      {
        "astId": 594,
        "contract": "contracts/Logger.sol:Logger",
        "label": "logRoot",
        "offset": 0,
        "slot": "2",
        "type": "t_mapping(t_uint256,t_bytes32)"
      },
      {
        "astId": 597,
        "contract": "contracts/Logger.sol:Logger",
        "label": "dataHistory",
        "offset": 0,
        "slot": "3",
        "type": "t_array(t_struct(DataEntry)582_storage)dyn_storage"
      },
      {
        "astId": 600,
        "contract": "contracts/Logger.sol:Logger",
        "label": "currentIndex",
        "offset": 0,
        "slot": "4",
        "type": "t_uint256"
      }
    ],
    "types": {
      "t_array(t_struct(DataEntry)582_storage)dyn_storage": {
        "base": "t_struct(DataEntry)582_storage",
        "encoding": "dynamic_array",
        "label": "struct Logger.DataEntry[]",
        "numberOfBytes": "32"
      },
      "t_bool": {
        "encoding": "inplace",
        "label": "bool",
        "numberOfBytes": "1"
      },
      "t_bytes32": {
        "encoding": "inplace",
        "label": "bytes32",
        "numberOfBytes": "32"
      },
      "t_mapping(t_bytes32,t_bool)": {
        "encoding": "mapping",
        "key": "t_bytes32",
        "label": "mapping(bytes32 => bool)",
        "numberOfBytes": "32",
        "value": "t_bool"
      },
      "t_mapping(t_bytes32,t_uint256)": {
        "encoding": "mapping",
        "key": "t_bytes32",
        "label": "mapping(bytes32 => uint256)",
        "numberOfBytes": "32",
        "value": "t_uint256"
      },
      "t_mapping(t_uint256,t_bytes32)": {
        "encoding": "mapping",
        "key": "t_uint256",
        "label": "mapping(uint256 => bytes32)",
        "numberOfBytes": "32",
        "value": "t_bytes32"
      },
      "t_struct(DataEntry)582_storage": {
        "encoding": "inplace",
        "label": "struct Logger.DataEntry",
        "members": [
          {
            "astId": 579,
            "contract": "contracts/Logger.sol:Logger",
            "label": "log2Size",
            "offset": 0,
            "slot": "0",
            "type": "t_uint64"
          },
          {
            "astId": 581,
            "contract": "contracts/Logger.sol:Logger",
            "label": "root",
            "offset": 0,
            "slot": "1",
            "type": "t_bytes32"
          }
        ],
        "numberOfBytes": "64"
      },
      "t_uint256": {
        "encoding": "inplace",
        "label": "uint256",
        "numberOfBytes": "32"
      },
      "t_uint64": {
        "encoding": "inplace",
        "label": "uint64",
        "numberOfBytes": "8"
      }
    }
  }
}