{
  "address": "0x956AdB4Da43cac4dc155D5127e989B5282A4CDD9",
  "abi": [
    {
      "inputs": [
        {
          "internalType": "address",
          "name": "_workerManager",
          "type": "address"
        }
      ],
      "stateMutability": "nonpayable",
      "type": "constructor"
    },
    {
      "anonymous": false,
      "inputs": [
        {
          "indexed": true,
          "internalType": "address",
          "name": "user",
          "type": "address"
        },
        {
          "indexed": true,
          "internalType": "address",
          "name": "worker",
          "type": "address"
        },
        {
          "indexed": true,
          "internalType": "address",
          "name": "dapp",
          "type": "address"
        }
      ],
      "name": "Authorization",
      "type": "event"
    },
    {
      "anonymous": false,
      "inputs": [
        {
          "indexed": true,
          "internalType": "address",
          "name": "user",
          "type": "address"
        },
        {
          "indexed": true,
          "internalType": "address",
          "name": "worker",
          "type": "address"
        },
        {
          "indexed": true,
          "internalType": "address",
          "name": "dapp",
          "type": "address"
        }
      ],
      "name": "Deauthorization",
      "type": "event"
    },
    {
      "inputs": [
        {
          "internalType": "address",
          "name": "_workerAddress",
          "type": "address"
        },
        {
          "internalType": "address",
          "name": "_dappAddress",
          "type": "address"
        }
      ],
      "name": "authorize",
      "outputs": [],
      "stateMutability": "nonpayable",
      "type": "function"
    },
    {
      "inputs": [
        {
          "internalType": "address",
          "name": "_workerAddress",
          "type": "address"
        },
        {
          "internalType": "address",
          "name": "_dappAddress",
          "type": "address"
        }
      ],
      "name": "deauthorize",
      "outputs": [],
      "stateMutability": "nonpayable",
      "type": "function"
    },
    {
      "inputs": [
        {
          "internalType": "address",
          "name": "_workerAddress",
          "type": "address"
        }
      ],
      "name": "getOwner",
      "outputs": [
        {
          "internalType": "address",
          "name": "",
          "type": "address"
        }
      ],
      "stateMutability": "view",
      "type": "function"
    },
    {
      "inputs": [
        {
          "internalType": "address",
          "name": "_workerAddress",
          "type": "address"
        },
        {
          "internalType": "address",
          "name": "_dappAddress",
          "type": "address"
        }
      ],
      "name": "isAuthorized",
      "outputs": [
        {
          "internalType": "bool",
          "name": "",
          "type": "bool"
        }
      ],
      "stateMutability": "view",
      "type": "function"
    }
  ],
  "transactionHash": "0x1b2781ad5465ba104439b66ad3d9df42103d9e64c4a3044f617f0aef8e827502",
  "args": [
    "0x101269CD4b3433bB2DeA97faFE10BEa1B9D1F96e"
  ],
  "bytecode": "0x608060405234801561001057600080fd5b5060405161067e38038061067e8339818101604052602081101561003357600080fd5b5051600080546001600160a01b039092166001600160a01b0319909216919091179055610619806100656000396000f3fe608060405234801561001057600080fd5b506004361061004c5760003560e01c80632bef45951461005157806365e4ad9e146100815780636d892f7e146100c3578063fa544161146100f1575b600080fd5b61007f6004803603604081101561006757600080fd5b506001600160a01b0381358116916020013516610133565b005b6100af6004803603604081101561009757600080fd5b506001600160a01b03813581169160200135166102d5565b604080519115158252519081900360200190f35b61007f600480360360408110156100d957600080fd5b506001600160a01b0381358116916020013516610379565b6101176004803603602081101561010757600080fd5b50356001600160a01b0316610512565b604080516001600160a01b039092168252519081900360200190f35b6000546040805163fa54416160e01b81526001600160a01b038086166004830152915185933393169163fa544161916024808301926020929190829003018186803b15801561018157600080fd5b505afa158015610195573d6000803e3d6000fd5b505050506040513d60208110156101ab57600080fd5b50516001600160a01b031614610208576040805162461bcd60e51b815260206004820152601a60248201527f776f726b6572206e6f742068697265642062792073656e646572000000000000604482015290519081900360640190fd5b6000610215338585610592565b60008181526001602052604090205490915060ff161561027c576040805162461bcd60e51b815260206004820152601760248201527f6461707020616c726561647920617574686f72697a6564000000000000000000604482015290519081900360640190fd5b6000818152600160208190526040808320805460ff1916909217909155516001600160a01b03808616929087169133917fde756a416a233cdb16c23a1fa5dcb3113164968df8607e0a4eeca25974b96e0391a450505050565b600080546040805163fa54416160e01b81526001600160a01b0386811660048301529151600193859361035e9391169163fa54416191602480820192602092909190829003018186803b15801561032b57600080fd5b505afa15801561033f573d6000803e3d6000fd5b505050506040513d602081101561035557600080fd5b50518686610592565b815260208101919091526040016000205460ff169392505050565b6000546040805163fa54416160e01b81526001600160a01b038086166004830152915185933393169163fa544161916024808301926020929190829003018186803b1580156103c757600080fd5b505afa1580156103db573d6000803e3d6000fd5b505050506040513d60208110156103f157600080fd5b50516001600160a01b03161461044e576040805162461bcd60e51b815260206004820152601a60248201527f776f726b6572206e6f742068697265642062792073656e646572000000000000604482015290519081900360640190fd5b600061045b338585610592565b60008181526001602081905260409091205491925060ff9091161515146104bf576040805162461bcd60e51b815260206004820152601360248201527219185c1c081b9bdd08185d5d1a1bdc9a5e9959606a1b604482015290519081900360640190fd5b600081815260016020526040808220805460ff19169055516001600160a01b03808616929087169133917f4d2275ddb8a6d9c36c95476c2eaf9746c1785b4ab76a99719fd647b36da46cee91a450505050565b600080546040805163fa54416160e01b81526001600160a01b0385811660048301529151919092169163fa544161916024808301926020929190829003018186803b15801561056057600080fd5b505afa158015610574573d6000803e3d6000fd5b505050506040513d602081101561058a57600080fd5b505192915050565b604080516bffffffffffffffffffffffff19606095861b811660208084019190915294861b811660348301529290941b90911660488401528051603c818503018152605c909301905281519101209056fea2646970667358221220a7e3d1b25df315fcc0bbc1574ae1ca7f1e01ed983152dc88c68b6b57975f476d64736f6c63430007040033",
  "devdoc": {
    "kind": "dev",
    "methods": {
      "authorize(address,address)": {
        "params": {
          "_dappAddress": "address of the dapp that permission will be given to",
          "_workerAddress": "address of the worker node to given permission"
        }
      },
      "isAuthorized(address,address)": {
        "params": {
          "_dappAddress": "address of the DApp",
          "_workerAddress": "address of the worker"
        }
      }
    },
    "stateVariables": {
      "permissions": {
        "details": "permissions keyed by hash(user, worker, dapp)"
      }
    },
    "version": 1
  },
  "userdoc": {
    "events": {
      "Authorization(address,address,address)": {
        "notice": "A DApp has been authorized by a user for a worker"
      },
      "Deauthorization(address,address,address)": {
        "notice": "A DApp has been deauthorized by a user for a worker"
      }
    },
    "kind": "user",
    "methods": {
      "authorize(address,address)": {
        "notice": "Gives worker permission to act on a DApp"
      },
      "isAuthorized(address,address)": {
        "notice": "Returns is the dapp is authorized to be called by that worker"
      }
    },
    "version": 1
  },
  "storageLayout": {
    "storage": [
      {
        "astId": 62,
        "contract": "contracts/WorkerAuthManagerImpl.sol:WorkerAuthManagerImpl",
        "label": "workerManager",
        "offset": 0,
        "slot": "0",
        "type": "t_contract(WorkerManager)342"
      },
      {
        "astId": 67,
        "contract": "contracts/WorkerAuthManagerImpl.sol:WorkerAuthManagerImpl",
        "label": "permissions",
        "offset": 0,
        "slot": "1",
        "type": "t_mapping(t_bytes32,t_bool)"
      }
    ],
    "types": {
      "t_bool": {
        "encoding": "inplace",
        "label": "bool",
        "numberOfBytes": "1"
      },
      "t_bytes32": {
        "encoding": "inplace",
        "label": "bytes32",
        "numberOfBytes": "32"
      },
      "t_contract(WorkerManager)342": {
        "encoding": "inplace",
        "label": "contract WorkerManager",
        "numberOfBytes": "20"
      },
      "t_mapping(t_bytes32,t_bool)": {
        "encoding": "mapping",
        "key": "t_bytes32",
        "label": "mapping(bytes32 => bool)",
        "numberOfBytes": "32",
        "value": "t_bool"
      }
    }
  }
}