{
  "address": "0x345929b88947E58E81615D2Ba2E9a9CAed8BA640",
  "abi": [
    {
      "inputs": [
        {
          "internalType": "address",
          "name": "_liAddress",
          "type": "address"
        },
        {
          "internalType": "address",
          "name": "_vgAddress",
          "type": "address"
        },
        {
          "internalType": "address",
          "name": "_machineAddress",
          "type": "address"
        }
      ],
      "stateMutability": "nonpayable",
      "type": "constructor"
    },
    {
      "anonymous": false,
      "inputs": [
        {
          "indexed": false,
          "internalType": "uint256",
          "name": "_index",
          "type": "uint256"
        }
      ],
      "name": "ChallengeStarted",
      "type": "event"
    },
    {
      "anonymous": false,
      "inputs": [
        {
          "indexed": false,
          "internalType": "uint256",
          "name": "_index",
          "type": "uint256"
        },
        {
          "indexed": false,
          "internalType": "bytes32",
          "name": "_claimedFinalHash",
          "type": "bytes32"
        }
      ],
      "name": "ClaimSubmitted",
      "type": "event"
    },
    {
      "anonymous": false,
      "inputs": [
        {
          "indexed": false,
          "internalType": "uint256",
          "name": "_index",
          "type": "uint256"
        }
      ],
      "name": "DescartesCreated",
      "type": "event"
    },
    {
      "anonymous": false,
      "inputs": [
        {
          "indexed": false,
          "internalType": "uint256",
          "name": "_index",
          "type": "uint256"
        },
        {
          "indexed": false,
          "internalType": "uint8",
          "name": "_state",
          "type": "uint8"
        }
      ],
      "name": "DescartesFinished",
      "type": "event"
    },
    {
      "anonymous": false,
      "inputs": [
        {
          "indexed": false,
          "internalType": "uint256",
          "name": "_index",
          "type": "uint256"
        },
        {
          "components": [
            {
              "internalType": "uint64",
              "name": "position",
              "type": "uint64"
            },
            {
              "internalType": "uint8",
              "name": "driveLog2Size",
              "type": "uint8"
            },
            {
              "internalType": "bytes",
              "name": "directValue",
              "type": "bytes"
            },
            {
              "internalType": "bytes",
              "name": "loggerIpfsPath",
              "type": "bytes"
            },
            {
              "internalType": "bytes32",
              "name": "loggerRootHash",
              "type": "bytes32"
            },
            {
              "internalType": "address",
              "name": "provider",
              "type": "address"
            },
            {
              "internalType": "bool",
              "name": "waitsProvider",
              "type": "bool"
            },
            {
              "internalType": "bool",
              "name": "needsLogger",
              "type": "bool"
            }
          ],
          "indexed": false,
          "internalType": "struct DescartesInterface.Drive",
          "name": "_drive",
          "type": "tuple"
        }
      ],
      "name": "DriveInserted",
      "type": "event"
    },
    {
      "anonymous": false,
      "inputs": [
        {
          "indexed": false,
          "internalType": "uint256",
          "name": "_index",
          "type": "uint256"
        }
      ],
      "name": "ResultConfirmed",
      "type": "event"
    },
    {
      "inputs": [
        {
          "internalType": "uint256",
          "name": "_index",
          "type": "uint256"
        }
      ],
      "name": "abortByDeadline",
      "outputs": [],
      "stateMutability": "nonpayable",
      "type": "function"
    },
    {
      "inputs": [
        {
          "internalType": "uint256",
          "name": "_index",
          "type": "uint256"
        }
      ],
      "name": "challenge",
      "outputs": [],
      "stateMutability": "nonpayable",
      "type": "function"
    },
    {
      "inputs": [
        {
          "internalType": "uint256",
          "name": "_index",
          "type": "uint256"
        }
      ],
      "name": "challengeDrives",
      "outputs": [],
      "stateMutability": "nonpayable",
      "type": "function"
    },
    {
      "inputs": [],
      "name": "currentIndex",
      "outputs": [
        {
          "internalType": "uint256",
          "name": "",
          "type": "uint256"
        }
      ],
      "stateMutability": "view",
      "type": "function"
    },
    {
      "inputs": [
        {
          "internalType": "uint256",
          "name": "_index",
          "type": "uint256"
        }
      ],
      "name": "destruct",
      "outputs": [],
      "stateMutability": "nonpayable",
      "type": "function"
    },
    {
      "inputs": [
        {
          "internalType": "uint256",
          "name": "_index",
          "type": "uint256"
        }
      ],
      "name": "getCurrentState",
      "outputs": [
        {
          "internalType": "bytes32",
          "name": "",
          "type": "bytes32"
        }
      ],
      "stateMutability": "view",
      "type": "function"
    },
    {
      "inputs": [
        {
          "internalType": "uint256",
          "name": "_index",
          "type": "uint256"
        }
      ],
      "name": "getNonce",
      "outputs": [
        {
          "internalType": "uint256",
          "name": "currentNonce",
          "type": "uint256"
        }
      ],
      "stateMutability": "view",
      "type": "function"
    },
    {
      "inputs": [
        {
          "internalType": "uint256",
          "name": "_index",
          "type": "uint256"
        },
        {
          "internalType": "address",
          "name": "_p",
          "type": "address"
        }
      ],
      "name": "getPartyState",
      "outputs": [
        {
          "internalType": "bool",
          "name": "isParty",
          "type": "bool"
        },
        {
          "internalType": "bool",
          "name": "hasVoted",
          "type": "bool"
        },
        {
          "internalType": "bool",
          "name": "hasCheated",
          "type": "bool"
        }
      ],
      "stateMutability": "view",
      "type": "function"
    },
    {
      "inputs": [
        {
          "internalType": "uint256",
          "name": "_index",
          "type": "uint256"
        }
      ],
      "name": "getResult",
      "outputs": [
        {
          "internalType": "bool",
          "name": "",
          "type": "bool"
        },
        {
          "internalType": "bool",
          "name": "",
          "type": "bool"
        },
        {
          "internalType": "address",
          "name": "",
          "type": "address"
        },
        {
          "internalType": "bytes",
          "name": "",
          "type": "bytes"
        }
      ],
      "stateMutability": "view",
      "type": "function"
    },
    {
      "inputs": [
        {
          "internalType": "uint256",
          "name": "_index",
          "type": "uint256"
        },
        {
          "internalType": "address",
          "name": "_user",
          "type": "address"
        }
      ],
      "name": "getState",
      "outputs": [
        {
          "internalType": "uint256[]",
          "name": "",
          "type": "uint256[]"
        },
        {
          "internalType": "address[]",
          "name": "",
          "type": "address[]"
        },
        {
          "internalType": "bytes32[]",
          "name": "",
          "type": "bytes32[]"
        },
        {
          "internalType": "bytes",
          "name": "",
          "type": "bytes"
        },
        {
          "components": [
            {
              "internalType": "uint64",
              "name": "position",
              "type": "uint64"
            },
            {
              "internalType": "uint8",
              "name": "driveLog2Size",
              "type": "uint8"
            },
            {
              "internalType": "bytes",
              "name": "directValue",
              "type": "bytes"
            },
            {
              "internalType": "bytes",
              "name": "loggerIpfsPath",
              "type": "bytes"
            },
            {
              "internalType": "bytes32",
              "name": "loggerRootHash",
              "type": "bytes32"
            },
            {
              "internalType": "address",
              "name": "provider",
              "type": "address"
            },
            {
              "internalType": "bool",
              "name": "waitsProvider",
              "type": "bool"
            },
            {
              "internalType": "bool",
              "name": "needsLogger",
              "type": "bool"
            }
          ],
          "internalType": "struct DescartesInterface.Drive[]",
          "name": "",
          "type": "tuple[]"
        },
        {
          "components": [
            {
              "internalType": "bool",
              "name": "isParty",
              "type": "bool"
            },
            {
              "internalType": "bool",
              "name": "hasVoted",
              "type": "bool"
            },
            {
              "internalType": "bool",
              "name": "hasCheated",
              "type": "bool"
            },
            {
              "internalType": "uint64",
              "name": "arrayIdx",
              "type": "uint64"
            }
          ],
          "internalType": "struct DescartesInterface.Party",
          "name": "user",
          "type": "tuple"
        }
      ],
      "stateMutability": "view",
      "type": "function"
    },
    {
      "inputs": [
        {
          "internalType": "uint256",
          "name": "_index",
          "type": "uint256"
        },
        {
          "internalType": "address",
          "name": "",
          "type": "address"
        }
      ],
      "name": "getSubInstances",
      "outputs": [
        {
          "internalType": "address[]",
          "name": "_addresses",
          "type": "address[]"
        },
        {
          "internalType": "uint256[]",
          "name": "_indices",
          "type": "uint256[]"
        }
      ],
      "stateMutability": "view",
      "type": "function"
    },
    {
      "inputs": [
        {
          "internalType": "uint256",
          "name": "_finalTime",
          "type": "uint256"
        },
        {
          "internalType": "bytes32",
          "name": "_templateHash",
          "type": "bytes32"
        },
        {
          "internalType": "uint64",
          "name": "_outputPosition",
          "type": "uint64"
        },
        {
          "internalType": "uint8",
          "name": "_outputLog2Size",
          "type": "uint8"
        },
        {
          "internalType": "uint256",
          "name": "_roundDuration",
          "type": "uint256"
        },
        {
          "internalType": "address[]",
          "name": "parties",
          "type": "address[]"
        },
        {
          "components": [
            {
              "internalType": "uint64",
              "name": "position",
              "type": "uint64"
            },
            {
              "internalType": "uint8",
              "name": "driveLog2Size",
              "type": "uint8"
            },
            {
              "internalType": "bytes",
              "name": "directValue",
              "type": "bytes"
            },
            {
              "internalType": "bytes",
              "name": "loggerIpfsPath",
              "type": "bytes"
            },
            {
              "internalType": "bytes32",
              "name": "loggerRootHash",
              "type": "bytes32"
            },
            {
              "internalType": "address",
              "name": "provider",
              "type": "address"
            },
            {
              "internalType": "bool",
              "name": "waitsProvider",
              "type": "bool"
            },
            {
              "internalType": "bool",
              "name": "needsLogger",
              "type": "bool"
            }
          ],
          "internalType": "struct DescartesInterface.Drive[]",
          "name": "_inputDrives",
          "type": "tuple[]"
        }
      ],
      "name": "instantiate",
      "outputs": [
        {
          "internalType": "uint256",
          "name": "",
          "type": "uint256"
        }
      ],
      "stateMutability": "nonpayable",
      "type": "function"
    },
    {
      "inputs": [
        {
          "internalType": "uint256",
          "name": "_index",
          "type": "uint256"
        }
      ],
      "name": "isActive",
      "outputs": [
        {
          "internalType": "bool",
          "name": "",
          "type": "bool"
        }
      ],
      "stateMutability": "view",
      "type": "function"
    },
    {
      "inputs": [
        {
          "internalType": "uint256",
          "name": "_index",
          "type": "uint256"
        },
        {
          "internalType": "address",
          "name": "_user",
          "type": "address"
        }
      ],
      "name": "isConcerned",
      "outputs": [
        {
          "internalType": "bool",
          "name": "",
          "type": "bool"
        }
      ],
      "stateMutability": "view",
      "type": "function"
    },
    {
      "inputs": [
        {
          "internalType": "uint256",
          "name": "_index",
          "type": "uint256"
        },
        {
          "internalType": "bytes",
          "name": "_value",
          "type": "bytes"
        }
      ],
      "name": "provideDirectDrive",
      "outputs": [],
      "stateMutability": "nonpayable",
      "type": "function"
    },
    {
      "inputs": [
        {
          "internalType": "uint256",
          "name": "_index",
          "type": "uint256"
        },
        {
          "internalType": "bytes32",
          "name": "_root",
          "type": "bytes32"
        }
      ],
      "name": "provideLoggerDrive",
      "outputs": [],
      "stateMutability": "nonpayable",
      "type": "function"
    },
    {
      "inputs": [
        {
          "internalType": "uint256",
          "name": "_index",
          "type": "uint256"
        }
      ],
      "name": "revealLoggerDrive",
      "outputs": [],
      "stateMutability": "nonpayable",
      "type": "function"
    },
    {
      "inputs": [
        {
          "internalType": "uint256",
          "name": "_index",
          "type": "uint256"
        },
        {
          "internalType": "bytes32",
          "name": "_claimedFinalHash",
          "type": "bytes32"
        },
        {
          "internalType": "bytes32[][]",
          "name": "_drivesSiblings",
          "type": "bytes32[][]"
        },
        {
          "internalType": "bytes",
          "name": "_output",
          "type": "bytes"
        },
        {
          "internalType": "bytes32[]",
          "name": "_outputSiblings",
          "type": "bytes32[]"
        }
      ],
      "name": "submitClaim",
      "outputs": [],
      "stateMutability": "nonpayable",
      "type": "function"
    },
    {
      "inputs": [
        {
          "internalType": "uint256",
          "name": "_index",
          "type": "uint256"
        }
      ],
      "name": "winByVG",
      "outputs": [],
      "stateMutability": "nonpayable",
      "type": "function"
    }
  ],
  "transactionHash": "0x51858ac44a412778ba53b532f1924417f4229bbc2fb92264fe0fafb132e551a5",
  "args": [
    "0x5A6EECaF0d462976548b069E1e1F7181F559d820",
    "0x75063FbDdCb196a96ed9925ba2EF8E9bdC24c7Da",
    "0x834A95a8e7A6b231222C8a7a463b8f7b10f11b3C"
  ],
  "solcInputHash": "ac48bfdcf0733e150b56cd68d08a08a5",
  "bytecode": "0x6080604052600080553480156200001557600080fd5b5060405162005c1438038062005c14833981016040819052620000389162000099565b600380546001600160a01b03199081166001600160a01b039384161790915560058054821693831693909317909255600480549092169216919091179055620000e2565b80516001600160a01b03811681146200009457600080fd5b919050565b600080600060608486031215620000ae578283fd5b620000b9846200007c565b9250620000c9602085016200007c565b9150620000d9604085016200007c565b90509250925092565b615b2280620000f26000396000f3fe608060405234801561001057600080fd5b50600436106101115760003560e01c8063ab5da187116100ad578063c817592d11610071578063c817592d14610279578063c87e3ae91461028c578063ded4df631461029f578063f9bc3b21146102b2578063fa0ecc5b146102c557610111565b8063ab5da187146101fd578063ab82d9a01461021f578063bfda2e7214610232578063c526656c14610245578063c70683ca1461026657610111565b806301ff62ab1461011657806326987b601461013f578063351e6657146101545780633d46b819146101695780634c6fe7bf1461017c5780635748c1301461018f57806373df1612146101a257806382afd23b146101c7578063995e4339146101da575b600080fd5b6101296101243660046148e2565b6102d8565b6040516101369190614f1c565b60405180910390f35b610147610350565b6040516101369190614f7f565b61016761016236600461492e565b610356565b005b6101476101773660046148ca565b610a4f565b61016761018a3660046148ca565b610af9565b61014761019d3660046148ca565b610cae565b6101b56101b03660046148e2565b610f45565b60405161013696959493929190614e85565b6101296101d53660046148ca565b611925565b6101ed6101e83660046148ca565b61193d565b6040516101369493929190614f27565b61021061020b3660046148e2565b611d33565b60405161013693929190614f65565b61016761022d3660046148ca565b611dc3565b6101676102403660046148ca565b6120e9565b6102586102533660046148e2565b612217565b604051610136929190614e44565b61016761027436600461490d565b612350565b610147610287366004614a16565b612827565b61016761029a3660046148ca565b61303c565b6101676102ad3660046148ca565b61322e565b6101676102c03660046148ca565b613602565b6101676102d3366004614b15565b6139cd565b600082806000541161031f576040805162461bcd60e51b81526020600482015260166024820152600080516020615acd833981519152604482015290519081900360640190fd5b505060009182526006602090815260408084206001600160a01b03939093168452600e909201905290205460ff1690565b60005481565b84806000541161039b576040805162461bcd60e51b81526020600482015260166024820152600080516020615acd833981519152604482015290519081900360640190fd5b6103a481611925565b6103e6576040805162461bcd60e51b815260206004820152600e60248201526d496e64657820696e61637469766560901b604482015290519081900360640190fd5b6000868152600660205260409020600d810154600c820180548993923392916001600160401b0390911690811061041957fe5b6000918252602090912001546001600160a01b0316146104545760405162461bcd60e51b815260040161044b906152b5565b60405180910390fd5b60008881526002602090815260408083208054600101905560069091528120899161047e83613ff8565b600683015401421190506004600f83015460ff16600a81111561049d57fe5b14806104c357506002600f83015460ff16600a8111156104b957fe5b1480156104c35750805b6104df5760405162461bcd60e51b815260040161044b906151b3565b88516013830154146105035760405162461bcd60e51b815260040161044b906150e6565b60048201548851600160401b90910460ff1660020a146105355760405162461bcd60e51b815260040161044b90615753565b606061054089614312565b6004848101546040516310561d5760e31b81529293508d92737f713126D4C7396c3dBE9EdA70C3E7166B2f13149263d7304dd9926001600160401b03811692600160401b90910460ff169185916382b0eab89161059f918a9101614e72565b60206040518083038186803b1580156105b757600080fd5b505af41580156105cb573d6000803e3d6000fd5b505050506040513d601f19601f820116820180604052508101906105ef91906148b2565b8d6040518563ffffffff1660e01b815260040161060f9493929190615a07565b60206040518083038186803b15801561062757600080fd5b505af415801561063b573d6000803e3d6000fd5b505050506040513d601f19601f8201168201806040525081019061065f91906148b2565b1461067c5760405162461bcd60e51b815260040161044b90614fe4565b601383015460005b8181101561096d5760608c828151811061069a57fe5b602002602001015190508560090154737f713126D4C7396c3dBE9EdA70C3E7166B2f131463d7304dd98860130185815481106106d257fe5b600091825260209091206005909102015460138a0180546001600160401b0390921691879081106106ff57fe5b906000526020600020906005020160000160089054906101000a900460ff16737f713126D4C7396c3dBE9EdA70C3E7166B2f131463a73426888c601301898154811061074757fe5b600091825260209091206005909102015460405160e083901b6001600160e01b031916815261078391600160401b900460ff1690600401615a38565b60206040518083038186803b15801561079b57600080fd5b505af41580156107af573d6000803e3d6000fd5b505050506040513d601f19601f820116820180604052508101906107d391906148b2565b866040518563ffffffff1660e01b81526004016107f39493929190615a07565b60206040518083038186803b15801561080b57600080fd5b505af415801561081f573d6000803e3d6000fd5b505050506040513d601f19601f8201168201806040525081019061084391906148b2565b146108605760405162461bcd60e51b815260040161044b90615074565b737f713126D4C7396c3dBE9EdA70C3E7166B2f131463d7304dd987601301848154811061088957fe5b60009182526020909120600590910201546013890180546001600160401b0390921691869081106108b657fe5b906000526020600020906005020160000160089054906101000a900460ff168960120186815481106108e457fe5b9060005260206000200154856040518563ffffffff1660e01b815260040161090f9493929190615a07565b60206040518083038186803b15801561092757600080fd5b505af415801561093b573d6000803e3d6000fd5b505050506040513d601f19601f8201168201806040525081019061095f91906148b2565b600987015550600101610684565b50600a84018c9055600f8401805460ff19166006179055895161099990600b86019060208d0190614429565b50600d840154600c85018054600192600e88019260009290916001600160401b03169081106109c457fe5b60009182526020808320909101546001600160a01b03168352820192909252604090810190912080549215156101000261ff001990931692909217909155426006860155517f1e9358f673ff367487ce56f136412ae5b69bf2c06e223aad2756d748c2a9b52a90610a38908f908f90615913565b60405180910390a150505050505050505050505050565b6000818060005411610a96576040805162461bcd60e51b81526020600482015260166024820152600080516020615acd833981519152604482015290519081900360640190fd5b610a9f81611925565b610ae1576040805162461bcd60e51b815260206004820152600e60248201526d496e64657820696e61637469766560901b604482015290519081900360640190fd5b60008381526002602052604090205491505b50919050565b808060005411610b3e576040805162461bcd60e51b81526020600482015260166024820152600080516020615acd833981519152604482015290519081900360640190fd5b610b4781611925565b610b89576040805162461bcd60e51b815260206004820152600e60248201526d496e64657820696e61637469766560901b604482015290519081900360640190fd5b600082815260066020526040812090610ba184613ff8565b8260060154014211905080610bc85760405162461bcd60e51b815260040161044b90615342565b6000600f83015460ff16600a811115610bdd57fe5b1415610c0057600f820180546001919060ff191682805b02179055505050610caa565b6003600f83015460ff16600a811115610c1557fe5b1415610c3057600f820180546001919060ff19168280610bf4565b6004600f83015460ff16600a811115610c4557fe5b1415610c6157600f820180546005919060ff1916600183610bf4565b6006600f83015460ff16600a811115610c7657fe5b1415610c9257600f82018054600a919060ff1916600183610bf4565b60405162461bcd60e51b815260040161044b9061549a565b5050565b6000818060005411610cf5576040805162461bcd60e51b81526020600482015260166024820152600080516020615acd833981519152604482015290519081900360640190fd5b6000838152600660205260408120600f015460ff169081600a811115610d1757fe5b1415610d39576f57616974696e6750726f76696465727360801b925050610af3565b600381600a811115610d4757fe5b1415610d67576d57616974696e6752657665616c7360901b925050610af3565b600281600a811115610d7557fe5b1415610d9d577557616974696e674368616c6c656e676544726976657360501b925050610af3565b600581600a811115610dab57fe5b1415610dd25774436c61696d65724d6973736564446561646c696e6560581b925050610af3565b600181600a811115610de057fe5b1415610e08577550726f76696465724d6973736564446561646c696e6560501b925050610af3565b600481600a811115610e1657fe5b1415610e34576b57616974696e67436c61696d60a01b925050610af3565b600681600a811115610e4257fe5b1415610e71577f57616974696e67436f6e6669726d6174696f6e446561646c696e650000000000925050610af3565b600781600a811115610e7f57fe5b1415610ea7577515d85a5d1a5b99d0da185b1b195b99d954995cdd5b1d60521b925050610af3565b600a81600a811115610eb557fe5b1415610ed6576e10dbdb9cd95b9cdd5cd4995cdd5b1d608a1b925050610af3565b600881600a811115610ee457fe5b1415610f03576c21b430b63632b733b2b92bb7b760991b925050610af3565b600981600a811115610f1157fe5b1415610f2d576921b630b4b6b2b92bb7b760b11b925050610af3565b60405162461bcd60e51b815260040161044b906154d1565b6060806060806060610f556144b5565b878060005411610f9a576040805162461bcd60e51b81526020600482015260166024820152600080516020615acd833981519152604482015290519081900360640190fd5b60008981526006602090815260408083206001600160a01b038c168452600e8101835292819020815160808082018452915460ff808216151583526101008204811615158387015262010000820416151582850152630100000090046001600160401b03166060808301919091528351600480825260a0820190955291975093909291908301908036833701905050905081600301548160008151811061103d57fe5b6020026020010181815250506110528b613ff8565b8260060154018160018151811061106557fe5b6020908102919091010152600482015481516001600160401b03909116908290600290811061109057fe5b6020026020010181815250508160040160089054906101000a900460ff1660ff16816003815181106110be57fe5b6020908102919091010152604080516002808252606082810190935281602001602082028036833701905050600d840154909150600160401b90046001600160401b03161561116f57600d830154600c840180549091600160401b90046001600160401b031690811061112d57fe5b600091825260208220015482516001600160a01b0390911691839161114e57fe5b60200260200101906001600160a01b031690816001600160a01b0316815250505b600d830154600c8401805490916001600160401b031690811061118e57fe5b9060005260206000200160009054906101000a90046001600160a01b0316816001815181106111b957fe5b6001600160a01b039290921660209283029190910182015260408051600480825260a08201909252606092909190820160808036833701905050905083600801548160008151811061120757fe5b60200260200101818152505083600901548160018151811061122557fe5b60200260200101818152505083600a01548160028151811061124357fe5b6020026020010181815250506112588d610cae565b8160038151811061126557fe5b60209081029190910101526000600f85015460ff16600a81111561128557fe5b141561155e57604080516001808252818301909252606091816020015b6112aa6144dc565b8152602001906001900390816112a257905050905084601301856011018660020154815481106112d657fe5b9060005260206000200154815481106112eb57fe5b600091825260209182902060408051610100808201835260059490940290920180546001600160401b0381168452600160401b900460ff1683860152600180820180548451600293821615909702600019011691909104601f81018790048702860187018452808652939591949286019390918301828280156113af5780601f10611384576101008083540402835291602001916113af565b820191906000526020600020905b81548152906001019060200180831161139257829003601f168201915b5050509183525050600282810180546040805160206001841615610100026000190190931694909404601f810183900483028501830190915280845293810193908301828280156114415780601f1061141657610100808354040283529160200191611441565b820191906000526020600020905b81548152906001019060200180831161142457829003601f168201915b5050509183525050600382015460208201526004909101546001600160a01b038116604083015260ff600160a01b8204811615156060840152600160a81b9091041615156080909101528151829060009061149857fe5b602002602001018190525083838387600b01848b828054600181600116156101000203166002900480601f0160208091040260200160405190810160405280929190818152602001828054600181600116156101000203166002900480156115415780601f1061151657610100808354040283529160200191611541565b820191906000526020600020905b81548152906001019060200180831161152457829003601f168201915b505050505092509b509b509b509b509b509b50505050505061191a565b6003600f85015460ff16600a81111561157357fe5b14156115c457604080516001808252818301909252606091816020015b6115986144dc565b81526020019060019003908161159057905050905084601301856010018660010154815481106112d657fe5b6001600f85015460ff16600a8111156115d957fe5b14156116885760408051600080825260208201909252606091611612565b6115ff6144dc565b8152602001906001900390816115f75790505b50905083838387600b01848b828054600181600116156101000203166002900480601f0160208091040260200160405190810160405280929190818152602001828054600181600116156101000203166002900480156115415780601f1061151657610100808354040283529160200191611541565b600b84018054604080516020601f60026000196101006001881615020190951694909404938401819004810282018101909252828152869386938693919260138b01928d9285918301828280156117205780601f106116f557610100808354040283529160200191611720565b820191906000526020600020905b81548152906001019060200180831161170357829003601f168201915b5050505050925081805480602002602001604051908101604052809291908181526020016000905b828210156119035760008481526020908190206040805161010080820183526005870290930180546001600160401b0381168352600160401b900460ff1682860152600180820180548551600293821615909702600019011691909104601f8101879004870286018701855280865292959194938601939290918301828280156118135780601f106117e857610100808354040283529160200191611813565b820191906000526020600020905b8154815290600101906020018083116117f657829003601f168201915b5050509183525050600282810180546040805160206001841615610100026000190190931694909404601f810183900483028501830190915280845293810193908301828280156118a55780601f1061187a576101008083540402835291602001916118a5565b820191906000526020600020905b81548152906001019060200180831161188857829003601f168201915b505050918352505060038201546020808301919091526004909201546001600160a01b038116604083015260ff600160a01b8204811615156060840152600160a81b9091041615156080909101529082526001929092019101611748565b5050505091509a509a509a509a509a509a50505050505b509295509295509295565b60008181526001602052604090205460ff165b919050565b60008060006060848060005411611989576040805162461bcd60e51b81526020600482015260166024820152600080516020615acd833981519152604482015290519081900360640190fd5b6000868152600660205260409020600a600f82015460ff16600a8111156119ac57fe5b1415611a6557600160008083600b01808054600181600116156101000203166002900480601f016020809104026020016040519081016040528092919081815260200182805460018160011615610100020316600290048015611a505780601f10611a2557610100808354040283529160200191611a50565b820191906000526020600020905b815481529060010190602001808311611a3357829003601f168201915b50505050509050955095509550955050611d2b565b6000600f82015460ff16600a811115611a7a57fe5b1480611a9857506002600f82015460ff16600a811115611a9657fe5b145b80611ab557506004600f82015460ff16600a811115611ab357fe5b145b80611ad257506006600f82015460ff16600a811115611ad057fe5b145b80611aef57506007600f82015460ff16600a811115611aed57fe5b145b80611b0c57506003600f82015460ff16600a811115611b0a57fe5b145b15611b355760006001600060405180602001604052806000815250955095509550955050611d2b565b6001600f82015460ff16600a811115611b4a57fe5b1415611c4d57600087815260066020526040812060118101546002909101541015611bbf578160130182601101836002015481548110611b8657fe5b906000526020600020015481548110611b9b57fe5b60009182526020909120600460059092020101546001600160a01b03169050611c2a565b600088815260066020526040902060108101546001909101541015611c2a578160130182601001836001015481548110611bf557fe5b906000526020600020015481548110611c0a57fe5b60009182526020909120600460059092020101546001600160a01b031690505b600080826040518060200160405280600081525096509650965096505050611d2b565b6005600f82015460ff16600a811115611c6257fe5b1480611c8057506008600f82015460ff16600a811115611c7e57fe5b145b15611cde57600d810154600c820180546000928392916001600160401b03909116908110611caa57fe5b60009182526020808320909101546040805192830190529181529298509096506001600160a01b031694509250611d2b9050565b6009600f82015460ff16600a811115611cf357fe5b1415610f2d5760008082600c0183600d0160089054906101000a90046001600160401b03166001600160401b031681548110611caa57fe5b509193509193565b6000806000848060005411611d7d576040805162461bcd60e51b81526020600482015260166024820152600080516020615acd833981519152604482015290519081900360640190fd5b5050506000928352506006602090815260408084206001600160a01b039093168452600e909201905290205460ff80821692610100830482169262010000900490911690565b808060005411611e08576040805162461bcd60e51b81526020600482015260166024820152600080516020615acd833981519152604482015290519081900360640190fd5b611e1181611925565b611e53576040805162461bcd60e51b815260206004820152600e60248201526d496e64657820696e61637469766560901b604482015290519081900360640190fd5b6000828152600660209081526040808320338452600e81019092529091205483919060ff16611e945760405162461bcd60e51b815260040161044b906158cb565b6000848152600660209081526040808320338452600e810190925290912054859190610100900460ff1615611edb5760405162461bcd60e51b815260040161044b906155ac565b6000868152600260209081526040808320805460010190556006918290529091208791600f82015460ff16600a811115611f1157fe5b14611f2e5760405162461bcd60e51b815260040161044b90614f99565b600554600d820154600c830180546001600160a01b03909316926320b73870923392916001600160401b03909116908110611f6557fe5b6000918252602090912001546005850154600380546009880154600a890154928901546040516001600160e01b031960e08a901b168152611fbb97966001600160a01b0390811696959416939190600401614e00565b602060405180830381600087803b158015611fd557600080fd5b505af1158015611fe9573d6000803e3d6000fd5b505050506040513d601f19601f8201168201806040525081019061200d91906148b2565b600780830191909155600f8201805460ff19166001830217905550336000908152600e8201602052604090819020805461ff0019166101001790819055600d83018054600160801b600160401b6001600160401b03630100000090950485160267ffffffffffffffff60401b199092169190911781810484166001019093160267ffffffffffffffff60801b19909216919091179055426006830155517fa895da4b794aeba8d8082db237265459db7b7ffdb5aa7c2332a7c5eafbfae735906120d7908a90614f7f565b60405180910390a15050505050505050565b80806000541161212e576040805162461bcd60e51b81526020600482015260166024820152600080516020615acd833981519152604482015290519081900360640190fd5b61213781611925565b612179576040805162461bcd60e51b815260206004820152600e60248201526d496e64657820696e61637469766560901b604482015290519081900360640190fd5b60008281526002602081815260408084208054600101905560069091529091208391600f82015460ff16600a8111156121ae57fe5b146121cb5760405162461bcd60e51b815260040161044b906153de565b336000908152600e8201602052604090205460ff166121fc5760405162461bcd60e51b815260040161044b9061579f565b600f8101805460ff1916600317905542600690910155505050565b60608083806000541161225f576040805162461bcd60e51b81526020600482015260166024820152600080516020615acd833981519152604482015290519081900360640190fd5b60608060076000888152600660205260409020600f015460ff16600a81111561228457fe5b141561232a5760408051600180825281830190925290602080830190803683375050604080516001808252818301909252929450905060208083019080368337505060055484519293506001600160a01b0316918491506000906122e457fe5b6001600160a01b0390921660209283029190910182015260008881526006909152604081206007015482519091839161231957fe5b602002602001018181525050612344565b505060408051600080825260208201908152818301909252905b90969095509350505050565b818060005411612395576040805162461bcd60e51b81526020600482015260166024820152600080516020615acd833981519152604482015290519081900360640190fd5b61239e81611925565b6123e0576040805162461bcd60e51b815260206004820152600e60248201526d496e64657820696e61637469766560901b604482015290519081900360640190fd5b60008381526006602052604081208491600f82015460ff16600a81111561240357fe5b146124205760405162461bcd60e51b815260040161044b906154fd565b60118101546002820154106124475760405162461bcd60e51b815260040161044b9061553e565b60008160110182600201548154811061245c57fe5b906000526020600020015490508160130180549050811061248f5760405162461bcd60e51b815260040161044b90615424565b6124976144dc565b8260130182815481106124a657fe5b600091825260209182902060408051610100808201835260059490940290920180546001600160401b0381168452600160401b900460ff1683860152600180820180548451600293821615909702600019011691909104601f810187900487028601870184528086529395919492860193909183018282801561256a5780601f1061253f5761010080835404028352916020019161256a565b820191906000526020600020905b81548152906001019060200180831161254d57829003601f168201915b5050509183525050600282810180546040805160206001841615610100026000190190931694909404601f810183900483028501830190915280845293810193908301828280156125fc5780601f106125d1576101008083540402835291602001916125fc565b820191906000526020600020905b8154815290600101906020018083116125df57829003601f168201915b5050509183525050600382015460208201526004909101546001600160a01b038116604083015260ff600160a01b8204811615156060840152600160a81b9091041615156080909101526012840180549192506000918490811061265c57fe5b9060005260206000200154146126845760405162461bcd60e51b815260040161044b90615711565b8060c001516126a55760405162461bcd60e51b815260040161044b906157e6565b60a08101516001600160a01b031633146126d15760405162461bcd60e51b815260040161044b90615575565b6000878152600660205260408120600281015460118201805492939290919081106126f857fe5b90600052602060002001549050600082601301828154811061271657fe5b906000526020600020906005020190508060040160159054906101000a900460ff166127545760405162461bcd60e51b815260040161044b90615274565b600381018990556012830180548a91908490811061276e57fe5b60009182526020909120015560028301805460010190819055426006850155601184015414156127c6576010830154156127b657600f8301805460ff191660021790556127c6565b600f8301805460ff191660041790555b7fc33d5cc33df375fac3c4fb6395fac74e37c0183c522e645801a298a6ba8e04a38a8460130184815481106127f757fe5b9060005260206000209060050201604051612813929190615921565b60405180910390a150505050505050505050565b6000603284101561284a5760405162461bcd60e51b815260040161044b9061562b565b600080548152600660205260408120905b8451816001600160401b031610156129f45781600e01600086836001600160401b03168151811061288857fe5b6020908102919091018101516001600160a01b031682528101919091526040016000205460ff16156128cc5760405162461bcd60e51b815260040161044b90615225565b600182600e01600087846001600160401b0316815181106128e957fe5b60200260200101516001600160a01b03166001600160a01b0316815260200190815260200160002060000160006101000a81548160ff0219169083151502179055508082600e01600087846001600160401b03168151811061294757fe5b60200260200101516001600160a01b03166001600160a01b0316815260200190815260200160002060000160036101000a8154816001600160401b0302191690836001600160401b0316021790555081600c0185826001600160401b0316815181106129af57fe5b60209081029190910181015182546001808201855560009485529290932090920180546001600160a01b0319166001600160a01b03909316929092179091550161285b565b508251600090806001600160401b0381118015612a1057600080fd5b50604051908082528060200260200182016040528015612a3a578160200160208202803683370190505b508051612a51916012860191602090910190614522565b5060005b81811015612ed657612a656144dc565b868281518110612a7157fe5b602002602001015190508060e00151612c79576003816020015160ff161015612aac5760405162461bcd60e51b815260040161044b906156ca565b600a816020015160ff161115612ad45760405162461bcd60e51b815260040161044b9061581d565b8060c00151612c5657806020015160ff1660020a8160400151511115612b0c5760405162461bcd60e51b815260040161044b9061538e565b60408101516020820151815160ff90911660020a1115612b9d5760408201518051602084015160ff1660020a036001600160401b0381118015612b4e57600080fd5b506040519080825280601f01601f191660200182016040528015612b79576020820181803683370190505b50604051602001612b8b929190614dd1565b60405160208183030381529060405290505b6060612ba882614312565b6040516310561d5760e31b8152909150737f713126D4C7396c3dBE9EdA70C3E7166B2f1314906382b0eab890612be2908490600401614e72565b60206040518083038186803b158015612bfa57600080fd5b505af4158015612c0e573d6000803e3d6000fd5b505050506040513d601f19601f82011682018060405250810190612c3291906148b2565b876012018581548110612c4157fe5b90600052602060002001819055505050612c74565b60118501805460018181018355600092835260209092200183905593505b612d70565b8060c00151612d52578060800151856012018381548110612c9657fe5b6000918252602091829020019190915560048054608084015192840151604051632b6baa3760e21b81526001600160a01b039092169363adaea8dc93612cdf9391929101614f88565b60206040518083038186803b158015612cf757600080fd5b505afa158015612d0b573d6000803e3d6000fd5b505050506040513d601f19601f82011682018060405250810190612d2f919061488f565b612c74576010850180546001810182556000918252602090912001829055612d70565b60118501805460018181018355600092835260209092200183905593505b604080516101008101825282516001600160401b03908116825260208085015160ff90811682850190815286860151958501958652606080880151908601526080808801519086015260a0808801516001600160a01b03169086015260c08088015115159086015260e08088015115159086015260138b0180546001808201835560009283529185902087516005909202018054935167ffffffffffffffff19909416919096161760ff60401b1916600160401b92909316919091029190911783559351805193949293612e4b938501929190910190614429565b5060608201518051612e67916002840191602090910190614429565b506080820151600382015560a08201516004909101805460c084015160e0909401511515600160a81b0260ff60a81b19941515600160a01b0260ff60a01b196001600160a01b039095166001600160a01b03199093169290921793909316179290921617905550600101612a55565b5060038860ff161015612efb5760405162461bcd60e51b815260040161044b9061516b565b8254336001600160a01b0319909116178355600d83018054600160801b67ffffffffffffffff60801b19909116179055600383018b9055600883018a9055600983018a905560048301805467ffffffffffffffff19166001600160401b038b161760ff60401b1916600160401b60ff8b1602179055600583018790554260068401558115612f9f57600f830180546000919060ff19166001835b0217905550612fcf565b601083015415612fbf57600f830180546002919060ff1916600183612f95565b600f8301805460ff191660041790555b7f636fd79aca92320cae2060e85a57eff6548c5fb3b972fb98bfd6432eef78c0e96000546040516130009190614f7f565b60405180910390a150506000805481526001602081905260408220805460ff19168217905581549081019091559150505b979650505050505050565b808060005411613081576040805162461bcd60e51b81526020600482015260166024820152600080516020615acd833981519152604482015290519081900360640190fd5b61308a81611925565b6130cc576040805162461bcd60e51b815260206004820152600e60248201526d496e64657820696e61637469766560901b604482015290519081900360640190fd5b6000828152600660205260409020546001600160a01b0316338114613133576040805162461bcd60e51b815260206004820152601860248201527721b0b73737ba1031329031b0b63632b210313c903ab9b2b960411b604482015290519081900360640190fd5b60008381526006602052604090206001600f82015460ff16600a81111561315657fe5b148061317457506005600f82015460ff16600a81111561317257fe5b145b806131915750600a600f82015460ff16600a81111561318f57fe5b145b806131ae57506008600f82015460ff16600a8111156131ac57fe5b145b806131cb57506009600f82015460ff16600a8111156131c957fe5b145b6131e75760405162461bcd60e51b815260040161044b90615451565b6131f560108201600061455c565b61320360118201600061455c565b61321160128201600061455c565b61321f60138201600061457d565b61322884614406565b50505050565b808060005411613273576040805162461bcd60e51b81526020600482015260166024820152600080516020615acd833981519152604482015290519081900360640190fd5b61327c81611925565b6132be576040805162461bcd60e51b815260206004820152600e60248201526d496e64657820696e61637469766560901b604482015290519081900360640190fd5b6000828152600260209081526040808320805460010190556006909152902082906007600f82015460ff16600a8111156132f457fe5b146133115760405162461bcd60e51b815260040161044b90615677565b426006820155600781015460055460405163b6b5c31960e01b81526001600160a01b039091169063b6b5c3199061334c908490600401614f7f565b60206040518083038186803b15801561336457600080fd5b505afa158015613378573d6000803e3d6000fd5b505050506040513d601f19601f8201168201806040525081019061339c919061488f565b1561348f57600c820154600d830154600160801b90046001600160401b031614156133df57600f820180546008919060ff19166001835b021790555050506135fd565b600f8201805460ff19166004179055600d820154600c83018054600192600e86019260009290916001600160401b031690811061341857fe5b6000918252602080832091909101546001600160a01b031683528201929092526040019020805462ff00001916620100009215159290920291909117905550600d018054600160401b81046001600160401b031667ffffffffffffffff199091161767ffffffffffffffff60401b191690556135fd565b600554604051633664f8bf60e11b81526001600160a01b0390911690636cc9f17e906134bf908490600401614f7f565b60206040518083038186803b1580156134d757600080fd5b505afa1580156134eb573d6000803e3d6000fd5b505050506040513d601f19601f8201168201806040525081019061350f919061488f565b156135e257600c820154600d830154600160801b90046001600160401b0316141561354a57600f820180546009919060ff19166001836133d3565b600f8201805460ff19166006179055600d820154600c83018054600192600e86019260009290916001600160401b03600160401b9091041690811061358b57fe5b60009182526020808320909101546001600160a01b0316835282019290925260400190208054911515620100000262ff00001990921691909117905550600d01805467ffffffffffffffff60401b191690556135fd565b60405162461bcd60e51b815260040161044b90615862565b50505b505050565b808060005411613647576040805162461bcd60e51b81526020600482015260166024820152600080516020615acd833981519152604482015290519081900360640190fd5b61365081611925565b613692576040805162461bcd60e51b815260206004820152600e60248201526d496e64657820696e61637469766560901b604482015290519081900360640190fd5b60008281526006602052604090206003600f82015460ff16600a8111156136b557fe5b146136d25760405162461bcd60e51b815260040161044b90615894565b6000816010018260010154815481106136e757fe5b906000526020600020015490508160130180549050811061371a5760405162461bcd60e51b815260040161044b9061513f565b6137226144dc565b82601301828154811061373157fe5b600091825260209182902060408051610100808201835260059490940290920180546001600160401b0381168452600160401b900460ff1683860152600180820180548451600293821615909702600019011691909104601f81018790048702860187018452808652939591949286019390918301828280156137f55780601f106137ca576101008083540402835291602001916137f5565b820191906000526020600020905b8154815290600101906020018083116137d857829003601f168201915b5050509183525050600282810180546040805160206001841615610100026000190190931694909404601f810183900483028501830190915280845293810193908301828280156138875780601f1061385c57610100808354040283529160200191613887565b820191906000526020600020905b81548152906001019060200180831161386a57829003601f168201915b5050509183525050600382015460208201526004909101546001600160a01b038116604083015260ff600160a01b8204811615156060840152600160a81b90910416151560809091015260e08101519091506138f55760405162461bcd60e51b815260040161044b906155f4565b6004805460808301516020840151604051632b6baa3760e21b81526001600160a01b039093169363adaea8dc9361392e93929101614f88565b60206040518083038186803b15801561394657600080fd5b505afa15801561395a573d6000803e3d6000fd5b505050506040513d601f19601f8201168201806040525081019061397e919061488f565b61399a5760405162461bcd60e51b815260040161044b906152ff565b6001808401805490910190819055426006850155601084015414156135fa575050600f01805460ff191660041790555050565b818060005411613a12576040805162461bcd60e51b81526020600482015260166024820152600080516020615acd833981519152604482015290519081900360640190fd5b613a1b81611925565b613a5d576040805162461bcd60e51b815260206004820152600e60248201526d496e64657820696e61637469766560901b604482015290519081900360640190fd5b60008381526006602052604081208491600f82015460ff16600a811115613a8057fe5b14613a9d5760405162461bcd60e51b815260040161044b906154fd565b6011810154600282015410613ac45760405162461bcd60e51b815260040161044b9061553e565b600081601101826002015481548110613ad957fe5b9060005260206000200154905081601301805490508110613b0c5760405162461bcd60e51b815260040161044b90615424565b613b146144dc565b826013018281548110613b2357fe5b600091825260209182902060408051610100808201835260059490940290920180546001600160401b0381168452600160401b900460ff1683860152600180820180548451600293821615909702600019011691909104601f8101879004870286018701845280865293959194928601939091830182828015613be75780601f10613bbc57610100808354040283529160200191613be7565b820191906000526020600020905b815481529060010190602001808311613bca57829003601f168201915b5050509183525050600282810180546040805160206001841615610100026000190190931694909404601f81018390048302850183019091528084529381019390830182828015613c795780601f10613c4e57610100808354040283529160200191613c79565b820191906000526020600020905b815481529060010190602001808311613c5c57829003601f168201915b5050509183525050600382015460208201526004909101546001600160a01b038116604083015260ff600160a01b8204811615156060840152600160a81b90910416151560809091015260128401805491925060009184908110613cd957fe5b906000526020600020015414613d015760405162461bcd60e51b815260040161044b90615711565b8060c00151613d225760405162461bcd60e51b815260040161044b906157e6565b60a08101516001600160a01b03163314613d4e5760405162461bcd60e51b815260040161044b90615575565b600087815260066020526040812060028101546011820180549293929091908110613d7557fe5b906000526020600020015490506000826013018281548110613d9357fe5b906000526020600020906005020190508060040160159054906101000a900460ff1615613dd25760405162461bcd60e51b815260040161044b9061502d565b80548951600160401b90910460ff1660020a1015613e025760405162461bcd60e51b815260040161044b9061538e565b805489518a91600160401b900460ff1660020a1115613e9457895182548b91600160401b90910460ff1660020a036001600160401b0381118015613e4557600080fd5b506040519080825280601f01601f191660200182016040528015613e70576020820181803683370190505b50604051602001613e82929190614dd1565b60405160208183030381529060405290505b6060613e9f82614312565b90506000737f713126D4C7396c3dBE9EdA70C3E7166B2f13146382b0eab8836040518263ffffffff1660e01b8152600401613eda9190614e72565b60206040518083038186803b158015613ef257600080fd5b505af4158015613f06573d6000803e3d6000fd5b505050506040513d601f19601f82011682018060405250810190613f2a91906148b2565b8c51909150613f4290600186019060208f0190614429565b5080866012018681548110613f5357fe5b6000918252602090912001556002860180546001019081905542600688015560118701541415613fab57601086015415613f9b57600f8601805460ff19166002179055613fab565b600f8601805460ff191660041790555b7fc33d5cc33df375fac3c4fb6395fac74e37c0183c522e645801a298a6ba8e04a38d876013018781548110613fdc57fe5b9060005260206000209060050201604051610a38929190615921565b600060016101f46028836000868152600660205260409020600f015460ff16600a81111561402257fe5b1415614044575050506000828152600660205260409020600501549050611938565b60036000868152600660205260409020600f015460ff16600a81111561406657fe5b141561408c57505050600082815260066020526040902060050154610960019050611938565b60026000868152600660205260409020600f015460ff16600a8111156140ae57fe5b14156140db5750505060008281526006602052604090206005810154601090910154026002029050611938565b60046000868152600660205260409020600f015460ff16600a8111156140fd57fe5b1415614134576000858152600660205260409020600581015460039091015464e8d4a510009084025b048201019350505050611938565b60066000868152600660205260409020600f015460ff16600a81111561415657fe5b1415614183576000858152600660205260409020600581015460039091015464e8d4a51000908402614126565b60076000868152600660205260409020600f015460ff16600a8111156141a557fe5b1415614258576000858152600660205260409081902060058082015490546003909201549251631b8798d560e11b815290926001600160a01b039092169163370f31aa916141fd91859187918a918a906004016159e4565b60206040518083038186803b15801561421557600080fd5b505afa158015614229573d6000803e3d6000fd5b505050506040513d601f19601f8201168201806040525081019061424d91906148b2565b019350505050611938565b60096000868152600660205260409020600f015460ff16600a81111561427a57fe5b14806142a5575060086000868152600660205260409020600f015460ff16600a8111156142a357fe5b145b806142cf575060056000868152600660205260409020600f015460ff16600a8111156142cd57fe5b145b806142f95750600a6000868152600660205260409020600f015460ff16600a8111156142f757fe5b145b1561430a5760009350505050611938565b505050919050565b60606000600883518161432157fe5b0490506060816001600160401b038111801561433c57600080fd5b50604051908082528060200260200182016040528015614366578160200160208202803683370190505b50905060005b828110156143fe576000805b60088110156143b6576000878285600802018151811061439457fe5b01602001516001600160f81b031916600883021c929092179150600101614378565b50806040516020016143c89190614dbc565b604051602081830303815290604052805190602001208383815181106143ea57fe5b60209081029190910101525060010161436c565b509392505050565b6000908152600160209081526040808320805460ff191690556002909152812055565b828054600181600116156101000203166002900490600052602060002090601f01602090048101928261445f57600085556144a5565b82601f1061447857805160ff19168380011785556144a5565b828001600101855582156144a5579182015b828111156144a557825182559160200191906001019061448a565b506144b192915061459e565b5090565b60408051608081018252600080825260208201819052918101829052606081019190915290565b60408051610100810182526000808252602082018190526060928201839052828201929092526080810182905260a0810182905260c0810182905260e081019190915290565b8280548282559060005260206000209081019282156144a557916020028201828111156144a557825182559160200191906001019061448a565b508054600082559060005260206000209081019061457a919061459e565b50565b508054600082556005029060005260206000209081019061457a91906145b3565b5b808211156144b1576000815560010161459f565b808211156144b157805468ffffffffffffffffff1916815560006145da600183018261460a565b6145e860028301600061460a565b50600060038201556004810180546001600160b01b03191690556005016145b3565b50805460018160011615610100020316600290046000825580601f10614630575061457a565b601f01602090049060005260206000209081019061457a919061459e565b80356001600160a01b038116811461193857600080fd5b600082601f830112614675578081fd5b813561468861468382615a69565b615a46565b8181529150602080830190848101818402860182018710156146a957600080fd5b60005b848110156146c8578135845292820192908201906001016146ac565b505050505092915050565b600082601f8301126146e3578081fd5b81356146f161468382615a69565b818152915060208083019084810160005b848110156146c8578135870161010080601f19838c0301121561472457600080fd5b61472d81615a46565b614738868401614867565b8152604061474781850161487e565b878301526060808501356001600160401b038082111561476657600080fd5b6147748f8b848a0101614801565b84860152608093508387013591508082111561478f57600080fd5b5061479e8e8a83890101614801565b82850152505060a0808501358284015260c091506147bd82860161464e565b9083015260e06147ce8582016147f6565b828401526147dd8486016147f6565b9083015250865250509282019290820190600101614702565b803561193881615abe565b600082601f830112614811578081fd5b81356001600160401b0381111561482457fe5b614837601f8201601f1916602001615a46565b915080825283602082850101111561484e57600080fd5b8060208401602084013760009082016020015292915050565b80356001600160401b038116811461193857600080fd5b803560ff8116811461193857600080fd5b6000602082840312156148a0578081fd5b81516148ab81615abe565b9392505050565b6000602082840312156148c3578081fd5b5051919050565b6000602082840312156148db578081fd5b5035919050565b600080604083850312156148f4578081fd5b823591506149046020840161464e565b90509250929050565b6000806040838503121561491f578182fd5b50508035926020909101359150565b600080600080600060a08688031215614945578081fd5b85359450602080870135945060408701356001600160401b038082111561496a578384fd5b818901915089601f83011261497d578384fd5b813561498b61468382615a69565b81815284810190848601875b848110156149c0576149ae8f8984358a0101614665565b84529287019290870190600101614997565b5090985050505060608901359250808311156149da578384fd5b6149e68a848b01614801565b945060808901359250808311156149fb578384fd5b5050614a0988828901614665565b9150509295509295909350565b600080600080600080600060e0888a031215614a30578485fd5b873596506020808901359650614a4860408a01614867565b9550614a5660608a0161487e565b94506080890135935060a08901356001600160401b0380821115614a78578485fd5b818b0191508b601f830112614a8b578485fd5b8135614a9961468382615a69565b8082825285820191508585018f878886028801011115614ab7578889fd5b8895505b83861015614ae057614acc8161464e565b835260019590950194918601918601614abb565b509650505060c08b0135925080831115614af8578384fd5b5050614b068a828b016146d3565b91505092959891949750929550565b60008060408385031215614b27578182fd5b8235915060208301356001600160401b03811115614b43578182fd5b614b4f85828601614801565b9150509250929050565b6001600160a01b03169052565b6000815180845260208085019450808401835b83811015614b9e5781516001600160a01b031687529582019590820190600101614b79565b509495945050505050565b6000815180845260208085019450808401835b83811015614b9e57815187529582019590820190600101614bbc565b6000815180845260208085019450848183028601828601855b85811015614cb157838303895281516101006001600160401b03825116855286820151614c2088870182614db5565b506040808301518282880152614c3883880182614cc4565b9250505060608083015186830382880152614c538382614cc4565b92505050608080830151818701525060a080830151614c7482880182614b59565b505060c080830151614c8882880182614cbe565b505060e09182015191614c9d86820184614cbe565b509986019993505090840190600101614bf1565b5090979650505050505050565b15159052565b60008151808452614cdc816020860160208601615a92565b601f01601f19169290920160200192915050565b60008154600180821660008114614d0e5760018114614d2c57614d6a565b60028304607f16865260ff1983166020870152604086019350614d6a565b60028304808752614d3c86615a86565b60005b82811015614d605781546020828b0101528482019150602081019050614d3f565b8801602001955050505b50505092915050565b8051151582526020810151151560208301526040810151151560408301526001600160401b0360608201511660608301525050565b6001600160401b03169052565b60ff169052565b6001600160c01b031991909116815260080190565b60008351614de3818460208801615a92565b835190830190614df7818360208801615a92565b01949350505050565b6001600160a01b03978816815295871660208701526040860194909452919094166060840152608083019390935260a082019290925260c081019190915260e00190565b600060408252614e576040830185614b66565b8281036020840152614e698185614ba9565b95945050505050565b6000602082526148ab6020830184614ba9565b6000610120808352614e998184018a614ba9565b9050602083820381850152614eae828a614b66565b84810360408601528851808252828a01935090820190845b81811015614ee257845183529383019391830191600101614ec6565b50508481036060860152614ef68189614cc4565b925050508281036080840152614f0c8186614bd8565b91505061303160a0830184614d73565b901515815260200190565b841515815283151560208201526001600160a01b0383166040820152608060608201819052600090614f5b90830184614cc4565b9695505050505050565b921515835290151560208301521515604082015260600190565b90815260200190565b91825260ff16602082015260400190565b6020808252602b908201527f53746174652073686f756c642062652057616974696e67436f6e6669726d617460408201526a696f6e446561646c696e6560a81b606082015260800190565b60208082526029908201527f4f7574707574206973206e6f7420636f6e7461696e656420696e2074686520666040820152680d2dcc2d840d0c2e6d60bb1b606082015260800190565b60208082526027908201527f496e76616c696420647269766520746f20636c61696d20666f72206469726563604082015266742076616c756560c81b606082015260800190565b6020808252604c908201527f4472697665207369626c696e6773206d75737420626520636f6d70617469626c60408201527f6520776974682070726576696f757320696e697469616c206861736820666f7260608201526b20656d70747920647269766560a01b608082015260a00190565b60208082526039908201527f436c61696d6564206472697665206e756d6265722073686f756c64206d617463604082015278341031b630b4b6b2b21039b4b13634b733b990373ab6b132b960391b606082015260800190565b602080825260129082015271092dcecc2d8d2c840c8e4d2ecca92dcc8caf60731b604082015260600190565b60208082526028908201527f6f75747075742064726976652068617320746f206265206174206c65617374206040820152671bdb99481ddbdc9960c21b606082015260800190565b6020808252604c908201527f53746174652073686f756c642062652057616974696e67436c61696d2c206f7260408201527f2057616974696e674368616c6c656e676544726976657320776974682064656160608201526b191b1a5b99481c185cdcd95960a21b608082015260a00190565b6020808252602f908201527f52657065746974696f6e206f662070617274696573272061646472657373657360408201526e081a5cc81b9bdd08185b1b1bddd959608a1b606082015260800190565b60208082526021908201527f496e76616c696420647269766520746f20636c61696d20666f72206c6f6767656040820152603960f91b606082015260800190565b6020808252602a908201527f5468652073656e646572206973206e6f7420436c61696d6572206174207468696040820152697320696e7374616e636560b01b606082015260800190565b60208082526023908201527f48617368206973206e6f7420617661696c61626c65206f6e206c6f67676572206040820152621e595d60ea1b606082015260800190565b6020808252602c908201527f446561646c696e65206973206e6f74206f76657220666f72207468697320737060408201526b65636966696320737461746560a01b606082015260800190565b60208082526030908201527f496e707574206279746573206c656e677468206578636565647320746865206360408201526f6c61696d6564206c6f67322073697a6560801b606082015260800190565b60208082526026908201527f53746174652073686f756c642062652057616974696e674368616c6c656e676560408201526544726976657360d01b606082015260800190565b602080825260139082015272092dcecc2d8d2c840c8e4d2ecca40d2dcc8caf606b1b604082015260600190565b60208082526029908201527f43616e6e6f7420646573747275637420696e7374616e63652061742063757272604082015268656e7420737461746560b81b606082015260800190565b6020808252601a908201527f43616e6e6f742061626f72742063757272656e74207374617465000000000000604082015260600190565b602080825260129082015271556e7265636f676e697a656420737461746560701b604082015260600190565b60208082526021908201527f546865207374617465206973206e6f742057616974696e6750726f76696465726040820152607360f81b606082015260800190565b6020808252601b908201527f4e6f20617661696c61626c652070656e64696e67206472697665730000000000604082015260600190565b6020808252601a908201527f5468652073656e646572206973206e6f742070726f7669646572000000000000604082015260600190565b60208082526028908201527f53656e6465722068617320616c7265616479206368616c6c656e676564206f726040820152670818db185a5b595960c21b606082015260800190565b6020808252601a908201527f6e656564734c6f676765722073686f756c642062652074727565000000000000604082015260600190565b6020808252602c908201527f726f756e64206475726174696f6e2068617320746f206265206174206c65617360408201526b74203530207365636f6e647360a01b606082015260800190565b60208082526033908201527f5374617465206973206e6f742057616974696e674368616c6c656e6765526573604082015272756c742c2063616e6e6f742077696e4279564760681b606082015260800190565b60208082526027908201527f64697265637456616c75652068617320746f206265206174206c65617374206f6040820152661b99481ddbdc9960ca1b606082015260800190565b60208082526022908201527f54686520647269766520686173682073686f756c646e27742062652066696c6c604082015261195960f21b606082015260800190565b6020808252602c908201527f4f7574707574206c656e67746820646f65736e2774206d61746368206f75747060408201526b7574206c6f67322073697a6560a01b606082015260800190565b60208082526027908201527f4f6e6c7920636f6e6365726e65642075736572732063616e206368616c6c656e6040820152666744726976657360c81b606082015260800190565b6020808252601b908201527f7761697450726f76696465722073686f756c6420626520747275650000000000604082015260600190565b60208082526025908201527f64697265637456616c75652063616e6e6f742062652062696767657220746861604082015264371018b5a160d91b606082015260800190565b60208082526018908201527714dd185d19481bd9881591c81a5cc81b9bdd08199a5b985b60421b604082015260600190565b6020808252601f908201527f546865207374617465206973206e6f742057616974696e6752657665616c7300604082015260600190565b60208082526028908201527f5468652073656e646572206973206e6f7420706172747920746f207468697320604082015267696e7374616e636560c01b606082015260800190565b918252602082015260400190565b6000838252604060208301528254615945604084016001600160401b038316614da8565b6159586060840160ff8360401c16614db5565b50610100806080840152615973610140840160018601614cf0565b838103603f190160a085015261598c8160028701614cf0565b600386015460c086015260048601549091506159b460e086016001600160a01b038316614b59565b6159c683860160ff8360a01c16614cbe565b6159da610120860160ff8360a81c16614cbe565b5095945050505050565b948552602085019390935260408401919091526060830152608082015260a00190565b60006001600160401b038616825260ff8516602083015283604083015260806060830152614f5b6080830184614ba9565b60ff91909116815260200190565b6040518181016001600160401b0381118282101715615a6157fe5b604052919050565b60006001600160401b03821115615a7c57fe5b5060209081020190565b60009081526020902090565b60005b83811015615aad578181015183820152602001615a95565b838111156132285750506000910152565b801515811461457a57600080fdfe496e646578206e6f7420696e7374616e74696174656400000000000000000000a26469706673582212201d383f2a59fc163d6a0647c7a32140f2e1443ffdd299934a67eb3899be2aaa5564736f6c63430007040033",
  "deployedBytecode": "0x608060405234801561001057600080fd5b50600436106101115760003560e01c8063ab5da187116100ad578063c817592d11610071578063c817592d14610279578063c87e3ae91461028c578063ded4df631461029f578063f9bc3b21146102b2578063fa0ecc5b146102c557610111565b8063ab5da187146101fd578063ab82d9a01461021f578063bfda2e7214610232578063c526656c14610245578063c70683ca1461026657610111565b806301ff62ab1461011657806326987b601461013f578063351e6657146101545780633d46b819146101695780634c6fe7bf1461017c5780635748c1301461018f57806373df1612146101a257806382afd23b146101c7578063995e4339146101da575b600080fd5b6101296101243660046148e2565b6102d8565b6040516101369190614f1c565b60405180910390f35b610147610350565b6040516101369190614f7f565b61016761016236600461492e565b610356565b005b6101476101773660046148ca565b610a4f565b61016761018a3660046148ca565b610af9565b61014761019d3660046148ca565b610cae565b6101b56101b03660046148e2565b610f45565b60405161013696959493929190614e85565b6101296101d53660046148ca565b611925565b6101ed6101e83660046148ca565b61193d565b6040516101369493929190614f27565b61021061020b3660046148e2565b611d33565b60405161013693929190614f65565b61016761022d3660046148ca565b611dc3565b6101676102403660046148ca565b6120e9565b6102586102533660046148e2565b612217565b604051610136929190614e44565b61016761027436600461490d565b612350565b610147610287366004614a16565b612827565b61016761029a3660046148ca565b61303c565b6101676102ad3660046148ca565b61322e565b6101676102c03660046148ca565b613602565b6101676102d3366004614b15565b6139cd565b600082806000541161031f576040805162461bcd60e51b81526020600482015260166024820152600080516020615acd833981519152604482015290519081900360640190fd5b505060009182526006602090815260408084206001600160a01b03939093168452600e909201905290205460ff1690565b60005481565b84806000541161039b576040805162461bcd60e51b81526020600482015260166024820152600080516020615acd833981519152604482015290519081900360640190fd5b6103a481611925565b6103e6576040805162461bcd60e51b815260206004820152600e60248201526d496e64657820696e61637469766560901b604482015290519081900360640190fd5b6000868152600660205260409020600d810154600c820180548993923392916001600160401b0390911690811061041957fe5b6000918252602090912001546001600160a01b0316146104545760405162461bcd60e51b815260040161044b906152b5565b60405180910390fd5b60008881526002602090815260408083208054600101905560069091528120899161047e83613ff8565b600683015401421190506004600f83015460ff16600a81111561049d57fe5b14806104c357506002600f83015460ff16600a8111156104b957fe5b1480156104c35750805b6104df5760405162461bcd60e51b815260040161044b906151b3565b88516013830154146105035760405162461bcd60e51b815260040161044b906150e6565b60048201548851600160401b90910460ff1660020a146105355760405162461bcd60e51b815260040161044b90615753565b606061054089614312565b6004848101546040516310561d5760e31b81529293508d9273__$c7dbd794b8c7b5c2028db781007df1176e$__9263d7304dd9926001600160401b03811692600160401b90910460ff169185916382b0eab89161059f918a9101614e72565b60206040518083038186803b1580156105b757600080fd5b505af41580156105cb573d6000803e3d6000fd5b505050506040513d601f19601f820116820180604052508101906105ef91906148b2565b8d6040518563ffffffff1660e01b815260040161060f9493929190615a07565b60206040518083038186803b15801561062757600080fd5b505af415801561063b573d6000803e3d6000fd5b505050506040513d601f19601f8201168201806040525081019061065f91906148b2565b1461067c5760405162461bcd60e51b815260040161044b90614fe4565b601383015460005b8181101561096d5760608c828151811061069a57fe5b60200260200101519050856009015473__$c7dbd794b8c7b5c2028db781007df1176e$__63d7304dd98860130185815481106106d257fe5b600091825260209091206005909102015460138a0180546001600160401b0390921691879081106106ff57fe5b906000526020600020906005020160000160089054906101000a900460ff1673__$c7dbd794b8c7b5c2028db781007df1176e$__63a73426888c601301898154811061074757fe5b600091825260209091206005909102015460405160e083901b6001600160e01b031916815261078391600160401b900460ff1690600401615a38565b60206040518083038186803b15801561079b57600080fd5b505af41580156107af573d6000803e3d6000fd5b505050506040513d601f19601f820116820180604052508101906107d391906148b2565b866040518563ffffffff1660e01b81526004016107f39493929190615a07565b60206040518083038186803b15801561080b57600080fd5b505af415801561081f573d6000803e3d6000fd5b505050506040513d601f19601f8201168201806040525081019061084391906148b2565b146108605760405162461bcd60e51b815260040161044b90615074565b73__$c7dbd794b8c7b5c2028db781007df1176e$__63d7304dd987601301848154811061088957fe5b60009182526020909120600590910201546013890180546001600160401b0390921691869081106108b657fe5b906000526020600020906005020160000160089054906101000a900460ff168960120186815481106108e457fe5b9060005260206000200154856040518563ffffffff1660e01b815260040161090f9493929190615a07565b60206040518083038186803b15801561092757600080fd5b505af415801561093b573d6000803e3d6000fd5b505050506040513d601f19601f8201168201806040525081019061095f91906148b2565b600987015550600101610684565b50600a84018c9055600f8401805460ff19166006179055895161099990600b86019060208d0190614429565b50600d840154600c85018054600192600e88019260009290916001600160401b03169081106109c457fe5b60009182526020808320909101546001600160a01b03168352820192909252604090810190912080549215156101000261ff001990931692909217909155426006860155517f1e9358f673ff367487ce56f136412ae5b69bf2c06e223aad2756d748c2a9b52a90610a38908f908f90615913565b60405180910390a150505050505050505050505050565b6000818060005411610a96576040805162461bcd60e51b81526020600482015260166024820152600080516020615acd833981519152604482015290519081900360640190fd5b610a9f81611925565b610ae1576040805162461bcd60e51b815260206004820152600e60248201526d496e64657820696e61637469766560901b604482015290519081900360640190fd5b60008381526002602052604090205491505b50919050565b808060005411610b3e576040805162461bcd60e51b81526020600482015260166024820152600080516020615acd833981519152604482015290519081900360640190fd5b610b4781611925565b610b89576040805162461bcd60e51b815260206004820152600e60248201526d496e64657820696e61637469766560901b604482015290519081900360640190fd5b600082815260066020526040812090610ba184613ff8565b8260060154014211905080610bc85760405162461bcd60e51b815260040161044b90615342565b6000600f83015460ff16600a811115610bdd57fe5b1415610c0057600f820180546001919060ff191682805b02179055505050610caa565b6003600f83015460ff16600a811115610c1557fe5b1415610c3057600f820180546001919060ff19168280610bf4565b6004600f83015460ff16600a811115610c4557fe5b1415610c6157600f820180546005919060ff1916600183610bf4565b6006600f83015460ff16600a811115610c7657fe5b1415610c9257600f82018054600a919060ff1916600183610bf4565b60405162461bcd60e51b815260040161044b9061549a565b5050565b6000818060005411610cf5576040805162461bcd60e51b81526020600482015260166024820152600080516020615acd833981519152604482015290519081900360640190fd5b6000838152600660205260408120600f015460ff169081600a811115610d1757fe5b1415610d39576f57616974696e6750726f76696465727360801b925050610af3565b600381600a811115610d4757fe5b1415610d67576d57616974696e6752657665616c7360901b925050610af3565b600281600a811115610d7557fe5b1415610d9d577557616974696e674368616c6c656e676544726976657360501b925050610af3565b600581600a811115610dab57fe5b1415610dd25774436c61696d65724d6973736564446561646c696e6560581b925050610af3565b600181600a811115610de057fe5b1415610e08577550726f76696465724d6973736564446561646c696e6560501b925050610af3565b600481600a811115610e1657fe5b1415610e34576b57616974696e67436c61696d60a01b925050610af3565b600681600a811115610e4257fe5b1415610e71577f57616974696e67436f6e6669726d6174696f6e446561646c696e650000000000925050610af3565b600781600a811115610e7f57fe5b1415610ea7577515d85a5d1a5b99d0da185b1b195b99d954995cdd5b1d60521b925050610af3565b600a81600a811115610eb557fe5b1415610ed6576e10dbdb9cd95b9cdd5cd4995cdd5b1d608a1b925050610af3565b600881600a811115610ee457fe5b1415610f03576c21b430b63632b733b2b92bb7b760991b925050610af3565b600981600a811115610f1157fe5b1415610f2d576921b630b4b6b2b92bb7b760b11b925050610af3565b60405162461bcd60e51b815260040161044b906154d1565b6060806060806060610f556144b5565b878060005411610f9a576040805162461bcd60e51b81526020600482015260166024820152600080516020615acd833981519152604482015290519081900360640190fd5b60008981526006602090815260408083206001600160a01b038c168452600e8101835292819020815160808082018452915460ff808216151583526101008204811615158387015262010000820416151582850152630100000090046001600160401b03166060808301919091528351600480825260a0820190955291975093909291908301908036833701905050905081600301548160008151811061103d57fe5b6020026020010181815250506110528b613ff8565b8260060154018160018151811061106557fe5b6020908102919091010152600482015481516001600160401b03909116908290600290811061109057fe5b6020026020010181815250508160040160089054906101000a900460ff1660ff16816003815181106110be57fe5b6020908102919091010152604080516002808252606082810190935281602001602082028036833701905050600d840154909150600160401b90046001600160401b03161561116f57600d830154600c840180549091600160401b90046001600160401b031690811061112d57fe5b600091825260208220015482516001600160a01b0390911691839161114e57fe5b60200260200101906001600160a01b031690816001600160a01b0316815250505b600d830154600c8401805490916001600160401b031690811061118e57fe5b9060005260206000200160009054906101000a90046001600160a01b0316816001815181106111b957fe5b6001600160a01b039290921660209283029190910182015260408051600480825260a08201909252606092909190820160808036833701905050905083600801548160008151811061120757fe5b60200260200101818152505083600901548160018151811061122557fe5b60200260200101818152505083600a01548160028151811061124357fe5b6020026020010181815250506112588d610cae565b8160038151811061126557fe5b60209081029190910101526000600f85015460ff16600a81111561128557fe5b141561155e57604080516001808252818301909252606091816020015b6112aa6144dc565b8152602001906001900390816112a257905050905084601301856011018660020154815481106112d657fe5b9060005260206000200154815481106112eb57fe5b600091825260209182902060408051610100808201835260059490940290920180546001600160401b0381168452600160401b900460ff1683860152600180820180548451600293821615909702600019011691909104601f81018790048702860187018452808652939591949286019390918301828280156113af5780601f10611384576101008083540402835291602001916113af565b820191906000526020600020905b81548152906001019060200180831161139257829003601f168201915b5050509183525050600282810180546040805160206001841615610100026000190190931694909404601f810183900483028501830190915280845293810193908301828280156114415780601f1061141657610100808354040283529160200191611441565b820191906000526020600020905b81548152906001019060200180831161142457829003601f168201915b5050509183525050600382015460208201526004909101546001600160a01b038116604083015260ff600160a01b8204811615156060840152600160a81b9091041615156080909101528151829060009061149857fe5b602002602001018190525083838387600b01848b828054600181600116156101000203166002900480601f0160208091040260200160405190810160405280929190818152602001828054600181600116156101000203166002900480156115415780601f1061151657610100808354040283529160200191611541565b820191906000526020600020905b81548152906001019060200180831161152457829003601f168201915b505050505092509b509b509b509b509b509b50505050505061191a565b6003600f85015460ff16600a81111561157357fe5b14156115c457604080516001808252818301909252606091816020015b6115986144dc565b81526020019060019003908161159057905050905084601301856010018660010154815481106112d657fe5b6001600f85015460ff16600a8111156115d957fe5b14156116885760408051600080825260208201909252606091611612565b6115ff6144dc565b8152602001906001900390816115f75790505b50905083838387600b01848b828054600181600116156101000203166002900480601f0160208091040260200160405190810160405280929190818152602001828054600181600116156101000203166002900480156115415780601f1061151657610100808354040283529160200191611541565b600b84018054604080516020601f60026000196101006001881615020190951694909404938401819004810282018101909252828152869386938693919260138b01928d9285918301828280156117205780601f106116f557610100808354040283529160200191611720565b820191906000526020600020905b81548152906001019060200180831161170357829003601f168201915b5050505050925081805480602002602001604051908101604052809291908181526020016000905b828210156119035760008481526020908190206040805161010080820183526005870290930180546001600160401b0381168352600160401b900460ff1682860152600180820180548551600293821615909702600019011691909104601f8101879004870286018701855280865292959194938601939290918301828280156118135780601f106117e857610100808354040283529160200191611813565b820191906000526020600020905b8154815290600101906020018083116117f657829003601f168201915b5050509183525050600282810180546040805160206001841615610100026000190190931694909404601f810183900483028501830190915280845293810193908301828280156118a55780601f1061187a576101008083540402835291602001916118a5565b820191906000526020600020905b81548152906001019060200180831161188857829003601f168201915b505050918352505060038201546020808301919091526004909201546001600160a01b038116604083015260ff600160a01b8204811615156060840152600160a81b9091041615156080909101529082526001929092019101611748565b5050505091509a509a509a509a509a509a50505050505b509295509295509295565b60008181526001602052604090205460ff165b919050565b60008060006060848060005411611989576040805162461bcd60e51b81526020600482015260166024820152600080516020615acd833981519152604482015290519081900360640190fd5b6000868152600660205260409020600a600f82015460ff16600a8111156119ac57fe5b1415611a6557600160008083600b01808054600181600116156101000203166002900480601f016020809104026020016040519081016040528092919081815260200182805460018160011615610100020316600290048015611a505780601f10611a2557610100808354040283529160200191611a50565b820191906000526020600020905b815481529060010190602001808311611a3357829003601f168201915b50505050509050955095509550955050611d2b565b6000600f82015460ff16600a811115611a7a57fe5b1480611a9857506002600f82015460ff16600a811115611a9657fe5b145b80611ab557506004600f82015460ff16600a811115611ab357fe5b145b80611ad257506006600f82015460ff16600a811115611ad057fe5b145b80611aef57506007600f82015460ff16600a811115611aed57fe5b145b80611b0c57506003600f82015460ff16600a811115611b0a57fe5b145b15611b355760006001600060405180602001604052806000815250955095509550955050611d2b565b6001600f82015460ff16600a811115611b4a57fe5b1415611c4d57600087815260066020526040812060118101546002909101541015611bbf578160130182601101836002015481548110611b8657fe5b906000526020600020015481548110611b9b57fe5b60009182526020909120600460059092020101546001600160a01b03169050611c2a565b600088815260066020526040902060108101546001909101541015611c2a578160130182601001836001015481548110611bf557fe5b906000526020600020015481548110611c0a57fe5b60009182526020909120600460059092020101546001600160a01b031690505b600080826040518060200160405280600081525096509650965096505050611d2b565b6005600f82015460ff16600a811115611c6257fe5b1480611c8057506008600f82015460ff16600a811115611c7e57fe5b145b15611cde57600d810154600c820180546000928392916001600160401b03909116908110611caa57fe5b60009182526020808320909101546040805192830190529181529298509096506001600160a01b031694509250611d2b9050565b6009600f82015460ff16600a811115611cf357fe5b1415610f2d5760008082600c0183600d0160089054906101000a90046001600160401b03166001600160401b031681548110611caa57fe5b509193509193565b6000806000848060005411611d7d576040805162461bcd60e51b81526020600482015260166024820152600080516020615acd833981519152604482015290519081900360640190fd5b5050506000928352506006602090815260408084206001600160a01b039093168452600e909201905290205460ff80821692610100830482169262010000900490911690565b808060005411611e08576040805162461bcd60e51b81526020600482015260166024820152600080516020615acd833981519152604482015290519081900360640190fd5b611e1181611925565b611e53576040805162461bcd60e51b815260206004820152600e60248201526d496e64657820696e61637469766560901b604482015290519081900360640190fd5b6000828152600660209081526040808320338452600e81019092529091205483919060ff16611e945760405162461bcd60e51b815260040161044b906158cb565b6000848152600660209081526040808320338452600e810190925290912054859190610100900460ff1615611edb5760405162461bcd60e51b815260040161044b906155ac565b6000868152600260209081526040808320805460010190556006918290529091208791600f82015460ff16600a811115611f1157fe5b14611f2e5760405162461bcd60e51b815260040161044b90614f99565b600554600d820154600c830180546001600160a01b03909316926320b73870923392916001600160401b03909116908110611f6557fe5b6000918252602090912001546005850154600380546009880154600a890154928901546040516001600160e01b031960e08a901b168152611fbb97966001600160a01b0390811696959416939190600401614e00565b602060405180830381600087803b158015611fd557600080fd5b505af1158015611fe9573d6000803e3d6000fd5b505050506040513d601f19601f8201168201806040525081019061200d91906148b2565b600780830191909155600f8201805460ff19166001830217905550336000908152600e8201602052604090819020805461ff0019166101001790819055600d83018054600160801b600160401b6001600160401b03630100000090950485160267ffffffffffffffff60401b199092169190911781810484166001019093160267ffffffffffffffff60801b19909216919091179055426006830155517fa895da4b794aeba8d8082db237265459db7b7ffdb5aa7c2332a7c5eafbfae735906120d7908a90614f7f565b60405180910390a15050505050505050565b80806000541161212e576040805162461bcd60e51b81526020600482015260166024820152600080516020615acd833981519152604482015290519081900360640190fd5b61213781611925565b612179576040805162461bcd60e51b815260206004820152600e60248201526d496e64657820696e61637469766560901b604482015290519081900360640190fd5b60008281526002602081815260408084208054600101905560069091529091208391600f82015460ff16600a8111156121ae57fe5b146121cb5760405162461bcd60e51b815260040161044b906153de565b336000908152600e8201602052604090205460ff166121fc5760405162461bcd60e51b815260040161044b9061579f565b600f8101805460ff1916600317905542600690910155505050565b60608083806000541161225f576040805162461bcd60e51b81526020600482015260166024820152600080516020615acd833981519152604482015290519081900360640190fd5b60608060076000888152600660205260409020600f015460ff16600a81111561228457fe5b141561232a5760408051600180825281830190925290602080830190803683375050604080516001808252818301909252929450905060208083019080368337505060055484519293506001600160a01b0316918491506000906122e457fe5b6001600160a01b0390921660209283029190910182015260008881526006909152604081206007015482519091839161231957fe5b602002602001018181525050612344565b505060408051600080825260208201908152818301909252905b90969095509350505050565b818060005411612395576040805162461bcd60e51b81526020600482015260166024820152600080516020615acd833981519152604482015290519081900360640190fd5b61239e81611925565b6123e0576040805162461bcd60e51b815260206004820152600e60248201526d496e64657820696e61637469766560901b604482015290519081900360640190fd5b60008381526006602052604081208491600f82015460ff16600a81111561240357fe5b146124205760405162461bcd60e51b815260040161044b906154fd565b60118101546002820154106124475760405162461bcd60e51b815260040161044b9061553e565b60008160110182600201548154811061245c57fe5b906000526020600020015490508160130180549050811061248f5760405162461bcd60e51b815260040161044b90615424565b6124976144dc565b8260130182815481106124a657fe5b600091825260209182902060408051610100808201835260059490940290920180546001600160401b0381168452600160401b900460ff1683860152600180820180548451600293821615909702600019011691909104601f810187900487028601870184528086529395919492860193909183018282801561256a5780601f1061253f5761010080835404028352916020019161256a565b820191906000526020600020905b81548152906001019060200180831161254d57829003601f168201915b5050509183525050600282810180546040805160206001841615610100026000190190931694909404601f810183900483028501830190915280845293810193908301828280156125fc5780601f106125d1576101008083540402835291602001916125fc565b820191906000526020600020905b8154815290600101906020018083116125df57829003601f168201915b5050509183525050600382015460208201526004909101546001600160a01b038116604083015260ff600160a01b8204811615156060840152600160a81b9091041615156080909101526012840180549192506000918490811061265c57fe5b9060005260206000200154146126845760405162461bcd60e51b815260040161044b90615711565b8060c001516126a55760405162461bcd60e51b815260040161044b906157e6565b60a08101516001600160a01b031633146126d15760405162461bcd60e51b815260040161044b90615575565b6000878152600660205260408120600281015460118201805492939290919081106126f857fe5b90600052602060002001549050600082601301828154811061271657fe5b906000526020600020906005020190508060040160159054906101000a900460ff166127545760405162461bcd60e51b815260040161044b90615274565b600381018990556012830180548a91908490811061276e57fe5b60009182526020909120015560028301805460010190819055426006850155601184015414156127c6576010830154156127b657600f8301805460ff191660021790556127c6565b600f8301805460ff191660041790555b7fc33d5cc33df375fac3c4fb6395fac74e37c0183c522e645801a298a6ba8e04a38a8460130184815481106127f757fe5b9060005260206000209060050201604051612813929190615921565b60405180910390a150505050505050505050565b6000603284101561284a5760405162461bcd60e51b815260040161044b9061562b565b600080548152600660205260408120905b8451816001600160401b031610156129f45781600e01600086836001600160401b03168151811061288857fe5b6020908102919091018101516001600160a01b031682528101919091526040016000205460ff16156128cc5760405162461bcd60e51b815260040161044b90615225565b600182600e01600087846001600160401b0316815181106128e957fe5b60200260200101516001600160a01b03166001600160a01b0316815260200190815260200160002060000160006101000a81548160ff0219169083151502179055508082600e01600087846001600160401b03168151811061294757fe5b60200260200101516001600160a01b03166001600160a01b0316815260200190815260200160002060000160036101000a8154816001600160401b0302191690836001600160401b0316021790555081600c0185826001600160401b0316815181106129af57fe5b60209081029190910181015182546001808201855560009485529290932090920180546001600160a01b0319166001600160a01b03909316929092179091550161285b565b508251600090806001600160401b0381118015612a1057600080fd5b50604051908082528060200260200182016040528015612a3a578160200160208202803683370190505b508051612a51916012860191602090910190614522565b5060005b81811015612ed657612a656144dc565b868281518110612a7157fe5b602002602001015190508060e00151612c79576003816020015160ff161015612aac5760405162461bcd60e51b815260040161044b906156ca565b600a816020015160ff161115612ad45760405162461bcd60e51b815260040161044b9061581d565b8060c00151612c5657806020015160ff1660020a8160400151511115612b0c5760405162461bcd60e51b815260040161044b9061538e565b60408101516020820151815160ff90911660020a1115612b9d5760408201518051602084015160ff1660020a036001600160401b0381118015612b4e57600080fd5b506040519080825280601f01601f191660200182016040528015612b79576020820181803683370190505b50604051602001612b8b929190614dd1565b60405160208183030381529060405290505b6060612ba882614312565b6040516310561d5760e31b815290915073__$c7dbd794b8c7b5c2028db781007df1176e$__906382b0eab890612be2908490600401614e72565b60206040518083038186803b158015612bfa57600080fd5b505af4158015612c0e573d6000803e3d6000fd5b505050506040513d601f19601f82011682018060405250810190612c3291906148b2565b876012018581548110612c4157fe5b90600052602060002001819055505050612c74565b60118501805460018181018355600092835260209092200183905593505b612d70565b8060c00151612d52578060800151856012018381548110612c9657fe5b6000918252602091829020019190915560048054608084015192840151604051632b6baa3760e21b81526001600160a01b039092169363adaea8dc93612cdf9391929101614f88565b60206040518083038186803b158015612cf757600080fd5b505afa158015612d0b573d6000803e3d6000fd5b505050506040513d601f19601f82011682018060405250810190612d2f919061488f565b612c74576010850180546001810182556000918252602090912001829055612d70565b60118501805460018181018355600092835260209092200183905593505b604080516101008101825282516001600160401b03908116825260208085015160ff90811682850190815286860151958501958652606080880151908601526080808801519086015260a0808801516001600160a01b03169086015260c08088015115159086015260e08088015115159086015260138b0180546001808201835560009283529185902087516005909202018054935167ffffffffffffffff19909416919096161760ff60401b1916600160401b92909316919091029190911783559351805193949293612e4b938501929190910190614429565b5060608201518051612e67916002840191602090910190614429565b506080820151600382015560a08201516004909101805460c084015160e0909401511515600160a81b0260ff60a81b19941515600160a01b0260ff60a01b196001600160a01b039095166001600160a01b03199093169290921793909316179290921617905550600101612a55565b5060038860ff161015612efb5760405162461bcd60e51b815260040161044b9061516b565b8254336001600160a01b0319909116178355600d83018054600160801b67ffffffffffffffff60801b19909116179055600383018b9055600883018a9055600983018a905560048301805467ffffffffffffffff19166001600160401b038b161760ff60401b1916600160401b60ff8b1602179055600583018790554260068401558115612f9f57600f830180546000919060ff19166001835b0217905550612fcf565b601083015415612fbf57600f830180546002919060ff1916600183612f95565b600f8301805460ff191660041790555b7f636fd79aca92320cae2060e85a57eff6548c5fb3b972fb98bfd6432eef78c0e96000546040516130009190614f7f565b60405180910390a150506000805481526001602081905260408220805460ff19168217905581549081019091559150505b979650505050505050565b808060005411613081576040805162461bcd60e51b81526020600482015260166024820152600080516020615acd833981519152604482015290519081900360640190fd5b61308a81611925565b6130cc576040805162461bcd60e51b815260206004820152600e60248201526d496e64657820696e61637469766560901b604482015290519081900360640190fd5b6000828152600660205260409020546001600160a01b0316338114613133576040805162461bcd60e51b815260206004820152601860248201527721b0b73737ba1031329031b0b63632b210313c903ab9b2b960411b604482015290519081900360640190fd5b60008381526006602052604090206001600f82015460ff16600a81111561315657fe5b148061317457506005600f82015460ff16600a81111561317257fe5b145b806131915750600a600f82015460ff16600a81111561318f57fe5b145b806131ae57506008600f82015460ff16600a8111156131ac57fe5b145b806131cb57506009600f82015460ff16600a8111156131c957fe5b145b6131e75760405162461bcd60e51b815260040161044b90615451565b6131f560108201600061455c565b61320360118201600061455c565b61321160128201600061455c565b61321f60138201600061457d565b61322884614406565b50505050565b808060005411613273576040805162461bcd60e51b81526020600482015260166024820152600080516020615acd833981519152604482015290519081900360640190fd5b61327c81611925565b6132be576040805162461bcd60e51b815260206004820152600e60248201526d496e64657820696e61637469766560901b604482015290519081900360640190fd5b6000828152600260209081526040808320805460010190556006909152902082906007600f82015460ff16600a8111156132f457fe5b146133115760405162461bcd60e51b815260040161044b90615677565b426006820155600781015460055460405163b6b5c31960e01b81526001600160a01b039091169063b6b5c3199061334c908490600401614f7f565b60206040518083038186803b15801561336457600080fd5b505afa158015613378573d6000803e3d6000fd5b505050506040513d601f19601f8201168201806040525081019061339c919061488f565b1561348f57600c820154600d830154600160801b90046001600160401b031614156133df57600f820180546008919060ff19166001835b021790555050506135fd565b600f8201805460ff19166004179055600d820154600c83018054600192600e86019260009290916001600160401b031690811061341857fe5b6000918252602080832091909101546001600160a01b031683528201929092526040019020805462ff00001916620100009215159290920291909117905550600d018054600160401b81046001600160401b031667ffffffffffffffff199091161767ffffffffffffffff60401b191690556135fd565b600554604051633664f8bf60e11b81526001600160a01b0390911690636cc9f17e906134bf908490600401614f7f565b60206040518083038186803b1580156134d757600080fd5b505afa1580156134eb573d6000803e3d6000fd5b505050506040513d601f19601f8201168201806040525081019061350f919061488f565b156135e257600c820154600d830154600160801b90046001600160401b0316141561354a57600f820180546009919060ff19166001836133d3565b600f8201805460ff19166006179055600d820154600c83018054600192600e86019260009290916001600160401b03600160401b9091041690811061358b57fe5b60009182526020808320909101546001600160a01b0316835282019290925260400190208054911515620100000262ff00001990921691909117905550600d01805467ffffffffffffffff60401b191690556135fd565b60405162461bcd60e51b815260040161044b90615862565b50505b505050565b808060005411613647576040805162461bcd60e51b81526020600482015260166024820152600080516020615acd833981519152604482015290519081900360640190fd5b61365081611925565b613692576040805162461bcd60e51b815260206004820152600e60248201526d496e64657820696e61637469766560901b604482015290519081900360640190fd5b60008281526006602052604090206003600f82015460ff16600a8111156136b557fe5b146136d25760405162461bcd60e51b815260040161044b90615894565b6000816010018260010154815481106136e757fe5b906000526020600020015490508160130180549050811061371a5760405162461bcd60e51b815260040161044b9061513f565b6137226144dc565b82601301828154811061373157fe5b600091825260209182902060408051610100808201835260059490940290920180546001600160401b0381168452600160401b900460ff1683860152600180820180548451600293821615909702600019011691909104601f81018790048702860187018452808652939591949286019390918301828280156137f55780601f106137ca576101008083540402835291602001916137f5565b820191906000526020600020905b8154815290600101906020018083116137d857829003601f168201915b5050509183525050600282810180546040805160206001841615610100026000190190931694909404601f810183900483028501830190915280845293810193908301828280156138875780601f1061385c57610100808354040283529160200191613887565b820191906000526020600020905b81548152906001019060200180831161386a57829003601f168201915b5050509183525050600382015460208201526004909101546001600160a01b038116604083015260ff600160a01b8204811615156060840152600160a81b90910416151560809091015260e08101519091506138f55760405162461bcd60e51b815260040161044b906155f4565b6004805460808301516020840151604051632b6baa3760e21b81526001600160a01b039093169363adaea8dc9361392e93929101614f88565b60206040518083038186803b15801561394657600080fd5b505afa15801561395a573d6000803e3d6000fd5b505050506040513d601f19601f8201168201806040525081019061397e919061488f565b61399a5760405162461bcd60e51b815260040161044b906152ff565b6001808401805490910190819055426006850155601084015414156135fa575050600f01805460ff191660041790555050565b818060005411613a12576040805162461bcd60e51b81526020600482015260166024820152600080516020615acd833981519152604482015290519081900360640190fd5b613a1b81611925565b613a5d576040805162461bcd60e51b815260206004820152600e60248201526d496e64657820696e61637469766560901b604482015290519081900360640190fd5b60008381526006602052604081208491600f82015460ff16600a811115613a8057fe5b14613a9d5760405162461bcd60e51b815260040161044b906154fd565b6011810154600282015410613ac45760405162461bcd60e51b815260040161044b9061553e565b600081601101826002015481548110613ad957fe5b9060005260206000200154905081601301805490508110613b0c5760405162461bcd60e51b815260040161044b90615424565b613b146144dc565b826013018281548110613b2357fe5b600091825260209182902060408051610100808201835260059490940290920180546001600160401b0381168452600160401b900460ff1683860152600180820180548451600293821615909702600019011691909104601f8101879004870286018701845280865293959194928601939091830182828015613be75780601f10613bbc57610100808354040283529160200191613be7565b820191906000526020600020905b815481529060010190602001808311613bca57829003601f168201915b5050509183525050600282810180546040805160206001841615610100026000190190931694909404601f81018390048302850183019091528084529381019390830182828015613c795780601f10613c4e57610100808354040283529160200191613c79565b820191906000526020600020905b815481529060010190602001808311613c5c57829003601f168201915b5050509183525050600382015460208201526004909101546001600160a01b038116604083015260ff600160a01b8204811615156060840152600160a81b90910416151560809091015260128401805491925060009184908110613cd957fe5b906000526020600020015414613d015760405162461bcd60e51b815260040161044b90615711565b8060c00151613d225760405162461bcd60e51b815260040161044b906157e6565b60a08101516001600160a01b03163314613d4e5760405162461bcd60e51b815260040161044b90615575565b600087815260066020526040812060028101546011820180549293929091908110613d7557fe5b906000526020600020015490506000826013018281548110613d9357fe5b906000526020600020906005020190508060040160159054906101000a900460ff1615613dd25760405162461bcd60e51b815260040161044b9061502d565b80548951600160401b90910460ff1660020a1015613e025760405162461bcd60e51b815260040161044b9061538e565b805489518a91600160401b900460ff1660020a1115613e9457895182548b91600160401b90910460ff1660020a036001600160401b0381118015613e4557600080fd5b506040519080825280601f01601f191660200182016040528015613e70576020820181803683370190505b50604051602001613e82929190614dd1565b60405160208183030381529060405290505b6060613e9f82614312565b9050600073__$c7dbd794b8c7b5c2028db781007df1176e$__6382b0eab8836040518263ffffffff1660e01b8152600401613eda9190614e72565b60206040518083038186803b158015613ef257600080fd5b505af4158015613f06573d6000803e3d6000fd5b505050506040513d601f19601f82011682018060405250810190613f2a91906148b2565b8c51909150613f4290600186019060208f0190614429565b5080866012018681548110613f5357fe5b6000918252602090912001556002860180546001019081905542600688015560118701541415613fab57601086015415613f9b57600f8601805460ff19166002179055613fab565b600f8601805460ff191660041790555b7fc33d5cc33df375fac3c4fb6395fac74e37c0183c522e645801a298a6ba8e04a38d876013018781548110613fdc57fe5b9060005260206000209060050201604051610a38929190615921565b600060016101f46028836000868152600660205260409020600f015460ff16600a81111561402257fe5b1415614044575050506000828152600660205260409020600501549050611938565b60036000868152600660205260409020600f015460ff16600a81111561406657fe5b141561408c57505050600082815260066020526040902060050154610960019050611938565b60026000868152600660205260409020600f015460ff16600a8111156140ae57fe5b14156140db5750505060008281526006602052604090206005810154601090910154026002029050611938565b60046000868152600660205260409020600f015460ff16600a8111156140fd57fe5b1415614134576000858152600660205260409020600581015460039091015464e8d4a510009084025b048201019350505050611938565b60066000868152600660205260409020600f015460ff16600a81111561415657fe5b1415614183576000858152600660205260409020600581015460039091015464e8d4a51000908402614126565b60076000868152600660205260409020600f015460ff16600a8111156141a557fe5b1415614258576000858152600660205260409081902060058082015490546003909201549251631b8798d560e11b815290926001600160a01b039092169163370f31aa916141fd91859187918a918a906004016159e4565b60206040518083038186803b15801561421557600080fd5b505afa158015614229573d6000803e3d6000fd5b505050506040513d601f19601f8201168201806040525081019061424d91906148b2565b019350505050611938565b60096000868152600660205260409020600f015460ff16600a81111561427a57fe5b14806142a5575060086000868152600660205260409020600f015460ff16600a8111156142a357fe5b145b806142cf575060056000868152600660205260409020600f015460ff16600a8111156142cd57fe5b145b806142f95750600a6000868152600660205260409020600f015460ff16600a8111156142f757fe5b145b1561430a5760009350505050611938565b505050919050565b60606000600883518161432157fe5b0490506060816001600160401b038111801561433c57600080fd5b50604051908082528060200260200182016040528015614366578160200160208202803683370190505b50905060005b828110156143fe576000805b60088110156143b6576000878285600802018151811061439457fe5b01602001516001600160f81b031916600883021c929092179150600101614378565b50806040516020016143c89190614dbc565b604051602081830303815290604052805190602001208383815181106143ea57fe5b60209081029190910101525060010161436c565b509392505050565b6000908152600160209081526040808320805460ff191690556002909152812055565b828054600181600116156101000203166002900490600052602060002090601f01602090048101928261445f57600085556144a5565b82601f1061447857805160ff19168380011785556144a5565b828001600101855582156144a5579182015b828111156144a557825182559160200191906001019061448a565b506144b192915061459e565b5090565b60408051608081018252600080825260208201819052918101829052606081019190915290565b60408051610100810182526000808252602082018190526060928201839052828201929092526080810182905260a0810182905260c0810182905260e081019190915290565b8280548282559060005260206000209081019282156144a557916020028201828111156144a557825182559160200191906001019061448a565b508054600082559060005260206000209081019061457a919061459e565b50565b508054600082556005029060005260206000209081019061457a91906145b3565b5b808211156144b1576000815560010161459f565b808211156144b157805468ffffffffffffffffff1916815560006145da600183018261460a565b6145e860028301600061460a565b50600060038201556004810180546001600160b01b03191690556005016145b3565b50805460018160011615610100020316600290046000825580601f10614630575061457a565b601f01602090049060005260206000209081019061457a919061459e565b80356001600160a01b038116811461193857600080fd5b600082601f830112614675578081fd5b813561468861468382615a69565b615a46565b8181529150602080830190848101818402860182018710156146a957600080fd5b60005b848110156146c8578135845292820192908201906001016146ac565b505050505092915050565b600082601f8301126146e3578081fd5b81356146f161468382615a69565b818152915060208083019084810160005b848110156146c8578135870161010080601f19838c0301121561472457600080fd5b61472d81615a46565b614738868401614867565b8152604061474781850161487e565b878301526060808501356001600160401b038082111561476657600080fd5b6147748f8b848a0101614801565b84860152608093508387013591508082111561478f57600080fd5b5061479e8e8a83890101614801565b82850152505060a0808501358284015260c091506147bd82860161464e565b9083015260e06147ce8582016147f6565b828401526147dd8486016147f6565b9083015250865250509282019290820190600101614702565b803561193881615abe565b600082601f830112614811578081fd5b81356001600160401b0381111561482457fe5b614837601f8201601f1916602001615a46565b915080825283602082850101111561484e57600080fd5b8060208401602084013760009082016020015292915050565b80356001600160401b038116811461193857600080fd5b803560ff8116811461193857600080fd5b6000602082840312156148a0578081fd5b81516148ab81615abe565b9392505050565b6000602082840312156148c3578081fd5b5051919050565b6000602082840312156148db578081fd5b5035919050565b600080604083850312156148f4578081fd5b823591506149046020840161464e565b90509250929050565b6000806040838503121561491f578182fd5b50508035926020909101359150565b600080600080600060a08688031215614945578081fd5b85359450602080870135945060408701356001600160401b038082111561496a578384fd5b818901915089601f83011261497d578384fd5b813561498b61468382615a69565b81815284810190848601875b848110156149c0576149ae8f8984358a0101614665565b84529287019290870190600101614997565b5090985050505060608901359250808311156149da578384fd5b6149e68a848b01614801565b945060808901359250808311156149fb578384fd5b5050614a0988828901614665565b9150509295509295909350565b600080600080600080600060e0888a031215614a30578485fd5b873596506020808901359650614a4860408a01614867565b9550614a5660608a0161487e565b94506080890135935060a08901356001600160401b0380821115614a78578485fd5b818b0191508b601f830112614a8b578485fd5b8135614a9961468382615a69565b8082825285820191508585018f878886028801011115614ab7578889fd5b8895505b83861015614ae057614acc8161464e565b835260019590950194918601918601614abb565b509650505060c08b0135925080831115614af8578384fd5b5050614b068a828b016146d3565b91505092959891949750929550565b60008060408385031215614b27578182fd5b8235915060208301356001600160401b03811115614b43578182fd5b614b4f85828601614801565b9150509250929050565b6001600160a01b03169052565b6000815180845260208085019450808401835b83811015614b9e5781516001600160a01b031687529582019590820190600101614b79565b509495945050505050565b6000815180845260208085019450808401835b83811015614b9e57815187529582019590820190600101614bbc565b6000815180845260208085019450848183028601828601855b85811015614cb157838303895281516101006001600160401b03825116855286820151614c2088870182614db5565b506040808301518282880152614c3883880182614cc4565b9250505060608083015186830382880152614c538382614cc4565b92505050608080830151818701525060a080830151614c7482880182614b59565b505060c080830151614c8882880182614cbe565b505060e09182015191614c9d86820184614cbe565b509986019993505090840190600101614bf1565b5090979650505050505050565b15159052565b60008151808452614cdc816020860160208601615a92565b601f01601f19169290920160200192915050565b60008154600180821660008114614d0e5760018114614d2c57614d6a565b60028304607f16865260ff1983166020870152604086019350614d6a565b60028304808752614d3c86615a86565b60005b82811015614d605781546020828b0101528482019150602081019050614d3f565b8801602001955050505b50505092915050565b8051151582526020810151151560208301526040810151151560408301526001600160401b0360608201511660608301525050565b6001600160401b03169052565b60ff169052565b6001600160c01b031991909116815260080190565b60008351614de3818460208801615a92565b835190830190614df7818360208801615a92565b01949350505050565b6001600160a01b03978816815295871660208701526040860194909452919094166060840152608083019390935260a082019290925260c081019190915260e00190565b600060408252614e576040830185614b66565b8281036020840152614e698185614ba9565b95945050505050565b6000602082526148ab6020830184614ba9565b6000610120808352614e998184018a614ba9565b9050602083820381850152614eae828a614b66565b84810360408601528851808252828a01935090820190845b81811015614ee257845183529383019391830191600101614ec6565b50508481036060860152614ef68189614cc4565b925050508281036080840152614f0c8186614bd8565b91505061303160a0830184614d73565b901515815260200190565b841515815283151560208201526001600160a01b0383166040820152608060608201819052600090614f5b90830184614cc4565b9695505050505050565b921515835290151560208301521515604082015260600190565b90815260200190565b91825260ff16602082015260400190565b6020808252602b908201527f53746174652073686f756c642062652057616974696e67436f6e6669726d617460408201526a696f6e446561646c696e6560a81b606082015260800190565b60208082526029908201527f4f7574707574206973206e6f7420636f6e7461696e656420696e2074686520666040820152680d2dcc2d840d0c2e6d60bb1b606082015260800190565b60208082526027908201527f496e76616c696420647269766520746f20636c61696d20666f72206469726563604082015266742076616c756560c81b606082015260800190565b6020808252604c908201527f4472697665207369626c696e6773206d75737420626520636f6d70617469626c60408201527f6520776974682070726576696f757320696e697469616c206861736820666f7260608201526b20656d70747920647269766560a01b608082015260a00190565b60208082526039908201527f436c61696d6564206472697665206e756d6265722073686f756c64206d617463604082015278341031b630b4b6b2b21039b4b13634b733b990373ab6b132b960391b606082015260800190565b602080825260129082015271092dcecc2d8d2c840c8e4d2ecca92dcc8caf60731b604082015260600190565b60208082526028908201527f6f75747075742064726976652068617320746f206265206174206c65617374206040820152671bdb99481ddbdc9960c21b606082015260800190565b6020808252604c908201527f53746174652073686f756c642062652057616974696e67436c61696d2c206f7260408201527f2057616974696e674368616c6c656e676544726976657320776974682064656160608201526b191b1a5b99481c185cdcd95960a21b608082015260a00190565b6020808252602f908201527f52657065746974696f6e206f662070617274696573272061646472657373657360408201526e081a5cc81b9bdd08185b1b1bddd959608a1b606082015260800190565b60208082526021908201527f496e76616c696420647269766520746f20636c61696d20666f72206c6f6767656040820152603960f91b606082015260800190565b6020808252602a908201527f5468652073656e646572206973206e6f7420436c61696d6572206174207468696040820152697320696e7374616e636560b01b606082015260800190565b60208082526023908201527f48617368206973206e6f7420617661696c61626c65206f6e206c6f67676572206040820152621e595d60ea1b606082015260800190565b6020808252602c908201527f446561646c696e65206973206e6f74206f76657220666f72207468697320737060408201526b65636966696320737461746560a01b606082015260800190565b60208082526030908201527f496e707574206279746573206c656e677468206578636565647320746865206360408201526f6c61696d6564206c6f67322073697a6560801b606082015260800190565b60208082526026908201527f53746174652073686f756c642062652057616974696e674368616c6c656e676560408201526544726976657360d01b606082015260800190565b602080825260139082015272092dcecc2d8d2c840c8e4d2ecca40d2dcc8caf606b1b604082015260600190565b60208082526029908201527f43616e6e6f7420646573747275637420696e7374616e63652061742063757272604082015268656e7420737461746560b81b606082015260800190565b6020808252601a908201527f43616e6e6f742061626f72742063757272656e74207374617465000000000000604082015260600190565b602080825260129082015271556e7265636f676e697a656420737461746560701b604082015260600190565b60208082526021908201527f546865207374617465206973206e6f742057616974696e6750726f76696465726040820152607360f81b606082015260800190565b6020808252601b908201527f4e6f20617661696c61626c652070656e64696e67206472697665730000000000604082015260600190565b6020808252601a908201527f5468652073656e646572206973206e6f742070726f7669646572000000000000604082015260600190565b60208082526028908201527f53656e6465722068617320616c7265616479206368616c6c656e676564206f726040820152670818db185a5b595960c21b606082015260800190565b6020808252601a908201527f6e656564734c6f676765722073686f756c642062652074727565000000000000604082015260600190565b6020808252602c908201527f726f756e64206475726174696f6e2068617320746f206265206174206c65617360408201526b74203530207365636f6e647360a01b606082015260800190565b60208082526033908201527f5374617465206973206e6f742057616974696e674368616c6c656e6765526573604082015272756c742c2063616e6e6f742077696e4279564760681b606082015260800190565b60208082526027908201527f64697265637456616c75652068617320746f206265206174206c65617374206f6040820152661b99481ddbdc9960ca1b606082015260800190565b60208082526022908201527f54686520647269766520686173682073686f756c646e27742062652066696c6c604082015261195960f21b606082015260800190565b6020808252602c908201527f4f7574707574206c656e67746820646f65736e2774206d61746368206f75747060408201526b7574206c6f67322073697a6560a01b606082015260800190565b60208082526027908201527f4f6e6c7920636f6e6365726e65642075736572732063616e206368616c6c656e6040820152666744726976657360c81b606082015260800190565b6020808252601b908201527f7761697450726f76696465722073686f756c6420626520747275650000000000604082015260600190565b60208082526025908201527f64697265637456616c75652063616e6e6f742062652062696767657220746861604082015264371018b5a160d91b606082015260800190565b60208082526018908201527714dd185d19481bd9881591c81a5cc81b9bdd08199a5b985b60421b604082015260600190565b6020808252601f908201527f546865207374617465206973206e6f742057616974696e6752657665616c7300604082015260600190565b60208082526028908201527f5468652073656e646572206973206e6f7420706172747920746f207468697320604082015267696e7374616e636560c01b606082015260800190565b918252602082015260400190565b6000838252604060208301528254615945604084016001600160401b038316614da8565b6159586060840160ff8360401c16614db5565b50610100806080840152615973610140840160018601614cf0565b838103603f190160a085015261598c8160028701614cf0565b600386015460c086015260048601549091506159b460e086016001600160a01b038316614b59565b6159c683860160ff8360a01c16614cbe565b6159da610120860160ff8360a81c16614cbe565b5095945050505050565b948552602085019390935260408401919091526060830152608082015260a00190565b60006001600160401b038616825260ff8516602083015283604083015260806060830152614f5b6080830184614ba9565b60ff91909116815260200190565b6040518181016001600160401b0381118282101715615a6157fe5b604052919050565b60006001600160401b03821115615a7c57fe5b5060209081020190565b60009081526020902090565b60005b83811015615aad578181015183820152602001615a95565b838111156132285750506000910152565b801515811461457a57600080fdfe496e646578206e6f7420696e7374616e74696174656400000000000000000000a26469706673582212201d383f2a59fc163d6a0647c7a32140f2e1443ffdd299934a67eb3899be2aaa5564736f6c63430007040033",
  "libraries": {
    "Merkle": "0x7f713126D4C7396c3dBE9EdA70C3E7166B2f1314"
  },
  "devdoc": {
    "kind": "dev",
    "methods": {
      "abortByDeadline(uint256)": {
        "params": {
          "_index": "index of Descartes instance to abort"
        }
      },
      "challenge(uint256)": {
        "params": {
          "_index": "index of Descartes instance which challenger is starting the VG."
        }
      },
      "challengeDrives(uint256)": {
        "params": {
          "_index": "index of Descartes instance which is requested for the drives"
        }
      },
      "destruct(uint256)": {
        "params": {
          "_index": "index of Descartes instance to deactivate"
        }
      },
      "getResult(uint256)": {
        "params": {
          "_index": "index of Descartes instance to get result"
        },
        "returns": {
          "_0": "bool, indicates the result is ready",
          "_1": "bool, indicates the sdk is still running",
          "_2": "address, the user to blame for the abnormal stop of the sdk",
          "_3": "bytes, the result of the sdk if available"
        }
      },
      "instantiate(uint256,bytes32,uint64,uint8,uint256,address[],(uint64,uint8,bytes,bytes,bytes32,address,bool,bool)[])": {
        "params": {
          "_finalTime": "max cycle of the machine for that computation",
          "_inputDrives": "an array of drive which assemble the machine",
          "_outputPosition": "position of the output drive",
          "_roundDuration": "duration of the round (security param)",
          "_templateHash": "hash of the machine with all drives empty"
        },
        "returns": {
          "_0": "uint256, Descartes index"
        }
      },
      "provideDirectDrive(uint256,bytes)": {
        "params": {
          "_index": "index of Descartes instance the drive belongs to.",
          "_value": "bytes value of the direct drive"
        }
      },
      "provideLoggerDrive(uint256,bytes32)": {
        "params": {
          "_index": "index of Descartes instance the drive belongs to",
          "_root": "root hash of the logger drive"
        }
      },
      "revealLoggerDrive(uint256)": {
        "params": {
          "_index": "index of Descartes instance the drive belongs to"
        }
      },
      "submitClaim(uint256,bytes32,bytes32[][],bytes,bytes32[])": {
        "details": "Example: consider 3 drives, the first drive's siblings should be a pristine machine.      The second drive's siblings should be the machine with drive 1 mounted.      The third drive's siblings should be the machine with drive 2 mounted.",
        "params": {
          "_claimedFinalHash": "is the final hash of the machine",
          "_drivesSiblings": "is an array of siblings of each drive (see below example)",
          "_output": "is the bytes32 value of the output position",
          "_outputSiblings": "is the siblings of the output drive"
        }
      },
      "winByVG(uint256)": {
        "params": {
          "_index": "index of Descartes instance to win"
        }
      }
    },
    "version": 1
  },
  "userdoc": {
    "kind": "user",
    "methods": {
      "abortByDeadline(uint256)": {
        "notice": "Abort the instance by missing deadline."
      },
      "challenge(uint256)": {
        "notice": "Challenger disputes the claim, starting a verification game."
      },
      "challengeDrives(uint256)": {
        "notice": "User requesting content of all drives to be revealed."
      },
      "destruct(uint256)": {
        "notice": "Deactivate a Descartes SDK instance."
      },
      "getResult(uint256)": {
        "notice": "Get result of a finished instance."
      },
      "getState(uint256,address)": {
        "notice": "Get state of the instance concerning given user."
      },
      "getSubInstances(uint256,address)": {
        "notice": "Get sub-instances of the instance."
      },
      "instantiate(uint256,bytes32,uint64,uint8,uint256,address[],(uint64,uint8,bytes,bytes,bytes32,address,bool,bool)[])": {
        "notice": "Instantiate a Descartes SDK instance."
      },
      "isConcerned(uint256,address)": {
        "notice": "Is the given user concern about this instance."
      },
      "provideDirectDrive(uint256,bytes)": {
        "notice": "Provide the content of a direct drive (only drive provider can call it)."
      },
      "provideLoggerDrive(uint256,bytes32)": {
        "notice": "Provide the root hash of a logger drive (only drive provider can call it)."
      },
      "revealLoggerDrive(uint256)": {
        "notice": "Reveal the content of a logger drive (only drive provider can call it)."
      },
      "submitClaim(uint256,bytes32,bytes32[][],bytes,bytes32[])": {
        "notice": "Claimer claims the machine final hash and also validate the drives and initial hash of the machine."
      },
      "winByVG(uint256)": {
        "notice": "In case one of the parties wins the verification game,         then he or she can call this function to claim victory in         this contract as well."
      }
    },
    "version": 1
  },
  "storageLayout": {
    "storage": [
      {
        "astId": 468,
        "contract": "cache/solpp-generated-contracts/Descartes.sol:Descartes",
        "label": "currentIndex",
        "offset": 0,
        "slot": "0",
        "type": "t_uint256"
      },
      {
        "astId": 472,
        "contract": "cache/solpp-generated-contracts/Descartes.sol:Descartes",
        "label": "active",
        "offset": 0,
        "slot": "1",
        "type": "t_mapping(t_uint256,t_bool)"
      },
      {
        "astId": 476,
        "contract": "cache/solpp-generated-contracts/Descartes.sol:Descartes",
        "label": "nonce",
        "offset": 0,
        "slot": "2",
        "type": "t_mapping(t_uint256,t_uint256)"
      },
      {
        "astId": 963,
        "contract": "cache/solpp-generated-contracts/Descartes.sol:Descartes",
        "label": "machine",
        "offset": 0,
        "slot": "3",
        "type": "t_address"
      },
      {
        "astId": 965,
        "contract": "cache/solpp-generated-contracts/Descartes.sol:Descartes",
        "label": "li",
        "offset": 0,
        "slot": "4",
        "type": "t_contract(LoggerInterface)378"
      },
      {
        "astId": 967,
        "contract": "cache/solpp-generated-contracts/Descartes.sol:Descartes",
        "label": "vg",
        "offset": 0,
        "slot": "5",
        "type": "t_contract(VGInterface)356"
      },
      {
        "astId": 1025,
        "contract": "cache/solpp-generated-contracts/Descartes.sol:Descartes",
        "label": "instance",
        "offset": 0,
        "slot": "6",
        "type": "t_mapping(t_uint256,t_struct(DescartesCtx)1021_storage)"
      }
    ],
    "types": {
      "t_address": {
        "encoding": "inplace",
        "label": "address",
        "numberOfBytes": "20"
      },
      "t_array(t_address)dyn_storage": {
        "base": "t_address",
        "encoding": "dynamic_array",
        "label": "address[]",
        "numberOfBytes": "32"
      },
      "t_array(t_bytes32)dyn_storage": {
        "base": "t_bytes32",
        "encoding": "dynamic_array",
        "label": "bytes32[]",
        "numberOfBytes": "32"
      },
      "t_array(t_struct(Drive)3866_storage)dyn_storage": {
        "base": "t_struct(Drive)3866_storage",
        "encoding": "dynamic_array",
        "label": "struct DescartesInterface.Drive[]",
        "numberOfBytes": "32"
      },
      "t_array(t_uint256)dyn_storage": {
        "base": "t_uint256",
        "encoding": "dynamic_array",
        "label": "uint256[]",
        "numberOfBytes": "32"
      },
      "t_bool": {
        "encoding": "inplace",
        "label": "bool",
        "numberOfBytes": "1"
      },
      "t_bytes32": {
        "encoding": "inplace",
        "label": "bytes32",
        "numberOfBytes": "32"
      },
      "t_bytes_storage": {
        "encoding": "bytes",
        "label": "bytes",
        "numberOfBytes": "32"
      },
      "t_contract(LoggerInterface)378": {
        "encoding": "inplace",
        "label": "contract LoggerInterface",
        "numberOfBytes": "20"
      },
      "t_contract(VGInterface)356": {
        "encoding": "inplace",
        "label": "contract VGInterface",
        "numberOfBytes": "20"
      },
      "t_enum(State)3849": {
        "encoding": "inplace",
        "label": "enum DescartesInterface.State",
        "numberOfBytes": "1"
      },
      "t_mapping(t_address,t_struct(Party)3875_storage)": {
        "encoding": "mapping",
        "key": "t_address",
        "label": "mapping(address => struct DescartesInterface.Party)",
        "numberOfBytes": "32",
        "value": "t_struct(Party)3875_storage"
      },
      "t_mapping(t_uint256,t_bool)": {
        "encoding": "mapping",
        "key": "t_uint256",
        "label": "mapping(uint256 => bool)",
        "numberOfBytes": "32",
        "value": "t_bool"
      },
      "t_mapping(t_uint256,t_struct(DescartesCtx)1021_storage)": {
        "encoding": "mapping",
        "key": "t_uint256",
        "label": "mapping(uint256 => struct Descartes.DescartesCtx)",
        "numberOfBytes": "32",
        "value": "t_struct(DescartesCtx)1021_storage"
      },
      "t_mapping(t_uint256,t_uint256)": {
        "encoding": "mapping",
        "key": "t_uint256",
        "label": "mapping(uint256 => uint256)",
        "numberOfBytes": "32",
        "value": "t_uint256"
      },
      "t_struct(DescartesCtx)1021_storage": {
        "encoding": "inplace",
        "label": "struct Descartes.DescartesCtx",
        "members": [
          {
            "astId": 969,
            "contract": "cache/solpp-generated-contracts/Descartes.sol:Descartes",
            "label": "owner",
            "offset": 0,
            "slot": "0",
            "type": "t_address"
          },
          {
            "astId": 971,
            "contract": "cache/solpp-generated-contracts/Descartes.sol:Descartes",
            "label": "revealDrivesPointer",
            "offset": 0,
            "slot": "1",
            "type": "t_uint256"
          },
          {
            "astId": 973,
            "contract": "cache/solpp-generated-contracts/Descartes.sol:Descartes",
            "label": "providerDrivesPointer",
            "offset": 0,
            "slot": "2",
            "type": "t_uint256"
          },
          {
            "astId": 975,
            "contract": "cache/solpp-generated-contracts/Descartes.sol:Descartes",
            "label": "finalTime",
            "offset": 0,
            "slot": "3",
            "type": "t_uint256"
          },
          {
            "astId": 977,
            "contract": "cache/solpp-generated-contracts/Descartes.sol:Descartes",
            "label": "outputPosition",
            "offset": 0,
            "slot": "4",
            "type": "t_uint64"
          },
          {
            "astId": 979,
            "contract": "cache/solpp-generated-contracts/Descartes.sol:Descartes",
            "label": "outputLog2Size",
            "offset": 8,
            "slot": "4",
            "type": "t_uint8"
          },
          {
            "astId": 981,
            "contract": "cache/solpp-generated-contracts/Descartes.sol:Descartes",
            "label": "roundDuration",
            "offset": 0,
            "slot": "5",
            "type": "t_uint256"
          },
          {
            "astId": 983,
            "contract": "cache/solpp-generated-contracts/Descartes.sol:Descartes",
            "label": "timeOfLastMove",
            "offset": 0,
            "slot": "6",
            "type": "t_uint256"
          },
          {
            "astId": 985,
            "contract": "cache/solpp-generated-contracts/Descartes.sol:Descartes",
            "label": "vgInstance",
            "offset": 0,
            "slot": "7",
            "type": "t_uint256"
          },
          {
            "astId": 987,
            "contract": "cache/solpp-generated-contracts/Descartes.sol:Descartes",
            "label": "templateHash",
            "offset": 0,
            "slot": "8",
            "type": "t_bytes32"
          },
          {
            "astId": 989,
            "contract": "cache/solpp-generated-contracts/Descartes.sol:Descartes",
            "label": "initialHash",
            "offset": 0,
            "slot": "9",
            "type": "t_bytes32"
          },
          {
            "astId": 991,
            "contract": "cache/solpp-generated-contracts/Descartes.sol:Descartes",
            "label": "claimedFinalHash",
            "offset": 0,
            "slot": "10",
            "type": "t_bytes32"
          },
          {
            "astId": 993,
            "contract": "cache/solpp-generated-contracts/Descartes.sol:Descartes",
            "label": "claimedOutput",
            "offset": 0,
            "slot": "11",
            "type": "t_bytes_storage"
          },
          {
            "astId": 996,
            "contract": "cache/solpp-generated-contracts/Descartes.sol:Descartes",
            "label": "partiesArray",
            "offset": 0,
            "slot": "12",
            "type": "t_array(t_address)dyn_storage"
          },
          {
            "astId": 998,
            "contract": "cache/solpp-generated-contracts/Descartes.sol:Descartes",
            "label": "claimer",
            "offset": 0,
            "slot": "13",
            "type": "t_uint64"
          },
          {
            "astId": 1000,
            "contract": "cache/solpp-generated-contracts/Descartes.sol:Descartes",
            "label": "currentChallenger",
            "offset": 8,
            "slot": "13",
            "type": "t_uint64"
          },
          {
            "astId": 1002,
            "contract": "cache/solpp-generated-contracts/Descartes.sol:Descartes",
            "label": "votesCounter",
            "offset": 16,
            "slot": "13",
            "type": "t_uint64"
          },
          {
            "astId": 1006,
            "contract": "cache/solpp-generated-contracts/Descartes.sol:Descartes",
            "label": "parties",
            "offset": 0,
            "slot": "14",
            "type": "t_mapping(t_address,t_struct(Party)3875_storage)"
          },
          {
            "astId": 1008,
            "contract": "cache/solpp-generated-contracts/Descartes.sol:Descartes",
            "label": "currentState",
            "offset": 0,
            "slot": "15",
            "type": "t_enum(State)3849"
          },
          {
            "astId": 1011,
            "contract": "cache/solpp-generated-contracts/Descartes.sol:Descartes",
            "label": "revealDrives",
            "offset": 0,
            "slot": "16",
            "type": "t_array(t_uint256)dyn_storage"
          },
          {
            "astId": 1014,
            "contract": "cache/solpp-generated-contracts/Descartes.sol:Descartes",
            "label": "providerDrives",
            "offset": 0,
            "slot": "17",
            "type": "t_array(t_uint256)dyn_storage"
          },
          {
            "astId": 1017,
            "contract": "cache/solpp-generated-contracts/Descartes.sol:Descartes",
            "label": "driveHash",
            "offset": 0,
            "slot": "18",
            "type": "t_array(t_bytes32)dyn_storage"
          },
          {
            "astId": 1020,
            "contract": "cache/solpp-generated-contracts/Descartes.sol:Descartes",
            "label": "inputDrives",
            "offset": 0,
            "slot": "19",
            "type": "t_array(t_struct(Drive)3866_storage)dyn_storage"
          }
        ],
        "numberOfBytes": "640"
      },
      "t_struct(Drive)3866_storage": {
        "encoding": "inplace",
        "label": "struct DescartesInterface.Drive",
        "members": [
          {
            "astId": 3851,
            "contract": "cache/solpp-generated-contracts/Descartes.sol:Descartes",
            "label": "position",
            "offset": 0,
            "slot": "0",
            "type": "t_uint64"
          },
          {
            "astId": 3853,
            "contract": "cache/solpp-generated-contracts/Descartes.sol:Descartes",
            "label": "driveLog2Size",
            "offset": 8,
            "slot": "0",
            "type": "t_uint8"
          },
          {
            "astId": 3855,
            "contract": "cache/solpp-generated-contracts/Descartes.sol:Descartes",
            "label": "directValue",
            "offset": 0,
            "slot": "1",
            "type": "t_bytes_storage"
          },
          {
            "astId": 3857,
            "contract": "cache/solpp-generated-contracts/Descartes.sol:Descartes",
            "label": "loggerIpfsPath",
            "offset": 0,
            "slot": "2",
            "type": "t_bytes_storage"
          },
          {
            "astId": 3859,
            "contract": "cache/solpp-generated-contracts/Descartes.sol:Descartes",
            "label": "loggerRootHash",
            "offset": 0,
            "slot": "3",
            "type": "t_bytes32"
          },
          {
            "astId": 3861,
            "contract": "cache/solpp-generated-contracts/Descartes.sol:Descartes",
            "label": "provider",
            "offset": 0,
            "slot": "4",
            "type": "t_address"
          },
          {
            "astId": 3863,
            "contract": "cache/solpp-generated-contracts/Descartes.sol:Descartes",
            "label": "waitsProvider",
            "offset": 20,
            "slot": "4",
            "type": "t_bool"
          },
          {
            "astId": 3865,
            "contract": "cache/solpp-generated-contracts/Descartes.sol:Descartes",
            "label": "needsLogger",
            "offset": 21,
            "slot": "4",
            "type": "t_bool"
          }
        ],
        "numberOfBytes": "160"
      },
      "t_struct(Party)3875_storage": {
        "encoding": "inplace",
        "label": "struct DescartesInterface.Party",
        "members": [
          {
            "astId": 3868,
            "contract": "cache/solpp-generated-contracts/Descartes.sol:Descartes",
            "label": "isParty",
            "offset": 0,
            "slot": "0",
            "type": "t_bool"
          },
          {
            "astId": 3870,
            "contract": "cache/solpp-generated-contracts/Descartes.sol:Descartes",
            "label": "hasVoted",
            "offset": 1,
            "slot": "0",
            "type": "t_bool"
          },
          {
            "astId": 3872,
            "contract": "cache/solpp-generated-contracts/Descartes.sol:Descartes",
            "label": "hasCheated",
            "offset": 2,
            "slot": "0",
            "type": "t_bool"
          },
          {
            "astId": 3874,
            "contract": "cache/solpp-generated-contracts/Descartes.sol:Descartes",
            "label": "arrayIdx",
            "offset": 3,
            "slot": "0",
            "type": "t_uint64"
          }
        ],
        "numberOfBytes": "32"
      },
      "t_uint256": {
        "encoding": "inplace",
        "label": "uint256",
        "numberOfBytes": "32"
      },
      "t_uint64": {
        "encoding": "inplace",
        "label": "uint64",
        "numberOfBytes": "8"
      },
      "t_uint8": {
        "encoding": "inplace",
        "label": "uint8",
        "numberOfBytes": "1"
      }
    }
  }
}